S02100006275696C642F64656275672F6F742D6E63702D6D74642D6370632E73333738
S31508006000081800209D7D020879F903087DF9030820
S3150800601075D0000881F9030889F90308CB6E0208D0
S31508006020CB6E0208CB6E0208CB6E0208CB6E020856
S315080060308DF9030898D00408CB6E0208CB6E0208C7
S31508006040CB6E0208CB6E0208CB6E0208CB6E020836
S31508006050CB6E0208CB6E0208CB6E0208CB6E020826
S31508006060CB6E0208CB6E0208CB6E0208CB6E020816
S31508006070CB6E0208CB6E0208CB6E020821CF02084F
S31508006080CB6E0208CB6E0208CB6E0208CB6E0208F6
S31508006090CB6E0208CB6E0208CB6E0208CB6E0208E6
S315080060A0CB6E0208CB6E0208CB6E0208CB6E0208D6
S315080060B0CB6E0208CB6E0208CB6E0208CB6E0208C6
S315080060C0CB6E0208CB6E0208CB6E0208696F020817
S315080060D0CB6E0208CB6E0208CB6E0208456F02082B
S315080060E0216F0208CB6E0208CB6E0208CB6E02083F
S315080060F0CB6E0208E16504089D6E04084390040807
S315080061003F90040829660408599004084790040833
S315080061106D6E04084B900408DD6E0408456F04088C
S31508006120CB6E0208CB6E0208CB6E0208CB6E020855
S31508006130CB6E0208CB6E0208CB6E0208CB6E020845
S31508006140CB6E0208CB6E0208CB6E0208CB6E020835
S31508006150CB6E0208CB6E0208CB6E0208CB6E020825
S31508006160CB6E0208CB6E0208CB6E0208CB6E020815
S31508006170CB6E0208CB6E0208CB6E0208CB6E020805
S31508006180CB6E0208CB6E0208CB6E02084597040850
S31508006190F5510408CB6E02082D90040833900408C4
S315080061A0CB6E0208CB6E0208CB6E0208CB6E0208D5
S309080061B0CB6E02089A
S315080061C0F0B5114A114C124E00F00105E3695F075C
S315080061D013D40DB9334213D103EA00078F4207D10E
S315080061E00B4A1A40002A0CBF00206FF00100F0BDD0
S315080061F0013AEBD16FF00200F9E74FF0FF30F6E70E
S315080062006FF00100F3E700BF809698000000035086
S31508006210020001000000000000000000000000006D
S31508006220013800D0FCE7704700F50050B0F80007C9
S31508006230704700F50050D0F84C08704700F58050BC
S3150800624090F8520F704700F5805090F8600F70472D
S315080062500048704718C204080048704719C2040865
S31508006260004870471AC20408004870471BC2040851
S3150800627000F58050D0F8EC0A704700F58050C0F859
S31508006280EC1A704700F58050D0F8F80A70470029D4
S3150800629008BF4FF4E151054B00F58050994294BF71
S315080062A0C0F8F81AC0F8F83A704700BF9AC4200038
S315080062B000F58050D0F8FC0A7047074B00F580506F
S315080062C0002914BF0A461A46044B9A4294BFC0F8DE
S315080062D0FC2AC0F8FC3A7047007512009AC42000E0
S315080062E000F50050D0F86401704700F5F5501030FD
S315080062F0704700F5F6500130704700F58050D0F829
S31508006300DC0E704700F58050B0F8120F704700F5A4
S315080063108050A0F8121F704703468288C08811442F
S3150800632081429DBF1868998080180020704770B513
S3150800633005680C4625B9BDE870404B6808481847FB
S315080063408B6898476A680146831A002BB8BF121AE9
S315080063502368A8BF0022BDE870400148184700BF5F
S315080063601019002038B50C461146A2680346944217
S3150800637006D00568AC420BD10260FFF7D8FFA460CF
S3150800638038BD94420DD011469268002AF9D1F6E735
S315080063902A460021F9E78B68002BF0D09B688B60B2
S315080063A0EDE70029F7D1002DE9D0AA681A60E6E7DB
S315080063B02DE9F041936805460C461646984732463D
S315080063C0074621462846FFF7CDFF286800220346E0
S315080063D06BB16168D3F804E0A1EB070CAEEB0708D4
S315080063E098EA0C0F13D4A1EB0E01002907DA4AB973
S315080063F0A0602C6031462846BDE8F04197E71A466A
S315080064009B68E5E79368A3609460BDE8F081BCF1FA
S31508006410000FEBE770B5066804460D467EB18B683B
S3150800642098477368C01A002809DB20462A46314671
S31508006430FFF798FF30463368BDE87040184729468D
S315080064402046BDE8704072E700F5005393F84838D7
S3150800645013B102490830DDE7704700BF1CC20408C3
S3150800646000F5005393F8483813B102490C30D1E7C8
S31508006470704700BF28C20408012300F007008340C4
S3150800648013F0220F09D113F0880F08D113F0440F27
S3150800649014BF01200020C000704704207047102058
S315080064A07047D0F8020000BA70474200400800F072
S315080064B0553002F0AA3202439300920802F03332B2
S315080064C003F0CC33134318011B0903F00F3300F014
S315080064D0F030184300BA704710B590F830200B46D4
S315080064E082B1013AD2B280F8302000EB0210814224
S315080064F007D000F1100250F8041B904243F8041B21
S31508006500F9D110BD144603CC102C186059602246E8
S3150800651003F10803F6D1FFDEA0F14103192B98BF5A
S315080065202030A1F1410398BFC0B2192B9CBF20317E
S31508006530C9B20B1A58425841704700880B88C01ACE
S31508006540704700F50050B0F802378B420AD0A0F821
S315080065500217054890F85931022B03D100F5AC70A3
S3150800656039F0EAB8704700BF1039002000F500532B
S31508006570B3F800278A4205D0A3F8001700F51C5087
S3150800658015F0C2BE704700F5F6500A4612300021D3
S3150800659015F088B800F5F6500A461230012115F0B4
S315080065A081B808B53130313120F0010021F0010100
S315080065B003780A7803F00F0302F00F029A4207D114
S315080065C00431043042F061FDB0FA80F0400908BD9C
S315080065D00020FCE710B5044604F5005436F03EFCEE
S315080065E0D4F8403133F07C4204D0C3F319039842FF
S315080065F028BF184610BD42F21073994210B50446DA
S3150800660015D800F50053D3F8682191420DD0C3F888
S31508006610681136F015FC074B93F8683FDB0704D57D
S3150800662004F50550183017F0F5FA002010BD0720BC
S31508006630FCE700BF1029002000F50550002218309D
S3150800664016F03CBE00F5F6500022183016F0AABA2D
S315080066501346B0F86C202AB10A4600F15C010248DC
S3150800666017F05ABC0D207047A82F002038B50446ED
S3150800667008464D7894F8FE20A91C031B51FA83F3AB
S31508006680D21A014441F0C1FC94F8FE30023B5B1B70
S3150800669084F8FE3038BD37F0C1B931F0DDBD8378F6
S315080066A0072B09D190F86E00C30903D000F07F00CC
S315080066B036F016BC36F040BC704730F019BA13B540
S315080066C00446006820B940F20D13E38102B010BDFC
S315080066D004F108030093A389E288A18837F077FEBE
S315080066E0A073B0B962892389E1881344A2889BB252
S315080066F00A4492B29A422CBFC3EB0201C3EB0301D0
S31508006700A380DB438AB29BB2934228BF1346E38039
S31508006710DCE70023172808BF1846A3600123A073E7
S31508006720E373D3E7102208B542F0AFFCB0FA80F065
S31508006730400908BDF8B504460F4690F8306000EBEE
S315080067400616B442254601D1002506E020463946FC
S31508006750FFF7E8FF10340028F3D02846F8BD882252
S31508006760002141F0AEBA0023036043607047024639
S3150800677008B50846FFF7F7FF126802B908BD03888F
S31508006780013303800123116841B941880B444380D2
S31508006790518943680B444360D269EEE701330968BF
S315080067A0DBB2F1E7C1F30002F8B501F0020343EAF0
S315080067B0C203C1F380010B4399075AB247D400F5C7
S315080067C0005595F85B7142F004039F4224D000F50A
S315080067D005541834204685F85B3116F00FFD95F8F8
S315080067E05961304637F0F1FCC0B195F85B1195F860
S315080067F05831C7F34002C1F340008242C3F3C003D5
S3150800680004D15BB93A0709D50B0707D400232046FC
S31508006810A5F8803217F0D4FA0020F8BD012E0BD166
S3150800682000262046A5F8806217F03AFA314604F5A4
S31508006830907016F0E5FDEFE7022EEDD12046B5F88B
S315080068405C1117F023FE204638F076FFE4E70720B0
S31508006850E3E71022002141F034BA036823B9172070
S31508006860B0FA80F040097047994201D01B6BF5E7F2
S315080068700020F5E74FF6FE720B46018891421DBFD0
S3150800688007C883E8070000201720704708B520F0DE
S315080068901EFA08BD01F1100351F8042B994240F87D
S315080068A0042BF9D17047313020F001000078C0F38D
S315080068B00110704708B5FFF7F6FFB0FA80F04009F7
S315080068C008BD836D18472622002141F0FAB9030E48
S315080068D00B70030C4B70030A8B70C870704708B5B1
S315080068E00246FFF7E7FF30B1313222F00102507855
S315080068F0831E5842584108BD1422002141F0E1B9CF
S315080069002DE9F84F0746884691469A464FF0000B00
S315080069100A9D0BEB0904661006FB0A8638463146C3
S31508006920A8470028C4F34F0407D0D2BFA1460134B4
S315080069301FFA84FBCB45ECD300263046BDE8F88F1A
S315080069400023F0B5441E184601392AB91BB1024482
S3150800695092B2904211D1F0BD14F8017F11F8016F7F
S31508006960082A154628BF0825B74287EA0603EDD147
S315080069702844521B80B292B2E7E71906EBD45B00B3
S315080069800130DBB280B2E4E700BA7047024608B5C8
S31508006990D1E900035BBA1380FFF7F6FFD388C2F884
S315080069A0020008895BBA03F0010343EA400398B280
S315080069B05BBAD3808B7A20F0010003435BBAD3809D
S315080069C008BD70B583880446C0889E188642154659
S315080069D008D82068184441F093FB0020A3881D447A
S315080069E0A58070BD0320FCE707B549BAADF80610C7
S315080069F002220DF10601FFF7E4FF03B05DF804FB80
S31508006A000122DEE738B50446A388084693421546B0
S31508006A100AD3216841F074FB0020A38822685B1B17
S31508006A202A442260A38038BD0620FCE70122E9E754
S31508006A3010B502220C46FFF7E5FF10B923885BBAAA
S31508006A40238010BD4368036003B1DB694360704768
S31508006A5010B5436A044623B1002202214262826AC3
S31508006A609847236A9C420FD1084A02F5805123466B
S31508006A70D06D24681860D365B1F86036013BA1F87B
S31508006A806036002CF3D110BDFEE700BF10190020B8
S31508006A902DE9F041C389044601EB03081FFA88F87B
S31508006AA043450D4602D90320BDE8F0810646502726
S31508006AB0B84533680CD800223260124A02F5805174
S31508006AC0A3B9A3896581AB4200D9A5810020EBE76C
S31508006AD01BB17C373668BFB2EAE76079C0F341007C
S31508006AE036F098FE30600028F3D1DCE7D66D1868DA
S31508006AF01E60D365B1F86036013BA1F860360346DF
S31508006B00DEE700BF10190020F8B500F1310424F0C3
S31508006B100104054620460F461646FFF7EDFE237884
S31508006B20042103F03F0343F0400323700023284663
S31508006B30AB812182FFF7ACFF2378667023F0300320
S31508006B4043EA07112170F8BD70B500F1310525F04B
S31508006B5001052B78064623F00F0302F00F000343C6
S31508006B602846144600F8043B41F0CAFA2B8A3046F8
S31508006B70E11889B22982BDE8704089E7313121F0F0
S31508006B8001010A7802F00F02082A00D9FEE704314B
S31508006B90DAE7838942891944914200DDFEE789B222
S31508006BA09142818100D9FEE7704743898B4200D222
S31508006BB0FEE75B1A43818389C2898B4294BF00230F
S31508006BC05B1A0A4488BF9BB2C2818381704770B53D
S31508006BD04489A1422FD215880D44AEB2B14201D8DC
S31508006BE0A54201DB641A1480C4899860214489B2DD
S31508006BF04F2910D830300844C1F1500189B2998024
S31508006C0018601088814228BF0146998011889B88A0
S31508006C10CB1A138070BD5039986889B2006898609D
S31508006C2000B9FEE77B2904D804300844C1F17C0189
S31508006C30E4E77C39F0E70021E7E770B5154686B04A
S31508006C40ADF806300DF1060203ABFFF7C0FF2C4680
S31508006C50BDF810601EB9601B80B206B070BD0399FE
S31508006C603246204641F04CFA03A90DF10600344499
S31508006C7036F0EEFAECE738B54589CC18AC4203DCB9
S31508006C80FFF7DBFF002038BD0620FCE70246084672
S31508006C9049893823383989B2EDE7024608464989D1
S31508006CA02C232C3989B2E6E770B5164631310468CB
S31508006CB08CB021F0010514B920460CB070BD04F162
S31508006CC0310323F001036A885B889A4212D102A82D
S31508006CD0FFF7F9FD214601A8FFF7DFFFBDF82A20D7
S31508006CE0738C9A4206D106F1100106A8FFF71AFD21
S31508006CF00028E1D1E469DEE738B504460D460B46BF
S31508006D0001890068FFF7B7FF10B923891D4425815B
S31508006D1038BD13B50B880C460C2B0BD90D2B0CD193
S31508006D2001210DF10602FFF7E7FF20B99DF80630AD
S31508006D300D332380002002B010BD0E2B0CD102218A
S31508006D400DF10602FFF7D8FF0028F4D1BDF806308A
S31508006D505BBA03F20D13ECE70620ECE773B54FF6C2
S31508006D60FF76C3880446B34206D001210DF103021B
S31508006D70FFF7C2FF18B1E680002002B070BD9DF88B
S31508006D800350FF2D0CD12368E68022895B899A423D
S31508006D90F2D306204FF6FF73E38000232381ECE746
S31508006DA02B0920460DF10601ADF80630FFF7B1FFB5
S31508006DB00028EFD105F00F05204601A9ADF80450CB
S31508006DC0FFF7A7FF0028E5D1216823894989BDF87F
S31508006DD00420C91A8A42DCDC1344BDF80610238154
S31508006DE0A388E2800B44A380C6E730B401F13102E0
S31508006DF022F00102D48912784D8902F00F0204327A
S31508006E00224495424FF0000404D3C0E900140281DD
S31508006E1030BCA3E74FF6FF720481C28030BC06205F
S31508006E20704710B44C889C4203D309885DF8044B1C
S31508006E3021E706205DF8044B70472DE9F04786B038
S31508006E4017461C46ADF806300DF1060203ABDDF811
S31508006E503880FFF7BCFEBDF810507DB1039EB8F12F
S31508006E60000F11D0B94606EB050AB24513D019F83A
S31508006E70011B16F8010BC0470028F6D1B4FA84F0B6
S31508006E80400906B0BDE8F0872A463946304642F042
S31508006E90FCF80028F2D12F4403A9651B0DF1060062
S31508006EA0ACB236F0D5F9D6E770B586B0ADF806308F
S31508006EB00B4414469AB2914200D9FEE7428993429E
S31508006EC000DDFEE703AB0DF10602FFF780FEBDF815
S31508006ED010500DB906B070BD21462A46039841F0F8
S31508006EE094F803A90DF106002C4436F0B1F9EEE743
S31508006EF070B500F1310424F00104A37C05465BB1AA
S31508006F004389218A994207D1012994BF491A01F177
S31508006F10FF3189B2FFF7BCFD2378224603F00F0341
S31508006F202846BDE8704000210433BDE72DE9F0414D
S31508006F30B0F80A800F4602EB080399B241450546A8
S31508006F4016460CD3FFF7A4FD044628B933463A463D
S31508006F5041462846FFF7A8FF2046BDE8F0810324EE
S31508006F60FAE70122E2E7FF2313B58DF807304389D4
S31508006F700446B3F5007F0FD20DF10701FFF7F1FFC5
S31508006F8040B9012204F1310323F001039A7462899E
S31508006F901A82A28102B010BD0320FBE703781BB159
S31508006FA0012B03D0002070474068BFE7043008E58E
S31508006FB037B58DF8071001393E29054614460DD810
S31508006FC010460DF10701FFF7CCFF28B929462046E0
S31508006FD09DF80720FFF7AAFF03B030BD0720FBE79F
S31508006FE02DE9F04114469A180E4691B286B08C42A5
S31508006FF00546ADF8063029D87189914228DBB0F8E4
S315080070000A80434499B2414524D3FFF741FD074618
S3150800701048B92146304603AB0DF10602FFF7D7FD06
S31508007020BDF810401CB9384606B0BDE8F0812346C5
S3150800703041462846039AFFF737FF444403A90DF152
S3150800704006001FFA84F836F003F9E9E70727EAE7A6
S315080070500627E8E70327E6E7F8B504460E46154689
S3150800706000F13007E3899D420BD85B1B6289E381F7
S31508007070A3892A442B4492B29BB29A42628117D2C0
S31508007080FEE76079C0F3410036F0C4FBD0B123684F
S315080070900360E38920604F2B06D83030C3F15002D5
S315080070A0F918184441F02CF8E3897C33E381D9E7D1
S315080070B0A3812EB12B46324600212046FFF7F4FE67
S315080070C00020F8BD0320FCE7F0B50646B2420C46A0
S315080070D01046194689B001D1A34215D36B460EAAAC
S315080070E0FFF775FDBDF804500DB909B0F0BD21468E
S315080070F030462B46009AFFF7D7FE2C4469460EA861
S31508007100A4B236F0A5F8EDE7BDF838502C441D4476
S31508007110A4B2ADB2BDF83820002AE6D0202A174618
S3150800712028BF2027ED1BD21BADB2E41B3B462946E0
S31508007130ADF8382030466A46A4B2FFF77EFD3B46D6
S315080071406A4621463046FFF7AFFEE3E773B50546C4
S3150800715003796E8940798E42C0F3410228BF0E46F4
S31508007160C3F340038DF80520E98901AA40098DF883
S31508007170043036F08FFB0446002832D0334600220E
S315080071802946FFF72DFF48BBAB896289B34228BF62
S3150800719033469A4200D2FEE7A381AA79A37962F31D
S315080071A00303A3712B792279DB0963F3C7122271D2
S315080071B06B796279C3F3C10363F3C4026271AB6985
S315080071C0A3612B8A23826B8A63822B7A2372AB8D07
S315080071D0A385EB8DE385204602B070BD2046FFF7F8
S315080071E037FC0024F7E710B50446FFF7AFFF98B160
S315080071F004F1310300F1310223F0010322F0010208
S3150800720003F1100153F8044B8B4242F8044BF9D1B1
S31508007210198811809B78937010BD0B6A994200D02B
S31508007220FEE70B796FF382030B71036823B9C1E993
S315080072300733016041607047012A4FF0000205D00C
S31508007240C1E907320368196201607047CA61436879
S315080072500B62D961EEE70368994204BFCB69036004
S315080072604368994204BF0B6A43600B6A0BB1CA694B
S31508007270DA61CB690BB10A6A1A6200220B79C1E995
S31508007280072162F382030B71704710B5FFF7E3FF1E
S31508007290BDE810400846FFF7DBBB10B50446216879
S315080072A001B910BD2046FFF7F0FFF8E70B7910B5D6
S315080072B05B0700D4FEE74B79C3F3410300EB830277
S315080072C05468A14209D10C6A546034B16479C4F394
S315080072D041049C421CBF002353600368994204BFC3
S315080072E0CB690360CB690BB10A6A1A620B6A0BB1E8
S315080072F0CA69DA6100220B79C1E9072162F38203C0
S315080073000B7110BD4A7970B5C2F3410214460B7968
S31508007310061D43F004030B7156F824301BB90134DB
S31508007320E5B2042DF8D10B624BB90368CB61016055
S31508007330CB6903B1196200EB8200416070BDDC695C
S31508007340CC61D961F4E78B894989038099422CBFBE
S31508007350C3EB0102C3EB0302DB4392B29BB2934237
S3150800736028BF13464380704743880288994228BF3E
S31508007370194612FA81F25B1A028043807047F0B50B
S315080073800C46064685B003A802AF1546FFF7DBFF95
S3150800739020463346BDF80E20BDF80C10009737F08E
S315080073A016F8044668B904213846FFF7DDFFBDF82C
S315080073B00A30022B08D9822B28BF8223029828601C
S315080073C06B80204605B0F0BD0624FAE7084A138804
S315080073D003B9FEE748F24E305368A3FB003010EBC2
S315080073E0530044BF20F0004001305060704700BF92
S315080073F0C8640020814210B5044600D8FEE7FFF7AE
S31508007400E5FF091BB0FBF1F303FB1100204410BD97
S3150800741038B50D46814288BF85B2690004460131F8
S315080074200020FFF7E7FF2044401B38BD10B540B1E8
S315080074300023441E98B2814203D90133E25C002A34
S31508007440F8D110BD0139013811F8012F10F8013FA4
S315080074503AB9002B14BF01200220831E5842584116
S3150800746070479A42F0D00020F7E7A0F14103052BB8
S3150800747004D83738C0B2087000207047A0F16103FD
S31508007480052B01D85738F5E73038C0B20928F2D9A4
S315080074900720704770B504460E46E588134682886D
S315080074A00068AA4234BFA91A00211044324638F0AF
S315080074B0DDFE002800DAFEE7A388E288184480B2D9
S315080074C0904228BF2368A08022BF9B18002203F899
S315080074D0012C204670BD0EB417B5044605AA52F80D
S315080074E0041B0192FFF7D6FF204603B0BDE8104003
S315080074F003B0704770B506460D460024AC4201D36A
S31508007500012070BD305D0134030605D438F09EFEB7
S315080075100028F3D00020F4E710F04003FAD08106E3
S3150800752012D5C20612D50307F4D4032307E0AC42EA
S31508007530F0D0325D013402F0C002802AEAD1013B64
S31508007540DBB2FF2BF3D1D9E70123F8E70223F6E7ED
S31508007550436853B9054B5A6812B95860406070477A
S31508007560526842605A685060586070471019002087
S3150800757003685A1A11EA220138BF194643685A1A8B
S3150800758013EA220338BF0B46436070474160024A3C
S3150800759001460248FEF70CBF1CC204081819002051
S315080075A0F7B5724C04214FF47A70E56CFFF730FF9B
S315080075B0291804F14800FFF7E9FF636CD80714D5CA
S315080075C0FFF764F904F500550646D5F8E010684655
S315080075D037F0BBF805F1E0070099002940F08180F3
S315080075E0D5F8E00008B933F041FE636C990625D555
S315080075F05F4D95F8D5367BB1FFF748F9D5F8D836FB
S3150800760003F5C333A0331B1A002BBEBF95F8F63615
S3150800761043F0010385F8F63695F8FF16B5F8FC36FB
S3150800762095F8FE26002970D1002A40F08380002BA9
S3150800763040F08780D5F8FC0636F09DFE636C5A0646
S3150800764020D54B4EB6F8B43643B1013B9BB2A6F8EB
S31508007650B4361BB906F5D6601EF0C6FAD6F8B0568B
S315080076606DB1013DC6F8B0564DB902202EF0F2FCB8
S315080076704048294615F08FFF28462EF049FD3D481B
S3150800768015F07FFF636CDB056ED5002003460546C3
S315080076903949A1F2A466CA787AB1013AD2B2CA7057
S315080076A032B1086806EB8302C2F8A406012001334A
S315080076B00135232D01F10401EDD1002104EB8304EA
S315080076C004F5B5540734222B03DC14F8042B002ADE
S315080076D046D1002848D1082003B0BDE8F04033F071
S315080076E0C5BD8B69F31AB3F5FA6F0AD34B793846D9
S315080076F05B0902BFD5F820310133C5F82031FFF701
S31508007700C4FD6846FFF79EF966E70139C9B285F8F0
S31508007710FF16002988D11AB1013AD2B285F8FE2699
S3150800772023B1013B9BB2A5F8FC368BB11348FFF792
S315080077300FFF7FE7013AD2B285F8FE26002AEFD07E
S3150800774075E7013B9BB2A5F8FC36002B7FF472AFB8
S3150800775095F8D536002BE9D0012385F8D536E5E727
S3150800776004F8041C0133AEE703B0F0BD101900207D
S3150800777010390020C03F0020B42F0020CC3F002045
S31508007780002A00DAFEE7114400E738B50D4604463C
S31508007790FFF77CF82A4601462046BDE83840EFE761
S315080077A010B590F82430044643B1012B01D1436942
S315080077B083612046A169BDE81040E6E74169B1EB5F
S315080077C0510F4FEA510001D9FFF714FE0023A061BB
S315080077D0E38384F82530ECE710B590F824300446A6
S315080077E07BB1012B08D10169C0680131FFF702FEA0
S315080077F060612046FFF7D4FF2046236ABDE81040A3
S31508007800184790F825306BB1012BF5D1426922B1A2
S315080078100369991A8A4298BF530063612046BDE8F6
S315080078201040BDE7012380F82530D0E90513C91AB1
S31508007830FFF7ABFFE28BA38B9A42DDD310BD064B55
S3150800784006485A69196A914208BF9A6901F1804146
S3150800785004BF01329A6199E6101900202C190020FC
S315080078608368984203D04368CB1A002B00DA8DE66A
S3150800787070470146014A0248FEF774BD1CC2040857
S3150800788018190020D1E9003103F10043013B8B426E
S3150800789000D07BE6EDE710B5044692B0684636F0B0
S315080078A01DFF616802A836F050FF029931B9694692
S315080078B004F11000FFF7E6FF12B010BD04A8FFF7A9
S315080078C0E5F968460F99FFF753FE02A8FFF7BAF8DD
S315080078D0EBE72DE9F0410546144604301E46069F9F
S315080078E09DF81C80FFF7D1FC2846FFF7D4FF656A90
S315080078F03DB143463A463146AC46A06ABDE8F0413A
S315080079006047BDE8F0812DE9F04192B004460D4686
S31508007910416802A836F019FF0B274FF00008029EAF
S3150800792016B912B0BDE8F081314604A8FFF7AEF9E2
S3150800793025B1294604A8FEF7F5FE38B100233146DD
S315080079402046CDE9008704AAFFF7C3FF02A8FFF780
S3150800795079F8E4E72DE9F04F9FB00093289B064697
S3150800796008460193FEF79FFF02280C4617460CD0DF
S31508007970032801F1310300F0F480B28923F00103F2
S31508007980511C52BAB1815A8045E006A8FEF79BFF02
S31508007990FEF77CFF3A4600F57130D83006F12C091F
S315080079A0059006AB07F1200C1D4610685168083291
S315080079B003C562452B46F7D1106821462860928890
S315080079C04846AA803A46FFF76FF9054618BBF16A9A
S315080079D003A836F0BAFEAA46AB46DDF80C80B8F125
S315080079E0000F40F09D801FFA8AF3092B03D9294618
S315080079F04846FFF74AFC20466189FFF7F4FB05462F
S31508007A0048B12C2205A9FFF791FA002800F09E80BC
S31508007A102846FFF71DF82046FFF76AFA2046FEF7C4
S31508007A2049FF002800F0A480B4F80AB0BBF1000FA3
S31508007A3000F0B88010AB3D46994607F1100C1A467F
S31508007A4028686968083503C265451346F7D17B8CF3
S31508007A5014AAADF8603005F1100C13462868696859
S31508007A60083503C365451A46F7D1009A97F82530B5
S31508007A701992019AC3F300131A92BDF874209B0257
S31508007A8022F49F6222F0070243F00403134340F6F0
S31508007A90B9314FF4FA60ADF87430FFF7ABFC9DF8D6
S31508007AA075301C906FF3000320468DF87530FEF78D
S31508007AB001FF9DF8753060F341038DF87530FEF7C8
S31508007AC0E5FE9DF8753059469B074CBF1C9B394B04
S31508007AD018441B902046FFF786FB054600285CD015
S31508007AE038224946FFF722FA002853D106F104083E
S31508007AF0012229464046FFF790FB3046FFF7CBFEAA
S31508007B0021463A463046FEF7DCFE0446002845D0B4
S31508007B1040462946FFF7B9FB3046FFF7BCFE3DE075
S31508007B2011A8FEF7D0FE414610A8FFF7B6F825B112
S31508007B30109AA2EB0B02002A02DA4546DDF840B09D
S31508007B4003A8FEF77FFF0AF1010A46E729464846D9
S31508007B500122FFF762FB059906F13400FFF780FE64
S31508007B6059E723F001035B78002B3FF454AFFEE797
S31508007B702046FEF798FE012814D1009B93B104F124
S31508007B80310323F0010393F800B00BF00F0B0BF150
S31508007B90040B4FE72846FEF75BFF032420461FB079
S31508007BA0BDE8F08F3A46214630461FB0BDE8F04F93
S31508007BB0FEF787BE486B0100002307B50093FFF761
S31508007BC0C9FE03B05DF804FB2DE9F0419CB0C56819
S31508007BD0FEF75CFE064604A8FEF775FE696802A86D
S31508007BE036F0B3FD1C274FF00008029C2CB9284636
S31508007BF0FFF751FE1CB0BDE8F08121460EA8FFF73D
S31508007C0045F8199BF31A002B0EDB9DF86D309A0781
S31508007C1002D59DF86C305BB9002321462846CDE98C
S31508007C2000870EAAFFF755FE02A8FEF70BFFDCE752
S31508007C30013B8DF86C301A9B20465B001A9333443F
S31508007C401993382361890DEB0302383989B2FFF796
S31508007C502BF99DF86D30DB07E6D40DF1200C12AB3D
S31508007C600FCB8CE80F00BDF858300EA904A8ADF864
S31508007C703230FEF70FFE9DF86D309DF83520C3F3C0
S31508007C80800363F304128DF835206189204638395C
S31508007C9089B2FFF7A8FA04460028C5D0014604AA07
S31508007CA02846FEF70EFE0028BED02046FEF7D0FE78
S31508007CB0BAE72DE9F04701F1310727F00107154624
S31508007CC07B1ACA891C3B9A4206460C4694B000D2D7
S31508007CD0FEE7B1F80C803846FEF70EFE04233A4656
S31508007CE041462046A7F80E80FEF7C5FF00284DD16D
S31508007CF03B7803F00F03082B48D808F10401204607
S31508007D003A1D89B2FEF7B7FF00283FD10DF11808D2
S31508007D1021464046FFF769F8002837D14FF6FF7924
S31508007D20BDF81E304B452CD1FB89BDF820102046E6
S31508007D30C91A89B23982FEF72CFF7B78013B032BDF
S31508007D4035D9716803A836F000FD05F1100ADDF88B
S31508007D500C90B9F1000F40F0D480F36C002B40F082
S31508007D600B812046FEF7A6FD20B92046FEF79BFDAF
S31508007D7001285DD12B4622460321304636F066FDA2
S31508007D8056E04046FEF7EAFF0028C9D02B78FF2BBD
S31508007D904ED02046FEF78EFD002849D02B462246B7
S31508007DA00321304614B0BDE8F04736F04FBD736A7C
S31508007DB0DBB92A46214606F12C00FEF775FF38BBCB
S31508007DC0214603A8FFF711F84FF6FF77002840F081
S31508007DD02981BDF81230BB4263D0BDF810300B2B99
S31508007DE05FD003A8FEF7BAFFF0E72946B26A9847BC
S31508007DF00028DED017281BD12B78FF2B18D02B464E
S31508007E0022468421304614B0BDE8F04736F0CEBC91
S31508007E1041892C3989B2FFF7E6F9074640B1FFF7E1
S31508007E2067F82A4639463046FEF74BFD002857D1F3
S31508007E3014B0BDE8F087474516BF3A46424602F8F1
S31508007E4001ABD7180DF139018F42F1D2BDF81410E4
S31508007E500398C91A89B2FEF7F0FE03A8FEF77EFF5B
S31508007E60002840F0DF80BDF812304B4503D0BDF83E
S31508007E7010300B2BF1D1BDF812304B45DBD1002366
S31508007E803B70776D9FB9376ACFB9736C23BB2B7874
S31508007E90FF2BCDD02B4622468421304636F086FC71
S31508007EA0C6E747464FF6FF794FF02F0AE3E72B461A
S31508007EB0224641463046B8470028E4D0B8E741464E
S31508007EC03868FFF7BFFA28B12A4621467B68B868A2
S31508007ED09847ADE7FF68D7E72A462146B06CF7E72B
S31508007EE0172808D12B78FF2B05D02B46224684214C
S31508007EF0304636F05BFC384614B0BDE8F047FEF76E
S31508007F00A7BD49464046FEF7C1FE51460AA8FEF7F8
S31508007F1009FC20B1BDF838206B8C9A4207D09DF831
S31508007F202830FF2B03D00CA813F013FA00B3204611
S31508007F30FEF7B9FC012815D90238C0B2012817D8AE
S31508007F4009F1310323F001035A887B889A420FD13D
S31508007F502046FEF7A8FC03283FF66AAFDFE800F0E4
S31508007F604F55211449462046FEF71BFB0028EFD142
S31508007F7003A8FEF767FDEAE62A462146306D9847CC
S31508007F8000287FF455AFECE67B78002B7FF450AFE2
S31508007F900B22CDE90032424649463046FFF799FCA6
S31508007FA046E77B78E3B99DF84D309A070CD543F040
S31508007FB001038DF84D30B9F80A103823383942468E
S31508007FC0484689B2FEF770FF0F9B002B7FF430AF4F
S31508007FD0301D4946FFF759F93046FFF75CFC27E79D
S31508007FE03F2B7FF625AF49462046FEF7DAFA0028EA
S31508007FF03FF41EAF0023CDE900532346CBE72B46BB
S3150800800022460221304636F021FC0F9F002FF1D080
S315080080109DF82830FF2BEDD100232A4621461098DB
S31508008020B84705E717283FF432AF01E730B5C4680B
S3150800803091B001A836F052FB216803A836F085FBFB
S31508008040039D35B901A904F10800FFF71BFC11B01F
S3150800805030BD06A8FEF737FC294605A8FEF71DFE23
S315080080600599019B5B1A002B07DB29462046FFF77B
S315080080700CF903A8FEF7E6FCE2E701A8FFF778FA91
S31508008080F7E770B5D0F8FC3004462BB193F82230E8
S31508008090022B01D1002070BD04F13C063046FFF7E3
S315080080A0E8FB04F16C0504F1FC039D42F2D095F857
S315080080B02220012A01D02435F7E7032104F16400C0
S315080080C01FF059FF00B1FEE74FF47A72134BC4F85C
S315080080D0FC50C4E912234FF6FF7384F86000A4F835
S315080080E05830FFF773F90E4BB0FBF3F202FB13009F
S315080080F000F57A7020653046FFF752FB94F8603039
S3150800810053B9636C9E4207D0A36C226D9A4203D082
S3150800811030462365FFF744FB0120BCE7C0D40100C5
S31508008120D9D001004160024A01460248FEF740B92B
S3150800813028C204081C19002010B5274C94F87E3F65
S31508008140033B032B46D8DFE803F002061713BDE806
S3150800815010402DF031BED4F8943F987934F0C0FE23
S31508008160D4F8940F0E22BDE81040002130F01CBC54
S31508008170BDE810402DF052BEB4F87C3F9B0700D5F1
S31508008180FEE72DF013FC7F2807D094F98F3F7F2B4D
S3150800819001D0984201DD84F88F0FFEF777FBD4F8FB
S315080081A0903FC01A002806DAD4F8E01F0B48803141
S315080081B0BDE81040B6E794F87E3F94F98F0F022B7E
S315080081C01CBF022384F87E3F2DF06CFCBDE81040EE
S315080081D030F0A4BD10BD00BF10290020EC380020E7
S315080081E00146024A0248FEF7BDB800BF28C2040885
S315080081F01C1900204378FF2B04D1408840BA80B26E
S3150800820004307047981C704738B505460C46FFF78A
S31508008210F1FF294682B22046BDE83840FEF786BE01
S31508008220F7B50E461746044602236A4639463046CF
S31508008230FEF7F7FD054680B99DF8003023709DF8D6
S315080082400130FF2B0CD00221607002333A68C4F863
S315080082500220A288934214D90625284603B0F0BD09
S315080082600423394630460DEB0302FEF7DAFDD8B98A
S3150800827001236370BDF8063004215BBA9BB2043350
S31508008280E4E79BB2934228BF13466288A38013444F
S3150800829072899BB29A42DFD3D4F80230A01DC4F883
S315080082A00630FFF761F8D8E70546D6E773B5044602
S315080082B001A80D461646FFF746F82946204601AAA4
S315080082C0FFF7AEFF38B92378B34205D0A18801A8D5
S315080082D0FFF74AF8F1E7172002B070BDF0B585B090
S315080082E0054616460A46014601A81F46FFF7DEFF61
S315080082F0044650B9BDF808203B46B24228BF32466C
S315080083002846BDF8061036F0F3F9204605B0F0BD4C
S315080083101FB514460A46014601A8FFF7C7FF10B95C
S31508008320DDF80A30236004B010BDF0B5174642895F
S3150800833085B0ADF800101E468A422CBFC1EB020379
S31508008340C1EB0103C9439BB289B2994228BF1946BA
S315080083500546ADF802106A46014601A8FFF760FF18
S31508008360044660B9BDF80C203346974228BF174625
S3150800837028463A46BDF80A1036F0BAF9F4552046AA
S3150800838005B0F0BDF0B51746428985B0ADF80010C6
S315080083901E468A422CBFC1EB0203C1EB0103C94347
S315080083A09BB289B2994228BF19460546ADF8021014
S315080083B06A46014601A8FFF733FF044660B9BDF8CF
S315080083C00C2096420BD8B2423B4628BF3246284676
S315080083D0BDF80A1036F08CF9204605B0F0BD062423
S315080083E0FAE710B502231446FFF7CCFF10B9238825
S315080083F05BBA238010BD042310B51446FFF7C2FFED
S31508008400034618B92068FEF7BFFA2060184610BD63
S3150800841030B585B0044615460A46014601A8FFF759
S3150800842045FF40B901232A462046BDF8061005B087
S31508008430BDE83040A6E705B030BD002213B50446B6
S315080084408DF80720084663B910210DF10702FFF7DA
S31508008450DFFF0346C8B99DF80720B2B1FF2A08BF57
S315080084602523002062786FF341026270D4E909215E
S3150800847060620AB11846904741F2883104F1180043
S3150800848002B0BDE81040FFF780B90623E9E730B52A
S3150800849085B0044615460A46014601A8FFF706FFB9
S315080084A038B92A462046BDF8061005B0BDE8304062
S315080084B097E705B030BD30B585B0044615460A467F
S315080084C0014601A8FFF7F2FE38B92A462046BDF84C
S315080084D0061005B0BDE830408DE705B030BD73B570
S315080084E0154601AA04461E46FFF712FF28B9334669
S315080084F02A46204601A9FEF794FC02B070BD10B5C5
S31508008500044601448C4202D30024204610BDA31C15
S315080085109942F9D36378FF2B02D1231D9942F3D3ED
S315080085202046FFF767FE20448142EDD32378934225
S31508008530EBD00446E6E70422FEF7F8BC0222FEF773
S31508008540F5BCFF2B73B5054616461C4612D18DF8A9
S3150800855005304FF47F438DF8041001A9ADF80630B5
S31508008560FFF7E9FF20B9224631462846FEF7DEFC2A
S3150800857002B070BD8DF8001069468DF80130FFF71E
S31508008580DDFF0028F4D1002CF2D0ECE770B50546E3
S315080085900E461C46114618460BB1FEF747FF224603
S315080085A03146C3B22846BDE87040CAE707B501237D
S315080085B08DF807200DF10702FFF7C3FF03B05DF83A
S315080085C004FB07B552BAADF8062002230DF10602E0
S315080085D0FFF7B7FF03B05DF804FB13B50446104672
S315080085E0FEF7D2F9042301900DEB03022046FFF7AC
S315080085F0A8FF02B010BD10B50446FEF747F9D4E946
S315080086000031E268C01A9A4202D10028A8BF013197
S3150800861010BD2DE9F3411E461B4B044683424FF01D
S3150800862000038B4115460AD215A3D3E900233FF070
S3150800863057F91649144602462846FEF74CFF144BCE
S315080086404EF66021B4FBF3F203FB1244B4FBF1F3DC
S315080086504FF47A7801FB1344B4FBF8F728460D4922
S315080086600097FEF738FF46B1284608FB17420A4925
S3150800867002B0BDE8F041FEF72EBF02B0BDE8F081BA
S31508008680005C260500000000FF5B2605ECC1040817
S3150800869080EE3600F2C1040801C2040813B500686A
S315080086A050B14AB141B100230068019301AB32F0E1
S315080086B07FFE1FF019FC00B1FEE702B010BD2DE9E0
S315080086C0F843436C15461344026C044693420E461F
S315080086D01AD84FF000084F1900F11009B74214D103
S315080086E0636C1D44236C65649D420BD1B4F850300D
S315080086F02BB104F1100211462046FFF7CFFF0023E5
S31508008700A4F85030BDE8F883FEE7B4F85030102BD3
S3150800871006D14A4649462046FFF7C0FFA4F85080CE
S31508008720B4F850305A1CA4F85020234416F8010B0C
S315080087301A7C50401874D1E72DE9F04F1D4685B0D4
S315080087409DF8383091460293C36C826C2B44934251
S315080087500446884629D86FF0200B0F46CA466B1880
S31508008760019300F12003ABEB000B0393019B9F429F
S315080087701CD1E36C1D44A36CE5649D426CD3B4F82C
S3150800878050302BB104F1100211462046FFF786FF40
S31508008790002194F8542002F121002044C2F10F026E
S315080087A005B0BDE8F04F3FF08CBAFEE7B4F85220AA
S315080087B0102A16D104F13000024694F854600BEBE7
S315080087C000018E4206DA10F8011D0131C9B20170A6
S315080087D00029F4D020460399FFF760FF0022A4F889
S315080087E05220029B43BB3E78B9F1000F0AD0B4F879
S315080087F05220511CA4F85210224492F8302072409C
S315080088008AF80020B4F85020102A08D104F1100282
S3150800881011462046FFF742FF0022A4F85020B4F87C
S3150800882050200137511CA4F850102244117C0AF13B
S31508008830010A4E40167499E7B4F852209AF8006077
S31508008840511CA4F85210224492F830205640B8F130
S31508008850000FD7D03E70D5E705B0BDE8F08F38B524
S31508008860D0E912329A4204460D4600D0FEE700F1DE
S31508008870300200F12001FFF711FF002304F10F0277
S3150800888094F855108B4200DB38BD12F8011F92F898
S3150800889020004140E9540133F2E72DE9F04F05681D
S315080088A0894617469FB0002D00F018812B68002BCB
S315080088B000F01781042B33D0052B36D0012B40F05E
S315080088C0ED80A868002800F00681894B20F47E1404
S315080088D09C421AD1EB680BB1E86C38B9854826F08A
S315080088E058FC0446002800F0E88038E006F054FDFD
S315080088F010F1860F06D00028F1D09330EED16FF034
S315080089006F00ECE76FF07100E9E77B4B0340B3F1CA
S31508008910607F40F0E08005F1100027F081F9E0E77C
S3150800892005F1080006F038FDDBE7D5F88840724BFC
S3150800893005F1080B2340B3F1607F40F0C480D5F8F9
S31508008940AC10002940F0C780282214A83FF0B9F9D6
S3150800895014A841F008F9804628B16FF09204284619
S3150800896027F062FCAAE0E3B243F0007303F17E430A
S31508008970053B062B00F29580DFE803F02793932446
S315080089802A041C0030260423C4F30544B44200F22A
S315080089908580002C18BF2646202E10D857495A1E07
S315080089A051FA82F292F81CA0BAF1200F15D92124A7
S315080089B0002660E014F47C1FC4F305460BD16FF063
S315080089C08904CCE71C260223DEE714260123DBE70D
S315080089D020260323D8E70523DEE7494A584602EB53
S315080089E00323149300230CA9CDE915331C9305F032
S315080089F065FD04460028DBD10C9914A841F0BAF8A5
S31508008A00394614A841F0B6F86946584605F02FFECF
S31508008A1004460028CCD1694614A805F065FE5846D8
S31508008A2003A905F03BFE04460028C1D1012403A989
S31508008A3014A805F059FE47F0005706A914A8CDF862
S31508008A4018900794089705F04FFE0CAB099309A9EF
S31508008A504AF0005314A80A940B9341F094F814A80A
S31508008A6040F09EFD04460028A2D132460CA905F125
S31508008A708C003FF045FB0023C5F8AC600CAA02F851
S31508008A80083008F10108B8F1200FF7D1212C0BD1D5
S31508008A9014A841F068F800287FF45FAF6FF08604E9
S31508008AA05DE76FF085045AE7002C7FF456AF14A8EB
S31508008AB041F059F800287FF450AF002420461FF0F3
S31508008AC013FA88B1FEE7134605F188000A465946A7
S31508008AD006F0F3F805E76FF0880440E76FF08604C0
S31508008AE0ECE76FF08804E9E71FB0BDE8F08F00BF38
S31508008AF00002C003009FFFFF0000C07F18C20408E1
S31508008B000001020308B5006828B1044927F05AF89D
S31508008B101FF0EAF900B1FEE708BD00BF0900000230
S31508008B2008B5006828B121B127F07AF81FF0DCF9FA
S31508008B3000B1FEE708BD10B586B00446ADF80630AC
S31508008B40084603AB11460DF10602FEF740F8BDF8DC
S31508008B5010200AB906B010BD20460399FFF7E0FFBA
S31508008B6003A90DF1060034F073FBF0E7002307B5FF
S31508008B700068019330B1202201AB27F079F81FF085
S31508008B80B3F900B1FEE703B05DF804FB002801DB8A
S31508008B9035F0FAB9704710B503780446002B14BFB0
S31508008BA00520032000F50030FFF7F0FF2378BDE825
S31508008BB01040002B14BF0620042000F50030E5E71E
S31508008BC073B50C46054646220021A01C3FF079F8ED
S31508008BD02C2305F580522380B2F8603605F5035636
S31508008BE0C3F12C036380B2F8623604F10801A3804E
S31508008BF006F10C00FDF7BBFD04F1100106F120009B
S31508008C00FDF7B5FD05F5B35004F118011430FDF76D
S31508008C10AEFD05F5075004F128010430FDF7A7FD60
S31508008C2005F5C05004F130011430FDF7A0FD05F537
S31508008C30C15069461C30FDF79AFD238EBDF8002009
S31508008C4013442386BDF80220638E13446386019A73
S31508008C50636B1344636302B070BD1F299DBF006830
S31508008C60C84000F001000020704710B50B78044694
S31508008C70FF2B04BF0A230B700B780A460133D9B2BF
S31508008C801A29117001D9172010BD2046FFF7E5FFF4
S31508008C9010B90131C9B2F3E70020F5E7837FC22096
S31508008CA003F00F03D84000F00100704738B50129DA
S31508008CB00446456832D134F0D1F8237E9A0702D5A6
S31508008CC0642828BF64205B0715D5A022204BB0F581
S31508008CD07A7FB3F86A3F28BF4FF47A70534303F597
S31508008CE0FA73B3F57A7F06D34FF47A72B3FBF2F3CD
S31508008CF0984228BF1846637E0F2B02D9BC2828BF86
S31508008D00BC20A36833F07C4204D0C3F3190398420D
S31508008D1028BF1846002808BF0A206060FDF7B6FD80
S31508008D206369014604F10C0098420DD06268AA42B4
S31508008D300DD0531A24680A3BE3424CBF0A22214647
S31508008D40BDE83840FEF71CBD62682160F8E738BD0B
S31508008D501029002008B531B1092914D96FF07C43D0
S31508008D60994228BF19468368C3F319028A4208D074
S31508008D7061F319038360037EDB0702D50121FFF740
S31508008D8095FF002008BD0720FCE700F504503830A1
S31508008D90E0E710B5038904468B4205D1BDE81040CB
S31508008DA04FF4004034F080B901814FF4004034F0AC
S31508008DB00DF92089BDE8104033F06EBF10B5037871
S31508008DC00446590742781AD4180701D412B310BDBD
S31508008DD0002AFCD159060BD54FF4967104F1D00040
S31508008DE0FEF7D3FC237803F03F0363F07F03237079
S31508008DF0E17A04F13400BDE8104035F082BB002A60
S31508008E00E5D143881806F3D5E16904F1D000FEF7E9
S31508008E10BDFBEDE75A06DFD4DB09E9D1B4F8A0308B
S31508008E2073B994F84630DA071AD4A38EDB0517D53A
S31508008E3094F83630012BCAD0012384F83630C6E7B9
S31508008E4094F83630072B1CBF072384F83630A38ED8
S31508008E501906BCD404F13400BDE81040FDF71FBC68
S31508008E6034F06AF80028B2D1E2E738B500F5805444
S31508008E7094F80C28054632BB94F8482F134B61F337
S31508008E80C30284F8482F124A186811703FF0C9FCCB
S31508008E9000B1FEE794F8483F05F5FA5003F03F03A2
S31508008EA05907C3F3800284F8483F58BFC3F3C0028A
S31508008EB094F88E3F083062F3000384F88E3FFFF77C
S31508008EC07DFF002038BD0D20FCE700BF08190020F3
S31508008ED00D19002008B5224890F8493F012B03D008
S31508008EE0062B05D02BB3FEE7BDE808402FF09AB94C
S31508008EF0002100F5805000F8B71C90F85021D307E0
S31508008F000CD5C2F3C303013303F00F0363F3C602A0
S31508008F10042B80F8502105D834F080FDBDE80840C0
S31508008F202FF09AB990F8503161F3C60380F85031A2
S31508008F30F4E790F8483F5907C3F380020AD4D909E1
S31508008F400CD062F3C71380F8483FBDE8084000F626
S31508008F50487033E7B0F84A3F1B06DFD408BD00BFA8
S31508008F6010290020012310B542888B401343438003
S31508008F7003780446DB0906D0D030FEF77AFC23785E
S31508008F8003F03F03237063782BB904F1C800BDE8EA
S31508008F901040FEF7DDBA10BD70B50578ED071DD592
S31508008FA04578012D1CD0468816F0020F18D1022DDF
S31508008FB016D0C6F38005760712D48362049B4282D4
S31508008FC0C362FF230374C368002908BF19460B4010
S31508008FD043610221FFF7C6FF284670BD0D20FCE756
S31508008FE00520FAE770B50578ED0722D54578012DF5
S31508008FF021D0468816F0020F1DD1022D1BD0C6F3CC
S315080090008005760717D48362049B002AC3624FF053
S31508009010FF030374C36808BF4FF49672002908BF9C
S3150800902019460B40428243610121FFF79BFF284600
S3150800903070BD0D20FCE70520FAE700230380704782
S3150800904000F44052B2F5005F034620D148F24002D0
S3150800905020F44E5020F03F0090421ED00CD8B0F5B8
S31508009060446F1AD005D8C8B1B0F5046018BF0120FE
S315080090707047B0F50040F9E703F44C43B3F5404FA9
S315080090800BD04CF64043C01A18BF0120704710F4A5
S31508009090406F14BF0120002070470020704738B584
S315080090A005680C46284635F0B6FCFFF7C9FF40B1FF
S315080090B0284635F0B2FCFF2803D02B5A002023801F
S315080090C038BD0620FCE738B505680C46284635F055
S315080090D0A2FCC30500D5FEE7AC7038BD00F44053CA
S315080090E0B3F5005F04D100F44C43B3F54C4F07D0F9
S315080090F0B0F5804F04D380F04000C0F3801070476D
S315080091000020704710B58388032B12D9006835F004
S3150800911082FC80F480720446C2F30021FFF790FFB8
S3150800912048B98A1CC4F38123022B06D0032B17D017
S315080091302BB1FF2212E00A1DF4E70232D2B2204612
S31508009140FFF7CCFF08B10232D2B2C4F38134022C45
S3150800915008D0032C09D0002C18BFFF22104610BDDA
S315080091600832EBE70232D2B2F8E70832FBE7F8B585
S3150800917007680E46384635F04EFC0546FFF7AEFF43
S31508009180D0B1384635F049FC04462846FFF758FF63
S3150800919008B10234E4B2C5F38125022D07D0032DA8
S315080091A008D0FF2C08D000203B5B3380F8BD023482
S315080091B0E4B2F6E70834FBE70620F7E710B583883C
S315080091C00446022B07D9006835F03CFC18B1204646
S315080091D0BDE8104096E7FF2010BD38B505460C4699
S315080091E0FFF7ECFFFF2817BF2B6806201B5C002043
S315080091F01CBF03F00703237038BD38B505460C4677
S31508009200FFF7DCFFFF2817BF2B6806201B5C002032
S315080092101CBF03F01803237038BD38B505460C4645
S31508009220FFF7CCFFFF281FBF431C2A68DBB2D358C1
S315080092301ABF00202360062038BD38B505460C46FF
S31508009240FFF7BCFFFF2800D1FEE72A68431CD9B206
S31508009250545452FA83F3220A5A70220C240E9A7036
S31508009260DC702B7F43F001032B7738BD00F0180024
S31508009270102805D0A0F1180358425841C00070477D
S315080092800420704708B54307024608D0FFF7EEFFEB
S3150800929012F0180F0CBF05300630C0B208BDFF200B
S315080092A0FCE72DE9F04F057B0688B0F8029087B0F9
S315080092B0031D012D04460F4646EA090B019330D0DB
S315080092C0022D0CBF0322002294F816A04BEA823B1B
S315080092D0BAF1010F04F10E0825D0BAF1020F2FD00A
S315080092E0BAF1000F21D1A37F94F82120003B18BFC3
S315080092F00123B9F5805F4BEAC30305D0B9F5005FD2
S3150800930021D0B9F1000F29D145B1BAF1000F05D026
S31508009310208B618B884208BF43F04003D60721D5CE
S31508009320FEE70222D0E74BF4006B5146E08935F0A0
S31508009330FCF80028D7D1022E18BF4BF0200BD2E735
S315080093404BF4406BF1E7BAF1000F40F09480617F6F
S31508009350002D40F08880002940F09A80D50748BF44
S3150800936043F48073C2F3400243EA42253B6804A8EB
S3150800937004934FF4FE032946059335F0C1F9E80531
S3150800938003D4012104A8FCF7C7FF2846FFF758FEB7
S3150800939018B1618B04A835F0B3F904A8414635F035
S315080093A0BAF92846FFF79AFE18B1218B04A835F0BA
S315080093B0A7F9211D04A835F0AEF9BDF81430BB8015
S315080093C0A67FA6B1E37F0DF10F011E4304A88DF811
S315080093D00F60FDF715FB3046FFF754FF411E89B2B3
S315080093E004A8FCF799FF3046FDF746F8064694F8B8
S315080093F0213099070ED5022104A8FCF78DFF0D230D
S3150800940004214370017004A8FCF786FF3B7F43F0F4
S3150800941008033B77AA0523880ED5032B03D094F8B7
S3150800942021305B0714D4022104A8FCF775FF6FF0FE
S315080094307F0303703F2343702388032B08D194F8D6
S3150800944020300DF10F0104A88DF80F30FDF7D8FA7A
S315080094500236B1B204A8FCF75FFFBDF81430BB8032
S3150800946007B0BDE8F08F00297FF478AF217F002987
S315080094707FF474AF0CE00DB9617FF8E7022D02D1D5
S31508009480BAF1020FF8D0208B618B88427FF466AF61
S3150800949043F0400362E770B50546FFF733FEFF2841
S315080094A0044611D02E68304635F0CCFA60B1A9884A
S315080094B08C420BDA305DFFF7E5FEFF2808D004443E
S315080094C0E4B2A142B8BFFF24204670BDFF24FBE7E3
S315080094D00446F9E770B506460D46FFF76FFEFF2806
S315080094E0044609D03268105CFFF7C0FE22440244E5
S315080094F0002053792B7070BD0620FCE770B5064630
S315080095000D46FFF75BFEFF28044600D1FEE73268EA
S31508009510105CFFF7ABFE22440244557170BD10B5CE
S315080095200446FFF74BFEFF2806D02368185CFCF7B5
S31508009530A3FF0230C0B210BD0220FCE770B5064694
S31508009540FFF7A9FFFF2804462CD03568284635F0D2
S3150800955062FA83051BD53046FFF7E1FFB188A21CE6
S3150800956093B210FA82F28A4205EB04061CDC2A5DE5
S3150800957002F07F0213449CB210FA83F3994213DB7C
S315080095803288C2F3C7127F2A01D09942E7DC2B78CA
S3150800959003F00703032B05D1284635F059FA08B915
S315080095A00134A4B2E0B270BDFF24FBE738B5054626
S315080095B0FFF7C4FFFF28044614D02868037803F091
S315080095C00703032B04D135F043FA08B10134E4B29A
S315080095D02846FFF7A4FFAB8804449C42CCBF06206C
S315080095E0002038BD0620FCE710B50446FFF7A6FFA5
S315080095F0FF2816BF23680020C01810BD10B5044602
S31508009600FFF7F2FF2368C01AC0B210BD70B5054651
S315080096108688FFF7F3FF04462846FFF780FF0444D1
S31508009620301B80B270BD10B50446006835F0F3F9FA
S31508009630830503D52046BDE810402CE7FF2010BD62
S3150800964008B534F04BF8003818BF012008BD08B536
S3150800965034F044F800B1023008BD00232DE9F0418A
S315080096609EB003930AAB08930823044600680D4688
S31508009670ADF8243035F0E6F9002859D020460DF12A
S315080096800B01FFF7AAFD002852D1204603A9FFF7D0
S31508009690C4FD064600284BD10DF11008434628683C
S315080096A069689DF80B2003C303981946FDF70FF95F
S315080096B0A3688DF81C20196808A834F061FF2046B5
S315080096C0FFF72DFF05462046FFF798FF0746204679
S315080096D0FFF79CFFAB1EDBB20246394608A8CDF859
S315080096E0008031F015FC2046FFF788FF2568024602
S315080096F0294608A8FEF7E3FF2046FFF775FF05464B
S315080097002046FFF783FF2A460346294608A80096FF
S31508009710FFF712F82046FFF702FFA38825681B1AF1
S31508009720E91808A8FFF79BF8237F43F0100323776F
S315080097301EB0BDE8F0810023F0B5A3B003930EABCD
S315080097400C930823044600680D461646ADF83430D7
S3150800975035F078F930B120460DF10B01FFF73DFDE4
S3150800976010B1082023B0F0BD204603A9FFF755FD28
S315080097700028F6D104AF3B46286869689DF80B2097
S3150800978003C303981946FDF7A2F831680CA88DF8AB
S315080097901C2034F0F5FE2046FFF7C1FE851E204644
S315080097A0FFF72CFF06462046FFF730FFEDB22B46A3
S315080097B0024631460CA8009731F0AAFB2046FFF76F
S315080097C01DFF2668024631460CA8FEF778FF20469C
S315080097D0FFF70AFF06462046FFF718FF0122034651
S315080097E0314600920CA83246FEF7A6FF08A90CA837
S315080097F0FFF735F82046FFF792FEA3882668181A61
S3150800980031182A4608A83FF040FC003818BF012046
S31508009810C000A7E70B6803604B684360037883F0D2
S31508009820020303707047082208B53FF02EFCB0FA11
S3150800983080F0400908BD10B504460068FFF7A6F990
S315080098404FF00043236010BDF0B5002787B00446EB
S3150800985000680E4615460597FFF798F94FF000433E
S31508009860236010234FF41051CDE90163074A45F4EC
S315080098704073009705A81EF075FF1EF035FB00B172
S31508009880FEE7059B236007B0F0BD00BF0044400417
S3150800989008211EF070BB2DE9F04F0026A74B8FB0AC
S315080098A0D3F828900096B9F1000F00F0228303F54B
S315080098B000549E6294F85931002B4BD019F0030FCF
S315080098C014D004F55A71A1F6344013F0BBFF58B909
S315080098D004F55C70FFF7DCFF00B1FEE7984831F04D
S315080098E0A7FC102033F072FB33F0E6F919F4405F59
S315080098F004D031F0CFFA08B133F0DEF919F4007F5D
S3150800990005D019F0040F02D18E4814F083F919F422
S31508009910827F0AD019F4807F04D194F8590134F073
S3150800992054FC10B1874813F069FC19F4800F11D064
S31508009930854B08A8D3F8542F93F8521F0892FFF7BF
S315080099408CF9024630B994F859311BB101467F4863
S3150800995013F0BEFD19F40073019300F0468194F8E4
S3150800996059310BB12CF0E8FA4FF0000A012357469B
S31508009970D04602AA8DF8083003928DF810300DF102
S31508009980200B5146724803AA2CF046FD824688B938
S31508009990B8F1000F3AD14FF6FE73A4F89036009B43
S315080099A0C4F89456A4F8923684F8986600202CF0E9
S315080099B0AFFB62E0664B08930023CDE909A358463E
S315080099C018F017FB0028DCD10A9A5378023B062BBD
S315080099D0F5D9B8F1000F16D094F87F11538889028B
S315080099E05BBA89B21FFA83FC61450CD0B8F802301D
S315080099F05BBA9BB29942E2D010793978884202D88C
S31508009A00DDD19C45DBD99046171DD8E7B7F801305C
S31508009A10B8F802205BBA98B20090D7F80300FCF7B2
S31508009A20B3FF91B2054652BAB4F890061FFA82F807
S31508009A3040453E784FF6FF602AD08142ABD0B5F557
S31508009A40967F38BF4FF496754249A4F890268D4202
S31508009A5028BF0D460120A4F89236C4F8945684F817
S31508009A6098662CF055FB94F85B319D0702D42CF0D0
S31508009A7040FB10B1384812F051FD0023344D0393D2
S31508009A805A46284603A91CF0E3F9D0B100211EE086
S31508009A90814280D0B5F5967F38BF4FF496752D4A2A
S31508009AA0954228BF154694F89826B242D2D1B4F802
S31508009AB092260099C4F894568A4218BFA4F892369A
S31508009AC074E79DF832305807C3F38001D8D594F867
S31508009AD0AC7681B9002F4AD0112220483EF0F1F821
S31508009AE094F8D436D90702D51B4834F033FE1A4801
S31508009AF012F0ECFC3BE09DF83050BD4206D12A46F8
S31508009B0058461649FCF71CFF854229D95E4604F2D9
S31508009B109C650FCE0FC533682B704FB194F8D436B9
S31508009B200D48DA0702D534F015FE0B4812F0CEFCC4
S31508009B3094F8AC36002B40F0EE80FEE710190020B2
S31508009B40783C0020683A002010290020043C0020B8
S31508009B50483E00209BC42000C83F0020AC3F0020A0
S31508009B60B649A1F57B6013F06DFE0028E0D0052507
S31508009B700026DFF8F88208F62847013D40F0EC8019
S31508009B802E464FF0010A03955A46AD4803A91CF024
S31508009B905FF90546002800F00681002E00F03381A3
S31508009BA0A84DB5F8B83873B9022105F6A80012F021
S31508009BB04BFB40F2222105F6A80014F047FF05F6F4
S31508009BC0A400FEF75EFAD4F8745775B15A4609210F
S31508009BD09B4818F0F9F940B12846FCF739FF0023ED
S31508009BE09948C4F87437FDF744FE40F6040319EAA9
S31508009BF0030F1CBF0023C4F8583640F6042319EA9D
S31508009C00030F02D091481CF041FB19F004080DD04F
S31508009C1094F85931022B00F2FD808D48FDF729FE94
S31508009C2000238C4884F80E38FDF723FE19F0805F70
S31508009C30844E2FD0002308A808932CF0CFF948BBF0
S31508009C40089D3DB3D4F804389D4223D0D6F8543F36
S31508009C501D40C4F8045825B97D48FDF70AFE84F866
S31508009C600E58FF2300258DF80C3003A908A8FEF727
S31508009C70FCFF2B4601350028F7D0DAB2764B774839
S31508009C80B3FBF2F3C4F8083896F8523F84F8103854
S31508009C9012F0FEFA19F4804F06D096F8523F6F4834
S31508009CA084F8103812F0F4FA19F4805F03D0002112
S31508009CB06B4813F070FCB8F1000F06D094F85931D0
S31508009CC0022B02D101202CF023FA019B83B15B49B8
S31508009CD0A1F57B6013F0B6FD50B1584808A935F0D8
S31508009CE078FA9DF832309D0702D45E4812F0EEFBF2
S31508009CF094F8590134F069FA002840F0BF80C4F896
S31508009D00FC0696F8A439002B40F02081B8F1000F24
S31508009D1000F0C780FBE0494884F8F436FCF799FD63
S31508009D20514901F1480011F071FBD4F8DC36D4F83A
S31508009D30E02613430AD01146D4F8DC0604F2EC6395
S31508009D4083E80300474812F0B4FB10E7454812F0D1
S31508009D5093FB0028F6D00AE798F8223003B3D8F820
S31508009D601C30EBB103965A46384603A91CF070F826
S31508009D7030B1404633F000F9002388F822300FE06E
S31508009D809DF83130DB06EED598F810209DF8303076
S31508009D909A42E8D15946404611F02EFB0028E2D0F7
S31508009DA008F12408E9E69DF83130DF06C3F3001808
S31508009DB07FF5EAAE05269DF830702C4B013E0AD198
S31508009DC0FDB19BE80F002F7485E80F0085F822A0E7
S31508009DD02B46EE6112E093F8222022B9002D08BF27
S31508009DE01D462433EAE71A7CBA42FAD11846594680
S31508009DF0009311F001FB009B0028F2D0BDF8342037
S31508009E001A844646C0E61A48FDF733FD194812F08B
S31508009E10DDF9D8E60823A4F83C380023164984F867
S31508009E204438C4F82C18C4F83018FDF7CFFA094896
S31508009E30C4F83418FDF7B4FCF8E600BFF43F002078
S31508009E40483E00201029002088400020503F00206E
S31508009E502441002030410020C13F05001441002064
S31508009E60C03F0020C83F0020AC3F00202032002021
S31508009E70F0310020B8310020807F0A0009F0010582
S31508009E80B8F1000F38D1002D58D196F8A43943B14E
S31508009E90019B002B5DD119F0020F02D0854811F005
S31508009EA01AFD19F4047F02D0834814F02DFE19F028
S31508009EB0130F12D096F8553B7BB10027D6F83457C6
S31508009EC0DFF81082002D40F0CD80002F40F0E680AC
S31508009ED094F87B339B0740F1D580784B1D4693F861
S31508009EE04040073403EBC40405F138039C4240F0B4
S31508009EF0DA800FB0BDE8F08F94F85831580702D5CC
S31508009F006F4812F00BFB75BB96F8A439F3B994F8B1
S31508009F10590134F05AF90246002800F0958066483F
S31508009F2012F010F996F8DC3A012BBAD104216248EE
S31508009F3011F0AFFD604811F090FEB2E794F8FF36D5
S31508009F40012B14D196F8A439002BAAD0019B002B1B
S31508009F5075D04FF0050A5B4DBAF1010A0FD1554885
S31508009F6011F0B9FCD2E694F8FF36012BCCD00123C8
S31508009F7084F8FF36D4F8FC0634F0FDF9C1E6AB7C6C
S31508009F80990701D42035E7E7002302934E4808AA2B
S31508009F9002A91BF05DFF0746C0B1EF69002FF1D19A
S31508009FA0AB7C13F0010B42D0FCF770FC00F5922154
S31508009FB001F57871012938BF01214448E961FDF7A7
S31508009FC04FFC394628462CF0D7F9DBE79DF83130A7
S31508009FD01A07DBD59DF832305B07D7D49DF83030A9
S31508009FE0402BD3D1294608A811F066FC0028CDD00D
S31508009FF0D6F8A83953B1314808A9984730B1284648
S3150800A00032F0BAFFAB7C67F34103AB74284603A969
S3150800A01035F0DFF89DF81E30980748BF9DF81D708B
S3150800A0202B7EBB42AED02F7632F046FEAAE72846F4
S3150800A03032F0A2FFAA7C6BF34102AA74A2E719F0D8
S3150800A040020F3FF463AE8AE796F8DC3A002B3FF43A
S3150800A05028AF1F49184811F0ADFD0121164811F027
S3150800A06018FD1EE7454517D028462EF0E9FEEB7C7D
S3150800A070C3F3400398420CD023B1AB7C990701D5B2
S3150800A080DA0707D50C4811F0F1FC0B4811F0E5FD8D
S3150800A09023E708B10137BFB26D6913E7B6F8E03AAE
S3150800A0A0BB42EFD119E7AB6B13B14846E96B98474A
S3150800A0B0083519E7B4320020EC33002010190020C7
S3150800A0C0C83F0020C8320020483E0020BC3200208D
S3150800A0D039C20408783C002001F1080313F8012D61
S3150800A0E08B4200F8012BF9D17047F8B507680E4680
S3150800A0F0384634F092FC0446384634F08CFC054663
S3150800A100FEF79EFF04EB4003DBB2FF2B13D0C5F32B
S3150800A1108120022805D0032807D0002300203372A7
S3150800A120F8BDFB5A33800123F8E7F9183046FFF7E4
S3150800A130D3FF0223F2E70620F2E7F8B507680E46D2
S3150800A140384634F068FC0546384634F066FC044662
S3150800A1502846FEF775FF08B10234E4B2C5F3812339
S3150800A160022B12D0032B13D02846FEF7B7FF08B1EF
S3150800A1700234E4B2FF2C06D0C5F38135022D09D08E
S3150800A180032D0DD04DB1062009E00234E4B2EBE709
S3150800A1900834FBE701253B5B338000203572F8BDA8
S3150800A1A030463919FFF798FF0225F6E708B5044B3C
S3150800A1B0C180002218683EF028FB00B1FEE708BD02
S3150800A1C00819002007B50A68C0F80A204A68C0F8C6
S3150800A1D00E206846FFF780FF0723094A1DF803107B
S3150800A1E0013B02F8011BF9D2064B002269461868A2
S3150800A1F03EF011FB00B1FEE703B05DF804FB00BFBB
S3150800A200D0640020081900202DE9F0410446B0F872
S3150800A2106C601FF049FFE36F364AC11A94F8800054
S3150800A22000233230A1FB00013DF05AFBA02794F829
S3150800A23081307E4303EB830300EB430000F178088B
S3150800A24000F5647520467608B54230F8843B28BF89
S3150800A2503546B04528BFB04613F08002A16F1FD01F
S3150800A260B4F86C607E433144491BFDF75BFFA36F6E
S3150800A270616F3344A367204B72181A62A37862672A
S3150800A28013F0FD0F33D094F86E00A5F5167508EB9C
S3150800A2900502491B00F07F00BDE8F04133F032BEED
S3150800A2A094F86E30DE090BD062F3C71384F86E306B
S3150800A2B0491BFDF737FF2046BDE8F041FCF7EFB92B
S3150800A2C04144B4F86C50FDF72DFF94F86E307D4389
S3150800A2D043F0800384F86E301CF00EFDA26F636FA6
S3150800A2E02A44A267044A2B4463671362E3E7BDE87E
S3150800A2F0F08100BF40420F00C8640020F8B504464C
S3150800A300B4F86CC090F86E008C45069DB4F8706081
S3150800A31000F07F070CD094F86E0062F3060084F80C
S3150800A3206E004FF6FF729142A4F870300CD1FEE72A
S3150800A330974206D062F306009E4284F86E00F0D17A
S3150800A340F8BD9E42E7D1FBE74FF6FD72934208D867
S3150800A350144AD16113822B68C2F812306B68C2F8AE
S3150800A360163094F86E30A4F86C106FF3C71384F89F
S3150800A3706E3004F18400FDF733FFB4F86C304BB14E
S3150800A3801FF092FE60671CF0B7FCA0672046BDE888
S3150800A390F84039E723881B06D2D42046BDE8F840A2
S3150800A3A0FCF77DB9C864002013B590F82030DB07A8
S3150800A3B017D590F8212002B9827A0B4C343004F56F
S3150800A3C0C073009330F8121CB4F89C31FFF796FF5F
S3150800A3D032F036FD04F5AC7002B0BDE8104013F05B
S3150800A3E019BC02B010BD00BF1039002008B519B15C
S3150800A3F0A1F10B030F2B0ED800F5805393F8692FA4
S3150800A4008A4206D000F5FA5083F8691F0830FFF72C
S3150800A410CBFF002008BD0720FCE710B504460C302A
S3150800A420FEF71BFC00B3A27A8A4205D14FF480409E
S3150800A43032F03AFE002010BD4FF48040A17232F08F
S3150800A440C5FD04F5B470FEF7F8FD23789B06F1D434
S3150800A450A37AE37294F8213013B92046FFF7A4FFD4
S3150800A4602046FEF7ABFCE5E70720E4E71FB590F8C2
S3150800A47020300446990703F001020ED5418C61B1DC
S3150800A480F2B943F0010380F82030FFF78DFF20462C
S3150800A49004B0BDE81040FEF791BC8AB1002294F8DA
S3150800A4A0203011466FF3000384F8203002AB009386
S3150800A4B004F134004FF6FE73CDE90222FFF71EFFC2
S3150800A4C004B010BD024608B569B902F58052B2F863
S3150800A4D06A3F00F5FA5008301BB1A2F86A1FFFF769
S3150800A4E0C5FF002008BDA020B1FBF0F300FB131048
S3150800A4F0F0B94FF6FF70834228BF0346B1F51B5FDC
S3150800A5009BB215D302F5FA5002F58052B2F86A1FCB
S3150800A51008308B42E5D0A2F86A3FB1FA81F2B3FA65
S3150800A52083F352095B099A42D9D1FFF73DFFD8E771
S3150800A5300720D7E7004867E68C3800200A4690F8D7
S3150800A540FE10FDF7DCBF002910B514BF33210E211C
S3150800A5501446FFF7F3FF38B1D0F802302360D0F87D
S3150800A56006300020636010BD1720FCE7F8B50446E6
S3150800A57018300D46FDF77DF94FF0FF3323746374E9
S3150800A580A374E37423756375A375E3752372637205
S3150800A590A372E37223736373A373E37395F8FE30B0
S3150800A5A0DBB126466378284643F00103637016F844
S3150800A5B0087B32463946FFF7C6FF28B996E80300F6
S3150800A5C004F1100383E8030017B9284632F084FD26
S3150800A5D02078BDE8F84033F05ABFF8BD2DE9F041C0
S3150800A5E00746884603261B4D86B0013E02D106B0B3
S3150800A5F0BDE8F0813B7803BB6B7803F50033404632
S3150800A60029780593FFF79AFF044600B34278F2B11A
S3150800A610FF2A0CBF0423022303440193012341F2BA
S3150800A6200101029200934FF0004205A81EF09AF825
S3150800A6301DF05AFC014610B1FEE7AB78DDE76278FB
S3150800A640FF2A0CBF0420022020443DF03AFB0335C4
S3150800A650CBE700BF41C2040870B50D46C2B0044638
S3150800A660FEF799FA95F8FE60002E3BD12378002B69
S3150800A67014BF022001202CF08CF80C2800D1FEE72C
S3150800A680637866F3000322466370284612F8081BAF
S3150800A690FFF759FF48B14FF0FF3323726372A37275
S3150800A6A0E37223736373A373E373FCF7EFF82378FA
S3150800A6B06060012B2FD11948FDF7DBF834212846B5
S3150800A6C0FFF73CFF38B3FBF7ECFE154B0246984202
S3150800A6D028BF1A46D5F80011104842B0BDE87040A8
S3150800A6E0FDF74EB801A833F0DAFE3246294601A82E
S3150800A6F03DF006FDD5F80031204601A941938DF8B5
S3150800A7000261FFF76BFF207801A930F01DFE637820
S3150800A71043F00103B7E742B070BD00BFAC37002075
S3150800A7200014730F70B50C460546C2B001A833F085
S3150800A730B6FE94F8FE602146324601A83DF0E0FCDC
S3150800A740D4F80031284601A941938DF80261FFF734
S3150800A75045FF287801A930F0F7FD42B070BD10B565
S3150800A76091F8FE200446FF2A09D080F8FE203DF025
S3150800A770C7FCFCF78BF8C4F80001002010BD0720C1
S3150800A780FCE72DE9F8430F46984690F8FE40054643
S3150800A7901646FFF7D3FEC4F1FE040146A4B208F13B
S3150800A7A0020918B94C450AD2032021E0437802333E
S3150800A7B01C44A4B24C45F7D32846FBF757FF95F837
S3150800A7C0FE30B8F1FF0F994405EB030085F8FE90BB
S3150800A7D0EF5414BF022304234246314680F8018011
S3150800A7E018443DF08DFCFCF751F8C5F8000100202F
S3150800A7F0BDE8F88310B50446FFF7A0FE014620B170
S3150800A8002046BDE81040FBF731BF10BD00232DE9F7
S3150800A810F74FFE2281F8FE3003780546002BADF887
S3150800A820042014BF0220012001AA0C4634F032FB92
S3150800A8300746002842D1BDF80430FE2B3DD8814694
S3150800A840314E84F8FE3006F1060B2B78002B39D1F1
S3150800A85096F801A020463178FFF770FE804698B139
S3150800A86042788AB1FF2A0CBF0421022101AB0144B8
S3150800A8700AF500301DF064FB38BB98F80120019BEF
S3150800A8809A4218BF4FF0010903365E45DDD1B9F18A
S3150800A890000F03D021462846FFF744FF2B78BBB9A3
S3150800A8A033212046FFF7A6FF34212046FFF7A2FFF3
S3150800A8B0FBF7ECFFC4F8000100E01727384603B0A1
S3150800A8C0BDE8F08F96F802A0C4E74FF00109DBE770
S3150800A8D034212046FFF732FE06460028EED0FBF765
S3150800A8E0E0FD0A4B6D68984228BF18468046FBF77C
S3150800A8F0CDFF431B98458ABF2D1A002005EB08009B
S3150800A900B11CFBF7E4FFD3E741C204080014730F38
S3150800A91030B50446C3B001A833F0C1FD01A92046ED
S3150800A920FFF774FF054601A92046FFF71FFE2846D4
S3150800A93043B030BD70B50C460546C2B001A833F029
S3150800A940AEFDFF22002120463DF0BBF9284601A9AD
S3150800A950FFF75CFF054640B99DF80261204632467E
S3150800A96001A93DF0CDFB84F8FE60284642B070BDD3
S3150800A9704FF0FF3310B50446037443748374C374ED
S3150800A980037543758375C375037243728372C37205
S3150800A990037343738373C37343786FF3000343707E
S3150800A9A0FEF7F9F82378002B14BF022001202BF0BC
S3150800A9B0F0FE0C2800D1FEE704F11800FCF759FF59
S3150800A9C02378012B02D10448FCF753FF2078BDE811
S3150800A9D0104033F05CBD00BFAC37002038B500F539
S3150800A9E0005393F85931044693B900F5FA500830E4
S3150800A9F0FFF713FD054648B904F5F2500430FFF792
S3150800AA00B7FF04F5F3501030FFF7B2FF284638BDFC
S3150800AA100D25FBE738B500F5005393F85951044660
S3150800AA2085B900F5FA500830FEF7B3F904F5F25087
S3150800AA300430FFF79DFF04F5F3501030FFF798FF39
S3150800AA40284638BD0D25FBE72DE9F04105460E469B
S3150800AA50B9B300F5005393F85941A4BB00F58058E3
S3150800AA6000F5F657D8F8D80E1837814210D14FF4AA
S3150800AA70802032F019FB05F5F2500430FFF778FF15
S3150800AA8005F5F3501030FFF773FF2046BDE8F08157
S3150800AA90FEF77CF84FF48020C8F8D86E32F096FAA4
S3150800AAA04FF4807032F092FA3846C8F8DC4E11F04E
S3150800AAB0D5FF064BC3E96444C3F89841C3F88C41F3
S3150800AAC0D9E70724E1E70D24DFE700BF10390020A6
S3150800AAD070B58CB0054602A80C46FBF7F4FE4FF29B
S3150800AAE0BF03ADF82A306B789B0726D42B78002B4A
S3150800AAF014BF1C200D202BF0A0FE0646F8B12146F7
S3150800AB0094F8FE20FCF712FA044690B902A81BF046
S3150800AB1053F831460B4B0C48009502AAFCF71AFF6E
S3150800AB20044630B96B7843F002036B7020460CB0CC
S3150800AB3070BD3046FBF78CFFF8E71824F6E70324C8
S3150800AB40F4E700BF3B8400082031002038B51546DD
S3150800AB502BF083FE044650B101462A460448FDF709
S3150800AB602BF820B12046BDE83840FBF771BF38BD49
S3150800AB7020310020024690F8403030B5C41894427F
S3150800AB80154606D1402B08D05A1C80F84020C154DF
S3150800AB9003E02D7801328D42F1D130BD2DE9F04127
S3150800ABA09CB0804601A80C461F461646229DFBF718
S3150800ABB08AFE4FF2BF03ADF8263000238DF86C30BD
S3150800ABC023781BB10E210BA8FFF7D4FF63781BB1BE
S3150800ABD033210BA8FFF7CEFFA3781BB105210BA8DD
S3150800ABE0FFF7C8FFE3781BB103210BA8FFF7C2FFE5
S3150800ABF023791BB102210BA8FFF7BCFF63791BB1B0
S3150800AC0007210BA8FFF7B6FFA3791BB134210BA8C0
S3150800AC10FFF7B0FFE3791BB101210BA8FFF7AAFFE5
S3150800AC20237A1BB100210BA8FFF7A4FF237B1BB1D6
S3150800AC304A210BA8FFF79EFF637A1BB104210BA8D4
S3150800AC40FFF798FFA37A1BB10C210BA8FFF792FF19
S3150800AC50E37A1BB135210BA8FFF78CFF3744BE42B8
S3150800AC601BD198F80030002B14BF1A200B202BF0AC
S3150800AC70E4FD064670B39DF86C30A3B901A81AF036
S3150800AC809BFFDDB93146144801AAFCF795FF044637
S3150800AC9080B920461CB0BDE8F08116F8011B0BA848
S3150800ACA0FFF768FFDBE70D210BAAFDF74AFC044610
S3150800ACB00028E3D03046FBF7CBFEEAE72B4605AC87
S3150800ACC01035224618685968083303C2AB42144641
S3150800ACD0F7D1D7E70324DCE72031002030B5044656
S3150800ACE0C3B001A833F0DBFB204601A9FFF78EFDB0
S3150800ACF0044668B9074D15F8011B01A8FFF71EFCA5
S3150800AD0020B10134E4B2052CF5D1012043B030BDA1
S3150800AD100020FBE747C2040810B50C460E21FFF7D2
S3150800AD200DFC38B1D0F802302360D0F80630002088
S3150800AD30636010BD1720FCE7082208B53EF0A5F9A8
S3150800AD40B0FA80F0400908BD2DE9F0434B798046FA
S3150800AD5013F0180F0D4693B000F0D88008A810F02D
S3150800AD60CDFC044630BB9DF82830FF2B00F0CA8086
S3150800AD700AA82EF05BFB20B965490EA8FFF7DCFF91
S3150800AD8030B164480AA912F05DFD002800F0BC80C5
S3150800AD909DF8383008F5B357FF2B07F1080710D090
S3150800ADA006A9384606952EF0EAFE0446069833F0BC
S3150800ADB07BFD0025284633F077FD204613B0BDE815
S3150800ADC0F0830EA810F040FC40B12946384608AA80
S3150800ADD012F056FC04460028ECD1E1E70EA810F064
S3150800ADE027FC0028DCD028212846FBF7DEFE9DF844
S3150800ADF0261000297DD1022303AAFBF73CFF04464F
S3150800AE000028D7D1BDF824209DF80D3052BA013359
S3150800AE1092B2B2EBC30F4FEAC30668D301468DF868
S3150800AE200D302846022303AAFCF73EF821460822DD
S3150800AE302846FCF711F9814604460028BAD101468E
S3150800AE40082328462A460096FCF73EF932490AA8FE
S3150800AE50FBF768FC00283CD040F26D238DF8129071
S3150800AE60ADF8103008F5805898F8303704A85A1C01
S3150800AE7088F830278DF8133010F05DFC314603460C
S3150800AE8004AA2846FCF710F804A810F054FC10F0A1
S3150800AE900701044610D0C1F10801C9B206A810F08E
S3150800AEA073FC06A810F047FC2644B6B203463146A2
S3150800AEB0284606AAFBF7F8FFBDF824305BBA083324
S3150800AEC05BBAADF824302822284608A9FCF7C4F84E
S3150800AED080E740F26D43ADF8103040238DF812300C
S3150800AEE00E4BB3F85C315BBAADF81430BAE70624FA
S3150800AEF060E72946384608AA12F064FB044600288B
S3150800AF00E1D057E7142455E7022453E7072454E70A
S3150800AF10583C002044300020903C00201039002086
S3150800AF2038B504460D46FFF707FF28B1BDE8384097
S3150800AF304FF4003032F0B8B82B684FF40030236075
S3150800AF406B686360BDE8384032F040B8F0B5054636
S3150800AF50007840B30A88C600F6B2B2FBF6F30127BA
S3150800AF6006FB1322431EDCB2C2F3C403E31A55FAE6
S3150800AF7083F35B7802F0070207FA02F213EA02008B
S3150800AF8011D04B88B3FBF6F206FB1233C3F3C402A7
S3150800AF90A41A55FA84F003F007039F4043783B420E
S3150800AFA014BF01200020F0BD41F2210337B50C463D
S3150800AFB00546014601A801932BF0D2FB48F205038A
S3150800AFC02080294601A801932BF0CAFB608003B0B4
S3150800AFD030BD30B50546C3B008A80C4633F0BDFAF7
S3150800AFE008A8FDF78FFD0822294608A8FDF798FD51
S3150800AFF0694608A8FDF7BAFD6B4603CB206023789F
S3150800B000616043F00203237008A833F09CFA43B04A
S3150800B01030BD13B50446684611F0A0FA6388627815
S3150800B0205BBA022AADF8003000D1FEE7023AD2B286
S3150800B030022A28BF02226846211D11F0A5FE00201B
S3150800B040009B9AB262F30F001B0C63F31F4002B019
S3150800B05010BD00232DE9F3410B60438904460E46D3
S3150800B060002B33D01D4F608988B301282ED0606825
S3150800B070218978B302236A46FBF7DFFD6D466B78B4
S3150800B080628903F10208424520D32A78C2B9042B03
S3150800B0901CD1606828B106236A4604F10801FBF74B
S3150800B0A0C0FED5F80200FBF76FFCFBF7FEF92B781C
S3150800B0B0002B0CBF3B46002318403368034333601C
S3150800B0C0414604F10800FCF74FF9CCE7062002B028
S3150800B0D0BDE8F08125680D44D1E700BF00F8FF07F9
S3150800B0E01FB500230293ADF80C30831C01934378F7
S3150800B0F001A8ADF80E30FFF7ACFF05B05DF804FB0C
S3150800B10073B590F8FE300546FF2B00EB03065DD1BC
S3150800B110062002B070BD6178FF29F9D0A21C9642BC
S3150800B120F6D32046FDF766F820448642F0D3237806
S3150800B1300E2B0BD80E2B10D8DFE803F0213E442E39
S3150800B14042420F440F0F0F0F340F4400352B2CD0FB
S3150800B15013D8332B36D0342B36D0611B28462278A9
S3150800B16089B2FDF7CCF90028D2D12046FDF742F87E
S3150800B1700444B442CFD30020CBE74A2BEDD10229B1
S3150800B180C6D9A378002BC3D1B4F803305BBA0B3BFE
S3150800B1909BB20F2BE1D9BBE71046FCF7ABF90028A9
S3150800B1A0DBD1B5E70229D8D8B2E7204601A9FFF7CF
S3150800B1B097FF0028D1D0ABE702239942CDD2A7E763
S3150800B1C01023FAE70823F8E70423F6E70446D0E74E
S3150800B1D030B585B00C466A4635210546FDF798F820
S3150800B1E038B9009BCDE90105214601A80393FFF76D
S3150800B1F030FF05B030BD002310B5044683710948F9
S3150800B200084058B1237004236370FBF74EF9FBF727
S3150800B210BBFB0623C4F80200A37110BD002AF1D1B6
S3150800B220FBE700BF00F8FF0773B591F878300546CD
S3150800B2300C465BB16846FBF7A9FB08236A460E2154
S3150800B2402846FFF79EFA002840F0BB8094F879302C
S3150800B2506BB1684604F11001FBF798FB08236A46B0
S3150800B26033212846FFF78DFA002840F0AA8094F883
S3150800B2707E30002B40F0988094F880307BB1002116
S3150800B280B4F85A306A465BBAADF80130284603234B
S3150800B2908DF80010FFF775FA002840F0928094F8B0
S3150800B2A084307BB10022B4F85C308DF800205BBA9C
S3150800B2B0ADF801306A4603234A212846FFF761FAAA
S3150800B2C000287ED194F883306BB100226846616FFE
S3150800B2D0FFF791FF6A46352128469DF80630FFF7A5
S3150800B2E050FA00286DD194F87C30002B6BD194F875
S3150800B2F07D3043B108230721284604F14902FFF7A8
S3150800B30040FA00285DD194F87A3043B1102305211C
S3150800B310284604F12002FFF734FA002851D194F8A0
S3150800B3207B306BB104F1300611213046FCF77EF80C
S3150800B3303246C3B203212846FFF723FA002840D134
S3150800B34094F87F305BB1B4F858306A465BBAADF80A
S3150800B3500030012102232846FFF713FA88BB94F828
S3150800B36081303BB110230421284604F15E02FFF721
S3150800B37008FA30BB94F88230A3B1204640F20C4359
S3150800B380ADF8003030F86E3F01A95BBAADF802306F
S3150800B3902FF040FE04230C2128460DF10202FFF788
S3150800B3A0F0F970B900200CE0606DFBF7EDFA0423A4
S3150800B3B000906A4634212846FFF7E3F900283FF44F
S3150800B3C05BAF02B070BD08230221284604F1410292
S3150800B3D0FFF7D7F900288AD0F3E7034608461A7913
S3150800B3E019683CF08DBE08B5027900683DF04DFE3F
S3150800B3F0B0FA80F0400908BD73B56E46054603C924
S3150800B40086E803009DF80410FCF710F8C4B2102C67
S3150800B41010D8294630468DF80440FFF7E4FF08B1F6
S3150800B4202B5D4BB130462946FFF7D7FF002028553C
S3150800B43002B070BD0720FBE71820F9E7112337B5DE
S3150800B440054608460C4600918DF804303CF0ECFEA3
S3150800B45001462046FCF74EF828B169462846FFF70C
S3150800B460CBFF03B030BD0720FBE738B500F5005227
S3150800B47092F859210546B2B9B9B10B78ABB100F5C6
S3150800B480F5501030FFF7DAFF31F016FE044605F5E1
S3150800B490F2500430FFF76CFA05F5F3501030FFF759
S3150800B4A067FA204638BD0D24FBE70724F9E710B5EF
S3150800B4B000F5005393F859414CB900F5F6500130A0
S3150800B4C0FFF7BCFF182818BF0446204610BD0D24F8
S3150800B4D0FBE74FF6FF720388934208D1D0F80220A3
S3150800B4E0013204D1C088C01A18BF01207047012054
S3150800B4F0704708B50346D0F80200FBF745FA1988E5
