S02200006275696C642F64656275672F7A69676265655F7A335F6C696768742E73333764
S21400400008100020055601006D44010071440100AF
S21400401035CC0300754401007D44010035CC030017
S21400402035CC030035CC030035CC030035CC03007B
S214004030814401008CCE040035CC030035CC03004F
S21400404035CC030035CC030035CC03004D550100BC
S21400405035CC030035CC030035CC030035CC03004B
S21400406035CC030035CC0300E1A5010005BF0100F7
S21400407045F7030035CC030035CC030035CC0300F0
S21400408035CC030035CC030035CC030035CC03001B
S21400409035CC03002595010035CC030035CC030054
S2140040A035CC0300ED5A0100D15A010035CC03008F
S2140040B035CC030035CC030035CC03005D2C020064
S2140040C0BB0B0400B70B0400A1230200D10B0400B5
S2140040D0BF0B04001D2C0200C30B040025170200B2
S2140040E09D2C020035CC030035CC0300554501005D
S2140040F035CC030035CC030035CC030035CC0300AB
S21400410035CC030035CC030035CC030035CC03009A
S21400411035CC030035CC030035CC030035CC03008A
S21400412035CC030035CC030035CC030035CC03007A
S20800413035CC030082
S214004134F0B5114A114C124E00F00105E3695F0711
S21400414413D40DB9334213D103EA00078F4207D1C3
S2140041540B4A1A40002A0CBF00206FF00100F0BD85
S214004164013AEBD16FF00200F9E74FF0FF30F6E7C3
S2140041746FF00100F3E700BF80969800000003503C
S214004184020001000B4B70B5D96911F480310DD1D2
S21400419401244FF48072084E084DF46020462C64C7
S2140041A41A61FFF7C5FF3464EC6070BD6FF0010060
S2140041B4FBE700BF0000035000100350002003502C
S2140041C438B541F6713301220C4C0021E569E363EE
S2140041D40B4B05F48035DA600223606121202361ED
S2140041E4FFF7A6FF10B92120FFF7A2FF0122054B17
S2140041F4DA600DB10023E36338BD00BF000003504E
S214004204001003500020035070B5134C6061E3693E
S2140042145B071ED40E4656F8043B8D18A361AE42C7
S2140042240BD10423002121202361FFF781FF58B915
S214004234BDE870402120FFF77BBF08210846FFF742
S21400424477FF10B10423236170BD56F8043BA361C5
S214004254E5E74FF0FF30F7E7000003502DE9F84399
S214004264154641F67132164B8946DF69DA63012238
S214004274064603F58053DFF8508007F48037DA608B
S21400428455B9284601220F4BDA601FB10022A3F568
S2140042940053DA63BDE8F88306F5005404EA08041C
S2140042A4A41BAC4228BF2C46494622463046FFF79C
S2140042B4ABFF0028E6D12644A1442D1BE0E700BF4F
S2100042C4000003500020035000E0FFFF45
S2140042D02DE9F04F4FF0FD0BC9B09A460DF11B09C2
S2140042E09DF8503108AFCDF80C90CDF808B0019786
S2140042F0059303890446009383790E4690464188C9
S214004300828840780DF058FE054650B10090A3888C
S214004310002062883A490EF0CFF9284649B0BDE839
S214004320F08F99F8000036F007FE38B12846A388CB
S214004330628834490EF0C0F98D25EEE75A463946B4
S21400434099F8000036F09EFD8346002851D0529B17
S2140043501BB1BDF84C3198424BD8002399F8009019
S2140043600793A9F14102012A5FFA8BF123D8384658
S2140043700139254ADFF898C05FFA81FE734513DBE2
S214004380059B04210792C3B907AF18221F489FED6B
S2140043901A7B02FB060420460A460830394684ED9E
S2140043A0027B3BF035FE11E010F8011F013351404F
S2140043B00CFB01F2E2E7059B33B123464A4638463A
S2140043C0009608F0C1FBA8E70829DED9B8F1000F6F
S2140043D001D088F80090BAF1000F01D0AAF800B01A
S2140043E0529B002B99D05A46184608A93BF010FE5F
S2140043F093E7012591E700BF0000000000000000E1
S2140044003F92040074920400C59D1C810810002091
S21400441093010001000000002DE9F04F93B0CDE9B4
S2140044200A32DDE91C530E9353EC102BCDE908013C
S214004430104619468DED060B1E9E18F0EFFC80B157
S214004440DDE906014FF0FF32C54B18F00FFD40B90D
S214004450DDE906014FF0FF326FF4801318F0E8FC38
S21400446070B1DDE908019DED060B0E9B1E96CDE9A9
S2140044701C53DDE90A3213B0BDE8F04F00F088B9EE
S2140044800022DDE90601002318F0D2FC002800F027
S2140044903381DDE906A303F1004BCBF30A5016F493
S2140044A08063A0F2FF3008BF06250F9318F0E4F9EA
S2140044B09BA3D3E9002318F049FA9BA3D3E9002372
S2140044C018F08EF8CBF31304894644F07F518046EB
S2140044D00022A44B504641F4401118F07FF894A3F4
S2140044E0D3E9002318F032FA02460B464046494606
S2140044F018F076F818F0C4FC044618F0BDF98EA340
S214004500D3E900238046894618F020FA0022964B0D
S21400451018F066F818F0B4FC89A3D3E90023074620
S2140045204946404618F012FA80463846894618F042
S214004530A3F985A3D3E9002318F008FA02460B4630
S2140045404046494618F04AF802460B46CDE90C2389
S21400455018F0FCF9DDE90C2380468946104619461A
S21400456018F03EF80022CDE91001804B404649463F
S21400457018F016FB00227E4B18F032F802460B4667
S2140045804046494618F00CFB00227A4B18F028F8F3
S21400459002460B464046494618F002FBDDE90C236E
S2140045A08046894600204FF0804118F017F80246F2
S2140045B00B464046494618F013F802460B46DDE91E
S2140045C0100118F0EDFA07F2FF3700226A4B18F0D8
S2140045D007F800223B0518F0B9F952465B468046BC
S2140045E0894618F043FC002840F08980CDE90C8904
S2140045F004F16303C72B34BF0427052731051BD5F9
S21400460053A3D3E900235046594618F025FC00284A
S2140046107FD051A3D3E900235046594618F008FC32
S214004620002876D00027A542C6BF2C1B04F1FF3514
S21400463000253C4646F480660E9B9F422CBF4FF0FA
S2140046400008A3EB070816F0020903D0002F18BFD6
S2140046504FF000083CB1DDE90C235046594618F0EF
S2140046609FFA82468B46DDE906010022002318F0F9
S214004670DFFB10B10BF100439B46DDE9080126F491
S2140046800063CDE90183DDE90A324BEC10AB0095FF
S21400469000F07EF802465FB3DDE9091316F0200F3E
S2140046A000F10105089E0CBF65204520B047DDE9F6
S2140046B008010523002205930A23002CCDE90232C7
S2140046C007F1FF374FEAD473B8BF64422A46019316
S2140046D004970A9B00943AF0E4FC0246B9F1000FF6
S2140046E006D00B9BC41A0B9B1A190E9BA34245D8E7
S2140046F0104613B0BDE8F08FDDE906ABCDE600222C
S214004700404649461A4B18F04BFA013CCDE90C01DD
S2140047106EE7002D90D00F9B002B8DD0013D8BE7D0
S214004720FB799F501344D33FB3C8608B288AC63F9B
S21400473061436F63A787D23F71A379094F930A40FD
S2140047401655B5BBB16B0240EF39FAFE422EE63F76
S2140047502D431CEBE2361A3F0000000080842E41F9
S214004760FFFFEF7F0000F83F0000E03F00002C4016
S21400477000002440000018400000F03F2020DDE943
S2140047800913089DA8470134ADE700BF00000000EC
S2140047902DE9F04F5BEC10AB97B0CDE90501DDE9F4
S2140047A02057CDE90723504652465B465946229E7F
S2140047B018F034FB70B90323CDE902760193B04BB1
S2140047C00093DDE90501DDE907233AF08AFB17B01F
S2140047D0BDE8F08F4FF0FF326FF480135046594615
S2140047E018F026FB28B10423CDE902760193A54BE9
S2140047F0E6E74FF0FF3250465946A34B18F036FB1B
S21400480068B1A24A06F00403002B08BF0322A04B9F
S2140048101CBF13460422CDE902760192D0E750462B
S21400482093A3D3E90023594618F020FB38B992A386
S214004830D3E900235046594618F0FAFA68B1DDE984
S2140048400723DDE905014BEC10ABCDE92176209579
S21400485017B0BDE8F04FFFF7DFBD0022002350463B
S214004860594618F0E5FA002800F09A805B46524652
S2140048700020002117F0B2FE012382468B460993E2
S21400488016F4806400F08E80092D40F28E8000249D
S21400489030210EABA5F109020134202C03F8011BD0
S2140048A0A5EB040901D09442F6D15946504618F0BB
S2140048B0E7FA784B054603EBC90393ED007B8DEDD5
S2140048C00A7B17F0D9FF02460B465046594617F0AA
S2140048D085FEDDE90A2318F039F802460B46CDE9D5
S2140048E00C2318F0F5FA804617F0B6FF02460B4682
S2140048F0DDE90C0117F072FE02460B46CDE90C23EB
S2140049000022654B18F0B2FA002851D008F10108D1
S214004910404617F0A1FF02460B46DDE90A0118F0F3
S21400492091FA10B14FF000080135B9F1000F50D1DF
S214004930284617F0A1FF02460B465046594617F088
S2140049404DFE0022544B8046894618F071FA30B16D
S214004950002240464946504B18F088FA10B1E80746
S21400496000D501350A210EAB1A19202C0AD095FB6A
S214004970F1F001FB1055303502F8015B01340546B5
S2140049800028F2D106F00302012A57D1002F55D095
S214004990099A12B916F00C0F00D0013F302245E0FC
S2140049A009906DE74FF006097FE7A94600247CE7EB
S2140049B00022DDE90C01384B18F03AFA0028B4D191
S2140049C0B8F1000F02D018F0010FAED008F10108C0
S2140049D0ABE70A210EAB2344202C0ED0B8FBF1F037
S2140049E001FB1082B8F1090F02F1300209F1FF391C
S2140049F004F1010403F8012B11D83021A1440EAABA
S214004A00202CAFD0A14504F101030AD11C4609F1C0
S214004A1058030DEB03092E2309F8203CA2E7804635
S214004A20DAE7A1541C46EBE71A550134A74205D92C
S214004A30202CF9D1CDE902760194C1E6202CF9D0DC
S214004A40099A3AB12D2104F158026A4402F8201C52
S214004A500134EFE7710704D504F158022B216A44AC
S214004A60F4E73207E6D504F1580220216A44EDE760
S214004A700000000065CDCD410000000065CDCDC131
S214004A8001D8040005D80400FFFFEF7FF8D7040024
S214004A90FDD7040010D804000000E03F000000002E
S214004AA070B58EB02C22002103A83BF002FB6423D5
S214004AB04FF002320893CDE905230B2301218DF830
S214004AC034305B4B8DF810101D880D4040F0A880E8
S214004AD0084640F0EBF80A22564B574C1A704FF433
S214004AE02873ADF812304FF0FF332360534B544910
S214004AF01B8820460B82534B534A1B68CD828B6122
S214004B00524B0D621B884B82514B1B68CB6118F0D1
S214004B1081FD20B140F27B214E483FF025F905216A
S214004B2020683BF07EFB20B14FF4237149483FF0EC
S214004B301BF9206817F000FA002120683AF06FFB96
S214004B400C2540F00FFD6843099040F00BFD6843CC
S214004B500DEB05010790206819F068F820B14FF4B6
S214004B6029713C483FF000F9256822F013FD002229
S214004B70014628463BF05EFC20B140F2A6213548AF
S214004B803FF0F2F840F20353334D344E2B800523AA
S214004B9096F90000AB707F2801D120F0A5F9337894
S214004BA0EB7040F0DFFC00EB80008000A88040F057
S214004BB0D9FC0023C0004FF0FF31E880AB604FF017
S214004BC0FF3019A3D3E9002340F0C2F92449206836
S214004BD03BF0E8FB206802A93BF0BFFB20B140F2A7
S214004BE0DF211C483FF0C0F8042220680DEB0201CC
S214004BF03BF070FB042804D040F2E62115483FF055
S214004C00B3F801A9012037F0BFFF0FF073FC0120B5
S214004C1020F002FE3AF0F4FA20F028FE20F0FCF82D
S214004C200EB070BDAFF300800A0020FF4203000004
S214004C30623D0020EB480020903500200A63050006
S214004C40004F002010630500D54C040008630500E3
S214004C500C63050011800500843500207452002086
S214004C60494D04000348044B834202D0034B03B172
S214004C7018477047AC520020AC52002000000000DD
S214004C80064B0749C91A891048BF0131491003D09D
S214004C90044B0BB101481847704700BFAC520020C8
S214004CA0AC5200200000000010B5064C237843B933
S214004CB0FFF7D8FF044B13B10448AFF3008001237D
S214004CC0237010BD563E002000000000248305001F
S214004CD008B5054B1BB105490548AFF30080BDE894
S214004CE00840FFF7CDBF00BF00000000B81400204A
S214004CF024830500A3F5803A704700BF174B002BAE
S214004D0008BF134B9D46FFF7F5FF00218B460F4665
S214004D101348144A121A3BF0CCF90E4B002B00D065
S214004D2098470D4B002B00D0984700200021040028
S214004D300D000D48002802D00C48AFF3008018F094
S214004D402BFC200029003BF04DF918F071FA00BF4B
S214004D50000008000000000000000000081000200E
S214004D60081000208049002000000000000000001D
S214004D7008B537F02EFA3BF04AFBBDE8084002467D
S214004D80014902200DF098BCA865040010B5D0E9D2
S214004D90023253F822301C78204637F034FA224686
S214004DA0BDE810400346024902200DF085BC00BF56
S214004DB0BC650400014B187836F08DBD573E0020C8
S214004DC0FF2300212DE9F04F8DB00D2207A88DF8A6
S214004DD00B3006913BF06DF906A835F0F9FE02207F
S214004DE0A24906AA0DF068FC41F20202A049022080
S214004DF00DF062FC04A836F01CF806A90DF10B00B5
S214004E0036F022F802209B490DF06AFC02200DF0D5
S214004E1037FC10B104A80DF0BFFB9DF9223002202C
S214004E209DF8232094490DF047FC37F0CCF9831EFB
S214004E30DBB2FC2B05462CD8022090490DF03CFC3A
S214004E4001248F4E8F4FDFF8A8822246314602207B
S214004E500DF046FC03A9E0B237F0B9F9024648B1B6
S214004E60A0F11603012B40F29B80414602200DF074
S214004E7023FC0AE09DF90C303946009302209DF889
S214004E800E309DF80D200DF017FC0134E3B29D4264
S214004E90DBD8BDF820400BF0FBFC224603467A49DF
S214004EA002200DF01DFC022078490DF019FC0220AE
S214004EB00DF0E6FB10B106A80DF06EFB744902205B
S214004EC00DF0FAFB37F09DF8044637F096F82246C8
S214004ED00346704902200DF0EFFB0CF0D1F90220DA
S214004EE06D490DF0FDFB9DF80B20FF2A5DD00220DA
S214004EF06A490DF0F5FB664902200DF0DDFB35F042
S214004F00A8FF6749024602200DF0D6FB0BF098FC7E
S214004F106449024602200DF0E3FB35F0AAFF044682
S214004F2035F0A9FF224603465F4902200DF0C4FB78
S214004F3040F0F4FE0CF044FA5C49024602200DF004
S214004F40BBFB0025DFF8AC810CF03AFAECB2A042CD
S214004F5030D840F0E3FE0122554902200DF0ACFBAC
S214004F60544C002036F0B7FC534B00220220534925
S214004F700DF0A2FB236853B11A78022050490DF0B9
S214004F809BFB236802205A784E490DF095FB36F0BD
S214004F90A7FC02204C490DF08FFB0DB0BDE8F08F4A
S214004FA002204A490DF088FB6FE7022048490DF0C1
S214004FB097FBA0E7474B204603EB0416D6F808906D
S214004FC00CF0FEFA824620460CF000FA424F00280B
S214004FD00CBFC346BB4620460CF0F2FA0EF0D0FAE1
S214004FE0002808BF47465B46524602203B490097CA
S214004FF00DF076FBB37902200193B388384900930D
S2140050007388327B0DF058FB0026DFF8ECB099F879
S2140050100430F4B2A34203D840F080FE013593E793
S21400502014235C43D9F800702E4907EB040A9AF95A
S2140050300C20022031EA220128BF59463B5B0A4673
S21400504029490DF04DFB02200DF01AFB38B15046F1
S2140050503C5B35F079FF014620460EF0DFFA022071
S21400506022490DF029FB0136D1E700BFEC650400AC
S214005070FB65040017660400436604001E66040011
S214005080346604003B660400706604009066040004
S2140050904E58050099660400BB66040009AC04007F
S2140050A0CE660400E4660400FA6604001067040096
S2140050B089670400E019002095670400A3670400D0
S2140050C0AF670400C3670400DE6704005866040088
S2140050D0C6660400A4190020F4A804001B67040098
S2140050E03B670400E065040071670400D3B1040068
S2140050F06366040009A90400D46504002DE9F8439A
S2140051000025114EDFF850800CF05AF9ECB2A042A0
S21400511001D8BDE8F8832701204616F807900CF062
S21400512055F90A4B4A46002808BF4346084902205C
S2140051300DF0D6FAF05D35F0A2FE022005490DF01E
S214005140BBFA0135E0E700BFA4190020CEC004007A
S214005150E8670400D3B10400D8C0040008B583682B
S2140051605A681178C26853F82230A1F1650251429C
S214005170514118780CF008FD28B9BDE80840022017
S21400518001490DF099BA08BDF367040002200149F1
S2140051900DF0A6BA0D680400022001490DF0A0BA71
S2140051A03B68040010B5044686B018220021684605
S2140051B03AF07FFF684636F0FBFAD4E9022052F850
S2140051C0203002EB80021B788DF80B30516891F985
S2140051D000108DF80A1091680988ADF8081061680B
S2140051E0091A032907DDD26803F01F03127843EA81
S2140051F042138DF80B3068460BF03CFC0349024620
S21400520002200DF06DFA06B010BD00BF576804000E
S21400521010B5002036F083FFBDE810400346024A72
S214005220022002490DF05CBA646804006A68040053
S21400523010B5D0E9023253F8221003EB82035B6804
S214005240087819680023094CA222994208BF214613
S214005250C01A18BF012036F04EFFBDE810400346C6
S214005260034A022003490DF027BA00BF00F8FF07E3
S2140052701DAD04007C69040010B5D0E9023203EBD2
S214005280820153F82230D1E901141878FF22003841
S2140052902378096818BF012036F02DFFBDE81040BE
S2140052A00346024A022002490DF006BA7568040059
S2140052B07C69040008B5002101230B4A36F040FD46
S2140052C0094836F095FA022008490DF009FA02203E
S2140052D00DF0D6F910B104480DF05EF9BDE80840AF
S2140052E0022003490DF0E8B9D54700208A6804007B
S2140052F0D3B1040008B535F0C0FD024628B1BDE8BC
S2140053000840022004490DF0D7B90220BDE8084045
S21400531002490DF0D1B900BF98680400A9680400DE
S21400532008B536F067FABDE8084002460149022093
S2140053300DF0C2B9B468040008B536F02FFABDE81F
S21400534008400246014902200DF0B6B9CA680400BA
S2140053500121D0E9023210B553F822304FF6FF7023
S2140053601C78FE22A140002336F067FF2246BDE8E7
S21400537010400346014902200DF09EB9DE68040085
S214005380D0E9023253F822301B781BB102200349C1
S2140053900DF092B9024A1370704700BFFD68040012
S2140053A0573E002007B5684635F043FD0BF070FA0F
S2140053B00849024602200DF07FF968460DF0ECF829
S2140053C00BF012FD0449024602200DF075F903B0F9
S2140053D05DF804FB136904002D69040037B5D0E9B5
S2140053E00245406854F82530401B0328D8BF0020EB
S2140053F004EB8504C8BFE06819786368C8BF007806
S2140054001A78A36893F900300090012036F05FFE0A
S21400541030B90220074903B0BDE830400DF04CB962
S2140054200090054B0220054A05490DF045F903B0EA
S21400543030BD00BF3E6904004669040080E20400F7
S2140054405A69040007B5012036F049FE034638B90C
S2140054500220084A084903B05DF804EB0DF02CB9A9
S2140054600090044B0220054A05490DF025F903B0CB
S2140054705DF804FB46690400716904003F4A0500B4
S2140054805A69040008B5D0E9023253F82230187879
S21400549036F0BBFD28B904490220BDE808400DF0EF
S2140054A00BB90249F8E700BF86690400A269040048
S2140054B008B5D0E9023253F82230188836F0A3FD3A
S2140054C028B904490220BDE808400DF0F5B80249A5
S2140054D0F8E700BFC1690400F169040073B50378FA
S2140054E0044613F0050F0ED04588062D17D18368A5
S2140054F001215B68174A1B78019383880420009378
S214005500154B03F021F82378012B20D0012104202D
S214005510114B124A02B0BDE8704003F015B835B919
S2140055208388012104200E4A03F00EF8EBE7012DD4
S214005530E9D186680B4900200DF0D2F830460DF010
S2140055402BF829460420084A02F0FEFFDBE702B0EB
S21400555070BD00BF276A04001E6A0400796A040052
S214005560446A0400616A0400D3B104002DE9F04FD8
S21400557000268FB0334D09AC0FCD0FC42B68022028
S214005580314923600DF098F83446DFF8D49035F0B2
S21400559064FCF5B2A8420AD835F05FFC2246034602
S2140055A02A4902200DF088F80FB0BDE8F08F284693
S2140055B005A936F00CFD024600283DD19DF81430B2
S2140055C0032B35D904238DF814302A4602202049AF
S2140055D00DF086F89DF814300EAA02EB830353F8FC
S2140055E0142C494602200DF07BF828469DF821A091
S2140055F09DF815B09DF81870BDF8168036F0E9FCD9
S2140056005B46CDE9018052460220124900970DF014
S21400561067F801340220E4B20DF032F818B10DF14B
S21400562019000CF0B9FF02200B490DF059F801E003
S214005630002BCAD10136AAE7022008490DF050F81F
S214005640F8E700BF086C04008B6A0400046B0400D3
S21400565036660400B86A04008AC60400DF6A0400DE
S21400566042760400C3688268013BDBB252F82330FE
S21400567002201B78652B0CBF01220022034B0BBFB8
S214005680034904491A701A700DF016B838520020F3
S2140056901B6B0400296B0400D0E9023253F8223059
S2140056A01A88014B1A807047B051002007B5D0E920
S2140056B0023103EB810253F8213052681988054BFA
S2140056C0054812880093008801230DF091FC03B072
S2140056D05DF804FBDD540000B0510020C36882680A
S2140056E0013BDBB252F823305B78A3F166025342EB
S2140056F05341014A137070473B52002030B5D0E941
S214005700023253F8223089B01D78012302AA1946C6
S214005710044636F015FB01230093102302210DEBFF
S2140057200302204636F0EDFA284604AA02A936F00F
S2140057309EFD044602200CF0A3FF18B12146044843
S2140057400BF040F9022003490CF0B6FF09B030BD5B
S214005750386B0400D3B10400002310B58EB00221CC
S214005760009309AA1223044636F0CBFA05AA01468E
S21400577009A80AF0A1FE024680B1232804D11249E6
S21400578002200CF099FF07E0212801D10F49F7E726
S21400579002200F490CF090FF0EB010BD01232046EA
S2140057A0194603AA36F0CCFA05A903A836F061FD1F
S2140057B0044602200CF064FF18B1214605480BF0A1
S2140057C001F90549DCE700BF456B0400686B04007F
S2140057D0A36B0400C46B0400D3B10400F0B5D0E999
S2140057E0023253F8221003EB82039B6805461F78AB
S2140057F085B038460E7836F07FF8044608BBD5E903
S214005800022101238DF80030194452F8210002EBE2
S214005810810200888DF801709268ADF80200127857
S21400582004218DF8042028460DF1050236F088FA8A
S214005830694630468DF80D4036F0CDFB044636F00E
S2140058404FF823463246022002490CF035FF05B0D9
S214005850F0BD00BFD96B0400F0B502208FB022491E
S2140058600CF02AFF002005AB01AA09A936F0F9FCC6
S21400587000241E4D1E4E1F4F10B120460FB0F0BD27
S2140058800220224629460CF02BFF02200CF0F8FEE0
S21400589010B10AA80CF080FE31469DF83020022098
S2140058A00CF01EFF3946079A02200CF019FFBDF8CF
S2140058B02020022010490CF013FFBDF814200F49D9
S2140058C002200CF00DFF013401A836F030F8E4B2E7
S2140058D002200B490CF0F0FE204605AB01AA09A9F0
S2140058E036F0BFFCC8E700BF1C6C0400626C040006
S2140058F06A6C0400766C0400939904007F6C0400C4
S214005900D3B104002DE9F047074696B0B8B935F094
S214005910A2FA064600250CA836F0ADFC02203B494C
S2140059200CF0CAFE2C46DFF8EC80DFF8EC90DFF8CF
S214005930ECA0B44205D3284616B0BDE8F087012691
S214005940E8E711A836F097FC002F45D0022404A9FA
S21400595011A88DF8444036F080FC002854D16946E2
S21400596011A836F080FC9DF85130204643F0010324
S21400597027498DF85130FE240CF0B2FE9DF85130C8
S21400598008A943F0010311A88DF8513036F06BFCDE
S21400599002200CF075FE10B112A80CF0FDFD0A9A5C
S2140059A0414602200CF09CFEBDF82030494613F418
S2140059B0007F14BF41224C2213F0100F0CBF6E2341
S2140059C0792302200CF08CFE04A835F0B0FF0135D8
S2140059D0EDB20134E4B2ACE7204608AB04AA11A944
S2140059E036F03DFC0028F4D1694611A836F03BFCA1
S2140059F09DF85130224643F00103514602208DF8AF
S214005A0051300CF06DFEB9E7FE24E2E7896C040025
S214005A10BE6C0400766C0400C56C0400626C040066
S214005A2010B596B00CA836F026FC012311A88DF808
S214005A30303036F09CFB98B9BDF84430DB070FD405
S214005A4002203D490CF038FE02203C490CF048FE8E
S214005A50022039490CF030FE022037490CF02CFEAB
S214005A6004A90CA836F0F9FB28B11022FF210DEB93
S214005A7002003AF01EFB02A836F0F7FB0220039B5A
S214005A802F4A30490CF018FE9DF80A3002202C4AA6
S214005A902D490CF011FE2D49294A02200CF020FE5B
S214005AA004A835F044FF11A836F0E5FB022308A948
S214005AB011A88DF8443036F0D6FB002838D1099B63
S214005AC00220234A23490CF0F7FD214A22490220EE
S214005AD00CF0F2FD0120FFF715FF1D4A1F490220BA
S214005AE00CF0EAFD0020FFF70DFF044635F0B3F991
S214005AF0224603461A4902200CF0DEFD194A1749D1
S214005B0002200CF0D9FDFFF7A7FE174902280A4B22
S214005B1028BF0B461549CDE900030246144B4FF04B
S214005B20020038BF0B4613490CF0C6FD16B010BD78
S214005B304FF0FF33C4E700BFD3B10400D46C0400B9
S214005B400A6D0400126D0400226D0400356D040019
S214005B50D59C04003A6D04004A6D0400516D0400A3
S214005B605A6D04006E6D04004376040045960400EA
S214005B70697C04007C6D040010B5D0E9023253F84D
S214005B8022301C78201E18BF012036F0D2FA054AB3
S214005B90054B0220002C18BF1A46BDE810400349EA
S214005BA00CF08ABDA96D0400A46D0400B26D04005B
S214005BB0D0E9023210B553F822301C88204636F061
S214005BC0BAFA2246BDE81040022001490CF074BD26
S214005BD0F36D040037B504460AF032FE014638B1CC
S214005BE00220104A104903B0BDE830400CF064BDF6
S214005BF0E368A268013BDBB252F823300B481D78FD
S214005C0001230B4A00936C2D08BF02461023204642
S214005C1036F077F80220074903B0BDE830400CF0B4
S214005C204BBD00BF416E0400496E040012520020B6
S214005C30025200205F6E040013B583689A681278DB
S214005C40672A23D101A836F092FA0446B0B9BDF807
S214005C500420022016490CF02FFDBDF80430DA07A8
S214005C600AD413F0020F134B134A18BF1A461349EF
S214005C7002200CF021FD19E0114AF8E7024611490E
S214005C8002200CF019FD22460F49F1E7C26801A96F
S214005C9053F8220003EB82035B6800681B68ADF8CC
S214005CA0043036F06AFA04460028ECD102B010BD83
S214005CB0896E04007C6E0400676E0400AA6E040001
S214005CC06C6E0400BC6E0400E86E0400034A0449CF
S214005CD01388C85401331380704700BF5237002022
S214005CE05D3E002073B5124C01262378114D13F04B
S214005CF0040F0CBF022304230F4A022016702A88C2
S214005D000E4900920E4AE35C52880CF0D5FC022045
S214005D100C490CF0E5FC2146334602202A880CF09C
S214005D201DFC0220084902B0BDE870400CF0C4BC5F
S214005D305D3E0020523700205C3E0020F76E0400D7
S214005D40443700201C6F0400D3B1040070B516461B
S214005D504FF48A52114B124DDA805980114B1B8832
S214005D601A1E18BF012240EA82000F4A1278003A33
S214005D7018BF012240EA0210287063B103246B703A
S214005D801B0AAB700DF072FC631C2855EE54074BD3
S214005D9002341C8070BD0124F4E700BF44370020A5
S214005DA05D3E0020503700205B3E0020523700202A
S214005DB038B5D1E902320C46054653F82230024681
S214005DC019880C4B1878FFF7C1FFE368A268013307
S214005DD052F82330188833F066FA4DB1E368A268AB
S214005DE0023352F823301878BDE83840FFF76EBF0C
S214005DF038BD00BF583E00201FB5D0E9023253F828
S214005E002230ADF80E1018782123002200930321CB
S214005E100DF10E0335F0B3FB48B10023019000935B
S214005E2002200323BDF80E2002490CF045FC05B005
S214005E305DF804FB256F0400F0B50546EB68AA681C
S214005E40023352F8233008461C78294685B0FFF7FF
S214005E50AFFF204635F064F8204E214F78B3204639
S214005E6035F06AF80321441C03AA284637F0E9FEF9
S214005E703288E4B2C2F1520303991B1B9BB28B42D9
S214005E8022443CBFC2F15203039301230321009333
S214005E903A449DF80C30284635F033FF039A022C1E
S214005EA0338804BF0F48110AFA5408BFC15413447C
S214005EB01C44348005B0BDE8F040FFF713BF204611
S214005EC00BF0E6F9012332880446009303210346CB
S214005ED03A44284635F015FF3388E9E75237002064
S214005EE05D3E00205E3E002008B502200523044AE1
S214005EF004490CF0E1FBBDE80840FFF791BD00BF88
S214005F00886F04008F6F040013B5044636F029F935
S214005F1030B1009023460220024A03490CF0CCFB25
S214005F2002B010BD416E0400A66F040038B5164BD3
S214005F301B782BB9BDE83840022014490CF0BCBBD6
S214005F40D0E9023253F82230114C1D7802202A463E
S214005F50638810490CF0B0FB0F4B25711B780F4D72
S214005F6053B102200E490CF0A7FB204629880D4AA3
S214005F70BDE8384034F02DBD20462988094ABDE8E2
S214005F80384034F0E8BD00BF5C3E0020BD6F040022
S214005F9044370020CB6F0400593E002052370020C3
S214005FA0E26F04005D3E00202DE9F041D0E90232A8
S214005FB053F8221003EB82035A680E7817889A6803
S214005FC0DB68B2F800801C78C6B033460220CDE904
S214005FD00078274A27490CF083FB1CB3792202205D
S214005FE025490CF069FB4023FF220DF1170506AC8E
S214005FF001923946424630460295009435F0E3FA5F
S214006000034678BB287834F091FF064688B12146CF
S21400601002200CF0B1FA022018490CF04DFB46B0F5
S214006020BDE8F0816E22022013490CF045FB802368
S214006030DAE7287834F080FF68B1204635F02AFC8D
S214006040FD28A8BFFD20334682B20DF11A010220BA
S2140060500CF084FADFE728780BF01AF901230246E1
S2140060602146F4E70220064A06490CF025FBD6E74F
S214006070F89D0400FC6F040021700400D3B10400F6
S2140060800F7A04002B700400D0E9023253F8221075
S21400609003EB82032DE9F04F5A680F78B2F80080C0
S2140060A09A68C5B0B2F80090DA681B6992F800A04A
S2140060B01E782F4A3B462F490446CDE90089022028
S2140060C00CF00EFBBAF1000F14BF79226E22334695
S2140060D00220294904AD0CF0EFFAFF2200212846E1
S2140060E039F0E7FF304634F021FF834608B300233B
S2140060F0052100932046FD230DF1110235F001FE27
S2140061002870BAF1000F0CBF802340234A46414650
S2140061103846CDE9005635F010FA014614480AF024
S21400612051FC01210220154A02F00EFA45B0BDE8E6
S214006130F08F304634F000FF60B1FD230521204685
S214006140CDF800B00DF1120235F0DBFD85F801B098
S2140061502870D6E7039030460BF09AF8039A034669
S214006160009205212A46204635F0CBFDC9E700BF40
S214006170EB9D0400FC6F04003C700400D3B10400E7
S2140061802DE9FF4700255F681C46DB680395FF1A6C
S214006190A846FFF7DBFDFFB2EBB29F4245D90C9B4A
S2140061A013F80830A3F12102D1B2072925D9A3F1AB
S2140061B0310013280BD8DFE800F0515A637D3838D9
S2140061C038380A0A0A0A0A0A0A0A0A0AAA9008F1C3
S2140061D00108142B5FFA88F825D833B3013B132B3C
S2140061E023D8DFE803F03B444D2722222222222236
S2140061F02222222222223B444D67232A15D8DFE89A
S21400620002F02D363F191414141414141414141414
S21400621014142D363F59141414141414141414148E
S2140062201414866C866C2329E7D9FFF75BFD04B04F
S214006230BDE8F0874FF00409E368A2682B4452F8E3
S21400624023301E68F0B209F1FF39FFF73FFD19F061
S214006250FF094FEA1626F5D101359DE7E368A268E7
S2140062602B4452F823301878FFF730FDF4E7E36844
S214006270A2682B4452F82330188833F014F8EBE762
S214006280E368A2682B4452F823301E68B6F1807F7C
S21400629009D2F0B2FFF71AFDC6F30720FFF716FD86
S2140062A0C6F30740E0E72B4601210820254A02F006
S2140062B04BF9BAE74FF00409E368A2682B4452F89A
S2140062C023301E68F0B209F1FF39FFF7FFFC19F022
S2140062D0FF094FEA1626F5D1BEE7294603AA20464F
S2140062E037F0AFFC0021184E184A3388DDF80C90C2
S2140062F002EB030CCAB2914501F1010102D84B44EE
S2140063003380A9E710F802A00CF802A0F2E70E4EC0
S21400631000213288DFF834A0C2F151039BB2FF2B74
S21400632028BFFF2301320091DBB22046524469B2F7
S21400633035F0C3FC33880AF8030001331844308074
S2140063408AE700BF55700400523700205D3E0020EB
S214006350084B1B781BB1022007490CF0ADB9D0E9F9
S214006360023253F8223002201A88044B04491A805D
S2140063700CF0A2B95C3E00207B7004005037002071
S214006380BD700400D0E9023253F8223002201A7899
S214006390034B003A18BF012202491A700CF08CB960
S2140063A05A3E0020E3700400D0E9023253F822304F
S2140063B002201A78024B03491A700CF07DB900BF10
S2140063C05B3E00201271040010B5D0E9023204468C
S2140063D053F82230132219880B4B1878FFF7B6FCB7
S2140063E0E368A268013352F823301878FFF76EFC92
S2140063F0E368A268023352F823301878FFF766FC89
S214006400BDE81040FFF76EBC583E002010B5D0E93E
S2140064100232044653F82230112219880B4B1878A2
S214006420FFF794FCE368A268013352F8233018782B
S214006430FFF74CFCE368A268023352F82330187862
S214006440FFF744FCBDE81040FFF74CBC583E002068
S214006450D0E9023253F82230034A1B78003B18BFBB
S2140064600123DB0013707047583E002010B5D0E9BA
S214006470023253F82230044619880E4B062218784A
S214006480FFF764FC0120FFF721FCE368A2680344E1
S21400649052F82330188832F006FFE368A268023309
S2140064A052F82330188832F0FEFEBDE81040FFF7A1
S2140064B019BC00BF583E00202DE9F043D0E9023257
S2140064C04FF0FD09013253F8221003EB82035A689D
S2140064D0C7B017889A68B1F80080147853F8043C5F
S2140064E0002C0DF1170506AE18783A460CBF80232F
S2140064F0402341460295CDF80490009635F063F8A7
S214006500024630B1174902200CF0D6F847B0BDE875
S214006510F083201E18BF01200A224146C000FFF764
S21400652015FC384632F0BFFE2878FFF7CFFB4A4608
S2140065303146287834F0A6FC0446024628B10A4FB5
S2140065403D88C5F15203984201DD0849DBE708485B
S21400655031462844254439F05BFD3D80FFF7C2FBF9
S214006560D4E700BF4871040052370020647104006D
S2140065705D3E002010B5D0E90232044653F82230C2
S214006580082219880B4B1878FFF7E0FBE368A2682F
S214006590023352F823301878FFF798FBE368A268B6
S2140065A0013352F82330188832F07DFEBDE81040E3
S2140065B0FFF798BB583E00207FB5D0E9023205466B
S2140065C0023253F8221003EB820353F8042C53F8DC
S2140065D0083C0C781988244B168818780622FFF792
S2140065E0B5FB0020FFF772FB304632F05CFE20461B
S2140065F0FFF76CFBEB68AA68033352F82330188861
S21400660032F051FEEB68AA68043352F8233018883B
S21400661032F049FE20460DF029FAF8B920460AF075
S21400662037FE05210446039003AA284637F009FBE7
S214006630039B01469C4208D0009332462346022024
S2140066400A490CF04DF804B070BD094D09482E8873
S21400665022463044344439F012FD2C8004B0BDE8A4
S2140066607040FFF73FBB00BF583E0020907104000B
S214006670523700205D3E002073B5D0E902324FF459
S2140066808A5153F82230104D1A88104BD9805A8000
S21400669000232A4600930121522335F032FB2B7843
S2140066A0044613F0040F0A4B08BF01261B7818BFD8
S2140066B0032613B10CF0DAFFA855064B1C8002B077
S2140066C0BDE87040FFF70EBB5D3E0020443700205B
S2140066D05A3E002052370020D0E9023253F82230CA
S2140066E0034A1B78003B18BF01231370704700BF96
S2140066F0593E002010B50C4608B90BF029FF024B96
S21400670018715C7110BD00BF4437002002462DE9A9
S214006710F043D0E90253526855F82310D21A0C8879
S214006720434F05EB8301013B022ADBB24868C8BF32
S2140067308A6855F823903B78D8BFFF210078C8BFF9
S214006740117885B033B902203A4905B0BDE8F04368
S2140067500BF0B2BFFFF7CEFF0AF09AF8364EDFF81E
S214006760F88033880146224600933448434635F085
S21400677027F8324D024600283CD199F80410338899
S2140067805F293AD1CDE9003820462B464FF6FF71F7
S21400679034F013F94FF04D08044624B12246022087
S2140067A027490BF089FF35F021F9EB88254913F0CE
S2140067B0200F254B18BF0B460246CDE901430220A9
S2140067C0224B2349CDF800800BF076FF02202149AA
S2140067D00BF072FF0123328802201F490BF0BEFE29
S2140067E002201E490BF068FF00231D4A3B701380F1
S2140067F01C4A137005B0BDE8F0834FF6FB718C425F
S2140068000BD9CDE9003821462B464FF6FF7034F001
S21400681032F94FF042080446BFE72146CDF8008023
S2140068202A4634F05AF94FF055080446B5E700BF3B
S2140068305C3E0020E87104005237002044370020F8
S214006840EF710400DB710400D3B10400167204007B
S2140068501A720400387204005D3E00204E5805008F
S214006860503700205B3E0020002210B50A21044667
S2140068701046FFF76BFA002032F015FD0122044B9C
S2140068801A70FFF72FFA2046BDE81040FFF73EBF0C
S214006890D247002038B51C4615460123224635F05F
S2140068A04FFA28B92146284635F099FC044610B917
S2140068B00024204638BD022001490BF0FDFEF8E713
S2140068C0457204002DE9F0430C4615461F46D0E9F4
S2140068D0022352F8231002EB830293680E8893F883
S2140068E00080D3688BB0B3F800903246012106AB27
S2140068F0FFF7D0FFE0B90DF1200CE4B101232A88A0
S2140069004021CDE902C2CDE90471CDE900932221F0
S214006910434606AA304635F04AFA0A490A4A009023
S214006920002C08BF0A460220084B09490BF0C4FE9B
S2140069300BB0BDE8F083624628686968032303C28B
S2140069402246DDE783720400AE5805008B72040011
S2140069509572040007B501236A46002135F0F0F968
S214006960684603490CF0C0FB03B05DF804FB00BFAB
S214006970DD540000D0E9023253F82230014918886D
S2140069800CF084BBDD54000008B5D0E9023203EBFE
S2140069908201496853F8223009784FF48A521888E1
S2140069A035F0F5F9BDE808400246024902200BF032
S2140069B083BE00BFA872040008B5D0E9023253F8BF
S2140069C0223002214FF48A52188835F0D2F9BDE8F9
S2140069D008400246014902200BF06EBEC172040058
S2140069E01FB5D0E9023203EB820153F82230496822
S2140069F018884FF48A5309880293094B094A019371
S214006A00094B1B7800931278084B35F028FA02469B
S214006A100220074905B05DF804EB0BF04DBE00BF41
S214006A2054370020B03E0020AF3E00205E370020E6
S214006A30D87204002DE9F043D0E9023253F8221050
S214006A4003EB82035A680E8817789A68DB688BB067
S214006A5092F80090B3F800803246042106AB044654
S214006A60FFF718FF18BB08AD01232A46052120466C
S214006A7035F066F930B902200E490BF01DFE2846A7
S214006A8034F0D7F94FF48A53CDE904930023CDE9C7
S214006A90025303232121CDE9008306AA3B46304654
S214006AA035F085F90449024602200BF005FE0BB0CE
S214006AB0BDE8F083F07204001F73040038B5D0E917
S214006AC0024303F18043023B02220F4954F823009D
S214006AD09D0039F0C4FA60B90C4B0D491A78042AA7
S214006AE00BD82C44A068008821F8120001321A70D6
S214006AF038BD084B08491A78F1E70220BDE838404F
S214006B0006490BF0D9BD00BF96C50400B03E002074
S214006B105E370020AF3E002054370020317304005B
S214006B2008B5C368806803F18043023B0222064929
S214006B3050F8230039F093FA10B9044B187008BDCA
S214006B400022034B1A70FAE796C50400B03E0020F8
S214006B50AF3E002070B5D0E9023153F821208C00FA
S214006B6015784268521A012A0FDD23445B682946CD
S214006B701C78204635F034F8C8B12B462246BDE8CE
S214006B807040022012490BF097BD6C0944F01804BF
S214006B9005F01F052946204635F022F80028ECD1DE
S214006BA00121A9400023FE2241EAC46105E001213B
S214006BB0A940002CF4D12346FE224FF6FF7035F094
S214006BC03CFBBDE870400246024902200BF074BD53
S214006BD0477304006773040070B5D0E9021551F8D6
S214006BE0253001EB8501044618884B681A788B68B7
S214006BF0052A1B8802D85E1E072E09D902200C49DA
S214006C000BF05AFDBDE8704002200A490BF054BD57
S214006C106468641B032CCABFC9680749096835F055
S214006C200CFBBDE870400246044902200BF058BD3C
S214006C3085730400A573040000F8FF07C273040000
S214006C4008B5D0E9023253F8220003EB82035968F4
S214006C50FF22038809684FF6FF7035F0EEFABDE8AC
S214006C6008400246014902200BF03ABDD5730400E5
S214006C7008B5D0E9023253F82230052140221888A0
S214006C8035F077F8BDE808400246024902200BF0CE
S214006C9027BD00BFF673040008B5D0E9023203EB47
S214006CA08201486853F82210027840230988312070
S214006CB035F0B2F8BDE808400246024902200BF063
S214006CC00FBD00BF1774040008B5D0E9023203EB0D
S214006CD08201486853F8221002784023098833203E
S214006CE035F09AF8BDE808400246024902200BF04B
S214006CF0F7BC00BF3174040013B5D0E9023253F874
S214006D00221003EB82039B680C881A786B46003AC5
S214006D1018BF01220849D2010868496803C36946BA
S214006D204023204635F087F8044A034604490220EB
S214006D300BF0C2FC02B010BDBE7404008B720400DF
S214006D404F740400D0E9023253F822300321402267
S214006D5010B5188835F00DF8BDE810400346024A15
S214006D60022002490BF0A8BC8B7204005E7404007B
S214006D7037B5C3688268053352F8233004211D787E
S214006D806A460123044634F0DBFF30B90220074987
S214006D900BF092FC684634F04CF82B466A4600210D
S214006DA02046FFF78FFD03B030BD00BF78740400A7
S214006DB010B5D0E9023203EB8201486853F822107E
S214006DC0027840230988322035F026F8BDE81040C6
S214006DD00346024A022002490BF06EBC8B72040086
S214006DE0A9740400836970B513F00106044603F025
S214006DF0020509D1EDB9C3695BB31FF069FD2046F2
S214006E00E369BDE8704018471DB1B6211A483CF04A
S214006E10ABFFA069C0F3810034F05DFDE3691BB9E8
S214006E20BE2115483CF0A0FF20461FF051FD4DB98D
S214006E3016E0C3F3072034F05FFDE369B3B12046E4
S214006E401FF046FDE369607E9847BDE8704034F069
S214006E5047BD0948BE213CF087FF20461FF038FD9D
S214006E602046E3699847002EEFD170BDBE21024848
S214006E703CF07AFFE3E700BFC674040008B520F0D4
S214006E80BDF928B1BDE80840472102483CF06CBF78
S214006E9008BD00BFC67404002DE9F84FFF2B04465A
S214006EA0884691461D464FF000069DF82870DFF88C
S214006EB05CB0DFF85CA012D1C0E900BAC0E9066297
S214006EC006618660C160FF2F07D0A36943F0020306
S214006ED023F47F4343EA0723A361BDE8F88FFF2F1F
S214006EE003D0D92108483CF03FFFAD0045F001052E
S214006EF0EDB2C4E900BA2661A660C4F81C90C4F8D6
S214006F000C80A561DFE700BFC6740400D014002023
S214006F10E56D0000002310B5054C03610460054CC8
S214006F20C261C0E901430123C160836110BD00BF97
S214006F30D0140020E56D0000826938B502F0020327
S214006F40D20704460D4623D55BB9FF2924D1A36991
S214006F5013F00C0F1AD040F20F1112483CF004FF49
S214006F6014E04FF480710F483CF0FEFEFF2DEED08B
S214006F70284634F02AF9FF28054604D14FF48471D8
S214006F8008483CF0F1FE2DB204EB4514204638BD0F
S214006F90FF29FBD0002BEBD140F2051101483CF055
S214006FA0E3FEE5E7C67404000023054AC0E906319F
S214006FB003610260C360034A034B4260836070470C
S214006FC0D0140020E56D00009D68020001483AF0EC
S214006FD0A2BB00BFD014002001483AF0A8BB00BFF7
S214006FE0D014002013B516483AF06FFB14F01EFEBE
S214006FF038F046FF38F065FF38F072FF0DF00EF9F6
S21400700004460DF025F923460E4A0121009004207F
S21400701001F09AFA0DF008F9012340F2A1728340BC
S21400702013420BD000200DF00BF800200CF00AFFE6
S214007030002002B0BDE810400CF0D0BE02B010BD7B
S214007040D014002051750400022808B503D13EF084
S2140070505EFE014B186008BD0015002008B516F04E
S21400706013FE0122044B1A703EF027FEBDE80840CE
S2140070700249034813F034B9B23E0020B84B002052
S21400708004150020014B1870704700BFB13E002069
S214007090024B187808B109F0DFBB70472252002077
S2140070A008B5074B1B780BB1002008BDFFF7F0FFB3
S2140070B00028F9D10AF000F8023818BF0120F4E7DA
S2140070C0B13E002070B5FFF7EBFF174D20B1FFF77C
S2140070D07DFF0428044613D82B781BB93EF0EDFD3F
S2140070E001232B7032F07DF90446D8B12B781BB9FA
S2140070F0F7210E483CF038FEBDE87040FFF766BF4B
S21400710032F071F90028E7D02B785BB13EF04FFEE5
S2140071100646002101203DF017F830463EF042FEBC
S21400712000232B70204670BDB23E0020727504000E
S2140071301FB5FFF7C7FF044613F012FAA04228BF98
S214007140204688B103A93DF021FC034638B9CDE9B5
S2140071500000064A039906483FF004F818B18E214D
S21400716004483CF001FE012004B010BDE19303008A
S214007170E01400207275040038B50C4B0C4D1A78DC
S2140071800C4C0220002A0CBF2A4622460A490BF065
S21400719093FA0A4B02201A780949002A0CBF2A469D
S2140071A02246BDE838400BF087BA00BF22520020C6
S2140071B0047604000076040007760400B13E002042
S2140071C02676040010B5D0E9023253F822300220A9
S2140071D01B78002B15BF01240024044904490BF03A
S2140071E06BFA2046BDE81040FFF74CBF457604001A
S2140071F062760400D0E9023253F82230034A1B7844
S214007200003B18BF01231370704700BF22520020B6
S21400721038B50125084B1D703EF0C9FD04462946C9
S21400722028463CF091FF20463EF0BCFDBDE83840C5
S2140072300249034813F054B8B33E0020C04B002068
S2140072402C15002070B520F061F810F0070F1D4DCA
S21400725011D02B785BB901262E703EF0A8FD0446AF
S214007260314630463CF070FF20463EF09BFDBDE8C0
S21400727070401FF085BC34F0B6FF0228E9D1124CEE
S2140072802378032BE5D920F041F810B92378032B97
S21400729014D81FF075FC04460028DAD02B785BB1B2
S2140072A000262E703EF083FD0546314601203CF058
S2140072B04BFF28463EF076FD204670BD4FF0FF346B
S2140072C0ECE700BFB33E00202E4800201FB5FFF7B6
S2140072D0B9FF044613F044F9A04228BF204688B1FF
S2140072E003A93DF053FB034638B9CDE90000064A32
S2140072F0039906483EF036FF18B18D2104483CF04D
S21400730033FD012004B010BD819A03000C15002047
S2140073108176040010B5094C094900200BF0CCF921
S21400732023681B68587933F083FF23681B685879F5
S21400733032F0AFFB05F042FD002010BDA41A00207D
S2140073400777040008B5FF21064832F028F8FF2129
S214007350054832F024F8BDE80840FF21034832F023
S2140073601EB800BF741500205415002034150020E8
S2140073707FB50D4606210646144633F044FF08B393
S21400738001230F2200934FF4407130460DF10E0397
S21400739034F027F9024630B1002015490BF08CF97D
S2140073A000238DF80E30012300220093062130467C
S2140073B00DF10F0334F015F9024630B100200D49E7
S2140073C00BF07AF9012004B070BD9DF80F30002B49
S2140073D0F8D1FF2D06D1FF2C06D19DF80E0000F047
S2140073E00100F0E7EB07F8D504F00100EBE700BF7B
S2140073F02A770400537704001FB52123ADF80E103A
S214007400009302224FF440710DF10E0334F0B7F8EA
S21400741018B1FF2102483CF0A7FC05B05DF804FB5C
S2140074207A7704007FB5234C2046A67B32F07CFB9F
S2140074300546214832F078FB0DB9002834D0FFF716
S21400744081FF63880322ADF80E30212300934FF4AA
S2140074504071A07B0DF10E0334F091F820B14FF48B
S214007460977116483CF080FC134D04226B884FF44D
S2140074704071ADF80E3021230093A07B0DF10E0372
S21400748034F07DF820B14FF49C710C483CF06CFC55
S21400749000206B8862880A490BF00EF9304604B06B
S2140074A0BDE8704032F000BB6422FF21054831F091
S2140074B065FFC6E798370020883700207A770400F3
S2140074C0177804005415002030B5164C85B02046B9
S2140074D0A57B32F029FBF8B1FFF734FF638807225B
S2140074E0ADF80E30212300934FF44071A07B0DF1D0
S2140074F00E0334F044F820B14FF4A1710A483CF072
S21400750033FC0020628809490BF0D6F8284605B0FF
S214007510BDE8304032F0C9BA6422FF21044831F099
S2140075202DFFDBE7783700207A7704002D780400FB
S214007530741500201FB50123002200934FF44071FC
S2140075400DF10F0334F04DF820B140F286310448B7
S2140075503CF00AFC9DF80F0005B05DF804FB00BF88
S2140075607A7704001FB50123082200934FF4407178
S2140075700DF10F0334F035F818B1982103483CF0AC
S214007580F3FB9DF80F0005B05DF804FB7A77040066
S2140075907FB50E460546FFF7E5FFB042044644D0E9
S2140075A0202344F2010200934FF4407128460DF167
S2140075B00F038DF80F6033F0E2FF20B140F209119F
S2140075C01B483CF0D1FB2023082200934FF4407167
S2140075D028460DF10F0333F0D2FF20B14FF4887127
S2140075E013483CF0C1FB04EB0613DBB2122B16D09B
S2140075F00BD8022B13D0102B0BD0012B15D12846FD
S21400760004B0BDE8704032F04FBA202B01D0212BD9
S214007610F4E7284604B0BDE8704032F044BA284685
S21400762004B0BDE8704032F040BA04B070BD00BF90
S2140076307A7704001FB501224FF4407100920DF1D5
S2140076400F0333F0CEFF20B14FF4657103483CF0D2
S2140076508BFB9DF80F0005B05DF804FB7A770400FD
S21400766070B50026074D0446AE80FFF763FF2C7208
S2140076706870054D2046EE80FFF7DCFFAC7368802F
S21400768070BD00BFA8370020683700201FB5022352
S214007690032200934FF440710DF10E0333F0A1FF67
S2140076A020B140F28E4104483CF05EFBBDF80E006F
S2140076B005B05DF804FB00BF7A7704001FB502230F
S2140076C0042200934FF440710DF10E0333F089FF4E
S2140076D020B140F29C4104483CF046FBBDF80E0049
S2140076E005B05DF804FB00BF7A7704001FB50223DF
S2140076F0072200934FF440710DF10E0333F071FF33
S21400770018B1A62103483CF02FFBBDF80E0005B0CB
S2140077105DF804FB7A7704002DE9F84391460546A8
S2140077200C4632F0D8F90746284632F0E8F9B9F1A7
S214007730010F064638BF4FF00109FFF703FE02218E
S2140077402846FFF725FFBC4238BF3C46A4B2B442E9
S214007750284628BF3446FFF7C9FFDFF83C80A4B2AE
S214007760A8F800002846FFF7C1FF88F80E50A8F8D2
S2140077700200A8F80440A8F80690A8F80890A8F810
S2140077800A70A8F80C606422BDE8F843FF2101489F
S21400779031F0F4BD74150020783700207FB5534CC7
S2140077A0A188257A31B30139A37A89B2A18013B9A9
S2140077B02846FFF721FEA37862789A4217D0617AAE
S2140077C018462278002950D093422CBF194603F160
S2140077D0FE01891AA288C9B24A43E188B2FBF1F2D7
S2140077E0D2B2934238BF03F1FE00801A6070A288BE
S2140077F0002A4DD03E4832F097F9002870D0FFF7A7
S214007800A1FD637800228DF80F30202300934FF4FB
S2140078104071207A0DF10F0333F0B1FE20B14FF422
S2140078208D7134483CF0A0FA314E012273884FF433
S21400783040718DF80F3020230093B07B0DF10F03BD
S21400784033F09DFE20B14FF492712A483CF08CFA3A
S214007850009500207388627827490AF02DFF284695
S21400786004B0BDE8704032F01EB9934284BFFE32C9
S21400787092B2D21AD1B2A2884A43E188B2FBF1F2A0
S21400788053FA82F2FE2A84BFFE3A92B26270AEE7E4
S214007890A27A0AB3607A1A46217888B18B422CBF46
S2140078A01A4603F1FE02521A53FA82F2FE2A01D950
S2140078B0FE3A92B223700A23D2B2A270A38099E74E
S2140078C08B4284BFFE3189B2C91AC9B28B4238BF17
S2140078D003F1FE02521AEDE7054832F025F98EE76D
S2140078E06422FF21054831F049FD8AE7A8370020C9
S2140078F0683700207A7704004278040034150020A8
S21400790013B5FF24002123460A4A0B480094FFF7CC
S214007910C3FA23460021094A09480094FFF7BCFA37
S21400792023460021074A08480094FFF7B5FA02B03C
S21400793010BD00BFC9740000741500202574000037
S214007940541500209D77000034150020354B2DE996
S214007950F7431B6806461B685C792046FFF7EAFD7E
S21400796069460546304614F02FFE002858D19DF88B
S21400797000909DF80180B9F1FF0F51D0B8F1FF0FCC
S2140079804ED020469DF805209DF80410BDF80260F4
S214007990FFF7EEFC18B9002003B0BDE8F0834D45B4
S2140079A037D2A9EB05077E2FCCBF00270127012E73
S2140079B038BF0126FFF7C6FC00212046FFF7E8FD8A
S2140079C02046FFF74DFE184B20465F7200271D70BD
S2140079D05D7083F802909E80DE801C729F72FFF7B7
S2140079E029FE124D28802046FFF724FEFE2331464E
S2140079F068802046A5F80480EE802E81AC736F81E7
S214007A00AB81FFF7F9FC6422FF21094831F0B6FC90
S214007A10C1E7A5EB09077F2FD4BF00270127C6E7DC
S214007A208020B9E7A41A0020A83700206837002075
S214007A30341500202DE9F341304B01A91B681B6863
S214007A405C7914F007FD054618B1802002B0BDE849
S214007A50F08120469DF807209DF806109DF80480CA
S214007A609DF80570FFF784FC0646002836D0FFF721
S214007A7069FCB8F1000F31D029462046FFF788FD93
S214007A802046FFF7EDFD2046FFF754FD1C4D2870FD
S214007A902046FFF74FFDB8F1010F687020D1204651
S214007AA0FFF748FD3B189BB2FE2B84BFFE3B9BB204
S214007AB0DBB2AB700A23AB80EB8001234FF6FF717D
S214007AC02046AB726E722C72FFF796FC00220D4BAE
S214007AD0FF21DA800C48642231F050FC0020B5E724
S214007AE0B8F1030FB1D12046FFF724FDB8423CBFE2
S214007AF0FE3080B2C31B0026DBB2DAE7A41A0020F1
S214007B00A837002068370020341500202DE9F341FF
S214007B10264B01A91B681B685D7914F0A1FC06467C
S214007B20002840D128469DF807209DF806109DF8AD
S214007B3004809DF80570FFF71BFC80B3FFF702FC7E
S214007B40B8F1000F2BD057B331462846FFF720FD7B
S214007B502846FFF785FD164B28469E80FFF76AFDF0
S214007B60144C20802846FFF765FDB8F1010F14BFBE
S214007B700023FE23394660802046A38031F096FF1E
S214007B80FE230146E08020812846A5736681A381F6
S214007B90FFF732FC6422FF21074831F0EFFB00209C
S214007BA002B0BDE8F0818020FAE700BFA41A0020EA
S214007BB0A837002068370020341500202DE9F3414F
S214007BC0324B69461B681B685D7914F0DFFC0028A1
S214007BD059D128469DF805209DF804109DF80070A0
S214007BE09DF80140BDF80280FFF7C2FB18B90020DF
S214007BF002B0BDE8F0812846FFF79CFCFF2F42D07C
S214007C00032C40D8DFE804F0323902030124B8F12F
S214007C10010F38BF4FF00108FFF794FB00212846FC
S214007C20FFF7B6FC2846FFF71BFD2846FFF782FC49
S214007C30174E30702846FFF77DFC631E5C425C41A1
S214007C400023144A414670702846D380B770A6F8C1
S214007C500480A6F8068035727472B372FFF7CCFB08
S214007C606422FF210C4831F089FBC0E7C01B10F0EE
S214007C70800F0CBF03240124C9E7C01B10F0800F3F
S214007C8018BF0324C3E78020B2E700BFA41A002071
S214007C90A837002068370020341500202DE9F3416E
S214007CA0234B69461B681B685D7914F081FC064609
S214007CB018B1802002B0BDE8F08128469DF8052066
S214007CC09DF804109DF80080BDF80270FFF750FB89
S214007CD008B90020EEE7012F38BF0127B8F1FF0FE3
S214007CE0E7D0FFF72FFB31462846FFF751FC284622
S214007CF0FFF7B6FC0F4B28469E80FFF79BFC0E4C0A
S214007D0020802846FFF796FCFE23394660802846EA
S214007D10A4F80480E7802781A5736681A381FFF716
S214007D206BFB6422FF21054831F028FBD1E700BF3A
S214007D30A41A0020A8370020683700203415002039
S214007D402DE9F3472E4B69461B681B685C7914F0D7
S214007D5099FB8046002851D120469DF804209DF8C6
S214007D6003109DF800A09DF801909DF80250FFF7C3
S214007D70FFFA0746002833D02046FFF7DBFB06460F
S214007D80FFF7E0FABAF1000F2AD041462046FFF787
S214007D90FFFB2046FFF764FCBAF1010F334623D100
S214007DA006EB09039BB2FE2B84BFFE3B9BB2DBB205
S214007DB0144A012D2946937038BF01210023D18033
S214007DC09180167056705772147293720E4A20463F
S214007DD0D380FFF711FB6422FF210C4831F0CEFA66
S214007DE0002002B0BDE8F087B14584BF06F1FE036F
S214007DF09BB2A3EB09030027DBB2D9E78120F0E7AB
S214007E00A41A0020A8370020683700203415002068
S214007E102DE9F743294B69461B681B685F7914F008
S214007E2037FB0446002846D19DF802803846414676
S214007E309DF804209DF800909DF80160FFF798FAE1
S214007E4080B33846FFF7F6FB0546FFF77BFAB9F135
S214007E50000F27D021463846FFF79AFB3846FFF733
S214007E60FFFBB9F1010F21D12E44B4B2FE2C28BF7E
S214007E70FE2400224146124B01299A80114B38BF3E
S214007E8001215A81FE223846D98019819A811D80A7
S214007E905D809C809F73FFF7AFFA6422FF210A483B
S214007EA031F06CFA002003B0BDE8F083AE429CBF10
S214007EB0AE1BF4B2DDE78020F5E700BFA41A002071
S214007EC0A837002068370020341500202DE9F74336
S214007ED02A4B69461B681B685C7914F01BFB074637
S214007EE0002848D120469DF807209DF80610BDF8CA
S214007EF00080BDF80290BDF80460FFF739FA00284C
S214007F0035D0012E38BF0126FFF71CFA0121204686
S214007F10FFF73EFB2046FFF7B9FB194D28802046A9
S214007F20FFF7B4FBA5F804804FF6FF68688020468C
S214007F30EE802E81AC736F81A5F80C80FFF7BEFB38
S214007F40104D28802046FFF7B9FB31466880204652
S214007F50A5F80490EE802E81AC736F81A5F80C8096
S214007F60FFF74AFA6422FF21074831F007FA00209B
S214007F7003B0BDE8F0838020FAE700BFA41A002013
S214007F809837002088370020541500202DE9F34745
S214007F90324B69461B681B685D7914F07FFA07460A
S214007FA0002858D128469DF805209DF80410BDF9F4
S214007FB00090BDF902A0FFF7DBF9002847D0FFF7D5
S214007FC0C1F959EA0A0342D04FF6FF680121284654
S214007FD0FFF7DEFA1FFA89F92846FFF757FBB9F1D3
S214007FE0000F0CBF002343461D4C4946208060808E
S214007FF02046A38031F05AFD1FFA8AFA0646E08032
S21400800020812846A5736781A4F80C80FFF756FBED
S214008010BAF1000F0CBF00234346124C5146208095
S21400802060802046A38031F041FD86420146E08014
S21400803038BF314620812846A5736781A4F80C8096
S214008040FFF7DAF96422FF21074831F097F900209C
S21400805002B0BDE8F0878020FAE700BFA41A00202F
S2140080609837002088370020541500202DE9F74364
S214008070394B69461B681B685C7914F015FA07468D
S214008080002867D120469DF807209DF80610BDF908
S2140080900080BDF90250BDF80460FFF769F90028BA
S2140080A04FD02046FFF7F2FA10EB080305D4B3F5DD
S2140080B07F4FACBF4FF6FF679FB22046FFF7FEFA32
S2140080C0451942D4B5F57F4F41DAADB2012E38BF1F
S2140080D00126FFF737F901212046FFF759FA204617
S2140080E0FFF7D4FAB0461D4E4FF000093080204608
S2140080F0FFF7CCFAB7804FF6FF6770802046A6F8E9
S2140081000680A6F80880B473A6F80A90B781FFF731
S214008110D5FA134E30802046FFF7D0FA41467080DD
S2140081202046B580A6F80680A6F80880B473A6F8A0
S2140081300A90B781FFF760F96422FF21094831F001
S2140081401DF9002003B0BDE8F0830025BEE74FF61A
S214008150FF65BBE78020F5E7A41A002098370020CB
S214008160883700205415002073B50F4B69461B68EE
S2140081701B685C7914F0C8F998B920469DF805206C
S2140081809DF80410BDF80050BDF80260FFF7F0F847
S21400819020B1324629462046FFF7BEFA002002B03C
S2140081A070BD8020FBE700BFA41A00202DE9F04F29
S2140081B0354B85B01B6801A91B685D7914F032F950
S2140081C000285CD128469DF80D209DF80C109DF8DF
S2140081D004B0BDF80690BDF80880BDF80A70FFF739
S2140081E0C7F8002842D0284631F075FC04462846D9
S2140081F031F085FC8246FFF7A5F8BBF1000F35D0BD
S214008200B9F1000F3DD0A0454FF0020138BFA0469F
S2140082102846574528BF5746FFF7BAF92846FFF7BE
S21400822065FA1A4E1FFA88F830802846FFF75EFA7D
S214008230BBF1010FBFB21DD1BA4528BFBA461FFA1F
S2140082408AF4494670801148B48031F02FFC01460C
S214008250F08030812846B573A6F80A80B781FFF70C
S214008260CBF86422FF210A4831F088F8002005B0D8
S214008270BDE8F08F444538BF4446A4B2E1E780200D
S214008280F5E78520F3E700BFA41A00207837002022
S214008290741500202DE9F04F374B85B01B6801A9F7
S2140082A01B685C7914F0C4F8002862D120469DF85B
S2140082B00F209DF80E109DF804A0BDF80690BDF89E
S2140082C00850BDF80A70BDF80C60FFF751F800289A
S2140082D046D0204631F0FFFB8346204631F00FFCA7
S2140082E08046FFF72FF8BAF1000F39D05F454FF000
S2140082F0020138BF5F462046464528BF4646FFF780
S21400830047F92046FFF7F2F9DFF87480BFB2A8F805
S21400831000002046FFF7EAF9BAF1010FA8F80200BC
S214008320B6B2204620D1FFF7E1F900EB0903012D94
S214008330294638BF012120469BB2A8F80610A8F8A7
S2140083400810A8F8043088F80E40A8F80A70A8F8B4
S2140083500C60FFF751F86422FF21084831F00EF850
S214008360002005B0BDE8F08FFFF7C0F9A0EB0903C9
S214008370DDE78020F5E700BFA41A00207415002072
S2140083807837002008B533F012FF024628B1BDE862
S2140083900840002001490AF08FB908BD6378040040
S2140083A008B533F026FF024628B1BDE80840002095
S2140083B004490AF081B95422BDE80840FF2102486A
S2140083C037F077BE7B780400B437002038B5044613
S2140083D00D4633F012FF024628B1BDE838400020B3
S2140083E003490AF069B9034B23F8145038BD00BF9F
S2140083F099780400B43700202DE9F34100240C4E90
S2140084000C4DDFF838800C4F56F8043B0BB9D8F803
S214008410003035F8022B39460092022022460134FD
S2140084200AF04AF92A2CEFD102B0BDE8F08100BF6D
S214008430CC4B002008380020B5780400C84B00203C
S21400844008B52A21034833F0D0FEBDE80840FFF700
S214008450D3BF00BF0838002007B5D0E9023253F872
S21400846022301A78292A0DD8084B53F822300BB937
S214008470074B1B680749022031F812100091064985
S2140084800AF01AF903B05DF804FB00BFCC4B0020DD
S214008490C84B002008380020B578040008B52A210B
S2140084A0034833F0A4FEBDE80840FFF7A5BF00BFB1
S2140084B00838002038B5D0E9023253F8221003EB12
S2140084C082035B680C781D88022004490AF0F4F8E1
S2140084D029462046BDE83840FFF778BFC07804003C
S2140084E02DE9F34100240C4E0C4DDFF838800C4F7C
S2140084F056F8043B0BB9D8F8003035F8022B39464D
S21400850000920220224601340AF0D6F82A2CEFD137
S21400851002B0BDE8F08100BFCC4B0020B43700208D
S214008520B5780400C84B002010B5024631F001FCB7
S21400853020B9044C236811B11343236010BD23EA0D
S2140085400203FAE7784C00200CB413B502460C463A
S21400855031F0EFFB60B9094B1B681A4208D005A939
S2140085600498019112F040FE14B1054836F034FE2E
S21400857002B0BDE8104002B0704700BF784C002043
S214008580BF7B0400034610B5D3E9023253F822300D
S21400859008461C78211E18BF0121FFF7C5FF0146BB
S2140085A048B9084A084B0220002C08BF1346074A61
S2140085B0FFF7CAFF10BD00210220054AFFF7C4FFDF
S2140085C0F8E700BF09A90400F4A80400C17B040072
S2140085D0D77B04001FB5B42303210446ADF80E3044
S2140085E032F011FE98B12123204600930022032189
S2140085F00DF10E0332F0C3FF04460020054B064A79
S214008600064900940AF058F8204604B010BD8624A7
S214008610F3E700BFE87B0400F57B04000A7C040057
S2140086202DE9F74F4FF0000802203F490AF058F8AE
S2140086304646DFF818B1DFF818919BF800305FFA6D
S21400864088F7BB4208D8B3426AD10220374903B044
S214008650BDE8F04F0AF030B838461BF0C9FE0028D7
S2140086605BD048257D4309EB0504A3683A46019391
S214008670A37D0220009363682D490AF031F84FF07D
S214008680000A94F82C00FF2835D1022029490AF068
S21400869027F8022028490AF023F8BAF1060F04F159
S2140086A00C0425D1022024490AF01AF810241B35A0
S2140086B0DFF888A04D445146022015F8012F013CF2
S2140086C00AF00EF814F0FF04F5D102201A490AF059
S2140086D007F8482303FB0793022018499A6909F014
S2140086E0FFFF0220164909F0FBFF08F10108A4E786
S2140086F04FF0060AC5E7022804D1E28D114909F0B9
S214008700EFFFC6E70328C4D102200F4909F0E8FFAF
S21400871004F12E0009F040FFBBE70136F6B2E4E7AD
S21400872003B0BDE8F08F00BF197C04005C7C040039
S214008730277C0400497C0400746C0400A16F0400CC
S2140087408AC60400507C0400587C04005652002060
S214008750881B002038B5134C237ADA071BD513F094
S21400876004050CD023F00403237231F0B5FBBDE8FA
S214008770384041F28832FF210B4830F0FFBD08F048
S21400878049FB0A490246284609F096FF33F0D7FC13
S214008790257231F0BCFBBDE83840FF21024830F0BE
S2140087A0FEBD00BF5C380020941500206D7C0400E0
S2140087B0002008B5044B0549DA88187009F07CFFDC
S2140087C0BDE8084031F0A3BB5C3800207F7C040085
S2140087D008B5FFF7EDFFBDE80840FF21014830F07F
S2140087E0DEBD00BFB41500202DE9F04F437B91B0ED
S2140087F00093061D04464268017B3346304631F03E
S214008800C7FC002800F09680257B1DB96368002B06
S21400881000F09080A37C002B40F08C80E27C2178D6
S214008820D30701F0FB0148BF45F008050329277C64
S214008830627C4AD1003A18BF012245EA022545F477
S214008840007545EA0715ADB245F400630B936368FF
S214008850DFF8E8B00E93637BA5780C93636994F811
S21400886018800D939BF8053094F8219004F1220AA5
S2140088700F936BB333F0A5FCE2690D9B0892627808
S2140088800E99CDE90602CDE901733246CDE9049A88
S2140088900C9B0B98CDF80C80009500F05BFE002832
S2140088A048D009F0E1FD4FF2F22383806178E07C46
S2140088B031F02EFC0020BBF8061032F051FF0020ED
S2140088C011B0BDE8F04F23F0D9BC45EA8215B8E7F1
S2140088D033F077FCE2690D9B089262780E99CDE939
S2140088E00602CDE901733246CDE9049A0C9B0B983B
S2140088F0CDF80C80009500F02DFED8B109F0B4FD3F
S2140089004FF2F2238380A3780C3B8372C38843F034
S2140089100203C3806178E07C31F0FAFB304638F021
S21400892079FBA27801460C3AD2B24FF6FD7032F0CF
S2140089301AFFC4E711B0BDE8F08F00BF5C38002016
S21400894030B50128044685B013D002281DD070B972
S214008950FF2501462B46134A13480095FEF79CFA5E
S2140089602B462146114A12480095FEF795FA05B0A7
S21400897030BD00210F4C60220F48216061602181CC
S21400898037F097FBA0236380F1E705238DF80F30BF
S21400899020231022009321210DF10F03F22032F044
S2140089A0DDFDE4E7D1870000B41500205587000000
S2140089B0941500205C380020D41500202DE9F041E5
S2140089C005460F46164600F001041BB1C4B9FFF772
S2140089D0EFFE36E01C4B1B681B685B79F22B30D130
S2140089E0DFF8688098F800302BB108F065F8B8F822
S2140089F00630834225D1002CE9D008F05DF801E06E
S214008A0033F0DFFB0123114C02462370A023638062
S214008A10C5F342030E49E08063700020C5F340139F
S214008A20637109F049FE6378FF21DA074ABF4FF405
S214008A307A72084A7A43084830F0A0FCEB0600D564
S214008A4026710020BDE8F081A41A00205C380020C2
S214008A50977C040000710200B415002070B598B031
S214008A600AA9054637F007F8002878D10A9C3D4B3E
S214008A7004F007062340082B9DF8383008BF8DF811
S214008A805E002D79314600930B9A0CAB07A831F0A7
S214008A907FFB18B96FF0FF0018B070BD16B90B9BBE
S214008AA0002BF7D00020304909F01AFE2F4B1B6828
S214008AB01B685B79F22B41D1C4F34123012B3DD0D7
S214008AC00A9B03F01802182A38D0C4F3C222053ACB
S214008AD0012A33D914F0600FC4F3411607D1D90622
S214008AE005D4042DD6D0852032F0A8FF26E0BDF8A8
S214008AF0422000201E490092079A09F0DDFD9DF8ED
S214008B005E3032460593129B0A98049313AB039388
S214008B100DF139030293BDF85C3007A90193BDF847
S214008B2044300093BDF8423033F077FA044638B14B
S214008B30104B5B789A0701D5FFF73AFE0020ABE7AB
S214008B400A9B1B07FAD51BF089FCFF28F6D12046A6
S214008B50094909F0B1FD042DF0D08920C4E7812031
S214008B609AE700BF08000200B07C0400A41A0020A8
S214008B70BC7C04005C380020E97C040030B58FB073
S214008B8007A937F0D1F8002840F08C80604B9DF89C
S214008B901C501B681B685B79F22B40F083809DF8A5
S214008BA031205C4909F088FD9DF8303005F0070556
S214008BB000932946099A0AAB04A831F0E9FA30B1C5
S214008BC09DF8314035B9099D25B9F32C27D06FF0B3
S214008BD0FF0557E0F32CFAD0F02C79D1BDF81E50E3
S214008BE033F0EFFA854264D1002500204A4A4B490B
S214008BF009F062FD0D9BCDE902555A1C01921B78C7
S214008C0004AA009329462346012033F015FA0246AB
S214008C10002849D10020424909F04EFD42E0BDF847
S214008C201E4033F0CEFA844239D1FF213D4830F061
S214008C30BDFB3D4C10B1237A990733D531F04CF982
S214008C40237A43F00103237208F0E4F89DF820200D
S214008C500B32904219D00020344909F02DFD012135
S214008C609DF8203000220B339940032033F065FA3C
S214008C70237A03F0FD0341F28832FF21294823724C
S214008C8030F07CFB28460FB030BD237A9A0744BFED
S214008C9043F004032372237A43F00203EBE72148F0
S214008CA0FFF758FD8125EDE72846214909F004FD28
S214008CB0F8E700201F4909F0FFFC002304AA194624
S214008CC01846CDE90233CDE9003333F0B5F9E9E7CC
S214008CD0F62C03D85034E4B20F2CE3D8002400203E
S214008CE0154A0E4909F0E8FC0D9BCDE902445A1CD2
S214008CF001921B7804AA0093214601209DF831308A
S214008D0033F09AF90246002884D020460849CDE779
S214008D10A41A0020FE7C0400F76B0400277D0400E4
S214008D203D7D0400941500205C380020127D040070
S214008D30457D04004F7D04005B7D04002DE9F04373
S214008D40B1B004A936F0A5FF002840F0BA805F4B0A
S214008D501B681F79002F40F0B6801B689DF81040F6
S214008D605B79F22B40F0AD803E46B84609A95FFA23
S214008D7088F033F04EF90546002840F0A2809DF8B2
S214008D80243008F10108FF2B1CBF0136F6B2B8F1FB
S214008D90050FEBD114F0180FC4F3C10349D19DF8A9
S214008DA0203004F0070400932146059A06AB1BA862
S214008DB031F0EEF910B17CB9059B6BB9FF230021A9
S214008DC0CDE9023101968B2300930B222121404BE3
S214008DD0112009F0BDFA26E01BA833F01CF9FF2885
S214008DE0044603D10023CDE90203EBE7FF2301226B
S214008DF0CDE902320023212100930B221120344BAF
S214008E00019609F0A5FA204609A933F002F90028D0
S214008E1057D1304C3049238809A8194431F08BF8D3
S214008E2023881844208000F007FC284631B0BDE8AF
S214008E30F083012BF9D100249DF821300196B3422E
S214008E40CDE90234BFD20B2221211120204B009401
S214008E5009F07EFA264609A9E0B233F0DAF880BBBC
S214008E609DF82430FF2B1CD09DF821300137FFB22F
S214008E70BB4216D21BA909A831F05DF8DFF8548072
S214008E800246B8F8003003EB0009B9F1510F0BDCCD
S214008E9011481BA91844013637F0BAF8B6B2A8F83C
S214008EA000900134052CD6D10B4B9E7100F0C4FB0C
S214008EB03828BAD100239DF821200393CDE901720A
S214008EC082E78125B1E76FF0FF05AEE7A41A002020
S214008ED05D7D0400A6380020804700202DE9F0477D
S214008EE0F228A8B0BDF8C080BDF8C47003D000203A
S214008EF028B0BDE8F0872129F9D1112AF7D1802BB7
S214008F00F5D1B8F1000FF2D1052FF0D91F4E10465B
S214008F1032F075FC3588DFF878900435ADB22C4613
S214008F2001A95FFA88F033F074F80028DFD19DF8C5
S214008F300430FF2B19D013A901A830F0FCFF00EB7A
S214008F40040ABA45024609DD641B8920A4B209F06A
S214008F50B7FA338801201C443480C9E709EB0400C3
S214008F6013A937F055F81FFA8AF408F10108B8F18A
S214008F70050FD5D1641B002009F0A2FAA4B2432045
S214008F8009F09EFA204632F03AFCE2E7A6380020C6
S214008F908047002010B5044602460749002009F025
S214008FA08BFB44B9054B1B7ADB0704D5BDE81040A4
S214008FB00348FFF7CFBB10BD627D04005C3800207D
S214008FC094150020162808B509D133F0A2F830B958
S214008FD033F01DF8BDE808400148FFF7F9BB08BDAF
S214008FE0B41500202DE9F04F044690F820009DB0FF
S214008FF0FF2800F0B0804822784B0AA902FB003315
S2140090005A6842F4C0625A6033F003F807460028F4
S21400901040F0A1809DF85420237B002A40F09E80DB
S21400902043F008039DF86020002A40F09F8043F03C
S21400903008030B9A217C607C150694F818804FEA8A
S214009040811248BF43F0100342EA0022134308F19E
S2140090502002D2B243F4A045012AADB202D8604A3B
S21400906012782AB1E27CD00744BF43F4B0439DB2E5
S21400907009B9A3786361264656F8041F94F80DA034
S214009080D4F814B094F82190079133F09AF86278E7
S2140090905346CDE9040204F12202CDE902922846A5
S2140090A03246CDE900B8079900F0F2F9002852D010
S2140090B00222304615A931F06AF84FF2F2294FF62F
S2140090C0FB780AAD95F82C300BB1032B58D109F07C
S2140090D0CBF9A0F804906178E07C31F019F8EB8EBB
S2140090E043450AD90DF1260105F12E0033F079F833
S2140090F0BDF82630434598BFEB860020E98E32F057
S2140091002FFB002023F0BAF80C35002F36D00B9B2F
S2140091101A0620D509F0A8F94FF2F2238380A37827
S2140091208372C38843F00203C3809DF86C30C37219
S2140091306178E07C30F0ECFF0B9B9B0448D5BDF8D3
S2140091403C50304637F066FF2946A27832F005FBE1
S214009150002023F093F81DB0BDE8F08F032A3FF4FB
S2140091605FAF022A08BF43F020035BE7032A3FF401
S2140091705EAF022A08BF43F020035AE70127A1E7A3
S214009180022BC1D19DF86CA009F06EF94FF2F223C4
S2140091908380A37880F80BA0093B8372C38843F0D2
S2140091A00203C3806178E07C30F0B2FF4FF6FF73B5
S2140091B0298EB5F82EA0994203D1304637F02AFF03
S2140091C00146A2785046093AD2B232F0C6FA98E77B
S2140091D0304637F01FFF0546B3E700BF881B002068
S2140091E05C3800202DE9F04FA84D04462B7AA1B03C
S2140091F0DB0702D5037EE32B1DD1237C8BB92B78AE
S2140092007BB9201D32F007FFFF280AD00EA932F0E6
S21400921000FF0F9B03F4804303430CD19DF84E30B0
S2140092204BB9237853B1062B08D003F0FB03032B6E
S21400923001D12B7833B921B0BDE8F08F2B78002B05
S21400924000F01F81A37C002B51D0237B13B96268EA
S214009250002A4CD094F818A00AF0FD02E02A46D066
S21400926094F8138018F0010841D1274694F810901E
S214009270627C4FEA091646EA82161E4346F40063ED
S21400928057F8041F62690A9394F8213094F80DB0D9
S214009290A6780D910C920B9332F093FFE3690C9A2B
S2140092A0089363780D99CDE906030B9B04F1220021
S2140092B0CDE903A3CDE9019205905B463A460A98AC
S2140092C0009600F047F990B109F0CEF84FF2F2237D
S2140092D0838006466178E07C30F01AFF6B79B3B184
S2140092E04046E98832F03CFA002022F0C7FF227898
S2140092F002F0FB03032B1DD1237C032B1AD107237B
S2140093002370204621B0BDE8F04FFFF76DBAA37872
S21400931038460C3BB372F38843F00203F38037F011
S21400932079FEA27801460C3AD2B24FF6FD7032F0C2
S2140093301AFAD9E794F81890B9F1E20F10D8B9F1F3
S214009340DF0FDED8062A40F0988009F15003DBB222
S2140093500F2BD6D9204621B0BDE8F04FFFF742BE0E
S214009360B9F1E30F07D0062A40F0878009F11C0305
S214009370DBB20B2BEDE7297800293FF45CAF297AA6
S21400938001F0030101293FF456AF072A0CBF4FF442
S2140093900276082694F81080607C4FEA081141EAAD
S2140093A080110E4346F400630B936F79A3786669C9
S2140093B094F821A004F1220B0A9357B332F001FF70
S2140093C0E1690A9B0891617800930023CDE90601C4
S2140093D01A461946CDE904ABCDE902690B98CDF8DB
S2140093E0048000F0B7F800283FF425AF09F03CF8F9
S2140093F04FF2F22383806178E07C30F089FE002013
S214009400E98832F0ADF9002021B0BDE8F04F22F037
S21400941035BF32F0D6FEE1690A9B089161783A467C
S214009420CDE90601009339463B46CDE904ABCDE9CC
S21400943002690B98CDF8048000F08CF800283FF401
S214009440FAAE09F011F84FF2F2238380A3780C3BB2
S2140094508372C38843F00203C3806178E07C30F0F7
S21400946057FE201D37F0D6FDA27801460C3AD2B240
S2140094704FF6FD7032F077F9C5E7032A7FF46AAF3E
S2140094803DE7237EE22B3FF4D6AE63E75C38002050
S2140094902DE9F743904610F00702064689461F4618
S2140094A09DF830400ED1009021211120284B08F065
S2140094B04FFF0546484632F0B1F9D0B9002003B058
S2140094C0BDE8F083022AF9D1212100900022112064
S2140094D01F4B08F03DFF08210546404609F004F8FA
S2140094E00028EBD0384608F0EBFF0028E6D0093518
S2140094F000E004350A98ADB232F090F90028DDD0CD
S2140095009DF82C0008F0DCFF0028D7D0204608F095
S214009510D7FF0028D2D021460D9808F0E5FF002896
S214009520CCD02C447304A4B202D4A01D80B2C6E7EB
S214009530BDF8380032F063F90028BFD09DF83C0033
S21400954008F0BEFF0028B9D004F10900EEE700BF1E
S2140095509D9504002DE9F7431F4610F007030646C5
S214009560894690469DF8384010D10090042221216B
S2140095701120304B08F0ECFE0546484632F04EF916
S214009580D8B90024204603B0BDE8F083022BF8D1FA
S2140095902121009004221120264B08F0D9FE082134
S2140095A00546404608F0A0FF0028EAD0384608F0F6
S2140095B087FF0028E5D0093500E004359DF828002F
S2140095C09DF82C200C9BADB2002A18BF184632F02E
S2140095D025F90028D5D09DF8340008F071FF002842
S2140095E0CFD0204608F06CFF0028CAD021460F983E
S2140095F008F07AFF0028C4D02C443205A4B20BD45D
S2140096000634B305A4B2BDD5129832F007F9002887
S214009610B7D00434A4B2B5E7BDF8400032F0EFF896
S2140096200028AED09DF8440008F04AFF0028A8D0D5
S2140096300934E6E79D950400044B1B689A6912B945
S214009640DA88034B1A8032F0F6B900BFA41A00205D
S214009650A83800201FB500246946E0B232F0B7FCF7
S21400966058B99DF80030032B07D10220BDF805300D
S2140096709DF80120034909F01FF80134032CEBD1B3
S21400968004B010BD937D040008B50220034909F01C
S21400969013F8BDE80840FF2000F0DCBAA57D040002
S2140096A02DE9F04385B006460D46174630F0AFFD6F
S2140096B0044640B130463A46294630F092FD002036
S2140096C005B0BDE8F0835FFA84F96946484632F093
S2140096D07EFCC8B99DF80080B8F1000F14D10323B2
S2140096E069468DF8003048462B0A8DF805508DF8EF
S2140096F006308DF8016032F06EFC02460028D9D0A4
S2140097004046064908F0D8FF0134032CDBD1002080
S214009710034908F0D1FF8920D2E700BFBA7D0400D4
S214009720E17D04001FB5002304468DF80F3030F0AD
S21400973059FD28B19DF80F3063F07F038DF80F3088
S214009740182301930DF10F030022009304214023F8
S214009750204631F0F2FE024618B10020024908F019
S214009760ABFF04B010BD00BFFC7D04001FB502A90E
S21400977012F0BEFE044688BBBDF80820184908F063
S214009780AFFF2046039908F0F7FE2046154908F07B
S21400979093FF4FF6F672BDF80810134C4B1E9BB2A3
S2140097A0934219D82368039A1B685879FFF778FF05
S2140097B023681B79012B0BD8BDF808300022CDE9B1
S2140097C000030421094B092008F0C2FD32F033F9EA
S2140097D06FF0FF0004B010BD8720E9E78120F9E7AD
S2140097E01B7E040069480500A41A00209C9504000E
S2140097F070B5002104468AB00D2206A8059136F001
S21400980058FC204604A912F05BFE044600283BD113
S2140098101E4EBDF810201E4908F04EFF3268137920
S214009820012B29D84FF6F670BDF8101005AD4B1E6B
S2140098309BB2834224D81368587930F0E8FC08B30A
S21400984033682A461B68BDF81010587930F0C8FCFB
S214009850BDF8103001220421CDE9004309200D4B4C
S214009860029508F075FD32F0E6F8034620B10020B8
S214009870094A0A4908F020FF6FF0FF000AB070BDE1
S2140098808724E5E78B24E3E78120F7E7A41A002086
S214009890327E0400477E04004B7E0400567E0400A1
S2140098A02DE9F0438DB006A912F088FE0446002884
S2140098B040F0B5809DF818205B4908F011FF25465A
