S02200006275696C642F64656275672F7A69676265655F7A335F6C696768742E73333764
S2140040000810002047A200002D2F0300312F0300C8
S21400401045A20000352F03003D2F030045A20000F7
S21400402045A2000045A2000045A2000045A20000EF
S214004030412F03003C0D040045A2000045A20000ED
S21400404045A2000045A2000045A2000031CA0000BB
S21400405045A2000045A2000045A2000045A20000BF
S21400406045A2000045A20000CD4E0100015C010003
S214004070955B010045A2000045A2000045A2000095
S21400408045A2000045A2000045A2000045A200008F
S21400409045A2000019A9000045A2000045A20000A4
S2140040A045A2000069A3000049A3000045A2000045
S2140040B045A2000045A2000045A200003D8A03007C
S2140040C08FAE03008BAE03006D810300A5AE030028
S2140040D093AE0300FD89030097AE0300F17403005E
S2140040E07D8A030045A2000045A20000CDA1000085
S2140040F045A2000045A2000045A2000045A200001F
S21400410045A2000045A2000045A2000045A200000E
S21400411045A2000045A2000045A2000045A20000FE
S21400412045A2000045A2000045A2000045A20000EE
S20800413045A200009F
S21400413470B5104A104C114DE3695E0714D4082874
S21400414401D12B4213D103EA00068E4207D10B4A53
S2140041541A40002A14BF6FF00100002070BD013A17
S214004164EAD16FF00200F9E74FF0FF30F6E76FF0A0
S2140041740100F3E780969800000003500200010057
S2140041842DE9F84F264D1746EB69012203F48039D2
S21400419441F671338046EB63224B234EDA600FB947
S2140041A438462AE008F500543440C5F81480A4EBD9
S2140041B40804EB69BC4228BF3C465B072DD48B46FB
S2140041C45BF8043B01EB040AAB61D3450ED1042330
S2140041D4002121202B61FFF7ABFF70B92120FFF7E8
S2140041E4A7FF50B95946A0443F1BD8E70821084604
S2140041F4FFF79EFF68B104232B6101220B4BDA60A4
S214004204B9F1000F03D00022A3F50053DA63BDE82A
S214004214F88F5BF8043BAB61D7E74FF0FF30ECE771
S214004224000003500010035000E0FFFF002003507E
S214004238D0E9023253F822301A68014B1A607047E8
S21400424834500020D0E9023253F822301A68014B65
S2140042585A60704734500020D0E9023253F82230B2
S2140042681A78014B1A72704734500020D0E902328F
S21400427853F822301A78014B5A727047345000208F
S214004288704700207047F0B523B9013A531C2FD168
S214004298002020E0042AFBD800231C46551E6E1C6E
S2140042A81AD1042A10D00121D200501E01FA00F0BB
S2140042B820421EBF914049420C4318421EBF4FF091
S2140042C8FF3101FA02F213439C421EDCB4BF4FF0E2
S2140042D8FF30002040B2F0BD40B1465DEF00BE4062
S2140042E834434E5D013DBE403343D8E70646F5E706
S2140042F88C5C38B90346A34202F1FF32C6D24FF0AF
S214004308FF30E8E7835CA342F5D90120E3E72DE90F
S214004318F7430025DFF8CC80284FDFF8CC90082D2F
S2140043283CD00E2D3ED0264B53F82540A4B1247819
S2140043380A2D08BF44F00104FF2C28D12B46012182
S2140043480220204A18F01AFA0135152D08F104083B
S214004358E5D103B0BDE8F0832646D8F800301A4AFF
S214004368009201210220194A18F008FA002EEBDA0A
S2140043780923EB40DB0719D5154B14F0010F154A36
S21400438818BF1A460121022018F0F8F9DCE766B2D1
S214004398002ED8F80030E2DA0F4AE1E700240F4B87
S2140043A82646DCE700240E4B2646D8E70A2DCBD156
S2140043B814F0010F0CBF3A464A46E3E7246B0400A4
S2140043C804E503002F6B0400E5330400576B040074
S2140043D8F26A0400086B0400F54B0400E46A040063
S2140043E8E86A0400B0E403001A6B040070B586B0EF
S2140043F801AA002109F0D2FA02AA0346144600F1DF
S2140044081006154618685968083303C5B3422A4685
S214004418F7D1084A1546234603CB516006A98B42B6
S21400442810601C4602F10802F5D101232B7406B071
S21400443870BD00BF0810002020B10023038002488A
S21400444815F0A7B8704700BF8C42002037B5054660
S2140044581C4623B31B79980721D50020ADF8040025
S21400446801A8002D08BF0546012930D1062A18D113
S21400447822883AB95B0612D40A464FF4D830294641
S21400448806F08AFC44F2030322889A4207D123796D
S2140044985C0604D401222946314806F07DFC03B0A8
S2140044A830BD082AFBD1228832B95806F7D40A4606
S2140044B82C48294606F070FC2388B3F5804FEED1C9
S2140044C823795A06EBD4012229462748E5E702292C
S2140044D8E5D1062A14D1228832B95B06DFD4012238
S2140044E82946224806F058FC44F2030322889A42DA
S2140044F8D5D123795C06D2D4012229461C48CCE7BC
S214004508082A13D1228832B95806C8D40122294667
S214004518184806F041FC2388B3F5804FBFD12379AD
S2140045285906BCD4012229461348B6E7B2F5407F9F
S214004538B5D12288072A06D15A06B0D40A460F48AB
S214004548294606F029FC44F2100322889A42A6D18E
S21400455823795B06A3D40222294609489DE700BFB3
S21400456801B0010002B0010003B0010004B0010070
S21400457805B0010006B0010007B0010008B0010050
S21400458809B00100F8B50E4E777C0A2F15D00FC873
S214004598B47C013706EB0415143585E80F000A23AA
S2140045A80134E4B2B4FBF3F203FB12440548B474D6
S2140045B877742BF0B3FB0020F8BD0120FCE700BFA2
S2140045C8081000206C42002038B50446064D01222B
S2140045D805F1B401054806F0DDFB204695F8B41051
S2140045E8BDE838402EF0F2B80810002023870100F6
S2140045F81FB50023029300930B4B03201B680193FF
S21400460804238DF80830094B03930FF0A7FC68467F
S214004618FFF7B8FF01238DF8003010B96846FFF79A
S214004628B1FF05B05DF804FB843F0020A5700000CC
S2140046380D2804D8142200F5A03006F0ABBB70474E
S2140046480D2804D8142200F5A03006F0A5BB704744
S2140046584FF6FF732DE9F04F002689B03A4CADF8B7
S21400466808302388B0B2834225D800274FF01409B3
S214004678DFF8D880C7F3CC0320336B4413F8183C14
S21400468807F00702D340DB070FD509FB078603AD03
S2140046980FCE0FC5208833680D282B6008D803A9CD
S2140046A8FFF7CEFF2388013323800137092FE1D196
S2140046B809B0BDE8F08F03A9FFF7BAFFDDE903E804
S2140046C800234FF014094FF0010A204AC3F3CC0127
S2140046D82031694411F8180C03F0070520FA05F78D
S2140046E80191F90728D51A4F09FB037CDCF8A87056
S2140046F88EEA0707FF2F1FD8DCF8AC7088EA070792
S21400470837F07F4118D1BDF814B01789BB4513D1CF
S2140047189DF80CB017785F450ED137B10699DCF8CE
S214004728B4704F4037F07F4106D101990AFA05F573
S21400473820EA050001F8180C0133092B02F11402CF
S214004748C4D101368DE700BFD036002058E50300F7
S214004758B0E403002DE9F04391B080466946FFF7C0
S21400476867FF0023184F8DF801303888013880B26B
S2140047788045388006D169464046FFF761FF11B08C
S214004788BDE8F0834FF0180905A9FFF751FF0F4C55
S2140047983D880AAE09FB0545B8350FCD0FC695E826
S2140047A8030009FB084486E80300B834404605A918
S2140047B80AADFFF745FF0FCD0FC496E8030084E85F
S2140047C8030069463888D8E7D0360020081000204D
S2140047D838B5074D2C882CB9FF21064814F0D9FEA9
S2140047E8204638BD601E80B2FFF7B4FFF2E700BF70
S2140047F8D03600201012002030B50F4C85B0657CEE
S214004808BDB142EA03229DF820308DF8051042EA31
S214004818432294F828328DF80610099904EB0314FD
S21400482800908DF80400236A68460291ADF80C20C3
S214004838984705B030BD00BF0810002013B51A4CC5
S214004848FF211A4814F0A5FE637C5BB394F828325F
S21400485804EB03131A7F9969187D1BF011F94D288C
S21400486820D0F8B194F82832002104EB03131A7DFF
S2140048780123C0B2CDE90031FFF7BEFF0A2294F843
S21400488828320A480133DBB2B3FBF2F102FB1133DC
S21400489884F82832637C013B637402B0BDE810409C
S2140048A82BF03CBA02B010BD081000206C42002065
S2140048B82DE9F04306460F46204CDFF890808BB073
S2140048C826226946204606F065FA9DF80030B3426F
S2140048D82ED1BDF80230BB422AD10023184D26221D
S2140048E869462046ADF802308DF8003006F054FAD6
S2140048F8012205F1B401134806F04CFA294695F84A
S214004908B4300122013B01F8B43F0E4806F044FAE1
S2140049180D4B05F1B4011B6801221B68094893F882
S214004928059006F037FA484695F8B4102DF04EFF75
S21400493801344445C4D10BB0BDE8F0838040010083
S2140049480810002023870100CC3600208340010091
S2140049580246FF21014814F013BE00BF00400020A5
S214004968704707B500210DF1070010F065FE1728FF
S21400497807D1064B1B681B78012B08BF02238DF84E
S21400498807309DF8070003B05DF804FB8835002063
S214004998194491420ADC4218002003B9704712F8FD
S2140049A8011D013B01EB0020DBB2F6E70020704753
S2140049B8044B1879FF2801BF034A107800F00F004F
S2140049C818717047A83F0020AE3F00204FF6FF73CF
S2140049D810B5044C2088984202D10FF0C7FB2080FF
S2140049E810BD00BFA83F00204FF6FF7310B5074C58
S2140049F888B06088984207D102A90DF1070010F028
S214004A081BFEBDF81000608008B010BDA83F00204F
S214004A1810B5074C88B06079FF2807D102A90DF1B8
S214004A28070010F009FE9DF81300607108B010BD6D
S214004A38A83F00200B4B70B500251C461E78864202
S214004A4805D15E888E4202D11E79964206D001357F
S214004A58092D03F10C03F1D1002070BD0C2303FBD4
S214004A680540FAE7984F0020064B020103EB0010BA
S214004A78017B21B9417BC90701D5985C7047FF20A7
S214004A88704700BF9C3400200822014935F044BC1A
S214004A9831120020012310B5084A02F5AE715C18E1
S214004AA814F8014C844203D11A4492F85C0110BDF4
S214004AB802335F2BF3D10020F9E700BFB0E4030010
S214004AC800207047002070472DE9F74F01930346F2
S214004AD870B169B162B1019850B100254B4E2C46B1
S214004AE8B6464B4893F800C00778E8B2B84203D3F6
S214004AF8002003B0BDE8F08F3078604506D0B06877
S214004B08C088204484B201351036EEE7707B10F07A
S214004B180100F8D00EEB0515AF680FB93846E8E780
S214004B2800264FF01409B44697F80480F5B2A84555
S214004B38DED909FB06FED7F800A00AEB0E053AF800
S214004B480EA0B3F802E0D6450ED195F80CB093F84F
S214004B5804A01BEA0A0F07D0BEF57C4F0AD3B3F8A9
S214004B6808E0BEF1000F05D06D89013665441FFACE
S214004B7885FCDBE700274FF00C08BE46B5F808B002
S214004B88BEB2B345B4D908FB07F9D5F804A00AEBBA
S214004B9809063AF809A0B3F80690CA4509D1B5F847
S214004BA80090B9F57C4F0FD2B3F80890B9F1000F12
S214004BB80AD096F80490013719F0300F02BFF6783D
S214004BC876441FFA86FEDBE70D601660327912F02F
S214004BD8200317D1D2065FBF64440E4B1EFA84F436
S214004BE813FA84F30BE019790C33890642BF13F8DD
S214004BF8091C521892B29E42F5D8074B1344019AE4
S214004C08136076E70022054BF5E700BF9C340020CA
S214004C18CC340020F81200203912002084DD03006E
S214004C287FB58DF81030BDF820308DF80C00ADF843
S214004C380E10ADF81220ADF81430694602AB01AA82
S214004C4803A8FFF741FF00B1019807B05DF804FB21
S214004C5870B500220446094B1D78094BD0B2854230
S214004C6801D8FF2070BD1E78A64204D10029F9D0CD
S214004C785E7BF607F6D401321033EFE7CC3400201B
S214004C889C34002008B50021FFF7E2FFFF2817BF75
S214004C98044B084603EB0013587B18BF00F00100CE
S214004CA808BD00BF9C3400202DE9F04F00274FF0C8
S214004CB8FF36DFF8A8B0274D87B0BBF80030B8B28B
S214004CC8834209D8731C3DD03246FF21224807B0DC
S214004CD8BDE8F04F14F054BC01A9FFF7A9FC9DF8F5
S214004CE80500FFF7CFFF08B39DF80480B8F1000F62
S214004CF81CD1BDF810A0BDF8129037F0CCFF1821D3
S214004D08BBB201FB0353D3F8B8100246A0EB010C64
S214004D1893F8C8004FF47A7350B103FB0AF363455F
S214004D280ED30B44981A864228BF06460137C4E7B6
S214004D384C466343FAD06345F5D31944881AF2E71C
S214004D484046F0E7FF21044807B0BDE8F04F14F0EE
S214004D5820BC00BF0810002010120020D03600200B
S214004D682DE9F04186B020B1022811D006B0BDE882
S214004D78F081194B194AC3F81802C3F80822184AD2
S214004D88C3F81402C3E98320164AC3E98802EDE78C
S214004D9800244FF001082746134EA5B2284601A95D
S214004DA88DF80570FFF744FC9DF8050068B1FFF71D
S214004DB869FF20B19DF804300BB986F810800134DD
S214004DC80E2C06F11806E8D12546084B1D8006B0BD
S214004DD8BDE8F04168E700BF08100020B83500209D
S214004DE8217F01005D7F0000C0100020D036002023
S214004DF801212DE72DE9F0410D4616461F46FFF71F
S214004E08F7FF02280AD8074C3B4604EB0010324648
S214004E182946BDE8F04180682AF0BEBD0020BDE8FE
S214004E28F08100BF9C34002008B540220023FFF71D
S214004E38E1FF003818BF012008BD2DE9F8434022DD
S214004E48002306460F46FFF7D5FF30B300252C464D
S214004E58134BDFF8508093F80090EBB2994502D8D0
S214004E682046BDE8F8832B0118F803008642F7D0E1
S214004E780021FFF7EDFE02280DD808EB00100B46C0
S214004E884022394680682AF087FD002818BF01347A
S214004E980135E4B2E1E70846F7E7FF24E0E700BF9C
S214004EA8CC3400209C34002038B503210546FFF793
S214004EB8C4FFFF280ED00D4BC20003EBC00494F8C5
S214004EC8CA1449B903F2C64398182946BDE83840BB
S214004ED8FFF7B2BA0020F8E7054805F079FA94F823
S214004EE8CA34013B84F8CA3438BD00BF0810002015
S214004EF805500020F8B503210546FFF79EFFFF285A
S214004F0825D0134CC70004F2C64606EBC00604EBD1
S214004F18C00090F8C834022B01D90B2B06D12846BE
S214004F283C44FFF7C1FF94F8C7342BB129463046F6
S214004F38BDE8F840FFF780BA94F8C6343BB1294676
S214004F48B4F8CC240348BDE8F84014F019BBF8BD03
S214004F58081000208C42002070B50C46FFF748FF6A
S214004F6802281BD80F4B03EB00139A68C2B1002324
S214004F78142618461579D9B28D4200D870BD116826
S214004F8806FB0311097B34B111F0400F1CBF01303A
S214004F98C0B20133EFE711F0800FF7E70020EDE726
S214004FA81046EBE79C34002070B505460C46FFF724
S214004FB81FFF022816D80C4B03EB00131E7B8EB976
S214004FC85A88012122809A88284662809B79237114
S214004FD8FFF7C2FF314660712846FFF7BDFFA07194
S214004FE8012070BD0020FCE79C340020F8B50D4673
S214004FF81646FFF7FDFE02280BD80F4B4FF0140C91
S21400500803EB00139A6800231C461779D9B28F421F
S21400501801D80020F8BD10680CFB0300017B46B1E0
S21400502811F0400F03D0AC42F4D00134E4B201339F
S214005038ECE711F0800FF5E79C34002070B50446C5
S2140050480E461546FFF7D4FE02280DD8084B03EB8C
S21400505800131A7B42B906B9012229462046FFF7F3
S214005068C5FF08B1008870BD4FF6FF70FBE700BFAC
S2140050789C340020082370B5094A06881488B44270
S21400508808D19578047B2C403F2C03D90D4201D0DB
S214005098506870BD013B02F10802EFD11846F8E7E8
S2140050A86CE6030007490B88512B9FBF064AD0546D
S2140050B8581C80B29DBF088000F1FF308018002081
S2140050C8704700BFA23900205039002038B5054681
S2140050D8C0B2FFF7E7FF0446280AFFF7E3FF14B15C
S2140050E8002808BF0024204638BDF8B50546C0B2DB
S2140050F8FFF7D8FF0446C5F30720FFF7D3FF074698
S214005108C5F30740FFF7CEFF0646280EFFF7CAFF8F
S21400511824B12FB136B1002808BF00242046F8BDB8
S2140051283C46FBE73446F9E7F8B5094F0D463B8899
S2140051385C18512C0ADC074E0A46A4B20146F01841
S21400514835F0EAF83C80641BA019F8BD0020FCE79F
S214005158A23900205039002010B4CC18944202DC42
S2140051685DF8044B14E400205DF8044B704708B55E
S2140051780223FFF7F1FF80B208BD08B5022200211E
S214005188FFF7F5FF4FF6FF73984208BF002008BDEB
S21400519810B51446A0F14102012A09D8CCB1087806
S2140051A8FF2814D00130C0B2A04288BF002010BD2E
S2140051B8A0F14303012B07D8012C0AD90846FFF7AC
S2140051C8DCFF023080B2EFE7FFF764FCECE7012073
S2140051D8EDE70020EBE7F8B50F460646BDF81810D1
S2140051E800284CD0907839B9D578A0F14104012C24
S2140051F816D81FB9377005E00D46F6E73B78FF2B43
S21400520802D133700020F8BD013DEDB29D4228BFA3
S2140052181D46791C2A46701C35F07EF83570F1E775
S214005228433801281DD80FB97770E3E73B78FF2B82
S21400523805D17B78FF2B02D133707370E2E73846CE
S214005248FFF79BFF023DACB2844228BF0446A4B2D7
S2140052582246B91CB01C35F05FF83470240A747006
S214005268D0E7D27813B909B18A4208D83946304609
S21400527817B935F049F8C5E735F04EF8C2E7892082
S214005288C1E702292DE9F0470746894640D90A9919
S2140052983BBB027001224FF0000A524802F1020896
S2140052A803780133DBB2037003F07F03BB549DF829
S2140052B820300132BB54099A5FFA8AF3D45C4CB3A7
S2140052C8732C21D80E464C2C56F8045B4BD0532C26
S2140052D823D0622C52D18C8801F10806002213468E
S2140052E824E0B9F1040F13D942F0040243701B0AF4
S2140052F8027083700322CEE7763C0E1D022C5BD824
S214005308DFE804F05F636100A4F17503032BF3D9AB
S2140053184FF000084046BDE8F0874B6801F10806E4
S2140053289CB2DBB2B3F1FF0218BF012208EB0401FE
S21400533811448945ECDB40461146002949D102EB69
S21400534808031FFA83F854B1002DE1D0224607EB74
S2140053580800294635F012FE44441FFA84F8314600
S2140053680AF1010AA7E74FF6FF724B6801F1080633
S2140053789CB2944223462AD00222D7E76C2C05D149
S2140053882846FFF7FAFE841CA4B2A7E7732C06D1BA
S2140053982C78FF2C08BF00240134E4B29EE7A4F161
S2140053A83003DAB2092A01D89CB297E7A4F1410380
S2140053B8062BADD8373CE7E7012200240B682546C4
S2140053C8B4E70222F9E70322F7E70422F5E700220A
S2140053D8ACE700F1010C01393B54C9B21B0A1FFAAD
S2140053E88CF0AAE7944F002008B410B587B009AB34
S2140053F80C4653F8041B0092CDE9011302460B49EC
S2140054080B480593098800230068FFF73AFF4FF416
S2140054188A52084B1B681880074B1B685C80DA802A
S21400542807B0BDE8104001B0704700BF68460020CE
S214005438644600206C4600207046002008B5FFF73A
S214005448D7FCFF280CBF2120002008BD2DE9F04F0F
S21400545899468BB09DF85C30B9F1020F07468B462B
S2140054681446DDF850809DF85460BDF858A00493A3
S21400547840F2EE8098F8005015F0040504D0B9F113
S214005488040F40F2E58000257C4B33F83520002ACF
S21400549800F0E68001350A2DF7D1189B002B40F066
S2140054A8DD80FF25DDE005901046FFF7C7FF0028E2
S2140054B840F0E080724A059B02EB03135B8823806A
S2140054C8704B1A78704B012A02D093F8D61481B123
S2140054D8002283F8D62493F8D724012A16D100226E
S2140054E883F8D72498F8003043F0100388F8003083
S2140054F80EE0002EEFD122B14FF657426188914256
S214005508E9D1E28842F02002E280E4E7022AE9D004
S2140055185E4B1A78E388012A53D143F04003E380B0
S214005528E6885946324638462CF05EFF4845C0F0B5
S2140055389180C6F30E06E68000265FFA89F3414698
S214005548184606AA059322F045FB3246059B06A98F
S214005558023231F8020BD2B2102A86EA0006F7D1D8
S214005568012E38BF0126042FB6B22FD8022F3FD9F6
S214005578042F07D04FF2F223A2889A4249D1E38833
S214005588990746D5E77A494640462AF04AF9002858
S21400559862D04FF6FF739A4518BF3D4A3A4B1CBF78
S2140055A8A2F80AA0049AA3F8DA6418BF83F8D824E5
S2140055B84FF6FD7100903B46224603202BF080F9FB
S2140055C81EE0022AACD123F04003A8E77A1F012A7E
S2140055D850D8052F21D10021E27ACDE90021CDE966
S2140055E80238594623465046049A2BF0E9FB07E052
S2140055F8CDE90038224633465946384629F026FE75
S214005608189B03B1C8B1052835D1E388DB0632D527
S2140056181CE04FF6FF7A0C27B5E74FF2F222A18876
S214005628914205D1E288920702D53146E27AD4E75C
S21400563831464FF6FF7A0C22CFE7092D06D8154BD0
S21400564803EBC5029680189A43F83520002012E02E
S214005658012010E038200EE019200CE01C200AE09B
S214005668EDB2227910460592FFF7C2FB0228059A8A
S2140056787FF619AF21200BB0BDE8F08F5443002009
S2140056889C3400204E4F00200810002030330020A5
S2140056983450002050430020F0B58BB01F46119BB5
S2140056A805460E461446CBB102280AD106A9F0B222
S2140056B81FF074FA90B99DF8193023719DF81C30C4
S2140056C863710022109BCDE90322CDE901220093E5
S2140056D822463B4631462846FFF7B8FE0BB0F0BDDB
S2140056E82DE9F0450646884614469A4600270125C1
S2140056F88BB006A9F8B21FF051FA20BB9DF81830F7
S214005708012B19D19DF8192033799A4214D1BDF886
S2140057181A2073889A420FD19DF81C30324673714E
S214005728B9B2CDE9030ACDE9010043460220009448
S214005738FFF78CFE054610B90137032FD9D1284646
S2140057480BB0BDE8F0850546F9E7044A034611683C
S2140057580348044A098812680068C1E76C460020B6
S2140057687046002064460020F8B504460025142735
S21400577886683279EBB29A4200D8F8BD30680121C3
S21400578807FB0300FFF776FC034608B12078984726
S2140057980135EEE70A4890F8DC3483B9194600F577
S2140057A89C62D3720133042B1173117051601181FE
S2140057B8917202F11002F4D1012380F8DC347047AC
S2140057C80810002008B5FFF7E5FF002305481A0172
S2140057D8115C09B9104408BD0133042BF7D1002029
S2140057E8F9E700BFE814002008B5FFF701FB022818
S2140057F896BF024B0020185C08BD00BF604600201C
S21400580810B50C46FFF7F0FF08B9032C1DD1FFF7BB
S214005818CFF8042819D0FFF7CBF8052815D00B4881
S214005828FFF793FF1C2802D10020FFF78EFF084BD6
S2140058381868084B1B68198838B131B1064B1A68C6
S2140058481AB1BDE810402CF049BE10BDA1560000A4
S214005858704600206C46002064460020026810B59A
S2140058681188164B19805188598051791971117908
S21400587859714FF48A51D980D28812F0200F0CBF84
S2140058880A464FF48B528169DA800D4A137831B98B
S214005898C0880C4923F002030880137010BD0A4C18
S2140058A843F0020313700131152204F2215034F03C
S2140058B833FD002384F82035F0E700BF7446002047
S2140058C8333300204638002008100020F0B50022A8
S2140058D804464FF6FF750B4F90B237F83060034614
S2140058E8AE4201D12846F0BDA64209D1B4F57C4F98
S2140058F8F9D307EBC3035B888B42F4D00029F2D0B8
S2140059080132E9E718D0030028F09EB8002310B546
S214005918054CE21892F8FC11814202D392F8FD0178
S21400592810BD0233DBB2F4E7B0E403002DE9F04122
S214005938082916461F469DF8188051D80024254683
S2140059480144814236D106F0FD03382B4AD018228E
S214005958324B392E02FB0833D3E9301334D107EE25
S214005968104A07EE901AF4EEC77AF1EE10FACCBF9A
S21400597837EEC77A37EE677A17EE104A00253046B4
S214005988FFF7C4FF06F0FD03382B35D0392E3B69E8
S2140059982BD107EE103A07EE904AF4EEC77AF1EEEE
S2140059A810FAACBF01230023012827D1254329D1AB
S2140059B8BDE8F08111F8013D2D0245EA1465240280
S2140059C81C1945F10005BCE78C4275EB030203D2AF
S2140059D80C1B63EB0505D2E7641A65EB0305CEE7F7
S2140059E80024CBE700242546C9E79C4275F100034E
S2140059F82CBF01230023D7E70023D5E70028D7D1FB
S214005A08002BD5D01822054B02FB0833BDE8F04121
S214005A18012283F8C820FFF747B900BF0810002006
S214005A282DE9F3411E46154601AA9DF8204007F0C9
S214005A38B5FF019B8046B34228BF33461F4604B1D4
S214005A48F41A22460021284634F05EFC3A464146BF
S214005A58281934F061FCF8B202B0BDE8F08130B520
S214005A681C46002389B0ADF81A20021D92B2012AFE
S214005A780C9DADF81830ADF81610ADF8143003D9F3
S214005A884FF6FF7290420DD1FF2300220146CDE962
S214005A9800324FF6FF70CDE9024505AB2BF090F9C2
S214005AA809B030BD0146CDE90045184605AA29F0DB
S214005AB8CDFBF5E770B41D46064E9DF80C303478DD
S214005AC80134E4B2347004F07F042C70039570BC83
S214005AD8C5E700BFE73500201FB5030A8DF80E306E
S214005AE80323009303AB8DF80D00FFF7E3FF05B023
S214005AF85DF804FB0EB433B5044605A951F8040B4B
S214005B08074D01912C800CF0EDFB01210220054A7F
S214005B1816F034FE2C8002B0BDE8304003B0704763
S214005B283A330020F54B040007B5064A03461278B8
S214005B38002000920449054AFFF7DCFF03B05DF831
S214005B4804FB00BF803F00206C6B0400373F040056
S214005B5870B5D0E902435A1C960054F822201578EE
S214005B68A5F10B020F2A05D92A4619490220BDE8D5
S214005B787040BFE7013BDBB254F823000322154907
S214005B88344435F0EBF954F8043C1A78012A0ED15F
S214005B981149AA40CB6838B91343104ACB60022093
S214005BA8BDE870400E49A5E723EA0203F5E7022A96
S214005BB80BD101220849AA400B6918B91343094AB0
S214005BC80B61ECE723EA0203F9E70749CEE700BFD3
S214005BD8946B04009B5E0400345000200C3F0400C5
S214005BE8AA6B0400143F0400BD6B040007B5D0E997
S214005BF8023103EB810253F8213052681B78126891
S214005C08012B0CBF084909494FF002000A6008BF7B
S214005C18074B009218BF074B074A0849FFF76AFF69
S214005C2803B05DF804FB00BF40500020445000203D
S214005C38D06B0400D86B0400B8D10300E26B0400F4
S214005C48252270B50026194B86B0044600211A7026
S214005C581748162234F058FB164B0320C3F838654D
S214005C68154B1B681B78013B012B8CBF01230423B3
S214005C788DF808300EF072F904238DF810300F4BAB
S214005C8802A805930394FEF77DFC05460C4B0D49C8
S214005C98DA680D4B3046A24218BF0B4600940B4AF2
S214005CA80B49FFF727FF284606B070BD584F00205F
S214005CB8464000200810002088350020956A00001D
S214005CC834500020D86B0400D06B0400B8D1030011
S214005CD8FC6B0400F0B5444E8FB0337803F0FB003D
S214005CE8A3F109050228EDB21DD0042B41F60411D4
S214005CF81CD0A3F108046242624152000A43ADF880
S214005D080C203A4A3A4902F1100452F8047BA2429F
S214005D1841F8047BF9D1033B052B46D8DFE803F0AE
S214005D284D0845454D0843F60411E2E70222E5E72B
S214005D382F4B0DF10E0203F1100153F8040B8B42A2
S214005D4842F8040BF9D103A823F05CFD2328044687
S214005D5810D1012D33D80020264A2749FFF7CAFE5E
S214005D68BDF80C3003A823F40053ADF80C3023F02C
S214005D7849FD044664BB234622464FF00C714FF09B
S214005D887F6021F0A3FF01221C4B95421A751FD88D
S214005D981B4A01AB10685168224603C3194901A87B
S214005DA805F036FDB8B1192412E0174B1A7C22B15B
S214005DB8144A012818BF1346BBE7124BB9E73378D5
S214005DC803F0FB03022B03D100201049FFF792FED5
S214005DD820460FB0F0BD2246054901A805F018FD7B
S214005DE804460028DFD1F3E7FE3F0020D36C04000A
S214005DF844150020B8D103002A6C04003450002053
S214005E08E46C0400BEE6030008100020856C04005D
S214005E1810B5FEF7DDFCBDE8104000230220014A5D
S214005E28014967E6D0DE0400BC750400D0E90232FA
S214005E3853F8223010B51888084B1B8883420AD9B5
S214005E48FEF788FCFEF730FF0023BDE8104002206E
S214005E58034A04494EE62723F7E700BFD03600205A
S214005E68875E0400BC7504007FB5D0E902310022C5
S214005E788DF8042053F8210003EB810300788DF891
S214005E880500596801A80988ADF8061099680988B8
S214005E98ADF80810D9680978ADF80C20914214BFFF
S214005EA8402180218DF80A101A691288ADF8102052
S214005EB85A699B691288ADF812201B68059326F06C
S214005EC827FA044A034604490220FFF713FE07B0E0
S214005ED85DF804FB9B5E0400BC75040038B500241E
S214005EE8064D36F0D8FE45F824000634542CF8D172
S214005EF80220BDE838400249FCE500BFC01000207B
S214005F08ED6C040030B5022087B02049FFF7F2FD9B
S214005F1802201F49FFF7EEFD02201E49FFF7EAFDA3
S214005F2836F0B9FE00240546A0B201A90134FEF7F2
S214005F387FFB0E2CF8D136F0AEFE1749421B022026
S214005F48FFF7D8FD15490220FFF7D4FD36F0A3FE6B
S214005F5804460120FEF704FF36F09DFE0E49021B9C
S214005F680220FFF7C7FD0E490220FFF7C3FD36F0F3
S214005F7892FE0446FEF76CFB36F08DFE021B0220EE
S214005F88054907B0BDE83040B4E500BF196D040008
S214005F98486D0400786D0400956D0400A46D040037
S214005FA8BE6D040070B5D0E9023253F8221003EB38
S214005FB882035B680C681D7821462A46002019F083
S214005FC85FFD024648B90122064B074983F84C256F
S214005FD82B462246BDE870408CE50020BDE87040A0
S214005FE8024987E508100020DE6D0400166E0400DE
S214005FF808B502200349FFF77DFDBDE808402CF0F0
S214006008F7BB00BF3A6E04002DE9F0430C46036860
S2140060188FB0C77C93F8058015460B4600926F49EB
S2140060286F4A0020412F18BF0A466E49FFF762FDE7
S214006038CCB96D4EDFF8CC912622304604A904F080
S214006048A9FE9DF81030434508D1BDF81230A3428A
S21400605804D19DF81430AB4200F0BA8001364E45A4
S214006068EAD18B2606E02146404615F071FA00284C
S214006078DFD18526412F14BF0122412205210920A0
S214006088CDE90145594B0096FFF7AEF9002E40F0D2
S2140060988C80412FBDF8160001BF9DF8183000EB24
S2140060A8800003EB400398B2FFF710F80020FEF7D5
S2140060B8F9FF9DF819304BB10620FFF707F80120C5
S2140060C8FEF7F0FF9DF81A00FEF7ECFF9DF81B3070
S2140060D84BB10820FEF7FAFF0120FEF7E3FF9DF814
S2140060E81C00FEF7DFFF9DF81D30002B5DD04FF437
S2140060F84070FEF7EBFF3E4B00201C88FEF7D2FFF1
S2140061089DF81D30002B65D0BDF81E00394DFEF7F2
S214006118DDFF2B5D02332B559DF8203033B1BDF8DB
S2140061282200FEF7D3FF2B5D02332B559DF8243053
S21400613833B1BDF82600FEF7C9FF2B5D02332B5599
S2140061489DF8283033B19DF82900FEF7ABFF2B5D8C
S21400615801332B559DF82A3033B19DF82B00FEF7F6
S214006168A1FF2B5D01332B559DF82C3033B19DF8DC
S2140061782D00FEF797FF2B5D01332B55BDF8300039
S21400618848B19DF82E30002B08BF0020FEF79EFF72
S2140061982B5D02332B559DF8323033B1BDF83400F1
S2140061A8FEF794FF2B5D02332B55134B1B681B79A8
S2140061B8012B08D8FFF7A8FB034620B100200F4A9A
S2140061C80F49FFF797FC6FF0FF000FB0BDE8F083AC
S2140061D800264FE74FF6FF7098E700BFF54B040020
S2140061E84F6E0400586E040080400100776E04006D
S2140061F8A239002050390020CC3600207B6E0400DF
S214006208866E0400834001002DE9F041244C8CB0D2
S21400621894E80F000CAD103405E90F0094E8070069
S214006228002405AB83E8070000201E49FFF762FC40
S21400623826464FF6FF781C4D1C4F3B78033B012B38
S21400624820D9A879F0B92B8843451BD029790DF1B8
S214006258300C01F003020CEB820252F8102C0136C7
S2140062680392C1F301120CEB820252F81C2C890926
S2140062784901019102926A880D4900922246F6B2B7
S214006288FFF738FC0134102C05F10805D5D1234654
S2140062983246002007490CB0BDE8F0412AE400BFAA
S2140062A8D0E60300B16E040056150020D93F002042
S2140062B8D86E0400F86E0400054B93F8D63513B96B
S2140062C8044829F02BBD0220034A044912E400BF03
S2140062D80810002000400020106F0400316F0400F2
S2140062E80220014906E400BF4E6F0400F8E7F7E70E
S2140062F82DE9F047C3688268013352F82330054613
S2140063081E788CB03046FEF773FD022841D8224F1F
S2140063184FEA001907EB001408A894F806A024F022
S214006328EFFD089B4F441B0648BFB4F8028006AC36
S214006338204658BF4CF25E08FEF7A6FBFEF746FB63
S214006348CDF814A0BB8840224FF48051CDE90383D2
S214006358CDE90106114B09200094FFF745F8D5E969
S2140063680232023253F8221003EB820308780C49F3
S21400637809680E71487153F8083C188825F08AFC9D
S21400638803460220074A0849FFF7B4FB0CB0BDE8ED
S214006398F0872123F5E700BF9C340020786F0400BF
S2140063A8704600207F6F0400BC750400F7B5D0E97E
S2140063B8025301339F0055F8233004461E783046B2
S2140063C8FEF716FDFF2824D03D44AB6841221B7813
S2140063D84FF48051009301200F4BFFF705F8D4E9DE
S2140063E80232023253F8221003EB820308780B4974
S2140063F809680E71487153F8083C188825F04AFC5D
S21400640803460220064A074903B0BDE8F040FFF7F6
S21400641871BB2123F5E700BF942C040070460020CA
S214006428946F0400BC750400F7B5D0E90253013335
S2140064389F0055F8233004461E783046FEF7D8FCF1
S214006448FF2824D03D44AB6842221B784FF4805185
S214006458009301200F4BFEF7C7FFD4E90232023241
S21400646853F8221003EB820308780B4909680E716B
S214006478487153F8083C188825F00CFC034602209F
S214006488064A074903B0BDE8F040FFF733BB2123AF
S214006498F5E700BF942C040070460020AA6F04009D
S2140064A8BC750400D0E9023253F8223013B51C68D4
S2140064B820462BF04BFF054B0220CDE90043044A4B
S2140064C8044B0549FFF716FB02B010BDA16D04008A
S2140064D8C46F0400BC6F0400D46F040010B50548F0
S2140064E823F083FBBDE810400220034B034A04490F
S2140064F8FFF700BB4C500020E06F0400C46F040098
S214006508EA6F0400084B9B6A63B9084B084A93F87D
S214006518D715084B002908BF13460220064A074924
S214006528FFF7E8BA034BF8E73450002008100020BD
S214006538F06F040022760400C46F0400EA6F0400BB
S21400654810B5D0E9023253F822301C7834B9124B11
S214006558C3F8D845BDE810402CF0C0B8A4F10B032A
S2140065680F2B06D92246BDE8104002200B49FFF73C
S214006578C1BA0123084AA340C2F8D835FEF718FA6C
S2140065880028E7D120462BF0C7FB22460220044904
S214006598FFF7B0FADEE700BF08100020F96F040026
S2140065A80C700400D0E9023253F822301A7852B13F
S2140065B8A2F10B030F2B03D902200549FFF79ABA5D
S2140065C8012303FA02F2034BC3F8DC252CF086B845
S2140065D8F96F040008100020D0E9023253F8223080
S2140065E81A78042A03D902200649FFF783BA064B0D
S2140065F803EB8203D3F83C22044BC3F8D8252CF0CF
S2140066086DB800BF2A700400B0E40300081000202C
S21400661802200149FFF76EBA48700400F8E7054AF9
S214006628022092F8E035044923F0040382F8E035A6
S214006638FFF760BA0810002073700400054A0220AD
S21400664892F8E035044923F0080382F8E035FFF7AE
S21400665851BA00BF081000208F700400054A0220B7
S21400666892F8E035044943F00D0382F8E035FFF769
S21400667841BA00BF08100020AF700400054A022087
S21400668892F8E035044923F0010382F8E035FFF775
S21400669831BA00BF08100020C470040030B5354D6C
S2140066A8ABB00BAC0FCD0FC40FCD0FC495E80300ED
S2140066B884E80300FEF77CF90546002858D102A8AE
S2140066C80DF027FC044648B12B4B009028462B4A71
S2140066D82B49FFF70FFA20462BB030BD41F606339C
S2140066E8CDF89E00ADF87C30CDF8A200ADF8A60037
S2140066F80DF141030DF17E020DF1510153F8040B23
S2140067088B4242F8040BF9D102AB0DF18E0506ACAC
S2140067181A4603CAA24228606960134605F10805AE
S214006728F6D100259DF83030282215A915488DF891
S2140067385830159504F030FB204604F09DFB0523E1
S21400674820460DF131018DF8183004F0E4FE0623DA
S21400675820460DF141018DF8183004F0DCFE1FA824
S21400676823F050F804460028B5D0074B0090ADE754
S2140067780024B0E700E70300DA700400804704004E
S214006788F070040002E501000371040010B5044629
S214006798154A00201549FFF7ADF9234601210420C4
S2140067A8134A15F0EBFF8CB1FFF778FF034620B1CC
S2140067B8012104200F4A15F0E1FF002015F066FCC1
S2140067C8012103460C4A042015F0D8FF00230B4A83
S2140067D8FF2113700A4A0B4882F8E13582F8E23541
S2140067E8BDE8104012F0D5BEB8D1030019710400F8
S2140067F8307104004E7104007C710400FE3F0020D6
S214006808081000202440002007B5094B1B786BB100
S2140068181720FFF7BBFF002300930220054B064A0C
S2140068280649FFF767F903B05DF804FB0223F3E7B0
S214006838FE3F00200A550400B8D103007239040050
S21400684808B5124A1378042B09BF114B01331B7C79
S214006858C3F10603DBB2137003F0FD02092A04D164
S2140068681720FFF793FF172008BD094A127CC2F1CC
S2140068780602D2B29A4207D1064B18690028EFD012
S214006888FFF7DEF94D20EFE70020EDE7FE3F00209A
S2140068980810002034500020002038B51D4C1E4D2E
S2140068A823781E4A05EB8303D3F878321C49FFF792
S2140068B821F9FFF70FFA034630B92378194A042B53
S2140068C812D89BB9136912E00020144A1649FFF73C
S2140068D811F9FFF7B5FFD8B92378104A05EB8303FB
S2140068E8D3F878320E49E2E7092BEBD1D3680020BB
S2140068F80E4A0F49C2F838350E4B187019F04EFC80
S21400690818B1BDE83840012040E7BDE8384013E03C
S21400691838BD00BFFE3F0020B0E40300B8D1030036
S2140069289771040034500020A47104000810002059
S2140069384640002044400020F0B5474D474E002012
S2140069482A792B88464989B0FFF7D4F8D6F838252F
S214006958287922FA00F010F0010002D14149FFF729
S214006968C9F82B79D6F83805D84010F001041BD1A1
S2140069783D4B394918780130C0B2187019F00EFC32
S2140069880028EED020463949FFF7B4F8FFF758FF3D
S21400699800285ED109B0BDE8F0407DE73449A7F18C
S2140069A80E001AF001F83EE0009300202B88314ACA
S2140069B83149FFF79FF8314B31491B681A78264B47
S2140069C8012A08BF022203F1140053F8044B83423D
S2140069D841F8044BF9D11B882A4F0B80D5F80E00D6
S2140069E8796802AB03C32B884FF6FE71ADF81030FA
S2140069F803238DF812302B7901208DF813300023ED
S214006A088DF8143002AB19F009F9044680B902A8CB
S214006A1818F01CFF2B7B1BB196F8FC25002ABDD16D
S214006A280D4819F073FF044610B9012386F8183686
S214006A3896F8E135013386F8E13554B1234600204F
S214006A480C4A1149FFF756F8204609B0BDE8F04051
S214006A589CE609B0F0BD00BF4640002008100020A4
S214006A68CF7104000072040044400020334704003D
S214006A7895000200B8D103009972040088350020FA
S214006A88EC150020544000207072040038B51A4DEA
S214006A982B7883B3838913F4407F2CD0006830B1F9
S214006AA8BDE83840024615490020FFF723B8144CC5
S214006AB8144A94F81936144984F8E235FFF71AF898
S214006AC894F8E23513B1BDE83840E5E62B78082B94
S214006AD80BD8042B0BD8237CC3F106032B700B4B67
S214006AE81869BDE83840FFF7ABB80A2BF3D1BDE804
S214006AF8384018204AE638BDFE3F0020B972040028
S214006B0808100020B8D10300E672040034500020B4
S214006B1837B5184D04462B78DB0629D50090164B5A
S214006B280020164A1649FEF7E5FF1E2C0ED0652CE7
S214006B380CD0032C1CD0FF224FF6FF7100201AF051
S214006B48A1FD40F61C40FFF721FE0DE004F0CAF850
S214006B584FF4FA63B0FBF3F202FB1300C218FF21EE
S214006B68084892B212F00CFD2B7823F010032B7015
S214006B7803B030BDFE3F00200A730400B8D10300FE
S214006B8872390400244000202DE9F0412C4D88B0CD
S214006B9895F8D645002C50D1FF212A4812F0F9FC6A
S214006BA8294E95F81A3603AF96F8088003947C6049
S214006BB8C3B102240020254B254A26490094FEF737
S214006BC899FF002C39D0244B1B78DB0635D5FF22DD
S214006BD84FF6FF7100201AF055FD204608B0BDE8B4
S214006BE8F041D3E51D4B1B7803F00F03022BE0D1D1
S214006BF80DF0BCFA0028DCD005A81DF01FFF0822FF
S214006C0839460DF1160034F0A9F9A0B186F8388097
S214006C1824F0D4FE04460028CCD1012641F288315F
S214006C2805F21C6085F81A6685F81B6635F0C2F909
S214006C3885F8D665BEE72324BCE708B0BDE8F08132
S214006C480810002000400020345000202E73040056
S214006C585C73040072390400FE3F0020AE3F00203B
S214006C682DE9F041D0E9023253F8221003EB8203F3
S214006C785A689B6896B01C880D78B2F80080002188
S214006C8829220DF12F0033F03FFB01A88DF82E5076
S214006C98ADF82C4024F034F9019BADF85230FDF7DE
S214006CA860FE8DF85400FFF7F9FC2E4B1B781B0787
S214006CB855D19DF85430022B51D10CAE01233146E4
S214006CC80DF12E020BA824F088F8044600283DD1C2
S214006CD8BDF85200244F00F0830024F01DFA96E811
S214006CE803009DF8543005AD87F83C36BDF82C30C7
S214006CF885E80300ADF81C309DF82E30CDE9084431
S214006D088DF81F3003238DF82030184B204641F6A7
S214006D1806310A938DF81E8021F024F8BDF850102D
S214006D282B46002908BF4FF4417101209DF85420D6
S214006D3819F028FC97F83D3604460BB92AF056FF9A
S214006D4824B90B4A138843F4807313802346022021
S214006D58084A094916B0BDE8F041FEF7CBBE022442
S214006D68F4E700BFAE3F00200810002000F8FF0739
S214006D785C4000206F730400BC75040073B50D6892
S214006D88EC7B002C71D1EB7C402B6ED1384B032169
S214006D981B681B685E793046FEF74FF8FF2818BF59
S214006DA8344C354918BF04EBC00401AA28460BF03A
S214006DB843FB054690B96CB19DF805309DF8042054
S214006DC82E49FEF797FE237883B1A378FE2B03D0CF
S214006DD8FF2B06D0012501E001236370284602B088
S214006DE870BD31462046FDF727FBF7E79DF80430CF
S214006DF80B2B2DD80B2BEDD801A252F823F000BF91
S214006E086F6E0000396E0000676E0000DD6D0000D2
S214006E18DD6D0000DD6D0000DD6D0000DD6D00003D
S214006E28DD6D0000DD6D0000DD6D00006B6E00009E
S214006E3804222271012222804FF48062A3709DF8FA
S214006E48053031460E48E370E28012F099FBC5E73C
S214006E580233DBB2012B94BF00250125BEE70622CC
S214006E68E7E70822E5E70222E3E78120B7E700BF65
S214006E78CC360020CE14002054E7030074730400B8
S214006E888C42002030B5086885B0C37B002B59D1EA
S214006E98C57C412D2FD0422D54D12B4903AA0BF087
S214006EA8CBFA044600284DD19DF80C202749FEF75A
S214006EB821FE9DF80C302A464FF48051CDE9004358
S214006EC80920234BFEF790FA2046FEF7EBF8214BF5
S214006ED82046DA88204B19882BF086FAFEF714FD30
S214006EE8034620B11D4A20461D49FEF703FE6FF0F3
S214006EF8FF0005B030BD1B4903AA0BF09DFA0446F7
S214006F0800BB9DF80C201849FEF7F4FD9DF80C30E0
S214006F182A464FF48051CDE9004309200C4BFEF772
S214006F2863FA2046FEF7BEF80A4B2046DA880A4B74
S214006F3819882BF059FAFEF7E7FC03460028D6D046
S214006F480A4AD0E78120D4E759E70300A57304006E
S214006F58F04204007446002046380020C773040038
S214006F68D57304005CE70300FD7304002374040073
S214006F7830B5404D04462B6889B0002B70D0038985
S214006F883D4A0093C37A3D490020FEF7B3FD05A8A5
S214006F981DF054FD2B681A78012A07D0BDF8143066
S214006FA8022A03F0020352D1002B5BD0344B1B7825
S214006FB8002B55D14FF6FF7322899A4250D035F0F0
S214006FC81DFD00284CD12F4DD5F8400610F00200C4
S214006FD807D00DF0CBF84FF6FE73984201D11EF09D
S214006FE8BEFC214618F0E2FD10BBD5F840369A07DD
S214006FF84CBF0220012018F01CFD1DF05FFB002886
S21400700832D0214B1B781BB1D5F840361B042ED541
S21400701820F058FA0022082120460CF06FFF68B1CD
S21400702803AD0421284603F0A3FE18B140F612402B
S21400703809B030BD95E8030084E803000023134A2E
S214007048204623746261E38119F052FAF0E7104A89
S2140070581049002B08BF0A4600200F49FEF74AFDD4
S2140070680220E5E70B4AF7E740F60840E0E740F677
S2140070780B40DDE78835002003460400C82F0400CF
S214007088AE3F0020081000207C35002000F8FF07DF
S21400709835740400417404004D7404002DE9F0476B
S2140070A884890646A50588B04FEA142305D50068E6
S2140070B808B0BDE8F047FEF737BDD807E4B240F1A0
S2140070C88780336853B10122737977499A400B68F1
S2140070D823EA02030B6008B0BDE8F087012CFAD15A
S2140070E803F000FE054603F0FDFD03236F4FADF8E1
S2140070F8100002A88DF8123015F01AF83B78990798
S21400710813D569490A6882B90B23694810F913C070
S2140071181CF1800F18BF04FA03FC03F1010318BF23
S21400712842EA0C021B2BF1D10A60624B187814F065
S21400713869FF044668B9012405F00F05DFF8688181
S2140071480B35D8F80030002B3CD094B934600020BA
S214007158AEE730603B789A0738D4574A43F00203C4
S2140071681168514A3B70116008B0BDE8F047FDF75A
S2140071783FBA1A2D08BF0B254FF0010A1CBF013570
S214007188EDB20AFA05F919EA030FDAD002A88DF863
S2140071981350FFF7EDFE044600902B460020474AA2
S2140071A84749FEF7A7FC34B9234651460420454A0A
S2140071B815F0E4FAC5E7D8F8003023EA0903C8F85A
S2140071C80030BEE73460002CC4D1C0E720466FE725
S2140071D8012C12D1B3683C489A78A2F10B01C9B2C7
S2140071E810F811300133DBB2142B00F811307FF69B
S2140071F872AF2D4904FA02F269E7002C7FF46BAFF0
S21400720875793149A5F10B0E96F904205FFA8EF6CA
S21400721801EB460393F9010090423BDA5A704FF0AF
S214007228010A23462246204F01F10109386819F958
S214007238128018F1800F0FD002F10B0C0AFA0CFC22
S2140072481CEA000F08D001EB430C9CF901C001347E
S214007258C445E4B2B8BFD3B20132102AE7D1042C31
S21400726818D901EB430401EB4E0292F901C094F9D8
S21400727801209445C8BF2B464FF00102DCBF0B33F4
S214007288DBB29A4020EA0200802201EB4303386012
S21400729803F8152C11F81630142B7FF61CAF0122B4
S2140072A80149AA4013E700BF843F0020803F002022
S2140072B8733F0020954F0020904F0020373F040072
S2140072C8434C0400694C0400883F00207FB50E46F6
S2140072D8054618F077FB2A46044603460C49002064
S2140072E8FEF708FC86B101238DF80E300323002232
S2140072F8009336214FF6FC7003ABADF80C208DF8E2
S2140073080D50FEF7D7FB0446204604B070BD00BFFC
S214007318817404001D4B37B5D3E9031551EA0503FC
S21400732831D01B4B1B683BB31A4C237823BBFDF7A5
S2140073383FFBE0B9184A137CA1B1C3F10203DBB2E4
S21400734823700023084682F8D635FEF779FC0446F3
S2140073580020124B124A13490094FEF7CBFB204636
S21400736803B030BDC3F106032946DBB2E8E70121C6
S214007378B420FFF7ABFFEAE70020094A0A49FEF700
S214007388B9FB0224E4E70224E9E700BF34500020F2
S21400739888350020FE3F002008100020E94504003C
S2140073A8B8D10300723904009A740400D0E9023296
S2140073B853F822301A78014B1A70ABE720400020A9
S2140073C837B51048FF2112F0E4F80F4B187810F084
S2140073D8100505D0002003B0BDE83040FDF7B8BA68
S2140073E80121B420FFF772FF04460090074B284699
S2140073F8074A0849FEF77EFB204603B0BDE8304042
S214007408FFF7C4B924400020FE3F0020B4740400EF
S214007418B8D103007239040038B505461DF03AFCA9
S214007428044628B140F60443984214BF88248D24A5
S21400743823462A4600200249FEF75CFB204638BD54
S214007448CD7404002DE9F04F9B4695B09DF880302A
S214007458BDF8789003939DF88830054604939DF808
S2140074688C300F46029205938DF83000ADF8321036
S214007478ADF836200FAB0BAA0AA90CA81F9C9DF8DE
S21400748884A08DF834B0ADF83890FDF71DFB20B118
S214007498DDF82C80B8F1000F0CD1029B0020CDE956
S2140074A800738A4A2B468A49FEF724FB862015B0C5
S2140074B8BDE8F08FBAF1000F16D198F80230039A9B
S2140074C8934206D05046814A8249FEF713FB8D2028
S2140074D8EDE798F8040010F0010005D17B4A7E49D4
S2140074E8FEF708FB8820E2E798F804305B0727D504
S2140074F8D8F8083098F803A0D3E901031E4698F890
S2140075080230283B072B8CBF00230123BAF1020F59
S21400751800F2938052462146099009A80793FCF783
S214007528B2FE079B0690524621460AA80A96FCF722
S214007538AAFE069B012B00F08E80013000F08B809F
S214007548049B002B40F0BA804FF6FF72214698F84D
S2140075580200FDF71DFE8246002800F0B4804B4668
S2140075685A4639462846FDF745FC00289ED0B9F10C
S214007578000F72D021460CA82AF08AFF002896D160
S214007588059B2BB143463A4629462046FCF75EFF44
S2140075984FF00008DFF850A1BAF800301FFA88F05C
S2140075A883422CD90FA9FDF743F89DF83C30002BF1
S2140075B876D19DF83D20AA4272D1BDF83E20BA4247
S2140075C86ED1BDF8402002998A4269D19DF84220C2
S2140075D85A4565D1BDF844204A4561D10B93039BB3
S2140075E8413B012B4AD90398FDF754FA01465FFA46
S2140075F888F300932046039A0FABFEF797F9062FF9
S21400760807D1029B2BB9BBF1400F02D128460AF0DE
S214007618FBFE4B465A4639462846FDF7EBFB50B16B
S214007628B9F1000F3FD10221FDF724FD034610B142
S214007638284602999847002039E75246214606937D
S214007648FCF721FE012806D0524621463046069B06
S214007658FCF719FE71E7872029E72021FDF70AFDC8
S2140076680646002886D0DDE90212284600945FFA0E
S2140076788AF3B04700287FF41AAF7BE72378174AC7
S214007688FF2B08BF002316492344A34203D1042135
S2140076980B920BACABE714F8010F42404A43F4E7F1
S2140076A808F1010878E71021FDF7E4FC03460028F6
S2140076B8C1D04A46284602999847BCE7002009499F
S2140076C8FEF718FAB7E70120F1E600BFE7740400F2
S2140076D8F37404001F75040033750400C59D1C81EF
S2140076E89301000147750400D03600202DE9F04FBD
S2140076F805460024AB4B91B01B78DFF8D092079173
S2140077080893089B9C4230D2FF2D08D02846FDF7E8
S2140077186FFB0228044608D911B0BDE8F08F09EBC4
S21400772804131B7B002B40F0368123014FF0000A20
S214007738099309EB041B0DE014224FF000081B68A0
S21400774802FB07373A891FFA88F39A4200F2E48068
S2140077580AF1010A099B5FFA8AF74B449B681A7973
S214007768BA42E9D8FF2D00F01681079B002BD3D12B
S214007778012D07D0FF2D40F011810120FDF738FBC1
S214007788FF2850D0012600244FF020080DAF012214
S2140077983946854803F0FEFA40232246082130463B
S2140077A8CDE90444CDE90286CDE90047FFF74AFE55
S2140077B8324639467D4803F0EDFA40234FF48042BE
S2140077C808213046CDE90444CDE90286CDE90047D4
S2140077D8FFF738FE324639464FF4D83003F0DAFA67
S2140077E8102322460621CDE9017330464023CDE911
S2140077F8044403960094FFF725FE324639466C4843
S21400780803F0C8FA302344F20302CDE901730621D7
S21400781840233046CDE9044403960094FFF712FE51
S214007828FF2D7FF479AF0220FDF7E2FAFF283FF438
S21400783873AF0024012621270DAD294602225D4894
S21400784803F0A8FA4023CDE9027607224FF44071E8
S214007858CDE90444CDE900450220FFF7F3FD2946AB
S2140078680222554803F096FACDE9027620274023EF
S21400787844F210024FF44071CDE90444CDE90045C6
S2140078880220FFF7DFFD324629464C4803F082FA0D
S214007898402322460821CDE90444CDE90157039642
S2140078A800940220FFF7CEFD32462946444803F0EE
S2140078B871FA40234FF480420821CDE90444CDE90B
S2140078C80276CDE900450220FFF7BCFD3246294680
S2140078D83C4803F05FFA10232246CDE901530621FF
S2140078E84023CDE90444039600940220FFF7AAFD3E
S2140078F832462946344803F04DFA302344F2030250
S214007908CDE9015306214023CDE9044403960094AB
S2140079180220FFF797FDFFE60C231FFA88F159436C
S2140079287E6873181879C2062CD410F0400F0CBF66
S2140079384FF0400C4FF0800C9BF8002040078DF865
S21400794834203A888DF838C0715AADF83620ADF82C
S2140079583A104FF00001ADF83C10D97815D5022939
S2140079689E6800D9366831460DA8CDE90A232AF064
S2140079788FFDDDE90A23079921B130469BF80010F0
S214007988FCF764FD08F10108DCE602298CBF9E6856
S21400799803F10806E7E70134E4B2B2E6022D7FF405
S2140079A8BBAE46E7CC34002002B0010003B00100AD
S2140079B801B0010008B0010009B0010006B00100DE
S2140079C807B0010004B0010005B001009C34002097
S2140079D808B500200949FEF78DF80121FF20FFF7BA
S2140079E885FE27F030FF2AF003FF29F043FA2AF035
S2140079F805FE0022024B1A8008BD00BF647504000D
S214007A085C4000200E4A10B513884FF6FF7143F409
S214007A1800731380FCF7CCFFFF220446002019F001
S214007A2831FE024640B100200649FEF763F823F00F
S214007A3883FBBDE81040CBE7012CF8D010BD00BF93
S214007A485C4000207D750400DCE730B50024012585
S214007A5887B0CDE9044503959DF82C5002950A9DFC
S214007A68CDE90045FFF7EEFC07B030BD30B5002481
S214007A78012587B0CDE9044503959DF82850009464
S214007A88CDE901354023FFF7DDFC07B030BD37B53B
S214007A981D469DF81C300093069BFFF7E7FF04463B
S214007AA830B100902B460020034A0449FEF722F81E
S214007AB8204603B030BD00BFAC750400B1750400A5
S214007AC82DE9F04104460E4617465E4DDFF8A081C4
S214007AD88CB02622284602A903F05CF99DF80830E7
S214007AE8A34240F0A880BDF80A30B34240F0A38015
S214007AF89DF80C30BB4240F09E809DF8113053B183
S214007B08102301930DF1120300930022062120464C
S214007B184D4BFFF7BCFF9DF813304BB12023019364
S214007B2805AB0093002208212046484BFFF7AFFF1D
S214007B389DF815305BB1212301930DF116030093D0
S214007B4803224FF440712046414BFFF7A0FF9DF8F3
S214007B5818305BB1212301930DF11A030093042218
S214007B684FF4407120463B4BFFF791FF9DF81C30C1
S214007B7863B1212301930DF11E0300934FF4804255
S214007B884FF440712046344BFFF781FF9DF82030B4
S214007B985BB1202301930DF12103009301224FF4DA
S214007BA8407120462D4BFFF772FF9DF8223063B1D7
S214007BB8202301930DF12303009344F202024FF4AD
S214007BC840712046264BFFF762FF9DF8243063B1CC
S214007BD8202301930DF12503009344F203024FF48A
S214007BE8407120461F4BFFF752FF9DF826305BB1C9
S214007BF8212301930AAB009344F204024FF4407128
S214007C082046194BFFF743FF9DF82A3053B121232E
S214007C1801930BAB009307224FF440712046134B99
S214007C28FFF735FF2046324639462AF09DFD0020EC
S214007C380CB0BDE8F081013545457FF44AAF8B208E
S214007C48F6E700BF80400100C6750400CD75040045
S214007C58DB750400E5750400EF750400047604007F
S214007C6817760400297604003E7604004E76040053
S214007C788340010030B585B08DF80F3010231546C7
S214007C8800930A460DF10F030621FFF7EFFE0446A0
S214007C9830B100902B460020034A0449FDF72AFF1E
S214007CA8204605B030BD00BFAC7504006076040001
S214007CB830B585B0ADF80E302123154600930A4638
S214007CC80DF10E030621FFF7D1FE044630B10090F1
S214007CD82B460020034A0449FDF70CFF204605B052
S214007CE830BD00BFAC7504006076040070B588B07F
S214007CF88DF81830BDF830308DF81400ADF8161031
S214007D08ADF81A20ADF81C3003AA04AB02A905A8E2
S214007D180F9EFCF7D9FE10B9862008B070BD039DEB
S214007D282C7914F0100401D00120F6E7BDF838309D
S214007D382A460093049923460D98FDF74CFA20B975
S214007D48002EEAD0AB783370E7E720460249FDF705
S214007D58D1FE8920E1E700BF7376040070B50025E0
S214007D6886B040232A46062100950446FCF758FFAD
S214007D78002841D003799A073ED5402344F20302EF
S214007D88062120460095FCF74BFFA8B303799B070E
S214007D9832D5FE2301268DF816300DF1160344F26F
S214007DA80302CDE900530621402320460395029698
S214007DB8FFF79CFF0246F8B90DF11705CDE90260FA
S214007DC8CDE900058DF81700402306212046FFF769
S214007DD88DFF88B99DF81630B34202D0022B11D019
S214007DE80BB98DF8173010230022CDE90053062171
S214007DF840232046FFF729FE204606B0BDE870401F
S214007E080AF002BB9DF8173083F00103E9E72DE975
S214007E18F04F4FF0FD0BC9B09A460DF11B089DF8C0
S214007E28503108AFCDF80C80CDF808B0019705930F
S214007E3803890446009383790E46914641888288D2
S214007E484078FFF753FF054650B10090A3880020FE
S214007E5862883B49FDF74EFE284649B0BDE8F08FDC
S214007E6898F80080A8F14303012B06D8A3886288F7
S214007E783449FDF73FFE8D25EEE75A46394640461B
S214007E88FDF786F98346002853D0529B1BB1BDF8F0
S214007E984C3198424DD80023A8F14102012A079395
S214007EA85FFA8BFC36D838460CF1FF3C5FFA8CFE3E
S214007EB8254ADFF89CC0734525DB059B07A94FF0CC
S214007EC8040C0A6043BB18235E4320489FED1A7BC8
S214007ED8831918466246C03083ED307B33F04EF87F
S214007EE8B9F1000F01D089F80080BAF1000F01D06F
S214007EF8AAF800B0529B002BAED05A463946184610
S214007F0833F03CF8A8E710F8011F013351400CFB8A
S214007F1801F2D0E7059B3BB1234642466146384608
S214007F280096FDF703FD97E7BCF1080FD8D8394649
S214007F38C9E7012590E700BF000000000000000028
S214007F489D760400D2760400C59D1C81081000208A
S214007F58930100012DE9F04F00263746B346354613
S214007F68D1B00596644BB0B21B88834209D81DB1C0
S214007F7869882879FDF744FCFCF796FE51B0BDE801
S214007F88F08F0BAC2146FCF753FB34F084FE814699
S214007F986078FCF777FE002800F0AB802378002B8B
S214007FA840F0A78018234FF47A71544A1FFA86F8CF
S214007FB803FB0823D3F8B820A9EB0200A2894A439A
S214007FC8824200F2968093F8C8303BB9E389002BCA
S214007FD800F08F804B43834200F28B80FD23002203
S214007FE80DF11A09CDE9013210AB009320464B4635
S214007FF80DF11902F1B2FFF70AFF00286ED1BDF89D
S2140080081A30DA1C0493D2B2FDB13D4B61781B8856
S21400801813442A79914212D161886A8891420ED116
S214008028A279BBEBD21F0AD1228905998A4206D1CA
S214008038BB4248DD00203349FDF75CFD01E0BB424A
S214008048F8DC69882879FDF7DBFB94F906002E4BE7
S214008058C0431D68A379C00F4FEAD31B2B4BC00043
S214008068009322890A23618824F026FA63784FF061
S214008078000A2B714FF48A53FF27EB8023890DF1F2
S2140080881C09059349465FFA8AF01CF087FDC0B2C2
S214008098A0B999F80110627891420FD1B9F8021088
S2140080A8628891420AD1EA8899F80D1099F800007A
S2140080B82AF09AF9B84228BF3846C7B20AF1010A28
S2140080C8BAF1030FDED1A088FDF700F89DF8190075
S2140080D8FCF7E8FF049910A8FDF726F81823074AC6
S2140080E803FB0828002388F8C83034F0D4FDC8F805
S2140080F8B800013636E700BFD0360020081000204A
S214008108A23900202E77040070460020F54B0400A4
S21400811830B5002485B09DF820500394CDE901358C
S21400812800944023FFF7E2FD05B030BD2DE9F3418A
S21400813806460F4690461D46FCF776FE044680B176
S2140081489DF824304246009339463046089BFFF790
S214008158DFFF38B100902B460020044A0449FDF79B
S214008168C9FC0024204602B0BDE8F081715E040018
S214008178B17504002DE9F04F04468946904600255F
S214008188FF268FB005F5A030262204A9803002F01D
S21400819801FE9DF810305FFA85FBA34208D1BDF8B2
S2140081A812204A4504D19DF81420424500F0F48078
S2140081B8FF2E02D1002B08BF5E460135032DE1D104
S2140081C8FF2E00F0FB80AB46012706F5A03A0AF121
S2140081D8800A262204A9504602F0DCFD0DF11A0397
S2140081E80022062100932046754B0197FFF79EFF55
S2140081F807AB002208218DF8190000932046714B22
S2140082080197FFF793FF02250DF11E0303224FF493
S21400821840718DF81B00009320466B4B0195FFF7C5
S21400822885FF0DF1220304224FF440718DF81D00DE
S21400823800932046654B0195FFF778FF0DF126035E
S2140082484FF480424FF440718DF82000009320468A
S2140082585F4B0195FFF76AFF0DF129033A464FF485
S21400826840718DF82400009320465A4B0197FFF77B
S2140082785DFF0DF12B0344F202024FF440718DF8B6
S214008288280000932046544B0197FFF74FFF0DF147
S2140082982D0344F203024FF440718DF82A00009330
S2140082A820464E4B0197FFF741FF0CAB44F2040201
S2140082B84FF440718DF82C0000932046484B0195EA
S2140082C8FFF734FF0DAB07228DF82E0000934FF40E
S2140082D84071444B20460195FFF728FF9DF8203053
S2140082E89DF828208DF8320013441844C0B2B842CE
S2140082F81BD900250DF10F03009308224FF4407197
S2140083082046394B01978DF80F50FFF70FFF60B1E5
S2140083189DF80F30BB4241D0022B46D02BB98DF8C2
S2140083281D308DF820308DF83230B34526D0002326
S2140083382E4D012205F1B4012D48ADF816308DF802
S21400834818308DF81040ADF812908DF8148002F0B1
S21400835821FD294695F8B4300122013301F8B43FCF
S214008368234802F019FD05F1B4010122204802F065
S21400837811FD204695F8B4102AF028FA262204A9FA
S214008388504602F009FD20464A4641462AF0ECF9D6
S21400839800200FB0BDE8F08F5E4615E78DF8245034
S2140083A88DF828508DF83250BFE78DF824508DF898
S2140083B828508DF81D508DF82050B6E78920E8E73C
S2140083C8C6750400CD750400DB750400E575040069
S2140083D8EF75040004760400177604002976040076
S2140083E83E7604004E7604005977040008100020F4
S2140083F82387010037B51546012200920A46062152
S214008408FFF786FE044630B100902B460020034A4C
S2140084180349FDF76FFB204603B030BD715E0400CC
S2140084286076040037B51546022200920A460621F1
S214008438FFF76EFE044630B100902B460020034A34
S2140084480349FDF757FB204603B030BD715E0400B4
S214008458607604002DE9F0410B4686B004460F46C8
S21400846816464E4902460020FDF744FB4FF000082A
S2140084780123CDE9023805ABCDE900834246402307
S21400848806212046FFF732FC054640B1024644491D
S2140084984046FDF72FFB284606B0BDE8F0819DF85C
S2140084A814202AB937B900203E49FDF723FBF2E726
S2140084B8012FF8D082F0010300203B498DF81330D5
S2140084C8FDF718FB9DF813300DF1130783B310233F
S2140084D80022CDE90073062140232046FFF7B5FAAF
S2140084E8074630B13A4600203049FDF703FB3D46C3
S2140084F8D1E78EB1002120462D4A0DF11503FFF76E
S21400850879FF70B305212046FCF78EFC0028C2D000
S21400851820462AF015F9BEE708212046FCF784FC19
S2140085280028EFD020469DF8131013F00FFDE9E75A
S21400853846B908212046FCF777FC18B13146204694
S21400854813F004FD10230022CDE900730621402312
S2140085582046FFF77AFA07460028C3D1002EC9D16D
S214008568D0E79DF8153033B944F20101114A204688
S214008578FFF79EFBC6E744F2010120460D4A0DF1BF
S2140085881603FFF74FFF0028BCD1BDF81630002BA6
S214008598B8D144F20201084AE9E700BF667704004A
S2140085A8827704009B770400BB770400DB7704001F
S2140085B8C6750400F4770400FC7704000B6837B52A
S2140085C8DA7B002A63D1D97C012916D0022935D056
S2140085D800295CD12F4D0A462B681B685879FFF78F
S2140085E839FF044638BB2B6844F201011868234655
S2140085F8294A4079FFF75CFB1DE0264D2B681B686F
S2140086085879FFF727FF0446A8B92B681B685D79D9
S21400861844F201012846204A0DF10603FFF702FF3F
S21400862848B9BDF8063043B301234FF480412846C5
S2140086381A4AFFF71FFB204603B030BD154D2B68BE
S2140086481B685879FFF706FF04460028F3D12B6805
S21400865801461B68124A5D790DF105032846FFF7A7
S214008668C9FE0028E7D19DF80530002BD0D1234657
S21400867844F201012846084ABCE7234644F20201B0
S2140086882846084AFFF714FB0028CDD0D3E78124F4
S214008698D1E700BFCC360020F47704000A7804003F
S2140086A8C6750400FC77040037B500212C4A0DF186
S2140086B803030546FFF79EFE00284ED144F201014B
S2140086C82846284A0DF10603FFF7ACFE002844D1D9
S2140086D844F202012846244A01ABFFF7A3FE00280D
S2140086E83BD19DF803303BB3BDF806403CB9642245
S2140086F80621284603B0BDE8304027F0F7BD013C08
S214008708A4B2234644F201012846164AADF80640AC
S214008718FFF7CEFA002CEAD1234644F20201284697
S214008728114AFFF7C5FA2346214628460C4A03B0E5
S214008738BDE83040FFF79EBABDF80440002CD6D0FE
S214008748013CA4B2234644F202012846064AADF884
S2140087580440FFF7ADFA002CC9D103B030BD00BF06
S214008768C6750400F4770400FC77040070B5086842
S21400877886B0C37B002B40F03481C37C412B5AD093
S214008788422B00F09D80402B40F02B81964B97495A
S2140087981B6804AA1B685D7909F04EFE002840F0A5
S2140087A820819DF81020012A43D89DF81130022B0D
S2140087B83FD8012A01D1002B3BD14FF480412846EF
S2140087C88B4A0DF10E03FFF715FE044608BB9DF80D
S2140087D80E307BB9002228461146FFF73BFE0446BA
S2140087E8B8B9034644F201012846824AFFF760FA00
S2140087F804460EE0024601462846FFF7BBFC58B181
S214008808892520467C4B7D4A7D490095FDF772F9FF
S2140088182C46204606B070BD23464FF480412846B5
S214008828734A8DF80E40FFF725FA04460028D1D083
S214008838EFE78724EDE76C4B4FF480411B686C4AE2
S2140088481B685D790DF10E032846FFF7D3FD044635
S2140088580028DED19DF80E60002EDAD13246314669
S2140088682846FFF72DF948B18B243046624B654AF7
S21400887863490094FDF73EF92046B9E701234FF413
S214008888804128465A4A8DF80E30FFF7F3F900283B
S214008898AED144F201012846564A04ABFFF7C2FDA2
S2140088A80028A5D1BDF81020002AB2D1034644F20C
S2140088B802012846544AFFF7FBF90028A9D097E793
S2140088C8494B52491B6804AA1B685D7909F0B4FD38
S2140088D80146002840F085804FF6FF73BDF8122049
S2140088E89A427AD0BDF814209A4276D02846484A4A
S2140088F80DF10B03FFF77EFD0446002889D19DF88D
S2140089081030DB0703D59DF80B30002B81D044F2DE
S21400891801012846374A03ABFFF784FD00287FF499
S21400892867AF44F202012846374A0DF10E03FFF7F7
S21400893879FD00287FF45CAFBDF80E30EBB19DF8EA
S2140089480B20D2B9BDF8142044F20201934284BF2A
S2140089581346ADF80E2028462B4AFFF7A9F900283B
S2140089687FF446AF4FF6FF73BDF80C209A422AD123
S2140089780621284629F0A6FD4BE7BDF81220BDF8CB
S2140089880C3044F201019A4284BF1346ADF80C201D
S2140089982846184AFFF78CF900287FF429AFBDF857
S2140089A8143044F202012846174AADF80E30FFF795
S2140089B87FF9014698B901232846154A8DF80B30E9
S2140089C8FFF758F9CBE7BDF80E209A42D0D06422BC
S2140089D80621284627F08AFC1BE7852419E7044663
S2140089E817E7812415E700BFCC3600205FE70300B1
S2140089F80A780400F47704001F7804002C78040032
S214008A0860760400BD5E0400FC77040064E703009B
S214008A18C67504001FB502230022009303210DF13A
S214008A280E03FFF775FB38B9BDF80E00003818BFFF
S214008A38012005B05DF804FB0020FAE730B50446CF
S214008A4885B028B9154905B0BDE83040FDF752B8DD
S214008A580025134A134905702846FDF74BF8E07AB7
S214008A68114BFF2103EB401010F093FD616891B1A4
S214008A78B4F9083022899B1303F002038DF80430FA
S214008A88C2F30E03ADF806304FF6FF730395ADF844
S214008A98083001A8884705B030BD00BF317804000B
S214008AA8FA31040063780400EC41002010B504464F
S214008AB8FCF770FE0E4B9C4211D003F12002944244
S214008AC80FD003F1400294420DD060339C420CD183
S214008AD80323084800EB0310BDE81040AEE7002368
S214008AE8F7E70123F5E70223F3E70020F4E700BFE2
S214008AF8EC410020E814002038B5044643680846D0
S214008B080D469847B4F90830002B02DB2B78042B67
S214008B1805D1002320466360BDE838408EE738BD9F
S214008B280EB433B5044605A951F8040B054D01915A
S214008B382C8009F0D7FB2C8002B0BDE8304003B08B
S214008B48704700BF3A33002030B50024214D89B065
S214008B582B88A0B2834201D809B030BD03A9FBF721
S214008B6867FDA2B202201C49FFF7DAFF9DF80D2028
S214008B781AB39DF81210BDF81030402914BF6E21A4
S214008B8879210220CDE90031BDF80E301349FFF7F0
S214008B98C7FFBDF814201AB102201149FFF7C0FF1D
S214008BA89DF80C30BDF818206BB9079B0D4900934B
S214008BB8BDF81A300220FFF7B3FF02200A49FCF777
S214008BC899FF0134C4E7BDF81C30084900939DF8A6
S214008BD81A30EFE7D0360020707804007678040064
S214008BE899780400A3780400F54B0400CA780400BA
S214008BF810B5314C012204F1B4018EB02F4802F0B2
S214008C08C9F894F8B420032300202D49FCF772FF16
S214008C18002404F5A030262204A9803002F0BAF811
S214008C28224600202749FFF77BFF9DF81020002AE0
S214008C3839D0BDF81630002001939DF8143022492B
S214008C480093BDF81230FFF76BFF00209DF8182040
S214008C581E49FFF765FF00209DF81A201C49FFF7FC
S214008C685FFF00209DF81C201A49FFF759FF0020D7
S214008C78BDF82230BDF81E201749FFF751FFBDF892
S214008C88343000200393BDF83030BDF82620029318
S214008C989DF82D30114901939DF82B3000939DF8CF
S214008CA82930FFF73DFF00200D490134FCF722FF6D
S214008CB8032CAED10EB010BD08100020238701008B
S214008CC8F27804001979040020790400E3DC040033
S214008CD88E770400427904004C7904005D7904001C
S214008CE8F54B04002DE9F74F0E9D884691461C4625
S214008CF80746BDF830B0BDF83460002831D00346CA
S214008D08454A00204549FFF70BFF2388002B72D001
S214008D1840F20912934270D0414A4249B3F5827F25
S214008D2808BF0A4601966188002000913E49FFF771
S214008D38F7FE23888BB1022E0FD92B783B4913F008
S214008D48010F3B4A18BF0A465B074FF000004CBFAE
S214008D582B79AB783749FFF7E3FE00203649FCF756
S214008D68C9FE0023354931F833205A4547D1344ADD
S214008D7852F833A0002331F83300DA00584544D1BE
S214008D8800202F490A44908041F833002DB395F807
S214008D9800B01BF0010F20D01BF0040305D03246AC
S214008DA801212846FCF7E3F90346B4B1AEB11BF03F
S214008DB8080F0CBF8022402261882079FCF71AF839
S214008DC858B10821FCF756F9834630B13346224697
S214008DD849464046CDE90057D847BAF1000F18D0A3
S214008DE83346224649464046D446CDE90C5703B09A
S214008DF8BDE8F04F6047134A94E7134A92E70133F9
S214008E080A2BB0D14FF0000AB4E701330A2BB2D1CF
S214008E18BCE703B0BDE8F08FF72A04009079040099
S214008E28882C04007E7904009E7904008179040069
S214008E3889790400CF790400F54B040054430020D8
S214008E4850430020777904007B7904002DE9F04729
S214008E58022904460D4616461F46BDF820809DF892
S214008E682490DDF828A009D840B10A4A002092F8D4
S214008E784436013382F8443621F0BEFD3B4632467E
S214008E8829462046CDE9099ACDF82080BDE8F04766
S214008E9828E700BF0810002007B5094A03461088CF
S214008EA829B9084A084903B05DF804EB38E600918A
S214008EB8064A0749FFF734FE03B05DF804FB00BF17
S214008EC83A330020856404000B2D0400296504004D
S214008ED872390400F8B505460C461F46064B8E1830
S214008EE81880B44200D1F8BD3946284614F8012B3C
S214008EF8FFF716FEF5E700BF3A33002070B52B4E95
S214008F08054696F8D6350C46002B4DD00020284A44
S214008F182849FFF705FE032C01D0652C2BD12649DE
S214008F280020FFF7FDFD224600202449FCF7E2FD5D
S214008F3800202349FFF7F4FD082229460020214B8C
S214008F48FFF7C8FF00202049FCF7D4FD032C16D9EC
S214008F58002386F8D6351D4D95F839306A7A9A4238
S214008F6813D9652C11D00133686885F83930BDE807
S214008F787040FBF7EDBC012CD5D01549D0E7EAD1F7
S214008F882046BDE87040FDF7C3BD0023204685F89F
S214008F983930FDF7BDFD28680028E8D1BDE87040E7
S214008FA8FF210C4810F0F5BA70BD00BF081000206D
S214008FB85C730400723F0400E27904004F7B0400EF
S214008FC8007A040050DD0400F54B040034500020FD
S214008FD8F87904000040002011F8012B024BFF2A04
S214008FE808BF002276E700BFBE3704002DE9F04F21
S214008FF81C46C37C95B0DDE91E5805932B78894638
S214009008FF2B08BF002387890792027D063FBF1AF9
S214009018FF1A0368984A5B7905980693079B01949C
S21400902800930B469549BFB2402818BF0A46002051
S2140090389349FFF775FD29460020FFF7CDFF00206E
S2140090489049FFF76DFD414600203A468E4BFFF7E4
S21400905841FF00208949FCF74DFDB9F1000F27D0E4
S2140090684946069812F074FA10BB8523874A126898
S2140090781279012A17D8059A0093A2F140014A42AC
S2140090884A410799824BCDE90191920105210920B1
S214009098FCF7AAF9FCF738FC034620B100207D4A05
S2140090A87D49FCF727FD6FF0FF0015B0BDE8F08F8F
S2140090B800254FF0FF0A05F5A030EBB226220AA9D4
S2140090C88030089301F066FE9DF82830069A934291
S2140090D808D1BDF82A204A4504D19DF82C200799C6
S2140090E88A426ED0BAF1FF0F03D1EAB2002B08BF4E
S2140090F892460135032DDED1BAF1FF0F00F02C8120
S21400910808950AF5A0338033262218460AA909933B
S21400911801F040FE059B0025402B01BF0A22B4FB48
S214009128F2F202EB8203A4EB430312BF00231446B9
S214009138DBB2ADF82E408DF830308DF831508DF812
S21400914833508DF835508DF838508DF83C508DF8E2
S21400915840508DF842508DF844508DF846508DF8A2
S2140091684A50BD4230D3089B9A4523D0069B4B4CA9
S2140091788DF82830079B012204F1B40148488DF881
S2140091882C30ADF82A9001F005FE214694F8B4304C
S2140091980122013301F8B43F414801F0FDFD04F116
S2140091A8B40101223E4801F0F5FD94F8B410069883
S2140091B829F00CFB262209980AA901F0EDFD0023E8
S2140091C854E7DDF820A09CE7AB1CBB4280F2C680C3
S2140091D89BB218F80360EC1CA4B2002E00F0BA800C
S2140091E8A3199F42C0F2BA803A4629464046FBF782
S2140091F8BEFF082812D0B0F5407F18D006280AD13E
S2140092084FF001038DF8313018F80430003B18BFD2
S21400921801238DF832302644B5B2A2E74FF0010399
S2140092288DF8333018F804308DF83430F3E7012E13
S214009238F1D0012321463A4640468DF83530FBF7F3
S21400924896FFA6F1020B5FFA8BFB6C1DBBF1010FB4
S214009258ADF83600A4B20CD901233A46214640465A
S2140092688DF83830FBF783FF059BADF83A00402BA6
S21400927818D05E46CFE700BF4F6E0400F54B0400DB
S2140092880A7A0400337A0400FE340400CC36002040
S214009298776E0400377A0400866E040008100020F3
S2140092A823870100331FDBB2EC1D012BA4B24FD974
S2140092B84FF0010B21463A4640468DF83CB0FBF786
S2140092C856FF05F10904062EADF83E00A4B23DD0BF
S2140092D818F80430072E05F10A048DF840B08DF80A
S2140092E84130A4B232D018F80430082E05F10B0429
S2140092F88DF842B08DF84330A4B227D018F8043061
S21400930805F10C048DF84530A6F10903DBB25B4580
S2140093188DF844B0A4B21BD921463A4640468DF88B
S21400932846B0FBF724FF0B3EF6B20E355E45ADF8A9
S2140093384800ACB27FF66FAF3A46214640468DF8F5
S2140093484AB0FBF714FFADF84C0064E7002662E766
S2140093581E4660E7254604E7892387E6802385E6D8
S2140093682DE9F0430C6893B0E37B002B40F0428273
S214009378E37C062B00F23E82DFE813F007002E029D
S2140093887201DD00F00193001F002046A34908AAD9
S21400939809F052F8002840F02D820B9B20460193D6
S2140093A80A9B9DF822200093BDF82010BDF82430B3
S2140093B8FFF71CFE6FF0FF00BAE02046984905AAA2
S2140093C809F03AF80546002840F014829549BDF899
S2140093D81420FCF78FFBBDF81410934E002951D1CA
S2140093E80024924F012207F1B401914801F0D2FC03
S2140093F8BDF814300622029397F8B4300521C3F15D
S2140094080303CDE9004309208A4BFBF7EDFF44BB75
S214009418894D8A4F2622284608A901F0BBFC3368E6
S2140094289DF820201B685B799A420ED1BDF8222051
S214009438BDF814309A4208D104F148039DF8242058
S2140094486B44013403F8302CE4B20135BD42E1D157
S2140094582046FBF727FE002506AFEBB29C421AD83B
S214009468254633681B79012B01D9002DA2D0FCF7BD
S2140094784BFA034600289DD0714A00207149FCF734
S21400948839FB97E733681B68587912F061F80028AB
S214009498A6D18524A5E717F8010BFBF703FE0135CF
S2140094A8DBE72046684906AA257D08F0C5FF0028A0
S2140094B840F0A081A38904359D42A4BF4FF6FF73F0
S2140094C8ADF81C30BDF81C30574D009300209DF8B1
S2140094D81A30BDF818205D49FCF70CFB2B68BDF860
S2140094E818601B689DF81A905F79CEB9524CDFF861
S2140094F84C812622204608A901F04CFC9DF8203015
S214009508BB4208D1BDF82230B34204D19DF82430BE
S2140095184B4500F0718101344445EAD18B2406E0BE
S2140095283146384612F014F80028DFD18524204644
S21400953813B0BDE8F0832046454906AA08F07CFF2C
S2140095480446002840F056814249BDF81820FCF72A
S214009558D1FABDF81810344E002940D1364DDFF840
S214009568DC802622284608A901F014FC33689DF8FA
S21400957820201B685B799A421ED1BDF82220BDF8D0
S21400958818309A4218D10023284F262208A92846C0
S2140095988DF8203001F000FC012207F1B4012448C0
S2140095A801F0F8FB394697F8B4300122013B204811
S2140095B801F8B43F01F0F0FB01354545D1D13368D9
S2140095C81A4D1B6805F1B4015F790122184801F0AD
S2140095D8E1FB384695F8B41029F0F8F807E0336848
S2140095E81B68587911F0B4FF0028B7D18524336872
S2140095F81B79012B3FF6DEAEBDF818300322052195
S214009608CDE900430920144BFBF7EEFEFCF77CF986
S214009618034600283FF4CEAE104A2EE76BE7030059
S21400962876E70300417A0400CC36002008100020B4
S214009638238701005F7A0400804001008340010010
S214009648637A0400866E040079E70300787A0400DB
S21400965880E703009F7A0400607A0400BA7A040060
S21400966820467D4906AA08F0E7FE0446002840F092
S214009678C1807A499DF81A30BDF81820FCF73AFAE6
S214009688BDF81810764E002941D1764D764F262221
S214009698284608A901F07EFB33689DF820201B6841
S2140096A85B799A4255D1BDF82220BDF818309A4207
S2140096B84FD19DF824209DF81A309A4249D10023AC
S2140096C828466A4D08A926228DF8203001F064FB4A
S2140096D805F1B4010122664801F05CFB294695F8BD
S2140096E8B4300122013B01F8B43F614801F054FB55
S2140096F8336805F1B4011B6801225F795C4801F004
S21400970849FB384695F8B41029F060F807E0336846
S2140097181B68587911F01CFF0028B6D185243368D9
S2140097281B79012B3FF646AE9DF81A3002220293AB
S214009738BDF818300521CDE9004309204D4BFBF74D
S21400974853FEFCF7E1F8034600283FF433AE4A4AD6
S21400975893E60135BD429AD18B24E0E72046474977
S21400976808AA08F069FE002844D13D4D9DF822302D
S214009778BDF820204249FCF7BDF92B68BDF820400B
S2140097881B689DF822705E79F4B93A462146304641
S214009798FEF7F0FC2B681B79012B3FF60BAE9DF805
S2140097A8223004220293BDF820300521CDE90003BB
S2140097B8304B0920FBF718FEFCF7A6F803460028EE
S2140097C83FF4F8AD2F4A58E62146304611F0C0FE61
S2140097D80028DAD18520DDE720462B4908AA08F0BC
S2140097E82BFE38B920469DF82220BDF82010FCF73D
S2140097F80BFCDFE581209BE62B68BDF818401B684C
S2140098089DF81A705E7934B12146304611F0A0FEF4
S21400981800283FF48BAE21463A463046FEF750F90C
S214009828044600287FF47AAE2B684FF480421B6803
S2140098380621587901238DF814301023009305ABC0
S214009848FEF714F9024600283FF471AE20460F4989
S214009858FCF750F96BE600BF83E70300CC7A0400F8
S214009868CC3600208040010083400100081000200C
S21400987823870100776E0400EB7A040088E703006C
S214009888F87A0400167B04008DE70300CD3D04003B
S2140098982DE9F04F0C689DB0E37B43B9E37C412B80
S2140098A800F00881422B04D0402B00F0ED80812088
S2140098B8D4E02046874905AA08F0BEFD07460028DA
