S01D00006275696C642F64656275672F6F742D626C652D646D702E733337B1
S315080060000812002095310208892002088D2002080E
S31508006010EB2506089120020899200208B70706080A
S31508006020B7070608B7070608B70706082159070875
S315080060309D2002089CE20708C55807085B7F0708E9
S3150800604075300208B7070608B7070608B70706082F
S31508006050B7070608B7070608B7070608B707060802
S31508006060B7070608B7070608B70706088919030811
S31508006070A7850608B7070608B7070608B707060874
S31508006080B7070608B7070608B7070608B7070608D2
S31508006090B7070608593F0208B7070608B7070608EC
S315080060A0B70706089D3B02087D3B0208B7070608A6
S315080060B0B707060889AF04085DB80408234B070824
S315080060C01F4B0708D1AF0408394B0708274B0708A9
S315080060D02DB804082B4B07089DB8040805B9040811
S315080060E0B7070608B7070608B7070608B707060872
S315080060F05F170608B7070608B7070608B7070608AA
S31508006100B7070608B7070608B7070608B707060851
S31508006110B7070608B7070608B7070608B707060841
S31508006120B7070608B7070608B7070608B707060831
S31508006130B7070608B7070608B7070608B707060821
S31508006140B70706083DAD0208B707060825930708EE
S31508006150B9990408B7070608034B0708094B070847
S31508006160B7070608B7070608B7070608B7070608F1
S31508006180F0B5114A114C124E00F00105E3695F079C
S3150800619013D40DB9334213D103EA00078F4207D14E
S315080061A00B4A1A40002A14BF6FF001000020F0BD08
S315080061B0013AEBD16FF00200F9E74FF0FF30F6E74E
S315080061C06FF00100F3E700BF8096980000000350C7
S315080061D0020001000B4B70B5D96911F480310DD15D
S315080061E001244FF48072084E084DF46020462C6452
S315080061F01A61FFF7C5FF3464EC6070BD6FF00100EB
S31508006200FBE700BF000003500010035000200350B6
S315080062104FF4803238B50E4B0E4C9A66E56941F656
S31508006220713315400122E3630B4B0021DA60022328
S31508006230606121202361FFF7A3FF10B92120FFF732
S315080062409FFF0122054BDA600DB10023E36338BDD9
S315080062500090005000000350001003500020035027
S3150800626070B5134C6061E3695B071ED40E4656F899
S31508006270043B8D18A361AE420BD1042300212120D3
S315080062802361FFF77DFF58B9BDE870402120FFF76D
S3150800629077BF08210846FFF773FF10B1042323616F
S315080062A070BD56F8043BA361E5E74FF0FF30F7E70A
S315080062B0000003502DE9F84316464FF48032184B78
S315080062C089469A6603F51C33DA69074602F480386C
S315080062D041F67132DA63012203F58053114DDA6013
S315080062E066B930460122104BDA60B8F1000F03D0C8
S315080062F00022A3F50053DA63BDE8F88307F50054D6
S315080063002C40E41BB44228BF344649462246384648
S31508006310FFF7A6FF0028E5D12744A144361BDFE78F
S315080063200090005000E0FFFF00200350000000002E
S31508006330000000000000000000000000000000004F
S315080063402DE9F3411E461C4B044683424FF00003D9
S315080063508B4115460AD216A3D3E900232BF0CCFFAE
S3150800636016491446024628464AF0AAFC144B4EF62D
S315080063706021B4FBF3F203FB1244B4FBF1F34FF4D0
S315080063807A7801FB1344B4FBF8F728460D490097C1
S315080063904AF096FC46B1284608FB17420A4902B05D
S315080063A0BDE8F0414AF08CBC02B0BDE8F08100BF00
S315080063B0005C260500000000FF5B2605D8B107082B
S315080063C080EE3600DEB10708EDB1070800000000D0
S315080063D073B559F0DFFC044600286ED13A4B01AE7E
S315080063E01A889B78ADF80420B3701AF003F91AF0EE
S315080063F00FFE1AF06DFD0546344B03601AF0F8FFE0
S3150800640028461AF001FF00B9FEE72DA3D3E90023B9
S315080064104FF0FF314FF0FF301AF0F4F81AF05CFD38
S3150800642021461AF0B5FD59F0B8FC30461AF0AEFE12
S31508006430044600B1FEE7264B264A98801860264B8C
S3150800644098801A60254B264A98621A60254A9880D1
S315080064506FF06300DA6000F07FFB0B201AF08AFD0C
S315080064601AF0E8FD1AF02EFD00B9FEE722F096FDB7
S31508006470204659F056FE0821084659F059FE00B143
S31508006480FEE759F04CFE1AF073FC59F097FD1021FF
S3150800649015485CF01BF900B9FEE7144912485CF090
S315080064A027F900B9FEE710218C20114A22F0B4F929
S315080064B000B1FEE70F4847F064FF02B070BD00BFA9
S315080064C00AE020FFE2030000D6DC070855FF0508AE
S315080064D0884F00209D8F0020584F0020284F00200D
S315080064E01D8F0020184F0020DC570020397E070832
S315080064F0CC570020D7B307082DE9F04389B059F0E7
S315080065003AFC00B9FEE75C4D2B6803B9FEE70122A9
S315080065109B8811460DF10B008DF80B301AF0ECFD37
S315080065209DF80B102B6802390022186889B21AF0F8
S31508006530E3FD002305930793504B05AE06932B689E
S3150800654093F82C208DF814201B681C7814F020046E
S3150800655014D059F0E8FD00285ED059F0E4FD2BF080
S315080065601FFC0B46024640A1D1E900012BF0BCFDF9
S315080065702BF0A2FE079B1844012407901AF000FE90
S315080065809DF80B300633002849D0D8002BF018FCAC
S3150800659037A3D3E900232BF07DFC894680461AF001
S315080065A0EFFD2BF0FDFB0B460246494640462BF015
S315080065B09BFD2BF081FE079B1844079059F0E2FBE0
S315080065C038B11AF043FD002059F0D8FB002059F0E5
S315080065D0DCFB2A6853696BBB59F0F0FBD5F800C0A1
S315080065E008B3079B264F03F5FA7307939CF81830F0
S315080065F0BB701AF025FDF870286833463A462146DE
S3150800660080791AF05BFD58B34FF48051002071F081
S315080066102AFC59F0CDFE23E00798C030ACE707986E
S3150800662000EB4310C9E7324621469CF806001AF0EB
S315080066303BFDE8E700210491116912480B449621B5
S31508006640A3F59B7381800393907921460D4B0096A1
S3150800665003AA1AF041FD0028D6D1012059F0B9FB4A
S3150800666009B0BDE8F08300BF0000000060E36641A2
S315080066700000000080842E41C857002020A1070092
S3150800668030960020249600200348044B834202D00B
S31508006690034B03B118477047909900209099002042
S315080066A000000000064B0749C91A891048BF013186
S315080066B0491003D0044B0BB101481847704700BF77
S315080066C090990020909900200000000010B5064C13
S315080066D0237843B9FFF7D8FF044B13B10448AFF347
S315080066E000800123237010BD7E8700200000000073
S315080066F0A04C080808B5054B1BB105490548AFF37A
S315080067000080BDE80840FFF7CDBF00BF00000000CD
S3150800671068560020A04C0808A3F5803A704700BFC9
S31508006720174B002B08BF134B9D46FFF7F5FF0021BB
S315080067308B460F461348144A121A62F006F80E4B97
S31508006740002B00D098470D4B002B00D0984700200F
S31508006750002104000D000D48002802D00C48AFF3B4
S3150800676000802CF083F9200029005BF05CFF2BF0F9
S31508006770A1FF00BF000008000000000000000000A4
S315080067800812002008120020C09300200000000014
S3150800679000000000094A138873B9094B1988094B88
S315080067A01B88C3F580608142C8BF81B2118019B1C8
S315080067B00548184419F0DEBE704700BFE48600207D
S315080067C0E6860020E8860020808700200749084AD8
S315080067D00B8810880344C3F309030B8005490B880B
S315080067E01B1A0B8000231380FFF7D4BFE88600200E
S315080067F0E4860020E68600202DE9F743364F0E464C
S31508006800B7F800901346B9F1000F1BD10A46334872
S315080068104FF480612CF0D6F8B0F5806F044607D3A4
S3150800682031462F4847F0AAFD204603B0BDE8F0835D
S315080068302C4B3880A3F800902B4BA3F80090FFF759
S31508006840A9FFF1E7DFF89C802448B8F800500192C8
S31508006850A944C9F309094D458CBFA5EB0905C9F536
S315080068608065ADB20A46484429462CF0ABF8041EAA
S3150800687004DA31461A4847F081FDE0E7A54203DD10
S315080068803B8823443B80DAE7B4F5806F09DB314661
S315080068901648F0E7FFF77EFF19F02EFE28B9FFF736
S315080068A095FF3B88002BF5D105E06BF035FB0146DB
S315080068B00F4847F063FD32464FF48061019B074855
S315080068C02CF080F8041E00DCFEE70023064A3C8014
S315080068D0A8F800301380B2E7E686002080870020FB
S315080068E0A8960708E8860020E4860020E2960708AE
S315080068F0C99607082DE9F04107460E46154C164D70
S3150800690023883846C3F580639BB2B34228BF334613
S31508006910B5F800E007EB030C104F0AE0228810F8E0
S31508006920018B0EEB0201C1F30901013207F8018060
S3150800693022806045F2D1F31A9EB20746FFF72AFF76
S315080069402EB119F0D9FD10B9FFF740FFD8E7BDE819
S31508006950F08100BFE6860020E886002080870020B8
S31508006960F8B50546284C4618AE4200D8F8BD2B782F
S315080069700D2B26D011D8082B11D00A2B1DD0238811
S31508006980B3F5FF7F2FD801212846FFF7B3FF2388E9
S3150800699029785A1C22801D4A0DE07F2BEFD12388C7
S315080069A00BB303211A48FFF7A5FF00212388174ACE
S315080069B0013B9BB22380D15415E0164B1B780D2B57
S315080069C011D002211448FFF795FF00229446238828
S315080069D00E49CA545F185BB902B123800B486BF0A5
S315080069E03AF80023238015F8012B0A4B1A70BBE7E7
S315080069F017F8010D0A2801D00D28EDD1013B9BB2ED
S31508006A00012201F803C0E6E7EA860020808B002011
S31508006A1053CC07087F87002051CC0708002310B500
S31508006A200446084A1380084A1380084A1380084A0D
S31508006A30138019F047FD22462046BDE81040054957
S31508006A406AF0FABFEA860020E8860020E68600207B
S31508006A50E4860020F967000838B5084DD5E8AF3F49
S31508006A6013F0010408D1284659F058FC20B1044B0C
S31508006A7028461C6059F057FC014838BD805600204E
S31508006A808456002070B51348D0E8AF4F14F00104BF
S31508006A9018D159F043FCA8B10F4D2E4646F8044BC1
S31508006AA0301910220021103461F04FFEA02CF7D1C6
S31508006AB00B220A4B013A194603F1100304D1054883
S31508006AC059F031FC044870BD286843F8100C296059
S31508006AD0F0E700BF885600208C560020905600200C
S31508006AE02DE9F041884615461E4646F010FB074636
S31508006AF050B35EB30379990748BF86F80080C3F39D
S31508006B004004037948BF01245A070ED5114B29467C
S31508006B1093F9000052F03AFE822302B2C2EB022237
S31508006B20B2FBF3F232559CB901243B791B0708D511
S31508006B3082228235C5EB0525B5FBF2F5631C355572
S31508006B40DCB22046BDE8F0810446FAE73446F8E7A9
S31508006B500224F6E7808D0020014B187046F0FBBA38
S31508006B60808D002070B5049D0C46014600B12DB9F4
S31508006B70C621064B064A07482BF07EFD0493284695
S31508006B8013462246BDE8704007F012B8FC9607087F
S31508006B900D9807086E97070808B530B940F209112D
S31508006BA0074B084A08482BF067FD038823F4FF4380
S31508006BB043F45063038004230370062008BD00BF16
S31508006BC071980708829807086E970708131D70B50D
S31508006BD0DBB2144630B940F217110D4B0D4A0E4878
S31508006BE02BF04AFD068803F07F0326F4FF4606804D
S31508006BF003709B238370B823C370EA2303710023B1
S31508006C00437111B1063061F0EBFDA01DC0B270BD35
S31508006C1071980708B49807086E97070808B5034AD5
S31508006C200349083047F045F8002008BD01990708D0
S31508006C30DE9B07080B6810B5044608464BB96BF08F
S31508006C4083F90246084904F1080047F032F80020A3
S31508006C5010BD064958F083FB18B140F24522044995
S31508006C60F1E72320F4E700BFDE9B0708079907082A
S31508006C7088A6070870B50B68044694B0084683BB17
S31508006C8054F8080F02A96BF0FCFC2046BDF8082052
S31508006C90194947F00EF82046BDF80A20174947F06B
S31508006CA008F82046BDF80C20154947F002F80926D1
S31508006CB0144D013E05F1080502D1002014B070BD3F
S31508006CC055F8083C02AA1A4402A9CB5A516820462C
S31508006CD0019152880C49009255F8042C46F0E9FFB8
S31508006CE0E7E70A4958F03BFB18B1A0686BF0D6FCF9
S31508006CF0E3E70720E2E700BF0B990708159907089D
S31508006D001E990708D8D307082B990708AF9F0708C5
S31508006D100B68F7B504460D4673B90834204665492D
S31508006D2046F0C7FF2046644946F0C3FF204663493C
S31508006D3046F0BFFF002040E028465F4958F00FFBA9
S31508006D40002843D06B6893BB54F8080F6BF070FAB1
S31508006D505B4902680546204646F0ABFF1127594EA7
S31508006D60013F06F1080616D120466A6C564946F0D8
S31508006D70A0FF1127554E013F06F10806DAD056F84E
S31508006D80083C0421EB582046009356F8043C504A28
S31508006D9046F0A0FFEFE756F8083C0421EB582046DA
S31508006DA0009356F8043C4A4A46F094FFD8E7494906
S31508006DB0281D58F0D4FA10B9072003B0F0BDAB6807
S31508006DC0002BF9D1A0686BF07AFBB3E728463B495C
S31508006DD058F0C5FA002842D06B689BBB54F8080FD8
S31508006DE06CF007F80B2607463B4D013E05F10805F2
S31508006DF00FD10626394D013E05F1080513D1204667
S31508006E00374946F0FFFED7E91023204646F010FF23
S31508006E1090E755F8083C2046FB5A55F8042C3149AA
S31508006E2046F047FFE1E7204655F8042C2E4946F080
S31508006E30E9FE55F8083C20463B44D3E9002346F0D2
S31508006E40F7FED8E72349281D58F089FA0028B3D059
S31508006E50AB68002BB0D1A0686CF05FF96AE72846EA
S31508006E60144958F07CFA0028A6D06B68ABB954F8D8
S31508006E70080F6BF0B2FF052607461C4D013E05F1CB
S31508006E8008053FF457AF55F8083C2046FB5855F817
S31508006E90042C0F4946F00DFFF0E70E49281D58F05F
S31508006EA05EFA002888D0AB68002B85D1A0686CF004
S31508006EB029F93FE76CA2070878A2070885A2070800
S31508006EC03999070810D307084E99070890D207087A
S31508006ED046990708AF9F070840D2070818D207083F
S31508006EE0729907085B99070862990708F8D1070895
S31508006EF00B6870B504460D4663B954F8080F6BF075
S31508006F00A5F828B10E49204646F0D3FE002070BDEC
S31508006F100C49F8E728460A4958F021FA064628B1E6
S31508006F200121A068BDE870406BF008B928460549FC
S31508006F3058F015FA08B13146F3E70720E7E700BF2E
S31508006F4034BE07088799070837B504466946806836
S31508006F506BF0AAFF0546E8B908342046009A0F499F
S31508006F6046F0A7FE20469DF804200D4946F0A1FEEE
S31508006F7020469DF805200B4946F09BFE20469DF8C5
S31508006F800620094946F095FE20469DF80720074940
S31508006F9046F08FFE284603B030BD00BF8C9907081F
S31508006FA09E990708B3990708AC990708C499070872
S31508006FB00B6837B50446084683B9A0686BF020F914
S31508006FC004F10805014618B1A0681AF0CDF9014682
S31508006FD0284604F0D5FB002003B030BD0DF10701AB
S31508006FE004F032FC0028F7D19DF807201AB911469B
S31508006FF0A0686BF089FA9DF80710A0686BF0BEF9D7
S315080070000028E9D19DF80730002BE4D02246024932
S31508007010A0686BF079FADEE791D3040870B50446E8
S3150800702080680E4651F0DBF805466AF08DFF85420A
S315080070300CD03046074958F092F948B104F10800D7
S315080070402A46054946F035FE002070BD0C20FCE7AF
S315080070500720FAE7169E0708DE9B070810B50446C0
S3150800706054F8080F6BF0ECFF03490246204646F039
S3150800707020FE002010BD00BF6F9D0708024B034A83
S31508007080083046F051BE00BF973307087F3107081E
S3150800709010B500F1080480686BF01BFE044B054927
S315080070A0002808BF1946204646F003FE002010BDFA
S315080070B0DE990708D999070870B50E6804460D4683
S315080070C066B954F8080F6BF0A0FE6BF00EFE18496F
S315080070D00246204646F0EDFD304670BD2846154965
S315080070E058F03DF920B1A068BDE870406BF0A5BE28
S315080070F02846114958F033F920B1A068BDE8704018
S315080071006BF08FBE28460D4958F029F920B1A068C2
S31508007110BDE870406CF071B82846094958F01FF967
S3150800712020B1A068BDE870406CF05BB80720D4E7D2
S31508007130DE9B0708E4990708ED990708F3990708FD
S31508007140FA99070810B50B68044686B008466BB965
S3150800715054F8080F182269466AF050FF6A46204616
S315080071600A4946F0A6FD002006B010BD084958F0A9
S31508007170F6F848B154F8080F6AF01CFF02460B46A9
S31508007180204646F055FDEEE70720EDE7DE9B0708AB
S3150800719058A8070838B50C4605460949204658F048
S315080071A0DEF858B164684CB96BF01CFA054902461A
S315080071B005F1080046F07DFD204638BD0720FCE7AE
S315080071C0019A0708059B070838B50D687DB900F1CF
S315080071D008042046074946F015FD2046064946F0AC
S315080071E011FD2046054946F064FD284638BD232092
S315080071F0FCE700BFC0A90708079A070807A90708F8
S3150800720070B50C680D460646094924B9083046F09B
S3150800721050FD204670BD284658F0A1F830B1291D0A
S3150800722006F19400BDE8704003F0BEBF2320F1E7E5
S315080072300C9A070838B50C680546084624B9A868A4
S315080072406AF0EBFE204638BD054958F088F820B1AB
S31508007250A868BDE838406AF081BE2320F3E700BF7E
S31508007260139A070830B50D68044687B07DB954F8F7
S31508007270080F6BF007FF152269466BF027FF2046BB
S315080072806A46044946F015FD284607B030BD072072
S31508007290FBE700BFDE9B070810B5044608460A4907
S315080072A058F05DF80346A0682BB1BDE810400022EF
S315080072B011466BF0CEBD224604496BF0CAFD002884
S315080072C008BF242010BD00BF1E9A07089DD30408D6
S315080072D038B50D68044655B954F8080F6BF0EAFE40
S315080072E004490246204646F0E4FC284638BD2320D9
S315080072F0FCE700BF9A9907080B6837B505460C46A0
S315080073009BB980680DF106016AF0C8FF044648B9C2
S31508007310BDF806209DF806300C49120A05F108004A
S3150800732046F0C7FC204603B030BD084658F010F8B2
S31508007330022809D12368A868198849BA89B203B00E
S31508007340BDE830406BF028B80724EBE7249A070815
S31508007350F8B50E4605461249304658F000F8074675
S3150800736028B10121A868BDE8F8406BF0E3BD3046B6
S315080073700C4957F0F4FF044608B13946F2E730469F
S31508007380094957F0ECFF48B16BF066FE074902461B
S3150800739005F1080046F08DFC2046F8BD2320FCE7E1
S315080073A0CBAE0708299A0708169E070888A6070875
S315080073B038B505460C4641B9006890470449024667
S315080073C0284646F076FC204638BD0720FCE700BF75
S315080073D088A607082DE9F0430D6804460E4693B0C3
S315080073E095BB80686BF0FDFFA9468046AFB2B845ED
S315080073F003D8002013B0BDE8F0833946A06806AA72
S31508007400ADF806906BF015FF78B99DF84130C3F3D7
S31508007410C0021B0709D4ADF806203946A06802AB9E
S315080074200DF106026BF015FF08B10135DEE704F130
S3150800743008063046BDF830200B4946F0E3FB3046D7
S3150800744002A946F0FEFBE8E73046084957F087FFF1
S3150800745040B1074A716804F1080013B0BDE8F0436B
S31508007460FFF7A6BF2320C5E72E9A0708F39E07084D
S315080074704334070838B505460C4641B900689047B5
S3150800748004490246284646F014FC204638BD072023
S31508007490FCE700BF9A990708024A09680830FFF70F
S315080074A0E9BF00BF9D1F070873B50C6805460E4661
S315080074B03CB120460DF1070157F007FF60B102B055
S315080074C070BD55F8080F6BF080FE0849024628463D
S315080074D046F0EFFB2046F2E773682BB99DF90710D3
S315080074E0A8686BF020FFEAE70720E8E7059B07088E
S315080074F07FB50C6805460E4664B955F8080F694607
S315080075006BF0F8FF28461022694646F088FB2046AD
S3150800751004B070BD4B685BB910226946204657F027
S31508007520FDFE0028F4D16946A8686BF018FFEFE75E
S3150800753030460A4957F013FF70B1A86876686BF0B1
S31508007540ECFB0446A8686BF0F4FB6B460246214642
S3150800755030466AF08BFAE4E70720D9E7359A070838
S3150800756030B5044600F1080502212846114B124A97
S315080075708DB004F02FF9A0686CF094F8044614B99D
S3150800758020460DB030BD2046302269466AF029FEF5
S315080075906A462846094946F035FB04F112003022AE
S315080075A069466AF01EFE6A462846054946F081FB8A
S315080075B0246BE4E738D107083CD10708389A07084E
S315080075C0419A07087FB500230C6805460E468DF8D4
S315080075D004308CB955F8080F6BF00EFD03A98DF829
S315080075E0080002A846F0F6FB18490246284646F067
S315080075F060FB204604B070BD3046154957F0AFFE13
S3150800760028B19DF80410A8686BF0BEFCF2E7326852
S31508007610013A12F8013F002BF3D06E2B11D0722BD2
S3150800762003D0642B08D00720E4E79DF8043043F024
S3150800763001038DF80430ECE79DF8043043F00203AB
S31508007640F7E79DF8043043F00403F2E7DE9B0708EA
S315080076500BC8070810B50446086886B008B30DF1CC
S31508007660170157F0ECFDD0B99DF817301F2B15D828
S31508007670012199400C4B02940193002300934FF685
S31508007680FF72A0686BF0F5FB48B904F10800072102
S31508007690064B074A04F09EF8242000E0072006B0AF
S315080076A010BD0146E6E700BF19D40408D4D107087F
S315080076B0DCD1070873B50D680446002D34D100F1F6
S315080076C0080603213046254B254A04F083F8A068AE
S315080076D0E9B26BF060FD00B3A90289B20DF10303AC
S315080076E0A0680DF10602ADF804106BF0F2FE1D4914
S315080076F02A46304646F086FA4FF6FE73BDF806204F
S3150800770030469A420BBF184B9DF803301A46174964
S315080077100CBF1749920A46F0CCFA01353F2DD6D14F
S315080077200025284602B070BD284601A957F098FDE5
S3150800773005460028F5D154F8080FBDF804100DF1D8
S3150800774003030DF106026BF0C4FE20469DF80330D4
S31508007750BDF80620074946F0ACFAE2E728D1070843
S315080077602CD107084B9A07080BC80708549A07082C
S31508007770609A07086C9A07087FB50C4600230546E9
S3150800778022492046ADF80E3057F0E9FD064610B1FD
S31508007790606800BB0434206838B30DF10D0157F05A
S315080077A04EFD00BB9DF80D301F2B1BD801249C40B5
S315080077B005F10800DEB10221154B164A04F00AF855
S315080077C000952146144BBDF80E20A8686AF051FDB5
S315080077D048B9242007E00DF10E0157F041FD10B914
S315080077E00834D8E7072004B070BD0446E0E7052151
S315080077F00A4B0B4A03F0EEFF00952146094BBDF8EC
S315080078000E20A8686AF020FDE2E700BF7B9A070809
S31508007810ECD00708F0D00708A1D30408D0D0070891
S31508007820D8D0070819D4040813B50446086868B9F7
S3150800783054F8080F6AF00FFA4FF47A720D49B0FB44
S31508007840F2F2204646F035FA00200EE04B6873B98E
S3150800785001A957F0B0FD40B94FF47A71019BA068B1
S3150800786059436AF0EAF90028EED002B010BD0720A5
S31508007870FBE700BF9A99070837B5054608680DF172
S31508007880070170B9A86819F08FFD044630B99DF94B
S3150800789007200A4905F1080046F00BFA204603B00E
S315080078A030BD57F012FD04460028F7D19DF90710A0
S315080078B0A86819F083FD0446F0E700BF8B9A07080D
S315080078C00B6837B504460D4673B980680DF1070194
S315080078D050F08BFC18BB9DF90720134904F10800EA
S315080078E046F0E7F900201AE02846104957F037FD18
S315080078F0B8B168680DF1070138B9A06850F075FC91
S3150800790068B99DF907200A49E8E757F0DEFC30B95F
S315080079109DF90710A06850F06AFC0028E2D003B071
S3150800792030BD0720FBE700BF829A0708929A07082E
S31508007930059B070837B5054608680DF1070170B9B4
S31508007940A86858F0FDFB044630B99DF907200A4996
S3150800795005F1080046F0ADF9204603B030BD57F0F2
S31508007960B4FC04460028F7D19DF90710A86858F01A
S3150800797078FA0446F0E700BF8B9A07080B68F7B554
S3150800798004460D46002B35D154F8080F6BF011FC50
S31508007990054603783B49032B96BF3B4A3B4A52F8B8
S315080079A02320204646F085F9687800F0010003F0A8
S315080079B0E3FD37490246204646F07BF96878C0F36E
S315080079C0400003F0D9FD33490246204646F071F9D6
S315080079D06878C0F3800003F0CFFD2F4902462046A1
S315080079E046F067F9204695F902202C4946F061F9D8
S315080079F0002044E00026244F284657F8041B57F079
S31508007A00AEFCC0B368680DF103018DF8046057F049
S31508007A10D6FCA0BB9DF805309DF80320A86862F344
S31508007A2000030DF103018DF8053057F0C8FC30BB93
S31508007A309DF805309DF80320E86862F341030DF1CF
S31508007A4003018DF8053057F0BAFCC0B99DF805302A
S31508007A509DF80320286962F382030DF106018DF86B
S31508007A60053057F032FC50B96B693BB9A06801A9DB
S31508007A706BF05AFDBCE70136042EBDD1072003B0D2
S31508007A80F0BD00BF9A9A0708B4D1070898D8070826
S31508007A90B09A0708C69A0708DC9A0708F29A0708F0
S31508007AA070B50D4604463C49284688B057F057FC41
S31508007AB0064600B104352B6813BB54F8080F6AF064
S31508007AC0D1FA05460DB9002030E02946204603F0D4
S31508007AD0ADFD86B1687C03F0DDFEA97C2B7CC1F385
S31508007AE040010191A97C024601F00101009120465E
S31508007AF02A4946F087F8204603F066FD6D69E1E7F6
S31508007B002846274957F02BFC90B1686802A957F018
S31508007B10FBFB58B9069BA0686FF3110343F4403387
S31508007B2043F4507302A906936AF0C2FA08B070BD0E
S31508007B3028461C4957F013FC50B1686802A957F04B
S31508007B40E3FB0028F2D1A06802A96AF0DBFAEDE7A8
S31508007B502846154957F003FC40B154F8080F6BF056
S31508007B6000F90146204646F06CF8ACE728460F496E
S31508007B7057F0F5FB20B154F8080F6BF016F9F0E74B
S31508007B8028460B4957F0EBFB20B154F8080F6BF069
S31508007B90F4F8E6E72320C9E7A6A10708089B070823
S31508007BA0319B0708109E0708359B07083F9B070867
S31508007BB0449B070830B50B6804460D4685B06BB97B
S31508007BC054F8080F6AF05AFA05460DB9002015E070
S31508007BD02946204646F035F82D69F6E728461D4918
S31508007BE057F0BDFB60B16946686857F08DFB28B948
S31508007BF06946A0686AF0B0FA0028E7D005B030BD3B
S31508007C002846154957F0ABFB50B16946686857F0E6
S31508007C107BFB0028F2D16946A0686AF0ABFAEDE76B
S31508007C2028460E4957F09BFB40B154F8080F6BF0F5
S31508007C308CF80146204646F004F8C7E72846084966
S31508007C4057F08DFB20B154F8080F6BF0A2F8F0E757
S31508007C502320D3E7319B0708109E07084A9B07088D
S31508007C60509B0708024B186800B9FEE7704700BF2B
S31508007C703057002038B50C4600F10805284603F0B1
S31508007C80D5FC228A28461D4945F0BCFFA37C284618
S31508007C90032B96BF1A4A1B4A52F823201A4945F065
S31508007CA0B1FFE27C2846194902F0010245F0AAFF15
S31508007CB0A37CE3B9E37C5B0714D5284614496269BB
S31508007CC045F0A0FF284604F1180103F0AFFCA37C99
S31508007CD0032B07D1E37C2846628D0E49C3F3400384
S31508007CE045F090FF2846BDE8384003F06DBC2846AD
S31508007CF0228D094945F086FFE9E700BF6E9D070812
S31508007D00C4D1070898D80708DD9B0708569B0708BB
S31508007D10639B0708839B0708779B070810B50B68C2
S31508007D2096B000938B880E49ADF804300D4B00F1E0
S31508007D300804002A18BF0B46029300232046ADF814
S31508007D40563003F041FC684646F021FB08B116B0F0
S31508007D5010BD2046044903AA45F0ABFFF3E700BF70
S31508007D609E9B0708A19B0708DE9B0708024A034952
S31508007D70083045F047BF00BF3CD00708DE9B070820
S31508007D80437F70B504460D4663B161B308466AF091
S31508007D90C3F82A460346144904F10800BDE87040B2
S31508007DA045F087BF037F03B9FEE724291BD000F1FE
S31508007DB0080671B930460D4945F07BFF002304F1EA
S31508007DC02000237704F070FB2046BDE87040FFF7DB
S31508007DD0CDBF08466AF0A0F82A460346024930464F
S31508007DE045F067FFEAE770BDA49B0708B19B070843
S31508007DF010B504460449083045F05BFF2046BDE847
S31508007E0010400021FFF7BCBFB69B070810B419B98C
S31508007E105DF8044BFFF7B4BF91F901300A785DF8B5
S31508007E20044B0249083045F044BF00BFC99B070808
S31508007E3070B504460D4611461A4645F0B8FE0026AA
S31508007E4023461A4AC4E90254A68343F8202FC4E9F4
S31508007E500A3422462946C4E90C5404F1380045F090
S31508007E6001FD2246294604F1400045F04DFE224612
S31508007E702946C4E92154C4E9235404F1940002F0C4
S31508007E80A9FE2246294604F1A00045F079FC2246BF
S31508007E90294604F1AC0045F063FD2046266166617B
S31508007EA0A661FFF763FF204670BD00BFB1D3040883
S31508007EB010B5054C13460A4601462046FFF7B8FF9B
S31508007EC0024B1C6010BD00BF08120020305700206E
S31508007ED0F0B50B6885B00393224B054600930C2337
S31508007EE00E46532220490DEB030047F0F9FF0446DE
S31508007EF078B1D0E90132511005EB6200D20748BFCC
S31508007F006A5806F1040148BFD35805B0BDE8F040E9
S31508007F1018473046154957F022FAC8B1124F05F1ED
S31508007F20080657F8242030461149033445F0C1FEA7
S31508007F30F92CF6D100242A7DE3B29A420FD92A6990
S31508007F40304652F833200A4945F0B3FE0134F2E7C9
S31508007F503146284605B0BDE8F04045F0D4B90020C2
S31508007F6005B0F0BD75D2040858CC0708D79B07089A
S31508007F70DE9B070830B50C460023A3B005464FF430
S31508007F80C0712046019348F0ECFDB0F5C07F10D2D1
S31508007F902046202201A917F0EFFD04466B7F5BB14E
S31508007FA04CB9019B3BB1284601A9FFF791FF04464E
S31508007FB007E00624F2E7FEE72B7F3BB901232B7780
S31508007FC064B121462846FFF7DBFE05E0074901A80C
S31508007FD057F0C5F90028F1D123B030BD019B002B1D
S31508007FE0E1D128462C77FFF7C1FEF5E718D4070834
S31508007FF0012370B5044625250E4E8EB04377013D04
S3150800800003D1284665770EB070BD56F8041B312299
S3150800801001A860F0AFFB002304F10800064901AA95
S315080080208DF8353045F045FE204601A9FFF7A2FF39
S31508008030E5E700BF40D00708DC9B070838B51D46B2
S31508008040094B14461B686BB1FFF70CFE2A462146FE
S31508008050083045F0D4FDFFF705FE083003F0B4FA02
S31508008060FFF700FE38BD00BF3057002038B504467C
S315080080700D4619B9BDE83840FFF782BE91F8393088
S31508008080083413F0200F12D001F1080220461649D1
S3150800809045F0B8FD2046154945F0B4FD204605F1E2
S315080080A0190145F0B6F92046114945F0ABFD6A8E2F
S315080080B02046104945F0A6FD2946204645F0A9F96F
S315080080C0204695F836200C4945F09CFD204695F942
S315080080D037200A4945F096FD204695F83820084984
S315080080E0BDE8384045F0E5BDE19B0708519A070809
S315080080F0CCC40708EA9B0708F49B0708FC9B0708FB
S31508008100039C0708F0B50C46002393B005468C4936
S315080081102046ADF8063057F022F90646B0B10B21D5
S31508008120884B894A05F1080003F054FB2C4608AA37
S3150800813054F8080F0DF106016AF0C4FE002854D061
S31508008140204603F041FA002013B0F0BD20467F49CF
S3150800815057F005F90028E9D120467D4957F0FFF880
S315080081600646002840F0998020467A4957F0F7F8E5
S315080081700746002800F0E1807449201D57F0EFF803
S3150800818038B90421744B754A05F1080003F022FB3F
S315080081903E46A86808AA0DF106016AF093FE002873
S315080081A0D1D1BDF8302005F10804002E00F0B680C4
S315080081B020466B4945F026FD204608A945F029F9D1
S315080081C00A9802A915226AF081FF204602AA654983
S315080081D045F018FD0B9802A915226AF077FF20468C
S315080081E0614902AA45F065FDD3E7002E4ED09DF8F9
S315080081F04630204613F0080F0CBF522243225B4933
S3150800820045F000FD2046BDF83020594945F0FAFCF6
S3150800821020460A9A574945F0F5FC20469DF93D2027
S31508008220554945F0EFFC20469DF93E20534945F057
S31508008230E9FC20469DF83C20514945F0E3FC9DF8B1
S31508008240462020464F4902F0010245F0DBFC9DF826
S31508008250462020464B49C2F3400245F0D3FC9DF820
S3150800826046202046C2F38002464945F0CBFC20460C
S31508008270454945F0C7FC204608A945F0CAF82046F6
S31508008280BDF84420414945F014FD4FE72046BDF8A6
S3150800829030203F4945F0B6FC48E705F108040721B8
S315080082A020463C4B3C4A03F095FAA86808AA0DF10B
S315080082B006016AF007FE00287FF445AFBDF83020B6
S315080082C02046274945F09EFC204608A945F0A1F816
S315080082D002A9BDF8400003F05BF930490246204682
S315080082E045F090FC02A9BDF8420003F051F92C496B
S315080082F00246204645F086FC20469DF93D20294940
S3150800830045F080FC20469DF93E201B4945F07AFC45
S3150800831020460A9A244945F0CCFCC6E720461C4963
S3150800832045F070FC204608A945F073F8DDE90A23F4
S3150800833020461E4945F0BDFC2BE7072004E700BF91
S31508008340CCA107087CD1070888D107080B9C070829
S31508008350109C0708EAA1070844D1070848D107086E
S31508008360599C07088A9C0708929C07081C9C0708C2
S31508008370249C07082E9C0708369C07083D9C07087E
S31508008380449C07084B9C0708519A0708509C070805
S31508008390269C070858D1070860D10708659C070876
S315080083A0709C07087A9C0708819C07089C9C07080C
S315080083B030B50B68044687B00846002B3BD1A06849
S315080083C001A96AF08FFD054690BB0834204620496E
S315080083D045F018FC204601A945F023F82046BDF8CB
S315080083E00C201C4945F065FC20469DF811201A49C9
S315080083F045F05FFC20469DF81220184945F059FCC7
S3150800840020469DF81320164945F053FC20469DF852
S315080084101520144945F04DFC20469DF816201249B2
S3150800842045F047FC20469DF81720104945F041FCC9
S31508008430284607B030BD0E4956F091FF28B1A0680E
S3150800844007B0BDE830406AF05BBD0725F0E700BF1E
S31508008450B39C0708BE9C0708C79C0708DB9C07084F
S31508008460F09C0708B8990708F99C0708109D0708A3
S31508008470249D070837B50D4604461749284656F081
S315080084806EFF30B36B6863B9A0686AF09AFC014660
S3150800849010B9002003B030BD04F1080044F0C1FF54
S315080084A0F7E70E49281D56F05AFF30B10021A0689B
S315080084B003B0BDE830406AF059BD082269466868CD
S315080084C056F02CFF0028E5D16946A0686AF04EFDF3
S315080084D0E0E72320DEE700BF2B9D07082F9D07084E
S315080084E02DE9F0410C460546824920468EB056F0E5
S315080084F036FF0646C8B10E217F4B804A05F10800B3
S3150800850003F068F9A8686AF06CFF4FF000080746A0
S315080085101FFA88F18F4276D805F1080003F054F85F
S31508008520002630460EB0BDE8F0812046744956F064
S3150800853016FF0028E6D120680DF1020156F090FEDC
S3150800854006460028EDD1BDF80210A86802AA6AF00E
S3150800855060FE06460028E4D108352846BDF82220E4
S31508008560684945F0A6FBBDF820202846664945F02F
S31508008570A0FB2846654945F045FB284602A944F074
S3150800858050FF9DF831209DF8003001A962F30003E1
S31508008590C2F3400262F3410362F3820368468DF830
S315080085A0003045F017FC5A490246284645F081FB3B
S315080085B09DF8312028465749C2F3001245F079FB49
S315080085C028469DF82420544945F073FB2846049A0A
S315080085D0524945F06EFB2846059A514945F069FB14
S315080085E028469DF825204F4945F063FB28469DF906
S315080085F026204D4945F05DFB2846BDF82E204B49FF
S3150800860045F057FB8DE7A86802AA6AF012FE002813
S3150800861067D19DF831301B0763D4BDF8222005F1D8
S315080086200804002E60D02046414945F0EBFA204662
S31508008630BDF820203F4945F0E5FA2046049A3E4910
S3150800864045F0E0FA2046059A3B4945F0DBFA204614
S315080086509DF82520394945F0D5FA20469DF824206D
S31508008660374945F0CFFA9DF831202046354902F0C2
S31508008670010245F0C7FA9DF8312020463149C2F378
S31508008680400245F0BFFA9DF8312020462D49C2F335
S31508008690800245F0B7FA20469DF830202A4945F071
S315080086A0B1FA9DF8312020462849C2F3001245F058
S315080086B0A9FA2046BDF82C20204945F0A3FABDF8B2
S315080086C02E2020461D4945F09DFA2046204945F0B2
S315080086D099FA204602A944F09CFE20461D4945F019
S315080086E0E8FA08F1010813E720461B4945F08AFA1B
S315080086F0F7E700BFCCA1070890D30708A0D307085F
S315080087000B9C07085C9D0708699D0708B39C07082A
S3150800871097A80708749D07088A9D0708979D070864
S31508008720F09C0708C79C0708A49D0708AD9D070885
S31508008730359D0708249C07083C9D0708449C0708A4
S31508008740459D07084B9C07084C9D0708519D07083F
S31508008750519A0708D49B0708589D07082DE9F04346
S315080087600D4604466749284687B056F0F8FD074681
S3150800877000285FD00921644B644A04F1080003F01D
S3150800878029F8A0686AF069FE002680465FFA86F92D
S315080087904946A06801AA6AF07EFD00283ED104F188
S315080087A00805002F00F0A88028469DF80E20584995
S315080087B045F028FA2846BDF80C20564945F022FA15
S315080087C028469DF80F20544945F01CFA28469DF87E
S315080087D01020524945F016FA28469DF811205049AE
S315080087E045F010FA28469DF812204E4945F00AFA37
S315080087F09DF8132028464C4945F004FA28464B496B
S3150800880045F000FA284601A944F003FE9DF8142015
S3150800881028464749C2F3400245F04BFA0136F3B2FF
S315080088204345B3D904F1080002F0CEFE002007B094
S31508008830BDE8F08328463F4956F091FD0028A0D1AF
S3150800884028680DF1020156F00BFD0028EFD1BDF89E
S315080088500210A06801AA6AF01EFD0028E7D19DF85B
S315080088601420083402F001022046334945F021FA63
S315080088709DF81430DA07D9D520469DF80E202F49E1
S3150800888045F017FA2046BDF80C202D4945F011FA97
S315080088909DF80F2020462B49920245F00AFA9DF8CA
S315080088A0142020462849C2F3400245F002FA9DF8F2
S315080088B014309B07BAD52046244945F0A3F920462B
S315080088C001A944F0AEFD20469DF81020204945F048
S315080088D0F0F920469DF811201E4945F0EAF9204690
S315080088E09DF812201C4945F0E4F920469DF813200E
S315080088F01A4945F0DEF999E74A462846184945F0E7
S3150800890081F98BE7CCA10708F8D0070804D1070836
S31508008910F59B0708249C0708C69D0708CD9D0708F0
S31508008920449C0708D49D0708359D0708519A0708EF
S31508008930CE9B07080B9C0708DB9D0708CB99070801
S31508008940699D0708E59D0708F49D0708B39C070875
S31508008950FD9D0708C79C0708DB9C0708069E0708B5
S31508008960589D070870B50C6805461CB14A6852B18F
S31508008970072070BD0068904705490246284645F01D
S3150800898098F92046F5E72146BDE870400068184783
S31508008990DE9B070808B5034A034B0830FFF7E2FFDA
S315080089A008BD00BF032D0708192F070808B5034A95
S315080089B0034B0830FFF7D6FF08BD00BF1B2D07087D
S315080089C0DD2F070838B50C4605461349204656F0EC
S315080089D0C6FC38B1114B124A211D05F10800FFF7F4
S315080089E0C1FF38BD20460F4956F0B9FC10B10E4BF1
S315080089F00E4AF1E720460E4956F0B1FC10B10D4B70
S31508008A000D4AE9E720460D4956F0A9FC10B10C4B72
S31508008A100C4AE1E70720E4E7FFC60708C32807086A
S31508008A205B2807080E9E0708A72807084328070893
S31508008A30149E0708DF280708732807081E9E0708DC
S31508008A408B2807082B280708F7B50C6805460E4635
S31508008A501F464CB120460DF1060156F001FC0446AE
S31508008A6050B1204603B0F0BD00689047074902465A
S31508008A70284645F01EF9F4E7736823B9BDF80610D1
S31508008A802868B847EDE70724EBE700BF88A607087C
S31508008A9038B50D4604461949284656F060FC38B1E3
S31508008AA0174B184A291D04F10800FFF7CDFF38BDFA
S31508008AB02846154956F053FC10B1144B144AF1E7F1
S31508008AC02846144956F04BFC08B90720EFE76B68AF
S31508008AD053B954F8080F68F056FF0F490246204666
S31508008AE045F0E7F80020E2E70C49281D56F037FC68
S31508008AF00028EAD0A06868F06AFFF3E7259E070811
S31508008B00E51907089F190708E2AE0708FF190708BD
S31508008B10B7190708329E070888A60708AF9F0708EF
S31508008B2008B5034A034B083044F0C6FC08BD00BF2D
S31508008B306D3007083131070808B5034A034B08307A
S31508008B4044F0BAFC08BD00BFFB3307080F35070819
S31508008B5038B50C4605460E49204656F000FC38B195
S31508008B600C4B0D4A211D05F1080044F0A5FC38BD43
S31508008B7020460A4956F0F3FB38B1094B094A211D2C
S31508008B8005F10800FFF760FFF1E70720EFE700BFF0
S31508008B90369E07084B3107089D3007083E9E070892
S31508008BA0653107082930070870B50C46054613498C
S31508008BB0204656F0D4FB05F1080648B1A86809F026
S31508008BC0E9FD02460E49304645F073F8002070BDAF
S31508008BD020460C4956F0C3FB18B1A8684FF0FBFABB
S31508008BE0EFE73046084A2168FEF7E2FB0028EDD099
S31508008BF021463046054A44F078FCE8E7489E0708CF
S31508008C00529E0708589E070845240708B9220708F0
S31508008C1008B5024A083044F068FC08BD4333070823
S31508008C2008B5024A083044F060FC08BDB7320708A8
S31508008C3038B500F108040D462046054A0968FEF7CE
S31508008C40B7FB20B129462046024A44F04EFC38BDFF
S31508008C5013340708D332070838B50D4604462B499E
S31508008C60284656F07CFB50B154F8080F57F075FAB1
S31508008C7002462046264945F01CF8002038BD2846FD
S31508008C80244956F06CFB20B154F8080F57F06AFADD
S31508008C90EEE72B68C3B9A06869F0E0FB04F10805A4
S31508008CA002461D49284645F004F8A06869F09AFB73
S31508008CB01A490246284644F0FCFFA06869F09EFB64
S31508008CC0174902462846D6E72846164956F047FB6E
S31508008CD030B1154A291D04F1080044F006FCCDE719
S31508008CE02846124956F03BFB30B1114A291D04F1BA
S31508008CF0080044F00EFCC1E728460E4956F02FFB43
S31508008D0008B10D4AF2E70720B8E700BF4AA20708EC
S31508008D1088A6070857A20708629E07086E9E0708D6
S31508008D207C9E07088ECB0708D5220708ACA0070843
S31508008D30F122070848A007080D23070838B50C686C
S31508008D4000F108054CB980686AF033FB054902460C
S31508008D50284644F0AEFF204638BD2846024A44F06D
S31508008D60D8FBF9E78A9E07087B33070838B50C68ED
S31508008D7000F108054CB980686AF04AF905490246C7
S31508008D80284644F096FF204638BD2846024A44F055
S31508008D90C0FBF9E78A9E0708C12F070838B500F116
S31508008DA008040D462046054A0968FEF763FB20B10C
S31508008DB029462046024A44F0ACFB38BD152407086C
S31508008DC06123070808B5034A034B083044F0B3FB90
S31508008DD008BD00BF2B3407084335070808B5034A02
S31508008DE0034B083044F0A7FB08BD00BF73340708DF
S31508008DF05D35070808B5034A034B083044F09BFB6A
S31508008E0008BD00BF8B3407087735070808B5034A3D
S31508008E10034B083044F08FFB08BD00BFA334070896
S31508008E209135070808B5034A034B083044F083FB1D
S31508008E3008BD00BFBB340708AB35070870B50D463B
S31508008E4004461849284656F08AFA50B154F8080FCD
S31508008E5069F0BCFA14490246204644F02AFF00206D
S31508008E6070BD2846114956F07AFAB0B12E1D304623
S31508008E700F4956F074FA40B10E4B0F4A05F1080136
S31508008E8004F1080044F057FBEAE730460B4956F070
S31508008E9066FA20B10A4B0B4AF0E72320E0E70720E1
S31508008EA0DEE700BF929E07085BB507089F9E070886
S31508008EB0A99E0708D524070875240708A79E07084A
S31508008EC0EF2407088D24070838B50C6800F1080553
S31508008ED04CB9806869F06EFA05490246284644F09E
S31508008EE0E8FE204638BD2846024A44F03FFBF9E72B
S31508008EF05BB5070845230708F7B50D46044620491C
S31508008F00284656F02CFA38B11E4A291D04F10800E5
S31508008F1044F02CFB03B0F0BD28461B4956F01FFA57
S31508008F20064668B104352846184956F018FA20B19D
S31508008F30A06869F04BF90020ECE72946144AE5E7F2
S31508008F402846144956F00BFAC0B154F8080F0DF12B
S31508008F50070169F09FF8074650B9204602F034FB2E
S31508008F60E9E7204637F813200B4944F04BFE013653
S31508008F709DF80720F3B29A42F3D8EEE72320C9E713
S31508008F80319B0708CD200708B09E0708B79E07083B
S31508008F9021210708BB9E0708589D070870B50C686D
S31508008FA0164605461A4614B144F0E0FA70BD006844
S31508008FB0B04703490246284644F07BFE2046F5E7BB
S31508008FC088A6070808B5034A034B0830FFF7E6FFEB
S31508008FD008BD00BFE33307080B33070808B5034A83
S31508008FE0034B0830FFF7DAFF08BD00BFCB3307088D
S31508008FF0EF32070838B505460C460A7A074944F0A1
S3150800900058FE28466288064944F053FE2846626898
S315080090100449BDE8384044F04CBE00BF7EA60708A8
S315080090208BA607089DA607081FB50B680446E3B973
S315080090300F4944F0E7FD206801A968F096FC78B965
S31508009040204602F0C1FA20460A49BDF8042044F039
S3150800905030FE204601A9FFF7CDFF002004B010BD61
S315080090602046054944F025FEF7E72320F6E700BF2A
S31508009070B0A60708BDA60708CEA60708B1F85A2065
S31508009080014944F016BE00BF88A60708B1F85C205F
S31508009090014944F00EBE00BF88A6070801F1300258
S315080090A0014944F006BE00BFDE9B0708B1F8582008
S315080090B0014944F0FEBD00BF5BB507084A6F014988
S315080090C044F0F7BD8A9E07084A6D014944F0F1BD90
S315080090D09A99070808B5FF22002102485FF035FB78
S315080090E0002008BD818D002010B50C6834B90449EC
S315080090F091F8FE2044F093FD204610BD0720FCE7BA
S31508009100818D002038B50D4604460C49284656F090
S3150800911026F928B120680A49BDE8384068F03ABD02
S315080091202846084956F01BF928B120680449BDE8C5
S31508009130384068F03DBD072038BD00BFD1B90708E3
S31508009140818D0020D4A607082DE9F0410D46074673
S315080091501B492868144656F002F92B681A1D2A601E
S3150800916020B3D3F80480B8F1000F27D094F87B30E9
S3150800917093B104F1300694F87C3093B104F14102BE
S315080091803146404604F15E0368F070FC10B92B685E
S3150800919004332B60BDE8F081386869F0BEFD0646E9
S315080091A0E9E7386869F0C5FD0246E9E704F15E01BA
S315080091B01022BDE8F041186856F0B0B80720E9E774
S315080091C0359A070830B50C460546A3B020461C4913
S315080091D056F0C5F830B11B49286823B0BDE83040C1
S315080091E068F056BC2046184956F0B9F830B115490A
S315080091F0286823B0BDE8304068F058BC20461349BB
S3150800920056F0ADF860B16946286868F008FD04466E
S3150800921018B968460B4968F0F5FC204623B030BDFE
S3150800922020460B4956F09BF838B12846054A211DB9
S3150800923023B0BDE8304044F049BA0724EDE700BF43
S31508009240D1B90708818D0020D4A60708DCA607082F
S31508009250E0A6070830B5C1B00C466A460431054693
S3150800926044F034FA40B920460A4956F078F828B14D
S315080092706946286868F08EFC41B030BD204606492C
S3150800928056F06DF820B16946286868F091FCF3E756
S315080092900720F1E7D1B90708D4A6070870B51368FF
S315080092A0A4B006460D460192D3B91E4802A968F035
S315080092B00BFC044688B96B6890336B4413F8103C72
S315080092C05BB1D5E902325110D50706EB620048BFFB
S315080092D0725802A948BFD3589847204624B070BD93
S315080092E08822002102A85FF030FAD5E9043251102D
S315080092F006EB6200D20748BF725801A948BFD35887
S3150800930002AA984704460028E7D101226B68054956
S3150800931090336B4403F8102C02A868F057FC0446F7
S31508009320DBE700BF818D002038B50C460A88224944
S31508009330054644F067FCA378D80703D528461F4995
S3150800934044F060FCA378990703D528461C4944F0E5
S3150800935059FCA3785A0703D528461A4944F052FC03
S31508009360A3781B0703D52846174944F04BFCA37876
S31508009370D80603D52846154944F044FCA37899062F
S3150800938003D52846124944F03DFCA3785A0603D56E
S315080093902846104944F036FCE378DB0703D528460F
S315080093A00D4944F02FFCE2782846BDE838400B49C1
S315080093B0C2F3420244F07DBC589D0708EEB6070882
S315080093C0BAA20708A3B20708279A0708D2A207086D
S315080093D025AD0708E3B507085BA3070887A60708AE
S315080093E0002373B5019313680E46186801A914463D
S315080093F055F036FF054660BB21684A680B1D236099
S31508009400DAB1013A12F8013FD3B9886801F10803C5
S31508009410236090B10DF1030155F011FF00286DD1BD
S3150800942023689DF803200433072A236010D89DF883
S31508009430073062F343038DF807300198306008E07F
S31508009440722B05D8622B07D8432B41D0522B4ED00E
S315080094500725284602B070BD633B0F2BF8D801A03C
S3150800946050F823F0C794000851940008DB940008CC
S31508009470519400085194000851940008519400082A
S31508009480519400085194000851940008519400081A
S31508009490B3940008A5940008E594000851940008C0
S315080094A0BD9400089DF8063043F001038DF8063098
S315080094B0A8E79DF8063043F00203F7E79DF8063063
S315080094C043F00403F2E79DF8063043F00803EDE79E
S315080094D09DF8063043F01003E8E79DF8063043F0A0
S315080094E02003E3E79DF8063043F04003DEE79DF8E6
S315080094F0073043F001038DF8073083E70546A8E7F0
S3150800950007B5044B0F220093182346F0E9FC03B075
S315080095105DF804FBE5D504082DE9F043A5B004463B
S31508009520084602A9914668F0CFFA0746002830D0C7
S31508009530384625B0BDE8F0836B68184901A8019341
S31508009540FFF7DEFF4368064690336B4413F8103C7A
S315080095506BB120462A68124944F054FBB9F1000F52
S315080095600AD02B7A43B120460E4944F0A2FB0C35AB
S31508009570B8F10108E0D1DBE7D6E90232511004EB75
S315080095806200D20748BF625802A948BFD358984715
S31508009590EDE74FF00E08044DEAE700BF30D507089F
S315080095A0AAB10708E5A6070894D40708F0B5C1B01C
S315080095B005460F460068694668F06AFA6E4604462C
S315080095C098B93B6833B9024631462846FFF7A4FFE7
S315080095D004460AE038460B4955F0C1FE40B16946D3
S315080095E028469DF8FE2044F01AFB204641B0F0BDFF
S315080095F03846054955F0B3FE08B10122E4E70724C9
S31508009600F3E700BFC3A10708F0A60708F0B5C1B085
S3150800961005460F460068694668F048FA6E460446ED
S3150800962098B93B6833B9024631462846FFF774FFB6
S3150800963004460AE038460B4955F091FE40B16946A2
S3150800964028469DF8FE2044F0EAFA204641B0F0BDCF
S315080096503846054955F083FE08B10122E4E7072498
S31508009660F3E700BFC3A10708F0A607082DE9F043F2
S315080096700F46E7B088220021054626AE04A85FF00B
S3150800968064F8FF22002130465FF05FF802AC3B1D0C
S3150800969023600DF10C082368D3F80090B9F1000F88
S315080096A016D13846294955F05AFE044600283FD1B6
S315080096B03846274955F053FE002845D0CDE90044E1
S315080096C0324696F8FE30286804A968F04CFA38E065
S315080096D040462049C8F80090FFF712FF23688146E4
S315080096E0A8B104332360D0E90432511005EB6200B7
S315080096F0D20748BF6A58214648BFD35804AA984794
S31508009700F8B90122D9F8043022A9CA54C3E7184681
S31508009710114955F024FEB8B121683246043128466D
S31508009720216043F0D3FF60B9236804332360B2E7AE
S31508009730CDE90099324696F8FE30286804A968F003
S31508009740E6F967B0BDE8F0830720FAE7D1B907085C
S31508009750D4A6070830D50708C3A107082DE9F043A2
S31508009760CDB088460D22002107460CAD04A85EF050
S31508009770ECFFFF22002128465EF0E7FF002608F1ED
S315080097800404D4F80090B9F1000F12D140462A49D2
S3150800979055F0E5FD00283BD0386895F8FE300EB147
S315080097A00DF120092A46CDF8009004A968F09AF927
S315080097B024E003A82149C0F80090FFF7A1FE38B1BC
S315080097C00122A146436804A9CA5409F10404D8E74A
S315080097D020461B4955F0C3FD48B104F104092A4641
S315080097E04946384643F072FF0028EED006E0204688
S315080097F0144955F0B4FD064618B907204DB0BDE822
S31508009800F083606808A904F1040955F07DFDEBE7CB
S3150800981040460D4955F0A3FD0028EED0386895F866
S31508009820FE300EB10DF120092A46CDF8009004A9A4
S3150800983068F084F9E2E700BFD1B9070830D5070810
S31508009840C3A1070846BA0708D4A607087FB50A6859
S3150800985005460C462AB9234904B0BDE87040FFF70F
S315080098605BBE2046204955F07AFD68B100241F4E9C
S3150800987056F8242028461E49033444F01AFA1B2CAD
S31508009880F6D1002004B070BD23681A4903A80393D3
S31508009890FFF736FE014630B12846221D04B0BDE862
S315080098A07040FFF7FBBC236809220393124B0F494C
S315080098B000930C230DEB030046F012FB78B1D0E9B8
S315080098C00132511005EB6200D20748BF6A5804F10D
S315080098D0040148BFD35804B0BDE870401847232098
S315080098E0D0E700BF818D0020D79B070828D407083A
S315080098F0DE9B070830D50708DDD50408024B186833
S3150800990000B9FEE7FEF73CBA30570020F8B50D4619
S315080099100C492846164655F022FD044650B90A4F0A
S31508009920284657F8041B55F01AFD28B1E4B2002062
S315080099303470F8BD0024FAE70134062CF0D107206C
S31508009940F7E700BFD6CA0708ECD6070873B5154669
S315080099500C4606462022002128685EF0F6FE23689B
S315080099601BB92B60002002B070BD21462A683068FA
S315080099700DF1070344F00AFA0028F4D19DF80730E0
S315080099803BB13046294944F03DF93046296844F050
S3150800999058F960680028E5D02968103155F060FC50
S315080099A00028E0D1A0680028DCD02968143155F0D9
S315080099B002FD0028D7D1E0680028D3D029681831DD
S315080099C055F03DFC0028CED120690028CAD00DF1FB
S315080099D0060155F0F4FC0028C5D19DF806302A6822
S315080099E0C3F1020353766369002BBBD030461B32A2
S315080099F004F11401FFF78AFF08B10720B3E7A3694A
S31508009A00002BAFD018342046094955F0A8FC18B1E8
S31508009A1002222B681A77A5E72046064955F09FFCCF
S31508009A200028EAD001222B68F4E700BF07A8070838
S31508009A302DA8070880A1070830B58DB004AB03939D
S31508009A400B6805460C468BB103AA0431FFF77EFF67
S31508009A5050B9039B064A009321682B46286868F08C
S31508009A60B2F9002808BF24200DB030BD0720FBE757
S31508009A700BD7040830B58DB004AB03930B680546C5
S31508009A800C468BB103AA0431FFF760FF50B9039B5C
S31508009A90064A009321682B46286868F0A9F9002829
S31508009AA008BF24200DB030BD0720FBE70BD70408FC
S31508009AB030B58DB004AB03930B6805460C468BB1E5
S31508009AC003AA0431FFF742FF50B9039B064A0093E5
S31508009AD021682B46286868F047F9002808BF242023
S31508009AE00DB030BD0720FBE717D7040870B58CB05A
S31508009AF004AB03934B6805460C4616468BB103AA7E
S31508009B000831FFF723FF50B9039BCDE90053064BF5
S31508009B102868D4E90012B047002808BF24200CB0F2
S31508009B2070BD0720FBE700BF23D70408014AFFF7EB
S31508009B30DDBF00BF1B1E0708014AFFF7D7BF00BFDE
S31508009B40491E070830B50C468FB0054606AB206897
S31508009B500DF11201059355F083FBB8B9A368BBB1A3
S31508009B60284605AA04F10C01FFF7F0FE70B9059B1B
S31508009B70BDF81210CDE90153064B00932868D4E9C5
S31508009B80012368F006F9002808BF24200FB030BD6D
S31508009B900720FBE72FD7040830B50B6804468BB0BF
S31508009BA0002B39D1006868F07FF805462049204621
S31508009BB044F028F82946204644F055F820466A69B4
S31508009BC01C4944F076F82A7E1B49204644F071F871
S31508009BD0687E431E5842584101F0CEFC174902469A
S31508009BE0204644F066F8EB7E2046052B96BF144ABD
S31508009BF0144A52F82320144944F05BF8AA7E134B02
S31508009C0013492046012A08BF19460A46114944F055
S31508009C1050F800200BB030BD02AB01AA0193FFF744
S31508009C2095FE0028F6D10199206868F068F9F0E7F2
S31508009C303AA8070843A807085BA807086DA80708F5
S31508009C40ECD6070898D8070882A8070834A8070892
S31508009C5031A8070892A807082DE9F0411646C6B0AC
S31508009C6004460D46FF22304606A968F03BF828BB95
S31508009C702046134906AA43F0C5FF6DB92F460DF1D4
S31508009C800408B9B24346304602AA68F019F8013703
S31508009C9048B1204601F098FC29462046FFF72EFEDB
S31508009CA046B0BDE8F081204602A901F0BFFC204677
S31508009CB0D8F80020034943F0A5FFE2E70546EBE79D
S31508009CC0A0A80708B7A807087FB5054614460E4694
S31508009CD01368029313890193D388009393881D4AC6
S31508009CE043F0F8FFE368314628461B4A43F0F2FF83
S31508009CF01A4A3146284643F0C9FF284604F112019C
S31508009D0001F094FC2846626A154943F0D2FF3146B1
S31508009D102846144A43F0BAFF94F82E3063B9284609
S31508009D20A28DA16A43F0A8FF2846226B0C4904B00D
S31508009D30BDE8704043F0BDBF28460B4943F062FFBB
S31508009D402846A16AA28D01F04FFC2846074943F030
S31508009D5059FFE9E7C1A80708EAA80708F2A807080B
S31508009D60E1A80708FFA80708C0A9070804A9070863
S31508009D702DE9F0411646ADF55E7D0DF178080446ED
S31508009D800D46FF224146304667F0DEFFA8BB424635
S31508009D9020461B4943F08DFF3DB92F4640233046E8
S31508009DA00EAAB9B267F0BEFF38B129462046FFF7BA
S31508009DB0A5FD0DF55E7DBDE8F081204611490EAA88
S31508009DC043F077FFFF23ADF814305EAB0B934FF4E7
S31508009DD00073304601AA0EA9CDF81080ADF83030D0
S31508009DE067F090FF20B90421204601AAFFF76CFF0F
S31508009DF0204601F0E9FB0137D0E70546D5E700BF65
S31508009E0009A90708DE9B07082DE9F04116464FF019
S31508009E10FF084022ADF5607D20AF04460D463B465F
S31508009E203046CDF800800DEB020168F052F820BBF1
S31508009E303B462046124910AA43F03BFFADB960AB3A
S31508009E400D934FF40073304603A90697ADF81C80AE
S31508009E50ADF8383068F02FF838B92046294603AAF5
S31508009E60FFF732FF204601F0AFFB29462046FFF7F1
S31508009E7045FD0DF5607DBDE8F0810546F5E700BFB7
S31508009E8024A90708034684B0074A022B0DF1100CD3
S31508009E9007CA0CE907009DBF624602EB830353F825
S31508009EA00C0C024804B0704704D7070898D807086E
S31508009EB02DE9F0471746EAB00DF1A80805460E4603
S31508009EC0FF224146384667F0D6FF00285CD1424655
S31508009ED02846314943F0EDFE002E56D1B1461222EE
S31508009EE000210DF116005EF030FCFF23ADF81430AA
S31508009EF00AAB0893802304AC224638461FFA89F138
S31508009F00CDF81080ADF8243067F0C5FF17283CD08F
S31508009F10002839D121491FFA89F2284643F0C9FE9B
S31508009F209DF82600FFF7AEFFDDF81CA0BDF8183037
S31508009F300421CDE901A01A4A28460093BDF8163037
S31508009F4043F0C8FE049B04212846164A43F0C2FE85
S31508009F5004212846144A43F099FEBDF824202846D1
S31508009F60089901F041FBBDF82420BDF818309A4243
S31508009F7003D028460D4943F045FE28460C4943F0D0
S31508009F8098FE09F10109AAE7064631462846FFF771
S31508009F90B5FC6AB0BDE8F0875AA9070875A907088D
S31508009FA079A90708ADA90708B5A90708C2A9070826
S31508009FB007A90708F0B50B6805460C4685B07BB9B6
S31508009FC000261A4F57F8262028461949033643F023
S31508009FD070FE152EF6D123682BBB232005B0F0BDE5
S31508009FE02046144955F0BBF90028E9D12368072211
S31508009FF00393114B0D4900930C230DEB030045F019
S3150800A0006FFF0028E9D0D0E90132511005EB620054
S3150800A010D20748BF6A5804F1040148BFD35805B0AF
S3150800A020BDE8F04018470020D8E700BF98D60708D3
S3150800A030DE9B0708D79B070803D7040808B502491B
S3150800A04043F037FE232008BD31AA070808B50249A0
S3150800A05043F02FFE232008BD89AA0708F0B50B6830
S3150800A06005460C4685B07BB900261A4F57F82620B8
S3150800A07028461949033643F01CFE0F2EF6D12368ED
S3150800A0802BBB232005B0F0BD2046144955F067F9CF
S3150800A0900028E9D1236805220393114B0D49009343
S3150800A0A00C230DEB030045F01BFF0028E9D0D0E98F
S3150800A0B00132511005EB6200D20748BF6A5804F115
S3150800A0C0040148BFD35805B0BDE8F0401847002042
S3150800A0D0D8E700BF44D70708DE9B0708D79B0708C1
S3150800A0E03BD70408F0B50C46054689B020462149F9
S3150800A0F055F035F9B8B100260434206804A955F09E
S3150800A10003F970B9271D38461B4955F028F960B17F
S3150800A11004F10802284603A943F039FB0246B0B108
S3150800A120072009B0F0BD0126E7E73846134955F080
S3150800A13016F90028F4D0A0680DF10F0155F07FF844
S3150800A1400028EED103462C689DF80F2001E02C6804
S3150800A15003AB0B4920460091019504A968F019FA4A
S3150800A1600028DED1002EDCD02B7A242043F0010310
S3150800A1702B72D6E71E9A0708DFAA0708E6AA070879
S3150800A180EDD704082DE9F0430D4606468DB028465E
S3150800A190594955F0E4F800283ED0002704352868C8
S3150800A1A008A955F0B1F80446002831D105F104098B
S3150800A1B08DF814005149484655F0D1F880460028D4
S3150800A1C067D0A86807A98DF8184055F038F80446EE
S3150800A1D0F0B9E96849B34A1E12F8013FF3B9002CF1
S3150800A1E049D030689DF81C20002C50D106AB444954
S3150800A1F00296CDE900319DF8143008A968F0AFF948
S3150800A200044628B927B1337A43F00203242433726B
S3150800A21020460DB0BDE8F0830127C0E7642B16D0B1
S3150800A22005D8582B1DD0612B16D00724F0E76C2BC8
S3150800A23006D0722BF9D19DF8143043F0040303E0DD
S3150800A2409DF8143043F001038DF81430C4E79DF8E7
S3150800A250143043F00203F7E79DF8143043F008037F
S3150800A260F2E78A42E1D15378002BDED12B69002B25
S3150800A270DBD14446B0E7304605F1100206A943F0A3
S3150800A28086FA0028D1D16B69002BCED1A9E7002325
S3150800A290ADE748461B4955F062F80028C5D005F1D8
S3150800A2A008084046184955F05AF818BB4046174959
S3150800A2B055F055F80028B8D0304605F10C0207A924
S3150800A2C043F065FA0028B0D10B460124104A0396DC
S3150800A2D0CDE901620F4A08A900923068224668F063
S3150800A2E022F90446002893D1002F91D0337A43F0FF
S3150800A2F004038BE72346E9E71E9A0708E6AA070838
S3150800A30023D80408EEAA07082F9D0708FBAA070802
S3150800A310D9D7040851D804080B7870B5DE07054666
S3150800A3200C4603D54A68114943F0C3FC23789907BC
S3150800A33005D528460E4B227A0E4943F0BAFC2378F7
S3150800A3405A0705D528460A4B627A0B4943F0B1FCF1
S3150800A35023781B0708D5284694F90A20044B074991
S3150800A360BDE8704043F0A5BC70BD00BF04AB07084C
S3150800A37024D707082AAB070838AB07084EAB0708E7
S3150800A38070B5044616461D460A46084943F03AFC87
S3150800A39008223146204643F042FC2DB12946204684
S3150800A3A0BDE87040FFF7B8BF70BD00BF63AB0708D4
S3150800A3B0042903D8044B53F821007047034B04487B
S3150800A3C0FE2918BF1846704710D70708C1AB0708FB
S3150800A3D0CFAB070870B504460E461546084943F044
S3150800A3E011FC3146204643F02CFC29462046FFF74F
S3150800A3F0DFFF044902462046BDE8704043F059BCD9
S3150800A400DBAB07080CAC0708024B186800B9FEE777
S3150800A410FDF7B6BC30570020F8B504460F4615467A
S3150800A42011491E4643F0EEFB3946204643F009FC27
S3150800A4307DB129462046FFF76FFF237ADA0712D542
S3150800A44023F00103204623720021BDE8F840FFF7F8
S3150800A450DBBF31462046FFF7ABFF044902462046DC
S3150800A46043F027FCE9E7F8BD17AC07083BAC07083B
S3150800A4700B6810B5044608464BB9206868F0B1F970
S3150800A48008490246204643F014FC002010BD064940
S3150800A49054F065FF18B1206868F0BCF9F5E70720A5
S3150800A4A0F4E700BF88A60708AF9F070838B50C6809
S3150800A4B005464CB9006868F088F9044902462846FA
S3150800A4C043F0F7FB204638BD0720FCE788A60708B7
S3150800A4D030B50C46054687B02046114954F03FFF73
S3150800A4E0D8B102A9201D43F031FC172807D1002353
S3150800A4F00822694660688DF8103054F00FFF30B9AD
S3150800A5009DF81030286823B102A968F050F907B001
S3150800A51030BD694668F03DF9F9E70720F7E700BF5F
S3150800A520D4AC070830B50C4687B0054601F090F85C
S3150800A530204601A943F099F99DF8043023B128462D
S3150800A540084901AA43F05EFB607C40F3010040B273
S3150800A55001F094F9A38A02460349284643F0A9FB69
S3150800A56007B030BDDD9B0708DAAC070830B50C46E6
S3150800A57087B0054601F06CF8204601A943F0AEF90C
S3150800A5809DF8043023B12846084901AA43F03AFB4E
S3150800A590207D40F3010040B201F070F9638A02465B
S3150800A5A00349284643F085FB07B030BDDD9B070805
S3150800A5B0DAAC070870B50C4605464A68124943F0F6
S3150800A5C021FB227A284604F1090101F00DF82846F4
S3150800A5D00E4943F017FB284694F8072104F58471C1
S3150800A5E001F002F894F80631DB0703D52846084936
S3150800A5F043F008FB28462378B4F800220549BDE84D
S3150800A600704043F056BB00BFBCA80708CCC4070877
S3150800A610E3AC0708E6AC070870B54B7886B013F0CC
S3150800A620020F18BF732201AE16BF8DF804203246FA
S3150800A6300DF10502DB0744BF632302F8013BB24272
S3150800A64004BF2D238DF804304FF0000305460C4651
S3150800A65008BF0DF105021370023100F0F9FF334609
S3150800A66028462278024943F024FB06B070BD00BF95
S3150800A67031AB070800232DE9F0430F46ADF51B7DE6
S3150800A6805D490446154600936E4643F012FB4FF6A5
S3150800A690FF790DF118083B4642463146204643F0FD
S3150800A6A032F900286DD02046544943F002FB0023B6
S3150800A6B04FF6FF7933600DF130083B464246314686
S3150800A6C0204643F026F9002866D020464C4943F038
S3150800A6D0F0FA00234FF6FF7933600DF164083B4624
S3150800A6E042463146204643F01AF900285FD0002F2B
S3150800A6F043D14FF6FF739D423FD12046414943F06F
S3150800A700D8FA37603146206801AA68F002F80028AE
S3150800A71058D012AD2946206868F06FF820463A49A5
S3150800A72043F0C7FA2B7E9E0751D520466A883749DB
S3150800A73043F068FA2B7ED8074ED520462A88344936
S3150800A74043F060FA2B7E19074BD52046EA8A2F4933
S3150800A75043F058FA2B7E5A0748D520462A790DF138
S3150800A7604D0100F041FF2B7EDB0603D52046294923
S3150800A77043F048FA204600F027FF0DF51B7DBDE89B
S3150800A780F0834D4503D0B8F81430AB4283D1414627
S3150800A7902046FFF7C7FE7EE74D4503D0B8F81230CE
S3150800A7A0AB428AD141462046FFF7E0FE85E74D4594
S3150800A7B003D0B8F80032AB4291D141462046FFF7A4
S3150800A7C0F9FE8CE7204601A9FFF726FF9AE72046FF
S3150800A7D0114943F017FAADE720460F4943F012FA3C
S3150800A7E0B0E720460C4943F00DFAB3E720460B497B
S3150800A7F043F008FAB7E700BFEFAC0708F9AC07085B
S3150800A80001AD07080BAD070815AD0708589D0708E1
S3150800A810289C070824AD0708B4A807080BC807082A
S3150800A8202DE9F34700254FF6FF7306460C46A84662
S3150800A8302F46ADF806305FFA85F954F8293004EB4F
S3150800A840890A8BB9BDF8062017B9B8F1000F24D0CC
S3150800A8504FF6FF739A4226D1B8F1000F1DD039463C
S3150800A860304643F062F810E05046104954F077FD40
S3150800A87070B950460E4954F072FD60B954F8290073
S3150800A8800DF1060154F0ECFC18B102B0BDE8F087F2
S3150800A89007460135CFE78046FBE730463946FFF7DE
S3150800A8A0E9FE0020F1E70720EFE700BF399B07081C
S3150800A8B0C3A10708F0B50B6805460C4685B07BB9F9
S3150800A8C000261A4F57F8262028461949033643F01A
S3150800A8D0F0F90C2EF6D123682BBB232005B0F0BD6A
S3150800A8E02046144954F03BFD0028E9D12368042288
S3150800A8F00393114B0D4900930C230DEB030045F010
S3150800A900EFFA0028E9D0D0E90132511005EB6200D0
S3150800A910D20748BF6A5804F1040148BFD35805B0A6
S3150800A920BDE8F04018470020D8E700BF80D70708E1
S3150800A930DE9B0708D79B07085DD8040870B50E4646
S3150800A940044692B030464D4954F009FD20B12068BE
S3150800A95067F0E1FF00201BE03046494954F0FFFC50
S3150800A960054600B1043600213C2203A85DF0EDFE41
S3150800A9703046444954F0F3FC68B1706803A954F0B2
S3150800A980C3FC28B9206803A967F052FB10B9072051
S3150800A99012B070BD083630463B4954F0E0FC18B199
S3150800A9A0012304368DF84430314620680DF107033B
S3150800A9B007AA43F0EBF90028EAD19DF807303BB126
S3150800A9C02046324943F01EF9204607A943F039F9D3
S3150800A9D0706800282ED1B068002831D1F368002BA2
S3150800A9E035D1306900283BD173696BB1204602AA7C
S3150800A9F006F1140142F0BBFF0028C8D1029BB3F54B
S3150800AA00803FC4D2ADF84030B369002BBFD1204B8C
S3150800AA1020680B931F4B03A9CDE90C3467F06DFF33
S3150800AA200028B5D1237A65F300032372002D91D14E
S3150800AA302420ADE70EA954F013FC0028CBD0A7E7D5
S3150800AA400DF13A0154F00CFC0028C7D0A0E72046C7
S3150800AA500FAA06F10C0142F08AFF0028C1D096E73A
S3150800AA600DF1420154F0EBFB002891D19DF84230DC
S3150800AA70B3FA83F35B098DF84330B5E7299A0708DB
S3150800AA801E9A07083EAD070841AD070844AD0708FA
S3150800AA90C5D90408CFD9040837B50C4605464A8AED
S3150800AAA00949083292B243F0ADF82146284600F02B
S3150800AAB0BDFD238A28460093A37DA28A034943F055
S3150800AAC0F8F803B030BD00BF67AD070876AD0708D4
S3150800AAD0024B186800B9FEE7FDF752B93057002057
S3150800AAE073B50C460A884B881F49054643F08AF811
S3150800AAF022889AB1237B8BB963889A420ED34FF486
S3150800AB007A71D31A4B430A2193FBF2F3B3FBF1F2A2
S3150800AB10284601FB1233154943F074F86288A2B13E
S3150800AB204FF47A7660680023A0FB060127F0E4FB61
S3150800AB30B0FBF6F306FB13006289009001922846E3
S3150800AB4022890B499BB243F05DF8284600F03CFD8C
S3150800AB50297A11F0010105D1284602B0BDE87040F6
S3150800AB60FFF7B6BF02B070BD96AD0708C3AD0708BC
S3150800AB70DCAD070870B50D460446006867F0FAFEB6
S3150800AB802B6806462BB90146204643F06CF8002090
S3150800AB9070BD6B68A3B928460B4954F0E0FB20B199
S3150800ABA03146204643F04DF8F1E72846074954F068
S3150800ABB0D6FB38B12046328A054943F07AF8E6E7EB
S3150800ABC00720E5E72320E3E746BA07088CA107082C
S3150800ABD088A6070810B5002304460846C4E90012EB
S3150800ABE023722246024967F0A4FF204610BD00BF23
S3150800ABF0C1DA04082DE9F74F804600680F4668F069
S3150800AC001FF80646002800F0B38000F110094946EF
S3150800AC10F86854F025FB044678B901A9304667F070
S3150800AC20D7FFD7F804A0054650465DF0E6FDBDF807
S3150800AC300430421C9A4206D907243146D8F8000047
S3150800AC4068F023F87BE0514628465DF0C9FD01A966
S3150800AC50304667F0CBFFD7F808A0054650465DF0AA
S3150800AC60CCFDBDF80430421C9A42E5D85146284628
S3150800AC705DF0B6FD28462C215DF06FFD0546D0B186
S3150800AC8030460DF1060167F0BFFFA346A0F1040A9E
S3150800AC90BDF806300134A4B2A34201D80324CCE798
S3150800ACA0284600F801BB2C214AF8040F5DF055FD33
S3150800ACB005460028ECD14946F86854F0D1FA04460E
S3150800ACC00028BAD1386930B9786960B9BB6993B9CF
S3150800ACD00023B37526E006F1120154F0C1FA0446C2
S3150800ACE00028F1D0A9E706F1140154F0B9FA044690
S3150800ACF00028EBD0A1E71F4907F1180054F02FFBF5
S3150800AD000028E5D101A9304667F0A6FF3146BDF80F
S3150800AD100430024621F8303FB86954F00DFB04466A
S3150800AD2000288AD1F86970B9386AA0B93146D8F8C6
S3150800AD30000067F043FE044600287FF47EAF2046F5
S3150800AD4003B0BDE8F08F06F1200154F034FB044649
S3150800AD500028E9D071E706F1240154F02CFB0446DB
S3150800AD6000287FF46AAF7B6A002B7FF465AFDDE7C6
S3150800AD700324E4E70BC80708F8B515461A4A04463B
S3150800AD8042F084FF2A689AB12046184942F03AFFF1
S3150800AD90A87A67F0E3FD16490246204642F032FFDC
S3150800ADA06E7A56B113492046BDE8F84042F081BF95
S3150800ADB02046114942F026FFEAE720460F4942F0AD
S3150800ADC021FF2B7AF7B2BB4201D80D49EBE71FB139
S3150800ADD020460C4942F016FF6968204601EB071128
S3150800ADE000F024FC0136ECE708AE070838B207087D
S3150800ADF015AE070828AE07080EAE0708C0A907084B
S3150800AE0007A907082DAE07082DE9F0430E68054681
S3150800AE100C468BB05EB9006867F0B8FD314602464D
S3150800AE202846FFF7A9FF00200BB0BDE8F0832046AF
S3150800AE30704954F094FA68B3636863B9286867F090
S3150800AE40A5FD6D4B0268002A08BF1A4628466B49BD
S3150800AE5042F02FFFE7E7A3681BBB02A9286867F043
S3150800AE60A9FE0646201D54F073FABDF808300746B9
S3150800AE70834216D96168286867F0F6FD0028D3D1A1
S3150800AE80616830467A1C5DF0ABFC3146286867F08D
S3150800AE90EBFDC8E720465A4954F061FA58B1636891
S3150800AEA00BB10720C0E7286867F070FD807A67F065
S3150800AEB055FD0246CAE72046524954F050FA06465E
S3150800AEC000285CD06368B3B9286867F05FFD447AE8
S3150800AED006465CB128464C4942F0EBFEA3E771688A
S3150800AEE0284601EB031142F0ACFE0134327AE3B294
S3150800AEF09A42F4D897E74449201D54F030FA03469D
S3150800AF00286823B10BB0BDE8F04367F073BD0DF1B7
S3150800AF10070167F087FE9DF807300746022B88BFB2
S3150800AF2002234FF0000888BF8DF807300DF1080995
S3150800AF3054F8040F5FFA88F690B93246286802A9D1
S3150800AF4067F082FD00287FF46FAF320102A9384608
S3150800AF505DF046FC32463946286867F075FD62E7BB
S3150800AF609DF80730B34208D909EB061154F0CCF91D
S3150800AF7008F101080028DBD056E7032054E72046ED
S3150800AF80224954F0ECF910B360688DF807608DF823
S3150800AF90086038B99DF808209DF80710286867F0FA
S3150800AFA035FD41E70DF1070154F009FA00287FF451
S3150800AFB03BAFA0680028EDD002A954F000FA00289B
S3150800AFC07FF432AFE368002B7FF46BAFE2E72046ED
S3150800AFD00F4954F0C4F950B16368002B7FF461AF90
S3150800AFE0286867F081FD286867F044FE1BE7232080
S3150800AFF01AE700BFFFC607080EAE0708DE9B07085C
S3150800B0000BA2070846BA070828AE0708B09E070825
S3150800B0102F9D070873B514461368054600935368B1
S3150800B020104A42F033FEA368D3B9E07D67F096FC78
S3150800B030A38A02460193638A28460093238A0A490B
S3150800B04042F037FE02B070BD2846084942F0DAFDE4
S3150800B050A368B2B253F822200136002AF4D1E4E7F5
S3150800B0600026F5E730AE070848AE070875AE0708AC
S3150800B0702DE9F0410C6807460D4654B9006867F09B
S3150800B08091FC21460246384642F00DFD2046BDE8B1
S3150800B090F0812846234954F062F928B129463846F2
S3150800B0A0BDE8F041FFF7A6BD28461F4954F057F9F9
S3150800B0B0044618B1AB684BB90724E7E728461B498D
S3150800B0C054F04DF90028F5D12324DFE7EB68002B6F
S3150800B0D0F2D1386867F066FC064605F104080835BB
S3150800B0E00EB91724D2E74046716854F038F908B902
S3150800B0F0F669F5E72846316854F031F90028F7D0A3
S3150800B100386854B9314667F067FC04460028BDD153
S3150800B1103146386867F0B9FDB8E73146BDE8F04111
S3150800B12067F084BC319B0708B09E07082F9D070867
S3150800B130F8B504461E46237A08461746069D13B3F5
S3150800B14066F0EAFE14490246204642F0B2FD204661
S3150800B150124942F0AEFD3A4604212046FFF70CFE9E
S3150800B16020460F4942F0A5FD32460421204642F00A
S3150800B1709AFC4DB120460B4942F09BFD2A46042114
S3150800B180204642F090FC05B9F8BDEE6929462068CC
S3150800B19067F07BFD3546F6E779AE070898AE0708EF
S3150800B1A0A3AE0708B1AE0708F0B50B6805460C460E
S3150800B1B085B07BB900261A4F57F826202846194924
S3150800B1C0033642F076FD212EF6D123682BBB2320C9
S3150800B1D005B0F0BD2046144954F0C1F80028E9D15D
S3150800B1E023680B220393114B0D4900930C230DEB97
S3150800B1F0030044F075FE0028E9D0D0E90132511069
S3150800B20005EB6200D20748BF6A5804F1040148BF3B
S3150800B210D35805B0BDE8F04018470020D8E700BF6E
S3150800B220B0D70708DE9B0708D79B07086FDA04081C
S3150800B23008B5024A024B42F03FF908BDB92A070889
S3150800B2406B2B070808B5024A024B42F035F908BDD0
S3150800B250A12A0708512B070808B5024A024B42F0F3
S3150800B2602BF908BDD12A0708852B070870B500F108
S3150800B2700C0504462946006868F0A4F938B923463F
S3150800B28029462068034ABDE8704068F0D9B91820F5
S3150800B29070BD00BFABDB040870B50C46054686B02A
S3150800B2A02046174954F05BF8B0B1002604342068EC
S3150800B2B001A954F029F868B9606805A953F0D0FFC8
S3150800B2C040B9A368D3B93346286801AA05F10C0129
S3150800B2D068F086F906B070BD20460A4954F03FF872
S3150800B2E010B103260434E2E72046074954F037F83C
S3150800B2F010B101260434DAE70226D8E70720E9E781
S3150800B300EFAE0708F2AE0708F5AE070830B587B006
S3150800B31004460DF10303006801AA0D4642F036FD06
S3150800B320B8B99DF803303BB120460C4942F06AFC97
S3150800B330204601A942F085FC686805A953F090FFEC
S3150800B34038B9AB683BB9206801AA04F10C0168F06A
S3150800B35067F907B030BD0720FBE700BFF8AE07085E
S3150800B36001232DE9F0418CB000F10C078DF805306A
S3150800B370037A05468846006839468DF8043068F031
S3150800B38021F9002872D02622002102A85DF0DDF9F5
S3150800B390D8F80830F3B1414628680DF1060306AA25
S3150800B3A042F0F4FC0446002837D19DF806303BB13C
S3150800B3B02846304942F026FC284606A942F041FCB8
S3150800B3C0D8F804000DF12A0153F04AFF044620BBC1
S3150800B3D008F10808286801A968F056F90646002801
S3150800B3E046D04046244953F0BAFFD0B1D8F80400F5
S3150800B3F00DF1060153F034FF0446D8B93046BDF8BE
S3150800B400061042F08EFB0446A0B932463946286833
S3150800B41002AB68F027F9044660B920460CB0BDE8CF
S3150800B420F0814046154953F09AFF58B1D8F80410F0
S3150800B43021B90724304667F019F9EEE7304642F09D
S3150800B44095FBE0E740460E4953F089FF08B108F13D
S3150800B4500408D8F80040002CEBD0404653F078FF9B
S3150800B46021460246304667F0C7F8CCE70D24D4E7F4
S3150800B4700324D2E721AF070847AF0708C3A1070887
S3150800B4804AAF0708F0B50B6805460C4685B07BB988
S3150800B49000261A4F57F8262028461949033642F03F
S3150800B4A008FC122EF6D123682BBB232005B0F0BD6D
S3150800B4B02046144953F053FF0028E9D12368062291
S3150800B4C00393114B0D4900930C230DEB030044F035
S3150800B4D007FD0028E9D0D0E90132511005EB6200DA
S3150800B4E0D20748BF6A5804F1040148BFD35805B0CB
S3150800B4F0BDE8F04018470020D8E700BF34D8070851
S3150800B500DE9B0708D79B070801DB0408F0B504464D
