S01D00006275696C642F64656275672F6F742D636C692D6674642E733337AF
S315080060000818002025BE0208A9260408AD2604089B
S31508006010B9D00008B1260408B9260408956F020805
S31508006020956F0208956F0208956F0208956F02082A
S31508006030BD260408A4ED0408956F0208956F0208AA
S31508006040B5A90208956F0208956F0208956F0208B0
S31508006050956F0208956F0208956F0208956F0208FA
S31508006060956F0208956F0208956F02084DDE0208C3
S315080060704BDE0208956F0208956F0208956F0208B5
S31508006080956F0208956F0208956F0208956F0208CA
S31508006090956F020835700208956F0208956F020819
S315080060A0956F020811700208ED6F0208956F0208D5
S315080060B0956F0208A18B040875940408D5B10408E5
S315080060C0D1B10408E98B0408EBB10408D9B1040876
S315080060D045940408DDB10408B59404081D95040820
S315080060E0956F0208956F0208956F0208956F02086A
S315080060F0956F0208956F0208956F0208956F02085A
S31508006100956F0208956F0208956F0208956F020849
S31508006110956F0208956F0208956F0208956F020839
S31508006120956F0208956F0208956F0208956F020829
S31508006130956F0208956F0208956F0208956F020819
S31508006140956F0208956F0208956F020881B70408D3
S31508006150E5770408956F0208BFB10408C5B10408BD
S31508006160956F0208956F0208956F0208956F0208E9
S31508006180F0B5114A114C124E00F00105E3695F079C
S3150800619013D40DB9334213D103EA00078F4207D14E
S315080061A00B4A1A40002A0CBF00206FF00100F0BD10
S315080061B0013AEBD16FF00200F9E74FF0FF30F6E74E
S315080061C06FF00100F3E700BF8096980000000350C7
S315080061D002000100000000000000000000000000AE
S315080061E000F58050D0F8000A704700F58050C0F8D6
S315080061F0001A704700F54050B0F8E209704700F5FC
S315080062004050B0F8E009704700F54050D0F8D40B7C
S31508006210704700F5805090F8660E704700F580507C
S3150800622090F8740E704700F5805080F8741E704719
S3150800623000F5805090F8750E704700F5805080F88C
S31508006240751E7047004870475CEA040800487047A6
S315080062505DEA0408004870475EEA0408004870478B
S315080062605FEA040800F58050D0F80C0A7047002948
S3150800627008BF4FF4E151054B00F58050994294BF91
S31508006280C0F80C1AC0F80C3A704700BF9AC4200030
S3150800629000F58050D0F8100A7047074B00F580507B
S315080062A0002914BF0A461A46044B9A4294BFC0F8FE
S315080062B0102AC0F8103A7047007512009AC42000D8
S315080062C000F50050D0F8EC00704700F5EE500430A9
S315080062D0704700F5EE501530704700F58050D0F83D
S315080062E0F00D704700F58050B0F8260E704700F59F
S315080062F08050A0F8261E704700F50050B0F8A2039B
S3150800630070470420704700F5005090F8E130012BE3
S315080063109ABF80F8621300200D20704700F50050E0
S3150800632090F86603704700F5005080F866137047CA
S3150800633000F54050D0F86008704700F54050C0F8A6
S315080063406018704700F5005090F86303704700F531
S31508006350005080F86313704700F5005090F8640306
S31508006360704700F5005080F86413704700F5005038
S3150800637090F86903704700F5005393F8E10010B9E7
S3150800638083F8691370470D20704700F5005090F8A0
S315080063906503704700F5005080F86513704700F5EF
S315080063A0405090F86102704700F5405080F861123D
S315080063B0704703468288C088114481429DBF186889
S315080063C0998080180020704770B505680C4625B975
S315080063D0BDE870404B68084818478B6898476A6854
S315080063E00146831A002BB8BF121A2368A8BF0022D9
S315080063F0BDE8704000481847E81D002038B50C462F
S315080064001146A2680346944206D00568AC420BD1F1
S315080064100260FFF7D9FFA46038BD94420DD011463B
S315080064209268002AF9D1F6E72A460021F9E78B682F
S31508006430002BF0D09B688B60EDE70029F7D1002D83
S31508006440E9D0AA681A60E6E72DE9F041936805469F
S315080064500C46164698473246074621462846FFF711
S31508006460CDFF2868002203466BB16168D3F804E0C3
S31508006470A1EB070CAEEB070898EA0C0F13D4A1EBB7
S315080064800E01002907DA4AB9A060314628462C6071
S31508006490BDE8F04198E71A469B68E5E79368A3606C
S315080064A09460BDE8F081BCF1000FEBE770B50668B3
S315080064B004460D467EB18B6898477368C01A002853
S315080064C009DB20462A463146FFF798FF30463368EF
S315080064D0BDE87040184729462046BDE8704073E776
S315080064E000F5405393F8D03B13B102490830DDE775
S315080064F0704700BF60EA040800F5405393F8D03BA4
S3150800650013B102490C30D1E7704700BF6CEA0408A2
S31508006510012300F00700834013F0220F09D113F07E
S31508006520880F08D113F0440F14BF01200020C000C3
S31508006530704704207047102070474200400800F05A
S31508006540553002F0AA3202439300920802F0333221
S3150800655003F0CC33134318011B0903F00F3300F083
S31508006560F030184300BA704730B50C4687B0054678
S3150800657001A920683AF076F870B9606805A93AF07A
S31508006580B0F848B9A3684BB92B68024603F5CF5053
S3150800659001A9103018F030F807B030BD0720FBE726
S315080065A010B50C684CB90068224600F5CF5010307B
S315080065B0214616F07BF8204610BD0720FCE7024B63
S315080065C0024A12F086BD00BFEB610008E1610008CF
S315080065D00968006843F09BBE0968006843F097BEE7
S315080065E070B50E6805460C4686B03046194939F02E
S315080065F031FCD0B100260434206801A93AF032F8FB
S3150800660088B9606805A93AF06CF860B9A368F3B967
S31508006610286885F8406000F5B45001AA05F10C0118
S31508006620183017F093FD06B070BD30460A4939F0A8
S3150800663011FC10B103260434DEE73046074939F069
S3150800664009FC10B101260434D6E70226D4E7072050
S31508006650E9E700BFD4E80408D7E80408DAE804083C
S31508006660014651F80C0B00F5B450183015F0F2BF7E
S315080066701346B0F86C202AB10A4600F15C010248BC
S3150800668018F00AB80D2070478034002000F54050F5
S31508006690B0F8E2398B4209D0A0F8E219044890F81C
S315080066A0E130022B02D1E0303BF00CBF704700BF4F
S315080066B0E83D002000F54053B3F8E0298A4206D0A9
S315080066C000F56750A3F8E019203016F080B9704736
S315080066D01FB500240294079C00F5CA500194069C35
S315080066E00C30009418F08AF904B010BD1FB50124C7
S315080066F00294079C00F5CA500194069C0C3000943D
S3150800670018F07CF904B010BD00F5EF500A460630C3
S31508006710002115F023BB00F5EF500A46063001218B
S3150800672015F01CBB08B53530353120F0010021F0D5
S31508006730010103780A7803F00F0302F00F029A4268
S3150800674007D10431043044F069FDB0FA80F04009FD
S3150800675008BD0020FCE710B5044604F5005438F0DF
S315080067605DFCD4F8CC3033F07C4204D0C3F3190373
S31508006770984228BF184610BD052938BF0521B1F52E
S31508006780E14F28BF4FF4E14138B500F50055D5F87B
S31508006790EC30044699420ED0C5F8EC1038F032FCBD
S315080067A095F8E130022B06D104F503502030BDE8F8
S315080067B038403BF087BE38BD42F21073994210B597
S315080067C0044615D800F50053D3F8F02091420DD0B1
S315080067D0C3F8F01038F016FC064B93F87C3EDB073E
S315080067E004D504F50350203017F0C2FD002010BD73
S315080067F00720FCE7E82D002000F5EF5000220C30BA
S3150800680016F05CBD38B54B1E092B04460D460BD851
S3150800681000F50E500521203016F06FF930B904F551
S315080068200054A4F8A25338BD0720FCE70D20FAE768
S315080068303E2904D800F52A5008301CF081B80720F4
S31508006840704738B5044608464D7894F8FE20A91CCA
S31508006850031B51FA83F3D21A014443F031FD94F82D
S31508006860FE30023B5B1B84F8FE3038BD70B5064629
S315080068700D460024AC4201D3012070BD305D0134C1
S31508006880030605D43CF0B6F80028F3D00020F4E758
S3150800689010F04003FAD0810612D5C20612D50307B6
S315080068A0F4D4032307E0AC42F0D0325D013402F0A1
S315080068B0C002802AEAD1013BDBB2FF2BF3D1D9E72C
S315080068C00123F8E70223F6E738F052BF2FF0D8B8CD
S315080068D008B51B4B93F85D2E012A03D0062A05D06E
S315080068E02AB3FEE7BDE808402FF0B0B8002083F8C9
S315080068F05D0E03F5805393F8DC10CA070CD5C1F377
S31508006900C302013202F00F0262F3C601042A83F8B9
S31508006910DC1005D838F02CFFBDE808402FF0B0B8D9
S3150800692093F8DC2060F3C60283F8DC20F4E793F8DA
S315080069305C2E520703D5B3F85E3EDB05ECD408BDE2
S31508006940E82D00208378082B09D190F86E00C3093A
S3150800695003D000F07F0038F0A5BB38F0CFBB7047F6
S315080069602FF08EBE436810B4D3E9004023465DF885
S31508006970044B18470EB403B503AA52F8041B019238
S31508006980FFF7F0FF02B05DF804EB03B0704701496A
S31508006990F0E700BFDDE80408F8B506460C46064FE2
S315080069A08D18AC4200D1F8BD3946304614F8012B93
S315080069B0FFF7E0FFF5E700BF6FC9040810B5044606
S315080069C0FFF7EAFF2046BDE81040E0E7F0B51C46B1
S315080069D0002387B08DF8143052EA0403064615469C
S315080069E00ED130230DF113078DF8133030463A4691
S315080069F00D49FFF7BFFF304607B0BDE8F040C6E7D0
S31508006A0005AF284621460A22002343F041FA3032D0
S31508006A1007F8012D2A4623460A2A73F1000305467C
S31508006A200C46EED2E2E700BF02C804084FF4201372
S31508006A3030B58DB0044601930023084602AD694679
S31508006A4008228DF80830009515F067F92A46204681
S31508006A500249FFF78FFF0DB030BD00BF02C804081A
S31508006A6010B50446FFF7E2FF2046BDE810408EE762
S31508006A7037B50546CC884B8864BAA4B20A8801940F
S31508006A8089885BBA49BA89B252BA00919BB204495D
S31508006A9092B2FFF76FFF284603B0BDE8304076E7AD
S31508006AA0E0E8040810B504468CB00846694632F09A
S31508006AB0D9FD20466A460449FFF75CFF20460CB01C
S31508006AC0BDE8104063E700BF02C804080CB473B5FC
S31508006AD0054606AC54F8046B0A46074B0749FFF708
S31508006AE049FF2246314628460194FFF73BFF02B08C
S31508006AF0BDE8704002B070473FFE0408ABE90408E1
S31508006B000EB417B5044605AA52F8041B0192FFF7FE
S31508006B1029FF2046FFF73BFF03B0BDE8104003B04E
S31508006B207047F8B505680F6805F5D15604460E3660
S31508006B3027B93146FFF7B6FF0020F8BD4B68BBB949
S31508006B4038460D4939F086F920B131462046FFF717
S31508006B5087FFF1E73846094939F07CF950B105F560
S31508006B6080552046B5F83E2A0549FFF7C9FFE3E7F1
S31508006B700720E2E72320E0E705F2040831D10408FC
S31508006B80D2BD04082DE9F04115461D4A0446FFF713
S31508006B909DFF2A683AB120461A49FFF7EBFEAB7A01
S31508006BA0072B05D9FEE720461749FFF7E3FEF6E768
S31508006BB0164A204652F823201549FFF7DBFE6E7A5F
S31508006BC026B114492046BDE8F04199E72046124906
S31508006BD0FFF7D0FEDFF848802B7AF7B2BB4201D820
S31508006BE00E49EFE71FB141462046FFF7C3FE696825
S31508006BF0204601EB0711FFF719FF0136ECE700BF46
S31508006C00F1E804085EEB040858C6040828E30408FB
S31508006C10F7E804085FC604083DC6040878C40408F3
S31508006C2072C404082DE9F74305460E461446DFF8F4
S31508006C306C8014B903B0BDE8F0832368424600931C
S31508006C40636831462846FFF741FFA3687BB9E27DB2
S31508006C50072A10D9FEE749462846FFF78BFEA368A0
S31508006C60BAB253F822200137002AF4D1EFE70027F9
S31508006C70DFF82C90F3E7A18A238A0191618A2846D6
S31508006C800091044951F822200349FFF739FFE469C6
S31508006C90CFE700BF28E3040826E904080AE9040840
S31508006CA022E90408F8B5069D1C462B7A0F461646B7
S31508006CB02BB3252896BF184B184A53F82020184995
S31508006CC02846FFF71DFF28461649FFF719FF3A46DB
S31508006CD004212846FFF756FF28461349FFF710FFF9
S31508006CE0324604212846FFF79DFF4CB128460F4936
S31508006CF0FFF706FF224604212846FFF793FF04B94B
S31508006D00F8BD2B68E26903F58053D3F8F41AE161FC
S31508006D10C3F8F44A1446F2E7ECE4040872C7040818
S31508006D2053E9040872E904087DE904088BE90408B4
S31508006D30034A044B00290CBF11461946E0E600BF7A
S31508006D40C6D50408A1E9040810B50C685CB903683F
S31508006D5003F5805393F8F019003918BF0121FFF79E
S31508006D60E7FF204610BD0720FCE70CB473B50446C0
S31508006D7006AD55F8046B094B0A460949FFF7FAFDB3
S31508006D802A46314620460195FFF7ECFD2046FFF7D7
S31508006D90FEFD02B0BDE8704002B070473FFE040831
S31508006DA0ABE904082DE9F04F05460E461C46174682
S31508006DB0DFF890B085B003F1FF3802EB81094F4543
S31508006DC017D128461C49FFF79BFEDFF87090DFF8BD
S31508006DD07880264449462846FFF7CCFD14F8017BFF
S31508006DE017BBB442F6D12846144905B0BDE8F04FA2
S31508006DF086E657F8043B18F801AF1846039343F0A4
S31508006E00DBFA02305045039B06D859462846CAF194
S31508006E100102FFF7AFFDD2E700935346284608491B
S31508006E205A42FFF7A7FDCAE741462846013FFFF742
S31508006E30A1FDFFB2D4E700BFDEC70408B6E904081F
S31508006E40AFE90408A9E90408C8FC040870B506688F
S31508006E500D463046074938F0FDFF044620B930464E
S31508006E60054938F0F7FF10B100202C7070BD2320BB
S31508006E70FCE700BFB8E90408BFE9040810B50C68C8
S31508006E800B462CB1BDE8104000F108011846DDE7B5
S31508006E90017AFFF74DFF204610BD2DE9F0418046E7
S31508006EA008680F4616461D4688B008B3114639F0DD
S31508006EB0D9FB002304462B7098B1396891B101A813
S31508006EC033F052F870B908F55C5002A91C301DF071
S31508006ED058FA58B9304601AA02A918F088FF0123C2
S31508006EE02B700024204608B0BDE8F0810D24F9E790
S31508006EF00724F7E7F0B587B00DF10303044601AAA6
S31508006F0000680D46FFF7C9FF034668BB9DF80330C6
S31508006F103BB120461749FFF72DFD204601A9FFF78B
S31508006F209FFD05AF3946686839F0DBFB0346D8B9DB
S31508006F30AA68E2B9254655F81ECB01AA164603CE1D
S31508006F40BE4228606960324605F10805F6D13288E6
S31508006F502A80A28B42B904F10C020CF5B4501146F2
S31508006F60183017F0F3F80346184607B0F0BD0723A4
S31508006F70FAE700BFC7E90408024613780846D907A6
S31508006F800AD499071BD45B071BD403462D2203F8A2
S31508006F90012B00221A7070477221034603F8011B61
S31508006FA01178890702D5642103F8011B1278520764
S31508006FB002D56E2203F8012B8342EAD1E5E70346A0
S31508006FC0F1E70346F5E7102208B544F027F9B0FAC9
S31508006FD080F0400908BD0FB407B504AA52F8041B8F
S31508006FE00448019237F0E8FD03B05DF804EB04B0FD
S31508006FF0704700BF78EA04080B6A994200D0FEE79A
S315080070000B796FF382030B71036823B9C1E9073360
S315080070100160416070470023CB6143680B62D96108
S31508007020F7E70023C0E900337047837FC22003F0E7
S315080070300F03D84000F001007047036823B91720F2
S31508007040B0FA80F040097047994201D01B6BF5E70A
S315080070500020F5E7F8B5054655F80C6B044606F525
S31508007060B55729463846FFF7E8FFB0B9284615F060
S3150800707053FB012384F84030094B29463846C4E9B6
S315080070800C34FFF7DAFF30B906F58056D6F8A03685
S31508007090E363C6F8A0560020F8BD1820FCE700BF39
S315080070A06975000808B51FF0DCFE08BD01F110037C
S315080070B051F8042B994240F8042BF9D17047353022
S315080070C020F001000078C0F30110704708B5FFF7FB
S315080070D0F6FFB0FA80F0400908BD0B6A994200D065
S315080070E0FEE70B796FF382030B71036823B9C1E9D5
S315080070F007330160416070470023CB6143680B6228
S31508007100D961F7E7836D18472622002143F050B866
S31508007110030E0B70030C4B70030A8B70C870704714
S31508007120353020F001004078831E58425841704798
S3150800713008B50246FFF7CAFF18B1BDE80840104671
S31508007140EEE708BD70B505460C4623461E4613F8FD
S31508007150012B4AB9204643F02FF9224681B2284628
S31508007160BDE8704032F070BE2F2AEFD1311B22469F
S31508007170284689B232F068FE08B9741CE5E770BD86
S315080071801422002143F014B82DE9F84F0746884623
S3150800719091469A464FF0000B0A9D0BEB09046610C0
S315080071A006FB0A8638463146A8470028C4F34F042A
S315080071B007D0D2BFA14601341FFA84FBCB45ECD3D6
S315080071C000263046BDE8F88F0023F0B5441E184661
S315080071D001392AB91BB1024492B2904211D1F0BDCD
S315080071E014F8017F11F8016F082A154628BF0825EB
S315080071F0B74287EA0603EDD12844521B80B292B201
S31508007200E7E71906EBD45B000130DBB280B2E4E7AE
S3150800721000BA704708B50346D1E9000252BA1A8087
S31508007220FFF7F6FF8A7AC3F80200088942EA4002A5
S3150800723052BADA8008BD838870B50446C0889E189D
S315080072408642154608D82068184443F053F80020AB
S31508007250A3881D44A58070BD0320FCE707B549BA7D
S31508007260ADF8061002220DF10601FFF7E4FF03B0A0
S315080072705DF804FB0122DEE738B50446A388084614
S31508007280934215460AD3216843F034F80020A388B0
S3150800729022685B1B2A442260A38038BD0620FCE7CF
S315080072A00122E9E710B502220C46FFF7E5FF10B9FF
S315080072B023885BBA238010BD4368036003B1DB698A
S315080072C043607047C3892DE9F04101EB03081FFAB3
S315080072D088F8434504460D4602D90320BDE8F081E7
S315080072E006464C27B845336815D80022144832603C
S315080072F000F5805CC66DBCF860164F1EBFB2C3B9F8
S3150800730012B1C665ACF86016A3890020AB42658148
S3150800731088BFA581E2E71BB17C373668BFB2E1E7D3
S315080073206079C0F341003AF09DFB30600028F3D144
S31508007330D3E71A6839461E601E4613460122DCE763
S31508007340E81D0020F8B500F1350424F001040546CF
S3150800735020460F461646FFF713FF2378042103F04D
S315080073603F0343F04003237000232846AB81218264
S31508007370FFF7A8FF2378667023F0300343EA071166
S315080073802170F8BD70B500F1350525F001052B789B
S31508007390064623F00F0302F00F000343284614465F
S315080073A000F8043B42F0A6FF2B8A3046E11889B262
S315080073B02982BDE8704085E7353121F001010A7858
S315080073C002F00F02082A00D9FEE70431DAE78389BA
S315080073D042891944914200DDFEE789B291428181D2
S315080073E000D9FEE7704710B4446A34B10022234638
S315080073F042625DF8044B826A18475DF8044B704791
S3150800740038B504460221FFF7EEFF236A9C4200D0F6
S31508007410FEE7094A02F58051D56DB1F86036206855
S31508007420013B25609BB2254618B9D465A1F860369C
S3150800743038BD0446F3E700BFE81D002043898B42A8
S3150800744000D2FEE75B1A43818389C2898B4294BFC7
S3150800745000235B1A0A4488BF9BB2C28183817047A6
S3150800746070B54489A14230D215880D44AEB2B142F6
S3150800747001D8A54201DB641A1480C48998602144A6
S3150800748089B24B29044610D834304418C1F14C014E
S3150800749089B2998010881C60814228BF014699806C
S315080074A011889B88CB1A138070BD4C39246889B221
S315080074B00CB99C60FEE77B2905D89C6004340C4413
S315080074C0C1F17C01E4E77C39F0E70021E7E770B514
S315080074D0154686B0ADF806300DF1060203ABFFF788
S315080074E0BFFF2C46BDF810601EB9601B80B206B0FF
S315080074F070BD03993246204642F0FCFE03A90DF101
S315080075000600344437F0B0FEECE770B5054616467B
S315080075100C468B894A89ADF5BC6DD21A0F49FFF71F
S3150800752029FA284606F11001FFF780FA2846728CD8
S315080075300B4901AEFFF71EFA3246A18940F2DB532A
S315080075402046FFF7C4FF0023324633540549284630
S31508007550FFF7D6FA0DF5BC6D70BD00BFF0E904085B
S31508007560F6C2040802C80408CFE738B54589CC181E
S31508007570AC4203DCFFF7ABFF002038BD0620FCE772
S315080075800246084649893823383989B2EDE7024662
S31508007590084649892C232C3989B2E6E770B5164680
S315080075A0353104688CB021F0010514B920460CB0B9
S315080075B070BD04F1350323F001036A885B889A429B
S315080075C012D102A8FFF7A0FD214601A8FFF7DFFFA9
S315080075D0BDF82A20738C9A4206D106F1100106A836
S315080075E0FFF7F1FC0028E1D1E469DEE738B5044687
S315080075F00D460B4601890068FFF7B7FF10B92389C6
S315080076001D44258138BD0B8813B50C2B0C460BD9A8
S315080076100D2B0CD101210DF10602FFF7E7FF20B96A
S315080076209DF806300D332380002002B010BD0E2BC6
S315080076300CD102210DF10602FFF7D8FF0028F4D17C
S31508007640BDF806305BBA03F20D13ECE70620ECE74B
S3150800765073B54FF6FF76C3880446B34206D00121B8
S315080076600DF10302FFF7C2FF18B1E680002002B051
S3150800767070BD9DF80350FF2D0CD1236822895B89C4
S31508007680E6809A42F2D306204FF6FF73E380002382
S315080076902381ECE72B0920460DF10601ADF80630EB
S315080076A0FFF7B1FF0028EFD105F00F05204601A925
S315080076B0ADF80450FFF7A7FF0028E5D12168238914
S315080076C04989BDF80420C91A8A42DCDC1344BDF88E
S315080076D006102381A388E2800B44A380C6E730B452
S315080076E001F1350222F00102D48912784D8902F09F
S315080076F00F020432224495424FF0000404D3C0E935
S31508007700001430BC0281A3E74FF6FF720481C280E1
S3150800771030BC0620704710B44C889C4203D30988B5
S315080077205DF8044B21E706205DF8044B70472DE908
S31508007730F04786B017461C46ADF806300DF106022E
S3150800774003ABDDF83880FFF78BFEBDF810507DB12E
S31508007750039EB8F1000F11D0B94606EB050AB245EB
S3150800776013D019F8011B16F8010BC0470028F6D1EB
S31508007770B4FA84F0400906B0BDE8F0872A463946CF
S31508007780304643F04BFD0028F2D12F4403A9651B70
S315080077900DF10600ACB237F067FDD6E770B586B0D6
S315080077A0ADF806300B4414469AB2914200D9FEE76A
S315080077B04289934200DDFEE703AB0DF10602FFF7AF
S315080077C04FFEBDF810500DB906B070BD21462A46C9
S315080077D0039842F075FD03A90DF106002C4437F015
S315080077E043FDEEE770B500F1350424F00104A37CEF
S315080077F005465BB14389218A994207D1012994BF7D
S31508007800491A01F1FF3189B2FFF75CFD2378224658
S3150800781003F00F032846BDE8704000210433BDE796
S315080078202DE9F041B0F80A800F4602EB080399B239
S315080078304145054616460CD3FFF744FD044628B9CC
S3150800784033463A4641462846FFF7A8FF2046BDE894
S31508007850F0810324FAE72DE9F043074601239BB09C
S3150800786057F80C4B8DF80530037A0646884604F51A
S31508007870B55039468DF80430FFF7DFFB002800F0D5
S31508007880B6802622002103A842F092FCD8F80830D8
S31508007890EBB1204641460DAB07AAFFF7FEFA0446B0
S315080078A0002843D19DF834303BB130465349FFF7A1
S315080078B061F8304607A9FFF7D3F8D8F804000DF1A8
S315080078C02E0138F00EFF044680BB08F10808082090
S315080078D001A932F0F0FB0546002800F08A80D8F8A6
S315080078E000404749204638F0B5FA00283ED0D8F877
S315080078F004000DA938F0F5FE044600283FD13023D0
S31508007900BDF834808DF80830B8F1000F12D16B79C4
S31508007910306813F0180F31D000F5B4502A463946AE
S3150800792003AB183016F0B8FE044640BB20461BB021
S31508007930BDE8F0830122284602A9FFF771FF044635
S31508007940E8B99DF808305A2B0AD07A2B0AD0392B79
S315080079500AD00133DBB208F1FF381FFA88F8D1E7FD
S315080079606123F8E73023F6E74123F4E72046254963
S3150800797038F070FA20B3D8F8043023B9072428461B
S31508007980FFF73EFDD2E74FF03209029302230DAA14
S315080079900DF1060102A8ADF8069020F00FFA804610
S315080079A008B1242827D12846BDF806200DA9FFF7D7
S315080079B037FF04460028E2D1B8F1000FE6D1A6E762
S315080079C02046114938F046FA08B108F10408D8F8F3
S315080079D00040002CD2D0204642F0EEFC214682B26E
S315080079E02846FFF71DFF0446002890D0C7E70D2458
S315080079F09CE703249AE70446C1E700BFFFE90408A9
S31508007A0025EA0408F9D2040828EA0408012207E747
S31508007A10FF2313B58DF8073043890446B3F5007F75
S31508007A200FD20DF10701FFF7F1FF40B9012204F16A
S31508007A30350323F001039A7462891A82A28102B07F
S31508007A4010BD0320FBE703781BB1012B03D00020F0
S31508007A5070474068E4E60430FFF7EDBB2DE9F041D6
S31508007A6014469A180E4691B286B08C420546ADF871
S31508007A70063029D87189914228DBB0F80A80434438
S31508007A8099B2414524D3FFF71DFC074648B921465C
S31508007A90304603AB0DF10602FFF7E2FCBDF81040D5
S31508007AA01CB9384606B0BDE8F0812346414628464B
S31508007AB0039AFFF773FE444403A90DF106001FFA63
S31508007AC084F837F0D1FBE9E70727EAE70627E8E76E
S31508007AD00327E6E773B5054603796E8940798E4232
S31508007AE0C0F3410228BF0E46C3F340038DF80520B4
S31508007AF0E98901AA40098DF804303AF015F80446D8
S31508007B00002832D0334600222946FFF7A7FF48BB94
S31508007B10AB896289B34228BF33469A4200D2FEE750
S31508007B20A381AA79A37962F30303A3712B79227936
S31508007B30DB0963F3C71222716B796279C3F3C10358
S31508007B4063F3C4026271AB69A3612B8A23826B8AD1
S31508007B5063822B7A2372AB8DA385EB8DE385204652
S31508007B6002B070BD2046FFF74BFC0024F7E710B5BE
S31508007B700446FFF7AFFF98B104F1350300F135026B
S31508007B8023F0010322F0010203F1100153F8044B1C
S31508007B908B4242F8044BF9D1198811809B7893706F
S31508007BA010BDF8B504460E46154600F13407E389BC
S31508007BB09D420BD85B1B6289E381A3892A442B4427
S31508007BC092B29BB29A42628117D2FEE76079C0F3FD
S31508007BD0410039F047FFC8B123680360E389206094
S31508007BE04B2B06D83430C3F14C02F918184442F02E
S31508007BF081FBE3897C33E381D9E72046A3813246BA
S31508007C002B460021FFF7CAFD0020F8BD0320FCE73C
S31508007C1038B504460D460B882C3020F81A3C8B786C
S31508007C2000F8243C91F9031015F0C2FC297904F1F7
S31508007C302E0015F066FD6B79C3F3400203F00103CD
S31508007C405B0043EA0223A28822F481721343A380CD
S31508007C5038BD0368994204BFCB69036043689942FB
S31508007C6004BF0B6A43600B6A0BB1CA69DA61CB6958
S31508007C700BB10A6A1A6200220B79C1E9072162F37D
S31508007C8082030B71704710B5FFF7E3FFBDE810409C
S31508007C900846FFF7B5BB10B50446216801B910BD03
S31508007CA02046FFF7F0FFF8E70023C1E90033026832
S31508007CB002B970470B88106801330B80012340B95D
S31508007CC0488803444B8050894B68D26903444B600B
S31508007CD0EEE701330068DBB2F1E70B7910B55B0715
S31508007CE000D4FEE74B79C3F3410300EB83025468E3
S31508007CF0A14209D10C6A546034B16479C4F34104D1
S31508007D009C421CBF002353600368994204BFCB6999
S31508007D100360CB690BB10A6A1A620B6A0BB1CA69AE
S31508007D20DA6100220B79C1E9072162F382030B713C
S31508007D3010BD0023C1E90033026802B970470B88F9
S31508007D40106801330B80012340B9488803444B80EF
S31508007D5050894B68D26903444B60EEE701330068EB
S31508007D60DBB2F1E74A7970B5C2F3410214460B79E2
S31508007D70061D43F004030B7156F824301BB9013471
S31508007D80E5B2042DF8D10B624BB90368CB610160EB
S31508007D90CB6903B1196200EB8200416070BDDC69F2
S31508007DA0CC61D961F4E78B894989038099422CBF54
S31508007DB0C3EB0102C3EB0302DB4392B29BB29342CD
S31508007DC028BF13464380704743880288994228BFD4
S31508007DD0194612FA81F25B1A028043807047084AF4
S31508007DE0138803B9FEE748F24E305368A3FB003008
S31508007DF010EB530044BF20F000400130506070473C
S31508007E00C0590020814210B5044600D8FEE7FFF7A6
S31508007E10E6FF091BB0FBF1F303FB1100204410BD7C
S31508007E2010B50446FFF7DBFF091BC0B290FBF1F360
S31508007E3001FB13002044C0B210BD38B50D4681427F
S31508007E4088BF85B26900044601310020FFF7DAFFD2
S31508007E502044401B38BD112313B50F2200210446C8
S31508007E60ADF8063042F0A4F90223E3730023224654
S31508007E7023740520618A0DF1060332F0BFFA0C2837
S31508007E8000D1FEE7003818BF0120207502B010BDEA
S31508007E9010B540B10023441E98B2814203D901337C
S31508007EA0E25C002AF8D110BD0139013811F8012F1A
S31508007EB010F8013F3AB9002B14BF01200220831E97
S31508007EC05842584170479A42F0D00020F7E72DE90A
S31508007ED0F04F0C6807460E4685B04CB90368214634
S31508007EE003F58053D3F86C2AFEF79CFE002444E081
S31508007EF02046A24937F0AEFF002800F0F1803B6823
S31508007F0003F58053D3F8F45A002D00F02981AB46C7
S31508007F10EA690021C3F8F42A28464FF4987242F019
S31508007F2047F905F1340A05F58A734BF894ABAB604B
S31508007F3005F12803EB60012305F1D408C5F804B060
S31508007F40AB75C5F82C8005F110094946F06838F07C
S31508007F50C8FB044648B971680846019142F02CFAF4
S31508007F60421C402A01990CD907243B6803F5805323
S31508007F70D3F8F42AEA61C3F8F45A204605B0BDE8F6
S31508007F80F08F584642F0B6F9D6F808B0584642F08F
S31508007F9013FA421C602AE7D85946504642F0AAF915
S31508007FA02C21504642F0E8F978B94946F06838F08D
S31508007FB098FB04460028D8D13069B8B97069E8B981
S31508007FC0B4691CBB0023AB7533E005F5887A05F563
S31508007FD0947B00F8014B2C214AF8040F42F0CCF9A7
S31508007FE00028E2D0D345F4D10324BEE705F11201F7
S31508007FF038F077FB04460028E0D0B6E705F114010F
S3150800800038F06FFB04460028DAD0AEE720465C4914
S3150800801037F020FF0028D5D129464023424621F8CB
S31508008020303F03A8012303941FF0C8FE0446002826
S315080080309BD1F069002830D1306A002835D13E68D6
S3150800804006F58059D9F86C8A4446002C3AD12B6833
S31508008050002B89D06B68002B86D0EB6813B9AB7DF3
S31508008060002B81D107232A6AEB75464BC5F81C807D
S315080080709A4294BF2A622B626A6A00219A4294BF86
S315080080806A626B622846C9F86C5A14F008F806F555
S31508008090CF50103014F014F928E705F1200138F014
S315080080A00EFB04460028C7D05FE705F1240138F027
S315080080B006FB044600287FF458AF736A002B7FF44A
S315080080C053AFBCE729682068FFF7EEFE20B1696860
S315080080D06068FFF7E9FE08B9E469B6E7182444E7DB
S315080080E02046294937F0B6FE814628B92046274951
S315080080F037F0B0FE002835D0B3680193002B33D093
S31508008100D6F80CB0BBF1000F2ED1D7F8008008F5D1
S31508008110805ADAF86C5A2C460CB917242DE7616890
S31508008120706837F097FE28B12168019837F092FEFB
S31508008130002846D1E469EFE7AC4217D0ED69002D77
S31508008140FAD1EAE79C4223D09B46DB69002BF9D19A
S31508008150E3E7DBF81C3013B3DB69CBF81C301EE011
S3150800816003240AE7232408E7072406E7E37D043BFC
S31508008170012B8FD90423E3758CE700BF50BE040892
S31508008180C8FC04089AC4200054BE040864C604083F
S31508008190BBF1000FDDD115B1EB69CAF86C3A0023C3
S315080081A0E361E37D072B1CBF0723E37514F088F80A
S315080081B03B6803F58053D3F8F42AE261C3F8F44A1E
S315080081C094E608F5CF501030B9F1000FB7D12B4619
S315080081D0BCE7A0F14103052B04D83738C0B20870B4
S315080081E000207047A0F16103052B01D85738F5E741
S315080081F03038C0B20928F2D90720704770B504464E
S315080082000E46E588134682880068AA4234BFA91A32
S315080082100021104432463AF0FDFB002800DAFEE75A
S31508008220A388E288184480B2904228BF2368A080B9
S3150800823022BF9B18002203F8012C204670BD0EB4FD
S3150800824017B5044605AA52F8041B0192FFF7D6FF94
S31508008250204603B0BDE8104003B070474FF434130E
S315080082602DE9F04794B00293002303AA06460C466C
S315080082700D46914691F810C08DF820300CF1070391
S31508008280DB100DF120085F1CCDF804807F0801F192
S31508008290100A9646286869680835AEE80300554509
S315080082A07246F6D129788EF800106BB14FF0FF317F
S315080082B003F14F026A4412F8440CCCEBC30C01FAE2
S315080082C00CF1014002F8441C102BC3F1100292B2C3
S315080082D009EB030088BF0022002141F069FF3A46F6
S315080082E0484601A913F019FD237C0733772B03D8D9
S315080082F0084901A8FFF7A3FF227C074901A8FFF751
S315080083009EFF424630460549FEF734FB14B0BDE8E9
S31508008310F08700BF2BEA04082EEA040802C80408FE
S3150800832010B5044642F048F801462046BDE810401C
S31508008330FEF79CBA43684BB9054B5A6812B95860A0
S31508008340406070475168416050605860704700BF90
S31508008350E81D002003685A1A11EA220138BF194697
S3150800836043685A1A13EA220338BF0B46436070471C
S315080083704160024A01460248FEF766B860EA040808
S31508008380F01D0020002A00DAFEE71144F0E738B5B0
S315080083900D460446FEF786FE2A4601462046BDE8F7
S315080083A03840EFE7064B07485A69196A914208BFF1
S315080083B09A6901F1804104BF01329A61D8E700BF8A
S315080083C0E81D0020041E00208368984203D04368F5
S315080083D0CB1A002B00DACBE770470146014A024860
S315080083E0FEF70CB860EA0408F01D0020D1E9003158
S315080083F003F10043013B8B4200D0B9E7EDE710B526
S31508008400044692B0684637F0F8FF616802A838F06B
S315080084102BF8029931B9694604F11000FFF7E6FF17
S3150800842012B010BD04A8FFF7ABF868460F99FFF71E
S3150800843091FF02A8FEF740FFEBE72DE9F04105465C
S31508008440144604301E46069F9DF81C80FFF71BFC49
S315080084502846FFF7D4FF656A3DB143463A4631469A
S31508008460AC46A06ABDE8F0416047BDE8F0812DE959
S31508008470F04192B004460D46416802A837F0F4FF71
S315080084800B274FF00008029E16B912B0BDE8F0811E
S31508008490314604A8FFF774F825B1294604A8FEF763
S315080084A092FD38B1002331462046CDE9008704AA5B
S315080084B0FFF7C3FF02A8FEF7FFFEE4E72DE9F04F3A
S315080084C09FB00093289B064608460193FEF7F7FDE2
S315080084D002280C4617460CD0032801F1350300F094
S315080084E0F280B28923F00103511C52BAB1815A8035
S315080084F045E006A8FEF708FEFEF7D4FD3A4600F565
S315080085007130D83006F12C09059006AB07F1200C1E
S315080085101D4610685168083203C562452B46F7D1D7
S3150800852010682146286092884846AA803A46FFF78E
S3150800853035F8054618BBF16A03A837F095FFAA4631
S31508008540AB46DDF80C80B8F1000F40F09C801FFAAE
S315080085508AF3092B03D929464846FFF794FB204698
S315080085606189FFF704FB054648B12C2205A9FFF7E8
S3150800857057F9002800F09D802846FEF741FF20465F
S31508008580FFF730F92046FEF7A1FD002800F0A2808B
S31508008590B4F80AB0BBF1000F00F0B68010AB3D4648
S315080085A0994607F1100C1A4628686968083503C207
S315080085B065451346F7D17B8C14AAADF8603005F1F2
S315080085C0100C134628686968083503C365451A46BA
S315080085D0F7D1009A97F825301992019AC3F3001338
S315080085E01A92BDF874209B0222F49F6222F00702B9
S315080085F043F00403134340F6B9314FF4FA60ADF87B
S315080086007430FFF7FFFB9DF875301C906FF300037D
S3150800861020468DF87530FEF759FD9DF8753060F3E4
S3150800862041038DF87530FEF73DFD9DF875305946C6
S315080086309B074CBF1C9B384B18441B902046FFF7E2
S3150800864096FA054600285AD038224946FFF7E8F830
S31508008650002851D106F1040829464046FEF73DFD9B
S315080086603046FFF7CCFE21463A463046FEF74AFD2D
S315080086700446002844D040462946FFF704FB304606
S31508008680FFF7BDFE3CE011A8FEF73EFD414610A8E7
S31508008690FEF77DFF25B1109AA2EB0B02002A02DA3B
S315080086A04546DDF840B003A8FEF706FE0AF1010AC2
S315080086B047E729464846FEF710FD059906F13400B6
S315080086C0FFF782FE5BE723F001035B78002B3FF49C
S315080086D056AFFEE72046FEF7F2FC012814D1009BB0
S315080086E093B104F1350323F0010393F800B00BF0BE
S315080086F00F0B0BF1040B51E72846FEF781FE032406
S3150800870020461FB0BDE8F08F3A46214630461FB0D6
S31508008710BDE8F04FFEF7F6BC486B0100002307B52D
S315080087200093FFF7CBFE03B05DF804FB2DE9F0419B
S315080087309CB0C568FEF7B6FC064604A8FEF7E4FC3E
S31508008740696802A837F090FE1C274FF00008029CC3
S315080087502CB92846FFF753FE1CB0BDE8F081214628
S315080087600EA8FEF70DFF199BF31A002B0EDB9DF8DA
S315080087706D309A0702D59DF86C305BB90023214607
S315080087802846CDE900870EAAFFF757FE02A8FEF78E
S3150800879093FDDCE7013B8DF86C301A9B61895B0021
S315080087A01A9333441993382338390DEB03022046BC
S315080087B089B2FEF7F3FF9DF86D30DB07E6D40DF1BD
S315080087C0200C12AB0FCB8CE80F00BDF858300EA961
S315080087D004A8ADF83230FEF769FC9DF86D309DF8B7
S315080087E03520C3F3800363F304128DF835206189BD
S315080087F02046383989B2FFF7BAF904460028C5D0A9
S31508008800014604AA2846FEF77DFC0028BED020466D
S31508008810FEF7F6FDBAE72DE9F04701F1350727F02F
S31508008820010715467B1ACA89203B9A4206460C461A
S3150800883094B000D2FEE7B1F80C803846FEF7A0FCEB
S3150800884004233A4641462046A7F80E80FEF78DFED9
S3150800885000284DD13B7803F00F03082B48D808F1C0
S31508008860040120463A1D89B2FEF77FFE00283FD153
S315080088700DF1180821464046FEF731FF002837D18A
S315080088804FF6FF79BDF81E304B452CD1FB89BDF854
S3150800889020102046C91A89B23982FEF798FD7B78DE
S315080088A0013B032B35D9716803A837F0DDFD05F1C7
S315080088B0100ADDF80C90B9F1000F40F0D480F36C83
S315080088C0002B40F00B812046FEF700FC20B920461D
S315080088D0FEF7F5FB01285DD12B46224603213046DB
S315080088E037F040FE56E04046FEF7B2FE0028C9D0F3
S315080088F02B78FF2B4ED02046FEF7E8FB002849D000
S315080089002B4622460321304614B0BDE8F04737F01F
S3150800891029BE736ADBB92A46214606F12C00FEF702
S315080089203DFE38BB214603A8FEF7D9FE4FF6FF7772
S31508008930002840F02981BDF81230BB4263D0BDF84B
S3150800894010300B2B5FD003A8FEF782FEF0E729460E
S31508008950B26A98470028DED017281BD12B78FF2B40
S3150800896018D02B4622468421304614B0BDE8F0477D
S3150800897037F0A8BD41892C3989B2FFF7F8F80746C0
S3150800898040B1FEF72FFF2A4639463046FEF7BAFBB6
S31508008990002857D114B0BDE8F087474516BF3A46B8
S315080089A0424602F801ABD7180DF139018F42F1D2D0
S315080089B0BDF814100398C91A89B2FEF788FD03A8F2
S315080089C0FEF746FE002840F0DF80BDF812304B4522
S315080089D003D0BDF810300B2BF1D1BDF812304B4542
S315080089E0DBD100233B70776D9FB9376ACFB9736CBB
S315080089F023BB2B78FF2BCDD02B462246842130462D
S31508008A0037F060FDC6E747464FF6FF794FF02F0A65
S31508008A10E3E72B46224641463046B8470028E4D0CD
S31508008A20B8E741463868FFF73FFA28B12A46214693
S31508008A307B68B8689847ADE7FF68D7E72A462146B6
S31508008A40B06CF7E7172808D12B78FF2B05D02B46F3
S31508008A5022468421304637F035FD384614B0BDE845
S31508008A60F047FEF7CDBC49464046FEF789FD51461C
S31508008A700AA8FEF7A8FA20B1BDF838206B8C9A42EE
S31508008A8007D09DF82830FF2B03D00CA812F07FFFE3
S31508008A9000B32046FEF713FB012815D90238C0B2E9
S31508008AA0012817D809F1350323F001035A887B8872
S31508008AB09A420FD12046FEF702FB03283FF66AAF1B
S31508008AC0DFE800F04F55211449462046FDF72AFEF7
S31508008AD00028EFD103A8FEF7EFFBEAE62A4621466F
S31508008AE0306D984700287FF455AFECE67B78002B6D
S31508008AF07FF450AF0B22CDE9003242464946304654
S31508008B00FFF79BFC46E77B78E3B99DF84D309A075B
S31508008B100CD543F001038DF84D30B9F80A10382307
S31508008B2038394246484689B2FEF738FE0F9B002B75
S31508008B307FF430AF301D4946FFF7A5F83046FFF7FA
S31508008B405EFC27E73F2B7FF625AF49462046FDF713
S31508008B50E9FD00283FF41EAF0023CDE90053234664
S31508008B60CBE72B4622460221304637F0FBFC0F9F07
S31508008B70002FF1D09DF82830FF2BEDD100232A468F
S31508008B8021461098B84705E717283FF432AF01E7A2
S31508008B9030B5C46891B001A837F02FFC216803A846
S31508008BA037F062FC039D35B901A904F10800FFF707
S31508008BB01DFC11B030BD06A8FEF7A6FA294605A881
S31508008BC0FEF7E5FC0599019B5B1A002B07DB294696
S31508008BD02046FFF758F803A8FEF76EFBE2E701A860
S31508008BE0FFF7B8FBF7E708B5064B93F8E130042B17
S31508008BF006D10548FFF7F1FBBDE8084031F080B81B
S31508008C0008BD00BFE83D0020F85600204160024A32
S31508008C1001460248FDF718BC6CEA0408F41D00205A
S31508008C2010B5274C94F8923E033B042B47D8DFE84F
S31508008C3003F0030718140300BDE8104030F070B8BD
S31508008C40D4F8A83E987936F02DFAD4F8A80E0E2254
S31508008C50BDE8104000212CF06FBABDE810402BF09B
S31508008C60E5BDB4F8903E9B0700D5FEE72BF074FDF2
S31508008C707F2807D094F9A33E7F2B01D0984201DDC7
S31508008C8084F8A30EFEF70EFAD4F8A43EC01A0028FC
S31508008C9006DAD4F8F41E0B488031BDE81040B5E773
S31508008CA094F8923E94F9A30E022B1CBF022384F873
S31508008CB0923E2BF0A5FDBDE810402CF06DBF10BD0F
S31508008CC0E82D0020D83C00200146024A0248FDF75C
S31508008CD095BB00BF6CEA0408F41D00204378FF2BFF
S31508008CE004D1408840BA80B204307047981C704757
S31508008CF008B50246FFF7F2FF104408BD38B5054629
S31508008D000C46FFF7EBFF294682B22046BDE83840FD
S31508008D10FEF786BDF7B50E461746044602236A4691
S31508008D2039463046FEF7F7FC054680B99DF800300F
S31508008D3023709DF80130FF2B0CD00221607002339E
S31508008D403A68C4F80220A288934214D90625284610
S31508008D5003B0F0BD0423394630460DEB0302FEF797
S31508008D60DAFCD8B901236370BDF8063004215BBA72
S31508008D709BB20433E4E79BB2934228BF134662884A
S31508008D80A380134472899BB29A42DFD3D4F8023087
S31508008D90A01DC4F80630FFF717F8D8E70546D6E74A
S31508008DA073B5044601A80D461646FEF7FCFF29468C
S31508008DB0204601AAFFF7AEFF38B92378B34205D09B
S31508008DC0A18801A8FFF700F8F1E7172002B070BDE7
S31508008DD0F0B585B0054616460A46014601A81F465F
S31508008DE0FFF7DEFF044650B9BDF808203B46B242FD
S31508008DF028BF32462846BDF8061037F008FB20463D
S31508008E0005B0F0BD1FB514460A46014601A8FFF78E
S31508008E10C7FF10B9DDF80A30236004B010BDF0B5FD
S31508008E201746428985B0ADF800101E468A422CBF07
S31508008E30C1EB0203C1EB0103C9439BB289B2994254
S31508008E4028BF19460546ADF802106A46014601A82C
S31508008E50FFF760FF044660B9BDF80C203346974219
S31508008E6028BF174628463A46BDF80A1037F0CFFA03
S31508008E70F455204605B0F0BDF0B51746428985B0D1
S31508008E80ADF800101E468A422CBFC1EB0203C1EBA7
S31508008E900103C9439BB289B2994228BF19460546C0
S31508008EA0ADF802106A46014601A8FFF733FF0446EB
S31508008EB060B9BDF80C2096420BD8B2423B4628BF93
S31508008EC032462846BDF80A1037F0A1FA204605B002
S31508008ED0F0BD0624FAE710B502231446FFF7CCFFC7
S31508008EE010B923885BBA238010BD042310B5144635
S31508008EF0FFF7C2FF034618B92068FEF789F9206014
S31508008F00184610BD30B585B0044615460A460146D2
S31508008F1001A8FFF745FF40B901232A462046BDF8B8
S31508008F20061005B0BDE83040A6E705B030BD002202
S31508008F3013B504468DF80720084663B910210DF1CC
S31508008F400702FFF7DFFF0346C8B99DF80720B2B14D
S31508008F50FF2A08BF2523002062786FF3410262705A
S31508008F60D4E9092160620AB11846904741F288316E
S31508008F7004F1180002B0BDE81040FFF708BA06234E
S31508008F80E9E730B585B0044615460A46014601A804
S31508008F90FFF706FF38B92A462046BDF8061005B081
S31508008FA0BDE8304097E705B030BD30B585B004461A
S31508008FB015460A46014601A8FFF7F2FE38B92A46C1
S31508008FC02046BDF8061005B0BDE830408DE705B06F
S31508008FD030BD73B5154601AA04461E46FFF712FFB3
S31508008FE028B933462A46204601A9FEF794FB02B063
S31508008FF070BD38B50446154601448C4202D3002498
S31508009000204638BDA31C9942F9D36378FF2B02D1B9
S31508009010231D9942F3D32046FFF76AFE8842EED80D
S315080090202378AB42ECD00446E7E70422FEF7F8BB08
S315080090300222FEF7F5BBFF2B73B5054616461C46FE
S3150800904012D18DF805304FF47F438DF8041001A92D
S31508009050ADF80630FFF7E9FF20B922463146284623
S31508009060FEF7DEFB02B070BD8DF8001069468DF87C
S315080090700130FFF7DDFF0028F4D1002CF2D0ECE731
S3150800908070B505460E461C46114618460BB1FEF746
S31508009090FFFE22463146C3B22846BDE87040CAE7FD
S315080090A007B501238DF807200DF10702FFF7C3FF67
S315080090B003B05DF804FB07B552BAADF806200223E3
S315080090C00DF10602FFF7B7FF03B05DF804FB13B511
S315080090D004461046FEF79CF8042301900DEB0302A4
S315080090E02046FFF7A8FF02B010BDF0B58FB004A860
S315080090F00D461646FEF708F84FF2BF030921304819
S315080091000DF10602ADF8323018F0FEFFA0B940F2B4
S31508009110013303A8ADF80C3030F0D3FF1D2201212E
S3150800912030F06AFE044638B11221728CFFF7C3FF8D
S3150800913020B12046FEF764F90FB0F0BD08231321CD
S31508009140204606F11802FFF776FF0028F1D11D4EDA
S3150800915014212046B6F8E420FFF7ADFF0028E8D131
S31508009160294603A8FEF71FFE4FF61173BDF80E70C9
S31508009170ADF8083020467BBA02A9ADF80A30FFF7E9
S3150800918054FF0028D5D13B4629462046BDF80C2079
S31508009190FEF764FC0028CCD1BDF8065004A81EF0E2
S315080091A039FD2A4606F53A7108A812F062FD2146ED
S315080091B004AAA6F2DC70FFF7B1FA0028BCD0B8E71B
S315080091C004550020E83D002010B590F824300446E8
S315080091D04BB1012B01D1436983612046A169BDE8E2
S315080091E01040FFF7D4B84169B1EB510F4FEA51006F
S315080091F001D9FEF707FE0023A061E38384F8253032
S31508009200EBE710B590F8243004467BB1012B08D162
S315080092100169C0680131FEF7F5FD60612046FFF778
S31508009220D3FF2046236ABDE81040184790F825303A
S315080092306BB1012BF5D1426922B10369991A8A42A9
S3150800924098BF530020466361BDE81040BCE7012380
S3150800925080F82530D0E90513C91AFFF798F8E28B8C
S31508009260A38B9A42DDD310BD10B50446FDF71AFF4D
S31508009270D4E90031E268C01A9A4202D10028A8BF90
S31508009280013110BD2DE9F3411E461D4B04468342AC
S315080092904FF000038B4115460AD217A3D3E90023E2
S315080092A040F0F6FD1749144602462846FEF7C7FF62
S315080092B0154B4EF66021B4FBF3F203FB1244B4FBE4
S315080092C0F1F34FF47A7801FB1344B4FBF8F7284618
S315080092D00E490097FEF7B3FF46B1284608FB17422A
S315080092E00B4902B0BDE8F041FEF7A9BF02B0BDE8E0
S315080092F0F08100BFAFF30080005C26050000000087
S31508009300FF5B260532EA040880EE360038EA0408D0
S3150800931047EA040813B5006850B14AB141B10023C1
S315080093200068019301AB32F0D7FA1EF0F8FD00B1E0
S31508009330FEE702B010BD2DE9F843436C1546134409
S31508009340026C044693420E461AD84FF000084F198D
S3150800935000F11009B74214D1636C1D44236C65648F
S315080093609D420BD1B4F850302BB104F110021146CE
S315080093702046FFF7CFFF0023A4F85030BDE8F88356
S31508009380FEE7B4F85030102B06D14A464946204627
S31508009390FFF7C0FFA4F85080B4F850305A1CA4F860
S315080093A05020234416F8010B1A7C50401874D1E754
S315080093B02DE9F04F1D4685B09DF838309146029349
S315080093C0C36C826C2B4493420446884629D86FF0B6
S315080093D0200B0F46CA466B18019300F12003ABEB2E
S315080093E0000B0393019B9F421CD1E36C1D44A36CA5
S315080093F0E5649D426CD3B4F850302BB104F11002E9
S3150800940011462046FFF786FF002194F8542002F102
S3150800941021002044C2F10F0205B0BDE8F04F40F02C
S31508009420C7BEFEE7B4F85220102A16D104F1300060
S31508009430024694F854600BEB00018E4206DA10F8E7
S31508009440011D0131C9B201700029F4D020460399E3
S31508009450FFF760FF0022A4F85220029B43BB3E7828
S31508009460B9F1000F0AD0B4F85220511CA4F85210D2
S31508009470224492F8302072408AF80020B4F850202E
S31508009480102A08D104F1100211462046FFF742FFC0
S315080094900022A4F85020B4F850200137511CA4F833
S315080094A050102244117C0AF1010A4E40167499E7BD
S315080094B0B4F852209AF80060511CA4F852102244BD
S315080094C092F830205640B8F1000FD7D03E70D5E755
S315080094D005B0BDE8F08F38B5D0E912329A42044695
S315080094E00D4600D0FEE700F1300200F12001FFF73B
S315080094F011FF002304F10F0294F855108B4200DB8C
S3150800950038BD12F8011F92F820004140E954013392
S31508009510F2E7006808B528B1034926F0D9F91EF024
S31508009520FEFC00B1FEE708BD09000002006808B5A8
S3150800953028B121B128F002F91EF0F1FC00B1FEE7CE
S3150800954008BD10B586B00446ADF80630084603AB2C
S3150800955011460DF10602FDF783FFBDF810200AB982
S3150800956006B010BD20460399FFF7E0FF03A90DF1E9
S31508009570060035F079FEF0E7002307B50068019389
S3150800958030B1202201AB26F00AF91EF0C8FC00B162
S31508009590FEE703B05DF804FB002801DB36F058BC93
S315080095A0704710B503780446002B14BF0520032026
S315080095B000F50030FFF7F0FF2378BDE81040002BD8
S315080095C014BF0620042000F50030E5E71F299DBFDB
S315080095D00068C84000F001000020704710B50B78FD
S315080095E00446FF2B04BF0A230B700B780A46013387
S315080095F0D9B21A29117001D9172010BD2046FFF7D4
S31508009600E5FF10B90131C9B2F3E70020F5E7FF23FA
S3150800961037B5054600248DF8073028460DF10701B1
S31508009620FFF7DCFF234601340028F6D0D8B203B092
S3150800963030BDFF2337B58DF80730036805467BB183
S31508009640FFF7E5FF014600B9FEE70020FEF7E8FB55
S315080096500DF1070104462846FFF7C0FF00B91CB9FB
S315080096609DF8070003B030BD28460DF10701013CFF
S31508009670FFF7B4FFE4B2F1E7837F024613F00F0069
S3150800968004D0108C022894BF0020012070470129BD
S3150800969038B50446456832D135F0C0FC237E9A07B2
S315080096A002D5642828BF64205B0715D5A022214B64
S315080096B0B0F57A7FB3F87E3E28BF4FF47A705343ED
S315080096C003F5FA73B3F57A7F06D34FF47A72B3FBD0
S315080096D0F2F3984228BF1846637E0F2B02D9BC289E
S315080096E028BFBC20A36833F07C4204D0C3F3190317
S315080096F0984228BF1846002808BF0A206060FDF770
S31508009700D1FC6369014604F10C0098420DD06268E9
S31508009710AA420DD0531A24680A3BE3424CBF0A22D8
S315080097202146BDE83840FEF72DBE62682160F8E79D
S3150800973038BD00BFE82D002010B531B109291CD964
S315080097406FF07C43994228BF194600F50052D2F8BB
S31508009750CC30C3F319048C420DD061F31903C2F857
S31508009760CC3092F8DC30DB0705D500F50350012133
S315080097700430FFF78CFF002010BD0720FCE70389A3
S3150800978010B58B420C4605D1BDE810404FF4004099
S3150800979035F044BD01814FF4004035F0E5FC204624
S315080097A0BDE8104035F0F8B910B5027804465107FF
S315080097B0437817D4120701D5F3B110BD002BFCD19D
S315080097C0B0F8A030FBB190F83630082B1CBF082340
S315080097D080F83630838E1906EFD4BDE81040343051
S315080097E0FDF7B0B8002BE8D14388D80504D5E16960
S315080097F004F1D000FEF7BCFDE17A04F13400BDE8BF
S31508009800104036F0BEBD90F84630DA070AD4838E8B
S31508009810DB0507D594F83630012BCED0012384F822
S315080098203630CAE735F06AFC0028C6D1F2E70123CC
S3150800983042888B4013434380437813B9C830FEF7F8
S3150800984079BD704770B50578ED071DD54578012DAA
S315080098501CD0468816F0020F18D1022D16D0C6F372
S315080098608005760712D48362049B4282C362FF2373
S315080098700374C368002908BF19460B4043610221D7
S31508009880FFF7D5FF284670BD0D20FCE70520FAE74F
S3150800989070B50578ED0722D54578012D21D0468883
S315080098A016F0020F1DD1022D1BD0C6F380057607D0
S315080098B017D48362049B002AC3624FF0FF03037424
S315080098C0C36808BF4FF49672002908BF19460B40B3
S315080098D0428243610121FFF7AAFF284670BD0D2089
S315080098E0FCE70520FAE70023038070472DE9F04FCF
S315080098F0A84C042189B04FF47A70E56CFEF79DFAFE
S31508009900291804F14800FEF733FD636CD8072ED5F5
S31508009910062204F5005696F8C03002FB034303F509
S315080099200153203306F16002934240F0E48000259B
S315080099304FF0060842F2600996F8C070BD42C0F0C2
S31508009940E080FDF7AFFB944D8046D5F8F41F04A8D8
S3150800995036F08AFD05F6F4790499002940F0DF808F
S31508009960D5F8F43F1BB917B9384635F027FA636CB2
S31508009970990708D5894D95F8E3309A0700F1E280F2
S31508009980012035F01BFA636C5D0726D54FF00008F9
S31508009990834FD7F800370493049A002A40F0EC82E4
S315080099A00125D7F804370493049A002A40F0EF8279
S315080099B001254FF07809D7F80C370493049E002E3A
S315080099C040F0F282D7F80857002D40F00983B8F125
S315080099D0000F02D1022035F0F1F9636C18070AD599
S315080099E0002604A804968DF8146013F045F8049D23
S315080099F0002D40F02083636C990626D5684D95F8AE
S31508009A00A9397BB1FDF74EFBD5F8AC3903F5C3335D
S31508009A10A0331B1A002BBEBF95F8CA3943F00103C1
S31508009A2085F8CA3995F8D31995F8D229B5F8D039F1
S31508009A30002940F03A83002A40F04983002B40F081
S31508009A405283D5F8D00936F0A3FB636C5A0620D5A5
S31508009A50534EB6F8883943B1013B9BB2A6F888390C
S31508009A601BB906F6841019F02DFCD6F884596DB189
S31508009A70013DC6F884594DB902202FF0D3FA49485A
S31508009A80294619F013FD28462FF094FB454817F090
S31508009A9029FC636CDB0540F13B8300200346054641
S31508009AA04149A1F2A466CA787AB1013AD2B2CA701B
S31508009AB032B1086806EB8302C2F8A4060120013316
S31508009AC00135232D01F10401EDD1002104EB8304B6
S31508009AD004F5B5540734222B04DC14F8042B002AA9
S31508009AE040F01283002840F01383082009B0BDE82F
S31508009AF0F04F35F063B911790632013902F8021CC4
S31508009B0012E708FB056393F864302BB918FB059038
S31508009B10204435F083F90FE70135EDB20CE78B6980
S31508009B20A8EB0303B3F5FA6F08D34B7948465B09EC
S31508009B3002BF336C01333364FEF7A5F804A8FDF7BA
S31508009B40BBFB09E795F8683313B1013B85F8683321
S31508009B5095F86A333BB1013BDBB285F86A3313B932
S31508009B60124817F0D9F80E4E96F8607237B1013FD1
S31508009B70FFB286F86072B7FA87F77F0995F8E13081
S31508009B80042B00F29280DFE803F0039013718E0035
S31508009B90FEE700BFE81D0020E82D0020E83D002074
S31508009BA0E84D00206C5700208C340020C83E002069
S31508009BB096F80C82002F4AD095F86433434511D99C
S31508009BC06FF0630095F92D1113F0ADFD09281CD827
S31508009BD03C2303FB0848AE4E08F52A5808F10C0842
S31508009BE0B04503D1AB4817F067F812E0B37F03F02E
S31508009BF00F03072B07D16FF0630096F9251013F0B2
S31508009C0092FD092801D83C36EAE70221A24817F056
S31508009C10A1F9D5F87C63A14B9E427FF4B4AEA6F5B4
S31508009C20257017F0E5FA9E489E4B9F49C5E9E00363
S31508009C304FF6FF73A5F89033012385F89833FEF79E
S31508009C40E1F8C5F888033046FFF7BEFA9BE6B8F197
S31508009C50000F2AD0954818F0DBFD95F86333834248
S31508009C6023D80121924819F0FCFD09E096F80C3238
S31508009C70CBB18E4818F0CCFD95F863339842F0D2F4
S31508009C809FB196F80C2295F865339A4203D90321B9
S31508009C90874819F0E6FD804817F04EF828B97E483F
S31508009CA016F0A6FB01E0002FF5D100230493052347
S31508009CB004A88DF814304FF0010812F0DDFEDDF827
S31508009CC01090B9F1000F33D13C2396F80C72DFF8E7
S31508009CD0C09103FB074707F52A570C37A9F1040A71
S31508009CE0A9F5146B4F4575D10023724911F8012F58
S31508009CF0013350B20028C8BF02F1FF32DBB2C8BF39
S31508009D000A703F2BF2D195F8E130042B0DD1674844
S31508009D1018F07EFD092808D996F85C32013386F8D2
S31508009D205C32FDF7BFF9C6F858022FF027F82AE685
S31508009D3099F81E3003F00F03072B39D808FA03F3F6
S31508009D4013F0C60F06D113F0110F2DD113F0280703
S31508009D5006D0FEE74FF47A72D9F8603002FB03F7B3
S31508009D6009F1480012F080FD98B1FDF79BF94FF410
S31508009D707A72D9F85430C01AD9F84C3053439842FD
S31508009D8007D399F848306FF3C71389F8483035F088
S31508009D90DFF8FDF787F9D9F80830C01AB84209D3B1
S31508009DA049463D4818F056FE04A812F045FE86E7D7
S31508009DB00027D5E795F8E10036F044F90028F3D0F6
S31508009DC099F81E3003F00F03012BEDD1484638F001
S31508009DD02FFAE9E7B9F81C10B5F8E420914206D144
S31508009DE0FDF760F9C9F8080009F13C097AE7FDF7BB
S31508009DF059F9D9F80820304BA0EB0208B9F83A20EF
S31508009E00012A82BF02F57F42FE32A9F83A2099F864
S31508009E101E20984502F00F0252D999F83A10072ADF
S31508009E206FF3000189F83A1050D195F8E120022A1B
S31508009E3007D101211D4818F0FDFC95F869238242D7
S31508009E4066D3494604A811F0A3FE1A211B4804AAA2
S31508009E5014F07EFA40B999F8392012F00C0F04BFB5
S31508009E6042F0030289F8392099F8392093072DD052
S31508009E70D11C61F3010289F839204FF47A7030F069
S31508009E8031F8494602460D4814F062FB1EE000BF51
S31508009E907448002098400020C83E00205C410020FD
S31508009EA090B20800F09C0900F19C09007048002057
S31508009EB0E83F0020FF4F00209F860100343F002026
S31508009EC0072A03D195F8E120022A32D199F81E20F3
S31508009ED002F00F02052A2CD1494604A811F058FEB3
S31508009EE01A21584604AA14F033FA10BB99F83920F7
S31508009EF012F00C0F18D099F83910C1F38102033209
S31508009F0002F0030262F3830189F83910B2B90BE053
S31508009F10814A9045DAD9494604A811F039FE1A2132
S31508009F207E4804AA14F032FB49467D4818F092FD93
S31508009F305AE799F8392012F00C0FDCD195F8E12090
S31508009F40042A7FF451AF504699F8381018F009FCE6
S31508009F5000287FF449AF48462FF0E9FF0F287FF61F
S31508009F6043AF704A90457FF63FAFB9F81C106E486C
S31508009F70890A18F0E5FC37E7D37C04A83F2B82BF93
S31508009F80C033D3744FF0010812F017FC04E5938A26
S31508009F9033B1013B9BB2938203B915764FF00108A2
S31508009FA004A812F00AFCFFE4B38A53B1013B9BB242
S31508009FB0B38223B9737E43B97576A6F814904FF029
S31508009FC0010804A812F0F9FBF8E4F28A53080F2BEB
S31508009FD038BF0F239A42F2D0F3827823B382EEE792
S31508009FE0AB8A03B9FEE7013B9BB2AB82FBB9EB8AAE
S31508009FF04FF00108AB825B009BB2782B28BF782311
S3150800A00031464A48EB82A5F8188036F04FF92946BA
S3150800A010474812F0BBFB0221284630F0FEFE002E10
S3150800A0203FF4D0AC304612F09FFB0546CCE42E46F2
S3150800A0304FF00108F6E7AB7F7F2B32D8B5F8A8209A
S3150800A0407AB3B5F8AA3001339BB29A42A5F8AA307A
S3150800A05027D8EB8F0296C3F30D03FBB90121354AC6
S3150800A060022037F061FD014602A811F041FC029F6B
S3150800A070A7B1314B314AEB1A1B11534338460DF140
S3150800A0800601ADF80630FEF7D3FF38B9CDE9020769
S3150800A09003A833F05BFE039835F0B0FB029835F061
S3150800A0A0ADFB04A812F0C8FCA1E40139C9B285F8D1
S3150800A0B0D31900297FF4BFAC82B923B1013B9BB207
S3150800A0C0A5F8D039B3B11E48FEF734F9B9E4013A18
S3150800A0D0D2B285F8D229002AEFD0AFE4013AD2B23B
S3150800A0E085F8D229E9E7013B9BB2A5F8D039002BC0
S3150800A0F07FF4A7AC95F8A93913B1012385F8A939D6
S3150800A1001048FFF7F0FBDEE704F8041C0133E2E42D
S3150800A11009B0BDE8F08F00BFEF490200343F0020C8
S3150800A120C83E00208F5F010070480020F0540020D0
S3150800A130F454002016E3040890410020A38B2EBA9D
S3150800A14078570020BE57002038B50D4604682046CB
S3150800A15036F0E9FA35B140F0100080B22070000AF6
S3150800A160607038BD20F01000F7E700F44052B2F5F1
S3150800A170005F034620D148F2400220F44E5020F0FA
S3150800A1803F0090421ED00CD8B0F5446F1AD005D8BF
S3150800A190C8B1B0F5046018BF01207047B0F500409B
S3150800A1A0F9E703F44C43B3F5404F0BD04CF6404364
S3150800A1B0C01A18BF0120704710F4406F14BF012061
S3150800A1C0002070470020704738B505680C462846B9
S3150800A1D036F0A9FAFFF7C9FF40B1284636F0A5FAC6
S3150800A1E0FF2803D02B5A0020238038BD0620FCE721
S3150800A1F010B50468204636F096FAC30500D5FEE782
S3150800A200A07810BD38B505680C46284636F08BFA96
S3150800A210C30500D5FEE7AC7038BD00F44053B3F56E
S3150800A220005F04D100F44C43B3F54C4F07D0B0F5AA
S3150800A230804F04D380F04000C0F3801070470020A0
S3150800A2407047838810B5032B12D9006836F06BFA6D
S3150800A25080F480720446C2F30021FFF786FF48B9EE
S3150800A2608A1CC4F38123022B06D0032B17D02BB1EB
S3150800A270FF2212E00A1DF4E70232D2B22046FFF7A7
S3150800A280CCFF08B10232D2B2C4F38134022C08D012
S3150800A290032C09D0002C18BFFF22104610BD083227
S3150800A2A0EBE70232D2B2F8E70832FBE7F8B50768FF
S3150800A2B00E46384636F037FA0546FFF7AEFFD0B1F8
S3150800A2C0384636F032FA04462846FFF74EFF08B1FC
S3150800A2D00234E4B2C5F38125022D07D0032D08D038
S3150800A2E0FF2C08D000203B5B3380F8BD0234E4B273
S3150800A2F0F6E70834FBE70620F7E7838810B5022B54
S3150800A300044607D9006836F01FFA18B12046BDE89A
S3150800A310104096E7FF2010BD38B505460C46FFF7F6
S3150800A320ECFFFF2817BF2B6806201B5C00201CBF0C
S3150800A33003F00703237038BD38B505460C46FFF70A
S3150800A340DCFFFF2817BF2B6806201B5C00201CBFFC
S3150800A35003F01803237038BD38B505460C46FFF7D9
S3150800A360CCFFFF281FBF431C2A68DBB2D35816BF91
S3150800A37000200620236038BD38B505460C46FFF791
S3150800A380BCFFFF2800D1FEE72A68431CD9B2545403
S3150800A39052FA83F3220A5A70220C240E9A70DC7041
S3150800A3A02B7F43F001032B7738BD00F018001028E7
S3150800A3B005D0A0F1180358425841C0007047042040
S3150800A3C0704708B54307024608D0FFF7EEFF12F0BC
S3150800A3D0180F0CBF05300630C0B208BDFF20FCE7D9
S3150800A3E02DE9F04F057B0688B0F8029087B0031D6B
S3150800A3F0012D04460F4646EA090B019330D0022D7B
S3150800A4000CBF0322002294F816A04BEA823BBAF14D
S3150800A410010F04F10E0825D0BAF1020F2FD0BAF1B8
S3150800A420000F21D1A37F94F82120003B18BF0123F8
S3150800A430B9F5805F4BEAC30305D0B9F5005F21D0B3
S3150800A440B9F1000F29D145B1BAF1000F05D0208B1B
S3150800A450618B884208BF43F04003D60721D5FEE743
S3150800A4600222D0E74BF4006B5146E08935F095FFA0
S3150800A4700028D7D1022E18BF4BF0200BD2E74BF499
S3150800A480406BF1E7BAF1000F40F09480617F002D30
S3150800A49040F08880002940F09A80D50748BF43F4E9
S3150800A4A08073C2F3400243EA42253B6804A804933A
S3150800A4B04FF4FE032946059335F0B1FFE80503D4AA
S3150800A4C0012104A8FBF775FF2846FFF74EFE18B1D1
S3150800A4D0618B04A835F0A3FF04A8414635F0AAFF0E
S3150800A4E02846FFF79AFE18B1218B04A835F097FF86
S3150800A4F0211D04A835F09EFFBDF81430BB80A67F49
S3150800A500A6B1E37F0DF10F011E4304A88DF80F6075
S3150800A510FCF7B0FE3046FFF754FF411E89B204A887
S3150800A520FBF747FF3046FBF7F3FF064694F8213062
S3150800A53099070ED5022104A8FBF73BFF0D2304213A
S3150800A5404370017004A8FBF734FF3B7F43F0080310
S3150800A5503B77AA0523880ED5032B03D094F8213020
S3150800A5605B0714D4022104A8FBF723FF6FF07F03CF
S3150800A57003703F2343702388032B08D194F82030B7
S3150800A5800DF10F0104A88DF80F30FCF773FE0236A3
S3150800A590B1B204A8FBF70DFFBDF81430BB8007B0B5
S3150800A5A0BDE8F08F00297FF478AF217F00297FF47A
S3150800A5B074AF0CE00DB9617FF8E7022D02D1BAF14C
S3150800A5C0020FF8D0208B618B88427FF466AF43F088
S3150800A5D0400362E770B50546FFF733FEFF280446D9
S3150800A5E011D02E68304636F0AFF860B1A9888C4293
S3150800A5F00BDA305DFFF7E5FEFF2808D00444E4B225
S3150800A600A142B8BFFF24204670BDFF24FBE70446DD
S3150800A610F9E770B506460D46FFF76FFEFF280446B4
S3150800A62009D03268105CFFF7C0FE224402440020BD
S3150800A63053792B7070BD0620FCE770B506460D46AB
S3150800A640FFF75BFEFF28044600D1FEE73268105C80
S3150800A650FFF7ABFE22440244557170BD10B504469F
S3150800A660FFF74BFEFF2806D02368185CFBF750FF60
S3150800A6700230C0B210BD0220FCE770B50646FFF7EF
S3150800A680A9FFFF2804462CD03568284636F04BF833
S3150800A69083051BD53046FFF7E1FFB188A21C93B2AC
S3150800A6A010FA82F28A4205EB04061CDC2A5D02F0E7
S3150800A6B07F0213449CB210FA83F3994213DB328863
S3150800A6C0C2F3C7127F2A01D09942E7DC2B7803F040
S3150800A6D00703032B05D1284636F03CF808B90134A0
S3150800A6E0A4B2E0B270BDFF24FBE738B50546FFF714
S3150800A6F0C4FFFF28044614D02868037803F007032C
S3150800A700032B04D136F026F808B10134E4B2284602
S3150800A710FFF7A4FFAB8804449C42CCBF0620002068
S3150800A72038BD0620FCE710B50446FFF7A6FFFF284C
S3150800A73016BF23680020C01810BD10B50446FFF7E1
S3150800A740F2FF2368C01AC0B210BD70B505468688E8
S3150800A750FFF7F3FF04462846FFF780FF0444301B43
S3150800A76080B270BD70B506460C46FFF7E6FF054693
S3150800A7703046FFF773FF05442C44B48070BD10B50E
S3150800A7800446006835F0CFFF830503D52046BDE8AB
S3150800A79010401FE7FF2010BD08B534F051FF003800
S3150800A7A018BF012008BD08B534F04AFF00B10230D1
S3150800A7B008BD00232DE9F0419EB003930AAB089328
S3150800A7C00823044600680D46ADF8243035F0BCFF72
S3150800A7D0002859D020460DF10B01FFF79DFD0028F2
S3150800A7E052D1204603A9FFF7B7FD064600284BD1EC
S3150800A7F00DF110084346286869689DF80B2003C3C5
S3150800A80003981946FCF784FCA3688DF81C20196880
S3150800A81008A835F0EDFD2046FFF720FF054620463F
S3150800A820FFF78BFF07462046FFF78FFFAB1EDBB20D
S3150800A8300246394608A8CDF800802FF04BF8204686
S3150800A840FFF77BFF25680246294608A8FEF773FD31
S3150800A8502046FFF768FF05462046FFF776FF2A469B
S3150800A8600346294608A80096FEF7A2FD2046FFF7EC
S3150800A870F5FEA38825681B1AE91808A8FEF72BFE1B
S3150800A880237F43F0100323771EB0BDE8F081002331
S3150800A890F0B5A3B003930EAB0C93082304460068E7
S3150800A8A00D461646ADF8343035F04EFF30B1204629
S3150800A8B00DF10B01FFF730FD10B1082023B0F0BDF4
S3150800A8C0204603A9FFF748FD0028F6D104AF3B460A
S3150800A8D0286869689DF80B2003C303981946FCF796
S3150800A8E017FC31680CA88DF81C2035F081FD204630
S3150800A8F0FFF7B4FE851E2046FFF71FFF06462046D3
S3150800A900FFF723FFEDB22B46024631460CA8009707
S3150800A9102EF0E0FF2046FFF710FF26680246314674
S3150800A9200CA8FEF708FD2046FFF7FDFE0646204662
S3150800A930FFF70BFF01220346314600920CA8324668
S3150800A940FEF736FD08A90CA8FEF7C5FD2046FFF759
S3150800A95085FEA3882668181A31182A4608A840F0E2
S3150800A9605DFC003818BF0120C000A7E70B6803602C
S3150800A9704B684360037883F002030370704708222C
S3150800A98008B540F04BFCB0FA80F0400908BD10B598
S3150800A99004460068FEF700FE4FF00043236010BD32
S3150800A9A0F0B5002787B0044600680E461546059799
S3150800A9B0FEF7F2FD4FF00043236010234FF41051C9
S3150800A9C0CDE90163074A45F44073009705A81DF0D1
S3150800A9D0F5FF1DF0A4FA00B1FEE7059B236007B05A
S3150800A9E0F0BD00BF0044400408211DF045BD01F13B
S3150800A9F0080313F8012D8B4200F8012BF9D1704793
S3150800AA00F8B507680E46384635F08FFE04463846D0
S3150800AA1035F089FE0546FFF7A8FB04EB4003DBB2D9
S3150800AA20FF2B13D0C5F38120022805D0032807D0B1
S3150800AA30002300203372F8BDFB5A33800123F8E760
S3150800AA40F9183046FFF7D3FF0223F2E70620F2E7AC
S3150800AA50F8B507680E46384635F065FE05463846A9
S3150800AA6035F063FE04462846FFF77FFB08B102343B
S3150800AA70E4B2C5F38123022B12D0032B13D0284648
S3150800AA80FFF7CBFB08B10234E4B2FF2C06D0C5F3BE
S3150800AA908135022D09D0032D0DD04DB1062009E0D0
S3150800AAA00234E4B2EBE70834FBE701253B5B33806D
S3150800AAB000203572F8BD30463919FFF798FF022590
S3150800AAC0F6E708B5044BC180002218683FF062FF1C
S3150800AAD000B1FEE708BD00BF0819002007B50A68DF
S3150800AAE0C0F80A204A68C0F80E206846FFF77FFFBC
S3150800AAF00723094A1DF80310013B02F8011BF9D286
S3150800AB00064B0022694618683FF04AFF00B1FEE787
S3150800AB1003B05DF804FB00BFC859002008190020DF
S3150800AB202DE9F047044688B0B0F86C601DF09EFF2A
S3150800AB30E36F514AC11A94F8800000233230A1FB12
S3150800AB4000013FF0A5F9A02794F881307E4303EB76
S3150800AB50830300EB430000F1C80300F5787520462F
S3150800AB607608B54228BF35469E4228BF1E4630F8AD
S3150800AB70843BA16F13F0800254D0B4F86C30DFF830
S3150800AB8004915F433944491BFEF740F8D4F87480B2
S3150800AB90A36F07EB08023B44C9F82020A367A378F4
S3150800ABA0626713F0FD0F33D094F86E7034F058FADC
S3150800ABB004463248C7F3060A07F07F0740F0AAFBA7
S3150800ABC030BB214638461DF0B7FD044600BB0121BF
S3150800ABD0202040F087FBFF238DF804300123A5F5DC
S3150800ABE01675274807948DF81C30A8EB05030493BF
S3150800ABF035443946006801AB04AACDE902440594F8
S3150800AC0006953FF085FC30B989F82EA089F85EA034
S3150800AC1008B0BDE8F0872146202008B0BDE8F04717
S3150800AC2040F060BB94F86E305FEAD31C0CD062F338
S3150800AC30C71384F86E30491BFDF7E8FF204608B0B5
S3150800AC40BDE8F047FBF77EBE3144B4F86C50FDF71B
S3150800AC50DDFF94F86E307D4343F0800384F86E3050
S3150800AC601CF014F9A26F636F2A44A267054A2B44A5
S3150800AC7063671362E2E700BF40420F00400001002D
S3150800AC8008190020C0590020F8B50446B4F86CC06D
S3150800AC9090F86E008C45069DB4F8706000F07F074A
S3150800ACA00CD094F86E0062F3060084F86E004FF636
S3150800ACB0FF729142A4F870300CD1FEE7974206D095
S3150800ACC062F306009E4284F86E00F0D1F8BD9E42FB
S3150800ACD0E7D1FBE74FF6FD72934208D8144AD161D3
S3150800ACE013822B68C2F812306B68C2F8163094F8D3
S3150800ACF06E30A4F86C106FF3C71384F86E3004F145
S3150800AD008400FDF7E1FFB4F86C304BB11DF0AEFEE0
S3150800AD1060671CF0BBF8A0672046BDE8F840FFE670
S3150800AD2023881B06D2D42046BDE8F840FBF70ABEA6
S3150800AD30C059002013B590F82030DB0717D590F8D6
S3150800AD40212002B9827A0B4C343004F584730093BF
S3150800AD5030F8121CB4F82431FFF796FF34F052F994
S3150800AD6004F1E00002B0BDE8104013F001BB02B0E8
S3150800AD7010BD00BFE83D002008B519B1A1F10B03CD
S3150800AD800F2B0ED800F5805393F87D2E8A4206D0F5
S3150800AD9000F5F25083F87D1E1C30FFF7CBFF00202C
S3150800ADA008BD0720FCE710B504460C30FEF70EFC7C
S3150800ADB000B3A27A8A4205D14FF4804034F02EFAC5
S3150800ADC0002010BD4FF48040A17234F0CDF904F58F
S3150800ADD0B470FEF788FD23789B06F1D4A37AE37254
S3150800ADE094F8213013B92046FFF7A4FF2046FEF752
S3150800ADF0DBFCE5E70720E4E71FB590F820300446BA
S3150800AE00990703F001020ED5418C61B1F2B943F0FE
S3150800AE10010380F82030FFF78DFF204604B0BDE817
S3150800AE201040FEF7C1BC8AB1002294F820301146C2
S3150800AE306FF3000384F8203002AB009304F134006A
S3150800AE404FF6FE73CDE90222FFF71EFF04B010BDD0
S3150800AE50024608B569B902F58052B2F87E3E00F599
S3150800AE60F2501C301BB1A2F87E1EFFF7C5FF00206A
S3150800AE7008BDA020B1FBF0F300FB1310F0B94FF6A4
S3150800AE80FF70834228BF0346B1F51B5F9BB215D3FB
S3150800AE9002F5F25002F58052B2F87E1E1C308B4243
S3150800AEA0E5D0A2F87E3EB1FA81F2B3FA83F35209ED
S3150800AEB05B099A42D9D1FFF73DFFD8E70720D7E7C4
S3150800AEC000482DE6783C00200A4690F8FE10FEF76A
S3150800AED090B8002910B514BF33210E211446FFF788
S3150800AEE0F3FF38B1D0F802302360D0F806300020DE
S3150800AEF0636010BD1720FCE7F8B5044618300D4608
S3150800AF00FDF76BFA4FF0FF3323746374A374E3748D
S3150800AF1023756375A375E37523726372A372E3726F
S3150800AF2023736373A373E37395F8FE30DBB1264688
S3150800AF306378284643F00103637016F8087B3246A7
S3150800AF403946FFF7C6FF28B996E8030004F110034F
S3150800AF5083E8030017B9284630F006FC2078BDE8D8
S3150800AF60F84035F0EEB9F8BD2DE9F04107468846B8
S3150800AF7003261B4D86B0013E02D106B0BDE8F0811E
S3150800AF803B7803BB6B7803F5003340462978059375
S3150800AF90FFF79AFF044600B34278F2B1FF2A0CBFC6
S3150800AFA00423022303440193012341F2010102927F
S3150800AFB000934FF0004205A81DF000FD1CF0AFFFFE
S3150800AFC0014610B1FEE7AB78DDE76278FF2A0CBFD1
S3150800AFD00420022020443FF0EBF80335CBE700BFFE
S3150800AFE081EA040870B50D46C2B00446FEF7D9FAE0
S3150800AFF095F8FE604EBB23784FF0FF31002B14BF47
S3150800B0000220012034F066FB637866F300032246CB
S3150800B0106370284612F8081BFFF75BFF48B14FF02C
S3150800B020FF3323726372A372E37223736373A3738A
S3150800B030E373FCF737F823786060012B1ED12846A6
S3150800B04042B0BDE870402EF0A1BE01A835F081F9E6
S3150800B0503246294601A83FF04DF9D5F80031204679
S3150800B06001A941938DF80261FFF77EFF207801A9B7
S3150800B0702FF028FB637843F00103C8E742B070BDA0
S3150800B08070B50C460546C2B001A835F062F994F8C9
S3150800B090FE602146324601A83FF02CF9D4F800316B
S3150800B0A0284601A941938DF80261FFF75DFF2878CC
S3150800B0B001A92FF007FB42B070BD10B591F8FE202C
S3150800B0C00446FF2A09D080F8FE203FF013F9FBF763
S3150800B0D0E9FFC4F80001002010BD0720FCE72DE9B0
S3150800B0E0F8430F46984690F8FE4005461646FFF781
S3150800B0F0EBFEC4F1FE040146A4B208F1020918B930
S3150800B1004C450AD2032021E0437802331C44A4B2FA
S3150800B1104C45F7D32846FBF794FB95F8FE30B8F173
S3150800B120FF0F994405EB030085F8FE90EF5414BF12
S3150800B130022304234246314680F8018018443FF032
S3150800B140D9F8FBF7AFFFC5F800010020BDE8F88382
S3150800B15013B504460846FCF75BF80423019034212E
S3150800B16020460DEB0302FFF7BAFF02B010BD10B57B
S3150800B1700446FFF7A9FE014620B12046BDE8104067
S3150800B180FBF75FBB10BDD0F8020000BA70472DE987
S3150800B190F74F0C460021FE2284F8FE100378064677
S3150800B1A08B4214BF02200120ADF8042001AB2246D1
S3150800B1B02FF024F90C28054600D1FEE7002842D1D5
S3150800B1C0BDF80430FE2B3DD88146324F84F8FE3058
S3150800B1D007F1060B3378002B39D197F801A02046E2
S3150800B1E03978FFF771FE804698B142788AB1FF2A0E
S3150800B1F00CBF0421022101AB01440AF500301CF002
S3150800B200F1FF38BB98F80120019B9A4218BF4FF00E
S3150800B210010903375F45DDD1B9F1000F03D0214697
S3150800B2203046FFF72DFF3378BBB933212046FFF7A9
S3150800B2309EFF34212046FFF79AFFFBF733FFC4F839
S3150800B240000100E01725284603B0BDE8F08F97F8FF
S3150800B25002A0C4E74FF00109DBE734212046FFF7D7
S3150800B26033FE07460028EED0FFF78DFF0A4B7668B7
S3150800B270984228BF18468046FBF714FF831B98455B
S3150800B2808ABF361A002006EB0800B91CFBF740FFF8
S3150800B290D3E700BF81EA04080014730F30B50446EB
S3150800B2A0C3B001A835F055F801A92046FFF76FFF8E
S3150800B2B0054601A92046FFF71FFE284643B030BDC4
S3150800B2C02DE9F0430546D3B002A8FBF71DFFAC6C89
S3150800B2D0ACB16B6C05F13C069E4210D161893C23EA
S3150800B2E03C3989B202AA2046FCF73FF9FBF7DAFE99
S3150800B2F00C99401A002805DA3046FDF739F853B09C
S3150800B300BDE8F083214605F14800FCF7BCFC0122A4
S3150800B3100DA92548FFF744FB0023244F11A8C7F8B9
S3150800B3204C3E35F016F815202EF08AFF0446002804
S3150800B33034D00322837911A962F30303837107F6D4
S3150800B3405850FFF724FF30BB4FF00908DFF8689024
S3150800B350B8F1010814D106212046D7F8F02DFDF7DB
S3150800B360B6FEC0B92946124835F083F82146104B77
S3150800B3701048009502AAFDF7A1F80028BFD00AE0F8
S3150800B38019F8011B11A8FFF79FFD20B12146FDF70B
S3150800B390B5FC0028DCD02046FCF732F80021304600
S3150800B3A0FCF7F5FFABE700BF243C0020E82D0020A2
S3150800B3B0BDB300080C36002087EA040880E7014878
S3150800B3C07EE700BFA056002070B50C460546C2B001
S3150800B3D001A834F0BEFFFF22002120463EF0E8FE19
S3150800B3E0284601A9FFF7D3FE054640B99DF8026134
S3150800B3F02046324601A93EF07DFF84F8FE602846C5
S3150800B40042B070BD70B504464FF0FF352646437806
S3150800B41005746FF30003437045748574C574057528
S3150800B42045758575C575057245728572C57205734C
S3150800B43045738573C573FEF7B4F816F8183B2946A5
S3150800B440002B14BF0220012034F044F93046FCF7E3
S3150800B450C4FF2378012B02D10348FCF7BEFF2078EE
S3150800B460BDE8704034F06DBF983B002038B500F554
S3150800B470005393F8E130044693B900F5F2501C30B6
S3150800B480FFF791FC054648B904F5EA501830FFF76E
S3150800B490B9FF04F5EC500430FFF7B4FF284638BD71
S3150800B4A00D25FBE738B500F5005393F8E15004463F
S3150800B4B085B900F5F2501C30FEF761F904F5EA503B
S3150800B4C01830FFF79FFF04F5EC500430FFF79AFF9A
S3150800B4D0284638BD0D25FBE72DE9F04104460E4602
S3150800B4E091B300F5005393F8E1507DBB00F5805801
S3150800B4F000F5EF57D8F8EC0D0C37814210D14FF410
S3150800B500802033F08BFE04F5EA501830FFF77AFFF7
