S01D00006275696C642F64656275672F6F742D636C692D6674642E733337AF
S3150800600008180020C3630208512704085527040806
S31508006010A9C600085927040861270408C15B0208B5
S31508006020C15B0208C15B0208C15B0208C15B0208CA
S3150800603065270408B4F90408C15B0208C15B0208B5
S31508006040C15B0208C15B0208C15B0208C15B0208AA
S31508006050C15B0208C15B0208C15B0208C15B02089A
S31508006060C15B0208C15B0208C15B0208C15B02088A
S31508006070C15B0208C15B0208C15B0208C15B02087A
S31508006080C15B0208C15B0208C15B0208C15B02086A
S31508006090BB230308B9230308C15B0208C15B0208D6
S315080060A0C15B0208C15B0208C15B0208C15B02084A
S315080060B0C15B0208C15B0208C15B0208C15B02083A
S315080060C0C15B0208C15B0208C15B0208615C020889
S315080060D0C15B0208C15B0208C15B02083D5C02089D
S315080060E0195C0208C15B0208C15B0208C15B0208B1
S315080060F0C15B0208998D04086D96040853B4040818
S315080061004FB40408E18D040869B4040857B40408B8
S315080061103D9604085BB40408AD9604081597040870
S31508006120C15B0208C15B0208C15B0208C15B0208C9
S31508006130C15B0208C15B0208C15B0208C15B0208B9
S31508006140C15B0208C15B0208C15B0208C15B0208A9
S31508006150C15B0208C15B0208C15B0208C15B020899
S31508006160C15B0208C15B0208C15B0208C15B020889
S31508006170C15B0208C15B0208C15B0208C15B020879
S31508006180C15B0208C15B0208C15B0208F5B90408D5
S31508006190AD790408C15B02083DB4040843B4040899
S315080061A0C15B0208C15B0208C15B0208C15B020849
S309080061B0C15B0208B7
S315080061C0F0B5114A114C124E00F00105E3695F075C
S315080061D013D40DB9334213D103EA00078F4207D10E
S315080061E00B4A1A40002A0CBF00206FF00100F0BDD0
S315080061F0013AEBD16FF00200F9E74FF0FF30F6E70E
S315080062006FF00100F3E700BF809698000000035086
S31508006210020001000000000000000000000000006D
S31508006220013800D0FCE7704700F58050D0F80C0A1A
S31508006230704700F58050D0F8100A704700F5805076
S31508006240D0F8000A704700F58050C0F8001A704769
S3150800625000F54050B0F8E209704700F54050B0F834
S31508006260E009704700F54050D0F8D40B704700F5A8
S31508006270805090F8660E704700F5805090F8740EBE
S31508006280704700F5805080F8741E704700F58050FE
S3150800629090F8750E704700F5805080F8751E7047A7
S315080062A000487047E8F5040800487047E9F504080F
S315080062B000487047EAF5040800487047EBF50408FB
S315080062C0002908BF4FF4E151044B00F5805099426C
S315080062D094BFC0F80C1AC0F80C3A70479AC420004C
S315080062E0074B00F58050002914BF0A461A46054B8D
S315080062F09A4294BFC0F8102AC0F8103A704700BFF7
S31508006300007512009AC4200000F50050D0F8EC0081
S31508006310704700F5EE500430704700F5EE50153022
S31508006320704700F58050D0F8F00D704700F58050A2
S31508006330B0F8260E704700F58050A0F8261E704764
S3150800634000F50050B0F8A20370470420704700F526
S31508006350005090F8E130012B9ABF80F862130020B4
S315080063600D20704700F5005090F86603704700F559
S31508006370005080F86613704700F54050D0F8600862
S31508006380704700F54050C0F86018704700F5005097
S3150800639090F86303704700F5005080F86313704760
S315080063A000F5005090F86403704700F5005080F837
S315080063B06413704700F5005090F86903704700F5BC
S315080063C0005393F8E10010B983F8691370470D205C
S315080063D0704700F5005090F86503704700F50050C7
S315080063E080F86513704700F5405090F861027047D1
S315080063F000F5405080F86112704770B505680C4684
S3150800640025B9BDE870404B68084818478B68984717
S315080064106A680146831A002BB8BF121A2368A8BFF8
S315080064200022BDE870400148184700BFD01F002071
S3150800643038B50C461146A2680346944206D005684C
S31508006440AC420BD10260FFF7D8FFA46038BD944276
S315080064500DD011469268002AF9D1F6E72A4600219E
S31508006460F9E78B68002BF0D09B688B60EDE7002975
S31508006470F7D1002DE9D0AA681A60E6E72DE9F041C0
S31508006480936805460C4616469847324607462146FF
S315080064902846FFF7CDFF2868002203466BB16168DE
S315080064A0D3F804E0A1EB070CAEEB070898EA0C0F4B
S315080064B013D4A1EB0E01002907DA4AB9A0603146C8
S315080064C028462C60BDE8F04197E71A469B68E5E741
S315080064D09368A3609460BDE8F081BCF1000FEBE718
S315080064E070B5066804460D467EB18B689847736892
S315080064F0C01A002809DB20462A463146FFF798FFCE
S3150800650030463368BDE87040184729462046BDE83E
S31508006510704072E700F5405393F8D03B13B1024937
S315080065200830DDE7704700BFECF5040800F5405376
S3150800653093F8D03B13B102490C30D1E7704700BF3E
S31508006540F8F504080968006844F021B80968006885
S3150800655044F01DB80968006844F019B8096800686D
S3150800656044F015B80968006844F011B82DE9F041FF
S315080065700D4606468AB03549286838F01DFEC0B172
S3150800658000270435286806A939F01EFA044660B9BA
S315080065906C682F49204638F00FFE60B105F10801F6
S315080065A002A830F037FC0446C8B120460AB0BDE858
S315080065B0F0810127E6E72046264938F0FDFD08B9AF
S315080065C00724F2E7A8680DF10B0139F04DFA0446E5
S315080065D005460028E9D133689DF80B4001E0336889
S315080065E002AD1D4A03F54053C3F8642AC3F8686A26
S315080065F003A906A82DF02AFB08B10446D5E70DF134
S3150800660010080490A8F804008DF8104035B1284603
S315080066100DF111011AF006FB8DF815001CB19DF855
S315080066201530002BCCD101230C4A0D48CDF800803B
S3150800663006A91BF0C8FE04460028B6D1002FB4D020
S31508006640337A242443F001033372AEE70DC00408FD
S315080066506CEF040873EF0408396F000804F60408A1
S31508006660B040002070B50D4604468AB03A492868FD
S3150800667038F0A2FD08B1686808B9072046E02F215E
S3150800668043F0BAFF0646002839D10023686802A9F4
S315080066908DF8203039F078F9002837D124689DF82C
S315080066A0203004F55C541C34002B50D05A1E3F2A67
S315080066B0CDE9040041D8DDE906160DF117051A469D
S315080066C02846072A3AD8DD08C5EB451203EBC2036C
S315080066D013F0FF020AD00123401B9340DBB2027875
S315080066E05D42013B2A400B401343037001A904A8ED
S315080066F015F020FD204601A924F07EFC06E004A939
S31508006700013021F095FF18B11728BED00AB070BD28
S31508006710049B059AB3F5807F72F10002ADD2DBB215
S315080067208DF82030013B3F2BA7D83070686806A942
S3150800673021F07EFF1728AFD1A7E7FEE705F8011974
S31508006740083A090A41EA0661D2B2360AB9E704A943
S3150800675002A815F004FDC9E77BEF0408014B024ABD
S3150800676011F0D8BFC162000829620008014B024A2D
S3150800677011F0D0BFE162000833620008014B024AFB
S3150800678011F0C8BF476200083D62000830B50C46E4
S3150800679087B0054601A9206839F016F970B960680E
S315080067A005A939F050F948B9A3684BB92B680246D0
S315080067B003F5CF5001A9103018F01EFE07B030BD02
S315080067C00720FBE710B50C684CB90068224600F5AF
S315080067D0CF501030214617F05FFD204610BD072028
S315080067E0FCE770B50E6805460C4686B03046194972
S315080067F038F0E2FCD0B100260434206801A939F04B
S31508006800E3F888B9606805A939F01DF960B9A36885
S31508006810F3B9286885F8406000F5B45001AA05F177
S315080068200C01183018F0CDFB06B070BD30460A4989
S3150800683038F0C2FC10B103260434DEE730460749B7
S3150800684038F0BAFC10B101260434D6E70226D4E79C
S315080068500720E9E781EF040884EF040887EF0408B6
S31508006860014651F80C0B00F5B450183017F0E8BC87
S315080068701346B0F86C202AB10A4600F15C010248BA
S3150800688018F00ABE0D2070476836002000F5405003
S31508006890B0F8E2398B4209D0A0F8E219044890F81A
S315080068A0E130022B02D1E0303BF060BE704700BFFA
S315080068B0D03F002000F54053B3F8E0298A4206D0BD
S315080068C000F56750A3F8E019203017F0ECBE7047C2
S315080068D01FB500240294079C00F5CA500194069C33
S315080068E00C30009418F08AFF04B010BD1FB50124BF
S315080068F00294079C00F5CA500194069C0C3000943B
S3150800690018F07CFF04B010BD00F5EF500A460630BB
S31508006910002117F019B800F5EF500A460630012194
S3150800692017F012B808B53530353120F0010021F0DE
S31508006930010103780A7803F00F0302F00F029A4266
S3150800694007D10431043044F0A8FDB0FA80F04009BC
S3150800695008BD0020FCE710B5044604F5005431F0E4
S3150800696041FFD4F8CC3033F07C4204D0C3F319038A
S31508006970984228BF184610BD052938BF0521B1F52C
S31508006980E14F28BF4FF4E14138B500F50055D5F879
S31508006990EC30044699420ED0C5F8EC1031F0F0FE02
S315080069A095F8E130022B06D104F503502030BDE8F6
S315080069B038403BF0DBBD38BD42F21073994210B542
S315080069C0044615D800F50053D3F8F02091420DD0AF
S315080069D0C3F8F01031F0D4FE064B93F87C3EDB0783
S315080069E004D504F5035020301BF07CFD002010BDB3
S315080069F00720FCE7D02F00202DE9F04104460E467B
S31508006A0091B300F5005393F8E1507DBB00F580582B
S31508006A1000F5EF57D8F8EC0D0C37814210D14FF43A
S31508006A20802032F0EFF904F5EA50183015F0BEF977
S31508006A3004F5EC50043015F0B9F92846BDE8F081A4
S31508006A4010F0E0FA4FF48020C8F8EC6D32F09BF9AC
S31508006A504FF4807032F097F93846C8F8F05D19F0AF
S31508006A60F3FE31F0F9FDDEE70725E6E70D25E4E755
S31508006A70F8B504460D4649B300F5005393F8E160AE
S31508006A8036BB00F58057D7F8380E814215D14FF43A
S31508006A90002032F0B7F997F8543E04F5EA5043F06F
S31508006AA00103183087F8543E15F080F904F5EC50C8
S31508006AB0043015F07BF93046F8BD10F0A3FA4FF410
S31508006AC00020C7F8385E32F05EF9E4E70726F2E7F9
S31508006AD00D26F0E738B500F5005292F8E120054694
S31508006AE0B2B9B9B10B78ABB100F5EE50043015F078
S31508006AF04AFE32F08FF9044605F5EA50183015F0CB
S31508006B0055F905F5EC50043015F050F9204638BD16
S31508006B100D24FBE70724F9E710B500F5005393F8B1
S31508006B20E1404CB900F5EE50153015F02CFE18284A
S31508006B3018BF0446204610BD0D24FBE700F5EF50AC
S31508006B4000220C3019F024BF38B54B1E092B044619
S31508006B500D460BD800F50E500521203017F039FEEA
S31508006B6030B904F50054A4F8A25338BD0720FCE751
S31508006B700D20FAE700F56250383015F092BA08B5DC
S31508006B8000F5405393F80A2900F5625042F00102D5
S31508006B90A3F8081983F80A29383019F015FA0020DD
S31508006BA008BD3E2904D800F52A50083020F0ACBDAF
S31508006BB00720704738F0BCB813B590F82030DB07CB
S31508006BC017D590F8212002B9827A0B4C343004F597
S31508006BD08473009330F8121CB4F8243114F0EEFDD7
S31508006BE031F0CEFD04F1E00002B0BDE810401BF024
S31508006BF079BC02B010BD00BFD03F002008B519B15E
S31508006C00A1F10B030F2B0ED800F5805393F87D2EB8
S31508006C108A4206D000F5F25083F87D1E1C30FFF735
S31508006C20CBFF002008BD0720FCE7436810B4D3E972
S31508006C30004023465DF8044B18470EB403B503AA73
S31508006C4052F8041B0192FFF7F0FF02B05DF804EB5F
S31508006C5003B070470049F0E78AEF040873B50D469C
S31508006C600446028843881F492846FFF7E6FF22881C
S31508006C709AB1237B8BB963889A420ED34FF47A7103
S31508006C80D31A4B430A2193FBF2F3B3FBF1F22846DE
S31508006C9001FB12331449FFF7D0FF6288A2B14FF403
S31508006CA07A7660680023A0FB060143F031FAB0FB50
S31508006CB0F6F306FB130062890090019228462289A2
S31508006CC00A499BB2FFF7B9FF2846FFF7C3FF287AA0
S31508006CD010F0010004D102B0BDE870402DF00EB8E6
S31508006CE002B070BD8DEF0408BAEF0408D3EF0408AC
S31508006CF0F8B506460C46064F8D18AC4200D1F8BDCD
S31508006D003946304614F8012BFFF797FFF5E700BF21
S31508006D1055CB040810B50446FFF7EAFF2046BDE840
S31508006D20104097E7FF2330B5C3B005468DF8073006
S31508006D3099B900680DF1070300F55C5002AA1C30EA
S31508006D4020F0BFFA044628B928469DF8072002A96C
S31508006D50FFF7E0FF204643B030BD0C24FAE7F0B554
S31508006D601C46002387B08DF8143052EA0403064601
S31508006D7015460ED130230DF113078DF81330304622
S31508006D803A460D49FFF759FF304607B0BDE8F040CF
S31508006D9060E705AF284621460A22002343F0B8F9E2
S31508006DA0303207F8012D2A4623460A2A73F10003D2
S31508006DB005460C46EED2E2E7E2C904084FF4201372
S31508006DC030B58DB0044601930023084602AD6946E6
S31508006DD008228DF80830009516F094FD2A462046BC
S31508006DE00249FFF72AFF0DB030BD00BFE2C904080B
S31508006DF010B50446FFF7E2FF2046BDE8104029E734
S31508006E0037B50546CC884B8864BAA4B20A8801947B
S31508006E1089885BBA49BA89B252BA00919BB20449C9
S31508006E2092B2FFF70AFF284603B0BDE8304011E7E3
S31508006E30FFEF040810B504468CB0084669462CF0E6
S31508006E40A7FF20466A460449FFF7F7FE20460CB01E
S31508006E50BDE81040FEE600BFE2C904080CB473B5ED
S31508006E60054606AC54F8046B0A46074B0749FFF774
S31508006E70E4FE2246314628460194FFF7D6FE02B0C4
S31508006E80BDE8704002B07047F900050852F30408DF
S31508006E900EB417B5044605AA52F8041B0192FFF76B
S31508006EA0C4FE2046FFF7D6FE03B0BDE8104003B087
S31508006EB0704708B50249FFF7EBFF232008BD00BF5E
S31508006EC010F0040808B50249FFF7E2FF232008BDC1
S31508006ED068F004080B7870B5DE0705460C4603D53E
S31508006EE04A681049FFF7D4FF2378990705D528463D
S31508006EF00D4B227A0D49FFF7CBFF23785A0705D5A4
S31508006F002846094B627A0A49FFF7C2FF23781B070E
S31508006F1007D5284694F90A20034B0649BDE8704070
S31508006F20B6E770BDBEF0040805F60408E4F00408E8
S31508006F30F2F0040808F10408F8B507461C460E46A0
S31508006F40184615491546FFF778FE39462046FFF7D5
S31508006F504FFF76B131462046FFF7BCFF237ADA07A2
S31508006F6018D56FF3000323720020BDE8F8402CF013
S31508006F70C5BE042D08D8094B03EB8503DA6B2046FA
S31508006F800749FFF785FFE9E7064A074BFE2D18BFB5
S31508006F901A46F4E7F8BD00BF37F10408E8F5040817
S31508006FA05BF104082BF104081DF1040870B50E46C0
S31508006FB01C461546074902461846FFF73EFE314667
S31508006FC0204611F056F825B129462046BDE87040FE
S31508006FD080E770BD7BF1040870B505460E46144679
S31508006FE00B49FFF72AFE31462846FFF701FF042C16
S31508006FF008D8084B03EB8403DA6B2846BDE87040D3
S31508007000054945E7054A064BFE2C18BF1A46F4E71C
S31508007010D9F10408E8F504080AF204082BF1040873
S315080070201DF1040810B514460A4601462046FFF726
S31508007030D3FF237A9A0707D56FF3410323720020FB
S31508007040BDE810402CF05ABE10BD10B514460A46CD
S3150800705001462046FFF7C0FF237A5A0707D56FF384
S31508007060820323720020BDE810402CF047BE10BDF5
S3150800707010B50C684CB90368054903F5405393F8F5
S315080070802027FFF705FF204610BD0720FCE700BFB5
S3150800709045BF04080B6810B504464BB903680C498C
S315080070A003F5405393F82228FFF7F2FE002010BD9F
S315080070B01846084938F080F838B1236803F5405374
S315080070C093F8202783F82228F0E70720EFE700BF88
S315080070D045BF040871D0040837B50D460446428AF0
S315080070E009490832284692B2FFF7A7FD21462846E5
S315080070F0FFF764FE238A28460093A37DA28A0349E4
S31508007100FFF7C6FE03B030BD15F2040824F20408E2
S31508007110F8B505680F6805F5D15604460E3627B941
S315080071203146FFF787FE0020F8BD4B68BBB93846E5
S315080071300D4938F041F820B131462046FFF758FE90
S31508007140F1E73846094938F037F850B105F5805562
S315080071502046B5F83E2A0649FFF79AFEE3E70720D8
S31508007160E2E72320E0E700BF2EDB040845D2040847
S3150800717045BF04082DE9F04115461D4A0446FFF7A8
S315080071806DFE2A683AB120461A49FFF756FDAA7AD3
S31508007190072A05D9FEE720461749FFF74EFDF6E709
S315080071A0164B204603EB82031A6D1549FFF745FD7A
S315080071B06E7A26B113492046BDE8F04168E62046B6
S315080071C01149FFF73AFDDFF848802B7AF7B2BB4240
S315080071D001D80E49EFE71FB141462046FFF72DFDBE
S315080071E06968204601EB0711FFF7E8FD0136ECE771
S315080071F044F20408D6F604084AF20408E8F5040836
S3150800720051F2040864F2040838F404084EF304083A
S315080072105BC404082DE9F0470D6804460E468AB09B
S315080072203DB90268294602F5D352FFF7A3FF0020AD
S31508007230FFE02846AD4937F0BFFF002850D07768F1
S315080072406FB9236803F58053D3F8602AA84B002A40
S3150800725008BF1A462046A749FFF71AFEE7E7D6F8F9
S315080072600880B8F1000F40F01281384643F0E4F97F
S3150800727085B23F2D00F20B81206800F5805393F804
S315080072806A2A12BBC3F8607A00F5D45700F5CF50C6
S31508007290103016F00BFE14376A1C92B23846716825
S315080072A043F068F9206800F5805393F86A2AA2B17A
S315080072B0072ABCD10022C3F8607A83F86A2A00F547
S315080072C0CF50103016F0F2FDB1E7072A40F0618181
S315080072D0C3F8607A83F86A8AD6E7C3F8607AEEE775
S315080072E02846854937F068FF80B17368002B40F05F
S315080072F0CE80236803F5805393F86A2A072A00D9B3
S31508007300FEE77E4B03EB82031A6DA3E728467C490A
S3150800731037F052FF0746002800F08E80D6F8048022
S315080073202568B8F1000F17D105F5805595F8696AF3
S3150800733066B120467349FFF7ABFD78E7D5F8641ABE
S31508007340204601EB0311FFF753FD013695F8682A2D
S31508007350F3B29A42F2D86AE740466A4937F02CFFF8
S3150800736010B305F5805494F8693A002B7FF45FAFA3
S3150800737005F5CF551035284616F0BEFC002858D11D
S31508007380614BD3F848374BB9A4F8F439C4F8643AD2
S315080073904FF480732846A4F8683A93E7DA7C6FF3CB
S315080073A04102DA745B69EEE702AF3946404638F0C7
S315080073B00BFB00283DD1B068B0B306A938F004FB32
S315080073C0B8BBF368A3BB4FF00208266841F6F0196C
S315080073D006EB090A504616F08FFC50BB06F5805698
S315080073E005F5D65586F8690A14355046C6F8647AFE
S315080073F086F8688A16F05AFD394628464FEA081272
S3150800740043F0B8F82468A144484616F075FC0028ED
S315080074107FF40DAF04F5805383F8690AC3F8645AFC
S31508007420484683F8688A4DE74FF001082668CDE795
S3150800743003200AB0BDE8F0872846344937F0BCFE79
S31508007440002865D070688DF808708DF8077068B9DF
S3150800745023689DF8084003F5CF5003F5805393F849
S315080074606A1A1030072914D11820E2E702A938F061
S31508007470B3FA0028DDD1B0680028E9D00DF107017C
S3150800748038F0AAFA0028D4D1F368002BE0D00720F8
S31508007490CFE70A1F012A06D893F8F129C2F300128A
S315080074A0A2423FF4C4AE042693F8F1299DF807508A
S315080074B064F3041283F8F129D3F86C2A3AB969B946
S315080074C07DB9072283F86A2A16F0B3FCAFE6D47DA5
S315080074D0043C012C88BFD675D269EFE704293FF42E
S315080074E0F1AE042283F86A2AECE600BF54CF0408FA
S315080074F04AF20408E2C9040855D40408E8F5040861
S315080075002EDB040864F20408D02F0020C7BF040845
S315080075102846224937F050FE00283CD07368002BD5
S31508007520B5D1256805F5805696F8F039023B032B48
S3150800753005D805F5CF500421103016F0F0FB96F863
S31508007540F13905F5D3556FF3030386F8F1394FF48E
S31508007550E163C6F8F8390023C6F86C3A2B606B600D
S31508007560AB6096F86A3A0021072B1CBF072386F8FA
S315080075706A3A236803F58052C2F8141B03F5D751FB
S3150800758003F5E15318310833C2F8441CC2F8F43A3B
S315080075904DE60D204DE723204BE700BFF4C904084C
S315080075A02DE9F74305460E461446DFF86C8014B9F4
S315080075B003B0BDE8F083236842460093636831460A
S315080075C02846FFF74BFCA3687BB9E17D072910D94C
S315080075D0FEE749462846FFF730FBA368BAB253F8D8
S315080075E022200137002AF4D1EFE70027DFF82C9094
S315080075F0F3E7074A238A02EB8102A18A284601910A
S31508007600618A126D00910349FFF742FCE469CEE7EF
S31508007610E8F5040885F2040869F2040881F204080A
S31508007620F8B5069D1C462B7A0F4616462BB3252819
S3150800763096BF184B184A53F8202018492846FFF7D2
S3150800764027FC28461649FFF723FC3A460421284614
S31508007650FFF790FD28461349FFF71AFC3246042126
S315080076602846FFF79DFF4CB128460F49FFF710FC47
S31508007670224604212846FFF793FF04B9F8BD2B6874
S31508007680E26903F58053D3F8F41AE161C3F8F44AC2
S315080076901446F2E7DCE9040831C80408B2F2040823
S315080076A0D1F20408DCF20408EAF20408034A044B9F
S315080076B000290CBF11461946FFF7EABBDAD60408BB
S315080076C000F3040810B50C685CB9036803F5805329
S315080076D093F8F019003918BF0121FFF7E7FF204694
S315080076E010BD0720FCE70CB473B5044606AD55F883
S315080076F0046B094B0A460949FFF79FFA2A463146A1
S3150800770020460195FFF791FA2046FFF7A3FA02B043
S31508007710BDE8704002B07047F900050852F3040846
S315080077202DE9F047044615460E46136898B00293AD
S3150800773013890193D38800939388574AFFF7D3FF99
S31508007740EB6831462046554AFFF7CDFF544A314685
S315080077502046FFF783FB204605F11201FFF72EFBB3
S3150800776020466A6A4F49FFF793FB314620464E4A40
S31508007770FFF774FB95F82E70002F40F08280AA6AF6
S31508007780AB8D204649490592ADF81830ADF81A7008
S31508007790FFF753FA0122059858B945492046FFF7DD
S315080077A04CFA20462A6B3F4918B0BDE8F047FFF768
S315080077B06FBBBDF818100144BDF81A30C6188E42C2
S315080077C0EBD210F8039006F1010A0AEB090C6145A1
S315080077D0E3D301334B44ADF81A30B9F1000FEBD0BF
S315080077E073783D2BE8D000230DF11B011AF803002E
S315080077F03D2823D103F101085FFA88F660336B440C
S31508007800A9EB060603F8447C5AFA88F8B6B21AB900
S3150800781020462849FFF711FA2046274907AAFFF705
S315080078200CFAB8F1000F1DD020462449FFF705FAD7
S31508007830324641462046FFF75BFA13E0402B13D148
S315080078401AB920461B49FFF7F8F920461749FFF7EA
S31508007850F4F9514620464A46FFF74AFA20461449A3
S31508007860FFF7EBF9002296E7013301F8010FD8B2CA
S315080078708145BBD8002660336B44B04603F8447C88
S31508007880C5E720460949FFF7D8F9A96A2046AA8D0F
S31508007890FFF72EFA0A4981E708F3040831F30408CA
S315080078A039F3040828F3040846F3040838F40408EE
S315080078B04EF304085BC40408E2C9040825CA040890
S315080078C04BF304082DE9F04F05460E461C461746AD
S315080078D0DFF890B085B003F1FF3802EB81094F4518
S315080078E018D128461C49FFF7D3FADFF87090DFF85D
S315080078F07880264449462846FFF79FF914F8017B05
S315080079001FBBB442F6D12846144905B0BDE8F04F6E
S31508007910FFF7BEBA57F8043B18F801AF18460393A9
S3150800792042F08AFE02305045039B06D8594628463F
S31508007930CAF10102FFF781F9D1E7009353462846B9
S3150800794007495A42FFF779F9C9E741462846013FF0
S31508007950FFF773F9FFB2D3E79DC804085DF304087F
S3150800796056F3040850F30408F3FE040870B50668D5
S315080079700D463046074937F01FFC044620B9304605
S31508007980054937F019FC10B100202C7070BD232072
S31508007990FCE700BF5FF3040866F304080A6813B53A
S315080079A00B46044662B9036803F5805393F8901AA8
S315080079B0003918BF0121FFF779FE002002B010BD7B
S315080079C018460DF10701FFF7D1FF0028F6D1246804
S315080079D09DF8071004F58053A1B193F8902AC3F8CF
S315080079E0880AC3F88C0A002AE7D1012204F5CF5485
S315080079F01034204683F8902A16F004FC204618F026
S31508007A0013FBDAE793F8902A002AD6D083F8901A5F
S31508007A10D3E710B50C680B462CB1BDE8104000F151
S31508007A2008011846A2E7017AFFF740FE204610BD76
S31508007A3010B50C680B462CB1BDE8104000F10801E2
S31508007A40184693E7017AFFF731FE204610BD2DE967
S31508007A50F041804608680F4616461D4688B008B3AA
S31508007A60114637F0B1FF002304462B7098B13968E8
S31508007A7091B101A82CF0CEFD70B908F55C5002A9A9
S31508007A801C3023F04AFA58B9304601AA02A918F060
S31508007A906AFA01232B700024204608B0BDE8F0815D
S31508007AA00D24F9E70724F7E7F0B587B00DF10303CE
S31508007AB0044601AA00680D46FFF7C9FF034668BBDE
S31508007AC09DF803303BB120461749FFF7B6F8204624
S31508007AD001A9FFF78DF905AF3946686837F0B3FF96
S31508007AE00346D8B9AA68E2B9254655F81ECB01AAB5
S31508007AF0164603CEBE4228606960324605F108057F
S31508007B00F6D132882A80A28B42B904F10C020CF510
S31508007B10B4501146183017F054FA0346184607B001
S31508007B20F0BD0723FAE700BF6EF304080246137890
S31508007B300846D9070AD499071BD45B071BD4034602
S31508007B402D2203F8012B00221A7070477221034672
S31508007B5003F8011B1178890702D5642103F8011B74
S31508007B601278520702D56E2203F8012B8342EAD116
S31508007B70E5E70346F1E70346F5E7102208B543F0C3
S31508007B808CFCB0FA80F0400908BD0FB407B504AA0A
S31508007B9052F8041B0448019230F0A4FD03B05DF8C6
S31508007BA004EB04B0704700BF58F604080B6A994204
S31508007BB000D0FEE70B796FF382030B71036823B9D4
S31508007BC0C1E907330160416070470023CB61436810
S31508007BD00B62D961F7E70023C0E900337047837F5A
S31508007BE0C22003F00F03D84000F001007047036875
S31508007BF023B91720B0FA80F040097047994201D09E
S31508007C001B6BF5E70020F5E7F8B5054655F80C6B4C
S31508007C10044606F5B55729463846FFF7E8FFB0B9D2
S31508007C20284616F06FFB012384F84030094B294695
S31508007C303846C4E90C34FFF7DAFF30B906F5805642
S31508007C40D6F8A036E363C6F8A0560020F8BD18207B
S31508007C50FCE700BF1181000808B50BF098F908BDCC
S31508007C6001F1100351F8042B994240F8042BF9D17D
S31508007C707047353020F001000078C0F301107047D6
S31508007C8008B5FFF7F6FFB0FA80F0400908BD0B6AA1
S31508007C90994200D0FEE70B796FF382030B710368F4
S31508007CA023B9C1E907330160416070470023CB61FE
S31508007CB043680B62D961F7E7836D184726220021CE
S31508007CC042F0B6BB030E0B70030C4B70030A8B70A5
S31508007CD0C8707047353020F001004078831E58423E
S31508007CE05841704708B50246FFF7CAFF18B1BDE804
S31508007CF008401046EEE708BD70B505460C46234613
S31508007D001E4613F8012B4AB9204642F095FC224636
S31508007D1081B22846BDE8704030F026BE2F2AEFD142
S31508007D20311B2246284689B230F01EFE08B9741C5B
S31508007D30E5E770BD1422002142F07ABB2DE9F84F21
S31508007D400746884691469A464FF0000B0A9D0BEB6C
S31508007D500904661006FB0A8638463146A8470028F5
S31508007D60C4F34F0407D0D2BFA14601341FFA84FBDF
S31508007D70CB45ECD300263046BDE8F88F0023F0B596
S31508007D80441E184601392AB91BB1024492B29042E0
S31508007D9011D1F0BD14F8017F11F8016F082A1546B4
S31508007DA028BF0825B74287EA0603EDD12844521BA7
S31508007DB080B292B2E7E71906EBD45B000130DBB27A
S31508007DC080B2E4E700BA7047838870B50446C08875
S31508007DD09E188642154608D82068184442F0CAFB01
S31508007DE00020A3881D44A58070BD0320FCE707B5C5
S31508007DF049BAADF8061002220DF10601FFF7E4FFB5
S31508007E0003B05DF804FB03468288C08811448142AA
S31508007E109DBF186899808018002070470122D3E713
S31508007E2038B50446A3880846934215460AD32168FE
S31508007E3042F0A0FB0020A38822685B1B2A4422602C
S31508007E40A38038BD0620FCE70122E9E710B5022227
S31508007E500C46FFF7E5FF10B923885BBA238010BDEF
S31508007E604368036003B1DB6943607047C3892DE942
S31508007E70F04101EB03081FFA88F8434504460D460E
S31508007E8002D90320BDE8F08106464C27B845336879
S31508007E9015D800221448326000F5805CC66DBCF81F
S31508007EA060164F1EBFB2C3B912B1C665ACF86016EC
S31508007EB0A3890020AB42658188BFA581E2E71BB193
S31508007EC07C373668BFB2E1E76079C0F3410034F029
S31508007ED003FF30600028F3D1D3E71A6839461E60DD
S31508007EE01E4613460122DCE7D01F0020F8B500F134
S31508007EF0350424F00104054620460F461646FFF7CA
S31508007F0019FF2378042103F03F0343F0400323704D
S31508007F1000232846AB812182FFF7A8FF23786670E5
S31508007F2023F0300343EA07112170F8BD70B500F15C
S31508007F30350525F001052B78064623F00F0302F0D8
S31508007F400F0003432846144600F8043B42F012FB90
S31508007F502B8A3046E11889B22982BDE8704085E748
S31508007F60353121F001010A7802F00F02082A00D9FA
S31508007F70FEE70431DAE7838942891944914200DD34
S31508007F80FEE789B29142818100D9FEE7704710B4B5
S31508007F90446A34B10022234642625DF8044B826A81
S31508007FA018475DF8044B704738B504460221FFF7B9
S31508007FB0EEFF236A9C4200D0FEE7094A02F580518B
S31508007FC0D56DB1F860362068013B25609BB2254621
S31508007FD018B9D465A1F8603638BD0446F3E700BF82
S31508007FE0D01F002043898B4200D2FEE75B1A4381EB
S31508007FF08389C2898B4294BF00235B1A0A4488BFCF
S315080080009BB2C2818381704770B54489A14230D240
S3150800801015880D44AEB2B14201D8A54201DB641AF7
S315080080201480C4899860214489B24B29044610D823
S3150800803034304418C1F14C0189B2998010881C600B
S31508008040814228BF0146998011889B88CB1A1380E4
S3150800805070BD4C39246889B20CB99C60FEE77B294F
S3150800806005D89C6004340C44C1F17C01E4E77C39F2
S31508008070F0E70021E7E770B5154686B0ADF806309B
S315080080800DF1060203ABFFF7BFFF2C46BDF81060E3
S315080080901EB9601B80B206B070BD039932462046F1
S315080080A042F068FA03A90DF10600344431F07AFD6E
S315080080B0ECE770B5054616460C468B894A89ADF538
S315080080C0BC6DD21A0F49FEF7B8FD284606F1100115
S315080080D0FEF774FE2846728C0B4901AEFEF7ADFD1D
S315080080E03246A18940F2DB532046FFF7C4FF00233E
S315080080F03246335405492846FEF7CAFE0DF5BC6DCF
S3150800810070BD00BF97F30408F6C80408E2C904085E
S31508008110CFE738B54589CC18AC4203DCFFF7ABFF8F
S31508008120002038BD0620FCE7024608464989382360
S31508008130383989B2EDE70246084649892C232C3995
S3150800814089B2E6E770B51646353104688CB021F079
S31508008150010514B920460CB070BD04F1350323F0AF
S3150800816001036A885B889A4212D102A8FFF7A6FD26
S31508008170214601A8FFF7DFFFBDF82A20738C9A4233
S3150800818006D106F1100106A8FFF7F7FC0028E1D191
S31508008190E469DEE738B504460D460B4601890068F2
S315080081A0FFF7B7FF10B923891D44258138BD0B8811
S315080081B013B50C2B0C460BD90D2B0CD101210DF147
S315080081C00602FFF7E7FF20B99DF806300D33238036
S315080081D0002002B010BD0E2B0CD102210DF10602B3
S315080081E0FFF7D8FF0028F4D1BDF806305BBA03F2D2
S315080081F00D13ECE70620ECE773B54FF6FF76C38858
S315080082000446B34206D001210DF10302FFF7C2FF6F
S3150800821018B1E680002002B070BD9DF80350FF2D0E
S315080082200CD1236822895B89E6809A42F2D306201C
S315080082304FF6FF73E38000232381ECE72B092046E2
S315080082400DF10601ADF80630FFF7B1FF0028EFD1B2
S3150800825005F00F05204601A9ADF80450FFF7A7FF62
S315080082600028E5D1216823894989BDF80420C91A5F
S315080082708A42DCDC1344BDF806102381A388E28019
S315080082800B44A380C6E730B401F1350222F001029F
S31508008290D48912784D8902F00F020432224495429D
S315080082A04FF0000404D3C0E9001430BC0281A3E7F0
S315080082B04FF6FF720481C28030BC0620704710B4A6
S315080082C04C889C4203D309885DF8044B21E70620B5
S315080082D05DF8044B70472DE9F04786B017461C46F3
S315080082E0ADF806300DF1060203ABDDF83880FFF76E
S315080082F08BFEBDF810507DB1039EB8F1000F11D06A
S31508008300B94606EB050AB24513D019F8011B16F84B
S31508008310010BC0470028F6D1B4FA84F0400906B02C
S31508008320BDE8F0872A463946304643F0B6F80028B5
S31508008330F2D12F4403A9651B0DF10600ACB231F04A
S3150800834031FCD6E770B586B0ADF806300B44144656
S315080083509AB2914200D9FEE74289934200DDFEE7D0
S3150800836003AB0DF10602FFF74FFEBDF810500DB92D
S3150800837006B070BD21462A46039842F0E1F803A9E3
S315080083800DF106002C4431F00DFCEEE770B500F156
S31508008390350424F00104A37C05465BB14389218A90
S315080083A0994207D1012994BF491A01F1FF3189B2CF
S315080083B0FFF75CFD2378224603F00F032846BDE845
S315080083C0704000210433BDE72DE9F041B0F80A807A
S315080083D00F4602EB080399B24145054616460CD3EB
S315080083E0FFF744FD044628B933463A46414628462F
S315080083F0FFF7A8FF2046BDE8F0810324FAE72DE938
S31508008400F043074601239BB057F80C4B8DF805300F
S31508008410037A0646884604F5B55039468DF8043081
S31508008420FFF7E5FB002800F0B6802622002103A806
S3150800843041F0FEFFD8F80830EBB1204641460DABB7
S3150800844007AAFFF704FB0446002843D19DF83430F9
S315080084503BB130465349FEF7F0FB304607A9FEF715
S31508008460C7FCD8F804000DF12E0137F0ECFA0446E3
S3150800847080BB08F10808082001A934F016FD054656
S31508008480002800F08A80D8F800404749204636F090
S3150800849093FE00283ED0D8F804000DA937F0D3FA89
S315080084A0044600283FD13023BDF834808DF80830C3
S315080084B0B8F1000F12D16B79306813F0180F31D06C
S315080084C000F5B4502A46394603AB183016F0E4FFD7
S315080084D0044640BB20461BB0BDE8F083012228466F
S315080084E002A9FFF771FF0446E8B99DF808305A2B30
S315080084F00AD07A2B0AD0392B0AD00133DBB208F11D
S31508008500FF381FFA88F8D1E76123F8E73023F6E742
S315080085104123F4E72046254936F04EFE20B3D8F825
S31508008520043023B907242846FFF73EFDD2E74FF06B
S315080085303209029302230DAA0DF1060102A8ADF82D
S31508008540069020F0F3F8804608B1242827D128465B
S31508008550BDF806200DA9FFF737FF04460028E2D12B
S31508008560B8F1000FE6D1A6E72046114936F024FEF9
S3150800857008B108F10408D8F80040002CD2D02046EB
S3150800858042F05AF8214682B22846FFF71DFF0446F4
S31508008590002890D0C7E70D249CE703249AE70446F1
S315080085A0C1E700BFA6F30408CCF304080DD40408F9
S315080085B0CFF30408012207E7FF2313B58DF8073028
S315080085C043890446B3F5007F0FD20DF10701FFF783
S315080085D0F1FF40B9012204F1350323F001039A742F
S315080085E062891A82A28102B010BD0320FBE70378D4
S315080085F01BB1012B03D0002070474068E4E6043025
S31508008600FFF7E2BB2DE9F04114469A180E4691B2DF
S3150800861086B08C420546ADF8063029D87189914254
S3150800862028DBB0F80A80434499B2414524D3FFF7C2
S315080086301DFC074648B92146304603AB0DF1060234
S31508008640FFF7E2FCBDF810401CB9384606B0BDE895
S31508008650F081234641462846039AFFF773FE4444B1
S3150800866003A90DF106001FFA84F831F09BFAE9E731
S315080086700727EAE70627E8E70327E6E72DE9F04FA5
S3150800868040231646FBB083460D46ADF86830706841
S31508008690FF233AAA1AA914F066FC002840F0AD8117
S315080086A05846BF493AAAFEF7F3FB002D40F0EC8086
S315080086B00595122200210DF15600BDF8144041F02F
S315080086C0B7FE3AAB1493FF23ADF854301AAB1893A0
S315080086D08023ADF864300023728A0993A24209D830
S315080086E0F38ABDF814101344994280F2AB80012333
S315080086F08DF86630338A2246B06808A9ADF820306E
S3150800870014F0EAFB0746002840F06C81FF23B068A6
S315080087103AAA08A914F027FC0446002840F060810C
S31508008720BDF820700A233946B0680AAAFFF7F1FC9B
S315080087308046002840F04C81D6F808A03A465146B3
S315080087400DA814F029FB0446002840F01281BDF854
S3150800875034300A375BBAADF84030924B0D2200939D
S3150800876091490623BFB210A8ADF82270FFF7E6FAC2
S31508008770814600286DD136F0ADFACDF82490BDF8C3
S315080087802830DDF824805BBA9AB20692ADF85630E6
S31508008790B8F1000F00F0FB80B8F80A400B98ADF866
S315080087A05840FFF70FFB802CA14628BF4FF08009E1
S315080087B082464B461790ADF864901AAAB8F1000F96
S315080087C000F0EA8000214046FFF755FC404636F0A7
S315080087D081FA5846BDF814207449FEF759FB744AC5
S315080087E010AB07CA83E807009DF866700421022FBC
S315080087F094BF53F827306F4B5846CDE901A36E4A0C
S31508008800069B0094FEF76FFF3AAB042158466B4A65
S31508008810FEF769FF04215846694AFEF71FFB4A46D8
S3150800882058461AA9FEF764FA802C03D958466549B2
S31508008830FEF703FA58466449FEF72AFB059B0133FF
S31508008840059336E7728B1344994280F2D28002234D
S315080088504EE721465D4A062034F0A0FA014609A8EB
S3150800886014F0A4FDDDF82480B8F1000F00F08A802A
S31508008870BDF83C2099F8023052BA92B29A4209D20F
S31508008880404636F027FA062528462BF037FA7BB0FD
S31508008890BDE8F08F3A4651464046FFF7B3FE044618
S315080088A0002866D199F8023006903B44ADF822308C
S315080088B099F803109DF81830BDF82220994216D869
S315080088C0BDF83C30D11B5BBA9BB29942D8DC3B441D
S315080088D0B9F804109B1A9BB29942D1D85146404622
S315080088E0FFF790FE044600283FF449AF41E05046A2
S315080088F00DF12201079214F0D7FA0446002838D160
S31508008900079ABAF1000F04D1404614F0E9F9044673
S315080089102AE0CDF840A0ADF84820ADF84A00ADF8F9
S315080089204C2010A814F081FA044630B11728EBD071
S31508008930099836F0CFF92546A6E79DF84630013B5B
S315080089403E2B1DD840460DF14601FFF733FE04467F
S3150800895050B940469DF84630BDF844201099FFF7B7
S3150800896051FE04460028DCD0069B01330693002CF2
S315080089709ED0099836F0AEF9172C18BF254683E71E
S315080089800724F1E7404636F0A5F903257CE7BDF84C
S31508008990304064BAA4B201E73946B06814E700BFAC
S315080089A0D2F30408C3A8010862F60408EDF3040824
S315080089B0B4F60408A0E40408F1F3040825F404084E
S315080089C02DF404083AF404084EF30408B0F6040833
S315080089D0204636F07FF9B8F1170F18BF454653E71A
S315080089E03846C7E7002036F075F9172F18BF3D46F9
S315080089F04AE7002036F06EF946E7054644E713468F
S31508008A000A460146184639E6F8B504460E4615469E
S31508008A1000F13407E3899D420BD85B1B6289E38129
S31508008A20A3892A442B4492B29BB29A42628117D2F6
S31508008A30FEE76079C0F3410034F04EF9C8B1236807
S31508008A400360E38920604B2B06D83430C3F14C020F
S31508008A50F918184441F08EFDE3897C33E381D9E7A0
S31508008A602046A38132462B460021FFF76BFC0020E7
S31508008A70F8BD0320FCE773B5054603796E8940798E
S31508008A808E42C0F3410228BF0E46C3F340038DF859
S31508008A900520E98901AA40098DF8043034F07EF9E9
S31508008AA00446002832D0334600222946FFF7AAFD9D
S31508008AB048BBAB896289B34228BF33469A4200D283
S31508008AC0FEE7A381AA79A37962F30303A3712B793D
S31508008AD02279DB0963F3C71222716B796279C3F3D2
S31508008AE0C10363F3C4026271AB69A3612B8A238253
S31508008AF06B8A63822B7A2372AB8DA385EB8DE38514
S31508008B00204602B070BD2046FFF74EFA0024F7E76C
S31508008B1010B50446FFF7AFFF98B104F1350300F12D
S31508008B20350223F0010322F0010203F1100153F884
S31508008B30044B8B4242F8044BF9D1198811809B7873
S31508008B40937010BD38B504460D460B882C3020F8B6
S31508008B501A3C8B7800F8243C91F9031018F092F827
S31508008B60297904F12E0018F0C0F86B79C3F3400296
S31508008B7003F001035B0043EA0223A28822F4817210
S31508008B801343A38038BD0368994204BFCB690360C9
S31508008B904368994204BF0B6A43600B6A0BB1CA6902
S31508008BA0DA61CB690BB10A6A1A6200220B79C1E94C
S31508008BB0072162F382030B71704710B5FFF7E3FFD5
S31508008BC0BDE810400846FFF7EFB910B5044621681E
S31508008BD001B910BD2046FFF7F0FFF8E70023C1E909
S31508008BE00033026802B970470B88106801330B809E
S31508008BF0012340B9488803444B8050894B68D269A1
S31508008C0003444B60EEE701330068DBB2F1E70B790A
S31508008C1010B55B0700D4FEE74B79C3F3410300EBBD
S31508008C2083025468A14209D10C6A546034B164794C
S31508008C30C4F341049C421CBF002353600368994255
S31508008C4004BFCB690360CB690BB10A6A1A620B6A67
S31508008C500BB1CA69DA6100220B79C1E9072162F30F
S31508008C6082030B7110BD0023C1E90033026802B903
S31508008C7070470B88106801330B80012340B9488878
S31508008C8003444B8050894B68D26903444B60EEE736
S31508008C9001330068DBB2F1E74A7970B5C2F34102E5
S31508008CA014460B79061D43F004030B7156F824305D
S31508008CB01BB90134E5B2042DF8D10B624BB9036830
S31508008CC0CB610160CB6903B1196200EB8200416098
S31508008CD070BDDC69CC61D961F4E78B894989038069
S31508008CE099422CBFC3EB0102C3EB0302DB4392B2EA
S31508008CF09BB2934228BF1346438070474388028835
S31508008D00994228BF194612FA81F25B1A02804380FB
S31508008D107047084A138803B9FEE748F24E3053688D
S31508008D20A3FB003010EB530044BF20F00040013095
S31508008D3050607047806B0020814210B5044600D809
S31508008D40FEE7FFF7E6FF091BB0FBF1F303FB110093
S31508008D50204410BD10B50446FFF7DBFF091BC0B25F
S31508008D6090FBF1F301FB13002044C0B210BD38B5E7
S31508008D700D46814288BF85B269000446013100204C
S31508008D80FFF7DAFF2044401B38BD112313B50F2225
S31508008D9000210446ADF8063041F04AFB0223E3738E
S31508008DA00023224623740520618A0DF106032FF05D
S31508008DB008FF0C2800D1FEE7003818BF01202075EF
S31508008DC002B010BD10B540B10023441E98B28142CE
S31508008DD003D90133E25C002AF8D110BD0139013804
S31508008DE011F8012F10F8013F3AB9002B14BF0120E2
S31508008DF00220831E5842584170479A42F0D00020FC
S31508008E00F7E72DE9F04F0C6807460E4685B04CB9D2
S31508008E100368214603F58053D3F86C2AFEF7C0FB96
S31508008E20002444E02046A24936F0C6F9002800F09E
S31508008E30F1803B6803F58053D3F8F45A002D00F00F
S31508008E402981AB46EA690021C3F8F42A28464FF47B
S31508008E50987241F0EDFA05F1340A05F58A734BF874
S31508008E6094ABAB6005F12803EB60012305F1D40848
S31508008E70C5F804B0AB75C5F82C8005F1100949464C
S31508008E80F06836F0E0FD044648B971680846019175
S31508008E9041F0D2FB421C402A01990CD907243B68B1
S31508008EA003F58053D3F8F42AEA61C3F8F45A204646
S31508008EB005B0BDE8F08F584641F05CFBD6F808B01F
S31508008EC0584641F0B9FB421C602AE7D85946504635
S31508008ED041F050FB2C21504641F08EFB78B94946AB
S31508008EE0F06836F0B0FD04460028D8D13069B8B924
S31508008EF07069E8B9B4691CBB0023AB7533E005F5A6
S31508008F00887A05F5947B00F8014B2C214AF8040F62
S31508008F1041F072FB0028E2D0D345F4D10324BEE722
S31508008F2005F1120136F08FFD04460028E0D0B6E7B9
S31508008F3005F1140136F087FD04460028DAD0AEE7BD
S31508008F4020465C4936F038F90028D5D12946402311
S31508008F50424621F8303F03A8012303941FF0E6FB9D
S31508008F60044600289BD1F069002830D1306A0028D1
S31508008F7035D13E6806F58059D9F86C8A4446002CE6
S31508008F803AD12B68002B89D06B68002B86D0EB680A
S31508008F9013B9AB7D002B81D107232A6AEB75464BA3
S31508008FA0C5F81C809A4294BF2A622B626A6A00211D
S31508008FB09A4294BF6A626B622846C9F86C5A14F0E2
S31508008FC064FE06F5CF50103014F070FF28E705F15F
S31508008FD0200136F026FD04460028C7D05FE705F1D4
S31508008FE0240136F01EFD044600287FF458AF736A44
S31508008FF0002B7FF453AFBCE729682068FFF7EEFE25
S3150800900020B169686068FFF7E9FE08B9E469B6E760
S31508009010182444E72046294936F0CEF8814628B96F
S315080090202046274936F0C8F8002835D0B36801939A
S31508009030002B33D0D6F80CB0BBF1000F2ED1D7F8E1
S31508009040008008F5805ADAF86C5A2C460CB91724B1
S315080090502DE76168706836F0AFF828B12168019885
S3150800906036F0AAF8002846D1E469EFE7AC4217D0F3
S31508009070ED69002DFAD1EAE79C4223D09B46DB69CD
S31508009080002BF9D1E3E7DBF81C3013B3DB69CBF827
S315080090901C301EE003240AE7232408E7072406E712
S315080090A0E37D043B012B8FD90423E3758CE700BFCE
S315080090B0C3BF0408F3FE04089AC42000C7BF040807
S315080090C0F4C90408BBF1000FDDD115B1EB69CAF884
S315080090D06C3A0023E361E37D072B1CBF0723E37586
S315080090E014F0E4FE3B6803F58053D3F8F42AE261F2
S315080090F0C3F8F44A94E608F5CF501030B9F1000FDA
S31508009100B7D12B46BCE7A0F14103052B04D8373865
S31508009110C0B2087000207047A0F16103052B01D882
S315080091205738F5E73038C0B20928F2D90720704712
S3150800913070B504460E46E588134682880068AA423A
S3150800914034BFA91A00211044324639F0B7FC00286A
S3150800915000DAFEE7A388E288184480B2904228BF66
S315080091602368A08022BF9B18002203F8012C204602
S3150800917070BD0EB417B5044605AA52F8041B019231
S31508009180FFF7D6FF204603B0BDE8104003B070478E
S315080091904FF434132DE9F04794B00293002303AA41
S315080091A006460C460D46914691F810C08DF82030BB
S315080091B00CF10703DB100DF120085F1CCDF80480C5
S315080091C07F0801F1100A9646286869680835AEE8EE
S315080091D0030055457246F6D129788EF800106BB112
S315080091E04FF0FF3103F14F026A4412F8440CCCEBFE
S315080091F0C30C01FA0CF1014002F8441C102BC3F110
S31508009200100292B209EB030088BF0022002141F048
S315080092100FF93A46484601A914F074FB237C073334
S31508009220772B03D8084901A8FFF7A3FF227C074933
S3150800923001A8FFF79EFF424630460549FDF7FDFCAB
S3150800924014B0BDE8F08700BF3EF4040841F40408F2
S31508009250E2C9040870B506460D460024AC4201D39F
S31508009260012070BD305D0134030605D439F016FCC3
S315080092700028F3D00020F4E710F04003FAD0810666
S3150800928012D5C20612D50307F4D4032307E0AC426D
S31508009290F0D0325D013402F0C002802AEAD1013BE7
S315080092A0DBB2FF2BF3D1D9E70123F8E70223F6E770
S315080092B010B5044641F0C0F901462046BDE8104005
S315080092C0C8E743684BB9054B5A6812B958604060FD
S315080092D0704751684160506058607047D01F002041
S315080092E003685A1A11EA220138BF194643685A1AFE
S315080092F013EA220338BF0B46436070474160024AAF
S3150800930001460248FDF7BAB8ECF50408D81F002054
S31508009310002A00DAFEE71144F0E738B50D460446A0
S31508009320FEF79AFC2A4601462046BDE83840EFE794
S31508009330064B07485A69196A914208BF9A6901F1AA
S31508009340804104BF01329A61D8E700BFD01F0020D0
S31508009350EC1F00208368984203D04368CB1A002B81
S3150800936000DACBE770470146014A0248FDF760B8C4
S31508009370ECF50408D81F0020D1E9003103F10043B9
S31508009380013B8B4200D0B9E7EDE710B5044692B031
S31508009390684636F0E4F9616802A836F017FA0299C9
S315080093A031B9694604F11000FFF7E6FF12B010BDA7
S315080093B004A8FEF7B9FE68460F99FFF791FF02A8C1
S315080093C0FEF74EFDEBE72DE9F0410546144604305D
S315080093D01E46069F9DF81C80FFF7EFFB2846FFF701
S315080093E0D4FF656A3DB143463A463146AC46A06A63
S315080093F0BDE8F0416047BDE8F0812DE9F04192B043
S3150800940004460D46416802A836F0E0F90B274FF0EE
S315080094100008029E16B912B0BDE8F081314604A8CC
S31508009420FEF782FE25B1294604A8FEF7A6FB38B149
S31508009430002331462046CDE9008704AAFFF7C3FF7B
S3150800944002A8FEF70DFDE4E72DE9F04F9FB0009363
S31508009450289B064608460193FEF70BFC02280C4695
S3150800946017460CD0032801F1350300F0F280B289C3
S3150800947023F00103511C52BAB1815A8045E006A86F
S31508009480FEF71CFCFEF7E8FB3A4600F57130D830CB
S3150800949006F12C09059006AB07F1200C1D4610684D
S315080094A05168083203C562452B46F7D11068214634
S315080094B0286092884846AA803A46FEF743FE054643
S315080094C018BBF16A03A836F081F9AA46AB46DDF85F
S315080094D00C80B8F1000F40F09C801FFA8AF3092B24
S315080094E003D929464846FFF768FB20466189FFF7F6
S315080094F00FFB054648B12C2205A9FEF765FF002893
S3150800950000F09D802846FEF74FFD2046FEF73EFFF9
S315080095102046FEF7B5FB002800F0A280B4F80AB092
S31508009520BBF1000F00F0B68010AB3D46994607F137
S31508009530100C1A4628686968083503C2654513463B
S31508009540F7D17B8C14AAADF8603005F1100C1346E0
S3150800955028686968083503C365451A46F7D1009A2D
S3150800956097F825301992019AC3F300131A92BDF899
S3150800957074209B0222F49F6222F0070243F0040340
S31508009580134340F6B9314FF4FA60ADF87430FFF77B
S31508009590D3FB9DF875301C906FF3000320468DF8B9
S315080095A07530FEF76DFB9DF8753060F341038DF855
S315080095B07530FEF751FB9DF8753059469B074CBF31
S315080095C01C9B384B18441B902046FFF7A1FA05460A
S315080095D000285AD038224946FEF7F6FE002851D10F
S315080095E006F1040829464046FEF751FB3046FFF7C8
S315080095F0CCFE21463A463046FEF75EFB0446002876
S3150800960044D040462946FFF7D8FA3046FFF7BDFE54
S315080096103CE011A8FEF752FB414610A8FEF78BFD69
S3150800962025B1109AA2EB0B02002A02DA4546DDF8AC
S3150800963040B003A8FEF714FC0AF1010A47E72946D9
S315080096404846FEF724FB059906F13400FFF782FE2B
S315080096505BE723F001035B78002B3FF456AFFEE788
S315080096602046FEF706FB012814D1009B93B104F1AE
S31508009670350323F0010393F800B00BF00F0B0BF141
S31508009680040B51E72846FEF78FFC032420461FB03B
S31508009690BDE8F08F3A46214630461FB0BDE8F04F88
S315080096A0FEF70ABB486B0100002307B50093FFF7D6
S315080096B0CBFE03B05DF804FB2DE9F0419CB0C5680C
S315080096C0FEF7CAFA064604A8FEF7F8FA696802A879
S315080096D036F07CF81C274FF00008029C2CB9284667
S315080096E0FFF753FE1CB0BDE8F08121460EA8FEF731
S315080096F01BFD199BF31A002B0EDB9DF86D309A079C
S3150800970002D59DF86C305BB9002321462846CDE981
S3150800971000870EAAFFF757FE02A8FEF7A1FBDCE7B3
S31508009720013B8DF86C301A9B61895B001A933344B0
S315080097301993382338390DEB0302204689B2FEF710
S3150800974001FE9DF86D30DB07E6D40DF1200C12AB57
S315080097500FCB8CE80F00BDF858300EA904A8ADF859
S315080097603230FEF77DFA9DF86D309DF83520C3F34B
S31508009770800363F304128DF8352061892046383951
S3150800978089B2FFF7C5F904460028C5D0014604AAE0
S315080097902846FEF791FA0028BED02046FEF704FCBC
S315080097A0BAE72DE9F04701F1350727F00107154615
S315080097B07B1ACA89203B9A4206460C4694B000D2C8
S315080097C0FEE7B1F80C803846FEF7B4FA04233A46A9
S315080097D041462046A7F80E80FEF79BFC00284DD18F
S315080097E03B7803F00F03082B48D808F104012046FC
S315080097F03A1D89B2FEF78DFC00283FD10DF11808F5
S3150800980021464046FEF73FFD002837D14FF6FF793F
S31508009810BDF81E304B452CD1FB89BDF820102046DB
S31508009820C91A89B23982FEF7A6FB7B78013B032B5E
S3150800983035D9716803A835F0C9FF05F1100ADDF8B6
S315080098400C90B9F1000F40F0D480F36C002B40F077
S315080098500B812046FEF714FA20B92046FEF709FACE
S3150800986001285DD12B4622460321304636F02CF8D6
S3150800987056E04046FEF7C0FC0028C9D02B78FF2BDF
S315080098804ED02046FEF7FCF9002849D02B46224642
S315080098900321304614B0BDE8F04736F015B8736AB0
S315080098A0DBB92A46214606F12C00FEF74BFC38BBED
S315080098B0214603A8FEF7E7FC4FF6FF77002840F09D
S315080098C02981BDF81230BB4263D0BDF810300B2B8E
S315080098D05FD003A8FEF790FCF0E72946B26A9847DE
S315080098E00028DED017281BD12B78FF2B18D02B4643
S315080098F022468421304614B0BDE8F04735F094BFBF
S3150800990041892C3989B2FFF703F9074640B1FEF7BA
S315080099103DFD2A4639463046FEF7CEF9002857D18E
S3150800992014B0BDE8F087474516BF3A46424602F8E6
S3150800993001ABD7180DF139018F42F1D2BDF81410D9
S315080099400398C91A89B2FEF796FB03A8FEF754FCDA
S31508009950002840F0DF80BDF812304B4503D0BDF833
S3150800996010300B2BF1D1BDF812304B45DBD100235B
S315080099703B70776D9FB9376ACFB9736C23BB2B7869
S31508009980FF2BCDD02B4622468421304635F04CFF9E
S31508009990C6E747464FF6FF794FF02F0AE3E72B460F
S315080099A0224641463046B8470028E4D0B8E7414643
S315080099B03868FFF713FA28B12A4621467B68B86843
S315080099C09847ADE7FF68D7E72A462146B06CF7E720
S315080099D0172808D12B78FF2B05D02B462246842141
S315080099E0304635F021FF384614B0BDE8F047FEF79B
S315080099F0DBBA49464046FEF797FB51460AA8FEF7EA
S31508009A00BCF820B1BDF838206B8C9A4207D09DF877
S31508009A102830FF2B03D00CA813F029FD00B32046ED
S31508009A20FEF727F9012815D90238C0B2012817D838
S31508009A3009F1350323F001035A887B889A420FD12E
S31508009A402046FEF716F903283FF66AAFDFE800F06E
S31508009A504F55211449462046FCF764FF0028EFD1EC
S31508009A6003A8FEF7FDF9EAE62A462146306D98472F
S31508009A7000287FF455AFECE67B78002B7FF450AFD7
S31508009A800B22CDE90032424649463046FFF79BFC99
S31508009A9046E77B78E3B99DF84D309A070CD543F035
S31508009AA001038DF84D30B9F80A1038233839424683
S31508009AB0484689B2FEF746FC0F9B002B7FF430AF71
S31508009AC0301D4946FFF779F83046FFF75EFC27E771
S31508009AD03F2B7FF625AF49462046FCF723FF002893
S31508009AE03FF41EAF0023CDE900532346CBE72B46B0
S31508009AF022460221304635F0E7FE0F9F002FF1D0AF
S31508009B009DF82830FF2BEDD100232A4621461098D0
S31508009B10B84705E717283FF432AF01E730B5C46800
S31508009B2091B001A835F01BFE216803A835F04EFE5A
S31508009B30039D35B901A904F10800FFF71DFC11B012
S31508009B4030BD06A8FEF7BAF8294605A8FEF7F3FAC7
S31508009B500599019B5B1A002B07DB29462046FFF770
S31508009B602CF803A8FEF77CF9E2E701A8FFF7B8FB93
S31508009B70F7E74160024A01460248FCF77FBC00BF8E
S31508009B80F8F50408DC1F00200146024A0248FCF7E3
S31508009B904FBC00BFF8F50408DC1F00204378FF2BF4
S31508009BA004D1408840BA80B204307047981C704788
S31508009BB008B50246FFF7F2FF104408BDF0B50546A2
S31508009BC0C5B003A80C4635F076FD294603A811F062
S31508009BD048FF064690B903A812F0E0FB064600289F
S31508009BE040F0D08001468822204640F021FC03AD93
S31508009BF09DF80A3103AA13449D4202D3304645B064
S31508009C00F0BD2B780E2B0BD80E2B11D8DFE803F0FE
S31508009C1031884E77A166105A10101010B010200027
S31508009C20352B2FD009D8332B00F08280342B35D032
S31508009C302846FFF7BDFF0546DAE74A2BF8D1012289
S31508009C40B5F8033084F884205BBAA4F85C30EFE7F3
S31508009C500123A81C84F8783012F0B7FDC4E9000186
S31508009C602B895BBAC3F34E0203F001032281A37268
S31508009C70DEE70122B5F8033084F880205BBAA4F841
S31508009C805A30D5E7284601A912F078FB0028CFD12B
S31508009C90012384F88330019B6367C9E7284611F0DE
S31508009CA046FF0123606584F87E30C1E7012384F806
S31508009CB07C30D5F80230C4F84130D5F80630C4F8FF
S31508009CC04530B5E7012384F87D30D5F80230C4F86D
S31508009CD04930D5F80630C4F84D30A9E7012304F118
S31508009CE0200784F87A3005F1120CAB1C3A4618683E
S31508009CF05968083303C263451746F7D198E7012325
S31508009D0084F87B306B78AA1C102B28BF102301A976
S31508009D1004F1300001928DF8083012F012FD87E741
S31508009D2001226B8884F87F205BBAA4F858307FE755
S31508009D300123A81C84F8793012F047FDC4E9040110
S31508009D402B895BBAC3F34E0203F001032283A37681
S31508009D506EE7012304F15E0284F8813005F11201F1
S31508009D60AB1C53F8040B8B4242F8040BF9D15FE79E
S31508009D70284612F065FA0123019084F88230C4F867
S31508009D806E0055E7072639E738B505460C46FFF74E
S31508009D9005FF294682B22046BDE83840FEF714BBC7
S31508009DA0F7B50E461746044602236A463946304634
S31508009DB0FEF785FA054680B99DF8003023709DF8B0
S31508009DC00130FF2B0CD00221607002333A68C4F8C8
S31508009DD00220A288934214D90625284603B0F0BD6E
S31508009DE00423394630460DEB0302FEF768FAD8B964
S31508009DF001236370BDF8063004215BBA9BB20433B5
S31508009E00E4E79BB2934228BF13466288A3801344B3
S31508009E1072899BB29A42DFD3D4F80230A01DC4F8E7
S31508009E200630FEF76BFFD8E70546D6E773B5044656
S31508009E3001A80D461646FEF750FF2946204601AAF8
S31508009E40FFF7AEFF38B92378B34205D0A18801A839
S31508009E50FEF754FFF1E7172002B070BDF0B585B0E4
S31508009E60054616460A46014601A81F46FFF7DEFFC5
S31508009E70044650B9BDF808203B46B24228BF3246D0
S31508009E802846BDF8061035F074FC204605B0F0BD2E
S31508009E901FB514460A46014601A8FFF7C7FF10B9C1
S31508009EA0DDF80A30236004B010BDF0B517464289C4
S31508009EB085B0ADF800101E468A422CBFC1EB0203DE
S31508009EC0C1EB0103C9439BB289B2994228BF19461F
S31508009ED00546ADF802106A46014601A8FFF760FF7D
S31508009EE0044660B9BDF80C203346974228BF17468A
S31508009EF028463A46BDF80A1035F03BFCF45520468C
S31508009F0005B0F0BDF0B51746428985B0ADF800102A
S31508009F101E468A422CBFC1EB0203C1EB0103C943AB
S31508009F209BB289B2994228BF19460546ADF8021078
S31508009F306A46014601A8FFF733FF044660B9BDF833
S31508009F400C2096420BD8B2423B4628BF32462846DA
S31508009F50BDF80A1035F00DFC204605B0F0BD062404
S31508009F60FAE710B502231446FFF7CCFF10B9238889
S31508009F705BBA238010BD042310B51446FFF7C2FF51
S31508009F80034618B92068FDF71DFF2060184610BD66
S31508009F9030B585B0044615460A46014601A8FFF7BE
S31508009FA045FF40B901232A462046BDF8061005B0EC
S31508009FB0BDE83040A6E705B030BD30B585B00446EB
S31508009FC015460A46014601A8FFF730FF38B92A4662
S31508009FD02046BDF8061005B0BDE83040C1E705B01B
S31508009FE030BD30B585B0044615460A46014601A877
S31508009FF0FFF71CFF38B92A462046BDF8061005B0FB
S3150800A000BDE83040B7E705B030BD73B5154601AABF
S3150800A01004461E46FFF73CFF28B933462A46204623
S3150800A02001A9FEF74CF902B070BD38B504461546CD
S3150800A03001448C4202D30024204638BDA31C994211
S3150800A040F9D36378FF2B02D1231D9942F3D3204617
S3150800A050FFF7AEFD8842EED82378AB42ECD0044633
S3150800A060E7E70422FEF7B0B90222FEF7ADB970B5EC
S3150800A0700D4698B0286804A935F0A6FC04460028C1
S3150800A08047D168680DF1060135F0EEFC0446002854
S3150800A0903FD1A8680DF1050135F0E6FC0446C0BBC2
S3150800A0A003A904A89DF806509DF8056029F0CEFD81
S3150800A0B0044670BB402E31D86B1EDBB2FD2B2DD863
S3150800A0C014208DF8075035F09AF8054620B35A2320
S3150800A0D002A98DF80830731C8DF80930FFF7C4FF04
S3150800A0E0044698B928460DF10701FEF763FA0446B7
S3150800A0F060B93246284608A9FEF766F9044628B923
S3150800A100284604A917F03CFD044610B12846FDF779
S3150800A1104BFF204618B070BD0324FAE70724F8E77A
S3150800A120FF2B73B5054616461C4612D18DF8053029
S3150800A1304FF47F438DF8041001A9ADF80630FFF7F8
S3150800A14090FF20B9224631462846FEF73DF902B06F
S3150800A15070BD8DF8001069468DF80130FFF784FF51
S3150800A1600028F4D1002CF2D0ECE770B505460E466F
S3150800A1701C46114618460BB1FEF724FE2246314608
S3150800A180C3B22846BDE87040CAE707B501238DF873
S3150800A19007200DF10702FFF7C3FF03B05DF804FBC4
S3150800A1A007B552BAADF8062002230DF10602FFF7ED
S3150800A1B0B7FF03B05DF804FB13B504461046FDF778
S3150800A1C001FE042301900DEB03022046FFF7A8FFCA
S3150800A1D002B010BD10B590F8243004464BB1012BDF
S3150800A1E001D1436983612046A169BDE81040FFF7A4
S3150800A1F094B84169B1EB510F4FEA510001D9FEF706
S3150800A2009BFD0023A061E38384F82530EBE710B5B6
S3150800A21090F8243004467BB1012B08D10169C06847
S3150800A2200131FEF789FD60612046FFF7D3FF20461E
S3150800A230236ABDE81040184790F825306BB1012B0A
S3150800A240F5D1426922B10369991A8A4298BF530027
S3150800A25020466361BDE81040BCE7012380F825303D
S3150800A260D0E90513C91AFFF758F8E28BA38B9A426F
S3150800A270DDD310BD10B50446FDF7EEFCD4E9003178
S3150800A280E268C01A9A4202D10028A8BF013110BD5F
S3150800A2902DE9F3411E461C4B044683424FF000034A
S3150800A2A08B4115460AD216A3D3E900233FF030FFA7
S3150800A2B01649144602462846FEF75BFF144B4EF62F
S3150800A2C06021B4FBF3F203FB1244B4FBF1F34FF441
S3150800A2D07A7801FB1344B4FBF8F728460D49009732
S3150800A2E0FEF747FF46B1284608FB17420A4902B05F
S3150800A2F0BDE8F041FEF73DBF02B0BDE8F08100BF02
S3150800A300005C260500000000FF5B260545F40408EE
S3150800A31080EE36004BF404085AF4040813B50068B6
S3150800A32050B14AB141B100230068019301AB35F041
S3150800A33067FD0CF0EEFA00B1FEE702B010BD2DE99C
S3150800A340F843436C15461344026C044693420E4682
S3150800A3501AD84FF000084F1900F11009B74214D166
S3150800A360636C1D44236C65649D420BD1B4F8503070
S3150800A3702BB104F1100211462046FFF7CFFF002348
S3150800A380A4F85030BDE8F883FEE7B4F85030102B37
S3150800A39006D14A4649462046FFF7C0FFA4F8508032
S3150800A3A0B4F850305A1CA4F85020234416F8010B70
S3150800A3B01A7C50401874D1E72DE9F04F1D4685B038
S3150800A3C09DF8383091460293C36C826C2B449342B5
S3150800A3D00446884629D86FF0200B0F46CA466B18E4
S3150800A3E0019300F12003ABEB000B0393019B9F4203
S3150800A3F01CD1E36C1D44A36CE5649D426CD3B4F890
S3150800A40050302BB104F1100211462046FFF786FFA3
S3150800A410002194F8542002F121002044C2F10F02D1
S3150800A42005B0BDE8F04F40F003B8FEE7B4F8522097
S3150800A430102A16D104F13000024694F854600BEB4A
S3150800A44000018E4206DA10F8011D0131C9B2017009
S3150800A4500029F4D020460399FFF760FF0022A4F8EC
S3150800A4605220029B43BB3E78B9F1000F0AD0B4F8DC
S3150800A4705220511CA4F85210224492F830207240FF
S3150800A4808AF80020B4F85020102A08D104F11002E6
S3150800A49011462046FFF742FF0022A4F85020B4F8E0
S3150800A4A050200137511CA4F850102244117C0AF19F
S3150800A4B0010A4E40167499E7B4F852209AF80060DB
S3150800A4C0511CA4F85210224492F830205640B8F194
S3150800A4D0000FD7D03E70D5E705B0BDE8F08F38B588
S3150800A4E0D0E912329A4204460D4600D0FEE700F142
S3150800A4F0300200F12001FFF711FF002304F10F02DB
S3150800A50094F855108B4200DB38BD12F8011F92F8FB
S3150800A51020004140E9540133F2E7006808B528B144
S3150800A520034923F0A3FD0CF0F4F900B1FEE708BDDA
S3150800A53009000002006808B528B121B126F09EFA84
S3150800A5400CF0E7F900B1FEE708BD10B586B0044681
S3150800A550ADF80630084603AB11460DF10602FDF7C5
S3150800A56053FDBDF810200AB906B010BD2046039960
S3150800A570FFF7E0FF03A90DF106002FF013FBF0E744
S3150800A580002307B50068019330B1202201AB23F000
S3150800A5909BFD0CF0BEF900B1FEE703B05DF804FBC5
S3150800A5A01F299DBF0068C84000F0010000207047C1
S3150800A5B010B50B780446FF2B04BF0A230B700B78E3
S3150800A5C00A460133D9B21A29117001D9172010BDCC
S3150800A5D02046FFF7E5FF10B90131C9B2F3E70020BD
S3150800A5E0F5E7FF2337B5054600248DF807302846DA
S3150800A5F00DF10701FFF7DCFF234601340028F6D0EA
S3150800A600D8B203B030BDFF2337B58DF807300368DD
S3150800A61005467BB1FFF7E5FF014600B9FEE70020D6
S3150800A620FEF798FB0DF1070104462846FFF7C0FF21
S3150800A63000B91CB99DF8070003B030BD28460DF1D6
S3150800A6400701013CFFF7B4FFE4B2F1E7837F024656
S3150800A65013F00F0004D0108C022894BF00200120AC
S3150800A6607047012938B50446456832D12EF0BAF844
S3150800A670237E9A0702D5642828BF64205B0715D570
S3150800A680A022214BB0F57A7FB3F87E3E28BF4FF45F
S3150800A6907A70534303F5FA73B3F57A7F06D34FF40A
S3150800A6A07A72B3FBF2F3984228BF1846637E0F2BE3
S3150800A6B002D9BC2828BFBC20A36833F07C4204D04A
S3150800A6C0C3F31903984228BF1846002808BF0A2072
S3150800A6D06060FDF7C1FA6369014604F10C0098420F
S3150800A6E00DD06268AA420DD0531A24680A3BE34289
S3150800A6F04CBF0A222146BDE83840FEF709BE62680B
S3150800A7002160F8E738BD00BFD02F002010B531B161
S3150800A71009291CD96FF07C43994228BF194600F5D0
S3150800A7200052D2F8CC30C3F319048C420DD061F331
S3150800A7301903C2F8CC3092F8DC30DB0705D500F5F2
S3150800A740035001210430FFF78CFF002010BD0720BD
S3150800A750FCE7038910B58B420C4605D1BDE81040CD
S3150800A7604FF400402EF04EBB01814FF400402EF00E
S3150800A7700AFB2046BDE810402DF0A4BF38B500F509
S3150800A780005393F8E150044685B900F5F2501C30A1
S3150800A790FFF7DFFF04F5EA50183011F007FB04F560
S3150800A7A0EC50043011F002FB284638BD0D25FBE7B6
S3150800A7B010B5027804465107437817D4120701D515
S3150800A7C0F3B110BD002BFCD1B0F8A030FBB190F866
S3150800A7D03630082B1CBF082380F83630838E1906BE
S3150800A7E0EFD4BDE81040343010F024BF002BE8D178
S3150800A7F04388D80504D5E16904F1D000FEF77EFD4B
S3150800A800E17A04F13400BDE8104034F06CBF90F8EA
S3150800A8104630DA070AD4838EDB0507D594F8363036
S3150800A820012BCED0012384F83630CAE72FF072FA0E
S3150800A8300028C6D1F2E7012342888B4013434380A0
S3150800A840437813B9C830FEF73CBD704770B5057834
S3150800A850ED071DD54578012D1CD0468816F0020F48
S3150800A86018D1022D16D0C6F38005760712D4836256
S3150800A870049B4282C362FF230374C368002908BF8E
S3150800A88019460B4043610221FFF7D5FF284670BDE4
S3150800A8900D20FCE70520FAE770B50578ED0722D507
S3150800A8A04578012D21D0468816F0020F1DD1022DBC
S3150800A8B01BD0C6F38005760717D48362049B002A4B
S3150800A8C0C3624FF0FF030374C36808BF4FF4967260
S3150800A8D0002908BF19460B40428243610121FFF750
S3150800A8E0AAFF284670BD0D20FCE70520FAE71FB52C
S3150800A8F090F820300446990703F001020DD5418CE3
S3150800A90059B1EAB943F0010380F82030FCF754F94D
S3150800A910204604B0BDE810404AE78AB1002294F800
S3150800A920203011466FF3000384F8203002AB009301
S3150800A93004F134004FF6FE73CDE9022210F03EFF13
S3150800A94004B010BD024608B569B902F58052B2F8DE
S3150800A9507E3E00F5F2501C301BB1A2F87E1EFFF7B2
S3150800A960C6FF002008BDA020B1FBF0F300FB1310C2
S3150800A970F0B94FF6FF70834228BF0346B1F51B5F57
S3150800A9809BB215D302F5F25002F58052B2F87E1E3C
S3150800A9901C308B42E5D0A2F87E3EB1FA81F2B3FABA
S3150800A9A083F352095B099A42D9D1FCF705F9D8E72E
S3150800A9B00720D7E72DE9F04FA84C042189B04FF4BA
S3150800A9C07A70E56CFEF7D3F9291804F14800FEF70A
S3150800A9D095FC636CD8072ED5062204F5005696F822
S3150800A9E0C03002FB034303F50153203306F160022E
S3150800A9F0934240F0E48000254FF0060842F26009D1
S3150800AA0096F8C070BD42C0F0E080FDF725F9944D78
S3150800AA108046D5F8F41F04A834F0D8FE05F6F47974
S3150800AA200499002940F0DF80D5F8F43F1BB917B91F
S3150800AA3038462EF025FA636C990708D5894D95F89E
S3150800AA40E3309A0700F1E28001202EF019FA636CD0
S3150800AA505D0726D54FF00008834FD7F800370493D3
S3150800AA60049A002A40F0EC820125D7F804370493AB
S3150800AA70049A002A40F0EF8201254FF07809D7F8AA
S3150800AA800C370493049E002E40F0F282D7F808573C
S3150800AA90002D40F00983B8F1000F02D102202EF0F4
S3150800AAA0EFF9636C18070AD5002604A804968DF8F2
S3150800AAB0146013F04DFE049D002D40F02083636C56
S3150800AAC0990626D5684D95F8A9397BB1FDF7C4F8DE
S3150800AAD0D5F8AC3903F5C333A0331B1A002BBEBF18
S3150800AAE095F8CA3943F0010385F8CA3995F8D31998
S3150800AAF095F8D229B5F8D039002940F03A83002ACA
S3150800AB0040F04983002B40F05283D5F8D00934F041
S3150800AB10F1FC636C5A0620D5534EB6F8883943B112
S3150800AB20013B9BB2A6F888391BB906F684101FF0BC
S3150800AB3061FDD6F884596DB1013DC6F884594DB901
S3150800AB40022028F04FFE494829461FF047FE2846AE
S3150800AB5028F0D0FF45481BF0BCFE636CDB0540F1CE
S3150800AB603B830020034605464149A1F2A466CA78FC
S3150800AB707AB1013AD2B2CA7032B1086806EB8302DA
S3150800AB80C2F8A406012001330135232D01F1040181
S3150800AB90EDD1002104EB830404F5B5540734222BC8
S3150800ABA004DC14F8042B002A40F01283002840F035
S3150800ABB01383082009B0BDE8F04F2EF061B911796A
S3150800ABC00632013902F8021C12E708FB056393F8FE
S3150800ABD064302BB918FB059020442FF037F80FE79F
S3150800ABE00135EDB20CE78B69A8EB0303B3F5FA6FF1
S3150800ABF008D34B7948465B0902BF336C013333648B
S3150800AC00FDF7DBFF04A8FDF72BF909E795F868338C
S3150800AC1013B1013B85F8683395F86A333BB1013BBC
S3150800AC20DBB285F86A3313B912481BF01AFD0E4ECB
S3150800AC3096F8607237B1013FFFB286F86072B7FACC
S3150800AC4087F77F0995F8E130042B00F29280DFE858
S3150800AC5003F0039013718E00FEE700BFD01F00209B
S3150800AC60D02F0020D03F0020D04F0020545900207C
S3150800AC7074360020B040002096F80C82002F4AD087
S3150800AC8095F86433434511D96FF0630095F92D1192
S3150800AC9016F04FF809281CD83C2303FB0848AE4E8B
S3150800ACA008F52A5808F10C08B04503D1AB4817F047
S3150800ACB03DFB12E0B37F03F00F03072B07D16FF0BC
S3150800ACC0630096F9251016F034F8092801D83C36A1
S3150800ACD0EAE70221A2481FF041FFD5F87C63A14BA1
S3150800ACE09E427FF4B4AEA6F525701BF01FFD9E4864
S3150800ACF09E4B9F49C5E9E0034FF6FF73A5F89033CD
S3150800AD00012385F89833FEF717F8C5F88803304607
S3150800AD10FFF760FA9BE6B8F1000F2AD095481CF0B9
S3150800AD2003FC95F86333834223D80121924817F030
S3150800AD3054FF09E096F80C32CBB18E481CF0F4FBB0
S3150800AD4095F863339842F0D29FB196F80C2295F89D
S3150800AD5065339A4203D90321874817F03EFF804896
S3150800AD601BF08EFC28B97E4818F0E8F901E0002FA0
S3150800AD70F5D100230493052304A88DF814304FF069
S3150800AD80010813F0E5FCDDF81090B9F1000F33D196
S3150800AD903C2396F80C72DFF8C09103FB074707F5CA
S3150800ADA02A570C37A9F1040AA9F5146B4F4575D132
S3150800ADB00023724911F8012F013350B20028C8BF89
S3150800ADC002F1FF32DBB2C8BF0A703F2BF2D195F809
S3150800ADD0E130042B0DD167481CF0A6FB092808D9D9
S3150800ADE096F85C32013386F85C32FCF735FFC6F814
S3150800ADF0580228F08FFB2AE699F81E3003F00F0355
S3150800AE00072B39D808FA03F313F0C60F06D113F047
S3150800AE10110F2DD113F0280706D0FEE74FF47A72EA
S3150800AE20D9F8603002FB03F709F1480013F012FB6A
S3150800AE3098B1FCF711FF4FF47A72D9F85430C01A5A
S3150800AE40D9F84C305343984207D399F848306FF3F2
S3150800AE50C71389F848302EF030FEFCF7FDFED9F806
S3150800AE600830C01AB84209D349463D481CF0D6FCFA
S3150800AE7004A813F04DFC86E70027D5E795F8E1000E
S3150800AE8034F092FA0028F3D099F81E3003F00F0335
S3150800AE90012BEDD1484637F01FFAE9E7B9F81C103F
S3150800AEA0B5F8E420914206D1FCF7D6FEC9F80800A9
S3150800AEB009F13C097AE7FCF7CFFED9F80820304BB0
S3150800AEC0A0EB0208B9F83A20012A82BF02F57F42B0
S3150800AED0FE32A9F83A2099F81E20984502F00F028A
S3150800AEE052D999F83A10072A6FF3000189F83A10EF
S3150800AEF050D195F8E120022A07D101211D481CF0FE
S3150800AF0025FB95F86923824266D3494604A812F0C0
S3150800AF10AFFB1A211B4804AA17F0D4FA40B999F8CE
S3150800AF20392012F00C0F04BF42F0030289F83920C9
S3150800AF3099F8392093072DD0D11C61F3010289F8BD
S3150800AF4039204FF47A702DF0CFFD494602460D4858
S3150800AF5017F0F5FA1EE000BF5C4A00208042002088
S3150800AF60B04000204443002090B20800F09C09003D
S3150800AF70F19C0900584A0020D0410020E7510020E2
S3150800AF809F8601001C410020072A03D195F8E1207D
S3150800AF90022A32D199F81E2002F00F02052A2CD176
S3150800AFA0494604A812F064FB1A21584604AA17F069
S3150800AFB089FA10BB99F8392012F00C0F18D099F8B5
S3150800AFC03910C1F38102033202F0030262F38301EE
S3150800AFD089F83910B2B90BE0814A9045DAD9494661
S3150800AFE004A812F045FB1A217E4804AA17F0C5FAF0
S3150800AFF049467D481CF012FC5AE799F8392012F0A8
S3150800B0000C0FDCD195F8E120042A7FF451AF5046A5
S3150800B01099F838101CF031FA00287FF449AF4846F1
S3150800B0202EF018FC0F287FF643AF704A90457FF63E
S3150800B0303FAFB9F81C106E48890A1CF065FB37E764
S3150800B040D37C04A83F2B82BFC033D3744FF00108CA
S3150800B05013F0A9F904E5938A33B1013B9BB29382B5
S3150800B06003B915764FF0010804A813F09CF9FFE41C
S3150800B070B38A53B1013B9BB2B38223B9737E43B9FA
S3150800B0807576A6F814904FF0010804A813F08BF90A
S3150800B090F8E4F28A53080F2B38BF0F239A42F2D0EE
S3150800B0A0F3827823B382EEE7AB8A03B9FEE7013B66
S3150800B0B09BB2AB82FBB9EB8A4FF00108AB825B000F
S3150800B0C09BB2782B28BF782331464A48EB82A5F8ED
S3150800B0D0188034F09DFA2946474813F04DF90221A5
S3150800B0E028462FF09BFB002E3FF4D0AC304613F0D9
S3150800B0F031F90546CCE42E464FF00108F6E7AB7F5A
S3150800B1007F2B32D8B5F8A8207AB3B5F8AA30013320
S3150800B1109BB29A42A5F8AA3027D8EB8F0296C3F3BA
S3150800B1200D03FBB90121354A022031F037FE0146ED
S3150800B13002A812F03BF9029FA7B1314B314AEB1A2C
S3150800B1401B11534338460DF10601ADF80630FEF7DC
S3150800B1508BFF38B9CDE9020703A832F0E1F8039866
S3150800B16033F0B8FD029833F0B5FD04A813F0D0FA11
S3150800B170A1E40139C9B285F8D31900297FF4BFAC17
S3150800B18082B923B1013B9BB2A5F8D039B3B11E48A9
S3150800B190FEF797F8B9E4013AD2B285F8D229002A1F
S3150800B1A0EFD0AFE4013AD2B285F8D229E9E7013BFC
S3150800B1B09BB2A5F8D039002B7FF4A7AC95F8A9392E
S3150800B1C013B1012385F8A93910480FF043FDDEE7CE
S3150800B1D004F8041C0133E2E409B0BDE8F08F00BFAF
S3150800B1E0EF4902001C410020B04000208F5F01009B
S3150800B1F0584A0020D8560020DC560020B0F604082D
S3150800B20078430020A38B2EBA60590020A659002047
S3150800B21010B504460C30FFF7C3F900B3A27A8A4288
S3150800B22005D14FF480402DF0EDFD002010BD4FF400
S3150800B2308040A1722DF0A7FD04F5B4700FF00AFD49
S3150800B24023789B06F1D4A37AE37294F8213013B9D4
S3150800B2502046FBF7B1FC2046FFF7AAFAE5E70720E8
S3150800B260E4E738B500F5005393F8E130044693B99E
S3150800B27000F5F2501C30FFF7CBFF054648B904F538
S3150800B280EA50183010F092FD04F5EC50043010F036
S3150800B2908DFD284638BD0D25FBE72DE9F04F4023E7
S3150800B2A01446ADF5757D83460E46ADF8D031606817
S3150800B2B0FF2334AA74A911F056FE002840F0F7803F
S3150800B2C058467F4934AAFBF7E3FD002E40F0F0808C
S3150800B2D0059613AD00214FF040086268A068C5E9DD
S3150800B2E00012BDF81430A5F80880002800F0E080A8
S3150800B2F0228A0DEB0807ADF834200A2203920C22A5
S3150800B300CDE900520297628A0DA911F01BFF0028A9
S3150800B31040F0CE80D4F808A00DA95046BDF8349068
S3150800B3208DF8218011F0C0FD002840F0C180A9F1F8
S3150800B3300A039AB206923A89BDF8341052BA92B202
S3150800B34012FA83F30A33994200F2B280ADF83490C8
S3150800B3500DF190094A4650460DF121030DA911F049
S3150800B360DAFD0790002840F0A3803A89069B52BA76
S3150800B370BAF80A1013FA82F20A328A4200F2988060
S3150800B3804A4658464F49FBF783FDFF22ADF86C2025
S3150800B3904FF4007234AB1A9374AB2193ADF888203E
S3150800B3A0079B6268CDE90D33C7E90032ADF83C303A
S3150800B3B0A368A7F8088053B3238AB4F81280ADF8B7
S3150800B3C02230B8F1000F22D03A46A0680DF12201CA
S3150800B3D011F01BFED8B90A2300930C22A0680AAB09
S3150800B3E00DF1220111F0EDFC172854D078B9BDF8FB
S3150800B3F02230A26868812A6028462B81AB81CDF865
S3150800B400249011F012FD824640B117283BD05846C9
S3150800B410FBF720FC059B013305935BE701222846D1
S3150800B42009A911F072FC70B3BDF82230A2680DF1BB
S3150800B4306E00ADF83C30CDE90DA2CDF85CA0CDF894
S3150800B44080A0CDF88CA08DF88AA00CF0C7FB1A9BBB
S3150800B45033BB0121204617AB0DAA12F07CF8002851
S3150800B460D5D10121204617AB0DAA11F0BEFE002842
S3150800B470CDD1239B0BB9ADF888300421584617AABD
S3150800B480FCF74EF9C3E7BDF83030BDF822205BBAA9
S3150800B4901344ADF8223008F1FF381FFA88F890E710
S3150800B4A0BDF86C20002AD4D083F800A0D1E7064660
S3150800B4B0304628F023FC0DF5757DBDE8F08F00BFFA
S3150800B4C060F40408E2C9040813460A460146184609
S3150800B4D0E3E62DE9F04F40231446ADF5757D74ADCE
S3150800B4E007460E468DF80F302B80294660680DF109
S3150800B4F00F0314AA11F00FFD38B10646304628F09E
