S02500006275696C642F64656275672F6F742D6E63702D6674642D626C652D7263702E733337CC
S31508006000081200204D9B00087D0C03086140060815
S31508006010015A0808850C03088D0C03086140060818
S31508006020614006086140060861400608159A090895
S31508006030910C030818D10908B9990908C3B90908C0
S315080060406140060861400608614006086140060886
S315080060506140060861400608614006086140060876
S315080060606140060861400608614006086140060866
S31508006070614006086140060861400608858B0008ED
S315080060806140060861400608614006086140060846
S315080060906140060861400608614006086140060836
S315080060A06140060861400608614006086140060826
S315080060B06140060861400608614006086140060816
S315080060C0614006086140060861400608C552030893
S315080060D06140060861400608614006082116030863
S315080060E00116030861400608614006086140060873
S315080060F061400608A9060608710F0608618F090897
S315080061005D8F0908F1060608778F0908658F090863
S31508006110410F0608698F0908351A0608B10F0608DF
S3150800612061400608614006086140060861400608A5
S315080061306140060861400608614006086140060895
S315080061406140060861400608614006086140060885
S315080061506140060861400608614006086140060875
S315080061606140060861400608614006086140060865
S315080061706140060861400608614006086140060855
S31508006180614006087D40040861400608CFCC09082E
S31508006190FDF005086140060845ED050879ED050896
S315080061A06140060861400608614006086140060825
S309080061B0614006082E
S315080061C0F0B5114A114C124E00F00105E3695F075C
S315080061D013D40DB9334213D103EA00078F4207D10E
S315080061E00B4A1A40002A0CBF00206FF00100F0BDD0
S315080061F0013AEBD16FF00200F9E74FF0FF30F6E70E
S315080062006FF00100F3E700BF809698000000035086
S31508006210020001000B4B70B5D96911F480310DD11C
S3150800622001244FF48072084E084DF46020462C6411
S315080062301A61FFF7C5FF3464EC6070BD6FF00100AA
S31508006240FBE700BF00000350001003500020035076
S315080062504FF4803238B50E4B0E4C9A66E56941F616
S31508006260713315400122E3630B4B0021DA600223E8
S31508006270606121202361FFF7A3FF10B92120FFF7F2
S315080062809FFF0122054BDA600DB10023E36338BD99
S3150800629000900050000003500010035000200350E7
S315080062A070B5134C6061E3695B071ED40E4656F859
S315080062B0043B8D18A361AE420BD104230021212093
S315080062C02361FFF77DFF58B9BDE870402120FFF72D
S315080062D077BF08210846FFF773FF10B1042323612F
S315080062E070BD56F8043BA361E5E74FF0FF30F7E7CA
S315080062F0000003502DE9F84315464FF48032184B39
S3150800630089469A6603F51C33DF690646174041F647
S315080063107132DA63012203F58053DFF84C80DA60C4
S3150800632055B9284601220F4BDA601FB10022A3F5A2
S315080063300053DA63BDE8F88306F5005404EA080456
S31508006340A41BAC4228BF2C46494622463046FFF7D6
S31508006350A7FF0028E6D12644A1442D1BE0E700BF8D
S31508006360009000500020035000E0FFFF00000000EE
S31508006370000000000000000000000000000000000F
S31508006380013800D0FCE770472DE9F3411E461C4B47
S31508006390044683424FF000038B4115460AD216A3E2
S315080063A0D3E9002344F0AEF91649144602462846B6
S315080063B063F0A6FF144B4EF66021B4FBF3F203FB21
S315080063C01244B4FBF1F34FF47A7801FB1344B4FB9F
S315080063D0F8F728460D49009763F092FF46B128461C
S315080063E008FB17420A4902B0BDE8F04163F088BFCE
S315080063F002B0BDE8F08100BF005C26050000000081
S31508006400FF5B2605D00D0A0880EE3600D60D0A0871
S31508006410F9090A080000000037B57DF0E5FB0446D7
S3150800642000286ED13A4B1A889B78ADF804208DF86F
S31508006430063028F019FE29F02DFB29F08BFA0546BF
S31508006440344B036029F012FD284629F01FFC00B9D9
S31508006450FEE72DA3D3E900234FF0FF314FF0FF30BD
S3150800646028F00AFE29F07AFA214629F0D3FA7DF0B7
S31508006470BEFB01A829F0CCFB044600B1FEE7264B7B
S31508006480264A98801860264B98801A60254B264A1B
S3150800649098621A60254A98806FF06300DA6003F004
S315080064A073FC0B2029F0A8FA29F006FB29F04CFA10
S315080064B000B9FEE72FF046FA20467DF05EFD08217A
S315080064C008467DF061FD00B1FEE77DF054FD29F038
S315080064D091F97DF09FFC102115487FF0E8FA00B984
S315080064E0FEE7144912487FF0F4FA00B9FEE71021D6
S315080064F08C20114A2EF0B2FF00B1FEE70F485FF07C
S3150800650015FB03B030BD00BF0AE020FFE203000020
S31508006510C3270A08AD3D08081083002095D200203D
S31508006520E0820020B082002015D20020A082002040
S31508006530E0AB002005C80908D0AB0020F8260A08F9
S315080065402DE9F04389B07DF040FB00B9FEE75C4DCC
S315080065502B6803B9FEE701229B8811460DF10B0053
S315080065608DF80B3029F00AFB9DF80B102B680239C1
S315080065700022186889B229F001FB002305930793C6
S31508006580504B05AE06932B6893F82C208DF81420F3
S315080065901B681C7814F0200414D07DF0F0FC002849
S315080065A05CD07DF0ECFC43F001FE0B46024640A1B0
S315080065B0D1E9000143F09EFF44F084F8079B184494
S315080065C00124079029F01EFB9DF80B30002848D0BF
S315080065D0981DC00043F0FAFD37A3D3E9002343F022
S315080065E05FFE8946804629F00DFB43F0DFFD0B462A
S315080065F002464946404643F07DFF44F063F8079B50
S31508006600184407907DF0E8FA38B129F061FA0020BD
S315080066107DF0DEFA00207DF0E2FA29684B6963BB5B
S315080066207DF0F6FA10B3079B274F03F5FA73079325
S315080066302B681B7EBB7029F045FAF870286833462C
S315080066403A462146807929F07BFA58B34FF48051AF
S31508006650002096F0FCF82AF077FA23E00798C03075
S31508006660AEE70798063300EB4310CAE72B683246B5
S315080066702146987929F05AFAE7E7002296200492EB
S315080066800A691A44114BA2F59B729880039288797D
S3150800669003AA2146009629F061FA0028D6D10120DE
S315080066A07DF0C1FA09B0BDE8F08300BFAFF3008002
S315080066B00000000060E366410000000080842E416F
S315080066C0CCAB002020A10700F8E80020ECE8002069
S315080066D00348044B834202D0034B03B11847704763
S315080066E0D8EF0020D8EF002000000000064B07492D
S315080066F0C91A891048BF0131491003D0044B0BB1A0
S3150800670001481847704700BFD8EF0020D8EF00208F
S315080067100000000010B5064C237843B9FFF7D8FFF0
S31508006720044B13B10448AFF300800123237010BD56
S315080067306CCF002000000000C0A70A0808B5054B6A
S315080067401BB105490548AFF30080BDE80840FFF7CF
S31508006750CDBF00BF00000000889C0020C0A70A0823
S31508006760A3F5803A704700BF174B002B08BF134BA1
S315080067709D46FFF7F5FF00218B460F461348144A3E
S31508006780121A87F081FF0E4B002B00D098470D4B4D
S31508006790002B00D098470020002104000D000D486A
S315080067A0002802D00C48AFF3008044F05DF92000C1
S315080067B029007FF029F944F035F900BF00000800E8
S315080067C00000000000000000081200200812002047
S315080067D020D400200000000000000000F7B50446A1
S315080067E04BF0CAFD002846D1012303272376042649
S315080067F06FF08023E782236166757FF04BF9A080EE
S3150800680020464BF0E9FD0546B0BB1D484EF0F2FDAB
S3150800681045F0DAFF8AF05EF88AF018FB49F036FA96
S3150800682049F0ECFD8BF023FB89F0A9FB2A46394693
S3150800683030468AF04BF80DEB06008DF804504BF005
S31508006840BFFF394630464EF087F80A2046F0D4F99D
S3150800685000F0BCF800F048F946F096FC46F0D4FF84
S3150800686047F064FC47F054FC47F01CFB48F062F91B
S3150800687020465BF073FB0025284603B0F0BD00BF39
S315080068804EEA002008B546F0A1FB0222014B1A7019
S3150800689008BD00BF6DCF00200021024B02481970C9
S315080068A05CF0F0B96DCF0020A09C002010B5104C0C
S315080068B000220E21204600F0A5FD022120460D4AA1
S315080068C05CF08CF9002120460B4A5CF087F905211B
S315080068D020460A4A5CF082F903212046084A5CF001
S315080068E07DF92046BDE8104001215CF04CBA00BF96
S315080068F0A09C0020CF1F0608116A000885680008BA
S31508006900996800081FB500240146234606480094E6
S315080069100DF10E025CF0EEFA08B1ADF80E40BDF8C6
S315080069200E0004B010BD00BFA09C0020002307B5D0
S315080069300A460093014603485CF0C1FB03B05DF8C4
S3150800694004FB00BFA09C0020024B1878831E584207
S31508006950584170476DCF002010B5054C23782BB9E8
S31508006960012104485CF00FFA0123237010BD00BF13
S315080069706DCF0020A09C002008B5044C4FF0FF31D5
S31508006980206895F0E5F900F059F8F7E7089D00202A
S31508006990044B10B50446186895F0ADF82060002041
S315080069A010BD00BF049D002038B50025054C2068A1
S315080069B095F024FA2560044C206895F0AEF8256019
S315080069C038BD00BF089D0020049D002010B50C4C62
S315080069D0226852B10B4C216829B90B4A0B4895F02D
S315080069E035F8206040B1002009E01146012095F0F5
S315080069F05EF920600028EDD1FFF7D6FF012010BD13
S31508006A00089D0020049D00205CD0090879690008CB
S31508006A10014B186895F0CAB9089D002010B5064CB8
S31508006A200A4601B2206846F007FA20685BF0D5FAF4
S31508006A30BDE810405BF0D0BA0C9D002010B5FFF7FA
S31508006A4083FF18B9BDE81040FFF786BF5BF0C2FAAE
S31508006A5000281DDD214C2046FFF754FF80B218B9E7
S31508006A60BDE810405BF0B8BA23681D4C2278012AAD
S31508006A7007D0022A26D000210846FFF7CFFF0123B8
S31508006A8014E01A78012A04D0022A16D0002AF2D174
S31508006A9010BD021FDB7892B2934209D99B1A114A9C
S31508006AA09BB200211380FFF7B9FF02232370EFE79B
S31508006AB000220C4B1A800121DFE7421FB3F803308E
S31508006AC092B2E9E7074A13888342F4D9BDE8104031
S31508006AD01B1A00211380FFF7A1BF00BF0C9D0020E1
S31508006AE06ECF0020D8CE0020044A13782BB9012394
S31508006AF01370034A1370FFF7D9BE70476FCF002093
S31508006B006ECF0020C30742BF0122014B1A607047AF
S31508006B1020D4002038B50A4C236873B9094D2B6870
S31508006B20013304D12DF02EFE28607EF069FA2B6819
S31508006B30402B02BF044B1B682360206838BD00BF8A
S31508006B40109D0020A0E8002020D400204FF000422D
S31508006B50014B1A60704700BF20D4002070B5094E5B
S31508006B60094C4FF0FF31306895F0F2F895F0C4FE05
S31508006B7000232568236095F0BAFE28464EF0DEFA13
S31508006B80EFE700BF649D0020C49D0020044B10B5AC
S31508006B900446186894F0AFFF2060002010BD00BFBF
S31508006BA0C09D002070B5104D104C296849B1216868
S31508006BB029B90F4A0F4894F049FF206040B10020D8
S31508006BC010E001200C4A95F072F828600028EED1F2
S31508006BD00026286895F012F920682E6094F09DFF2B
S31508006BE00120266070BD00BF649D0020C09D002066
S31508006BF0BCD009085D6B0008ACD0090838B50A4D49
S31508006C0004462B6830EA03030CD095F075FE2B6812
S31508006C1023432B6095F06BFE044B1868BDE838409B
S31508006C2095F0C4B838BD00BFC49D0020649D0020FF
S31508006C3008B5044895F078FE87F0B0FBBDE8084033
S31508006C4000F008B8FC340A08014895F06DBE00BF8C
S31508006C50FC340A082DE9F0415D4C92B009AD94E880
S31508006C600F0085E80F000DAA174604F1100304F17A
S31508006C70200C164618685968083303C66345324619
S31508006C80F7D11868534B08A93060187995F047FE74
S31508006C90514895F049FE514895F046FE4FF48073E9
S31508006CA008984F49ADF83430814228BF01460C9701
S31508006CB07EF01AFA29460A904A482DF0CBFE494832
S31508006CC07EF0BAF947487EF0E0F946487EF0C9F901
S31508006CD0B4F82480012204216846ADF800807DF0CE
S31508006CE0BAFBE78C0022012101A8ADF804707DF0FB
S31508006CF0B2FB268D0122042102A8ADF808607DF0BA
S31508006D00AAFB658D0122042103A8374CADF80C5067
S31508006D107DF0A1FB354B4FF44870C4F8C8344FF0EA
S31508006D200213C4F8C434A3F58033C4F8CC341C2346
S31508006D30C4F8B4342EF03AFD07A8ADF81C502AF072
S31508006D404FFC14202EF032FD07A8ADF81C502AF08F
S31508006D5037FC23202EF02AFD07A8ADF81C502AF090
S31508006D603FFCB9211F487EF0B5F907A8ADF81C50BD
S31508006D702AF026FC002204A81146ADF810807DF002
S31508006D806AFB002205A81146ADF814707DF063FB76
S31508006D900122002106A8ADF818607DF05CFB0122EF
S31508006DA0002107A8ADF81C507DF055FB0D482DF0C5
S31508006DB017FE00230948C4F8B434C4F8C834C4F824
S31508006DC0C434C4F8CC3495F0B2FD12B0BDE8F081F5
S31508006DD0E0D0090828350A08FC340A0800350A08EC
S31508006DE0E070720000C0085000C0035002000300A3
S31508006DF01FB5124B01AC93E8070040F2011384E873
S31508006E00070001213D20ADF80C302CF029FC204666
S31508006E102CF0BEF8022100202CF0E6F80322084BDD
S31508006E201E2003F5005103F580534A619A612EF03E
S31508006E30A7FA2DF0A5FA04B010BD00BF0CD10908B9
S31508006E4000C000504FF000639B6A03F17842B2F528
S31508006E50C04F03D21968064A914203D00023037033
S31508006E6083607047012202709A689B694260F7E75F
S31508006E7007B0CD5E0020054B82B01B689AB262F35C
S31508006E800F001B0C63F31F4002B070470000002080
S31508006E901FB501238DF80430002301A8CDE902337C
S31508006EA0FFF7D0FF039B9B0204D505B05DF804EB02
S31508006EB0FFF79EBF034B044A1A6005B05DF804EB62
S31508006EC07EF06DB90000002002020FF030B52A4AA4
S31508006ED00446137885B01BB10223137005B030BD84
S31508006EE0CDE9013303930028F8D00125157095F0F4
S31508006EF003FD224B186056F0A1FA214B21495A6E20
S31508006F00E2619B6E23624FF480438B661E4B5A6880
S31508006F1062621E4A9A601A6E22605A6E62609A6EA1
S31508006F20A260D3F87021E2601A6C22615A6C626121
S31508006F309A6CA261164A106C1864506C5864926C6C
S31508006F409A644D661B6E180410D5124AD368D90781
S31508006F50FCD403AA02A901A85BF063F8019A0E4BB8
S31508006F601A66029A5A66039A9A66B7E70B4AD3686C
S31508006F70DB07FCD4EDE700BF71CF0020F09D0020B1
S31508006F8000800050009000500080004455CEAC00B0
S31508006F9000C0005400000440009000440000045063
S31508006FA070B51E4D04462E78012E02D001232B7093
S31508006FB070BD0028FCD05BF053F801300BD05BF0B5
S31508006FC04FF840F20113984205D0154B154A5E66F4
S31508006FD0D368D907FCD42268134B1A6662685A66C6
S31508006FE0A2689A66E268C3F8702122691A6462691F
S31508006FF05A64A2699A64626AD20744BF00229A60F8
S31508007000E2690A4B5A66226A9A6656F01FFA084BD4
S31508007010186895F06CFC0023C9E700BF71CF002003
S3150800702000900040000004400080004400800050AA
S31508007030F09D002038B54FF00064A36A03F178424A
S31508007040B2F5C04F1AD21A680E4B9A4216D10E4D97
S315080070502B7813F0FD0F02D00024204638BD0B48CC
S31508007060FFF734FFA36ADB69984704460748FFF72A
S3150800707097FF002CF1D101232B70EDE74FF48174B3
S31508007080EBE700BF07B0CD5E70CF0020C89D00209B
S3150800709070B505461446F9B1F2B11668864204BFC2
S315080070A00F4B136012684B684A61DAB222B923F0B3
S315080070B0FF0343F001034B602246284682F04FF84F
S315080070C060B9AE420AD1304633F0A4F93146206899
S315080070D0BDE8704085F053BE6FF0860070BD00BFF6
S315080070E0F000020010B1034A82F0ECB96FF0860096
S315080070F0704700BF0900800370B581624569044680
S3150800710095F0FAFB0646D5F80801214610305CF0E2
S31508007110ACFD304695F0EBFBD5F80821074902F19E
S3150800712018005CF07BFA4FF6FF72B5F868309342A8
S315080071301CBF0133A5F8683070BD00BF0F270608CD
S315080071402DE9F04786B081460C4690461E4692F0D9
S3150800715013FB022807D104F580534FF0FF31D3F80B
S31508007160980194F031FD414620685BF0BDFA019024
S31508007170002840F08180204601A95CF048FD0546BC
S31508007180002840D140F20113019F4FF0010ABB814C
S3150800719002237E727881F87387F85030386087F852
S315080071A00880642094F03AF84FF0FF33B8F1010FE5
S315080071B098BF2E467861019F88BF86F00806C7E902
S315080071C026332E4B88BFC6F3C00687F804610293A0
S315080071D0002607F1A00304935023C7E93F66C7F8C2
S315080071E0084102A80593CDF80CA094F0B0FC0199CB
S315080071F0C7F8F000D1F8F0309BB9204681F8503036
S315080072005CF015FD1A2592F0B7FA022805D104F5A7
S315080072108054D4F8980194F0FCFC284606B0BDE8E2
S31508007220F08701F184007DF06EF8019888307DF0D2
S315080072306AF801988C307DF066F8019890307DF0F8
S3150800724062F8019894307DF05EF8204601997DF049
S315080072505DF820460A497DF078F8019BC3F8F4608A
S3150800726095F04AFB019B89F80480C9F808A0C9F87B
S31508007270003095F03CFBC6E71225C4E768D109083B
S3150800728023230608022838B532D104295AD192F0A8
S3150800729073FA022806D12C4B4FF0FF31D3F8980128
S315080072A094F092FC294B002118685BF01DFA0446FD
S315080072B092F062FA022805D14FF0FF31D4F8F000B7
S315080072C094F082FC012384F8043192F055FA0228DE
S315080072D003D1D4F8F00094F09CFC92F04DFA022801
S315080072E030D1194BD3F89801BDE8384094F091BCD9
S315080072F0032827D1042925D192F03EFA022806D17F
S31508007300114B4FF0FF31D3F8980194F05DFC00253E
S315080073100E4B1C68002CE0D092F02EFA022805D1FC
S315080073204FF0FF31D4F8F00094F04EFCC4E93F5515
S3150800733092F022FA022803D1D4F8F00094F069FCFE
S315080073402468E7E738BD00BF80E6002080D6002025
S3150800735070B50D4695F0D0FA06466C6904F18C00B6
S315080073605CF068FC04F1300093F0F4FED4F80801F0
S31508007370294614305CF079FCD4F80821044902F156
S315080073802C005CF04BF93046BDE8704095F0AFBA7A
S31508007390832A060870B500240E4B0F4E1D78E3B2FB
S315080073A09D4206D800240C4EE3B29D4209D800201F
S315080073B006E056F823005CF07CFA01340028EED08B
S315080073C070BD56F8040B01F01BFC01340028EBD005
S315080073D0F6E700BFD4630A0868E9002070B5002400
S315080073E02046064B064E1D78E3B29D4200D870BD76
S315080073F056F823005CF0D9F90134F5E7D4630A0896
S3150800740068E90020134638B10E2907D80F2A05D88F
S315080074100A460349FFF794BE252070472120704786
S3150800742080D600202DE9F843344C0646002914BFBF
S315080074300F46274607F5805595F8181290469DF889
S315080074402090D1BB3946FFF77BFE0446B8B3122815
S3150800745006D01A2814BF044619242046BDE8F88326
S3150800746092F08AF9022805D14FF0FF31D5F8980134
S3150800747094F0AAFB414638685BF036F9044692F068
S315080074807BF9022805D14FF0FF31D4F8F00094F0CB
S315080074909BFB94F8506092F06FF9022803D1D4F858
S315080074A0F00094F0B6FB92F067F9022803D1D5F8FC
S315080074B0980194F0AEFB012E1ED00424CDE7356862
S315080074C03046012185F80C9085F80D905BF05BFC41
S315080074D0064608B1052804D16B7A43F010036B728F
S315080074E0BBE7D5F8F00094F0CAFB2946D5F80801A1
S315080074F05CF09DFB3446B0E72E24AEE780D600202C
S3150800750038B50468054694BB92F036F9022806D1C8
S31508007510204B4FF0FF31D3F8980194F055FB1E4BE2
S31508007520297918685BF0E0F80446F0B192F024F97E
S31508007530022805D14FF0FF31D4F8F00094F044FB4F
S3150800754094F8505092F018F9022803D1D4F8F000B4
S3150800755094F05FFB92F010F9022804D10D4BD3F892
S31508007560980194F056FB284638BD0546F2E792F096
S3150800757003F9022805D14FF0FF31D4F8F00094F052
S3150800758023FB94F8505092F0F7F80228EBD1D4F880
S31508007590F000E6E780E6002080D6002038B50468CB
S315080075A0054694BB92F0E8F8022806D1204B4FF026
S315080075B0FF31D3F8980194F007FB1E4B2979186818
S315080075C05BF092F80446F0B192F0D6F8022805D19D
S315080075D04FF0FF31D4F8F00094F0F6FA94F804511D
S315080075E092F0CAF8022803D1D4F8F00094F011FBFF
S315080075F092F0C2F8022804D10D4BD3F8980194F002
S3150800760008FB284638BD0546F2E792F0B5F8022889
S3150800761005D14FF0FF31D4F8F00094F0D5FA94F87C
S31508007620045192F0A9F80228EBD1D4F8F000E6E765
S3150800763080E6002080D6002070B504460D46164622
S3150800764092F09AF8022806D11A4B4FF0FF31D3F878
S31508007650980194F0B9FA184B214618685BF044F87B
S31508007660044620B392F088F8022805D14FF0FF317E
S31508007670D4F8F00094F0A8FA94F85030012B0ABF19
S31508007680C4E93F650225002592F076F8022803D161
S31508007690D4F8F00094F0BDFA92F06EF8022804D1FE
S315080076A0044BD3F8980194F0B4FA284670BD032524
S315080076B0F2E700BF80E6002080D60020F7B5036811
S315080076C005461B797F2B4FEA931706D895F014F9D0
S315080076D06C69064664B9304640E095F00DF96C6968
S315080076E006469CBB022FF6D128465CF018FBF2E74B
S315080076F095F8247037B1002185F824102846FFF73D
S31508007700FBFC12E094F850005AF0C9FFC8B12846AD
S315080077105CF005FB042808D1CDE900772B461B4A07
S31508007720616904F1300095F065FAD4F808319A6871
S31508007730002AD0D003F58053D3F8940194F036FB91
S31508007740C9E7637B332101336373D7E7032F03D07C
S3150800775028465CF0E4FAE8E7A37B23B903B0BDE862
S31508007760F04095F0C4B800212846A173FFF7C4FC81
S31508007770D4F89430002BD8D004F194005CF05AFA6F
S315080077800122014620465AF03DFECEE75173000815
S315080077902DE9F04F93B005465CF051F808B194F026
S315080077A0B7F97A4801F016FB0028F8D105F58E538B
S315080077B0183305F5805708934FF0FF31D7F8940131
S315080077C094F0C6FA97F818324BB128465BF09DFE3E
S315080077D028B10023089887F8183202F0CBF8D7F8B2
S315080077E0A0010EA903699847079090B90E9B1868DF
S315080077F097F8A43143BB0521B0F805205BF0F9FEE4
S3150800780020B10E9B1B681B78142B1DD00E985CF0BC
S3150800781086FA08985CF085FB01F02EFBD7F8A001E4
S3150800782083699847064638B1EB68002B40F03A83DF
S31508007830AB68002B40F065836B68002B40F04B84E7
S3150800784028465BF02CFFB7E70E9A13685978B3F809
S3150800785002800691197993897F294FEA9116059135
S3150800786098BF0026002B4AD1B8F1000318BF0123A0
S315080078700993D7F8A8310A33984528BF938191F020
S315080078807BFF022805D14FF0FF31D7F8980194F015
S315080078909BF9069928685AF027FF044688B391F0A1
S315080078A06BFF022805D14FF0FF31D4F8F00094F0B1
S315080078B08BF991F061FF022803D1D7F8980194F06B
S315080078C0A8F994F85030042B04D11EB93146204645
S315080078D05AF0AFFF94F8503018465AF0E0FE18B147
S315080078E0082B32D1022E20D00523009300232146EF
S315080078F0069AD4F808015AF052FE0E982FE0002393
S31508007900B6E791F039FF022803D1D7F8980194F029
S3150800791080F9022E3FF47AAF052300930023284608
S315080079201946069A5AF03BFE70E70E9B5C611B7F70
S3150800793083B9059B03F0070994F0DEFFD4F88C3071
S315080079400A907BB994F0D3FF04E00E9B16F0FD0F66
S315080079505C61ECD0099B0E98002B00F0F1805CF07E
S31508007960DEF99BE153F8303CE27B1B79C3F3021343
S31508007970591C1A4401F0070102F00702914207D880
S31508007980894501D3914507D90A98DBE7857200082E
S31508007990914501D98945D5D399459BBF09F1080970
S315080079A0A9EB0309A9EB03035FFA89F34FF0000972
S315080079B088BFDBB284F810900B9393F015FCD4E9DA
S315080079C00632C01ABA4B61EB02011A78002A71D046
S315080079D0C4E90801400840EAC1704908C4E90A0137
S315080079E083F800900520D4E90AA993F017FC82458C
S315080079F079F1000905D2052093F010FC0023A06256
S31508007A00E362D4E90A324FEA82094FEA830B49EA6C
S31508007A10937941F28830D4E908231BEB020B49EB32
S31508007A20030993F0FBFB0023584573EB090304F1A4
S31508007A30300A76D241F2883093F0F0FB6061504606
S31508007A4093F088FB4FF0010A04F18C0948465CF074
S31508007A50F1F8817C002970D1FFF74EFB637B0B9A06
S31508007A6001336373E37B013BE373079B013307939E
S31508007A709DF81C309342E9D30A9894F038FF04F134
S31508007A80900AD4F89030002B3FF464AF637B002B48
S31508007A903FF460AF94F030FF814650465CF0CAF878
S31508007AA08346484694F023FF0022594620465AF05A
S31508007AB0A9FCE6E7D4E9083A83427AEB0102D4E95D
S31508007AC00A294FEA920242EA8972B4BFA0EB030C74
S31508007AD0A3EB000C4FEA990912EB020E49EB090BCE
S31508007AE04FEA9C0C1EEB020E49EB0B0B1EEB0C022D
S31508007AF04FF0070C4FEAD3034BF1000B43EA4A73E6
S31508007B00C4E90A2BA3FB0C234FEADA0A0CFB0A3357
S31508007B10C00840EA4170121843EBD103C4E90823B0
S31508007B2060E7052093F07AFB834579F1000901D2D5
S31508007B30052081E7C4F814B081E780F824A08DE712
S31508007B40B8F1000F0CD04368002B3FF408AF027F52
S31508007B5042B9B8F1020F2AD80622E37A0092C6E69D
S31508007B60027F7AB1E37A0092D4F808012146069A90
S31508007B705AF015FD00230E9803775CF0D0F8B8F19B
S31508007B80000FE6D14FF00009DDF83880002E40F0EE
S31508007B90D380CDE90F661196627AD4F80801D10729
S31508007BA0E37AADF836901BD5227A062125E00E9B9E
S31508007BB0A8F1020858681FFA88F910FA88F898F8A0
S31508007BC0012010F80930494643EA02225BF011FD0C
S31508007BD00028D9D1002E7FF490AE0122E37ABDE7C2
S31508007BE0059AC2F30212934211D0591E8A420AD04C
S31508007BF00BB9072A07D00221227A009121465AF0AA
S31508007C00CEFC4046ABE620465AF04FFDF9E7059A0A
S31508007C1012070FD4414620460DF136025AF0FFFCF2
S31508007C20002847D00421E37A227A0091D4F8080183
S31508007C302146E4E7227A002AB7D1414620460DF1CB
S31508007C4036025AF0ECFC0028ECD10FABD4F8080148
S31508007C50029310AB019311AB009300F58E50BDF85B
S31508007C603630D8F804200121183001F0D5FE8146B7
S31508007C70D8F80410D4F808015BF03FFF4046C8F86E
S31508007C8004605CF04CF8E37A2046013303F00703FE
S31508007C90E3725AF00AFDB9F1000F39D091F06CFD84
S31508007CA002287FF4B6ADD4F8F00093F0B2FFB0E541
S31508007CB05FEA00204146BDF83630D4F8080104F1E1
S31508007CC084025CF09AF878B10321E37A227A00916B
S31508007CD0D4F8080121465AF062FC40465CF01FF8C9
S31508007CE0204601F02BFCD9E7D4F8F40008B194F04B
S31508007CF05DF8E36D43B9E37A2046013303F00703E1
S31508007D00E3725AF0D2FCC9E7216E207A9847F2E767
S31508007D100F9B20460093BDF84020112311995AF075
S31508007D20AAFB0028BAD0A66D002EB7D033230F9A27
S31508007D301199207AB047B1E7022E3AD1059BC3F3D1
S31508007D400113012B7FF45DAFD8F804301B78013B93
S31508007D50042B16D801A252F823F000BF717D000843
S31508007D60037C0008037C0008A97D00089F7D0008A5
S31508007D70D4F88C30002B3FF444AF20465AF094FDDB
S31508007D803FE740465BF0CBFF0C2604F1300093F04A
S31508007D90E1F9204684F850605AF05EFE7EE74046D8
S31508007DA05BF0BDFF0A26F0E740465BF0B8FF0B26FE
S31508007DB0EBE70023CDE90F331193627A91077FF53C
S31508007DC020AF059B13F0370321D153073FF519AFB1
S31508007DD0B8F80C30BBB14B464146D4F8080104F15B
S31508007DE088025CF00AF800287FF40BAFE36E13B143
S31508007DF0216F207A9847D4F8F40000283FF44EAF54
S31508007E0093F0D4FF4AE740465BF089FFEEE7042B80
S31508007E1036D1267A002E31D111ABD4F80801029357
S31508007E2010AB01930FAB009300F58E504B463146CD
S31508007E30D8F80420183001F0EFFDF0B9119B204660
S31508007E400093BDF8402005230F995AF014FB064607
S31508007E5040465BF064FF0F9900293FF41FAF109B63
S31508007E60002B3FF41BAF002E3FF418AF666E002EB2
S31508007E703FF414AF3323119A5BE70F960126E7E721
S31508007E80312B7FF4BEAE40465BF049FF227A002ACA
S31508007E907FF404AF628109231146204600925AF006
S31508007EA0EAFAFBE600F0BAFF00F0FB0001287FF4CF
S31508007EB0BFAC94F021FD804605F10C005BF0BAFEDC
S31508007EC00446404694F013FD002C3FF4B1AC237CE5
S31508007ED04FEA931A7F2BA36898BF4FF0000AE3B9BD
S31508007EE0214628465BF0C3FDC0B194F005FD214646
S31508007EF0064605F108005BF0C6FE304694F0F7FC2E
S31508007F009AE494F0F9FC804605F108005BF092FECD
S31508007F100446404694F0EBFCD9E70026B4F80C80FA
S31508007F20B8F1000F03D008F102081FFA88F8BAF171
S31508007F30000F1AD191F020FC022806D163694FF090
S31508007F40FF31D3F8F00093F03FFE6369227CDB7AB9
S31508007F5022F007021343237491F00EFC022804D181
S31508007F606369D3F8F00093F054FE217CD4F814B07A
S31508007F707F29A289A36832D88AB333B14FF00009A2
S31508007F8008F108081FFA88F82DE091F0F5FB022899
S31508007F9005D14FF0FF31DBF8F00093F015FE9BF8A2
S31508007FA0049191F0E9FB022803D1DBF8F00093F085
S31508007FB030FEB9F1000F12D000F030FF00F0FB00E0
S31508007FC00128DDD0216828465BF0A7FD0023236041
S31508007FD094F092FC2146064605F10C008BE7A3684F
S31508007FE0002BCBD199460122237C617C0092206824
S31508007FF042465BF0AEFBB9F1000F3FD0284604F1CC
S3150800800008015BF06FFE064630B1284621685BF032
S3150800801084FD002323600FE44FF00808236893F8D3
S31508008020049029F007021A71CDF80880A368052282
S315080080300193A389009363682168606901F0B0F928
S31508008040216809F007020B79814623F007031343D9
S315080080500B7158B1A16828465BF055FE2846216881
S31508008060A6605BF05AFD2660FFF7E6BB4346A268AA
S31508008070A18960685BF0A8FA4E46E08194F03CFC62
S315080080808046D7F8A00121464369984768B121463A
S3150800809005F108005BF0F7FD2EB1284621685BF074
S315080080A03CFD00232360404628E760690028FAD093
S315080080B0BAF1000FF7D121468C305BF0D6FD646922
S315080080C0E37B0133E373237C002BECD193F08CF82C
S315080080D0C4E90601E7E794F00FFC05F10408064633
S315080080E040467CF01EF90446304694F000FC91F0B8
S315080080F043FB0228A4F1040605D14FF0FF31D6F858
S31508008100F00093F061FD96F85030022B07D1D6F8AF
S31508008110F49030465AF022F9B9F1000F12D094F0D3
S31508008120EBFB814640467CF0FCF80446484694F052
S31508008130DEFB91F021FB02283AD1D6F8F00093F045
S3150800814068FD35E00028EAD006F13000D6F8084187
S3150800815093F000F886F8509091F00EFB022807D1AC
S3150800816004F580534FF0FF31D3F8980193F02CFDB6
S31508008170314620467CF0DDF891F0FEFA022805D15A
S3150800818004F58053D3F8980193F043FDD6F8F00030
S3150800819093F075FD314620465BF049FD94F0ACFB43
S315080081A0064640467CF0BDF80446304694F09FFBF0
S315080081B0002C9CD1FFF744BB10B594F09DFB064BF1
S315080081C01C7824B1054B1C88003C18BF012494F088
S315080081D08EFB204610BD00BF60EA0020DCCE0020E2
S315080081E02DE9F04385B094F087FB204F204C0646D6
S315080081F0386892F0C5FD23782BB1304605B0BDE846
S31508008200F04394F074BB1B4B03A918685BF040FC61
S31508008210814638B101232370304694F068FB05B0D7
S31508008220BDE8F083144B154D1C880146013C10220D
S315080082302846A4B2DDF80C80C4F30A0486F024FAB2
S315080082402A680F4B2401134044F044741C430D4B19
S315080082502C60C5E901380C4B2A461D60CDF8009004
S315080082600A4B0B49386829F07BFAD5E7B49E0020FB
S3150800827083CF0020B89E0020DACE0020709E002012
S315080082800F80EFFC24000A506C9E0020158700081A
S31508008290A09E002010B594F02FFB084B04461A78D0
S315080082A032B1074A12681AB100221A70FFF798FF0E
S315080082B02046BDE8104094F01ABB00BF83CF0020CB
S315080082C0189E00202DE9F04F364B561AB6B20D46C9
S315080082D01446DFF8F09087B01E8078B9324B05A9AE
S315080082E018685BF0D5FB50B1D9F8000092F048FD4C
S315080082F001222E4B1A7007B0BDE8F08F0590059B3A
S31508008300B4F5006F2A4FDFF8C0A0DFF8C08003EB92
S31508008310050B1BD810220021384686F0B5F9731EC6
S31508008320C3F30A031B0143F0447303EA0A03C7E9CC
S315080083300038C7F808B000231E4A009312681E4B7F
S315080083401E49D9F8000029F00BFAD4E7C5F5FF65F0
S3150800835007350D2200213846ADB203932D0186F06C
S3150800836093F9174A45F040752A40C7E900281322B1
S31508008370FA6010220021B818C7F808B086F084F908
S315080083806FF40063E218C2F30A02039B120142F07B
S31508008390447202EA0A0203F50063C7E90428BB61CE
S315080083A0C9E700BFDACE0020B89E002083CF0020A0
S315080083B0709E00206C9E002015870008A09E002055
S315080083C0F07F0003B49E0020F07F100324000A50BB
S315080083D02DE9F74F94F090FA5C4B80461B682C2BDE
S315080083E0A3F12C0705D194F082FA1B2003B0BDE84F
S315080083F0F08F53F82C9CB9F1000F00F0A480BD89CA
S31508008400534CDFF870A1534E002D00F093800D22D7
S315080084100021204686F038F9C4E900A94FF013096F
S31508008420B5F5006FA660C4F80C9055D80D2200214A
S3150800843004F11000D7F804A0013D86F025F9464A54
S31508008440ADB242EA05120225444BC4E90669134057
S31508008450C4E9043AD7F80890B9F1000F12D02B46B0
S315080084604FEA031A04EB031310220021184686F07C
S315080084700BF93B4A013544F80A201322C0E9019654
S31508008480EDB2C26004EB051310220021184686F0EF
S31508008490FBF8344A4FEA05190E3744F80920C0E9B3
S315080084A00176002304EB0312917801336FF304116C
S315080084B09170DAB2AA42F5D900242B4B2B481C70CE
S315080084C000942346224A2A49006829F049F9404679
S315080084D094F00DFA204689E7B5F5805F25D8D7F8D8
S315080084E004A00D220021DFF874B004F1100086F014
S315080084F0CBF80D22002104F12000C4E904BAC4E92E
S31508008500066986F0C1F86FF400631D44124BADB2DC
S3150800851043EA051303EA0B0323620AF500630325FE
S31508008520C4E90936C4F82C9094E7404694F0DFF97C
S3150800853021205BE710222946204686F0A5F8C4E9E3
S3150800854000A9A660ADE7012050E700BF109E0020F5
S315080085501C9E00203C000A5000001030F07F1030AE
S31508008560700010301000103060EA0020B09E002025
S31508008570909E00206000103038B50D4694F0BCF986
S31508008580044607485BF060FB286020B9204694F053
S31508008590AEF91B2038BD204694F0A9F90020F9E76A
S315080085A0149E002070B5064694F0A6F90D4D0446B3
S315080085B02B88092B03D9BDE8704094F098B9314649
S315080085C009485BF067FB2B8801332B80074B1A7829
S315080085D032B100221A70064B1B780BB9FFF700FE62
S315080085E02046E8E7DECE0020189E002084CF002033
S315080085F083CF002013B594F07FF90A4B04461B88F5
S31508008600092B09D8084B0022186801A95BF091FAD2
S3150800861010B90198FFF7C6FF204694F068F902B032
S3150800862010BD00BFDECE0020B89E002037B50D462F
S315080086301D4B1E4819607BF066FE1D487BF063FEE5
S315080086401C487BF060FE1C487BF05DFE29461B48F3
S315080086505AF0DEFF0A240022284601A95BF069FACF
S31508008660F8B90198FFF79EFF013CF4D10A22144B92
S315080086700F201A802CF084FE4FF440634FF0FF322F
S31508008680104805214361104B9A640122A3F58053D3
S31508008690DA647CF0BBFC07220C4B1A80204603B038
S315080086A030BD1924FAE700BFB89E0020189E0020A6
S315080086B0149E0020109E00200C9E0020F89D00208D
S315080086C0DCCE002000000A5000200A50DACE002036
S315080086D070B594F011F904460C485BF0B5FA0C4DE8
S315080086E00A4E20B92046BDE8704094F000B9FEF75E
S315080086F0E5FF204694F0FBF894F0FEF82B88044634
S31508008700013330462B805BF09FFAEAE70C9E002087
S31508008710DCCE00202DE9F04F002485B00394ADF897
S315080087200A4094F0E9F8DFF804A3B14B9AF8002060
S315080087301B680646D3F808B032B1AE4A8AF800403C
S3150800874011781470ABEB010BAB4BAC4F1A78002ABF
S315080087503CD0AB4CDBF800200D212260BBF804208E
S31508008760A01FA2809BF80620E51FA2710DF10A0240
S315080087705AF0D2FF804698B9DBF80020594644F8EB
S31508008780072CBBF804203868AA809BF80620AA7133
S315080087905BF090F9072241460846FFF793FD33E060
S315080087A0BDF80A20944B013292B2A918ADF80A20F6
S315080087B0AA58CBF800208A88ABF804208A798BF867
S315080087C0062000221A7001228AF800208D4CDFF854
S315080087D04C822578002D00F0FD8094F08DF88A49AA
S315080087E081460A88BAB90121884A1170884A1068F0
S315080087F092F0C6FA484694F07AF800225946386844
S31508008800C8F800205BF056F9304694F070F800205E
S3150800881005B0BDE8F08F7F485BF016FA7A49002864
S31508008820E8D00090088801380880484694F05FF838
S31508008830009AC8F800209AF80020EAB90721584695
S315080088405AF06AFF8146B8B9734ADBF800103868EF
S315080088501160BBF8041091809BF806109171594677
S315080088605BF028F9D8F80000FFF79CFE0123624A5E
S315080088704946137007228FE7BBF80210D8F8002084
S3150800888038689181DBF800101268DFF89C91116056
S31508008890BBF8041091809BF80610917159465BF05D
S315080088A009F9D8F800108A89002A55D101232370BE
S315080088B007229AF80010A9F80020002900F08880FD
S315080088C0386803A95BF0E4F8DFF828A100900028CF
S315080088D078D1BDF80A30B9F800B0C3F10704E4B29C
S315080088E0D91D01934C4B5C4503988AF800401944FE
S315080088F05CD34A4AA4EB0B041568E4B25A468AF8D4
S31508008900004085F0F8FD039A6A60002C48D0386864
S3150800891003A95BF0BDF8A8BB019BB9F800109AF84B
S31508008920004019443C4B073122461944039885F008
S31508008930E2FD072221460398A9F80020FFF7C2FCAA
S315080089400122304B1A70D8F8001035485BF094F9BC
S3150800895038685AF089FD57E7B9F80030B3F5857FCE
S315080089600DD906232E480B775BF086F938685AF03E
S315080089707BFD00250123C8F80050237098E70025E1
S31508008980257096E7224B186892F0FAF9009B8AF848
S31508008990003007230122A9F80030224B1A7033E76A
S315080089A0072221462046A9F80020C7E7224685F077
S315080089B0A2FD5A4621460398FFF784FC002D3FF492
S315080089C023AFC0E7124B186892F0DAF90023DEE706
S315080089D00846F1E7D8F80020134BC2F804B007227E
S315080089E0294628461A80FFF76DFC01232370AAE75B
S315080089F06C9E002081CF002080CF0020B89E0020EA
S31508008A0079CF002061EA0020DECE002084CF002046
S31508008A10B49E0020189E002072CF0020F49D0020EE
S31508008A20149E002083CF0020DACE002082CF0020BB
S31508008A3030B5384889B093F077FF374893F074FF1C
S31508008A4001230422082100202BF074FD01230222B1
S31508008A50092100202BF06EFD0023022205210120AA
S31508008A602BF068FD00232D4D04221946184601AC4B
S31508008A702BF060FD5AF06BFE0FCD0FC495E807008A
S31508008A80012384E807000024254D01A928468DF80E
S31508008A901D308DF804402BF027FF4FF44063102259
S31508008AA06B61204B204DC3F820284FF40022C3F8F1
S31508008AB038284FF41022C3F83028D3F8202842F07B
S31508008AC00202C3F82028194AC3F82C48C3F82828F4
S31508008AD028F008FE2146284628F0B2FD214614480B
S31508008AE028F0AEFD10B1286828F0D6FD4FF4802393
S31508008AF0104A11491360114B002019600121C2E97F
S31508008B000100C3E90100D060D8605172597209B0FA
S31508008B1030BD00BFE8340A08FC340A087CD10908CD
S31508008B2000000A5000C00350B49E00200100050052
S31508008B30B09E0020A09E002002000400909E002007
S31508008B4038B50C4693F0D8FE0C4A0546138823B967
S31508008B5093F0CDFE0324204638BD2146013B084844
S31508008B6013805BF089F801205AF0F2FDFFF730FC1C
S31508008B700446284693F0BBFEEDE700BFDCCE002096
S31508008B80109E0020164B37B59B6C164A03F001035E
S31508008B909364FBB1144B0DF10701186892F010F9B4
S31508008BA00122124B124D1A7093F0A6FE044628466F
S31508008BB05BF04AF801460F485BF05EF8204693F0F2
S31508008BC096FE00220C490D485AF028FD286818B16F
S31508008BD0FFF7FEFB03B030BD5AF0BAFDFAE700BF57
S31508008BE000000A5000200A50B09E002060EA0020CB
S31508008BF0109E00200C9E0020D1860008F89D0020BB
S31508008C0070B5044692B0202200210AA885F03CFDE2
S31508008C10244B4FF48052099304F1E8030B9358232D
S31508008C200C9304F5A0730D932323CDE90E231E4B55
S31508008C30002501930123029304F14803039350236B
S31508008C4004F1980201A8CDE90435CDE90723069574
S31508008C5092F07DFF04F58056C6F89801E0B1B6F8A3
S31508008C60AE01B6F8AC312946184405AAFF3093F090
S31508008C701EF8C6F8940158B121460C4809AA92F084
S31508008C80E5FEC6F8900150B9D6F8940193F0B6F807
S31508008C90D6F8980192F0F3FF192012B070BD284655
S31508008CA0FBE700BF98D10908A1D109089177000808
S31508008CB00146044B18781970034B1B6803B1184713
S31508008CC0704700BF58D00020D89E002008B5012361
S31508008CD0002219460A485AF003F908B1002008BDCF
S31508008CE00221084A064859F079FF0028F6D10321DF
S31508008CF0054A034859F072FFB0FA80F04009EEE7DA
S31508008D00DC9E0020818D00080D8D000808B50448FA
S31508008D10FEF7F6FB05281EBF0122024B1A7008BD96
S31508008D20DC9E0020C6CF002007B50022074B01466F
S31508008D301A700288064B0432009392B20123054842
S31508008D405AF0BDF903B05DF804FB00BF62EA0020E3
S31508008D50818D0008DC9E002008B5064859F0D2FF30
S31508008D60FFF7B4FF28B10122034B1A700022034B08
S31508008D701A7008BDDC9E002062EA0020C6CF0020DB
S31508008D8013B10122074B1A700122074B1A70074BC1
S31508008D901B78042B05D10022054B05201A61FFF725
S31508008DA087BF7047C6CF002062EA002058D000204F
S31508008DB0C09E00207FB518220021684685F064FC15
S31508008DC0034B6946186880F0E7F807B05DF804FBBE
S31508008DD0D49E002010B5044633F0A4F8A8B94FF481
S31508008DE0844081F07EFF003818BF0120084B1870B8
S31508008DF00CB1084B1C600024074B02201C61FFF7CE
S31508008E0057FFFFF763FF204610BD0120FCE700BFB0
S31508008E1085CF0020D89E0020C09E0020014B1878E0
S31508008E20704700BF58D00020114B10B51C68043C91
S31508008E30231D0CD14FF4844081F053FFB0B14FF499
S31508008E40844081F059FF044630B1012010BD2368E3
S31508008E50A06898476468EAE74FF4844081F041FFC8
S31508008E600128F2D0034B20461C70EFE71120EDE7EE
S31508008E70BC9E002085CF00202DE9F04FA74CC5B039
S31508008E80237823B1FFF768FF2378002B3FD1A44B43
S31508008E901B78002B3BD00123A24800930DF1120248
S31508008EA0002305A95AF026F80446002840F04F8208
S31508008EB0059D6B885A1E042A26D806225A43DFF8CF
S31508008EC08C82298838F8022091421DD1023B032B57
S31508008ED005D8DFE813F021002E003F010F02042118
S31508008EE0914B2A79197000215970012199706FF0F8
S31508008EF07F01D9708D49097861B9012A18BF2424E0
S31508008F0089485C60FFF710FF05985AF0DCFD45B00C
S31508008F10BDE8F08F1224F3E7042383480370002387
S31508008F204370022383706FF07F03C370242343606A
S31508008F30E8E77F4A2B1D05F1240153F8040B8B4201
S31508008F4042F8040BF9D10AA87DF037F810A87DF08D
S31508008F5034F818A87DF031F8202041F0B7FD064610
S31508008F60002800F0D980202041F0B0FD07460028EF
S31508008F7000F0D08020A85AF063FFDFF8D4B14FF490
S31508008F8080416C4B20A85AF063FF06A9CDF88CB037
S31508008F90209332F075FF814648B35AF05BFF0446CA
S31508008FA02021304630F0FCF93846202130F0F8F917
S31508008FB0384641F093FD304641F090FD5E4E5F4BDA
S31508008FC030461A685E4985F096FA06226B88A6F13D
S31508008FD0080002FB03826FEA43436FEA5343528851
S31508008FE026F8063C26F8082C46F8044C8AE7202280
S31508008FF0524B5349069880F087F8824630B1069856
S3150800900031F008FA5046CDF81890C6E74FF0200917
S3150800901020224B4910A87DF01BF92022484910A8A8
S315080090207DF048F9202242490AA87DF027F9202236
S315080090303F490AA87DF038F908AB58460293CDE9AE
S3150800904000794B463A4A069980F092FF834630B13A
S31508009050069831F0DFF95846CDF818A09DE74A463C
S31508009060394618A87DF00AF94A46394618A87DF007
S315080090701BF907ABCDE900934A46334639463148D2
S3150800908080F0BFF981460698B9F1000F04D1DDF8E2
S315080090901CA0BAF1200F05D031F0BCF900230693C5
S315080090A048467AE731F0B6F9814620B1514630464E
S315080090B030F076F9F4E7DFF874B006909BF80030E4
S315080090C00BB101246CE730A85AF0BAFE002333939B
S315080090D04FF48443012130A85AF0BAFE35931A4B4F
S315080090E0319130938A461022314609AB31F0DAF9CC
S315080090F081461021304630F053F9B9F1000F02D1FC
S315080091008BF800A04CE748465AF0A4FE041E18BF88
S31508009110012445E719244EE719244FE7C6CF002056
S3150800912062EA0020DC9E002010D0002085CF0020B7
S31508009130A6CF00204171FF0018D00020D0E80020FB
S3150800914086CF00200900000201108000BAD1090864
S3150800915000000209864B1B78002B00F0C080002116
S31508009160844F1C2219A8189185F08EFA3B782E1D7B
S31508009170052B02D10320FFF79BFD334620AE03F1F2
S31508009180200C324618685968083303C263451646E8
S31508009190F7D14021784880F052FFC0B9764B28AE07
S315080091A003F1200C324618685968083303C2634530
S315080091B01646F7D120230DF1400930AE0093402220
S315080091C04B466E48019620A980F01BF978B1012418
S315080091D06B4B5C6006226B88694802FB03826FEA68
S315080091E043436FEA53435288438002808AE6B44673
S315080091F099E80300634A9DF84E309180090C106087
S3150800920091711298BDF84C105373C2F80700A2F872
S315080092100B1005F1240305F1440E624618685968D7
S31508009220083303C273459446F7D1574B0DF1E00C4A
S3150800923003F1200E624618685968083303C273455D
S315080092409446F7D10DF128094B4610224FF4844075
S3150800925040A97FF0E7FE20B15021304630F0A0F853
S31508009260B5E74FF0200B314650224448CDF804901C
S31508009270CDF800B018AB80F0C4F8824650213046CD
S3150800928030F08EF8BAF1000F02D0594618A8E5E773
S315080092903B78032B03D13D4B186831F0BBF84846A1
S315080092A05AF0CEFD3A4B3B4A0D9300234FF44071DA
S315080092B048465AF0CDFDCDE90A230F9318A9202276
S315080092C0324B31F0EFF80646202118A830F068F83E
S315080092D0002E7FF47CAF0420FFF7EAFC78E7112222
S315080092E027484021027143718371C371083030F0F9
S315080092F057F86FE74FF0AA324FF0AA33CDE930237B
S315080093001C4B1878431F584258415AF0D3FD4FF06A
S31508009310AA33994208BF984217D1DDE9300199422C
S3150800932008BF984211D1FFF77FFD024606216B88D8
S31508009330134801FB03886FEA43436FEA5343B8F8BF
S315080093400210438001804260DCE50822EEE71B2814
S315080093500AD1114C2378002B3FF4D9AD0F48FFF7FB
S31508009360E3FC00232370D2E5FFF7F6FCCFE500BF48
S3150800937085CF002058D0002018D000200900000210
S3150800938010D00020C09E002038D00020D49E002097
S315080093900002480500240001C7CF0020C8CF0020DE
S315080093A02DE9F04FC3B01F46DDE94C830593037AD8
S315080093B0394E8DF82430D0F8003105460B93D6F88F
S315080093C007308A46CDF82530B6F80B300021ADF8BF
S315080093D02930737B91460CA8D8228DF82B30DDF8FE
S315080093E038B185F051F92D4B2D4A19680CA880F033
S315080093F0E7FB044648B9424649460CA831F090FFB7
S31508009400044640B10CA880F0BBFB204643B0BDE83B
S31508009410F04F5AF01FBD0C2209A90CA880F00AFCCF
S3150800942004460028EED14A4651460CA831F0B8FF4A
S3150800943004460028E6D108ABCDE9008342463B4600
S3150800944039460CA831F0ECFF04460028DAD107AB00
S315080094500899CDE901B3059BA8EB010200933944AD
S3150800946006AB0CA880F0E8FB04460028CAD1FFF733
S31508009470A1FCD5F800310133C5F800313369013351
S31508009480B3F1005F3361C0D1064B1B78052BBCD105
S315080094900320FFF70DFCB8E7C09E0020D49E0020ED
S315080094A00002480558D0002070B50446007A8CB0F2
S315080094B08DF82400D4F8FC001C4D40F000400B90B9
S315080094C02868AE88CDF82500A879CDE900128DF870
S315080094D02B00129816490690119809AACDE904306E
S315080094E01098ADF82960CDE9023012480C230068BF
S315080094F031F07AFD064698B9FFF75CFCD4F8FC30E3
S315080095000133C4F8FC302B690133B3F1005F2B61DA
S3150800951006D1094B1B78052B02D10320FFF7C8FBA0
S3150800952030460CB0BDE870405AF094BCC09E00208E
S3150800953000024805D49E002058D00020064B1B7810
S31508009540052B08D1D0F8FC30044A013BC0F8FC30A2
S315080095501369013B1361704758D00020C09E002054
S3150800956038B5144625681A46A5F58E50183839B305
S315080095706168144B994213D1134B95F841201B6827
S315080095805AB153B959F076FF20682146BDE83840EC
S31508009590A0F58E5018385AF099BB18465AF048FD6F
S315080095A00A4D21F0FF03AB4203D1C9B259F00FFEB1
S315080095B0EAE7074A9342E7D1C9B259F04AFEE3E718
S315080095C038BD00BFEFBEADDEE89E002000BAFECA79
S315080095D000BAEFBE2DE9F0431F46062313704D6807
S315080095E00E46A5F5805185B0FF2980461446DDF85C
S315080095F030903DD80523EDB2538045F4805353602F
S31508009600337A9A1E012A0DD8A0F58E50294604F100
S315080096100802183859F0C8FE638804333B6005B061
S31508009620BDE8F083052B0ED1A0F58E50294604F12E
S315080096300802183859F07BFD0028EDD15C4B2B4306
S31508009640C9F80030E8E7092B0BD1A0F58E5029465A
S3150800965004F10802183859F048FE0028DCD1554BA9
S31508009660EDE704236380002363600323A360D3E745
S31508009670A5F5E061FF2925D8B6F80280B8F10C0FE8
S3150800968003D00023636003235AE0EDB22846F2684C
S31508009690B168FDF7D1FF48B100236360082302389B
S315080096A00228638034BF04230123DFE7234645F4F9
S315080096B0E06543F8045FB2685A60F2689A60A4F8F5
S315080096C00280A9E740F203218D4264D0B5F5017FF7
S315080096D020D2602D5CD007D8042D2ED9212D35D067
S315080096E0002363600D232BE0B5F5007F25D040F2FB
S315080096F002239D42F4D104235380B36813B3012B8C
S31508009700BFD101232C4AA360136040F20223636091
S3150800971008233BE0B5F5C06F23D00BD840F20133E0
S315080097209D420AD0B5F5A06FDAD1337A80F8383081
S3150800973065602AE0B5F5885FD2D1002363601523FA
S31508009740A360E5E71C4955600B60F9E75560328967
S31508009750A0F58E50228163803189183859F015FF9B
S315080097605AE7F36803A94361B06891F069FD48B9FF
S31508009770CDE90000114A039908F1140308F118000D
S3150800978093F057FA4FF4C06363600423638043E79A
S31508009790B368C360CCE7337A55600822003B628021
S315080097A018BF01230022A26080F8413034E700BFC9
S315080097B000BAFECA00BAEFBEE89E0020C13E0608FF
S315080097C000487047DED109082DE9F0471D460623F3
S315080097D0137014464A680746302A86B07DD00ED8DC
S315080097E0042A05D9202A72D0002363600D2337E0A6
S315080097F0013A032A32D8DFE802F035633B4540F2E6
S3150800980002239A427AD00FD8502A69D0B2F5007F3F
S315080098106DD0402AE8D1A0F58E50626018385AF00B
S315080098201FF8A060082356E040F201339A4269D037
S31508009830B2F5885F4FF0000668D0A2F58053FF2B7B
S3150800984000F286808DF81020D2B242F4805262600F
S3150800985003A80396FDF754FE207207E00023636011
S31508009860A360DFE70123636006232372052332E042
S31508009870042303220921C4E901230023C4E90313AD
S31508009880102328E00423A04648F8043FFFF798FF72
S31508009890814684F050FE461CB6B2802E28BF80262C
S315080098A04946324608F1040084F025FE01230436B1
S315080098B066807B74638804332B6006B0BDE8F08746
S315080098C00223636010F8333CDB000133C8E76260AB
S315080098D050F8302C22816380ECE7C36B6260BFE7E7
S315080098E0A0F58E506260183859F0C0FF99E72046F7
S315080098F040F8042F04305AF082FBC1E71C4B626023
S315080099001B68ADE76260FFF789FA8AE73746626047
S3150800991004F1070904F1870A731C6846CDE9007744
S31508009920CDE903778DF804608DF810300297059716
S31508009930FDF7E6FD804603A8FDF7E2FD48EA0018B4
S3150800994009F8018F0236CA45F6B2E5D18423C2E783
S31508009950A2F5E063FF2B3FF647AF8DF81020D2B291
S3150800996042F4E062626003A80396FDF717FE73E708
S31508009970E89E00207FB50123A0F58E56183E009379
S31508009980002202233146054659F0ACFA2E28044631
S315080099903CD048B90B2128461D4A59F01FF9044600
S315080099A028B1284659F0AEF9204604B070BD022108
S315080099B02846174A59F012F904460028F1D103211E
S315080099C02846144A59F00AF904460028E9D12A46D5
S315080099D00421284659F002F904460028E1D103A9D2
S315080099E030465AF05EF90623039EB381356034612A
S315080099F05AF0E5FA08230C22F381039B7061B1182B
S31508009A0000932846032359F05AFBCDE71224CBE7E7
S31508009A1061950008BB3E06082DE9F74F032B8046E3
S31508009A20DDE90D798A4616467BD9528804329A4270
S31508009A3077D100230C9AA0F58E5BABF1180B136057
S31508009A4049463B605846C9F800305AF02AF9054697
S31508009A5008BBD9F800400C9B224642F80C8B1A60CA
S31508009A6071786173BAF1000F49D13178022918D09B
S31508009A70032929D001294FD10423D9F80060E381AD
S31508009A80082321733B60284B18685AF087FA20612F
S31508009A9028B9264B7360284603B0BDE8F08F756079
S31508009AA0F9E77368202B09D0591E032906D923F034
S31508009AB01001402902D0B3F5007F18D13B46314644
S31508009AC04046FFF781FEE6E77368A3F20221012903
S31508009AD003D9212B01D0602B09D1D9F800303146A2
S31508009AE00433009340463B46FFF774FDD3E70D2346
S31508009AF063610823E3810C2325613B60CBE7BAF158
S31508009B00010FC8D131780229D8D00329E5D019B96F
S31508009B1004232073E081F0E75846D9F800105AF07C
S31508009B20D5F82125B7E700BFE89E0020EFBEADDED9
S31508009B300348044A0449121A92105AF092BA00BF0E
S31508009B40C061000880630008C0D4002008B5154B22
S31508009B5083F30A8800F030F8FFF7EAFF124B13493F
S31508009B608B4212D30020124B12498B4218D3FCF7B2
S31508009B70FBFD186850F82240586840F82240013228
S31508009B8098688242F5D30C33EAE70022F8E71C68A6
S31508009B9044F8220001325C68A242F8D30833E4E7AD
S31508009BA00022F8E708000020C8A70A08D4A70A0870
S31508009BB0D4A70A08D4A70A084FF48041144B154ABB
S31508009BC070B59A60D3F88820134D42F47002C3F832
S31508009BD08820124A05F5005491664FF0FF32226636
S31508009BE06FF4003262660D22A2660222C3F8D02004
S31508009BF0BFF34F8FBFF36F8F4FF4403600202BF023
S31508009C00DBFB0020E6602BF0BBFB2E6170BD00BFBE
S31508009C1000ED00E00060000800800044009000505D
S31508009C20014B1860704700BFD8E80020054B186044
S31508009C30054B1B6F03F00703032B01D18FF008BDFB
S31508009C40704700BFE0E8002000800050002307B5F9
S31508009C500193054B1B6892F058F9019B002BFCD029
S31508009C6003B05DF804FB00BFE4E80020EFF30583CA
S31508009C700F2B84BF034A9B5C4FF0E023D3F80C3DBF
S31508009C80704700BFF0E300E038B5084DD5E8AF3FB0
S31508009C9013F0010408D128467AF02FFA20B1044BB4
S31508009CA028461C607AF02EFA014838BD80AA0020A2
S31508009CB084AA002070B51348D0E8AF4F14F0010409
S31508009CC018D17AF01AFAA8B10F4D2E4646F8044B69
S31508009CD0301910220021103484F0D6FCA02CF7D1BC
S31508009CE00B220A4B013A194603F1100304D1054821
S31508009CF07AF008FA044870BD286843F8100C296001
S31508009D00F0E700BF88AA00208CAA002090AA0020AD
S31508009D102DE9F041884615461E465AF007FA0746C9
S31508009D2050B35EB30379990748BF86F80080C3F33A
S31508009D304004037948BF01245A070ED5114B29461A
S31508009D4093F900006DF071F9822302B2C2EB022288
S31508009D50B2FBF3F232559CB901243B791B0708D5AF
S31508009D6082228235C5EB0525B5FBF2F5631C355510
S31508009D70DCB22046BDE8F0810446FAE73446F8E747
S31508009D800224F6E7F9D00020014B18705AF0F2B910
S31508009D90F9D0002008B50121002040F077F8002806
S31508009DA0A2BF0122014B1A7008BD00BFFAD00020DD
S31508009DB070B51E461E4B04461B781546B0B0002BE0
S31508009DC033D024F0A9FE1B4BB2211B4A009003A8EE
S31508009DD040F060FF601E032896BF184B184B53F8D7
S31508009DE020309F21174A0DF11F0040F053FF133012
S31508009DF02A4684B203AD3346C4F1B20115FA80F09F
S31508009E0040F056FE002810DB0444A4B2B22C28BF4A
S31508009E10B2240A2204F1C0036B4403F8B42C621C72
S31508009E202946002092B240F005F830B070BD00BF58
S31508009E30FAD00020FFD1090807D209082CD2090850
S31508009E40FAD10908DAFD090870B5049D0C460146E1
S31508009E5000B12DB9C621064B064A074840F046FE12
S31508009E600493284613462246BDE870400BF060BFAF
S31508009E703CD209084BD30908AED2090808B530B94F
S31508009E8040F20911074B084A084840F02FFE03889C
S31508009E9023F4FF4343F4506303800423037006202E
S31508009EA008BD00BFAFD30908C0D30908AED2090858
S31508009EB0131D70B5DBB2144630B940F217110D4BBD
S31508009EC00D4A0E4840F012FE068803F07F0326F47A
S31508009ED0FF46068003709B238370B823C370EA236A
S31508009EE003710023437111B1063084F004FBA01DF1
S31508009EF0C0B270BDAFD30908F2D30908AED20908BB
S31508009F0008B5034A034908305AF0CCFF002008BDBB
S31508009F103FD4090804DA09080B6810B50446084650
S31508009F204BB98BF09CFC0246084904F108005AF02C
S31508009F30B9FF002010BD064973F012FD18B140F2B2
S31508009F4045220449F1E72320F4E700BF04DA0908AB
S31508009F5045D4090856F509082DE9F0410B68044669
S31508009F6094B0084693BB54F8080F02AF39468CF0F4
S31508009F70A4F92046BDF8082019495AF093FF20464F
S31508009F80BDF80A2017495AF08DFF2046BDF80C2067
S31508009F9015495AF087FF0926144DDFF85880013E07
S31508009FA005F1080503D1002014B0BDE8F08155F885
S31508009FB0083C2046FA185168019152884146009299
S31508009FC0FB5A55F8042C5AF06DFFE8E7084973F078
S31508009FD0C7FC18B1A0688CF0AFF9E4E70720E3E7FF
S31508009FE049D4090853D409085CD409081CF209089D
S31508009FF0A3DF090869D409080B6870B504460D463D
S3150800A00063B954F8080F8BF0C8FC28B10E492046EE
S3150800A0105AF048FF002070BD0C49F8E728460A495F
S3150800A02073F09EFC064628B10121A068BDE8704081
S3150800A0308BF06BBD2846054973F092FC08B1314692
S3150800A040F3E70720E7E700BF77D409087AD40908B9
S3150800A05037B50446694680688DF0A2F80546E8B922
S3150800A06008342046009A0F495AF01CFF20469DF8EE
S3150800A07004200D495AF016FF20469DF805200B4985
S3150800A0805AF010FF20469DF8062009495AF00AFFA3
S3150800A09020469DF8072007495AF004FF284603B0D2
S3150800A0A030BD00BF7FD4090891D40908A6D4090891
S3150800A0B09FD40908B7D409080B6837B5044608467B
S3150800A0C083B9A0688BF0E1FD04F10805014618B1D3
S3150800A0D0A06825F087FE0146284607F07DF800208F
S3150800A0E003B030BD0DF1070107F0E2F80028F7D1FB
S3150800A0F09DF807201AB91146A0688BF07EFF9DF8D7
S3150800A1000710A0688BF07FFE0028E9D19DF807307C
S3150800A110002BE4D022460249A0688BF06EFFDEE7EA
S3150800A120B343060870B5044680680E466BF083FC98
S3150800A13005468BF094FB85420CD03046074973F0F0
S3150800A1400FFC48B104F108002A4605495AF0AAFE50
S3150800A150002070BD0C20FCE70720FAE723DE09087B
S3150800A16004DA090810B5044654F8080F8DF01CF9EE
S3150800A1700349024620465AF095FE002010BD00BF4E
S3150800A18091DB0908024B034A08305AF0EBBE00BFC0
S3150800A1905D7709084575090810B500F10804806857
S3150800A1A08CF0F7FE044A0549002808BF11462046E8
S3150800A1B05AF078FE002010BDD1D40908CCD409087D
S3150800A1C070B50E6804460D4656B90834204611493E
S3150800A1D05AF068FE204610495AF064FE304670BDB3
S3150800A1E028460C4973F0BCFB30B1291D04F1A800C0
S3150800A1F0BDE8704006F0C6B92846074973F0B0FBBB
S3150800A20030B1291D04F1B400BDE8704006F0F6BC73
S3150800A2102320E4E7D7D40908FFE3090870B50E68D8
S3150800A22004460D4666B954F8080F8CF06AFF8CF0A0
S3150800A230BCFE1849024620465AF034FE304670BD28
S3150800A2402846154973F08CFB20B1A068BDE870401C
S3150800A2508CF06FBF2846114973F082FB20B1A068C5
S3150800A260BDE870408CF059BF28460D4973F078FB5D
S3150800A27020B1A068BDE870408DF0A2B9284609490A
S3150800A28073F06EFB20B1A068BDE870408DF08CB904
S3150800A2900720D4E704DA0908DED40908E7D4090850
S3150800A2A0EDD4090893020A082DE9F3470E68044617
S3150800A2B00D46002E3ED100F10805032128462A4BFB
S3150800A2C02A4A06F0B9FFA06801AA0DF102018CF02E
S3150800A2D008FF34460746DFF8AC80DFF8AC90DFF8B5
S3150800A2E0ACA0BDF80220A3B29A4203D8002002B05F
S3150800A2F0BDE8F087019AA6B27243414628465AF04D
S3150800A30071FDBDF802302846013B9E42B5BF019A51
S3150800A3104A4606FB02225146BCBF154902F1FF32E6
S3150800A3205AF060FD284657F8262012495AF0BAFD19
S3150800A3300134D6E72846104973F012FB48B154F8A1
S3150800A340080F8DF06BF80D49024620465AF0AAFD13
S3150800A350CCE728460A4973F003FB18B1A0688DF0CC
S3150800A360BFF8C3E70720C2E7E4EE0908E8EE0908E4
S3150800A370FED409080BD50908E7DE09088DD40908B3
S3150800A380A3DF0908F4D4090803D5090807D509087D
S3150800A39010B50B68044686B008466BB954F8080F22
S3150800A3A0182269468BF0D1FA6A4620460A495AF0BD
S3150800A3B079FD002006B010BD084973F0D1FA48B1FE
S3150800A3C054F8080F8BF09DFA02460B4620465AF0C1
S3150800A3D01FFDEEE70720EDE704DA0908C1FC0908C6
S3150800A3E037B50C4605461549204673F0B9FA98B1B3
S3150800A3F0606808B3A368FBB90DF107018DF04EFB41
S3150800A400044630B99DF807200D4905F108005AF0B1
S3150800A41049FD204603B030BD20460A4973F0A0FA2C
S3150800A42040B1606840B1A36833B903B0BDE83040B5
S3150800A4308DF042BB2324ECE70724EAE715D5090883
S3150800A44046D509081FD5090838B50C4605460949F1
S3150800A450204673F085FA58B164684CB98BF03BFE18
S3150800A4600549024605F108005AF01CFD204638BD8C
S3150800A4700720FCE728D509082CD6090838B50D6841
S3150800A4807DB900F10804204607495AF0ABFC20467E
S3150800A49006495AF0A7FC204605495AF003FD284606
S3150800A4A038BD2320FCE700BF07080A082ED509088F
S3150800A4B070FD090838B50C680546084624B9A86829
S3150800A4C08BF052FA204638BD054973F049FA20B197
S3150800A4D0A868BDE838408BF0D8B92320F3E700BF59
S3150800A4E033D5090830B50D68044687B07DB954F8E8
S3150800A4F0080F8CF07BFF152269468CF0BFFF2046BB
S3150800A5006A4604495AF0CEFC284607B030BD0720F3
S3150800A510FBE700BF04DA090810B5044608460A49ED
S3150800A52073F01EFA30B10022A0681146BDE810404B
S3150800A5308CF00BBE22460549A0688CF006FE002862
S3150800A54008BF242010BD00BF3ED50908BF43060832
S3150800A55038B50D68044655B954F8080F8CF06AFFEB
S3150800A5600449024620465AF09DFC284638BD232059
S3150800A570FCE700BF8DD409080B6837B505460C46BD
S3150800A5809BB980680DF106018BF0CDFB044648B9EE
S3150800A590BDF806209DF806300C49120A05F1080098
S3150800A5A05AF080FC204603B030BD084673F0D1F956
S3150800A5B0022809D12368A868198849BA89B203B05C
S3150800A5C0BDE830408BF02DBC0724EBE744D50908DD
S3150800A5D0F8B50E4605461249304673F0C1F90746E6
S3150800A5E028B10121A868BDE8F8408CF049BE30467C
S3150800A5F00C4973F0B5F9044608B13946F2E7304616
S3150800A600094973F0ADF948B18CF0DAFE07490246FC
S3150800A61005F108005AF046FC2046F8BD2320FCE761
S3150800A620B9060A0849D5090823DE090856F50908AE
S3150800A63038B505460C4641B90068904704490246B4
S3150800A64028465AF02FFC204638BD0720FCE700BFF5
S3150800A65056F509082DE9F0470D6804460E4692B0EE
S3150800A660A5BB80688DF0A0F8A9468046DFF884A0CF
S3150800A670AFB2B84503D8002012B0BDE8F087394616
S3150800A680A06806AAADF806908CF0B6FF78B99DF8D2
S3150800A6904130C3F3C0021B0709D4ADF8062039467A
S3150800A6A0A06802AB0DF106028CF0B6FF08B10135C1
S3150800A6B0DEE704F1080651463046BDF830205AF068
S3150800A6C091FB304602A95AF0ACFBE8E73046074949
S3150800A6D073F046F940B1064A716804F1080012B0F1
S3150800A6E0BDE8F047FFF7A4BF2320C5E7E7DE090862
S3150800A6F0097809084ED5090838B505460C4641B902
S3150800A700006890470449024628465AF0CBFB204683
S3150800A71038BD0720FCE700BF8DD40908024A09683E
S3150800A7200830FFF7E9BF00BFEB58090830B50B68DA
S3150800A73005460C4689B083B9019300F13804A86828
S3150800A74002AA01A98AF096FB10B1002009B030BD13
S3150800A750204602A905F0F2F8F1E72046104973F001
S3150800A760FFF850B102A9201D5AF0B4FC0028EDD11B
S3150800A770A86802A98AF04EFBE8E72046094973F063
S3150800A780EFF850B1606802A973F0C4F80028DDD16B
S3150800A790A86802A98AF098FBD8E72320D6E700BF65
S3150800A7A066070A0855D5090873B50C6805460E46A6
S3150800A7B03CB120460DF1070173F083F860B102B091
S3150800A7C070BD55F8080F8CF0E3FE08490246284686
S3150800A7D05AF068FB2046F2E773682BB99DF9071013
S3150800A7E0A8688CF083FFEAE70720E8E72CD6090873
S3150800A7F07FB50C6805460E4664B955F8080F6946D4
S3150800A8008DF05BF82846102269465AF0F8FA204679
S3150800A81004B070BD4B685BB910226946204673F0D8
S3150800A8207EF80028F4D16946A8688CF07BFFEFE72C
S3150800A83030460A4973F094F870B1A86876688CF0C7
S3150800A840CCFB0446A8688CF0D4FB6B46024621462E
S3150800A85030468AF045FDE4E70720D9E75CD50908C4
S3150800A860F0B5044600F1080502212846124B134AA2
S3150800A8708DB006F0E1FCA0688DF004F90446104E90
S3150800A880104F14B920460DB0F0BD20463022694657
S3150800A8908BF0D4F96A46314628465AF0A3FA04F1F1
S3150800A8A01200302269468BF0C9F96A4639462846AD
S3150800A8B05AF0F8FA246BE4E75CEF090860EF090838
S3150800A8C05FD5090868D509087FB500230C680546D1
S3150800A8D00E468DF804308CB955F8080F8CF040FDFB
S3150800A8E003A98DF8080002A85AF034FC1849024654
S3150800A8F028465AF0D7FA204604B070BD30461549A6
S3150800A90073F02EF828B19DF80410A8688CF0E2FCC4
S3150800A910F2E73268013A12F8013F002BF3D06E2BAA
S3150800A92011D0722B03D0642B08D00720E4E79DF8DA
S3150800A930043043F001038DF80430ECE79DF8043049
S3150800A94043F00203F7E79DF8043043F00403F2E707
S3150800A95004DA0908C55B0A0810B50446086886B013
S3150800A96008B30DF1170172F060FFD0B99DF81730E2
S3150800A9701F2B15D8012199400C4B029401930023F3
S3150800A98000934FF6FF72A0688CF0EFFB48B904F10C
S3150800A99008000721064B074A06F04EFC242000E073
S3150800A9A0072006B010BD0146E6E700BF09440608C1
S3150800A9B0F8EF090800F009082DE9F7430D68044681
S3150800A9C0002D3AD100F1080603213046284B294AC2
S3150800A9D006F032FC284FDFF8A880DFF8AC90A068B4
S3150800A9E0E9B28CF0BBFD00B3A90289B20DF10303ED
S3150800A9F0A0680DF10602ADF804108CF04DFF39463B
S3150800AA002A4630465AF0EEF94FF6FE73BDF8062090
S3150800AA1030469A4207BF434649469DF803301749D0
S3150800AA200CBF174A920A5AF03DFA01353F2DD6D186
S3150800AA300025284603B0BDE8F083284601A972F030
S3150800AA4005FF05460028F4D154F8080FBDF8041090
S3150800AA500DF103030DF106028CF01EFF20469DF84A
S3150800AA600330BDF8062007495AF01CFAE1E700BF93
S3150800AA704CEF090850EF090872D509087BD5090873
S3150800AA80C55B0A0893D5090887D509087FB50C461A
S3150800AA900023054623492046ADF80E3072F060FFC4
S3150800AAA0064690B92068C8B9044605F1080005218C
S3150800AAB01D4B1E4A06F0C0FB009521461C4BBDF8EF
S3150800AAC00E20A8688BF005F924E0606840B30DF104
S3150800AAD00E0172F0BBFE08BBA06808B30DF10D01AC
S3150800AAE072F0A3FED0B99DF80D301F2B15D801249E
S3150800AAF09C40002ED9D002210E4B0F4A05F10800C2
S3150800AB0006F09AFB009521460C4BBDF80E20A86866
S3150800AB108BF0F4F810B9242000E0072004B070BDCB
S3150800AB200024E8E7A2D50908F4EE0908FCEE0908AE
S3150800AB300944060810EF090814EF0908C343060874
S3150800AB4013B50446086868B954F8080F8AF0F5FC86
S3150800AB504FF47A720D49B0FBF2F220465AF0A2F988
S3150800AB6000200EE04B6873B901A972F025FF40B9C1
S3150800AB704FF47A71019BA06859438AF0D0FC0028EB
S3150800AB80EED002B010BD0720FBE700BF8DD4090840
S3150800AB9070B50B6806460D46ADF5027D93B9009370
S3150800ABA000F138046946B06801AA8BF053FE20B15B
S3150800ABB0002420460DF5027D70BD204601A904F04B
S3150800ABC0E1FEEFE7686802A972F0F6FE044600287F
S3150800ABD0EFD1FC236946A8680DF10D02ADF80030E7
S3150800ABE072F0ABFE04460028E3D1BDF800300BB97D
S3150800ABF00724DEE728461A498DF80C3072F0B0FEB5
S3150800AC00F0B1E86870B1F823694643AAADF8003098
S3150800AC1072F093FE04460028CBD1BDF80040002C04
S3150800AC20E6D0E4B29DF80A31B06843F0010301A901
S3150800AC308DF80B418DF80A318BF0FEFD0446B8E716
S3150800AC402846084972F08CFE0028B2D09DF80C30D0
S3150800AC500299B0680DF10D028BF018FEEEE700BF01
S3150800AC6066070A0855D5090837B5054608680DF177
S3150800AC70070170B9A86825F0D5F8044630B99DF9DA
S3150800AC8007200A4905F108005AF00CF9204603B0D6
S3150800AC9030BD72F016FE04460028F7D19DF907105C
S3150800ACA0A86825F0C9F80446F0E700BFB2D5090838
S3150800ACB00B6837B504460D4673B980680DF1070170
S3150800ACC06AF0BFFE18BB9DF90720134904F1080076
S3150800ACD05AF0E8F800201AE02846104972F040FEBB
S3150800ACE0B8B168680DF1070138B9A0686AF0A9FE1D
S3150800ACF068B99DF907200A49E8E772F0E2FD30B91C
S3150800AD009DF90710A0686AF09EFE0028E2D003B0FD
S3150800AD1030BD0720FBE700BFA9D50908B9D5090842
S3150800AD202CD6090837B5054608680DF1070170B92C
S3150800AD30A86879F031F9044630B99DF907200A491F
S3150800AD4005F108005AF0AEF8204603B030BD72F09F
S3150800AD50B8FD04460028F7D19DF90710A86878F0D1
S3150800AD60AAFF0446F0E700BFB2D509080B68F7B595
S3150800AD7004460D46002B35D154F8080F8CF0FCFB21
S3150800AD80054603783B49032B96BF3B4A3B4A52F894
S3150800AD90232020465AF086F8687800F0010006F06D
S3150800ADA001F93749024620465AF07CF86878C0F31C
S3150800ADB0400006F0F7F83349024620465AF072F882
S3150800ADC06878C0F3800006F0EDF82F490246204661
S3150800ADD05AF068F8204695F902202C495AF062F88C
S3150800ADE0002044E00026244F284657F8041B72F03A
S3150800ADF0B7FDC0B368680DF103018DF8046072F001
S3150800AE00DFFDA0BB9DF805309DF80320A86862F316
S3150800AE1000030DF103018DF8053072F0D1FD30BB4A
S3150800AE209DF805309DF80320E86862F341030DF1AB
S3150800AE3003018DF8053072F0C3FDC0B99DF80530E1
S3150800AE409DF80320286962F382030DF106018DF847
S3150800AE50053072F036FD50B96B693BB9A06801A997
S3150800AE608CF052FDBCE70136042EBDD1072003B095
S3150800AE70F0BD00BFC1D50908D8EF0908800A0A083D
S3150800AE80D7D50908EDD5090803D6090819D609083A
S3150800AE90F0B50D4604463D49284689B072F060FD76
S3150800AEA0064600B104352B681BBB54F8080F8AF018
S3150800AEB0A4FD0546364F0DB9002030E02946204648
S3150800AEC006F0D8F886B1687C06F038FAA97C2B7C9F
S3150800AED0C1F340010191A97C024601F001010091EC
S3150800AEE02046394659F07EFF204606F083F86D69FC
S3150800AEF0E1E72846274972F033FD90B1686802A950
S3150800AF0072F0FEFC58B9069BA0689B0C9B0443F4A0
S3150800AF10403343F4507302A906938AF094FD09B0AE
S3150800AF20F0BD28461C4972F01BFD50B1686802A99D
S3150800AF3072F0E6FC0028F2D1A06802A98AF0BBFDEF
S3150800AF40EDE72846154972F00BFD40B154F8080F95
S3150800AF508CF067F80146204659F063FFACE72846AF
S3150800AF600F4972F0FDFC20B154F8080F8CF07DF8FB
S3150800AF70F0E728460B4972F0F3FC20B154F8080FA5
S3150800AF808CF05BF8E6E72320C9E700BF0AE3090867
S3150800AF902FD6090866070A081DDE090858D60908C3
S3150800AFA062D6090867D6090830B50B6804460D4607
S3150800AFB085B06BB954F8080F8AF02BFD05460DB914
S3150800AFC0002015E02946204659F02BFF2D69F6E7A3
S3150800AFD028461D4972F0C4FC60B16946686872F07B
S3150800AFE08FFC28B96946A0688AF09DFD0028E7D03D
S3150800AFF005B030BD2846154972F0B2FC50B1694615
S3150800B000686872F07DFC0028F2D16946A0688AF06B
S3150800B01098FDEDE728460E4972F0A2FC40B154F8B7
S3150800B020080F8BF0F2FF0146204659F0FAFEC7E7F3
S3150800B0302846084972F094FC20B154F8080F8CF0A1
S3150800B04008F8F0E72320D3E766070A081DDE090893
S3150800B0506DD6090873D6090830B50B6804460D463F
S3150800B06089B07BB9019300F13805A06802AA01A945
S3150800B07089F0F0FE08B1002012E0284602A904F083
S3150800B08039FCF2E72846204972F06AFC50B102A959
S3150800B090281D59F0BDFF18B9A06802A989F0ACFEB1
S3150800B0A009B030BD2846194972F05AFC50B1686893
S3150800B0B002A972F02FFC0028F2D1A06802A989F033
S3150800B0C0F5FEEDE72846124972F04AFCD0B16868E9
S3150800B0D040B954F8080F8BF0ECFF0146204659F0AA
S3150800B0E0B2FEC8E702A972F015FC0028D8D19DF86F
S3150800B0F01830402B04D1A06802A98CF0F9F8CFE7E4
S3150800B1000720CDE72320CBE766070A0855D50908A7
S3150800B11079D60908024B186800B9FEE7704700BFE0
S3150800B12030AB00202DE9F04F074687B080688AF0DB
S3150800B13058FC4FF005080446274EDFF8B890DFF8AC
S3150800B140B8A0DFF8B8B0B8F1010807F1080506F1AC
S3150800B150080620D12846226E204959F0A3FE284623
S3150800B160626E1F4959F09EFE2846A26E1D4959F087
S3150800B17099FE2846E26E1C4959F094FE2846226F2D
S3150800B1801A4959F08FFE2846626F194959F08AFE06
S3150800B19007B0BDE8F08F4946284656F8042C59F002
S3150800B1A021FE56F8083C6A462344D3E9000159F0C3
S3150800B1B0F1FD51460246284659F014FE56F8083C59
S3150800B1C06A462344D3E9020159F0E4FD594602468A
S3150800B1D0284659F067FEB6E7B4F109089DD609086E
S3150800B1E0A8D60908BAD60908CBD60908D6D60908B2
S3150800B1F0E8D6090883D6090887D6090893D6090820
S3150800B2000B682DE9F34104460D4693B908342046E8
S3150800B2107B4959F047FE20467A4959F043FE2046B5
S3150800B220794959F03FFE2046784959F03BFE0020FF
S3150800B23010E02846724972F093FBA8B16B681BB9F7
S3150800B2402046FFF76FFFF2E77149281D72F088FB69
S3150800B25018B9072002B0BDE8F081AB68002BF8D119
S3150800B260A0688AF0B7FCE2E72846674972F078FBDF
S3150800B270002846D06B68002B36D154F8080F8AF0A0
S3150800B2801CFD644902680546204659F00BFE112745
S3150800B290614EDFF8A081013F06F1080618D1204665
S3150800B2A06A6C5E4959F0FEFD11275D4EDFF8848110
S3150800B2B0013F06F10806BAD056F8083C4246EB5854
S3150800B2C004210093204656F8043C59F0FCFDEFE7AC
S3150800B2D056F8083C4246EB5804210093204656F897
S3150800B2E0043C59F0F0FDD6E74949281D72F038FBB1
S3150800B2F00028AED0AB68002BABD1A0688AF058FE08
S3150800B30095E72846414972F02BFB002848D06B6820
S3150800B310BBBB54F8080F8BF0D8FE0B270646414DE9
S3150800B320DFF81481013F05F1080511D106273E4DC6
S3150800B330DFF80881013F05F1080513D120463B498E
S3150800B34059F050FDD6E91023204659F061FD6EE705
S3150800B35055F8083C41462046F35A55F8042C59F04E
S3150800B360A1FDDFE7204655F8042C414659F03AFD81
S3150800B37055F8083C20463344D3E9002359F048FDE4
S3150800B380D8E72349281D72F0EBFA00283FF461AF8D
S3150800B390AB68002B7FF45DAFA0688CF096F846E7A3
S3150800B3A02846184972F0DCFA00283FF452AF6B6859
S3150800B3B0BBB954F8080F8BF070FE052607461C4DDE
S3150800B3C0DFF87080013E05F108053FF430AF55F807
S3150800B3D0083C41462046FB5855F8042C59F062FDB6
S3150800B3E0F0E70B49281D72F0BBFA00283FF431AF8D
S3150800B3F0AB68002B7FF42DAFA0688CF05BF816E7DE
S3150800B4009D020A0897E40908A3E40908B0E40908B4
S3150800B410A3DF0908F9D6090834F109080ED709087F
S3150800B420B4F0090864F009083CF0090832D709089D
S3150800B4301CF0090806D709081BD7090822D70908E6
S3150800B44038B50C4600F10805284605F013FE228A91
S3150800B45028461D4959F0C6FCA37C2846032B96BFEF
S3150800B4601A4A1B4A52F823201A4959F0BBFCE27CB7
S3150800B4702846194902F0010259F0B4FCA37CE3B945
S3150800B480E37C5B0714D528461449626959F0AAFC7F
S3150800B490284604F1180105F0EDFDA37C032B07D11E
S3150800B4A0E37C2846628D0E49C3F3400359F09AFCA3
S3150800B4B02846BDE8384005F09DBD2846228D094935
S3150800B4C059F090FCE9E700BF90DB0908E8EF0908A6
S3150800B4D0800A0A0803DA090847D7090854D7090869
S3150800B4E074D7090868D7090830B50B6897B0009370
S3150800B4F08B880E49ADF804300D4B00F10804002A7C
