S01900006275696C642F64656275672F6F742D7263702E73333711
S315080060000810002015A200086D9600087196000871
S3150800601017C30108759600087D96000835AC010877
S3150800602035AC010835AC010835AC010835AC0108BA
S3150800603081960008AC07020835AC010835AC0108A2
S3150800604035AC010835AC010835AC010835AC01089A
S3150800605035AC010835AC010835AC010835AC01088A
S3150800606035AC010835AC010835AC010835AC01087A
S3150800607035AC010835AC010831E50008A3C60108AE
S3150800608035AC010835AC010835AC010835AC01085A
S3150800609035AC010835AC010835AC010835AC01084A
S315080060A035AC010835AC010835AC010835AC01083A
S315080060B035AC010835AC010835AC010835AC01082A
S315080060C035AC010835AC010835AC010809A900084A
S315080060D035AC010835AC010835AC01084DA50008FA
S315080060E02DA5000835AC010835AC010835AC01080A
S315080060F035AC010821550108F55D0108BFD901082D
S31508006100BBD9010869550108D5D90108C3D90108C1
S31508006110C55D0108C7D90108355E01089D5E0108FD
S3150800612035AC010835AC010835AC010835AC0108B9
S3150800613035AC010835AC010835AC010835AC0108A9
S3150800614035AC010835AC010835AC010835AC010899
S3150800615035AC010835AC010835AC010835AC010889
S3150800616035AC010835AC010835AC010835AC010879
S3150800617035AC010835AC010835AC010835AC010869
S3150800618035AC010835AC010835AC0108C9EA010887
S315080061903541010835AC0108A9D90108AFD901086C
S315080061A035AC010835AC010835AC010835AC010839
S309080061B035AC0108F3
S315080061C0F0B5114A114C124E00F00105E3695F075C
S315080061D013D40DB9334213D103EA00078F4207D10E
S315080061E00B4A1A40002A14BF6FF001000020F0BDC8
S315080061F0013AEBD16FF00200F9E74FF0FF30F6E70E
S315080062006FF00100F3E700BF809698000000035086
S31508006210020001000B4B70B5D96911F480310DD11C
S3150800622001244FF48072084E084DF46020462C6411
S315080062301A61FFF7C5FF3464EC6070BD6FF00100AA
S31508006240FBE700BF00000350001003500020035076
S315080062504FF4803238B50E4B0E4C9A66E56941F616
S31508006260713315400122E3630B4B0021DA600223E8
S31508006270606121202361FFF7A3FF10B92120FFF7F2
S315080062809FFF0122054BDA600DB10023E36338BD99
S3150800629000900050000003500010035000200350E7
S315080062A070B5134C6061E3695B071ED40E4656F859
S315080062B0043B8D18A361AE420BD104230021212093
S315080062C02361FFF77DFF58B9BDE870402120FFF72D
S315080062D077BF08210846FFF773FF10B1042323612F
S315080062E070BD56F8043BA361E5E74FF0FF30F7E7CA
S315080062F0000003502DE9F84316464FF48032184B38
S3150800630089469A6603F51C33DA69074602F480382B
S3150800631041F67132DA63012203F58053114DDA60D2
S3150800632066B930460122104BDA60B8F1000F03D087
S315080063300022A3F50053DA63BDE8F88307F5005495
S315080063402C40E41BB44228BF344649462246384608
S31508006350FFF7A6FF0028E5D12744A144361BDFE74F
S315080063600090005000E0FFFF0020035000000000EE
S31508006370000000000000000000000000000000000F
S31508006380013800D0FCE7704773B514F086F9044667
S3150800639000286ED13A4B01AE1A889B78ADF80420D6
S315080063A0B37001F0C1FF02F0E9FC02F047FC0546B4
S315080063B0344B036002F0B0FE284602F0D5FD00B962
S315080063C0FEE72DA3D3E900234FF0FF314FF0FF304E
S315080063D001F0B2FF02F036FC214602F08FFC14F001
S315080063E05FF9304602F082FD044600B1FEE7264B0F
S315080063F0264A98801860264B98801A60254B264AAC
S3150800640098621A60254A98806FF06300DA6000F097
S3150800641061F90B2002F064FC02F0C2FC02F008FCF1
S3150800642000B9FEE707F020FE204614F0FFFA08211F
S31508006430084614F000FB00B1FEE714F0F5FA02F086
S315080064404DFB14F03BFA1021154815F0ADFF00B9C5
S31508006450FEE71449124815F0B9FF00B9FEE7102106
S315080064608C20114A07F00CFC00B1FEE70F4810F02B
S3150800647072FB02B070BD00BF0AE020FF22020000D6
S315080064806C04020855A8010810250020153C0020B8
S31508006490E0240020B0240020953B0020A024002002
S315080064A0642900206DE8010854290020E3F2010858
S315080064B00348044B834202D0034B03B11847704785
S315080064C0C0400020C040002000000000064B0749DD
S315080064D0C91A891048BF0131491003D0044B0BB1C2
S315080064E001481847704700BFC0400020C040002040
S315080064F00000000010B5064C237843B9FFF7D8FF13
S31508006500044B13B10448AFF300800123237010BD78
S31508006510563B002000000000B44E020808B5054BA3
S315080065201BB105490548AFF30080BDE80840FFF7F1
S31508006530CDBF00BF00000000F0270020B44E0208BF
S31508006540A3F5803A704700BF174B002B08BF134BC3
S315080065509D46FFF7F5FF00218B460F461348144A60
S31508006560121A16F06AF90E4B002B00D098470D4BFD
S31508006570002B00D098470020002104000D000D488C
S31508006580002802D00C48AFF3008008F009FB200071
S31508006590290016F08FF808F0AFF900BF00000800D0
S315080065A0000000000000000008100020081000206D
S315080065B0003D0020000000000000000010B5044661
S315080065C014F049F82046BDE81040014901F05CBCCA
S315080065D09968010838B5084DD5E8AF3F13F00104AE
S315080065E008D1284614F088FA20B1044B28461C60C6
S315080065F014F087FA014838BD082800200C28002026
S3150800660070B51348D0E8AF4F14F0010418D114F050
S3150800661073FAA8B10F4D2E4646F8044B30191022CE
S315080066200021103416F009F9A02CF7D10B220A4BD9
S31508006630013A194603F1100304D1054814F061FA2A
S31508006640044870BD286843F8100C2960F0E700BFBD
S315080066501028002014280020182800202DE9F041D1
S31508006660884615461E4610F078F9074650B35EB3BD
S315080066700379990748BF86F80080C3F34004037975
S3150800668048BF01245A070ED5114B294693F9000035
S3150800669011F016FD822302B2C2EB0222B2FBF3F21C
S315080066A032559CB901243B791B0708D582228235CD
S315080066B0C5EB0525B5FBF2F5631C3555DCB220465E
S315080066C0BDE8F0810446FAE73446F8E70224F6E71F
S315080066D0573B0020014B187010F063B9573B002058
S315080066E070B5049D0C46014600B12DB9C621064B6E
S315080066F0064A074808F0E2F8049328461346224655
S31508006700BDE8704000F014BAC8EC0108D9ED0108DC
S315080067103AED010808B530B940F20911074B084AA5
S31508006720084808F0CBF8038823F4FF4343F4506382
S31508006730038004230370062008BD00BF3DEE010850
S315080067404EEE01083AED0108131D70B5DBB214468A
S3150800675030B940F217110D4B0D4A0E4808F0AEF845
S31508006760068803F07F0326F4FF46068003709B2302
S315080067708370B823C370EA2303710023437111B1F0
S31508006780063016F06DF8A01DC0B270BD3DEE0108CA
S3150800679080EE01083AED01080048704750FC0108F0
S315080067A0014802F085BC00BF0810002008B5C36A7E
S315080067B023B1034802F082FC002008BD0D20FCE747
S315080067C008100020C36A13B1024802F05FBC0D200E
S315080067D0704700BF0810002008B5C36A23B10348F4
S315080067E002F078FC002008BD0D20FCE70810002008
S315080067F0C36A13B1024802F017BE0D20704700BFE6
S3150800680008100020C36A13B1024802F051BE0D20D9
S31508006810704700BF0810002008B5C36A23B10348B3
S3150800682002F068FE002008BD0D20FCE708100020D5
S3150800683008B5C36A23B1034802F004FF002008BD67
S315080068400D20FCE7081000200FB407B504AB53F879
S31508006850042B01210448019310F0E7F903B05DF811
S3150800686004EB04B0704700BF94FC010825289ABFC2
S31508006870024B53F820000248704700BFA0FC0108ED
S31508006880CDEE0108F0B50D460646ABB0144604A990
S31508006890962202A81F4610F004FA194B19495A5DA8
S315080068A002A810F026FA0E21304610F0EEF9164B23
S315080068B00E22034400931549334602A810F019FA2C
S315080068C01CB1134902A810F014FA3946309A02A8E6
S315080068D010F0EEF93CB12046FFF7C8FF0D49024615
S315080068E002A810F006FA0C4A0C4902A810F001FAA0
S315080068F010212846094A04AB01F0AEF92BB0F0BDC9
S3150800690038FD01089CF001083EFD0108A2F00108C7
S31508006910ABF00108B6F00108BCF20108B9F00108AD
S3150800692037B54FF6FF720C4D04462B88934200D1BB
S31508006930FEE753B904210DEB010013F09EFC00B1EC
S31508006940FEE70199054810F079F920462B880133AE
S315080069502B8003B030BD00BFE83A0020B8280020DD
S31508006960034B1B8803B9FEE7024810F071B900BF54
S31508006970E83A0020B8280020036823B901600448D3
S31508006980496010F0F9B85A684A6059600160704762
S31508006990081000204368014613B90248FFF7ECBF08
S315080069A0704700BF0C100020036870B505460C46FA
S315080069B023B9BDE870404B68084818478B68984764
S315080069C02B6801465A68831A002BB8BF121A236827
S315080069D0A8BF0022BDE870400048184708100020EC
S315080069E04160024A0146024810F0D2B95CFD01082E
S315080069F01010002010B5044610F04BF830B104F121
S31508006A0008000349BDE8104010F0F1B910BD00BFF9
S31508006A105CFD01084160024A0146024810F0B8B917
S31508006A2050FD0108141000200146024A024810F0E1
S31508006A3089B900BF50FD01081410002010B504469E
S31508006A4010F027F830B104F10C000349BDE81040F6
S31508006A5010F0CDB910BD00BF50FD010810B50446B1
S31508006A6001F02EFB002301466360064B206004F10B
S31508006A7008002061A36001F18041FFF7B1FF2046BD
S31508006A8010BD00BF896A0008014810F0DDB900BFD3
S31508006A901C10002010B5064C94F8C8302BB92046B7
S31508006AA010F0F9FB012384F8C830014810BD00BF77
S31508006AB0081000200048704708100020002310B571
S31508006AC00446064AC0E90233C0E90023103000F044
S31508006AD0F1F8204610F009FC204610BD0B00FFFF18
S31508006AE010B444682CB122B9234603485DF8044B18
S31508006AF018475DF8044B70470810002038B58568BC
S31508006B0004461DB10248A8470023A36038BD00BF4C
S31508006B1008100020436810B504462BB1C3681BB1A2
S31508006B20024898470023E36010BD00BF0810002004
S31508006B302DE9F0478EB00C460546914600212222E3
S31508006B4005A898469DF8586015F077FE002320683A
S31508006B508DF810308DF803308DF8043010F077FC7E
S31508006B6000F44053B3F5005F40F08580830640F19A
S31508006B708280204602A910F011FD9DF81030002BE6
S31508006B8079D0012B05D14FF6FF73BDF808209A423C
S31508006B9071D020460DF1220110F085FD0746002828
S31508006BA069D19DF82A30002B65D0D4F800A050464C
S31508006BB010F04FFC00284ED1504610F048FC024613
S31508006BC010F00BFD002858D020460DF1060110F0F4
S31508006BD03AFD00284FD1BDF806100BA811F0B0F801
S31508006BE0A37920220021AB7105F1080015F025FED6
S31508006BF02F4B294605939DF8033005A88DF83230AA
S31508006C009DF804308DF8333010F0ABFD4946284620
S31508006C1010F02AFC311E18BF0121284610F035FC59
S31508006C20204610F099FC0146284610F09FFC206883
S31508006C3010F00FFC50B120460DF1050110F000FFD1
S31508006C40C8B928469DF8051010F00EFF66B3B8F1CE
S31508006C50000F1DD1FEE720460DF1030110F0A7FE37
S31508006C6048B99DF80330052B05D1204601A910F037
S31508006C70AEFE0028A0D0062716E0104610F020FC2D
S31508006C800028ADD020460DF1060110F057FCA0E70C
S31508006C90284610F08DFF2C6832464146204415F0F0
S31508006CA0DFFDAB881E44AE8038460EB0BDE8F087DF
S31508006CB00200002038B504461B480D4613F0C1FEF5
S31508006CC02080194801F03CFC29460025A06104F102
S31508006CD01C0011F066F929461022C4E9085504F18A
S31508006CE0280015F0AAFD2946102204F1380015F0EF
S31508006CF0A4FD2946102204F1480015F09EFD2346FE
S31508006D000A4A204643F8602FA3662346084A43F8F2
S31508006D10842FC4F88C30FF2384F8803084F88130BF
S31508006D2011F028F8204638BD08100020F570000834
S31508006D30FD720008014801F02FBB00BF08100020B3
S31508006D40C180014800F042BB1910002002898A421E
S31508006D5003D00181014811F0A5B970470810002039
S31508006D600A68C0F80A204A68C0F80E20014800F0F0
S31508006D70CBBA00BF19100020837C61F3000383742B
S31508006D800388DB0502D5024811F099B9704700BFA0
S31508006D9008100020837810B5044663B9074801F047
S31508006DA055FB50B9054802F071F930B9A378012BA3
S31508006DB001D00123A370002010BDFEE708100020B3
S31508006DC010B504468430FFF72FFE04F16000FFF784
S31508006DD02BFE064802F05AF930B9044801F042FB86
S31508006DE010B9A37803B1A07010BD00BF0810002029
S31508006DF010B50446044801F043FB20B9A378022BDA
S31508006E001CBF0223A37010BD0810002038B501234B
S31508006E10044603FA01F100200FF028FF4FF4A0738F
S31508006E2003FB00F5A37CDB070BD5A3690748997913
S31508006E3001F026FB294604F16000BDE838400FF052
S31508006E40F7BF024802F022F9F4E700BF0810002055
S31508006E50837810B503F0FB03032B044620D103887F
S31508006E60DB0612D50423A370A1690E4800F0D0FAF8
S31508006E700D2808D1A1694B6933B100230948C1E936
S31508006E80043300F0C5FA58B1FEE7836906489979D4
S31508006E9001F0F6FA00B1FEE7A378042BE4D0E1E7A7
S31508006EA010BD00BF1910002008100020837810B507
S31508006EB0044683B1033B042B0DD903889B070CD5E5
S31508006EC0074813F055FCA378052B01D1002010BD07
S31508006ED00523A370FAE70D20F9E70C20F7E700BFB2
S31508006EE008100020038810B59B07044600D5FEE766
S31508006EF0104801F029FB7F2806D094F913307F2B20
S31508006F0001D0984200DDE07401F0DAF86369C01A2E
S31508006F10002807DA616E04F160008022BDE810409F
S31508006F200FF080BF204694F91310BDE8104010F00A
S31508006F3072BF00BF081000202DE9FF470829054643
S31508006F40DDE90C890F4692461C4603D011F0EF0F77
S31508006F5013D0FEE780F85C2000F128060FCB86E800
S31508006F600F0005F1380698E80F0086E80F0005F1CE
S31508006F70480699E80F0086E80F00284610F054FFE7
S31508006F8048B9CDE901902346524639460348CDF81B
S31508006F90008013F001FC04B0BDE8F087081000205B
S31508006FA02DE9F7431E46044660300D469046FFF726
S31508006FB03BFD0E2E52D004D8002E4FD00B2E10D0EB
S31508006FC0FEE70F2EFCD100212B7F5A0704D5AA799C
S31508006FD004F11C0010F0E6FF42462946204611F04F
S31508006FE030F82946204610F0AFFF0023E3702379D6
S31508006FF0002E35D0204610F01FFF074620B16F7EC1
S315080070009F4294BF0027012704F11C0932462946EE
S315080070104846009710F0C7FF57B323790E2E03F1A1
S31508007020010323712B7F43F002032B771AD1A37830
S315080070302046062B18BF062394F85D1018BFA370C8
S31508007040FFF7E4FE94F85D300133DBB2052B28BF69
S31508007050052384F85D3003B0BDE8F0830121B3E76A
S315080070603746D1E7204603B0BDE8F04310F0B5BE79
S31508007070A378A97E022B1CBF0223A370AB798B428F
S3150800708005D0A37CDB0702D5054801F0F9F933469C
S3150800709042462946484603B0BDE8F04300F05EB8CC
S315080070A008100020837810B5033B0446042B1DD82E
S315080070B0DFE803F0030718140300BDE81040FFF7E4
S315080070C0C7BE83690A48997901F0DAF92046A169A9
S315080070D00E23BDE810400022FFF762BFBDE810404E
S315080070E010F07BBEBDE81040FFF7FCBE10BD00BF28
S315080070F0081000200148FFF7D5BF00BF4010002048
S3150800710008B512B1836D8B4200D2816510F08CFEF2
S3150800711048B905481AB1BDE8084013F047BBBDE8B1
S31508007120084013F041BB08BD081000208378082BDF
S315080071300BD190F86E10CB0904D0044801F07F01FA
S3150800714001F09EB9014801F0A1BF70470810002060
S315080071500148FFF7C5BC00BF301000200148FFF703
S31508007160CDBC00BF301000200148FFF7D3BC00BFDC
S315080071703010002038B5A0230546B0F86C40074803
S315080071805C4313F06DFC95F8801000230844A0FBBF
S315080071900401034A07F0D2F938BD00BF08100020E1
S315080071A040420F00A0232DE9F0410D46B0F86C606F
S315080071B0816F5E43491B044690468F19FFF7DAFF35
S315080071C0391A04F18400FFF725FC676FA36FB91914
S315080071D03344A3670B48616701F026FCA37813F0D4
S315080071E0FD0F0DD094F86E10A5F5167505EB08037E
S315080071F07A1B044801F07F01BDE8F04101F06AB945
S31508007200BDE8F08108100020F8B590F86E30044605
S31508007210DD09866F00F184070FD023F0800380F81C
S315080072206E30761AFFF7A6FF311A3846FFF7F2FBDB
S315080072302046BDE8F840FFF779BFA023B0F86C50A8
S31508007240911938465D43FFF7E5FB94F86E3043F035
S31508007250800384F86E3000F07DFF616FA36F2944C8
S315080072602B4403486167A36701F0DEFBE0E700BF34
S315080072700810002008B5024813F0DFFB08BD00BF60
S3150800728008100020A0232DE9F0410446B0F86C5000
S315080072900F4616465D43FFF7EDFFE36F6D08A0EB5B
S315080072A00308144813F0DCFB94F880100023084404
S315080072B0A0FB0801104A07F041F994F8813080468E
S315080072C003EB83030B485C0013F0CFFB03B203EB1D
S315080072D0830304EB430404EB080000F54673AB4252
S315080072E094BF3B603D60854294BF35603060BDE821
S315080072F0F08100BF0810002040420F00014810F03E
S3150800730061BE00BF4010002007B50122684610F094
S3150800731005FD6946024801F057F803B05DF804FB1D
S315080073200810002070B58AB006AD00211022064666
S31508007330284615F082FA244813F0C3FA014600B12C
S31508007340FEE7214801F0C6FE1F4802F0D3F81E48A2
S3150800735002F078F91C4813F072FB48B11A4801F09C
S3150800736095FE00B1FEE7184801F07CF800B1FEE78B
S3150800737000244FF6FF71144801F00EF8304604A9B0
S31508007380CDE90444FFF7C0FF4FF6FE710E4801F041
S3150800739049F8284610F0D8FC2B4622462146CDE966
S315080073A001540948009513F0F7F92146064813F0E9
S315080073B0FBF92146044801F081FE0121024810F03C
S315080073C07EFE0AB070BD00BF08100020014801F01B
S315080073D029B800BF0810002007B50122684610F03A
S315080073E09DFC6946024802F0C1F803B05DF804FB4B
S315080073F00810002007B50122684610F08FFC694680
S31508007400024802F0FFF803B05DF804FB08100020FC
S31508007410014801F02BB900BF08100020014810F000
S3150800742023BD00BF40100020014810F0E6BC00BF95
S31508007430401000200148FFF7B3BD00BF40100020F0
S31508007440014810F0E8BC00BF401000200048704713
S3150800745000F8FF077E2938B505460C4600680AD8A5
S315080074607C2903D801F0FD03112B06D18388012B53
S3150800747013D8032038BDF829F7E7214610F02AFE6D
S315080074800028F6D1AA88094B5440E4B233F81430E0
S31508007490002083EA1223AB80ECE77D2110F01AFE68
S315080074A0286884F0200110F015FEEBE768FD010856
S315080074B0F8B504460D468E18B54200D1F8BD2378B6
S315080074C015F8011B012B0BD0022B3CD0002BF3D156
S315080074D07E29F1D1012323704FF6FF732361EBE771
S315080074E07D2915D07E2916D060688788002F40D060
S315080074F0228A234F82EA0103DBB237F8133083EA84
S315080075001223238210F0E6FD638A01336382D3E7F0
S3150800751002232370D0E7638A002BDDD0012B10D01D
S315080075204FF2B803228A9A420BD1002163681A687F
S31508007530023A1A609A8802329A80D4E90230984749
S31508007540CAE70621F9E76068878897B1228A81F039
S31508007550200182EA01030A4FDBB237F8133083EAC7
S315080075601223238210F0B6FD638A01336382012356
S31508007570CFE70321A368E068984727709CE700BF18
S3150800758068FD0108012B10B5044608460AD0022BEF
S315080075900FD01BB963681044834200D910BD2289F5
S315080075A0801AF9E72368881A8342F7D92289104492
S315080075B0FAE79C21024B034A034807F07FF900BF0C
S315080075C0BCF00108C2F0010815F10108012B08B545
S315080075D00DD0022B15D0D3B98A4237BF4368511A4A
S315080075E05B1A01683CBF521AD11888B208BD8A4294
S315080075F089BF4368891A9B1A026884BF891AC91801
S31508007600F3E7C721034B044A044807F057F900215A
S31508007610EBE700BFBCF00108AEF1010815F101085F
S31508007620F8B5047F0546022C0E4605D1E6210E4B19
S315080076300E4A0F4807F042F92346B4FA84F4C76A9B
S3150800764001223946FFF79EFF6409083455F82430AD
S31508007650834203D03E70E8620020F8BD284610F049
S3150800766071FF0320F9E700BF08F2010824F20108B8
S3150800767015F101082DE9F047044610F0C3FE00286D
S3150800768041D1204610F0CAFE94F834700B2604EB5C
S315080076908709D9F83880D9F820A04546AA4508D0E0
S315080076A03A462946204610F0DFFD030411D5454524
S315080076B00FD0C9F83850204610F023FF002384F86D
S315080076C035304FF6FF736569E386B5B90020BDE826
S315080076D0F087C0F30D002946821C3B462046FFF77B
S315080076E051FF013E16F0FF060546D7D140F2453157
S315080076F0064B074A074807F0E1F823463A4641464B
S31508007700A069A847E2E71720E1E700BF57F201089A
S3150800771073F2010815F10108002330B5174C2568E6
S315080077208D4224D16568954221D1C3F12004D0E960
S315080077300225A3F1200105FA04F4DA40224325FACA
S3150800774001F10A4312F0010FC3F12004A3F120024C
S315080077500CD1012121FA04F401FA02F222439940DC
S31508007760D0E900430C431343C0E9004330BD01335D
S31508007770DBB21F2B04F10C04D1D1F7E76CFF01082B
S315080077802DE9F04700244FF0010C26461D4D95F8CB
S3150800779008E0BEF1000F22D02B688B421FD1D0E93A
S315080077A002A9A4F12003C4F120062CFA06F60CFA65
S315080077B003F333430CFA04F76FEA0708DE43BAB15A
S315080077C04AEA070749EA0303C0E90273D0E90073E6
S315080077D007EA08073340C0E9007331B97646013431
S315080077E01F2C05F10C05D2D14EB10020BDE8F0875B
S315080077F008EA0A0306EA0906C0E90236EDE70720A1
S31508007800F4E700BF6CFF0108002230B50F4B1C7A65
S315080078109CB11C688C4210D1C2F12004D0E9023513
S31508007820A2F1200123FA02F005FA04F4204325FA0E
S3150800783001F1084300F0010030BD0132D2B21F2A1F
S3150800784003F10C03E3D10020F6E700BF6CFF010843
S31508007850F8B506460446002546F8041B4FF40062B0
S3150800786000F1D101304610F0E3FC266504F154031B
S3150800787004F17402C3E9005508339342FAD1C4E906
S315080078801E55A4F8745004F1800010F0D9FEC823E0
S3150800789004212F4A4FF6FF77C4E928232D4B0022EF
S315080078A0C4E92B35002384F8C8102B49C4E92E23D4
S315080078B00968C4E93023C4F8CC1004F5176184F8C4
S315080078C09850C4F89C50A4F8A870C4F8B45084F82A
S315080078D0D050A4F8D258A4F84C5984F84F59A4F8B3
S315080078E0505984F85259C4F85859C4F85C59C4F820
S315080078F06059C4F8645984F86859C4F86C59C1E9E0
S315080079000023236803B9FEE7144B22463046144980
S315080079101C6010F09DFC7822002104F6D40014F0B7
S315080079208CFF7722002104F1B80084F8535984F8B3
S31508007930555984F8547984F84E5984F8D158FFF784
S31508007940EBFE04F1AC00FFF725F82046F8BD00BFB2
S3150800795000F8FF07497A000868FF0108BC280020DC
S31508007960F98E0108014B1868704700BFBC28002033
S31508007970013804289ABF024B185C0020704700BFE4
S31508007980E00002082DE9F84FD0E92E3213430446E9
S3150800799004D1012384F86839BDE8F88FB83011F0AE
S315080079A081F8002580464FF00109264FEBB2434582
S315080079B0EFD2D4E92E30C5F12001A5F12002EB4023
S315080079C000FA01F10B4320FA02F2134313F0010FF8
S315080079D0C5F1200AA5F1200602D10C370135E5E7E5
S315080079E03A682ABBD7F804B0BBF1770F06D12068EE
S315080079F000F068FC082898BF00F1700B5A468021F1
S31508007A00204611F0AFF90028C3D1D4E92E3209FA7D
S31508007A1006F629FA0AFA46EA0A0609FA05F123EAEF
S31508007A20010322EA0602C4E92E321343D5D1B0E790
S31508007A3094F86839002BE8D001238021204611F0FC
S31508007A40ABF9E0E76CFF0108014B1868FFF79ABF2E
S31508007A50BC280020022313B5B0F888208DF807301B
S31508007A60B0F8863004469A4206D00DF107018030F8
S31508007A7010F0FEFD00B1FEE79DF807302068022BE6
S31508007A8021D10FF00CF80023FF2194F8522904F1B4
S31508007A905000224482F8541982F84E3982F8533934
S31508007AA082F85539C4F85839C4F85C39C4F86039CD
S31508007AB0C4F8643910F0F3FF70228021204611F0D3
S31508007AC051F958B1FEE7032B03D10EF0E6FF02B0D9
S31508007AD010BD0EF0E0FF0022014B1A600020F6E709
S31508007AE0BC280020002337B505460DF10701803074
S31508007AF08DF8073010F0BCFD044618BB9DF807301A
S31508007B0003B3022B21D128680EF0CEFFD0B195F829
S31508007B1052392B4493F95429013218D1D5F8A010BB
S31508007B20B9B14A1E0A4214D1B1FA81F1C1F11F0155
S31508007B3083F85419B5F8A420074B2868C9B20EF083
S31508007B40C9FF0446204603B030BD0C24FAE70D24CD
S31508007B50F8E70724F6E700BF4D7D000873B504462D
S31508007B600E4680300DF1070110F082FD054690BBE8
S31508007B709DF80730022B1FD003D9DA1E012A88BFC9
S31508007B80032384F8C83000230C2284F8D030314609
S31508007B900123204611F000F994F8C830042B17D0B9
S31508007BA060B9201D10F02CFC0123C4F8CC0084F821
S31508007BB09830284602B070BD0123E2E70A4B1B68DD
S31508007BC0C4F8CC30012384F8983084F8D060F0E704
S31508007BD00028EED0F9E710F06FFF3146024620463E
S31508007BE011F0C0F80546E4E768FF010810B5044639
S31508007BF000680EF08DFF90B10A280AD84FF4FA6291
S31508007C00094910FB021104F15000BDE8104010F0BC
S31508007C1018BE192805D841F288320449F1E7044903
S31508007C20F1E70021EFE700BF40CB0D00B0DB2300F2
S31508007C30CC3F0D001346074A10B40446106828B115
S31508007C400A4621465DF8044B10F086BF0D205DF804
S31508007C50044B7047BC2800200CB470B5A8B02CABF8
S31508007C600D460C4953F8042B0E680446962102A8C3
S31508007C70019306F041FF002806DD2EB12A4621466B
S31508007C80304602AB10F0A7FF28B0BDE8704002B03E
S31508007C90704700BFBC28002010B504460B462A22B0
S31508007CA0024911F024FE204610BD00BF74020208E6
S31508007CB010B504460B461B22024911F018FE204651
S31508007CC010BD00BF3001020810B504460B4603225A
S31508007CD0024911F00CFE204610BD00BF0C01020837
S31508007CE010B504460B460322024911F000FE204651
S31508007CF010BD00BFE8000208084B70B51E680C46A8
S31508007D0001463046154610F0D1FE2B46014622465E
S31508007D103046BDE8704011F09ABE00BFBC2800206E
S31508007D20F7B51E46084B0C461F68014638461546E9
S31508007D3010F0BCFE2B46014622463846009611F046
S31508007D40A3FE03B0F0BD00BFBC28002038B5074B22
S31508007D500C461D680146284610F0A8FE2246014634
S31508007D602846BDE8384011F0FBBE00BFBC280020FD
S31508007D70002313B504460DF1070180308DF807304E
S31508007D8010F086FC014630B99DF8073020682BB9FB
S31508007D900EF087FE0146084602B010BD0049F7E717
S31508007DA0F97C000811F0300F38B504460D4600D0AE
S31508007DB0FEE700680EF078FEA0B120680EF082FE9D
S31508007DC00146D0B1204611F0D6FF034658B90C49F2
S31508007DD020680EF079FE034628B905F00F0584F8E9
S31508007DE0535938BD0D23184610F066FE294602463B
S31508007DF02046BDE8384010F0B5BF0323F3E700BFBF
S31508007E00217D000838B504461546FFF721FD04F61E
S31508007E108213C4F87C394FF40063C4F8785904F522
S31508007E208C5004F58C55A4F8803904F67C110C3571
S31508007E30043010F05CF9284610F08CF904F58D51E1
S31508007E40043104F58053881DC3F8A4014FF400706B
S31508007E500022A3F8A8010948A3F8A021C3E9EC0267
S31508007E6083F8AC2328462346054A10F07AF9201DE4
S31508007E702246044910F0E9F9204638BDA5A00108B4
S31508007E8033A10108C79F010810B5064C0A460146EA
S31508007E902046FFF7B7FFFFF765FD844200D0FEE7EF
S31508007EA010BD00BFD81000202DE9F0410C46A0B047
S31508007EB01746984610F04AFE23468021184A684617
S31508007EC006F0E4FD684614F0D8FC69460246002030
S31508007ED06D46FFF7AFFE6E460024444501D0292CB7
S31508007EE012D124B204EB44040E49281914F0B0FC4C
S31508007EF0284614F0C2FC0DF10101421E0020FFF7CE
S31508007F0099FE20B0BDE8F081A4EB840130463B5DC4
S31508007F10054A803106F0BAFD01340336DDE700BFB5
S31508007F20A0F20108BAF20108B4F20108094B091ACD
S31508007F30891030B559430246002324258B4205FB98
S31508007F40032004D0046A04B130BD0133F6E70020EB
S31508007F50FAE700BF398EE33807B50A4600B9FEE7E7
S31508007F60037F03B1FEE7074B0190009341680123A5
S31508007F704FF0FF3014F099FE00B1FEE703B05DF84C
S31508007F8004FB00BF61E8010830B5044685B0084621
S31508007F9004B9FEE7237F03B1FEE703A9656816F077
S31508007FA073FA48B90123064ACDE900030399234623
S31508007FB0284616F043FD00B1FEE705B030BD00BF08
S31508007FC067E8010838B5174D174C202200212846C6
S31508007FD014F033FC18220021204614F02EFC002150
S31508007FE000200022114BC3E90001114B11491A77F1
S31508007FF0996011491A62D9601049C3E900251961C7
S315080080000F499A6159610F4B0F499A6199600F4957
S315080080101A77D9600E49C3E9002419610D491A6215
S31508008020596138BD282900201029002090240020F5
S31508008030EC280020897F00085DA1010837A1010806
S3150800804061A10108C8280020597F00084FA101082E
S3150800805055A10108A5A10108154910B5A1F12400EB
S31508008060FFF764FFA0B11249A1F12400FFF75EFFF4
S315080080700446A8B90F49A1F12400FFF757FF0446A3
S3150800808068B120460C4912F070F820460949F4E711
S315080080900849A1F12400FFF749FF0028E3D110BDE4
S315080080A02046064912F061F820460149DEE700BF7E
S315080080B010290020EC2800203D6A0008F569000810
S315080080C0014B1B69184700BFEC2800202DE9F8432F
S315080080D00C461546804612F09DFC24234343104A5D
S315080080E0D1589F1809B942F80380002314EB0509F3
S315080080F0404643EB030612F08DFC0A4B03EBC00225
S3150800810043F83090566016F023FC06462A46384651
S31508008110214612F06CF83046BDE8F84316F013BC59
S31508008120EC2800209024002038B5054616F010FCEF
S315080081300446284612F06EFC2422054B02FB00304A
S3150800814012F025F82046BDE8384016F0FCBB00BF03
S31508008150EC280020014B1B69184700BFC8280020DF
S3150800816070B516F0E8FB05464FF0FF3014F074FFC3
S31508008170044608490B6808608342074B284682BFB5
S315080081801A6801321A601E6816F0D0FB204631467E
S3150800819070BD00BFC4280020C0280020F8B50D46D1
S315080081A01646044612F036FC24234343084AD1589F
S315080081B09F1801B9D45016F0CBFB04463246384610
S315080081C0294612F014F82046BDE8F84016F0BBBB65
S315080081D0C828002038B5054616F0BAFB04462846D6
S315080081E012F018FC2422054B02FB003011F0CFFFD9
S315080081F02046BDE8384016F0A6BB00BFC8280020B8
S31508008200064B10B51A783AB100241C700EF04CFBD8
S3150800821012F085FC204610BD0D20FCE7593B0020D6
S31508008220012337B500250F4C019523702378A3B198
S31508008230202229460C4814F000FB0C4820220A4943
S31508008240006801AB13F01BFA257020B9BDF80410BD
S3150800825005480EF027FB12F062FC03B0BDE830407B
S31508008260FFF7CEBF583B00205A3B0020EC3F0020CA
S3150800827070B50D46044698B191B10A4E33780BB1E4
S31508008280FFF7BEFF084B21462A46186813F0E6F9A1
S31508008290012408B93470044612F041FC204670BD2A
S315080082A00124FBE7593B0020EC3F002008B504F009
S315080082B0A1FC034B1860BDE8084013F02BB900BFBA
S315080082C0482900200E4B1B68D9070FD45A060FD42D
S315080082D013F0180F0ED199070ED49A060ED440F251
S315080082E08472134214BF0620072070470020704787
S315080082F00220704708207047012070470320704706
S3150800830048290020014815F093BB00BF4000010032
S315080083100021014815F078BB0A0001000021014838
S3150800832015F072BB6000010000200021014BC3E973
S3150800833000017047982400202DE9F04F144C9B4605
S31508008340D4E9006585EA030786EA020808EA000810
S315080083500F4058EA07038246894685B014D003922F
S3150800836000F060FC80B1039A4B46CDE9002B5246DB
S3150800837014F045FD014610B106480EF0E9FB86EA01
S3150800838008067D40C4E9006505B0BDE8F08F00BF6A
S3150800839098240020BDF2010870B50C46064612F076
S315080083A03BFB05460246214606480EF0D4FB21460D
S315080083B0304601F005F82946204600F05FFD00B179
S315080083C0FEE770BDEFF2010870B586B00E4612F0F2
S315080083D023FB0546114B06F1080403EBC00314F80A
S315080083E0012DB44203F8012BF9D1059523780C48E1
S315080083F0049363780393A3780293E378019323792C
S315080084000093E1796379A2790EF0A5FB2946204607
S3150800841000F03CFD00B1FEE706B070BD8B3B0020C6
S3150800842001F3010838B50C4612F0F6FA054602467D
S31508008430214605480EF08FFB2946204600F02EFD02
S3150800844000B1FEE738BD00BF23F3010808B512F0F6
S31508008450F6FA10B902480EF07EFB002008BD00BFF0
S3150800846039F3010808B512F0EAFA20B103480EF00C
S3150800847072FB002008BD0D20FCE700BF54F301087D
S3150800848038B504460D4612F0F9F810B10D24204609
S3150800849038BD204600F03EFB0028F7D1204600F004
S315080084A049FE0146284600F08FFC04460028EED116
S315080084B0284600F0CBFB044630B912F0E2F8034B2D
S315080084C09D71034B9D71E2E70124E0E7102500202A
S315080084D0E0240020F0B589B00D4617461E4600F088
S315080084E029FE0446FFF70EFF20BB2146284600F06A
S315080084F06BFC0446C0B9012012F0C3F8FF238DF8BF
S3150800850004300123284601AA04A90794CDE90244A8
S3150800851005948DF81C300497069600F01BFD30B9BB
S31508008520054B9D71054B9D71204609B0F0BD20464F
S3150800853012F0A7F80124F7E710250020E024002010
S3150800854000487047B02400207F2337B58DF80730E0
S31508008550084B04469D7912F091F830B91022294645
S3150800856020460DF1070300F0E5FA9DF9070003B070
S3150800857030BD00BF10250020F0B589B012F07EF896
S3150800858000B9FEE7354C236803B9FEE70122002748
S315080085909B8811460DF10B008DF80B3000F062FC3C
S315080085A09DF80B10236802390022186889B200F07A
S315080085B059FC2B4B059706932368079793F82C20AD
S315080085C005AE8DF814201B681D78C5F3401512F00A
S315080085D05CF838B100F0F0FB384612F052F838462D
S315080085E012F056F822685369FBB912F06AF8236844
S315080085F0A8B11C4F1B7EBB7000F0D8FBF870206832
S3150800860033463A462946807900F00EFC18B34FF4F3
S315080086108051002016F041F912F081FA1BE032462B
S315080086202946987900F0F6FBF0E7002104911169D4
S315080086300D480B449621A3F59B738180039390798B
S315080086402946094B009603AA00F0FCFB0028DED158
S31508008650012012F041F809B0F0BD00BF50290020F2
S3150800866020A107006C3F0020603F00202DE9F84F4D
S3150800867005460E4600F05EFD0746284612F0CAF982
S3150800868000B1FEE7404CA64200D0FEE732683F4BF9
S315080086909A4200D0FEE7237F9A070DD4642384F814
S315080086A02C303946A07900F08FFB0746002868D1A0
S315080086B011F0E4FF68B1FEE794F82C30022B01D8DC
S315080086C05023ECE7023BDBB24F2B84F82C30F7D96A
S315080086D0E7E712F00AF8207F2D4EC0F38000A56266
S315080086E0346011F0F1FF217F2846C1F3C00100F084
S315080086F00DF9284600F03AF978B13468636963B928
S315080087004FF0FF3014F0A8FC40F6B8323368206109
S31508008710012128465A6100F0F9F83368D3F8288011
S31508008720D3E9049A404600F021F9A0B1D6F800B082
S315080087309BF81C30DB070ED4404600F017F909EB0E
S315080087400A010446A031404600F016F9A1B20246D5
S3150800875058460EF06FF93068816A00F043FD16F04E
S31508008760F7F80446012011F0A1FFFFF705FF2046A0
S3150800877016F0E9F811F0D9FF18B1284602490FF0AA
S3150800878077FC3846BDE8F88FB0240020953B0020DA
S31508008790502900202DE9F04106464C4F4C4813F06D
S315080087A06AFE30B34FF4F85015F042F9E0B111F013
S315080087B0A1FF484F054600286DD03B6800201B687E
S315080087C0454D1B78002413F0200F08BF002511F033
S315080087D095FF002339682A46C1E90433886A234687
S315080087E00FF04DFC12F09BF93046BDE8F04100F061
S315080087F007BA3870364813F023FE044600B9FEE778
S31508008800364D037BEA7DC3F3800363F34102EA75C1
S31508008810037B03F0FB030373EA7DDB0963F30002C2
S31508008820EA75037B03F07F0303734378AB71034652
S3150800883013F80C2BAA802B6090F90330284A6B7525
S3150800884013708378274AAB7513704368D0F808808D
S31508008850AB62FFF785FC804528BF01F1FF31C5E90A
S31508008860028106B9FEE7304600F096FD28753046C7
S3150800887000F09CFD2861194812F020F920B930460D
S315080088803A7816490FF0EDFB2146174813F021FCFC
S3150800889012F045F982E711F036FF044648B128463A
S315080088A011F035FF0F24214610480EF057F9002520
S315080088B08FE711F031FF20B1204611F031FF0E2469
S315080088C0F1E711F036FF0B24EDE700BF143C00205A
S315080088D06429002050290020E024002010250020CB
S315080088E0933B0020943B00205429002091F3010873
S315080088F0122208B50021044813F09FFF4FF6FE73B5
S31508008900014A22F8023C08BDB2290020014B99729F
S31508008910704700BFB02900201FB5084601A90EF010
S315080089205EF8E8B99DF80C30012B04D0022B0ED066
S3150800893005B05DF804FB4FF6FD720A4B1B8893429F
S31508008940F6D8BDF80400C31A58425841F0E7082281
S31508008950054901A813F048FFB0FA80F04009E7E797
S315080089600020E5E7B0290020B2290020014BD8688D
S31508008970704700BFB029002038B5A0230D4DEC681C
S315080089805C4311B9FFF7E6FB01462B69B3FBF4F22A
S3150800899004FB1233B1FBF4F204FB12112344581AF8
S315080089A0B0FBF4F304FB1300A023B0FBF3F080B292
S315080089B038BD00BFB029002038B5084C1546E36815
S315080089C04BB1FFF7A9FF30B101232846A372BDE8D2
S315080089D03840FDF79FBE0020A07238BDB0290020A0
S315080089E02DE9F041DFF83C800D4698F80A101F463D
S315080089F006469DF8183099B1E03202EB431412F09E
S31508008A0017F8A4EB471421183046B8F80C80FFF77E
S31508008A10B3FF414602462846BDE8F0410EF00AB8C3
S31508008A20BDE8F081B0290020014B1961704700BFED
S31508008A30B029002008B500F035F930B1044BB3FB76
S31508008A40F0F083B20BB1184608BD0120FCE700BF61
S31508008A5040420F0013B50446064800F039F9FFF7FF
S31508008A60E9FF0122C100044B0094024800F020F9F6
S31508008A7002B010BDC8290020B3A90108036810B5C3
S31508008A80012B044602D1024800F022F9204610BD07
S31508008A90C829002070B50446E8B10368022B1AD12C
S31508008AA043790D4D05EB830583797BB111F03CFFC6
S31508008AB006462479284664B211F028FF2146304636
S31508008AC00FF0E9FABDE8704012F029B82846BDE86B
S31508008AD0704011F01BBF70BDC429002008B51822CC
S31508008AE00021044813F0A9FEBDE80840024811F029
S31508008AF00DBF00BFC8290020C429002008B511F001
S31508008B0089FF00B1FEE70248BDE8084011F0FEBE45
S31508008B10C429002008B511F07DFF00B1FEE7044B1B
S31508008B20186818B10068431E5842584108BD00BF6E
S31508008B30C42900202DE9F34706460D4690461F46F0
S31508008B4011F068FF00B1FEE727B3DFF85890D9F8AF
S31508008B5000A0BAF1000F22D1182013F093FA0446A8
S31508008B602A4643463146CDF800A011F0AFFE20460E
S31508008B7011F0DDFE054670B9C9F800402368012BDF
S31508008B80FCD0237920463B70FFF784FF284602B0C5
S31508008B90BDE8F08722253046FFF7B0FFF6E7042543
S31508008BA0F9E700BFC42900202DE9F34105460C4624
S31508008BB0174611F02FFF00B1FEE7DFF84080D8F81E
S31508008BC00030ABB9182013F05DFA01230646224699
S31508008BD0294600933B4611F079FE304611F0A7FE70
S31508008BE0044630B9C8F80060204602B0BDE8F081F6
S31508008BF004242846FFF782FFF6E700BFC4290020B1
S31508008C0008B511F007FF00B1FEE7054B186830B14B
S31508008C100368022B03D1BDE80840FFF73BBF08BD38
S31508008C20C4290020014B1868704700BF902A00200D
S31508008C30014B1868704700BF8C2A0020004870470F
S31508008C40E829002000487047E02900201FB5FF23C7
S31508008C508DF804300023CDE90233084B014601AAFA
S31508008C60186814F040F8044628B905480DF073FF53
S31508008C70204604B010BD0120FBE700BF902A002063
S31508008C80AEF30108024B0A460146186814F007B904
S31508008C90902A0020024B4142186814F028B800BFF9
S31508008CA0902A0020014B186814F0C3B8902A0020B7
S31508008CB013B5049CCDE9003413460A460146034819
S31508008CC0006813F0F2FF02B010BD00BF902A002022
S31508008CD0024B0146186813F0F8BF00BF902A00201F
S31508008CE0024605480179914204D84179914238BF34
S31508008CF00020704700207047E0290020F8B5044698
S31508008D001C4E23680F463068FBB1972114F02EFAE3
S31508008D10024600B1FEE72168306806F011FD00B191
S31508008D20FEE72168306814F06DF82179814200D099
S31508008D30FEE7306806F0C4FE00B1FEE7012230689F
S31508008D40114614F047FA28B1FEE707F0A9F90546D7
S31508008D5008B1FEE7012503223068114614F02AFA05
S31508008D607F2F03D03946284611F08FFE024B1C6030
S31508008D70F8BD00BF902A00208C2A00200022034B51
S31508008D801A6041F60B229A80704700BFE02900203E
S31508008D90024B0146186814F04ABA00BF902A002010
S31508008DA0014B1860704700BF8C2A0020014B93F9CD
S31508008DB000007047AA400020024B012200211868D3
S31508008DC013F06EBF902A002038B50D46FFF788FFCE
S31508008DD0044678B1084B1B68834204D1284611F033
S31508008DE04BFE002038BDFFF7E7FF29462046FFF770
S31508008DF085FFF6E70720F5E78C2A0020014B18685F
S31508008E0006F0F0BB902A0020014B186813F046BF05
S31508008E10902A002013460A4601460248006813F0C5
S31508008E205CBF00BF902A002007B5009313460A4688
S31508008E3001460348006813F052FF03B05DF804FBCF
S31508008E40902A002013B5049CCDE9003413460A463F
S31508008E5001460348006813F044FF02B010BD00BF86
S31508008E60902A002008B513460A46014602480068BB
S31508008E7014F0B8F808BD00BF902A0020024B0A4635
S31508008E800146186814F076B9902A0020024B0A4663
S31508008E900146186814F07AB9902A0020024B0A464F
S31508008EA00146186814F06CB9902A0020024B014656
S31508008EB0186814F071B900BF902A0020024B0A46C0
S31508008EC00146186814F090B8902A0020024B0A460A
S31508008ED00146186814F091B8902A0020024B0A46F9
S31508008EE00146186814F085B8902A0020024B0146FE
S31508008EF0186806F059BB00BF902A0020024B0146AD
S31508008F00186806F0F5BD00BF902A0020014B1868C6
S31508008F1013F0F8BF902A0020014B186806F004BE2B
S31508008F20902A0020024B0146186813F0C3BA00BF06
S31508008F30902A0020024B0146186813F07CBF00BF38
S31508008F40902A0020024B0146186814F04FB800BF5B
S31508008F50902A002013460A4601460248006813F084
S31508008F60C4BE00BF902A00204FF0FF3307B5019317
S31508008F70214B01461B8800220382204B1B68836114
S31508008F801F4B1B8843821F4B1B68C3618023838248
S31508008F9000F12403036201A806F0C8FA00B1FEE74F
S31508008FA01949019806F054FE00B1FEE7022101981E
S31508008FB013F03DFF00B1FEE71449019807F042F8A7
S31508008FC000B1FEE70121019814F006F900B1FEE7A9
S31508008FD00121019814F00EF900B1FEE700F0F2F84D
S31508008FE00121019806F008FB0198094B186000B9A1
S31508008FF0FEE703B05DF804FB2210020828100208F9
S315080090002010020824100208070011007004020844
S31508009010902A0020024B0146186813F0ECBF00BFE7
S31508009020902A002030B50C46154A85B0106851685C
S3150800903002AB002C03C304F1FF350DD103F0FEFD8E
S315080090402B46CDE9000102AA073412F8011D03F8E0
S31508009050011FA342F9D110E02A460A4B0A4913F820
S3150800906001098B4202F8010FF9D1082220460DEBBF
S31508009070020113F0B9FB0028E0D005B030BD00BFEF
S31508009080CBF301080900E00F0100E00F10B511F05D
S315080090900BFB044638B905480DF05DFD204611F076
S315080090A0F0FA15F0E5FB002010BD00BF39F3010802
S315080090B0014B1878704700BF953C002008B5044B53
S315080090C008461970FFF7F2FE00B1FEE708BD00BFBB
S315080090D0953C0020014B1970704700BF943C002056
S315080090E021B1034B00201B780B707047072070478F
S315080090F0AA400020014B002019707047AA400020A2
S31508009100014B1878704700BF953C0020014B187832
S31508009110704700BF943C0020102208B57F21034801
S3150800912013F08BFB7F22024B1A7008BD973C002078
S31508009130963C002007B50DF10600FFF7FBFEBDF8CB
S315080091400610084A084B0A4493F9003012F90B0C2A
S31508009150984203DB7F2B14BF1846002003B05DF846
S3150800916004FB00BF973C0020963C002070B50C46D7
S315080091700546164611F04EFCA4F10B030F2B0CD82E
S31508009180074B03EB00131919284601F80B6CFFF778
S31508009190D1FF11F071FC002070BD0720FCE700BF6D
S315080091A0973C002038B50D46044611F033FC044BB5
S315080091B01D542046FFF7BEFF11F05EFC002038BDA7
S315080091C0963C0020402208B50021054813F035FBDF
S315080091D04FF6FF73024A938782F83E3008BD00BFF8
S315080091E0942A00202DE9F0410546084611F012FCA4
S315080091F0064628460DF020FC002850D028460DF0DB
S3150800920022FC00284BD02B7FDA06C3F3001446D481
S3150800921028460DF0DCFBA0B128460DF025FC0746D4
S31508009220002840D0214B03EB86135B785A1E9042E8
S315080092300DD0834209D00133984232D00820BDE8C8
S31508009240F0811A4B03EB86135F78012300E023466F
S3150800925003EB8603154C1B010C332344AB602B7FB1
S31508009260DB0716D428460DF0B2FB4FEA861828B15C
S3150800927004EB08035A6804F808709A6039462846C9
S3150800928044440DF0FEFB616828464B1C63600DF0F4
S31508009290FAFB0749284601EBC60111F075F90020CB
S315080092A0CDE70223D4E70120C9E700BF942A0020AE
S315080092B08B3B002038B50C4611F0ACFB054615F083
S315080092C047FB044B03EB85135C60BDE8384015F09B
S315080092D03ABB00BF942A00202DE9F8430746DDE98A
S315080092E0086591461C4611F095FB80460CB106B1FF
S315080092F005B9FEE738460021FFF7DCFF23461B4F7A
S315080093004FEA881C0CF10C0207EB881888F80190C4
S315080093103A4404F1100E144618685968083303C411
S3150800932073452246F7D10CF11C0233463A441036EF
S31508009330144618685968083303C4B3422246F7D15D
S315080093400CF12C022B463A44103514461868596815
S31508009350083303C4AB422246F7D14FF6FF7367447E
S31508009360BB8787F83E30BDE8F88300BF942A002003
S3150800937038B50C4611F04EFB054615F0E9FA054BD3
S3150800938003EB85135A68A24238BF5C60BDE83840D3
S3150800939015F0D9BA942A002008B511F03BFB024B08
S315080093A08001185C08BD00BF942A002008B511F09A
S315080093B031FB024B03EB8013986808BD942A002002
S315080093C010B50C4611F028FB044B014623F8104053
S315080093D02246BDE8104002480DF0BDBB3A3B0020CE
S315080093E0D4F3010810B50C4611F016FB28220C4BD5
S315080093F033F810301C440B4BA4B202FB0030002398
S315080094000288A24201D182783AB901330A2B00F1C7
S315080094100400F5D14FF0FF3010BD18B2FCE700BFCD
S315080094203A3B0020123B00202DE9F04106460D4646
S31508009430FFF7D8FF80B209282BD9304611F0ECFA8D
S31508009440282300214343174F02333B4413F82120B6
S3150800945012B301310A29F9D14FF0FF34A0462A4642
S31508009460214611481FFA88F80DF078FBB8F1090F64
S3150800947016D8304611F0D0FA0A2303FB00440B4BEA
S3150800948033F810301D44012327F8245007EB8407CE
S31508009490BB700020BDE8F0810C460FFA81F8DEE7C4
S315080094A00320F7E7123B0020F2F301083A3B0020BD
S315080094B070B50E460546FFF795FF04460146324647
S315080094C00A480DF04BFBA3B2092B0DD8284611F01C
S315080094D0A3FA0A2202FB00440020054B03EB840290
S315080094E0907023F8240070BD0A20FCE717F40108E1
S315080094F0123B002010B511F08FFA044605480DF00E
S315080095002DFB28220448002102FB0400BDE8104078
S3150800951013F093B93EF40108123B002010B50C462F
S3150800952011F07AFA0F4B618833F8102023880B4420
S31508009530A1881944E3880B4428211A440A4B92B29D
S3150800954001FB003000230188914201D1817839B9A5
S3150800955001330A2B00F10400F5D14FF0FF3010BD9E
S3150800956018B2FCE73A3B0020EA3A00202DE9F04120
S3150800957006460D46FFF7D2FF80B2092832D9304693
S3150800958011F04AFA2823434300201B4F02333B4479
S3150800959013F820204AB301300A28F9D14FF0FF34D6
S315080095A0A0462A46214615481FFA88F80DF0D6FA2D
S315080095B0B8F1090F1DD8304611F02EFA0A22104BC1
S315080095C0698833F8103002FB00402A880A44A988C3
S315080095D01144EA880A44134427F82030012307EB8C
S315080095E08007BB700020BDE8F08104460FFA80F8BA
S315080095F0D7E70320F7E700BFEA3A002056F4010848
S315080096003A3B002038B50546FFF788FF0446014671
S315080096100A480DF0A3FAA3B2092B0DD8284611F073
S31508009620FBF90A2202FB00440020054B03EB8402E7
S31508009630907023F8240038BD0A20FCE775F4010869
S31508009640EA3A002010B511F0E7F9044605480DF08E
S3150800965085FA28220448002102FB0400BDE81040D0
S3150800966013F0EBB88DF40108EA3A002000F00CB8C4
S3150800967000F00AB800F008B800F006B800F004B820
S3150800968000F002B800F000B872B61EF0080F09D054
S315080096901EF0040F0DD0DFF850E0AEE8FF1F6FF0A4
S315080096A002000CE0DFF840E0AEE8FF1F6FF00E00A6
S315080096B005E0DFF834E0AEE8FF1F6FF00600694604
S315080096C0EFF309828EE8070086460848084C854568
S315080096D001D3A54501D384F3088800F075FA84F30D
S315080096E0088811F02AFA0000003D002048000020F2
S315080096F00810002008B500F0C3F9084A536A43F475
S3150800970070235362EFF308834FF0CD31044A043BCC
S31508009710934200D208BD43F80419F9E700ED00E0CA
S31508009720080000202DE9F0470025C2B002AE4FF42C
S3150800973080720021304613F080F82F46DFF868A0C3
S31508009740DFF86880DFF868909AF8003033B915B109
S315080097503046FDF779F842B0BDE8F087104B07F0C0
S315080097600302032A18BF4B46019358F8043B4FF4EB
S31508009770807100930B4A5346701905F087F91AF859
S31508009780013B002BFBD17A1C12F00304D7B203D09D
S315080097902844C4B22546D7E73046FDF755F8F9E719
S315080097A0BCF20108A6F4010840060208003D0020A4
S315080097B0A3F4010840F60522F8B55D4B1B889342D1
S315080097C00ED8B3F5206F0CD840F20252934216D049
S315080097D040F2017293421CD040F20152934209D0E2
S315080097E0F8BDA3F60223534C032B1AD8DFE803F07F
S315080097F03056839B5048BDE8F840FDF725B84F48DA
S31508009800FDF722F84B4B196C4D48BDE8F840FDF7BB
S315080098101BB8484B4B48D3E92512BDE8F840FDF77D
S3150800982013B84948FDF710F894F86C309E0702D52E
S315080098304648FDF709F894F86F305D0602D54448A6
S31508009840FDF702F894F96F30002BC9DA4148D2E7E0
S315080098504148FCF7F9FF94F86830980703D0216C63
S315080098603748FCF7F1FF94F96830002B03DA616F8B
S315080098703A48FCF7E9FF00250126394FA26E06FA99
S3150800988005F3134206D057F825100B7813B135485F
S31508009890FCF7DAFF0135082DF0D1A1E73248FCF7CD
S315080098A0D3FF216C2648FCF7CFFF94F86930590797
S315080098B002D52E48FCF7C8FF94F96930002B03DA65
S315080098C0616F2648FCF7C0FF0825254EA36EEB40BE
S315080098D0DA0706D556F825100B7813B12148FCF798
S315080098E0B3FF0135102DF1D194F86830002B7FF4C1
S315080098F077AF1F487FE71F48FCF7A6FF216C104883
S31508009900FCF7A2FF1025164EA36EEB40DB0706D523
S3150800991056F825100B7813B11248FCF795FF013558
S315080099201A2DF1D15CE71448FCF78EFF216C6BE722
S315080099303C3B0020003D0020B5F40108F2F4010884
S3150800994022F501083CF5010857F501086FF50108ED
S31508009950A9F50108DCF5010818F601083DF6010825
S315080099600C0702085AF6010862F6010879F601089A
S31508009970BFF60108EFF6010808F701082DE9F74FC9
S31508009980334DD5E90D32580748BF0026D5E9121BD5
S315080099904EBFB046D5F850808B46D5F83CA05DBF83
S315080099A02C4E9246DFF8D090DFF8D09013F0080FCF
S315080099B0294B2A4918BF1946B6EB08071FBF642367
S315080099C07C0803FB0B44B4FBF7F40CBF3C46A4B27B
S315080099D043464A462248CDE9006ABFB2FCF734FF3F
S315080099E04B4622461F4800971FFA8BF1FCF72CFFBF
S315080099F0B24501D8C24503D249461B48FCF724FFA5
S31508009A00D5E9173213436A6E13431AD01748FCF781
S31508009A101BFF002501270E4E0024F26D07FA04F3FA
S31508009A20134203D012482919FCF70EFF0134202CE3
S31508009A30F3D12035602D06F10406EDD103B0BDE85B
S31508009A40F08F0C4803B0BDE8F04FFCF7FDBE00BF31
S31508009A50003D00200810002036F701083DF70108F0
S31508009A6045F7010876F70108AFF70108CDF70108B1
S31508009A70FCF7010800F8010831F7010829F7010881
S31508009A8037B503F0B7F8054611F044FDEB072DD4BA
S31508009A90012319461A4601FA02F42C4003F1010380
S31508009AA026D0214B33F8124000F0A0FA062C83B2D8
S31508009AB01E4A4FEA104021D14FF20F0188421AD1AF
S31508009AC0B3F5406F28BF4FF4C0634CF23C311380A6
S31508009AD04FF00052518040F20172934201BF144B7D
S31508009AE0144AD2E90001C3E9000117E00022D8E7C9
S31508009AF0102BCFD1D8E74FF4C063E6E740F2072131
S31508009B008C420DD14FF20F01884206D1A34202BF03
S31508009B104FF000534CF23C315980148003B030BDED
S31508009B2023461480D7E700BF200602083C3B0020E6
S31508009B30D42A0020943D0020044B05481B881A0AA5
S31508009B40B3F5406F38BF00EB820070473C3B0020FE
S31508009B50F0050208044B1888044B020A53F8223011
S31508009B60C0B203EB800070473C3B0020C0050208EA
S31508009B7010B5FFF7E1FF114C024621881048090A83
S31508009B80FCF762FEFFF7E6FF218802460D48FCF760
S31508009B905BFE01232288120A934040F2A172134207
S31508009BA00AD00020FFF7EAFE0020FFF703FEBDE813
S31508009BB010400020FFF7B6BD10BD00BF3C3B00209B
S31508009BC015F801082BF801086E4A2DE9F0416E4B8D
S31508009BD055686E4C5D65516A99656D49D1F8000204
S31508009BE0D865D1F804021866D1F80812586B596678
S31508009BF0916A10F0040F9966D16A4FF00000D96691
S31508009C00116B1967516B5967D26BD8649A67D3E998
S31508009C100E1218BF11465F4A91421A655DD301F1CB
S31508009C202000A04259D88869C5F308051864CE698A
S31508009C30062D5E6455D1584DA84252D3574DA842B9
S31508009C404FD205884DF6426085424AD11868C3F856
S31508009C5094005868C3F8980040F20170A24215466D
S31508009C6004D22E680432B6F1CD3FF7D00022C3E9FC
S31508009C701F22C3E92122C3E92322641BDFF818C186
S31508009C80424DDFF818E19C648D422DD8D3E91FC7F1
S31508009C90D3E92165D3E923414FF0000E013AD2B248
S31508009CA0FF2A3BD1BEF1000F05D0C3E91FC7C3E9A0
S31508009CB02165C3E92341B3F85430C3F308030C2BD9
S31508009CC03AD8022B53D9DA1E092A50D8DFE802F00F
S31508009CD030563F424F4F4F4F4F4C0021C3E91011AA
S31508009CE02C494FF42060B9E755F8044D6445CBD3A9
S31508009CF07445C9D2E607C7D50026294F57F8048FF9
S31508009D00A045C1D00136062EF8D12AB1013AD2B201
S31508009D1003EB8206F467B7E70522F9E7E0464FF05A
S31508009D20010EBC4637462E4625460C464146B5E743
S31508009D3040F60120BDE8F0814A2B18D1194B9B69E2
S31508009D4013F0020F40F2025318BF1846F2E740F626
S31508009D500320EFE740F6042240F20173B0F5206FC6
S31508009D600CBF10461846E5E740F60520E2E740F640
S31508009D700722013B6B2B98BF1046DBE740F6022013
S31508009D80D8E700BF00ED00E0003D002008100020E5
S31508009D9000E100E00800002080630008A0EC01084C
S31508009DA0783D00200040005B08B5044814F0DBFD50
S31508009DB012F032FCBDE8084000F008B8AC0802080A
S31508009DC0014814F0D0BD00BFAC0802082DE9F041E7
S31508009DD05D4C92B009AD94E80F0085E80F000DAA16
S31508009DE0174604F1100304F1200C16461868596842
S31508009DF0083303C663453246F7D11868534B08A99A
S31508009E003060187914F0AAFD514814F0ACFD514899
S31508009E1014F0A9FD4FF4807308984F49ADF8343013
S31508009E20814228BF01460C9711F0EDFB29460A909E
S31508009E304A4803F047F8494811F08DFB474811F0A6
S31508009E40B3FB464811F09CFBB4F824800122042198
S31508009E506846ADF8008010F071FFE78C00220121FA
S31508009E6001A8ADF8047010F069FF268D01220421BF
S31508009E7002A8ADF8086010F061FF658D0122042183
S31508009E8003A8374CADF80C5010F058FF354B4FF47B
S31508009E904870C4F8C8344FF00213C4F8C434A3F5A4
S31508009EA08033C4F8CC341C23C4F8B43404F050F816
S31508009EB007A8ADF81C5000F029FB142004F048F858
S31508009EC007A8ADF81C5000F011FB232004F040F859
S31508009ED007A8ADF81C5000F019FBB9211F4811F06E
S31508009EE088FB07A8ADF81C5000F000FB002204A868
S31508009EF01146ADF8108010F021FF002205A8114682
S31508009F00ADF8147010F01AFF0122002106A8ADF86A
S31508009F10186010F013FF0122002107A8ADF81C50A5
S31508009F2010F00CFF0D4802F093FF00230948C4F80F
S31508009F30B434C4F8C834C4F8C434C4F8CC3414F0FF
S31508009F4015FD12B0BDE8F08174070208C0080208C2
S31508009F50AC080208B0080208E070720000C0085099
S31508009F6000C00350020003001FB5124B01AC93E872
S31508009F70070040F2011384E8070001213D20ADF8EF
S31508009F800C3001F047FD204601F0DCF902210020E3
S31508009F9001F004FA0322084B1E2003F5005103F5CD
S31508009FA080534A619A6103F08FFA02F085FB04B088
S31508009FB010BD00BFA007020800C000504FF00063A4
S31508009FC09B6A03F17842B2F5C04F03D21968064A74
S31508009FD0914203D000230370836070470122027008
S31508009FE09A689B694260F7E707B0CD5E024B82B07C
S31508009FF0186802B0704700BF000000201FB5012393
S3150800A0008DF80430002301A80293FFF7D7FF039BBE
S3150800A0109B0204D505B05DF804EBFFF7A5BF044B1A
S3150800A020044A1A6005B05DF804EB11F012BB00BFD4
S3150800A0300000002002020FF030B52A4A04461378C1
S3150800A04085B01BB10223137005B030BDCDE90133CD
S3150800A05003930028F8D00125157014F079FC224BDB
S3150800A060186008F0F3FE214B21495A6EE2619B6E97
S3150800A07023624FF480438B661E4B5A6862621E4AFF
S3150800A0809A601A6E22605A6E62609A6EA260D3F85F
S3150800A0907021E2601A6C22615A6C62619A6CA26144
S3150800A0A0164A106C1864506C5864926C9A644D6623
S3150800A0B01B6E180410D5124AD368D907FCD403AA14
S3150800A0C002A901A810F069FD019A0E4B1A66029AB8
S3150800A0D05A66039A9A66B7E70B4AD368DB07FCD435
S3150800A0E0EDE700BFA83C0020042B002000800050AC
S3150800A0F0009000500080004455CEAC0000C00054CB
S3150800A10000000440009000440000045070B51E4D45
S3150800A11004462E78012E02D001232B7070BD00282C
S3150800A120FCD010F057FD01300BD010F053FD40F273
S3150800A1300113984205D0154B154A5E66D368D907B0
S3150800A140FCD42268134B1A6662685A66A2689A6635
S3150800A150E268C3F8702122691A6462695A64A269BE
S3150800A1609A64626AD20744BF00229A60E2690A4B7F
S3150800A1705A66226A9A6608F071FE084B186814F047
S3150800A180E2FB0023C9E700BFA83C0020009000407E
S3150800A190000004400080004400800050042B00208A
S3150800A1A038B54FF00064A36A03F17842B2F5C04FA0
S3150800A1B017D21A680D4B9A4213D10D4D2B7813F00E
S3150800A1C0FD0F11D10B48FFF737FFA36ADB699847E4
S3150800A1D004460848FFF79AFF0CB901232B7020465E
S3150800A1E038BD4FF48174FAE70024F8E707B0CD5E6E
S3150800A1F0A73C0020DC2A00200348044A0449121A16
S3150800A200921010F018BD00BFC061000880630008F6
S3150800A210A03D002008B5154B83F30A8800F030F8F6
S3150800A220FFF7EAFF124B13498B4212D30020124B59
S3150800A23012498B4218D3FCF787F9186850F8224060
S3150800A240586840F82240013298688242F5D30C33A8
S3150800A250EAE70022F8E71C6844F8220001325C6845
S3150800A260A242F8D30833E4E70022F8E70800002002
S3150800A270BC4E0208C84E0208C84E0208C84E02085C
S3150800A2804FF48041144B154A70B59A60D3F888206C
S3150800A290134D42F47002C3F88820124A05F500549B
S3150800A2A091664FF0FF3222666FF4003262660D2225
S3150800A2B0A2660222C3F8D020BFF34F8FBFF36F8F79
S3150800A2C04FF44036002003F01BF90020E66003F047
S3150800A2D0FBF82E6170BD00BF00ED00E000600008CD
S3150800A2E00080004400900050014B1860704700BF82
S3150800A2F07C3F0020054B1860054B1B6F03F00703D6
S3150800A300032B01D113F034BE704700BF843F0020F1
S3150800A3100080005007B5082010F0F9FC0222064B11
S3150800A3206846CDE9002310F0B8FC082003B05DF8B4
S3150800A33004EB10F0F7BC00BF006A1810BFF34F8F8C
S3150800A3400549064BCA6802F4E0621343CB60BFF3C3
S3150800A3504F8F00BFFDE700BF00ED00E00400FA05DF
S3150800A360002307B52948019314F0FDFA4FF440730A
S3150800A370012204216846ADF8003010F0DFFC012206
S3150800A380234B0520C3F8442401A914F0E7FA002852
S3150800A39039D1204BD3F8F02042F00102C3F8F0205F
S3150800A3A0D3F8FC2042F08072C3F8FC201A4AA3F5C1
S3150800A3B05D431A60019B194A03F5D52303F2FC4352
S3150800A3C0B3FBF2F3164A013B13610223C2F8F030DD
S3150800A3D04FF48073C2F804334FF06043114AC3F850
S3150800A3E0B02F114AC3F8802ED3F8002E42F480729B
S3150800A3F0C3F8002EFF2283F82020D3F8002E22F47B
S3150800A4008072C3F8002E03B05DF804FBAC0802089E
S3150800A41000D0035000ED00E0FF030040F8590D009E
S3150800A420000004E055CEACC5090001004FF06043BA
S3150800A430D3F8802E30B5D20715D501240B4D8440AC
S3150800A440D5F8FC2042F08072C5F8FC20D3F8002E1F
S3150800A4502243C3F8002E53F82020002AF0D003F830
S3150800A4602010002030BD1120FCE700BF00ED00E001
S3150800A470F8B5044601270E4D04B9F8BD94FAA4F0C0
S3150800A480B0FA80F007FA00F20F2824EA0204CABFDD
S3150800A49000F1FF3205EBC00205EBC2021668C8BF21
S3150800A4A01038002EE8D05168C0B2B047E4E700BFC4
S3150800A4B0082B002008B50C4814F055FA272003F09D
S3150800A4C011F828B1272003F01BF8272002F0FCFF1B
S3150800A4D0282003F007F828B1282003F011F82820CF
S3150800A4E002F0F2FF002008BDAC08020848B10122BC
S3150800A4F0437801789A4030235943034B00205A5039
S3150800A50070472220704700BF40D0035048B101224F
S3150800A510437801789A4030235943034B00205A5018
S3150800A52070472220704700BF40E0035008B502F08C
S3150800A5308DFD054B00F0553020F0A040C3F82004EF
S3150800A540BDE80840FFF794BF00E0035008B502F0E5
S3150800A5507DFD054B00F0AA3020F02040C3F820040A
S3150800A560BDE80840FFF784BF00E003502DE9F04F2F
S3150800A5709A46554B85B01B7806460F461546DDF8B4
S3150800A5803C909DF844B0DDF85080002B00F08C809C
S3150800A590072A00F28B800E9B002B00F08780B9F10A
S3150800A5A0000F00F08380129BB3F5006F7EDC012854
S3150800A5B002D1109B002B79D0444B03EB05131B7B70
S3150800A5C0002B75D0424C10220021684612F035F94E
S3150800A5D004EB45141022002F58D13946204612F0B4
S3150800A5E02CF943F210036380BBF1000F03D1E37823
S3150800A5F043F00303E370364A0E9B02EB451CCCE995
S3150800A6000193129B6901581E9DF84C30C0F30A004D
S3150800A61003F003039B0643EA001E53582D48012EF8
S3150800A62000EA03004EEA0003CDF800A0535041D1DA
S3150800A63013230CF1100ECCF80C309CE80F008EE8B2
S3150800A6400F006FF00301DCF81C20109B61F39F02DA
S3150800A650012FCCF81C20CCF8143003D1CCF8189074
S3150800A660CCF804300027194A290102EB051342F8F1
S3150800A6700180159A28465A60694622469F605E738D
S3150800A68002F08EF9384605B0BDE8F08F0021204665
S3150800A69012F0D3F84FF444736380BBF1000FAAD1CC
S3150800A6A0E37843F03003A5E70B48ECE70B48EAE705
S3150800A6B00B48E8E7B8F1000FD4D19CF8023068F3EC
S3150800A6C004138CF80230CDE7A93C0020F82C0020B2
S3150800A6D0F82B00200F80FFF3028000F0018000F0C5
S3150800A6E0078000F038B5124B05461B78DBB1E0B1A0
S3150800A6F014F02EF90F4A00231146147B54B92B6027
S3150800A70001251A0101EB03131D738C5014F01BF974
S3150800A710204638BD0133082B02F11002EDD114F0A2
S3150800A72012F90548F5E70548F3E70548F1E700BFDC
S3150800A730A93C0020F82C0020048000F0028000F0DC
S3150800A740018000F038B514F003F9002305460B4ADA
S3150800A750147B6CB90133082B02F11002F8D102F010
S3150800A760CBF8074B28461C7014F0EDF8204603E09A
S3150800A770284614F0E8F8034838BD00BFF82C002036
S3150800A780A93C0020058000F00D4B10B51B78044647
S3150800A79093B1072812D814F0DBF80A4B03EB04131D
S3150800A7A01A7B2AB100241C7314F0CDF8204610BD7C
S3150800A7B014F0C9F80448FAE70448F8E70448F6E745
S3150800A7C0A93C0020F82C0020068000F0028000F04A
S3150800A7D0018000F0154B13B51868002301908DF819
S3150800A7E0043014F0B5F8124B1C7824B114F0ABF809
S3150800A7F0104802B010BD01221A7014F0A4F80E4BCE
S3150800A80001A81C731C7783F82C4083F83C4083F816
S3150800A8104C4083F85C4083F86C4083F87C400823FE
S3150800A8208DF8073002F08CF82046E2E7FC070208AC
S3150800A830A93C0020038000F0F82C0020F8B50D4D47
S3150800A8402D7885B1072810DC0B4D060105EB0014A1
S3150800A850277B67B1AB510025069BA560636002F0B4
S3150800A8609FF82846F8BD0548FCE70548FAE7054875
S3150800A870F8E700BFA93C0020F82C0020028000F071
S3150800A880018000F0078000F00A4A08B512785AB12C
S3150800A89007280BD8084A02EB00131B7B43B100219B
S3150800A8A002F040F8002008BD0448FCE70448FAE72F
S3150800A8B00448F8E7A93C0020F82C0020028000F0A4
S3150800A8C0018000F0078000F00A4A08B512785AB1EC
S3150800A8D007280BD8084A02EB00131B7B43B101215A
S3150800A8E002F020F8002008BD0448FCE70448FAE70F
S3150800A8F00448F8E7A93C0020F82C0020028000F064
S3150800A900018000F0078000F0184B2DE9F0411F6D1B
S3150800A9105B6D1F4000D5FEE701260025144CDFF8C5
S3150800A9205880374218D02368C8F85060A3B1A16888
S3150800A930284601316268A1609847637B012B0BD1D9
S3150800A94050B90C4B03EB45131A7B60F341021A739B
S3150800A9501A7F60F341021A770135082D4FEA460639
S3150800A96004F11004DDD1BDE8F08100BF00000450F9
S3150800A970F82C0020F82B0020002004502DE9F04F79
S3150800A980144606460F4689B00393C36B01225B69DA
S3150800A99004A960689847F36B01225B6905A93846E4
S3150800A9A0984704A810F099FC054650B10023A375F2
S3150800A9B063754FF0FF33A3600025284609B0BDE84C
S3150800A9C0F08F05A810F096FC0123A375237E04EBEF
S3150800A9D0C303DF611D846368BB420ED1206005A8EE
S3150800A9E010F0A9FC4FF0FF332075A360237D043BCC
S3150800A9F0022B26D80023A375DEE723681A1A5342CA
S3150800AA005341A37505A810F096FC237D834218BF11
S3150800AA10A57505A810F072FC804604A810F06EFC17
S3150800AA20804518BF002305A818BFA37510F06DFC54
S3150800AA30804604A810F069FC80451CBF0023A37556
S3150800AA40D4E705A810F05AFC80B1F36B0222384609
S3150800AA505B6906A9984706A810F05EFC0346207DA8
S3150800AA60032839D8DFE800F03838040905A8F3E7E1
S3150800AA70CC22237E04EBC3031A8400F0DBFB129B73
S3150800AA80187005A894F8188010F02CFC04EBC80878
S3150800AA9088F82200237E05A804EBC303B3F820A098
S3150800AAA093F8228010F02AFC814605A810F02DFCA8
S3150800AAB08346B9F1000F14D0F36B022238465B695E
S3150800AAC006A9984706A810F0EDFB607568B900233B
S3150800AAD0A3754FF000093CE0227E04EBC202138402
S3150800AAE0CBE705A810F0C9FBEFE794F81690B9F183
S3150800AAF0000FEED0BAF1000F0DD1B8F1000F1DD03E
S3150800AB000123E375637E002B3FD1B8F1010F30D1E5
S3150800AB1084F8198014E0736C07EB0B015A4287EA34
S3150800AB20010010421CBF0022A2755A1E0A409B1A39
S3150800AB309A45CCD8A37D002BDFD1CAE7E37D43B97C
S3150800AB404FF0000953465A463946304610F0C4FAC3
S3150800AB50A060A37D13B12269524422611F49227E57
S3150800AB60097891421AD901322276039ACAB91D4642
S3150800AB7023E796F834307BB9F36A0133E2D1B8F1AA
S3150800AB80030FDFD10123A376DAE7B8F1010FE0D08E
S3150800AB90B8F1030FD4D1F5E79946D3E70023A37597
S3150800ABA00BE7002B3FF409AFE57D002DDFD0B9F1A7
S3150800ABB0000F11D1B8F1030F3FF4FFAEA1684B1C8B
S3150800ABC03FF4FBAE129B2246009330460123FFF763
S3150800ABD0D5FE0546A075F0E64D46EEE620080208C5
S3150800ABE02DE9F04F0E46984600238BB004464FF0E9
S3150800ABF0FF31104617468DF8133000F005FBB6F501
S3150800AC00801F20D2314605AA04F1080010F0B3FAD5
S3150800AC10451C014603D1237CBBB92D2010E03846DC
S3150800AC2000F0F2FA0122394620460DF1130310F01E
S3150800AC3072FA0028EFD09DF8133088F8003000200B
S3150800AC400BB0BDE8F08FB01CE5D1E56A691C36D1BA
S3150800AC502046616A10F086F90546B31C18BF012321
S3150800AC60DFF8CC900193636A626C0293236805A9A6
S3150800AC7002FB053AE36B05225B695046984705A82F
S3150800AC8010F099FB10F0BCFB504610F0C4FB4FF0D7
S3150800AC90000B824601464B1C05D0636C81EA0A020A
S3150800ACA05B42134211D02946204610F05BF9029BFD
S3150800ACB0AB422CD0BBF1000F2CD10546D3E7236855
S3150800ACC0ED1A636CB5FBF3F5C7E7484600F09CFA46
S3150800ACD00DF1130349462046019A10F01CFA034663
S3150800ACE090B1B21C03D0D9F80020B2420CD19DF81D
S3150800ACF0132003930D4B88F8002049461A683846F6
S3150800AD0011F0AEFD039B9B46D9F80810C3E7BBF1CB
S3150800AD10000F82D0B6F5801F91D2314698F80030E0
S3150800AD207A6804F1080000F009FA88E71C080208A6
S3150800AD30EC3300202DE9F3410446174698460E46A3
S3150800AD40184D816AE36A8B4201D04B1C02D102B0CE
S3150800AD50BDE8F081284600F057FA01222946204628
S3150800AD600DF1070310F0D7F938B1434629462046B6
S3150800AD709DF80720B8470028E9D0A9684A1C04D1DD
S3150800AD806968204610F07BF90146012EDAD16B6816
S3150800AD9081EA0302636C5B421A4218BF4FF0FF3127
S3150800ADA0D0E700BFC03300202DE9F0474FF0FF334E
S3150800ADB04FF6FF720025044600F108078AB0C0E97D
S3150800ADC00923C362056205633846884610F0BDF953
S3150800ADD0204610F047F860BB2046414610F012F9AD
S3150800ADE0204610F03FF860BB5E200AB0BDE8F08749
S3150800ADF02368E26B606C566900FB0530052205A9DD
S3150800AE00B04705A810F0D7FA012806460CD12946FE
S3150800AE10204610F0C8F8012E024600D10132294614
S3150800AE20204610F03EF803E010F0EFFA0028EED1C5
S3150800AE300135E3699D42DBD3204610F013F800285C
S3150800AE40CAD0204610F03EF84FF6FF72636A934266
S3150800AE5000F0A680E26B666C2068694606FB030074
S3150800AE6055690522A847684610F07CFA626A236885
S3150800AE70606C4C4D00FB023010F0CDFA4FF0FF33FA
S3150800AE80A062E3622A466FF00101204605ABFFF790
S3150800AE90A7FE002846D1AD6829462046E5620FF090
S3150800AEA0BDFF206320B92046E16A10F0E8F8E062A9
S3150800AEB02946204610F0E3F80546A36A9D4233D199
S3150800AEC020460FF069FF00268046B146E36999459A
S3150800AED03CD3B04559D92046616A10F043F800279B
S3150800AEE0054604F1400AB74212D3626C23686946E4
S3150800AEF002FB0539E36B05225B69484698476846B5
S3150800AF0010F030FA534602464946E06B10F085FACF
S3150800AF102946204610F026F80137B8450546E2D1FD
S3150800AF20642062E7A56AB7E7294620460FF076FF50
S3150800AF30236B2946034406462363204610F09FF8F0
S3150800AF400546002EB9D1C4E90B06B6E7636C256839
S3150800AF50052203FB0955E36B05A95B692846984753
S3150800AF6005A810F028FA10F04BFA58B1284610F048
S3150800AF7052FA014620460FF051FF636C143B984283
S3150800AF8008BF013609F10109A0E7384610F0DDF8D7
S3150800AF90002320461946044AFFF7CCFE002024E782
S3150800AFA0672022E71834002005B101082DE9F04191
S3150800AFB00025604B0E46D3F8008004461D6018B97C
S3150800AFC021252846BDE8F08190F8347007B30A6851
S3150800AFD003689A4240F0A4804A6843689A4240F05F
S3150800AFE09F808A6883689A4240F09A80CA68C368D4
S3150800AFF09A4240F095800A6943699A4240F09080E7
S3150800B0008A69C36B9A4240F08B804B698361D8E7A3
S3150800B01068223946856B11F010FCD6E902123368AE
S3150800B02004F1080023607368A5636360336963618C
S3150800B0307369A36110F09BF8B36904F14000E363F8
S3150800B0409B68984720B9676C17B16368B3FBF7F735
S3150800B05094F84330E761002BB2D00023656C236671
S3150800B060002D65D0002F63D02368B3FBF5F205FBEE
S3150800B0701233002B56D16668B6FBF5F305FB13634E
S3150800B080002B4FD120460FF0B9FEA36904330344C1
S3150800B0909E4249D340F634726369CC3B934245D805
S3150800B0A0B5F5805F44D3032120460FF0D0FED4E9DE
S3150800B0B00001E36B1B6898470546E36B0220DB68D3
S3150800B0C09847D5B941462046FFF76EFE64280546DF
S3150800B0D004D141462046FFF767FE05466DB9636C05
S3150800B0E0226A143B204602FB03F60FF087FEA3698B
S3150800B0F0043303449E4238BF5A25002D0CBF012352
S3150800B100002384F8343007D1D4E900010A4A1368C9
S3150800B1100133136010F0ACF8E06B10F00EF850E74E
S3150800B1205D254EE759254CE75A254AE75F2548E746
S3150800B1305B2546E77C2D0020782D00202DE9F0437D
S3150800B140466886B3056898464FF0000CA946AE4691
S3150800B15055F83C400CF1010CC4F31307013401D037
S3150800B160B94217D0B4450EF1080EF1D12F46002486
S3150800B17003E0B44207F1080712D055F83430013419
S3150800B1800133F6D1C1F3130141EA0851C7E90012A8
S3150800B190BDE8F08341EA0851CEE90012BDE8F08324
S3150800B1A0B8F1030F03D101230372BDE8F08300232E
S3150800B1B003E0B34209F10809F5D055F833400133E5
S3150800B1C0C4F30754032CF4D1C1F3130343EA085319
S3150800B1D0C9E90032BDE8F083024B1968024B1868CA
S3150800B1E0FFF7E4BE883F0020A83F002008B513F00B
S3150800B1F0A2FB014B186008BD44340020014B1868B7
S3150800B20013F094BB4434002038B5094B0D461A6830
S3150800B2100021044611F011FB00234FF0FF3223836F
S3150800B220C4E900252361A260E382A37638BD00BF86
S3150800B2301C0802080138C0B205289ABF014B185CE1
S3150800B24001207047210802082DE9F04107461546F6
S3150800B25000240E46596888B0490A012922464FEA51
S3150800B260510104F10104F8D8DC78997824031B8885
S3150800B270C90201F4006104F480540C43C3F30A03C1
S3150800B2805203234492B24FF000089C18274B6FEAEA
S3150800B2900444039325F07843ED4302A90DF1070012
S3150800B2A01B2202938DF8078010F0D1F89DF807202D
S3150800B2B0029B02A943EAC2630DF107001B2225F08F
S3150800B2C07845049302958DF8078010F0C0F89DF82C
S3150800B2D00720029B6FEA144443EAC26305934FF0C2
S3150800B2E0FF330794069307A9BB69012206F11000EC
S3150800B2F09847BB6905A90446012206F10800984744
S3150800B300BB69404518BF044604A90122301D984769
S3150800B3100122404518BF0446BB69304603A9984731
S3150800B320404508BF204608B0BDE8F08101009AB242
S3150800B330034B5A6812B19A6A002AFAD1704700BFBD
S3150800B34000C0005043681249B3FA83F310B5C3F13D
S3150800B3501F044B680BB1FFF7EBFF01220D4B5A6038
S3150800B3604B689B07FCD4027A437843EA420343EAD4
S3150800B37004130124427A8B60837A43EA42034B62C0
S3150800B380054B5C60037813B1FFF7D2FFCC6010BDA4
S3150800B39000C0005000E0005000D00050044B9A6AEC
S3150800B3A0D006FCD419639A6AD206FCD4704700BF4B
S3150800B3B000C00050044BD3F88420D206FBD4D3F83F
S3150800B3C08400C0F3811070470040005038B5174B11
S3150800B3D00546D3F828310C4603F00703013B052B35
S3150800B3E020D8DFE803F003131B0F0B1712F09AFDA2
S3150800B3F0052305B1286004B1236038BD12F092FD1B
S3150800B4000623F6E712F0D8FD0723F2E712F0CAFD85
S3150800B4100323EEE712F0C6FD0423EAE712F0BEFDA9
S3150800B4200223E6E700231846E3E700BF0080005042
S3150800B430002337B50193164B0546D3F820320C4640
S3150800B44003F00703042B21D8DFE803F0030B1116DA
S3150800B4501B0001230DB1019A2A6004B1236003B0D1
S3150800B46030BD002101A8FFF7B1FF1223F2E712F061
S3150800B470A3FD07230190EDE713F050FA0A23019084
S3150800B480E8E712F0EDFD09230190E3E70023E1E781
S3150800B4900080005038B5104B0546D3F850320C469C
S3150800B4A003F00303022B12D0032B08D0012B0AD07A
S3150800B4B00023184605B1286004B1236038BD13F08F
S3150800B4C030FA0C23F6E713F029FA0A23F2E712F00A
S3150800B4D0C7FD0923EEE700BF0080005038B5104BC2
S3150800B4E00546D3F880300C4603F00303022B0BD035
S3150800B4F0032B0DD0012B0FD112F01AFD0E2305B127
S3150800B500286004B1236038BD12F056FD0723F6E71C
