S02200006275696C642F64656275672F7263702D756172742D3830323135342E733337CE
S31508006000C80A00204D73000889DA01088DDA0108EC
S31508006010756A000891DA010899DA0108B36200087E
S31508006020B3620008B3620008B3620008B3620008EE
S315080060309DDA010898830208B3620008B362000873
S3150800604031AB0008B3620008B3620008B362000807
S31508006050B3620008B3620008B3620008B3620008BE
S31508006060B3620008B3620008B9BB0008B36200084F
S31508006070B3620008B3620008B3620008B36200089E
S31508006080B3620008B3620008B3620008B36200088E
S31508006090B362000851630008B3620008B3620008DF
S315080060A0B36200082D63000809630008B36200089C
S315080060B0B3620008353C0208254502080566020851
S315080060C001660208993C02081B660208096602086E
S315080060D0F54402080D66020865450208CD45020822
S315080060E0B3620008B3620008B3620008B36200082E
S315080060F0B3620008B3620008B3620008B36200081E
S31508006100B3620008B3620008B3620008B36200080D
S31508006110B3620008B3620008B3620008B3620008FD
S31508006120B3620008B3620008B3620008B3620008ED
S31508006130B3620008B3620008B3620008B3620008DD
S31508006140B3620008B3620008B36200082573020848
S3150800615045290208B3620008E5650208EB650208EE
S31508006160B3620008B3620008B3620008B3620008AD
S31508006180F0B5114A114C124E00F00105E3695F079C
S3150800619013D40DB9334213D103EA00078F4207D14E
S315080061A00B4A1A40002A0CBF00206FF00100F0BD10
S315080061B0013AEBD16FF00200F9E74FF0FF30F6E74E
S315080061C06FF00100F3E700BF8096980000000350C7
S315080061D002000100000000000000000000000000AE
S315080061E0013800D0FCE77047FEE770470246D0F852
S315080061F0940068B9937B73B9D2F8900050B9D2F875
S315080062008C3043B9537B127B9B1A584258417047CE
S31508006210002070471846704740BA80B24140C1F323
S3150800622003135940080380B24840490101F4FF515D
S3150800623048407047024610B544180020A24200D1D3
S3150800624010BD12F8011BFFF7E7FFF7E721B101239D
S3150800625000200B704B70704722207047EFF31183B4
S31508006260302282F31188064A107820B1054A108830
S31508006270003818BF012083F31188BFF36F8F70476A
S31508006280E03B0020E81200204FF4E13070474FF45D
S31508006290E13070478B7C01F12C0201338B74036863
S315080062A013B9CB62026070471846F8E701230B74EE
S315080062B07047FEE7F8B504460127124D0CB314F0F3
S315080062C001000BD0002024F0010405EBC00216687B
S315080062D0002EF3D05168C0B2B047EFE7224601302E
S315080062E020284FEA520201D0D307F8D507FA00F260
S315080062F00F2824EA0204E8D9421E05EBC202103828
S31508006300E5E7F8BDEC120020074BD3F82404D3F8D0
S31508006310202403F50053104000F0553020F050209B
S31508006320C3F82004C6E700BF00C00350074BD3F8E4
S315080063302404D3F8202403F50053104000F0AA30B3
S3150800634020F0A020C3F82004B4E700BF00C0035023
S315080063502DE9F0410F4A136D576D1F4000D5FEE732
S31508006360012600250C4CDFF83480374209D0C8F8DE
S31508006370506023682BB1A168284601316268A16084
S3150800638098470135082D4FEA460604F11004ECD16A
S31508006390BDE8F08100000450DC1300200020045002
S315080063A010B5416C4369A1F11404DA1CB2FBF4F28E
S315080063B003EBC2000330B0FBF4F0B1F5805F00F1E7
S315080063C0010002D1012828BF0120013010BD73B594
S315080063D006460D460024F36B01225B6901A92819BC
S315080063E09847019B013309D1736C043462196A40DA
S315080063F05B421A42EFD0204602B070BD0024FAE78D
S315080064002DE9F341154690F842201E46012A0CBF95
S31508006410022304235D43CF7D2C1D844605F0020527
S31508006420BFB915B1012724F003044868083420448D
S31508006430DCF83C30012A5B6927D101A9984717B1D6
S31508006440BDF806300193BDF80430336002B0BDE8EC
S31508006450F08155B124F0030400230D7E01F1200ECE
S31508006460D8B2854203D80020E2E72F46F4E73EF883
S31508006470330003F10108A04204D901EBC303D8692C
S315080064800834D4E74346241AEAE70122314602B023
S31508006490BDE8F0411847D01E009B42424241187E93
S315080064A0824212D11A688A420FD85A688A420CD395
S315080064B05A6901325A61D3E90302824205D29868C1
S315080064C040F822101A6901321A6101207047002328
S315080064D04FF0FF3142689A4202D800230372704790
S315080064E0026842F83310026802EBC30251600133B6
S315080064F0F0E7002370B546689E4210D00568DC00B8
S3150800650055F83320B2F1FF3F0AD0C2F31302914285
S3150800651006D14FF0FF322A51036823445A6070BDF2
S315080065200133E9E710B5032A029C07D1A26A534052
S31508006530626C5242134201D1FFF7DBFF012010BD06
S315080065400023F0B545689D4202D14FF0FF300EE0BA
S315080065500468DE0054F83340671C09D0C4F31307F7
S31508006560B94205D1240D1470036833445868F0BD48
S315080065700133E8E773B5164600F108040D462046D0
S3150800658009680DF10702FFF7DBFF032E05D16B68DB
S31508006590834202D12046FFF7ACFF012002B070BD4E
S315080065A02DE9F0414668002E3AD0056898464FF026
S315080065B0000CAE4655F83C40C4F31307013401D02D
S315080065C0B94222D00CF1010CB4450EF1080EF1D1F6
S315080065D000273C4603E0B44207F108071DD055F8EA
S315080065E0343001340133F6D16FEA01316FEA1131E3
S315080065F0E9510168CB59C3F3130343EA0853CB5156
S3150800660003683B445A60BDE8F08141EA0851CEF878
S315080066100010036803EBCC03F4E7B8F1030F03D1CA
S3150800662001230372BDE8F08100273C4603E0B4422B
S3150800663007F10807F4D055F834300134C3F3075C82
S31508006640BCF1030FF3D11B0D1B050B43EB51D0E730
S3150800665008B508301346D1E90012FFF7A1FF01205B
S3150800666008BD4FF48032064B00209A6641F6713217
S3150800667003F51C33DA63012203F50053DA60704729
S315080066800090005041F671320121064BDA6303F59A
S315080066900052D1600022DA634FF48032A3F5183332
S315080066A09A66704700000350704737B5054601F1F2
S315080066B00C04436901A9012220469847BDF8043015
S315080066C00122009369462046AB69984703B030BD5E
S315080066D0202A0B681EBF4FF0FF3191408B435908A3
S315080066E001F055315B1A03F033319B0803F033335D
S315080066F00B44017803EB13130A444FF0013103F0FE
S315080067000F334B43A2EB13620270704737B504464A
S3150800671000251B22011D0DF107008DF80750FFF714
S31508006720D7FF63689DF80720B2EBD36F03D123F038
S31508006730784003B030BD1B2204F108018DF80750DC
S31508006740FFF7C6FFA0689DF80730B3EBD06F0ABF06
S31508006750C0434FF0FF3020F07840EAE72DE9F043D8
S315080067600646994689B0036908460F4690469847F3
S315080067700446002867D1D9F804305B0A012B224663
S315080067804FEA530304F10104F8D899F8035099F82D
S3150800679002302D03DB0203F4006305F480551D4324
S315080067A0B9F800304FF00009C3F30A0352032B442B
S315080067B092B29D18294B0DF107001B2228F0784448
S315080067C002A9039302948DF80790FFF781FF9DF8BD
S315080067D007306FEA054544EAC36404946FEA08047F
S315080067E01B2224F0784402A902948DF80790FFF73B
S315080067F06FFF9DF807306FEA154544EAC3644FF00A
S31508006800FF3301220594069307A9B369079507F193
S315080068101000984701220446B36905A907F1080044
S3150800682098470122484518BF0446B36904A9381D8C
S3150800683098470122484518BF0446B369384603A954
S31508006840984728B1044639463046FFF72EFF01E03F
S31508006850002CF8D1204609B0BDE8F08301009AB2B1
S3150800686010B5164B0446D3F8283103F00703013B4D
S31508006870052B04D8DFE803F00A161E120E1A0023A9
S31508006880184604B1206001B10B6010BD0C4B586866
S315080068900523F6E70A4B58680623F2E720F0B8FA0C
S315080068A00723EEE7064B98680323EAE7044B986844
S315080068B00423E6E702230348E3E700BF008000500D
S315080068C0E03B0020002D310110B5174B0446D3F8E4
S315080068D0200100F0070006281FD8DFE800F0040AA8
S315080068E00E2112161A00012304B1206001B10B60B3
S315080068F010BD0E4B58680523F6E70C4B9868032322
S31508006900F2E720F085FA0723EEE7084B58680623D6
S31508006910EAE7064B98680423E6E700231846E3E708
S3150800692002230348E0E700BF00800050E03B002058
S31508006930002D31010E4BD3F8403103F00303022B2F
S315080069400DD0032B0FD0012B0BBF0A2301234FF4C5
S315080069500042002200B1026001B10B6070470923B2
S315080069604FF40042F6E70C234FF47A72F2E700BFC1
S31508006970008000504FF480322DE9F843204B4FF049
S3150800698001089A6641F671331E4D0446EF69EB63BA
S315080069901D4B0021C3F80C800223686121202B615E
S315080069A0174020F009FFDFF86890064640B1C9F89D
S315080069B00C8007B1E96301360CD16E20BDE8F88377
S315080069C0212020F0F9FEC9F80C8007B1EE63431CBC
S315080069D0F3D008B17120F1E70C4B9A6801230A320B
S315080069E002F01F02934023F0030323449C4201D183
S315080069F00020E3E754F8042B0132F7D03E20DDE708
S31508006A000090005000000350001003500080E00F73
S31508006A1000200350044BD868421C02BF034AD2F830
S31508006A209400D860704700BFE03B0020004000504B
S31508006A30054B9A689107FCD45A689207F9D4DA6923
S31508006A40002AF6D1704700BF00800A50BFF35F8F57
S31508006A50074B5A6A22F480325A62D3F8942022F0FD
S31508006A600102C3F89420BFF34F8FBFF36F8F7047AF
S31508006A7000ED00E0BFF34F8F0549064BCA6802F4E4
S31508006A80E0621343CB60BFF34F8F00BFFDE700BF43
S31508006A9000ED00E00400FA0538B5144692B3116912
S31508006AA0D3680139184D994228684FF0FF3118BF4D
S31508006AB000211EF062FF10F5007F0CD1802323759C
S31508006AC0E368226901339A42E3600FD92046BDE89C
S31508006AD0384014F009BC002894F91430B8BF0330C4
S31508006AE040F387008342B8BF2075E9E794F914306C
S31508006AF0002223710223236028688021BDE83840DC
S31508006B001FF016B838BD00BF4C0D0020002337B55E
S31508006B100D4614460193FAB1434203F003031844A1
S31508006B20C2E90210684301A914F0BEFA60B9024628
S31508006B30019B013DC4E9003391B28D4202F1010285
S31508006B4004D84FF0FF321A6003B030BDE16819442B
S31508006B501960E1680B44EFE72220F5E7F8B5064629
S31508006B60294D32680C462868FAB197211FF072F948
S31508006B70024600B1FEE73168286817F0ADFE00B19D
S31508006B80FEE7316828681EF086FF3179814200D019
S31508006B90FEE7286818F046F800B1FEE701222868E3
S31508006BA011461FF08BF930B1FEE718491FF054F96A
S31508006BB000BB174B18700322286811461FF06EF9A0
S31508006BC07F2C1DD028681FF00FF8032813D104EB7B
S31508006BD0840464002F680A2138461FF007F840F637
S31508006BE0E44138461FF004F82146286818F032F8C0
S31508006BF030B1FEE7FEE7286818F048F80446E9E7EA
S31508006C00044BC3F87461F8BD4C0D0020908202084D
S31508006C1048100020E812002038B5202204460D4608
S31508006C200C3000211EF07DFB4FF0FF33C4E9003520
S31508006C30A36038BD10B5044644EA010313F0030304
S31508006C40084609D1934201D1002010BD54F82310FB
S31508006C5040F823100133F5E7214692001EF080FD27
S31508006C60F2E72DE9F74F89464FF480314FEA820A59
S31508006C70374A384C9166E269804602EA010341F6D2
S31508006C80713201210093E263334A8346D160574645
S31508006C904A4677B938460122304BDA60009B13B171
S31508006CA000222C4BDA63431C3DD0002846D07120C5
S31508006CB03AE00BF5005525F4FF5525F01F05C4F8F5
S31508006CC014B0A5EB0B05E169BD4228BF3D4649074F
S31508006CD031D4164656F8041B2A44A161964210D1AF
S31508006CE0042200212120226120F066FD0028D2D14D
S31508006CF0212020F061FD0028CDD13246AB447F1B10
S31508006D00C7E708210846019220F056FD019A70B19E
S31508006D10042301222361114BDA60009B0BB1002387
S31508006D20E3630130C3D16E2003B0BDE8F08F56F897
S31508006D30041BA161D2E74FF0FF30ACE75246494643
S31508006D4040461FF083FC002814BF3D200020EBE7D7
S31508006D50009000500000035000100350002003501C
S31508006D60024B186800F58E5008F0D6BDCC0A0020F4
S31508006D7000F5805393F8A6213AB193F8A73123B9C1
S31508006D8000F58D50143008F0C7BD704710B50D4B8F
S31508006D904FF400621C68002104F6A6101EF0C1FA22
S31508006DA0002204F5805383F8A72104F1140009F0A2
S31508006DB0EFF830B904F58D501430BDE8104008F0EE
S31508006DC0ABBD10BDCC0A002008B50CF029FD20B1DA
S31508006DD010F81A3C2C38013B837408BD38B50C46AC
S31508006DE0EFF31185302383F311880848FFF7ECFF8A
S31508006DF0206028B985F31188BFF36F8F1B2038BD33
S31508006E0085F31188BFF36F8F0020F8E76014002020
S31508006E1038B50446406F0D4614F057FE034620B1B8
S31508006E20002043F8044B2B6038BD1A20FBE738B521
S31508006E300446EFF31185302383F31188037C63B18D
S31508006E408068214640300CF0F3FCA26892F8443082
S31508006E50013B82F844300023237485F31188BFF37D
S31508006E606F8F38BD2DE9F84FEFF31188302383F380
S31508006E701188604CD4F87C312C2BA3F12C0606D152
S31508006E8088F31188BFF36F8F1B20BDE8F88F53F87E
S31508006E902C9CB9F1000F00F0AA80B589DFF874A11F
S31508006EA0554F002D00F098800D22002104F5C07082
S31508006EB01EF037FAC4E960A94FF01309B5F5006F5B
S31508006EC0C4F88871C4F88C9157D80D22002104F5AE
S31508006ED0C870D6F804A0013D1EF023FA474AADB2A1
S31508006EE042EA05120225464BC4E966791340C4E90D
S31508006EF0643AD6F808A0BAF1000F12D0A94604EBF6
S31508006F00091909F5C0731022002118461EF009FA5E
S31508006F103C4A0135C9E9602A1322C9F88871EDB2DD
S31508006F20C26004EB05191022002109F5C0700E365F
S31508006F301EF0F7F9344BC9E96167C9F880310023B7
S31508006F4004EB031292F8821101336FF3041182F8ED
S31508006F508211DAB2AA42F3D900252C4A2C4BD4F86E
S31508006F60E0011D7002F150012B4615F041F888F337
S31508006F701188BFF36F8F284687E7B5F5805F25D858
S31508006F80D6F804A0DFF878B00D22002104F5C87001
S31508006F901EF0C7F9C4E964BAC4E9667973680D22B4
S31508006FA0002104F5D07003F5006A1EF0BAF96FF4F3
S31508006FB000631D44114BADB243EA051303EA0B0304
S31508006FC00325C4E9683AC4E96A7992E788F311881F
S31508006FD0BFF36F8F212058E71022294604F5C070A9
S31508006FE01EF09FF9C4E960A9C4F88871A7E70120D3
S31508006FF04BE700BFE81200203CC0055000001030E7
S31508007000F07F103070001030100010306814002027
S31508007010E03B00206000103010B5EFF311843023F8
S3150800702083F311880A4803882BB984F31188BFF3C0
S315080070306F8F032010BD013B038000F5BE70FFF77C
S3150800704029F9FFF70FFF84F31188BFF36F8FF1E774
S31508007050E81200202DE9F74F364CA2EB010B1FFA78
S315080070608BFB0E461546A4F8E4B178B9D4F8E801C6
S3150800707001A9FFF7CDFE50B1D4F8EC0120F0FCFAD7
S31508007080012384F8F03103B0BDE8F08F0190019F29
S31508007090B5F5006FDFF8B490DFF8B48007EB060AA1
S315080070A01CD81022002124481EF03BF90BF1FF33AF
S315080070B0C3F30A031B0143F0447303EA0903C4E953
S315080070C07D38C4F8FCA11D4BD4F814221C49D4F809
S315080070D0EC0103B0BDE8F04F14F08ABFC6F5FF66B1
S315080070E007360D2200211448B6B21EF01AF93601E9
S315080070F0144B46F040763340C4E97D3813231022FA
S3150800710000211148C4F80032C4F8FCA11EF009F9A0
S315080071106FF40063EB18C3F30A031B0143F04473CF
S3150800712003EA090307F50067C4E98138C4F80C7255
S31508007130C9E700BFE8120020DC14002033820008EB
S3150800714000150020F07F0003EC140020F07F1003E8
S3150800715024C005502DE9F341EFF31186302383F35C
S315080071601188204CD4F8EC0120F086FA94F8F03116
S3150800717033B186F31188BFF36F8F02B0BDE8F08193
S3150800718001A9D4F8E801FFF743FE014618B1012327
S3150800719084F8F031EDE7B4F8E45104F5FA77013DE7
S315080071A010223846ADB2DDF80480C5F30A051EF094
S315080071B0B8F8D4F8F4210C4B2D01134045F044756A
S315080071C01D430A4B3A46C4E97E38D4F8EC01084B0D
S315080071D004F50671C4F8F451C4F8147214F008FFE3
S315080071E0C7E700BFE81200200F80EFFC24C0055057
S315080071F03382000808B5FFF7ADFF002008BD10B5BB
S31508007200EFF31184302383F31188124BB3F8282245
S31508007210092A04D984F31188BFF36F8F10BD817CC6
S31508007220013201318174D3F82C12A3F8282293F87D
S31508007230302240F82C1FC3F82C02002AEAD000227C
S3150800724083F8302293F8F031002BE3D1FFF782FF61
S31508007250E0E700BFE8120020002373B50E460A25B2
S315080072601B4CC4E95E33C4E99013C4F8E811C4F8AA
S315080072702C32C4F8343284F84832C4F83C323046EA
S3150800728001A914F03AFC00BB0198FFF7B8FF013DCD
S31508007290F5D10A2323804FF480620E4B1A604FF40F
S315080072A040624FF0FF310C4B5A610C4A9164012140
S315080072B0A2F58052D164516005225D615A610723A7
S315080072C0A4F8E431284602B070BD1925FAE700BFD4
S315080072D0E812002000E100E000C0055000E005507B
S315080072E013B5EFF31184302383F31188094BB3F8F0
S315080072F02822092A08D8D3F8E80101A914F0FDFBC9
S3150800730010B90198FFF77BFF84F31188BFF36F8FDD
S3150800731002B010BDE812002010B5EFF31184302337
S3150800732083F31188084B93F8F0213AB1D3F82C224D
S3150800733022B1002283F8F021FFF70CFF84F31188AD
S31508007340BFF36F8F10BD00BFE812002008B5294BA8
S3150800735083F30A884FF48041274B284A9A60D3F86A
S31508007360882042F47002C3F88820254A91664FF0B7
S31508007370FF31244A1166244951660221C3F8D01008
S31508007380BFF34F8FBFF36F8F01204FF440331F4970
S31508007390C1F88001D3600860A2F5005213611C4849
S315080073A01C4BC01A801012F011F81B4B1B498B425C
S315080073B012D300201A4B1B498B4218D307F008FA40
S315080073C0186850F82240586840F8224001329868F8
S315080073D08242F5D30C33EAE70022F8E71C6844F842
S315080073E0220001325C68A242F8D30833E4E700229F
S315080073F0F8E700BF0800002000ED00E00060000884
S315080074000090005000A00044F7FF370000E100E0BC
S31508007410E0610008806100082CF2020838F20208D0
S3150800742038F2020838F2020808B5074B18681EF049
S3150800743049FB30B1054BB3FBF0F083B20BB11846EC
S3150800744008BD0120FCE700BF4C0D002040420F009C
S3150800745010F0110F15D10C4B1B781840820700F05D
S315080074600F030CD4C3F380005B070BD50220013849
S31508007470064BC0B2C0EB001003EB001070470120AA
S31508007480F5E70020704700BFFE3D0020200B0020D6
S3150800749008B5054B00EB80004100186817F0DAFBC9
S315080074A000B1FEE708BD00BF4C0D002038B50F4BF4
S315080074B00C4693F85022824215D893F851228242FC
S315080074C011D303F51375D3F87431AB4204D10846CA
S315080074D0FFF7DEFF002038BD14F06AFB2146284678
S315080074E0FFF73CFBF6E70720F5E700BFE8120020A8
S315080074F01FB5FF238DF8043000230446CDE9023377
S3150800750013F0BAFE01462046FFF7D0FF40B9054BF7
S315080075102146186801AA1EF02CFA003818BF012067
S3150800752004B010BD4C0D002010B504461FF0D0FB6A
S31508007530154B227E93F85012914222D893F8511295
S3150800754091421ED303F51370D3F87431834202D0E7
S315080075507F21FFF703FB80220C4B114618681EF0AB
S31508007560E7FA18B101200023236009E0207EFFF71F
S31508007570BFFF0028F6D1204613F0B6FE0028F1D149
S3150800758010BD2120EFE700BFE81200204C0D0020B7
S315080075902DE9F04F076804469BB038460D4614F0AF
S315080075A05DFC002800F0D381204607A908F0AAFA56
S315080075B00646002840F0CB819DF81C80B8F1080FDC
S315080075C040F0C581237FDA0600F1C181B14B97F8F7
S315080075D00090ED1A1E2309F00709ED10B9F1020F04
S315080075E0B5FBF3F51CD18DF81C0007A9204608F059
S315080075F0C2FA9DF81C10002900F0B481A64BEAB225
S3150800760003EB82135B785A1E91420FD08B420CD043
S315080076100133994200F0158140461BB0BDE8F08F52
S315080076209D4BEAB203EB821359780126EDB206EBBD
S315080076308506DFF86482237F36010C364644DB076D
S31508007640A66017D43B78AE0103F00703022B04BFEC
S3150800765008EB06035A68204604BF9A6008F8061025
S3150800766008F09DFA08EB0603596820464A1C5A603A
S3150800767008F068FA00232068029314F0EFFB00284C
S3150800768000F0658120460DF1070108F02BFA002865
S3150800769040F05D81204602A908F044FA002840F02F
S315080076A056817E49029B01EBC50751F8350079687A
S315080076B01ABA9DF8076003AB03C320468DF8186015
S315080076C0059208F07DFAA368861E5FFA86F816F01A
S315080076D00106139340F0B7800638C0B20C2800F2B2
S315080076E0B280204608F0D3FA3546074603466A1C98
S315080076F0002B40F0A980EDB2022D38BF02252046A6
S31508007700022DC5F10F0918BF5FFA89F908F0B7FA13
S31508007710021E18BF0122013DA8F10203EDB25B105B
S3150800772045EAC30343EA821303A94A4682460DF192
S315080077301D008DF81C301EF013F80BAA39460F23CE
S3150800774093469945C0F0838007AA114613981FF0FF
S315080077503BFFBAF1000F06D002269DF81D308AEAD3
S3150800776003038DF81D304A4603A90DF12D008DF847
S315080077702C501DF0F5FF07AB09F111000021C9F1E6
S315080077800F0218441DF0CDFD002510232046ADF844
S315080077906060CDE915578DF86490CDF850A017951F
S315080077A0ADF862308DF8658008F069FA82450646BC
S315080077B053D3276800EB0708B8454FD1159B149A91
S315080077C03344934215930AD1BDF8603023B107AA12
S315080077D0114613981FF0F8FE0023ADF860302046D6
S315080077E008F055FA179B169A0344934205464FD854
S315080077F0204608F0F4F9002680462F1847454FD151
S31508007800179B1D44169B17959D4215D3BDF86030EE
S3150800781023B107AA114613981FF0D6FE9DF86420D7
S315080078200E2A09D802F1110007AB0021C2F10F0296
S3150800783053FA80F01DF075FDDDE916329A4270D0D4
S31508007840FEE74E46F2E6FEE715461B0A4FE7013B02
S3150800785002F8011DDBB2090A73E7FEE7BDF86030DE
S31508007860102B06D107AA114613981FF0ADFEADF8E6
S315080078706050BDF860305A1C6833ADF860206B4420
S3150800788017F8012B13F84C1C4A4003F84C2C93E7C5
S31508007890FEE700BF200B0020380F0020280F00202D
S315080078A0BDF86230102B12D10FA90F200A469DF899
S315080078B064C0604505DD11F8013D0133DBB20B708C
S315080078C06BB3594613981FF07FFEADF86260BDF89A
S315080078D0623098F800905A1C6833ADF862206B4401
S315080078E013F82C3C89EA030308F8013BBDF860301D
S315080078F0102B06D107AA114613981FF065FEADF89E
S315080079006060BDF860305A1C6833ADF860206B447F
S3150800791013F84C2C89EA020903F84C9C6EE70138E7
S31508007920C7E7204608F04CF9A6880FAA361A594622
S31508007930139825681FF048FE002207ABA8199DF882
S3150800794065108A4206DB237F43F0100323774FF046
S31508007950000861E613F8011B0132DD7F694000F873
S31508007960011BECE74FF0010856E6EFF311823023CE
S3150800797083F31188074BC01A1E23C010B0FBF3F01F
S31508007980054BC0B203EB8013596082F31188BFF32D
S315080079906F8F7047200B0020380F00202DE9F04329
S315080079A0644B07461B780C46904687B083BB08464F
S315080079B008F015F9064658B30578C5F38303032B73
S315080079C026D1AB0724D4206814F015FAB4F804902D
S315080079D000F44050B9F1090F1AD9C8B905F0C30522
S315080079E0012D1ED17378E32B16D1B8F1000F0FD0F5
S315080079F0514B1A78022A0BD103221A7045F2082134
S31508007A00D4E902040A184D4944F10003C1E90023E8
S31508007A10002007B0BDE8F083F32BF9D188F0010008
S31508007A20F7E7802DF4D1B9F10D0FF1D9737803F08A
S31508007A30F802B8F1000F09D1802AE9D113F007033B
S31508007A4030D1B379F02BE3D10120E2E7402ADFD128
S31508007A5013F0070326D1B379F02BD9D0E02B08D041
S31508007A6003F11C02D2B20B2A03D95033DBB20F2B17
S31508007A70CED8314D2B78022BCAD11E22304BB01CE2
S31508007A80FB1ADB10B3FBF2F33022DBB253432D4A69
S31508007A90D158042209311EF0D9FD0028B8D1032394
S31508007AA02B70ABE7022BB3D1F378F02BB6D0E02BD3
S31508007AB008D003F11C02D2B20B2A03D95033DBB229
S31508007AC00F2BA5D8B8F1000FA2D0DFF86C8098F874
S31508007AD00030022B9CD11E23194D30207D1BED1042
S31508007AE0B5FBF3F50023174FEDB200FB057003A9AC
S31508007AF08DF8143014F08AF918B9694603A807F006
S31508007B00E3FE204603A914F067F90822684603A98C
S31508007B101EF09CFD00287FF47BAF30235D437B5924
S31508007B20B278DB7B9A427FF473AF032388F8003080
S31508007B3064E700BFC80A0020E8100020F010002003
S31508007B40200B0020001100201E2238B50F4B0446DA
S31508007B50C31ADB10B3FBF2F30D4ADBB29D010D49E4
S31508007B6002EB8313525D9B680A7501220B61FFF7CE
S31508007B7015FF94F8E43043B1206A074B543093F864
S31508007B805412BDE8384013F0F9B938BD200B00206F
S31508007B90380F002088100020E81200201E220F4B04
S31508007BA0C31ADB10B3FBF2F300200D4ADBB232F83E
S31508007BB0132011440B4A89B202EB83131A888A42AE
S31508007BC001D19A783AB90130102803F10403F5D1A6
S31508007BD04FF0FF30704700B2704700BF200B0020FF
S31508007BE0240F0020520D002038B504460D46FFF735
S31508007BF0D5FF80B20F2822D91E22144B1448E31A47
S31508007C00DB10B3FBF2F30022DBB299010231014427
S31508007C1011F82240ACB10132102AF9D14FF0FF32E7
S31508007C2091B20F290FD80B4902EB031231F8133022
S31508007C301D44012320F8225000EB820083700020A7
S31508007C4038BD12B2ECE70320FAE700BF200B00208C
S31508007C50520D0020240F00201E2210B5124B0C884E
S31508007C60C31ADB10B3FBF2F34888104A0444888829
S31508007C70C988204401440020DBB232F8132011449D
S31508007C800B4A89B202EB83131A888A4201D19A7881
S31508007C903AB90130102803F10403F5D14FF0FF304B
S31508007CA010BD00B2FCE700BF200B0020240F002007
S31508007CB0A40E00202DE9F0416D4A6E4B55686E4CB6
S31508007CC05D65516A99656D49D1F80002D865D1F8A4
S31508007CD004021866D1F80812586B5966916A10F0B2
S31508007CE0040F9966D16A4FF00000D966116B1967BF
S31508007CF0516B5967D26BD8649A67D3E90E1218BFCD
S31508007D0011465F4A91421A655DD301F12000A042EF
S31508007D1059D88869C5F308051864CE69062D5E64C6
S31508007D2055D1584DA84252D3574DA8424FD205882F
S31508007D304DF6426085424AD11868C3F894005868DF
S31508007D40C3F8980040F20170A242154604D22E6884
S31508007D500432B6F1CD3FF7D00022C3E91F22C3E9AA
S31508007D602122C3E92322641BDFF818C1424DDFF83C
S31508007D7018E19C648D422DD8D3E91FC7D3E9216544
S31508007D80D3E923414FF0000E013AD2B2FF2A3BD184
S31508007D90BEF1000F05D0C3E91FC7C3E92165C3E9D2
S31508007DA02341B3F85430C3F308030C2B3AD8022BFB
S31508007DB053D9DA1E092A50D8DFE802F030563F4276
S31508007DC04F4F4F4F4F4C0021C3E910112C494FF428
S31508007DD02060B9E755F8044D6445CBD37445C9D23C
S31508007DE0E607C7D50026294F57F8048FA045C1D006
S31508007DF00136062EF8D12AB1013AD2B203EB820631
S31508007E00F467B7E70522F9E7E0464FF0010EBC46EE
S31508007E1037462E4625460C464146B5E740F601202C
S31508007E20BDE8F0813A2B18D1194B9B6913F0020F64
S31508007E3040F2025318BF1846F2E740F60320EFE770
S31508007E4040F2017240F60423B0F5206F14BF1046C5
S31508007E501846E5E740F60520E2E740F60722013B2B
S31508007E605A2B98BF1046DBE740F60220D8E700BF3A
S31508007E7000ED00E0E03A0020C80A002000E100E03A
S31508007E8008000020E0610008A0770208583B00209F
S31508007E900040005B4FF000639A6A02F17841B1F541
S31508007EA0C04F03D21168074A914203D000230370DA
S31508007EB083607047012202709A6A926842609B6AE0
S31508007EC09B69F5E707B0CD5E1FB54FF000639B6A67
S31508007ED003F17842B2F5C04F23D21B6B03F1784306
S31508007EE0B3F5C04F1DD201238DF80430002301A835
S31508007EF0CDE90233FFF7CEFF039BDB0311D5029BC7
S31508007F001A0E0ED0012A03D1C3F307430A2B08D948
S31508007F104FF000639B6A1B6B1B6C05B05DF804EBA6
S31508007F20184740F2011005B05DF804FB08B5C36FA9
S31508007F300A462BB1D0F88010007A9847012008BD70
S31508007F401846FCE7006800B97047037A8B42F9D1F6
S31508007F5090F85030002B08BF0020704708B503681A
S31508007F603BB901790448FFF7EDFF08B190F85000D6
S31508007F7008BD93F85000FBE7F03B0020054A08B51A
S31508007F8002F51670FFF7EAFF05281CBF012382F8E1
S31508007F90643208BDE8120020022808B509D1042970
S31508007FA006D100210948FFF7CDFF012380F8A0304C
S31508007FB008BD0328FCD10429FAD10022044B1B6909
S31508007FC0002BF5D0C3E926221B68F9E7F03B002011
S31508007FD0E03B002008B50146FEF708F950B1D1F894
S31508007FE0880040B9D1F8843023B9B1F86800B0FAEE
S31508007FF080F0400908BD0020FCE7EFF3118230232A
S3150800800083F311888368013B836082F31188BFF389
S315080080106F8F704710B508B9022010BDEFF31184B1
S31508008020302282F31188826822B984F31188BFF35B
S315080080306F8FF1E70132826084F31188BFF36F8F87
S31508008040036813B100200B60E7E7FFF7D6FFE3E705
S31508008050002337B500F58D54083405460C22194619
S31508008060204612F085FE2E2830D0042809D1184B58
S31508008070186800F58E500C3003B0BDE8304007F0A4
S315080080804BBC00B1FEE7204601A9FFF7C3FF48B97C
S31508008090019B104A20469A65FFF7AFFFFFF7BAFF24
S315080080A008B1FEE7FEE7019B0B4A2046DA65FFF7B3
S315080080B0A4FFFFF7AFFF00B1FEE7019B074A204682
S315080080C05A67FFF79AFF064BC5E9083503B030BD76
S315080080D0CC0A00208D6D0008EB610008616D000870
S315080080E0716D0008014B1868B2E700BFCC0A002082
S315080080F0002307B5012219460E4812F039FE68B961
S315080081000C4801A9FFF786FF40B9019B0A4A0948AE
S315080081109A65FFF772FFFFF77DFF18B1002003B0DD
S315080081205DF804FB019B054A02485A67FFF765FF9D
S315080081300120F4E740150020359400087D7F0008EB
S3150800814070B5044606460D46002016F8011BFEF7D4
S3150800815063F8AB1B14FA83F39BB2002BF5D1131A01
S315080081605842584170BDF8B50546164600248F1F7B
S315080081702B5D2819142B08D10521B0F80520FFF727
S31508008180DFFF10B106B13480F8BD0134A4B2BC4299
S31508008190EEDB0020F8E72DE9F0410446806E0F4635
S315080081A0164613F092FC0546F8B1342200211DF05C
S315080081B0B8F8EFF31188302383F31188731E042B64
S315080081C02CD8DFE803F0182B03210300B4F8582055
S315080081D0B4F86630013A93420ADB2946A06E13F0DA
S315080081E06FFC88F31188BFF36F8F1A20BDE8F08102
S315080081F00133A4F8663088F31188BFF36F8F002027
S31508008200EE74AC613D60F1E7B4F86430B4F85A2016
S315080082109A42E2D90133A4F86430ECE72120E5E775
S3150800822010B550F8044C011F606F13F049FC204646
S3150800823010BD00232DE9F04F85B00393ADF80A3041
S31508008240EFF31187302282F31188AF4CD4F8141259
S3150800825094F865228D6832B194F8662284F86532FE
S31508008260AD1A84F8663294F867329BB32B68A74E2A
S31508008270C4F86F32AB880D21A6F80B30AB790DF137
S315080082800A02701C7373FFF76EFF804678B92B6875
S315080082902846C4F86832AB88B380AB79B371FFF768
S315080082A0BFFF072241460846FEF7D4FE35E0BDF873
S315080082B00A3001339BB2F218ADF80A30F3582B6036
S315080082C09388AB809379AB71002384F867320123D6
S315080082D084F86532DFF8408298F8D810002900F053
S315080082E00581EFF3118A302383F31188B4F82892B5
S315080082F0B9F1000F19D10123D4F8EC0184F8303212
S315080083001FF0BAF98AF31188BFF36F8F0023C4F8F8
S31508008310783215B12846FFF783FF87F31188BFF334
S315080083206F8F002005B0BDE8F08F7948FEF74CFD49
S3150800833006460028E6D009F1FF39A4F828928AF300
S315080083401188BFF36F8F94F865B2C4F87802BBF151
S31508008350000F1AD15A4607212846FFF704FF81461F
S3150800836098B92A68694BC4F86822AA8828469A8068
S31508008370AA799A71FFF754FF3046FEF740FF0123AA
S315080083800722494684F867328DE76B882846B38109
S315080083902A683368D4F8E8911A60AA889A80AA7974
S315080083A09A71FFF73DFFB289BAB90123072288F807
S315080083B0D830A4F8E421BBF1000F2CD15946584611
S315080083C0FEF748FED4F878125248FDF763FFD4F852
S315080083D0E821936C013393649FE7B4F8E431B3F56D
S315080083E0857F56D90623314633774A48FDF752FF2B
S315080083F0D9F8483007220133C9F84830012388F8EC
S31508008400D8300023C4F87832A4F8E421BBF1000F71
S3150800841043D04FF0000B484603A9FEF7F9FC01903C
S3150800842000285DD1BDF80A60B4F8E481C6F10705F5
S31508008430EDB2DFF8D8A0F11D4545039B84F86652D6
S31508008440514440D3A5EB080542461846EDB2D4F888
S3150800845078B284F866521DF083F9CBF8040065B348
S31508008460484603A9FEF7D4FCC8B9039B08EB0601E6
S3150800847007312A46514418461DF072F90722294643
S31508008480A4F8E421FEF7E6FD0122234B83F8D82061
S3150800849098E7002388F8D830B6E7594603E7D4F8B2
S315080084A0EC011FF0E9F8019B84F866320723A4F86B
S315080084B0E431012384F8F0312FE7072229462846BC
S315080084C0A4F8E421DEE72A4618461DF049F9424693
S315080084D02946FEF7BFFDBBF1000F7FF473AF1CE71B
S315080084E0D4F8EC011FF0C8F80023DDE70722D4F81A
S315080084F0783208465D60A4F8E421FEF7ABFD012357
S3150800850088F8D8305EE700BFE81200205015002032
S315080085101415002060140020E03B002008B50BF07D
S315080085207FF920B110F81E3C3038013B837408BD32
S315080085308B7C01F1300201338B74036813B90B632A
S31508008540026070471846F8E738B581624469EFF368
S315080085501185302383F31188D4F8A430014603F13A
S315080085601000FFF7E5FF85F31188BFF36F8FD4F886
S31508008570A420074902F1180013F0DEFA4FF6FF723D
S31508008580B4F8683093421CBF0133A4F8683038BD8C
S315080085909F94000810B50446A37C0846013B04F1E5
S315080085A03001A3740BF044F92046BDE8104033218E
S315080085B0CAE710B5C06F0C4613F087FA206038B1C9
S315080085C0002303601846226813722268536010BDA0
S315080085D01A20FCE7C06C836A03B118477047F8B5E0
S315080085E0044600284BD0837C002B4AD10168856954
S315080085F011B1284613F065FAA16819B1D5F88000BB
S3150800860013F05EFAE37C022B0AD0032B0AD0012B67
S315080086100AD1606820B1FFF703FE2846FFF7DAFFA4
S31508008620012602E06168E1B90026EFF311873023DD
S3150800863083F311882146A86E13F042FAE37C042BD3
S3150800864013D1B5F86430013BA5F8643087F3118877
S31508008650BFF36F8F1EB1E86C436A03B198470020D9
S31508008660F8BD286F13F02CFADEE7052B01D0032B93
S31508008670ECD1B5F86630013BA5F86630E6E722206E
S31508008680EEE70420ECE72DE9F34791460422044679
S315080086908846D0F8A4000DEB02019A46FFF77BFD49
S315080086A0074650B91AF00E0F667A019D1CD0B3071B
S315080086B007D42846FFF793FF2127384602B0BDE8BE
S315080086C0F0871AF0020F14D11AF0040F14D11AF019
S315080086D0080613D1324694F85030052B10D0284698
S315080086E0FFF77DFF0227E8E716F00106E1D1012230
S315080086F0F1E706463A46EEE70426FBE70E26F9E7D3
S31508008700C5F80480A5F80C906C61237A6B740A9BF3
S315080087102B62CAB1A37AE27A1B01DBB21343CAF30E
S31508008720001A43EACA0A85F810A0A37A013303F0AF
S315080087300703A37249464046FDF77CFD2946E881B2
S31508008740204612F0DBFBB8E766F03F062E74F1E729
S315080087502DE9FF410F4603A9064615469846FFF739
S3150800876059FC0446E0B925B30398D0F8A42090F83C
S31508008770A030B2F85C4040F6F772002C08BF1446E9
S315080087800BB1083CA4B2A5420ED80A9B2A46009310
S3150800879039464346FFF777FF04463046FFF72DFC78
S315080087A0204604B0BDE8F0813046FFF726FC2B24AE
S315080087B0F6E72124F4E72DE9F04F5D4B85B01C68F8
S315080087C004F5805898F8A63104F11406002B50D009
S315080087D098F8A731002B4CD1304607F0D9FB07464D
S315080087E0002846D1012388F8A731304607F0D0FB88
S315080087F0029080BB304607F0D7FB94F848303046E5
S3150800880004EB8303DB6CC4E9153313F073FA4FF6F4
S31508008810FF73B4F84A509D4216D1304607F0C4FBA0
S3150800882094F848A04FF00B0904EB8A03D3F84CB030
S315080088305B6B5946029D0393039B994223D194F897
S3150800884049300BB1A4F84A50BB1CEA18B2F5006FC0
S3150800885004F6A61938D3002504F58D502B463A465A
S31508008860009504F6A6110830FFF772FF08B188F8DC
S31508008870A75198F8A631002B57D1304605B0BDE868
S31508008880F04F13F0E8B952463046029107F075FBEF
S3150800889010F4004F029901D08B45D0D1C0F30D02D8
S315080088A0534615443046023207F0F9FA09F1FF3308
S315080088B013F0FF090146ADB2BED140F2AE311D4BF1
S315080088C01D4A1E4815F05AF9290A09EB070209F844
S315080088D0071005F1020A994455701FFA8AFA4D44A1
S315080088E04D451BD094F84920032A17D0B2B1012A66
S315080088F011D1E16D94F84830304691F800B007F090
S31508008900CEFAA36DE065984202D1304613F0F2F92B
S3150800891009F801BBE4E74FF0000BF9E7BA44304623
S315080089201FFA8AF713F097F95FE705B0BDE8F08FED
S31508008930CC0A00201882020834820208BE7802088F
S315080089402DE9F7438946174601A9032206461D461F
S315080089509DF82880FFF71FFC30BB306F019C13F091
S31508008960B4F8606020B9204603B0BDE8F04336E6A7
S31508008970012165F06F05A181C4F814906774257408
S3150800898080F800806068FDF755FCE081EFF31185FB
S31508008990302383F31188214606F10800FFF7C8FD46
S315080089A085F31188BFF36F8F03B0BDE8F08370B508
S315080089B016461C460D46B1B1806F13F086F8A0B175
S315080089C0002303606B680481436002238372346862
S315080089D03CB9022330602846EB74FFF700FE2046B8
S315080089E070BD2646F3E72220FAE71A20F8E710B505
S315080089F078B1FFF715FC044660300AF011FF01460E
S31508008A0010B1A06F13F05CF82046FFF7E3FD0020D5
S31508008A1010BD2220FCE738B505460C4661B148680A
S31508008A2020B1FFF7FDFB2846FFF7D4FD2146A86FC6
S31508008A30BDE8384013F044B838BD10B504461822CE
S31508008A4000211CF06EFC204610BD0368D90444BF03
S31508008A5043F48063036003689A0444BF43F40063E5
S31508008A600360704707B50022074B014683F8D920F3
S31508008A700288064B0432009392B201230448FFF79A
S31508008A8067FE03B05DF804FBE03B00203594000860
S31508008A904015002010F1840F12DA10F1950F25DB2E
S31508008AA09530102822D8DFE800F01D2121211B214E
S31508008AB021211913110F151F1723090008207047C4
S31508008AC0003818BF012070471D2070472E207047B8
S31508008AD02D20704724207047212070471A207047A0
S31508008AE02F2070472C20704725207047012070479B
S31508008AF00F2070470146054B93F87C0283F87C12D9
S31508008B00D3F8803203B11847704700BFE812002037
S31508008B102DE9F04F644E044696F87C320D4692468F
S31508008B208FB0002B00F0BB80022B08D1007A0128F9
S31508008B3094BF00200120C0000FB0BDE8F08F012BC4
S31508008B4000F0AF80033B012B03D8037A012B00F01A
S31508008B50A88094F8A0000028EED02A68137903F0BC
S31508008B60070123F0070313712B68D6F884020693CE
S31508008B70237A07918DF82C30D4F89830CDF82D004B
S31508008B8043F000430D93494BD6F898029A889B798F
S31508008B90ADF831208DF8333000234FF40072099375
S31508008BA00AA9434BD5F80490BAF800700EF03FFDB9
S31508008BB0834688BBDDF82880D8F80430D8E908123F
S31508008BC01B0A012B37D03B48834234D0002B5DD19A
S31508008BD009ABCDE90473069B40460093CDE90279BB
S31508008BE0CDF804900BAB11F037FF10F1860F8346D2
S31508008BF02FD10DF12203B8F800102D480DF12302EC
S31508008C0011F0CDFA031E14BF9B466FF0850B002F9B
S31508008C103FD10A980EF0F6FC5846FFF73BFF10B90D
S31508008C20099BAAF800302A680799137923F00703E5
S31508008C301943117180E709ABCDE90473069B4046D9
S31508008C400093CDE90279CDF804900BAB11F004FF3F
S31508008C508346BBF1000FDAD10A980EF0D3FC12F066
S31508008C601EFFD4F898200132C4F89820D6F894222A
S31508008C700132B2F1005FC6F89422CDD196F87C2273
S31508008C80052AC9D10320FFF735FFC5E76FF0860B24
S31508008C90BDE73A46002148461CF043FBB9E70320E6
S31508008CA04AE7002048E700BFE81200206C150020BC
S31508008CB000024805020080002DE9F04F0646C06C08
S31508008CC0C7B0836998470746002800F0AC83F36865
S31508008CD023B9B368002B3BD11B2435E0A14B93F88D
S31508008CE07C3203F0FB03012BF3D1EFF3118430231D
S31508008CF083F3118806F10C00FFF710FC054684F390
S31508008D001188BFF36F8F0028E3D02B7C4FEA931AA4
S31508008D107F2BAB6898BF4FF0000A43BBF06E12F08A
S31508008D20D4FE286020BBEFF31182302383F3118829
S31508008D30AB7C0133AB74B36845F8303FB56082F35A
S31508008D401188BFF36F8F1A24204647B0BDE8F08F0D
S31508008D50EFF31184302383F3118806F10800FFF737
S31508008D60DDFB054684F31188BFF36F8FCDE7002737
S31508008D70A98900293BD08B1C9BB2D5F814C0BAF13F
S31508008D80000F06D12A7C9CF80B0022F0070202434A
S31508008D902A74287C2C687F28D5F8089029D841B3EE
S31508008DA0B9F1000F28D19CF8A080B8F1000F27D0A0
S31508008DB06C4A92F87C2202F0FB02012A1ED0214658
S31508008DC0304612F07EFEC5F80090EFF3118230238C
S31508008DD083F31188AB7C0133AB74F36845F8303FF5
S31508008DE0F56082F31188BFF36F8F0024ACE70B465A
S31508008DF0C3E7B9F1000F23D04FF0000808339BB240
S31508008E0014216A7CA3701B0A217020710521204653
S31508008E106270E370FDF70EFA6071000AA071B8F18E
S31508008E20000F00F0BC82D6F8800012F04EFE044611
S31508008E30A86038B93046296812F043FE2C6082E7EC
S31508008E40C846DDE72A68474C137910A803F00701DE
S31508008E5023F0070313712B68D5F814B00593AB6894
S31508008E60D5F8048006939BF8083018228DF834301C
S31508008E70DBF89C3009910F93D4F88B320021CDF89A
S31508008E803530B4F88F32AF89ADF8393094F891326D
S31508008E908DF83B301CF045FA0021D4F89842C022E0
S31508008EA016A80C911CF03DFA20464FF480722E4B02
S31508008EB00CA90EF0BCFB044630B10C980EF0A2FBD0
S31508008EC010A812F0D9FA7BE0DDF83090D9F82030F6
S31508008ED00793D9F824300893D9F804301B0A012BD4
S31508008EE046D0224A934227D0002B40F0868004239E
S31508008EF00146A82216A810931CF013FA2023029301
S31508008F0016ABCDE90043DDE907230394494620A8BB
S31508008F1010F09AFA10F1860F044621D10123109316
S31508008F20B9F8001010480AAB0BAA11F038F9002856
S31508008F3018BF04464846C1E704230146A82216A8D6
S31508008F4010931CF0EEF92023029316ABCDE90043EB
S31508008F50DDE907230394494620A810F075FA04466C
S31508008F60ECB1E7E7E812002000024805020080009D
S31508008F700146C02216A81CF0D4F93C231C20CDE9D2
S31508008F80023016ABCDE90043DDE90723494626A89A
S31508008F9010F05AFA04460028CCD105231093B9F8E4
S31508008FA000304846ADF848300EF02CFB9E4B044680
S31508008FB011939DF8543043F010038DF85430F8B1EE
S31508008FC02046FFF767FD2A6809991379044623F0B6
S31508008FD0070319431171AA68002800F0CF8122B14E
S31508008FE01146D6F8800012F06BFD00273046296836
S31508008FF0AF6012F066FD2F60A6E66FF0860499E76B
S31508009000109BCBB19DF8542012F00E0F14D1042BEF
S3150800901036D0052B39D0012B7ED1844B169A9A422D
S315080090200DD00523CDE913379DF8543043F00203DC
S315080090308DF85430109B5BBB6FF0880419E09DF8DF
S315080090405F30022B19D0102B17D8D90715D4052253
S31508009050CDE9212300232393319B18A843F002036B
S31508009060209731930FF003FA0DF00EFB0446002803
S31508009070D7D010A812F000FA22E76FF00C00F3E739
S31508009080394620A810F036FAF0E7394626A8F9E757
S315080090909DF85420D207CFD4119A654922F47E123E
S315080090A08A4203D001F580718A4235D1042B36D025
S315080090B0052B3FD0012B2FD15C4B169A9A4240F0D4
S315080090C0CE809DF85E100C230DAA01F0010118A8A8
S315080090D00FF00CFA0DF0D8FA04460028C9D19DF80D
S315080090E05430109A43F001038DF85430002AA3D067
S315080090F09DF8543003F0090101299DD19C0725D517
S31508009100139B042B08D9053B1393042A79D0052A07
S3150800911000F09080012A1ED06FF08604A9E7339BE1
S31508009120002B89D12FAB0DAA07CA83E807000C23A9
S315080091303393D4E7399B002B7FF47EAF35AB0DAA6A
S3150800914007CA83E807000C233993C8E7374B1199F8
S315080091509942DAD170E7354B169A9A427FD105992A
S3150800916018A810F0ABFF0DF08FFA0446002880D13E
S315080091709DF854300B9043F004038DF85430109B3F
S31508009180002B3FF459AF9DF85420D0077FF554AF14
S3150800919091075FD5139A002ABED1149A9742BBD875
S315080091A0D21B1492042B5DD0052B68D0012BB3D1AA
S315080091B01E4B169A0C979A4251D10CAB3A46414629
S315080091C0CDE9007318A843460FF0C4F90DF05CFA10
S315080091D0044600287FF44DAF0C9B0B939DF8543042
S315080091E04FF0000C43F008038DF85430082310980C
S315080091F00B9CCDF828C00C93002848D16FF0880442
S3150800920072E0059B002B87D0209B002B3FF414AF00
S31508009210DDE9293213437FF40FAF0522059920A80B
S315080092200AF047FFA1E700BF0002500500015005FC
S3150800923000014005059B002B3FF46EAF269B002BD3
S315080092403FF4FAAEDDE92F310B437FF4F5AE05990D
S3150800925026A8E5E7754A11999142A3D1ECE66FF085
S31508009260850406E70BABCDE900733A46434641460B
S3150800927020A810F067F904460028AFD0F9E60BAB32
S31508009280CDE900733A464346414626A8F1E79DF8DC
S31508009290543013F0010264D09A0703D5DDE913129E
S315080092A00A4362D113F010035BD0042808EB0401CB
S315080092B0A7EB040240D005284CD0012855D19DF8CB
S315080092C05F20082A54D8594B1699994253D10699C2
S315080092D018A80FF08BF80DF0D7F90446002842D1EC
S315080092E00A909DF85F000C90069BC0F108020344A3
S315080092F0212118461CF015F810A812F0BDF8002C0C
S315080093007FF4DEAD12F0CBFBDBF89C30484A013324
S31508009310CBF89C30D2F894320133B3F1005FC2F82F
S3150800932094327FF44DAE92F87C32052B7FF448AE2A
S315080093300320FFF7DFFB43E60CAB0193069B20A84F
S3150800934000930AAB10F03AFC0446002C0C9818BFA0
S315080093500020C9E70CAB0193069B26A800930AAB2D
S31508009360F0E76FF088040020BEE76FF08604FAE79E
S315080093706FF08904F7E76FF08504F4E71746D5F828
S315080093800480B5F80C90C144C84527D1083217F8AF
S31508009390011BFCF741FF9742F9D10027E881EFF35B
S315080093A01188302383F31188F06C2946436998475E
S315080093B00446C0B1AB7C0133AB742B46B26843F8A4
S315080093C0302FB3602FB13046296812F07AFB00239C
S315080093D02B6088F31188BFF36F8FB5E418F8011B6B
S315080093E0FCF71AFFD0E7686940B9BAF1020F17D03F
S315080093F088F31188BFF36F8F0124A5E4BAF1000F33
S315080094000ED129468C30FFF793F86A69D37B01336E
S31508009410D3736C69237C1BB91DF0E6FDC4E906010C
S3150800942088F31188DFE434248EE400BF0001500578
S31508009430E8120020094A13B1012382F86432012197
S31508009440074B83F8D91092F87C32042B05D10023F8
S315080094500520C2F89432FFF74DBB7047E81200208A
S31508009460E03B0020EFB506460D46843803A91746AB
S31508009470FFF79FF888B90623039909228B810523EC
S315080094800D7245F48055CB810E600D610F75012371
S31508009490009130460C31FFF75BF904B0E0BD2DE9C9
S315080094A0F047064630274FF0020900F110083369E5
S315080094B07BB1EFF3118A87F311884046FFF72EF840
S315080094C04469054694F850302BB98AF31188BFF3DE
S315080094D06F8FBDE8F087B4F86830002BF5D0013BF4
S315080094E0A4F868308AF31188BFF36F8F2B7C406924
S315080094F07F2B4FEA931231D9032A09D1D0F864A0F9
S31508009500BAF1000F04D0AB6A2A6A6968007AD047B4
S3150800951094F85030062B24D0082B22D0032B17D1D1
S315080095202046FEF757FD98B1637A84F85090DB061B
S315080095300ED5EFF31182302383F31188D4F8A430C3
S31508009540596844F8041F5C6082F31188BFF36F8F73
S31508009550002328466B60FFF742F8A8E7D0F858A022
S31508009560CEE72046FCF742FE0028F1D0D4F8A40046
S315080095700922217A8430FFF775FF18B1092384F888
S315080095805030E5E794F85030062BE1D10723F6E78B
S315080095902DE9F0431D460623137049681446302901
S315080095A087B071D00ED8042905D9202966D00023A2
S315080095B063600D2334E0013903292FD8DFE801F071
S315080095C03257384240F2022399427CD00ED85029AD
S315080095D05DD0B1F5007F5FD04029E8D1516050F8E1
S315080095E0380CC3699847A06008234BE040F2013362
S315080095F099426DD0B1F5885F6FD0A1F58053FF2BE6
S3150800960000F28E80C9B241F480534E485360FEF78B
S3150800961099FC08B190F85000207207E000235360C7
S31508009620A360E1E70123536006231372052329E0AB
S31508009630042303220821C4E901230023C4E90313F0
S3150800964010231FE01346042243F8042F3E4A1168EC
S3150800965059605168128999609A810E2363800123A3
S315080096604374638804332B6007B0BDE8F083022394
S31508009670536010F8333CDB000133D1E7516050F8F2
S31508009680302C22816380ECE75160C36BC8E75160D8
S3150800969050F8380C036AA5E7516003A8FEF7FAFBF1
S315080096A0049BE360002323619DF80C30012B02D153
S315080096B003232372C4E723B923724FF0FF33E36011
S315080096C0BEE70423F5E7214B5160D3F89C32A7E7A0
S315080096D01E4B516093F87C32A2E7516002F10708ED
S315080096E002F1870900221646531C6846CDE9006632
S315080096F0CDE903668DF804208DF81030029605969C
S31508009700FEF72CFC074603A8FEF728FC47EA0017D5
S3150800971008F8017F0232C145D2B2E5D18423B1E708
S31508009720A1F5E063FF2B3FF642AFC9B241F4E0630F
S3150800973004485360FEF706FC00283FF46DAF90F826
S31508009740A00069E7F03B002065820208E8120020C5
S3150800975030B40446EFF3108072B6256885EA020332
S315080097600B406B40236030BC1DF0C3BFBFF34F8F67
S315080097700549064BCA6802F4E0621343CB60BFF39F
S315080097804F8F00BFFDE700BF00ED00E00400FA05BB
S3150800979008B5302383F311884FF000534FF20F02B8
S315080097A018805A80BFF35F8FFFF7E0FF2DE9F0417D
S315080097B00C4615460746002842D0EFF3118630239B
S315080097C083F311881F4BD3F810334B1E0E2B2DD95C
S315080097D089B34FF00008387879784DB31DF08EFEBE
S315080097E00F217A783B78072A03EB43034FEA0313E2
S315080097F088BF083A144895BF4FEA820C4FEA820C94
S3150800980004330C3308FA0CF201FA0CF11844FFF78A
S315080098109FFF24B9387879787DB11DF06FFE86F3FD
S315080098201188BFF36F8F0020BDE8F0818846D2E724
S3150800983012F0BDF8D4E78846D2E712F0B8F8EEE79A
S315080098402220F1E700C0035030C0035008B528B104
S31508009850417800781DF052FE002008BD2220FCE762
S3150800986008B528B14178007812F0A1F8002008BDA3
S315080098702220FCE738B505460C46FCF791FD6B6CD3
S31508009880A3F11402B3F5805F02FB00F005D140F6A0
S31508009890E8736969994288BFCC30E31DB3FBF2F3DC
S315080098A0013304EBC304204438BD38B50546446982
S315080098B02146FFF7DFFF6A6CE31D143AB3FBF2F3A8
S315080098C0AA69144404EBC3040C34204438BD034687
S315080098D00846EFF3108172B6024ADB6BC2F8A01293
S315080098E0DB681847E81200202DE9F0410646406873
S315080098F082B0C0B10F4690460024336853F83450FE
S3150800990003EBC403C5F30752C5F31301013504F18C
S31508009910010406D05B683046CDF80080B84710B120
S3150800992070688442E9D302B0BDE8F081036813F099
S315080099307E0F03D1406820F07C40704713F0780012
S315080099401CBF03F07F03D81F70474BF29A2210B54D
S3150800995003680446B2EB134F13D19BB2012B15D102
S31508009960FCF7D4FE013011D04FF6FF72E068B2EB77
S31508009970104F4FEA10430BD180B2C01A18BF01200E
S3150800998010BD013314BF04200320F9E70420F7E7CC
S315080099900220F5E7F0B50546002687B0EC69013CDC
S315080099A0B44203D80C46204607B0F0BD01B14C1EA0
S315080099B06F6C2868EB6B05225B6901A907FB04003D
S315080099C0984701A8FFF7C1FF0128ECD921460136BF
S315080099D0E4E7F0B503680646CC1A436C0025B4FBE9
S315080099E0F3F487B0F36937685A1E9542706C06D34C
S315080099F0736C306803FB0400143007B0F0BD013403
S31508009A00B4FBF3F203FB1244F36B05225B6901A96D
S31508009A1000FB0470984701A8FFF797FF0128E7D9CC
S31508009A200135DFE710B423F0030422449B070A44F8
S31508009A30436C18BF04325B4282EA0104234202D017
S31508009A405DF8044BC5E710465DF8044B70472DE9F1
S31508009A50F04F144606460F468BB00393C36B01229C
S31508009A605B6907A960689847F36B01225B6938460A
S31508009A7006A99847079B5D1C07D10022A360A2751B
S31508009A80627500200BB0BDE8F08F0122A275002296
S31508009A90217E069D04EBC101CF610A846068C5F387
S31508009AA0D31CB84205F07F010CD14FF0FF33C4F840
S31508009AB000C02175A360237D043B022B26D8002312
S31508009AC0A375DEE794F814E020688E4503D1A0EB71
S31508009AD00C004242424103F07F0001288CBF00205F
S31508009AE0012001298CBF00210121884218BF0022CC
S31508009AF015F07E0FA27503F07E0304D1002BDAD091
S31508009B000023A375D7E7002BD5D1F9E715F07E0F0B
S31508009B100FD1F36B022238465B6908A9984708A853
S31508009B20FFF704FF237D032B50D8DFE803F0140E5C
S31508009B30045806A8F4E7CC22237E04EBC3031A8450
S31508009B4001236A4A13441B7E0AE0237E04EBC303FF
S31508009B5018840023F5E7237E04EBC3031884012346
S31508009B60149A1370069A12F07E084FEAD26A227E79
S31508009B7037D104EBC2020AF0030582F82250F36BD0
S31508009B80B2F820905B69022208A938469847202235
S31508009B900DF117000DEB02018DF81780FCF798FD03
S31508009BA01A2209A9FCF794FD9DF81730099A4FF077
S31508009BB0080BB3EB926F0CBF012300236375637D1B
S31508009BC033BB0023A3754FF0000852E0227E013B09
S31508009BD0DBB204EBC202052B1084C0D8B1E702231E
S31508009BE0AFE7002504EBC202B2F8209082F82250B3
S31508009BF006A91B2208A88DF82050FCF769FD9DF8D8
S31508009C0020204FF0040BA2EB0A0253425341D5E73A
S31508009C1094F81680B8F1000FD5D0B9F1000F09D124
S31508009C20E5B10123E375637E002B36D1012D29D1D9
S31508009C30657615E0736C07EB0B025B4287EA020157
S31508009C400B421CBF0023A375736C591E0A409B1A4E
S31508009C504B45B6D3A37D002BE2D1B4E7E37D43B9E8
S31508009C604FF000084B465A4639463046FFF7DAFEAB
S31508009C70A060A27D237EBAB9012B33D8013323769F
S31508009C80A07DFFE696F8343063B9F36A0133E9D16B
S31508009C90032DE7D10123A376E2E7012DE9D0032DB1
S31508009CA0DED1F7E79846DDE72269012B4A442261AF
S31508009CB018D801332376039B002BE1D0E37D002BD4
S31508009CC0DED0B8F1000FDBD1032DD9D0A1684B1C2B
S31508009CD0D6D0149B2246009330460123FFF7B7FEE1
S31508009CE0A075CDE70023A375CAE700BF90820208D6
S31508009CF013B50C4600212176009361681346224667
S31508009D00FFF7A5FE18B1E37D03B1A07EA075A07D7F
S31508009D1002B010BD2DE9F743044616461F460D4608
S31508009D20DFF87480816AE36A8B421ED04B1C1CD014
S31508009D30DFF860904846FCF76FFF01224946204647
S31508009D400DF10703FFF7D4FF30B13B4620469DF8D7
S31508009D5007201049B04740B1D8F8AC124A1C07D0C2
S31508009D60012D0DD0E36A9942E4D103B0BDE8F08332
S31508009D70D8F8A8122046FFF72CFE012D0146D2D1AD
S31508009D80D8F8A83281EA0302636C5B421A42ECD126
S31508009D90C9E700BF8C150020E81200202DE9F04124
S31508009DA00F4616469846044688B060B390F8345075
S31508009DB0FDB10121FFF78BFD00210E9BCDE90511B1
S31508009DC0CDE902379DF83C30CDF804808DF81C307B
S31508009DD0237C04968BB90D4901AA04F10800FFF704
S31508009DE083FDDDE90553E06B002E08BF1D4612F022
S31508009DF03BF8284608B0BDE8F0812046044A01AB86
S31508009E00FFF788FFEDE70546F3E700BF976400080C
S31508009E1055A000082DE9F041D0E90A369E420446CD
S31508009E2086B028D11422C369456802FB1355284613
S31508009E3006B0BDE8F0812068676C331AB3FBF7F308
S31508009E40E26B07FB0300D2F8148001A90522C0477C
S31508009E5001A8FFF77AFD012804D0636C1D44013B75
S31508009E603340ED1A31462046FFF7B3FD0646A36A8E
S31508009E70B342E0D1DBE70025F9E72DE9F04F0F46BD
S31508009E809A46002389B004464FF0FF3110469046A3
S31508009E908DF80B30FCF7C0FEB7F5801F20D2394687
S31508009EA003AA04F10800FCF74BFB451C014605D143
S31508009EB0237CBBB92D2009B0BDE8F08F4046FCF7DE
S31508009EC0ABFE0122414620460DF10B03FFF710FFBA
S31508009ED00028EDD09DF80B308AF800300020EAE71C
S31508009EE0B81CE5D1E66A711C2CD12046616AFFF7D9
S31508009EF051FD0646BB1C18BF0123DFF8C4B000930A
S31508009F00636A626C0193236803A902FB0639E36B53
S31508009F10484605225B6909F1140998470025494610
S31508009F204B1C05D0636C81EA09025B4213420FD0D1
S31508009F3031462046FFF72EFD019BB3422FD085BB45
S31508009F400646DDE72368F61A636CB6FBF3F6D1E737
S31508009F501A48FCF761FE2046009A18490DF10B03D2
S31508009F60FFF7C6FE8446B8B1BA1C03D0DBF8D03278
S31508009F70BB4211D145469DF80B30DFF840E08AF820
S31508009F800030BEE80F000FC5BEE80F000FC59EE8FB
S31508009F90070085E807006546DBF8D812C0E7002DFC
S31508009FA088D0B7F5801F99D239469AF80030D8F884
S31508009FB0042004F10800FCF7F3FA8FE7B81500202F
S31508009FC0E81200202DE9F04385B00C4617461E46D8
S31508009FD00546DDF83080A0B390F834309BB3B1F570
S31508009FE0801F32D2DFF868900121FFF770FC214606
S31508009FF028460DF10F0309F53F72FFF73EFF0446A9
S3150800A00088B99DF80F30012B14D1D9F80C2306EB2B
S3150800A01008039A4213D300904346324639462846E7
S3150800A02010F0AEFD0446E86B11F01EFF204605B0A1
S3150800A030BDE8F083022B14BF2D246024F3E76324C4
S3150800A040F1E72124F2E71124F0E72924EEE700BF1F
S3150800A050E812002073B50D46D11E4A421C461B7EE7
S3150800A0604A419A4229D129682368994225D36368C7
S3150800A070994222D8124E0DF1070306F54A72FFF7E8
S3150800A080FCFED0B9D6F82C236B689A4215D19DF8F8
S3150800A0900730DA1E53425341227E93420DD163693B
S3150800A0A001336361D4E90323934206D22968A2687F
S3150800A0B042F82310236901332361012002B070BDE1
S3150800A0C0E812002070B50025044686B00562E369EB
S3150800A0D0AB4202D8206A06B070BD666C2068E36B96
S3150800A0E005225B6906FB050001A9984701A8FFF749
S3150800A0F02CFC012898BF236A05F101059CBF013392
S3150800A1002362E4E738B50446456C006804F1400369
S3150800A11005FB0101E06BFCF721FB05462046FFF72E
S3150800A120D1FF284638BD2DE9F04100254FF0FF380C
S3150800A1304FF6FF73044647462E46C0E9085386B0D5
S3150800A140E369B3420DD8A5EB0805012D06D94FF6EC
S3150800A150FF7300256362E369AB4223D806B0BDE806
S3150800A160F081E26B2368606CD2F814C000FB0630FD
S3150800A170052201A9E04701A8FFF7E7FB01280FD848
S3150800A18001A8FCF7C3FA874288BF6662804528BFE4
S3150800A1908046854238BF05460746236A013323624F
S3150800A1A00136CDE7666C2068E36B06FB05000522E1
S3150800A1B05B6901A998470135CDE72DE9F04F97B0BE
S3150800A1C0CDE908230D460A69416CD31D1439B3FB42
S3150800A1D0F1F3013302EBC302036B04469342C0F06A
S3150800A1E0D9820023DFF8C0920C93E36AAD4819467A
S3150800A1F00693FCF711FDD5E903370393099B022B58
S3150800A20040F02681CC2F40F0A682089B002B00F058
S3150800A210F18000266868E36B119601225B6911A933
S3150800A22008309847B04694F84230012B40F0AD808C
S3150800A230632E2DD9119B666C069A1293731E1340D2
S3150800A240F61AE36B01225B69686814A99847149BA0
S3150800A25013F07E0F14BF04230823782F059340F2CA
S3150800A2600781012200234FF0080A04922A68C9F8D8
S3150800A270E072C9F8D022099A032A00F01F81022A3F
S3150800A28000F0C780049A002A14BF00220722C4E0FF
S3150800A290612E08D814AB324629462046FCF7B0F89A
S3150800A2A09DF8503023B314AB3246294620468DF824
S3150800A2B04C80FCF7A5F894F84230DDF850A0012B45
S3150800A2C052D14FF6FF739A4500F09280082214A9DE
S3150800A2D013A8FCF7FDF99DF84C20CAF307239A4208
S3150800A2E040F086805FFA8AFA119B534411937FE007
S3150800A2F094F84230012B2DD132462946204612AB1E
S3150800A300FCF77EF82946204613AB721CFCF778F852
S3150800A3102946204614ABB21CFCF772F80823102213
S3150800A32013A90DF143008DF84330FCF7D1F910223B
S3150800A33014A9FCF7CDF9129BDAB2002A51D19DF87F
S3150800A3404320B2EB132F4CD1DDE9133203EB024362
S3150800A350119346E0302E2BD943E09DF84320B2EB0B
S3150800A360134F3ED1139BF3E7BAF1FF3F40D01022BB
S3150800A37014A913A8FCF7ACF99DF84C20CAF30743B7
S3150800A3809A4235D11FFA8AFAAEE7312E3FF652AF16
S3150800A39089D014AB324629462046FCF731F8BDF879
S3150800A3A05030002B7FF47FAF94F84230012BA3D0B6
S3150800A3B032462946204612ABFCF722F829462046A3
S3150800A3C013AB721CFCF71CF81023202213A90DF1FD
S3150800A3D043008DF84330FCF77BF9129B9AB2002AAA
S3150800A3E0BBD094F84230012B14BF012302231E442C
S3150800A3F0013618E7039B01221B684FF0080A1293DF
S3150800A4002B680492C9F8D03208230593089BC9F82B
S3150800A410E072049AC2F10202D2B289F8E4224FEA43
S3150800A4209A020E92069A019200220A920D920792B9
S3150800A4300B92606C019A411E1140421A002F3FD0C0
S3150800A44053449A4247D8236B1B1A0B4423635BE198
S3150800A450666C069A731E1340782FA6EB030619D866
S3150800A460EB7D8BB9089B002B7FF4EBAE0423059399
S3150800A4703B1DB3421AD9F7B1082E3FF6F2AE0423B4
S3150800A48000229A460492F1E6089B002B7FF4D9AE87
S3150800A4900823ECE7089B002B7FF4D3AE082305932B
S3150800A4A0DFE600BFB8150020E81200200023049359
S3150800A4B04FF0040ADAE604230497F9E7099AACE7A9
S3150800A4C05245C0D3B846019B53440293079B002BC1
S3150800A4D018BF032314E0A2EB0A02019B9742B84671
S3150800A4E0534428BF904697420293EFD90123D9F8DF
S3150800A4F0E02289F8E732974243D1019AC9F8D42273
S3150800A500079399F8E732002B3DD099F8E82201998C
S3150800A510D31C09EBC303C3F8D41207990132A3F875
S3150800A520D88283F8DA1289F8E822B8F1000F14D035
S3150800A530099B022B2BD10A9B7BB90D9B4344032B0A
S3150800A5400BD9E36B01229B69029812A99847064624
S3150800A550002840F0278101230A9399F8E4322E68EF
S3150800A5608D4A012B02EAC61628F07C4B40F28980F8
S3150800A5709A1E012A03D908F1070303F07F031E4335
S3150800A58085E00223BCE7019BC9F8D432CDE7089BD6
S3150800A590002B31D1039BB8F1030F03EB080B28D925
S3150800A5A0DDE90201E36B4FEA98029B699847064684
S3150800A5B0002840F0CA8018F003025FD0039B28F0F9
S3150800A5C0030633440393029B1E444FF0FF3303995B
S3150800A5D013A813931BF0C4F8E36B304601229B695A
S3150800A5E013A998470646CDF80CB0002EB5D0029BA5
S3150800A5F06FE04246029EE8E705F12003DDF808B061
S3150800A6000F93EB7D68689BB100232E7E0B9AD9B217
S3150800A6108E4211D90F9903F1010C31F8331091428A
S3150800A62026D9059905EBC303D8690A44104403E003
S3150800A6300B9B059A13441844E36B01225B6913A923
S3150800A6409847139B012211930B9B584604330B938F
S3150800A650E36B11A99B699847029B06464344A3EB03
S3150800A6600B03042B07D9002872D10BF1040BC8E79A
S3150800A6706346521ACBE7CDF808B0B6E7CDF80CB06A
S3150800A6806BE7079A43EAC263334343F060464FF0E9
S3150800A69000038DF84C30049BCDE9146B002B49D090
S3150800A6A0202214A913A8FCF713F81A2215A9FCF7F7
S3150800A6B00FF89DF84C304BEA83631593E36B0E9ABB
S3150800A6C09B69019814A99847019A061E0C9B18BF06
S3150800A6D0134652460C93204643460199FFF7A2F9C2
S3150800A6E0236B08F10302A3EB0A0322F003029B1A69
S3150800A6F0C9F8D8022363002E54D10D9BA7EB08078F
S3150800A70043440D93029B019320460199FFF761F993
S3150800A71000230190002F7FF48CAE204A04F1080034
S3150800A720D2F8D832D2F8D422E3622968099BFBF71B
S3150800A73037FF11E01B2214A913A8FBF7C9FF9DF8E0
S3150800A7404C3046EAC3661496B8E7CDF80CB04EE727
S3150800A750CDF808B04BE77027384617B0BDE8F08F3C
S3150800A760002760E004F10800FBF7B1FE3B463946D6
S3150800A77020460B4AFFF7CEFA2A69616CD31D1439B5
S3150800A780B3FBF1F3013302EBC302236B9342BFF42D
S3150800A7902CAD6DE01C27DFE780FFFF07E8120020DD
S3150800A7A0516600083D2E63D104F10803019327681A
S3150800A7B0069B2046E16AD4F844A0A3EB070BFFF7F3
S3150800A7C008F9A26ABBFBFAFB8242D5D0616CD9F8BC
S3150800A7D0D82201F1FF3C02EA0C0C226B0C9B521AA0
S3150800A7E0624422632268E0629A1AB2FBF1F8C34512
S3150800A7F0B6D10AFB0877069B07F1140BB3EB0B07D8
S3150800A80011D0E36BBA0859469B6998478246E26AB3
S3150800A810069B3A44E262226B0198D21A5A44226392
S3150800A820FBF755FE57462368616CE06B01FB083160
S3150800A830FBF73BFF2046FFF745FC2046FFF773FC76
S3150800A840626A616C2368204601FB02331433A362F3
S3150800A850FFF7E0FA2063002F84D02A69616CD31DC4
S3150800A8601439B3FBF1F3013302EBC30290429ED2D3
S3150800A870374671E7F7B5089C032A1646256805D1B9
S3150800A880237A012B25D0012003B0F0BD274F284697
S3150800A8900DF1070307F54A72FFF7EFFA6060002823
S3150800A8A0EED1D4F800E0D7F82C03DEF82810DEF84D
S3150800A8B044C04840CCF100031840227AE0D1012A6E
S3150800A8C009D1E268D7F8383313446A69934202D942
S3150800A8D02074207CD8E7DEF80020DEF82C30891AB0
S3150800A8E09B1AB3FBFCF3B1FBFCF18B420DD1696CEF
S3150800A8F0EB6A4A1E13402A6B521A13442B632568C7
S3150800A9002846A96AFFF765F8E862D7F83823E368A6
S3150800A91008321344E3600122334605492068FFF7ED
S3150800A9204CFC60600028ABD00020ADE7E8120020A0
S3150800A93010160020032A2DE9F34106460D46174650
S3150800A9401C4606D1237A012B24D0012002B0BDE88B
S3150800A950F081DFF8608009680DF1070308F54A728F
S3150800A960FFF78BFA60600028ECD19DF80720237A60
S3150800A970032AE7D0D8F82C136A689142E2D1012B52
S3150800A9802969D4F80CC007D172690CEB010393420C
S3150800A99002D92074207CD9E708316144E1603B463E
S3150800A9A0012229463046FFF708FC60600028C9D016
S3150800A9B00020CBE7E81200202DE9F34104461F46A4
S3150800A9C0164688462C4D4FF0FF3105F54A70FCF7C0
S3150800A9D023F99DF820300022204605F54A71C5E97D
S3150800A9E0CD67C5F82883FFF7E8FB236E0746002BDB
S3150800A9F03DD020466169FEF73DFF626E236B024437
S3150800AA0093422CBF00220122984228BF0023257CAE
S3150800AA1038BF1B1A002684F85020636584F85850FE
S3150800AA20D5B1DFF85880334632463146204601967E
S3150800AA30CDF80080FFF7B2F901230546CDE900837A
S3150800AA403246334631462046FFF7A8F9E3680544FF
S3150800AA509D4294BF3546ED1A94F85030E56513B912
S3150800AA6094F858301BB1236E04F1500098473846C5
S3150800AA7002B0BDE8F08100BFE8120020FFFF0F001A
S3150800AA802DE9FF410F4690461E460546002847D049
S3150800AA9090F83430002B45D0B1F5801F44D2234CB2
S3150800AAA00221FEF714FF04F53F72394628460DF1D8
S3150800AAB00F03FFF7E2F9024620B16B699E4219D9E6
S3150800AAC0622410E09DF80F30012BF6D1D4F80C1350
S3150800AAD08E42F2D1009341463346284610F050F88C
S3150800AAE004460028E9D1E86B11F0BEF9204604B007
S3150800AAF0BDE8F081284610F0AFFF31462846FEF73C
S3150800AB00B9FE2C6B844209D3012342460093394689
S3150800AB1033462846FFF750FF0446E4E71C24E2E7DD
S3150800AB202124E3E71124E1E72924DFE7E8120020DE
S3150800AB3007B51F4890F8543303B9FEE70023694662
S3150800AB4000F55670CDE9003311F09AF9E8B9194ABB
S3150800AB50D2F84031D2F840211F2B4FF001030FD90C
S3150800AB60203A9340019A1A43019208236A461249E9
S3150800AB701248FFF785FF124B124A1A60FEF7F6FDD8
S3150800AB809340009A1A430092EFE72D28F3D1094A19
S3150800AB90D2F84031D2F840211F2B4FF0010385BF70
S3150800ABA0203A93409340019398BF0093DDE700BF96
S3150800ABB0E8120020008000440071080040160020BA
S3150800ABC0000000200B020FF07FB50C46054648B37F
S3150800ABD090F8343043B3B1F5801F27D20221FEF72F
S3150800ABE076FE21462846124A0DF10F03FFF745F96E
S3150800ABF00646A8B99DF80F30032B11D0284610F049
S3150800AC002BFF032321460093324633462846FFF797
S3150800AC10D3FE0446E86B11F027F9204604B070BD50
S3150800AC202D24F7E72124F8E71124F6E72924F4E789
S3150800AC30E4150020F0B504460D46466CE36B006843
S3150800AC4087B005225B6901A906FB0500984701A89C
S3150800AC50FEF77BFE012804D801A8FBF757FD07B0CD
S3150800AC60F0BD29462046FEF795FE0646676C206825
S3150800AC70E36B05225B6901A907FB0600984701A853
S3150800AC80FBF744FD431CEAD0B54238BF0130E6E77E
S3150800AC902DE9F04F4FF0FF334FF6FF7200250446BB
S3150800ACA000F10808C0E909238BB0C3620562056391
S3150800ACB040468B46FBF70BFC2046FFF703FA40BBE2
S3150800ACC04FF6FF79676A00264F4514BF3D460025B3
S3150800ACD0E3699E423BD32046FFF7F4F908BB5E20A2
S3150800ACE028E02368E26B606C566900FB0530052294
S3150800ACF005A9B04705A8FEF728FE01281DD1294653
S3150800AD002046FFF797FF421C29462046FFF7FAF927
S3150800AD100135E3699D42E4D32046FFF7D3F90028BD
S3150800AD20CED02046FFF7FFF94FF6FF72636A9342CB
S3150800AD3037D167200BB0BDE8F08F0338C0B20128C1
S3150800AD40E6D829462046FFF775FF0246DCE7E26BA0
S3150800AD502368606CD2F814C000FB0530052205A9EB
S3150800AD60E04705A8FEF7F1FD022807D04F450DD1AB
S3150800AD700BF1010229462046FFF7C4F9E3690135BC
S3150800AD80B5FBF3F2013603FB1255A1E72946204627
S3150800AD90FFF750FFB0F1FF3F14BF02465A46013293
S3150800ADA0E8E7E26B666C206855696946052206FB8A
S3150800ADB00300A847626A616C23684B4D01FB0233A6
S3150800ADC01433A3624FF0FF336FF00101E3622046AC
S3150800ADD005AB05F54A72FFF750F8002849D1D5F8B2
S3150800ADE0305329462046E562FBF7F1FA206320B97D
S3150800ADF02046E16AFEF7EDFDE06229462046FEF7A9
S3150800AE00E8FD0546A36A9D4235D12046FBF7C8FAF8
S3150800AE10002607463546E3699D423ED3B74257D9D1
S3150800AE202046616AFEF7B6FD4FF00008054604F1B4
S3150800AE30400A464512D8626C2368694602FB053902
S3150800AE40E36B05225B69484698476846FBF75EFC54
S3150800AE50534602464946E06BFBF780FC29462046E6
S3150800AE60FEF798FD08F1010847450546E1D164203B
S3150800AE7060E7A56AB5E729462046FBF7A8FA236BDB
S3150800AE8029460344064623632046FEF7A2FD0546E7
S3150800AE90002EB7D1C4E90B06B4E7626C236805A98E
S3150800AEA002FB0539E36B05225B694846984705A806
S3150800AEB0FEF74BFD012809D8204609F11401FBF7D6
S3150800AEC086FA636C143B984208BF01360135A2E73F
S3150800AED04046FBF7FCFA002320461946034AFEF7CC
S3150800AEE019FF002026E700BFE81200205166000877
S3150800AEF02DE9F8430023B04CB04E94F88C73D4F87F
S3150800AF00C083D6F8DC50C4F8C0337FB3D4F85823CE
S3150800AF10AA4240F04581D6F8E010D4F85C23914265
S3150800AF2040F03E81D6F8E410D4F86023914240F010
S3150800AF303781D6F8E810D4F86423914240F030817E
S3150800AF40D6F8EC10D4F86C23914240F02981D6F853
S3150800AF50F410D4F89423914240F022811D46D6F885
S3150800AF60F020C4F870232846BDE8F88358223946ED
S3150800AF7004F55A70D4F890931AF0D3F9D6F8E0305D
S3150800AF8004F55870C4F85C33D6F8EC30C4F89093DE
S3150800AF90C4F86C33D6F8F030C4F85853C4F8703394
S3150800AFA0D6E93923C4E9D823FBF791FAD6F8F43061
S3150800AFB004F56670C4F894339B68984730B9D4F89A
S3150800AFC09C731FB1D4F85C33B3FBF7F794F89B3343
S3150800AFD0C4F87473002B00F0E5800023D4F89C5362
S3150800AFE0C4F8B833002D00F0E580002F00F0E280A9
S3150800AFF0D4F85833B3FBF5F205FB1233002B40F0B7
S3150800B000D380D4F85C73B7FBF5F605FB1676002EED
S3150800B01040F0CA806A48FEF748FC8742C0F0C680FE
S3150800B02040F63472D4F86C33CC3B934200F2C080BD
S3150800B030B5F5805FC0F0BE8003216148FEF747FC86
S3150800B040D4E9D601D4F894331B6898470546D4F852
S3150800B05094330220DB68984735B184F88C63D4F8BA
S3150800B060940310F001FF7EE741465548FFF710FEAE
S3150800B0706428054604D141465148FFF709FE0546AE
S3150800B080D4F89C33143B7DBBD4F878234C4802FB98
S3150800B09003F6FEF70AFC864203D284F88C535A2537
S3150800B0A0DDE70123D4E9D66084F88C33D4F8C433B9
S3150800B0B0D4F8C8730133C4F8C433FBF7C7FC1F2898
S3150800B0C016D8BFF35F8F05223E4BC3F894205A6A01
S3150800B0D042F480325A62BFF34F8FBFF36F8FBFF3CC
S3150800B0E04F8FBFF36F8FBAE7002384F88C33B6E728
S3150800B0F04FF0000CF10600F1FF3018BF26F01F01D3
S3150800B10006EB00030CBF31462031DA062D4A18BF7C
S3150800B11023F01F035FFA8CF0874226D8D2F8C000C6
S3150800B12021F01F0120F47F4040F48070C2F8C0006F
S3150800B13041F00301EFF31186302080F31188D4F82B
S3150800B140C80323F01F0343F00303C2F89800C2F8AC
S3150800B1509C10C2F8A03086F31188BFF36F8FD4F81D
S3150800B160C8330133C4F8C833ABE7C2F89800D2F83D
S3150800B1709C00D2F8A06020F01F00884226F01F0627
S3150800B18001D19E429DD08E4201D3984299D9D2F8D8
S3150800B19098000CF1010C20F0FF00C2F89800B9E7FE
S3150800B1A05D25E0E62125DEE65925DCE65A25DAE6C0
S3150800B1B05F25D8E65B25D6E6E8120020E03B0020AE
S3150800B1C04016002000ED00E0034B5A6812B19A6A57
S3150800B1D0002AFAD1704700BF00400650044BD3F846
S3150800B1E08420D206FBD4D3F88400C0F381107047BC
S3150800B1F000400050430905D0012B0CD0022B084B08
S3150800B20018BF002300F01F0039B103F5805301224F
S3150800B21082401A607047034BF4E703F50053F6E7DC
S3150800B220688000506480005010B5EFF31182302317
S3150800B23083F31188204B93F8CC432CB182F3118801
S3150800B240BFF36F8F1D4810BD012183F8CC1382F31D
S3150800B2501188BFF36F8F202083F8004183F81041CF
S3150800B26083F8204183F8304183F8404183F8504100
S3150800B27083F8604183F87041FFF7BCFF2120FFF790
S3150800B280B9FFFF220E4B59609C609C619A624FF091
S3150800B29000429C631C645A654FF0FF3203F5005365
S3150800B2A01A6580214FF40012064BC3F8802183F8F3
S3150800B2B015131A602046C6E7E8120020038000F03E
S3150800B2C00000045000E100E01FB50023B0F5807FC0
S3150800B2D0019300F03E816BD85E2862D85E2863D859
S3150800B2E0DFE810F077006200620062006200620028
S3150800B2F06200620062006200620062006200620030
S3150800B300620062006200620062006200620062001F
S3150800B310620062006200620062006200620062000F
S3150800B320620062007700F2007700F2001301130151
S3150800B330130113011301F20025018000AB00480137
S3150800B3408000F200F200F200620062006200620011
S3150800B3506200620062006200F200F200F200C100C0
S3150800B3606701F20062006200620062006200620029
S3150800B37062006200620062006200620062001301FD
S3150800B3807700770077005801800080007301D000AD
S3150800B3909600200162006200620062006200DD0021
S3150800B3A07700802800F08180019805B05DF804FBDD
S3150800B3B0B0F5D06F00F0DE8044D8B0F5607F00F0BD
S3150800B3C08A801AD8B0F5007F73D005D8B0F5C07F4B
S3150800B3D0EAD11BF095FD6AE0B0F5207F74D0B0F590
S3150800B3E0407FE1D11BF08CFD924B1B6FC3F380238A
S3150800B3F00133B0FBF3F0400859E0B0F5B06F00F048
S3150800B400968017D8B0F5806F7FD0B0F5A06FCBD1F6
S3150800B4100021884B0391D3F8203203F00703042B4D
S3150800B42006D8022B7AD8012B74D0022B00F0E380C1
S3150800B430039B98E0B0F5C06FB6D1002101A8FBF7D1
S3150800B44079FAB1E7B0F5106F00F0A4800FD8B0F51F
S3150800B450086F00F0D980A7D8B0F5E06F00F0A98092
S3150800B460B0F5F06FA0D1734BD3F86031A4E0B0F516
S3150800B470406F57D010D8B0F5206F00F0A680B0F511
S3150800B480286F91D100216B4B0391D3F8703203F0EA
S3150800B4900303012BCCD1AAE0B0F5486F84D1002371
S3150800B4A00393644BD3F8943294E01BF00BFD0190A0
S3150800B4B07AE71BF007FD5F4BD3F89030C3F30463BC
S3150800B4C00133B0FBF3F0F2E71BF01AFD594B1B6F83
S3150800B4D0C3F38023F4E75749D1F8802002F003022A
S3150800B4E0022A0AD0032A0BD0012A0CD11BF0EAFC47
S3150800B4F0D1F88030C3F30113E2E71BF089FCF7E7C4
S3150800B5004D4B5868F4E71846F2E7002101A8FBF707
