S02100006275696C642F64656275672F6F742D6E63702D6674642D6370632E7333373F
S3150800600008140020E9180708FD860008018700081B
S315080060100F4D0708058700080D870008ED180708C3
S31508006020ED180708ED180708ED180708ED18070812
S315080060301187000838470808ED180708ED180708FB
S31508006040F1D60208ED180708ED180708ED18070835
S31508006050ED180708ED180708ED180708ED180708E2
S31508006060ED180708ED180708CDEE0208ED18070821
S31508006070ED180708ED180708ED180708ED180708C2
S31508006080ED180708ED180708ED180708ED180708B2
S31508006090ED18070811950308ED180708ED18070805
S315080060A0ED18070811010308F1000308ED180708A1
S315080060B0ED18070865E8040861F104084DCD0708DE
S315080060C049CD0708ADE8040863CD070851CD070890
S315080060D031F1040855CD070845FB0408A1F1040869
S315080060E0ED180708ED180708ED180708ED18070852
S315080060F0ED180708ED180708ED180708ED18070842
S31508006100ED180708ED180708ED180708ED18070831
S31508006110ED180708ED180708ED180708ED18070821
S31508006120ED180708ED180708ED180708ED18070811
S31508006130ED180708ED180708ED180708ED18070801
S31508006140ED180708ED180708ED1807080BE2070809
S31508006150DDD40408ED18070809D304083DD304085C
S31508006160ED180708ED180708ED180708ED180708D1
S31508006180F0B5114A114C124E00F00105E3695F079C
S3150800619013D40DB9334213D103EA00078F4207D14E
S315080061A00B4A1A40002A14BF6FF001000020F0BD08
S315080061B0013AEBD16FF00200F9E74FF0FF30F6E74E
S315080061C06FF00100F3E700BF8096980000000350C7
S315080061D0020001000B4B70B5D96911F480310DD15D
S315080061E001244FF48072084E084DF46020462C6452
S315080061F01A61FFF7C5FF3464EC6070BD6FF00100EB
S31508006200FBE700BF000003500010035000200350B6
S315080062104FF4803238B50E4B0E4C9A66E56941F656
S31508006220713315400122E3630B4B0021DA60022328
S31508006230606121202361FFF7A3FF10B92120FFF732
S315080062409FFF0122054BDA600DB10023E36338BDD9
S315080062500090005000000350001003500020035027
S3150800626070B5134C6061E3695B071ED40E4656F899
S31508006270043B8D18A361AE420BD1042300212120D3
S315080062802361FFF77DFF58B9BDE870402120FFF76D
S3150800629077BF08210846FFF773FF10B1042323616F
S315080062A070BD56F8043BA361E5E74FF0FF30F7E70A
S315080062B0000003502DE9F84316464FF48032184B78
S315080062C089469A6603F51C33DA69074602F480386C
S315080062D041F67132DA63012203F58053114DDA6013
S315080062E066B930460122104BDA60B8F1000F03D0C8
S315080062F00022A3F50053DA63BDE8F88307F50054D6
S315080063002C40E41BB44228BF344649462246384648
S31508006310FFF7A6FF0028E5D12744A144361BDFE78F
S315080063200090005000E0FFFF00200350000000002E
S31508006330000000000000000000000000000000004F
S31508006340013800D0FCE7704773B54AF051F80446A7
S3150800635000286ED13A4B01AE1A889B78ADF8042016
S31508006360B37000F001FD01F04DFA01F0ABF90546F6
S31508006370344B036001F01CFC284601F039FB00B9D8
S31508006380FEE72DA3D3E900234FF0FF314FF0FF308E
S3150800639000F0F2FC01F09AF9214601F0F3F94AF00F
S315080063A02AF8304601F0E6FA044600B1FEE7264B25
S315080063B0264A98801860264B98801A60254B264AEC
S315080063C098621A60254A98806FF06300DA6002F0D6
S315080063D0C1FB0B2001F0C8F901F026FA01F06CF9AF
S315080063E000B9FEE733F0A8FC20464AF0C5F90821B3
S315080063F008464AF0C6F900B1FEE74AF0BBF901F0D3
S31508006400B1F84AF006F9102115486EF0C9FC00B932
S31508006410FEE7144912486EF0D5FC00B9FEE71021D4
S315080064208C20114A33F042F900B1FEE70F484CF0D0
S3150800643073F802B070BD00BF0AE020FF2202000018
S31508006440911F0808AB050508881400201CAA00201F
S3150800645058140020281400209CA900201814002095
S3150800646014940020F9DB070804940020ACE207081E
S315080064702DE9F74F98460023DFF8B0B00746834565
S315080064808B41894615463ED226A3D3E9002341F01F
S315080064906DFA1F4914460246284650F021FD1D494B
S315080064A04EF66023B4FBF1F201FB1246B6FBF3FA93
S315080064B0002003FB1A664FF47A73BB4570EB09009C
S315080064C0B6FBF3F304D38C4202D218F0020F05D1BF
S315080064D028461149019350F003FD019B5246284670
S315080064E00E4950F0FDFC18F0010F0ED04FF47A73E8
S315080064F0B6FBF3F2284603FB1262094903B0BDE86E
S31508006500F04F50F0EDBC0446C9E703B0BDE8F08F84
S31508006510670E080880EE36006D0E0808730E080828
S315080065202D0C0808005C260500000000FF5B260508
S315080065300348044B834202D0034B03B11847704704
S31508006540E4B60020E4B6002000000000064B074928
S31508006550C91A891048BF0131491003D0044B0BB141
S3150800656001481847704700BFE4B60020E4B600208B
S315080065700000000010B5064C237843B9FFF7D8FF92
S31508006580044B13B10448AFF300800123237010BDF8
S3150800659080A9002000000000049A080808B5054BE9
S315080065A01BB105490548AFF30080BDE80840FFF771
S315080065B0CDBF00BF0000000058930020049A0808C9
S315080065C0A3F5803A704700BF174B002B08BF134B43
S315080065D09D46FFF7F5FF00218B460F461348144AE0
S315080065E0121A75F0D6FA0E4B002B00D098470D4BB1
S315080065F0002B00D098470020002104000D000D480C
S31508006600002802D00C48AFF3008041F009FD2000B5
S31508006610290075F0FBF941F08FFB00BF0000080068
S3150800662000000000000000000814002008140020E4
S31508006630E0AC00200000000000000000094B091A29
S31508006640891030B559430246002324258B4205FBA1
S31508006650032004D0046A04B130BD0133F6E70020F4
S31508006660FAE700BF398EE33807B50A4600B9FEE7F0
S31508006670037F03B1FEE7074B0190009341680123AE
S315080066804FF0FF3075F0FDFC00B1FEE703B05DF892
S3150800669004FB00BFEDDB070830B5044685B00846A5
S315080066A004B9FEE7237F03B1FEE703A9656877F01F
S315080066B02DF948B90123064ACDE900030399234673
S315080066C0284677F050FD00B1FEE705B030BD00BFA3
S315080066D0F3DB070838B5174D174C2022002128464A
S315080066E075F057FA18220021204675F052FA002153
S315080066F000200022114BC3E90001114B11491A77FA
S31508006700996011491A62D9601049C3E900251961CF
S315080067100F499A6159610F4B0F499A6199600F4960
S315080067201A77D9600E49C3E9002419610D491A621E
S31508006730596138BDD8930020C09300200814002062
S315080067409C93002099660008A7FB040881FB0408AF
S31508006750ABFB0408789300206966000899FB0408D7
S315080067609FFB0408EFFB0408154910B5A1F12400A6
S31508006770FFF764FFA0B11249A1F12400FFF75EFFFD
S315080067800446A8B90F49A1F12400FFF757FF0446AC
S3150800679068B120460C4949F00DFA20460949F4E744
S315080067A00849A1F12400FFF749FF0028E3D110BDED
S315080067B02046064949F0FEF920460149DEE700BFB2
S315080067C0C09300209C930020E12E0108992E010811
S315080067D0014B1B69184700BF9C9300202DE9F8431D
S315080067E00C461546804649F0BBFF24234343104A0E
S315080067F0D1589F1809B942F80380002314EB0509FC
S31508006800404643EB030649F0ABFF0A4B03EBC002D5
S3150800681043F83090566077F05BFA06462A463846C3
S31508006820214649F009FA3046BDE8F84377F04BBAF5
S315080068309C9300200814002038B5054677F048FADE
S315080068400446284649F08CFF2422054B02FB0030FB
S3150800685049F0C2F92046BDE8384077F034BA00BF9F
S315080068609C930020014B1B69184700BF78930020B2
S3150800687070B577F020FA05464FF0FF3075F0CEFD7B
S31508006880044608490B6808608342074B284682BFBE
S315080068901A6801321A601E6877F008FA20463146EF
S315080068A070BD00BF7493002070930020F8B50D46A4
S315080068B01646044649F054FF24234343084AD15850
S315080068C09F1801B9D45077F003FA04463246384681
S315080068D0294649F0B1F92046BDE8F84077F0F3B902
S315080068E07893002038B5054677F0F2F9044628462D
S315080068F049F036FF2422054B02FB003049F06CF9BB
S315080069002046BDE8384077F0DEB900BF789300200E
S3150800691030B589B06CF0D7FA012820D1114C124D48
S315080069200021182202A875F034F9204602A969F058
S3150800693072FC88B9039B1B0A012B0DD0BDF80830E1
S31508006940B3F5885F08D040F20113204601AA02A9D0
S315080069500194039326F01AFF0134AC42E0D109B042
S3150800696030BD00BF01000200080002002DE9F04713
S315080069700E46DCB00746DDE965599246002120221D
S3150800698004A81C469DF8908175F003F9032E6AD178
S315080069900CA871F062F9022036F008F801460CA836
S315080069A036F010F80346002859D1334A2946CDE96E
S315080069B0000202905FFA89F20CA836F0E9FD054656
S315080069C000284ED1A0220CA934A875F035F934A8B0
S315080069D071F07EF9023802288CBF284635982023A4
S315080069E004AA34A9349535F0D3FB051E18BF012532
S315080069F00CA871F037F9002D39D14FF0200904ADF4
S31508006A001E4B33F81610BAF1040F96BF1C4B002222
S31508006A1053F82A2004F00103A60748BF43F48073FD
S31508006A20660748BF43F40073260748BF43F48053FC
S31508006A30E60648BF43F40053A60608F1FF3448BFEC
S31508006A4043F48043604260410090CDE901593846DD
S31508006A5069F089FB5CB0BDE8F04749F050B90125FB
S31508006A60C6E70625C4E7042ECAD90021CBE728467F
S31508006A705CB0BDE8F08700BFBDA507087CE2070843
S31508006A8068E2070808B5134660B1006850B14AB114
S31508006A9041B10A460068044969F0C5FBBDE80840EB
S31508006AA049F02DB9072008BD0044400408B540B197
S31508006AB0006830B1044969F0F1FBBDE8084049F0C7
S31508006AC01EB9072008BD00BF090000021FB5012333
S31508006AD04FF480720390CDE9003247F212114FF459
S31508006AE04053044A03A869F069FB49F008F905B060
S31508006AF05DF804FBFF0600067FB513460A4681B11A
S31508006B007BB10121039105A902914021CDE900310C
S31508006B102023064969F0E7FB07B05DF804EB49F066
S31508006B20EEB8072007B05DF804FB00BF09060006AB
S31508006B302DE9F04F00244FF4804B41F2010AADF5E0
S31508006B400B7DDFF82491CDE90223BDF854824FF47A
S31508006B50E072CDE9000121461AA80494059406942A
S31508006B6075F017F849461AA838F098FE41461AA84B
S31508006B7072F0AFFB2346949A40F205211AA838F022
S31508006B80C3FE14AC08A849F0A6F82046CDF850B0C4
S31508006B9049F0A9F8DDE90212149B05AE0A9308A884
S31508006BA03346CDF82C90ADF820A037F0C7FA059AF1
S31508006BB040F202211AA872F058FC0EA849F08BF888
S31508006BC02046CDF850B049F08EF8DDE90012149B46
S31508006BD004AD109341F203230EA8ADF838302B46C6
S31508006BE0CDF8449037F0AAFA4FF48171049A1AA89E
S31508006BF072F03BFC204649F06EF84FF6FF724FEAFA
S31508006C00C803B8F5005FA8BF1346ADF85230012394
S31508006C100DF11C094846079349F065F8079B06AF2E
S31508006C201693104B3A461AA920461793ADF850A06A
S31508006C3038F028FE4B4642469699069871F003FDB1
S31508006C4049F05DF80446069871F092FC059871F0D3
S31508006C508FFC049871F08CFC20460DF50B7DBDE881
S31508006C60F08F00BF0010C0040002800830B50C4643
S31508006C70154697B098B391B38AB3042300F140023E
S31508006C808DF814300DF1150350F8041B904243F8A3
S31508006C90041BF9D14123029305AB0193002344F267
S31508006CA0121100930F4A4FF4005304A869F05BFAD7
S31508006CB000B1FEE7402301220B49CDE901320498D1
S31508006CC022462023009569F025FB0446049869F0BE
S31508006CD0A8FA204617B0BDE8304049F010B807209A
S31508006CE017B030BDFF0600060906000608B52CF0E9
S31508006CF03DF9034B1860BDE808406BF0E3BB00BFE5
S31508006D00F89300200E4B1B68D9070FD45A060FD4E8
S31508006D1013F0180F0ED199070ED49A060ED440F226
S31508006D208472134214BF062007207047002070475C
S31508006D3002207047082070470120704703207047DB
S31508006D40F8930020014876F03BB800BF40000100E8
S31508006D500021014876F020B80A0001000021014808
S31508006D6076F01AB86000010000200021014BC3E943
S31508006D7000017047101400202DE9F04F144C9B4673
S31508006D80D4E9006585EA030786EA020808EA0008E6
S31508006D900F4058EA07038246894685B014D0039205
S31508006DA000F084FC80B1039A4B46CDE9002B52468D
S31508006DB075F007FA014610B106484BF0AAFB86EAB9
S31508006DC008067D40C4E9006505B0BDE8F08F00BF40
S31508006DD01014002086E2070870B50C46064649F0EE
S31508006DE0C1FC05460246214606484BF095FB21465E
S31508006DF0304601F063FA2946204600F083FD00B1CB
S31508006E00FEE770BDB8E2070870B586B00E4649F0D1
S31508006E10A9FC0546114B06F1080403EBC00314F858
S31508006E20012DB44203F8012BF9D1059523780C48B6
S31508006E30049363780393A3780293E3780193237901
S31508006E400093E1796379A2794BF066FB29462046DF
S31508006E5000F060FD00B1FEE706B070BD92A9002003
S31508006E60CAE2070838B50C4649F07CFC05460246D6
S31508006E70214605484BF050FB2946204600F052FDB6
S31508006E8000B1FEE738BD00BFECE2070808B549F0D7
S31508006E907CFC10B902484BF03FFB002008BD00BF40
S31508006EA002E3070808B549F070FC20B103484BF027
S31508006EB033FB002008BD0D20FCE700BF1DE30708D3
S31508006EC038B504460D4649F084FA10B10D2420461B
S31508006ED038BD204600F062FB0028F7D1204600F0B6
S31508006EE075FE0146284600F0B3FC04460028EED19C
S31508006EF0284600F0EFFB044630B949F06DFA034B1B
S31508006F009D71034B9D71E2E70124E0E78814002098
S31508006F1058140020F0B589B00D4617461E4600F0F5
S31508006F2055FE0446FFF70EFF20BB2146284600F013
S31508006F308FFC0446C0B9012049F04EFAFF238DF8AC
S31508006F4004300123284601AA04A90794CDE902447E
S31508006F5005948DF81C300497069600F03FFD30B96D
S31508006F60054B9D71054B9D71204609B0F0BD204625
S31508006F7049F032FA0124F7E7881400205814002053
S31508006F8000487047281400207F2337B58DF807304E
S31508006F90084B04469D7949F01CFA30B91022294657
S31508006FA020460DF1070300F009FB9DF9070003B021
S31508006FB030BD00BF88140020F0B589B049F009FA41
S31508006FC000B9FEE7354C236803B9FEE7012200271E
S31508006FD09B8811460DF10B008DF80B3000F086FCEE
S31508006FE09DF80B10236802390022186889B200F050
S31508006FF07DFC2B4B059706932368079793F82C205F
S3150800700005AE8DF814201B681D78C5F3401549F0A8
S31508007010E7F938B100F014FC384649F0DDF938468E
S3150800702049F0E1F922685369FBB949F0F5F9236893
S31508007030A8B11C4F1B7EBB7000F0FCFBF8702068E3
S3150800704033463A462946807900F032FC18B34FF4A5
S315080070508051002076F0E7FD49F04FFC1BE03246F0
S315080070602946987900F01AFCF0E700210491116985
S315080070700D480B449621A3F59B7381800393907961
S315080070802946094B009603AA00F020FC0028DED109
S31508007090012049F0CCF909B0F0BD00BF00940020EA
S315080070A020A107006CAF002060AF00202DE9F84F43
S315080070B005460E4600F08AFD0746284649F050FB6D
S315080070C000B1FEE7404CA64200D0FEE732683F4BCF
S315080070D09A4200D0FEE7237F9A070DD4642384F8EA
S315080070E02C303946A07900F0B3FB0746002868D152
S315080070F049F06FF968B1FEE794F82C30022B01D8F5
S315080071005023ECE7023BDBB24F2B84F82C30F7D93F
S31508007110E7E749F095F9207F2D4EC0F38000A56278
S31508007120346049F07CF9217F2846C1F3C00100F09C
S3150800713019F9284600F046F978B13468636963B9E5
S315080071404FF0FF3075F06AF940F6B83233682061BF
S31508007150012128465A6100F005F93368D3F82880DA
S31508007160D3E9049A404600F02DF9A0B1D6F800B04C
S315080071709BF81C30DB070ED4404600F023F909EBD8
S315080071800A010446A031404600F022F9A1B202469F
S31508007190584649F036FD3068816A00F06FFD76F092
S315080071A097FD0446012049F02CF9FFF705FF204614
S315080071B076F089FD49F064F918B1284602495AF073
S315080071C0CDFF3846BDE8F88F281400209CA900207A
S315080071D0009400202DE9F04106464C4F4C486DF0CE
S315080071E046FE30B34FF4F85075F0EAFDE0B149F0C9
S315080071F02CF9484F054600286DD03B6800201B68CF
S31508007200454D1B78002413F0200F08BF002549F0D0
S3150800721020F9002339682A46C1E90433886A2346D7
S315080072205AF0A5FF49F069FB3046BDE8F04100F089
S315080072302BBA387036486DF0FFFD044600B9FEE7F4
S31508007240364D037BEA7DC3F3800363F34102EA7597
S31508007250037B03F0FB030373EA7DDB0963F3000298
S31508007260EA75037B03F07F0303734378AB71034628
S3150800727013F80C2BAA802B6090F90330284A6B75FB
S3150800728013708378274AAB7513704368D0F8088063
S31508007290AB62FFF7EDFA804528BF01F1FF31C5E97A
S315080072A0028106B9FEE7304600F0E0FD2875304653
S315080072B000F0E6FD2861194849F0ECFA20B9304695
S315080072C03A7816495AF041FF214617486DF0EDFB0A
S315080072D049F013FB82E749F0C1F8044648B128464D
S315080072E049F0C0F80F24214610484BF018F900253C
S315080072F08FE749F0BCF820B1204649F0BCF80E24C7
S31508007300F1E749F0C1F80B24EDE700BF1BAA0020FE
S31508007310149400200094002058140020881400209B
S315080073209AA900209BA90020049400205AE3070884
S31508007330122208B50021044874F02BFC4FF6FE73A0
S31508007340014A22F8023C08BD62940020044B1980C9
S315080073502AB11168C3F802105168C3F806107047BD
S3150800736060940020014B9972704700BF609400201A
S315080073701FB5084601A949F019FCE8B99DF80C3073
S31508007380012B04D0022B0ED005B05DF804FB4FF696
S31508007390FD720A4B1B889342F6D8BDF80400C31A3F
S315080073A058425841F0E70822054901A874F0C8FB7D
S315080073B0B0FA80F04009E7E70020E5E7609400208E
S315080073C062940020014BD868704700BF6094002083
S315080073D038B5A0230D4DEC685C4311B9FFF742FAA6
S315080073E001462B69B3FBF4F204FB1233B1FBF4F24A
S315080073F004FB12112344581AB0FBF4F304FB1300E0
S31508007400A023B0FBF3F080B238BD00BF6094002023
S3150800741038B5084C1546E3684BB1FFF7A9FF30B1FC
S3150800742001232846A372BDE8384001F00DBC0020B0
S31508007430A07238BD609400202DE9F041DFF83C8049
S315080074400D4698F80A101F4606469DF8183099B159
S31508007450E03202EB431449F091F9A4EB47142118E2
S315080074603046B8F80C80FFF7B3FF41460246284677
S31508007470BDE8F04149F0C5BBBDE8F0816094002045
S3150800748010B50C4611461A464FF6FE739C4200D9B3
S31508007490FEE74FF6FD73994206D82AB1034BDC6026
S315080074A0FFF754FF002010BD0120FCE76094002080
S315080074B0014B1961704700BF6094002008B500F0C1
S315080074C035F930B1044BB3FBF0F083B20BB1184673
S315080074D008BD0120FCE700BF40420F0013B5044673
S315080074E0064800F039F9FFF7E9FF0122C100044B0D
S315080074F00094024800F020F902B010BD78940020EC
S31508007500FF060508036810B5012B044602D1024898
S3150800751000F022F9204610BD7894002070B5044684
S31508007520E8B10368022B1AD143790D4D05EB8305A3
S3150800753083797BB149F09EF806462479284664B2D9
S3150800754049F08AF8214630465AF01FFEBDE87040D9
S3150800755049F0D3B92846BDE8704049F07DB870BDFA
S315080075607494002008B518220021044874F011FB11
S31508007570BDE80840024849F06FB800BF789400207B
S315080075807494002008B549F0EBF800B1FEE702480C
S31508007590BDE8084049F060B87494002008B549F081
S315080075A0DFF800B1FEE7044B186818B10068431EFF
S315080075B05842584108BD00BF749400202DE9F3478E
S315080075C006460D4690461F4649F0CAF800B1FEE742
S315080075D027B3DFF85890D9F800A0BAF1000F22D1E6
S315080075E018206DF03BFA04462A4643463146CDF844
S315080075F000A049F011F8204649F03FF8054670B951
S31508007600C9F800402368012BFCD0237920463B703B
S31508007610FFF784FF284602B0BDE8F08722253046EA
S31508007620FFF7B0FFF6E70425F9E700BF74940020DA
S315080076302DE9F34105460C46174649F091F800B185
S31508007640FEE7DFF84080D8F80030ABB918206DF0B7
S3150800765005FA012306462246294600933B4648F08A
S31508007660DBFF304649F009F8044630B9C8F800602F
S31508007670204602B0BDE8F08104242846FFF782FFC1
S31508007680F6E700BF7494002008B549F069F800B120
S31508007690FEE7054B186830B10368022B03D1BDE835
S315080076A00840FFF73BBF08BD74940020014B1868DB
S315080076B0704700BF40950020014B1868704700BF0F
S315080076C03C95002000487047989400200048704771
S315080076D0909400201FB5FF238DF804300023CDE9D0
S315080076E00233084B014601AA186874F0E8FC044600
S315080076F028B905484AF010FF204604B010BD0120FD
S31508007700FBE700BF4095002077E30708024B0A46CF
S315080077100146186874F0A5BD40950020024B414209
S31508007720186874F0D0BC00BF40950020014B18685B
S3150800773074F061BD4095002013B5049CCDE9003472
S3150800774013460A4601460348006874F09AFC02B0DC
S3150800775010BD00BF40950020024B0146186874F022
S31508007760A0BC00BF40950020024605480179914219
S3150800777004D84179914238BF0020704700207047ED
S3150800778090940020F8B504461C4E23680F463068CE
S31508007790FBB1972174F0CCFE024600B1FEE72168E2
S315080077A0306841F00DFA00B1FEE72168306874F0E0
S315080077B00BFD2179814200D0FEE7306841F0B2FB2B
S315080077C000B1FEE701223068114674F0E5FE28B1E3
S315080077D0FEE741F093FE054608B1FEE701250322C0
S315080077E03068114674F0C8FE7F2F03D03946284604
S315080077F048F0F4FF024B1C60F8BD00BF409500201E
S315080078003C9500200022034B1A6041F60B229A8011
S31508007810704700BF90940020024B0146186874F028
S31508007820E8BE00BF40950020014B1860704700BFB6
S315080078303C950020014B93F90000704772B1002077
S31508007840024B01220021186874F016BC40950020EE
S3150800785038B50D46FFF788FF044678B1084B1B6814
S31508007860834204D1284648F0B0FF002038BDFFF710
S31508007870E7FF29462046FFF785FFF6E70720F5E7E5
S315080078803C950020014B186841F0ECB84095002063
S31508007890014B186874F0EEBB4095002013460A4663
S315080078A001460248006874F004BC00BF40950020F9
S315080078B007B5009313460A4601460348006874F064
S315080078C0FAFB03B05DF804FB4095002013B5049C51
S315080078D0CDE9003413460A4601460348006874F0A9
S315080078E0ECFB02B010BD00BF4095002008B513465A
S315080078F00A4601460248006874F056FD08BD00BFF6
S3150800790040950020024B0A460146186874F014BEDA
S3150800791040950020024B0A460146186874F018BEC6
S3150800792040950020024B0A460146186874F00ABEC4
S3150800793040950020024B0146186874F00FBE00BF40
S3150800794040950020024B0A460146186874F02EBD81
S3150800795040950020024B0A460146186874F02FBD70
S3150800796040950020024B0A460146186874F023BD6C
S3150800797040950020024B0146186841F055B800BFF3
S3150800798040950020024B0146186841F0E3BA00BF53
S3150800799040950020014B186874F096BC409500206D
S315080079A0014B186841F0F2BA40950020024B014697
S315080079B018686DF07BBA00BF40950020024B01465F
S315080079C0186874F01ABC00BF40950020024B0146A7
S315080079D0186874F0EDBC00BF4095002013460A46AF
S315080079E001460248006874F06CBB00BF4095002051
S315080079F04FF0FF3307B50193244B01461B6ADB079B
S31508007A0000D4FEE7224B00221B880382214B1B6809
S31508007A108361214B1B884382204B1B68C3618023EB
S31508007A20838200F12403036201A840F0BFFF00B17E
S31508007A30FEE71B49019841F03BFB00B1FEE7022136
S31508007A40019874F0D6FB00B1FEE71649019841F09B
S31508007A5027FD00B1FEE70121019874F09FFD00B1F2
S31508007A60FEE70121019874F0A7FD00B1FEE700F0DA
S31508007A70F5F80121019840F0FFFF01980A4B1860BC
S31508007A8000B9FEE703B05DF804FB00BF0080E00F15
S31508007A90465A08084C5A0808445A0808485A080812
S31508007AA007001100941F080840950020024B014664
S31508007AB0186874F082BC00BF4095002030B50C46AB
S31508007AC0154A85B01068516802AB002C03C304F14F
S31508007AD0FF350DD12BF06AFA2B46CDE9000102AA33
S31508007AE0073412F8011D03F8011FA342F9D110E06B
S31508007AF02A460A4B0A4913F801098B4202F8010F74
S31508007B00F9D1082220460DEB020174F019F8002875
S31508007B10E0D005B030BD00BF94E307080900E00FC8
S31508007B200100E00F10B548F06AFC044638B905486C
S31508007B304AF0F2FC204648F04FFC76F05FF8002049
S31508007B4010BD00BF02E30708014B1878704700BF55
S31508007B509CAA002008B5044B08461970FFF7EAFEF0
S31508007B6000B1FEE708BD00BF9CAA0020014B1970B2
S31508007B70704700BF9BAA002021B1034B00201B7849
S31508007B800B7070470720704772B10020014B002028
S31508007B901970704772B10020014B1878704700BF02
S31508007BA09CAA0020014B1878704700BF9BAA0020AA
S31508007BB0102208B57F21034873F0EBFF7F22024BA2
S31508007BC01A7008BD9EAA00209DAA002007B50DF1CF
S31508007BD00600FFF7F3FEBDF80610084A084B0A44EC
S31508007BE093F9003012F90B0C984203DB7F2B14BF74
S31508007BF01846002003B05DF804FB00BF9EAA0020CB
S31508007C009DAA002070B50C460546164648F0A8FD04
S31508007C10A4F10B030F2B0CD8074B03EB0013191910
S31508007C20284601F80B6CFFF7D1FF48F0CEFD00207F
S31508007C3070BD0720FCE700BF9EAA002038B50D4698
S31508007C40044648F08DFD044B1D542046FFF7BEFF41
S31508007C5048F0BBFD002038BD9DAA0020402208B58B
S31508007C600021054873F095FF4FF6FF73024A938784
S31508007C7082F83E3008BD00BF449500202DE9F0414A
S31508007C800546084648F06CFD0646284648F0BBFF00
S31508007C90002850D0284648F0BDFF00284BD02B7F3F
S31508007CA0DA06C3F3001446D4284648F077FFA0B195
S31508007CB0284648F0C0FF0746002840D0214B03EB72
S31508007CC086135B785A1E90420DD0834209D0013341
S31508007CD0984232D00820BDE8F0811A4B03EB861390
S31508007CE05F78012300E0234603EB8603154C1B014E
S31508007CF00C332344AB602B7FDB0716D4284648F0A9
S31508007D004DFF4FEA861828B104EB08035A6804F8B1
S31508007D1008709A6039462846444448F099FF6168D5
S31508007D2028464B1C636048F095FF0749284601EB37
S31508007D30C60148F0C8FA0020CDE70223D4E701209F
S31508007D40C9E700BF4495002092A9002038B50C4623
S31508007D5048F006FD054675F0BBFF044B03EB85139B
S31508007D605C60BDE8384075F0AEBF00BF44950020A2
S31508007D702DE9F7430446DDE90A7691461D4648F0A3
S31508007D80EFFC80460DB107B106B9FEE72046002193
S31508007D90FFF7DCFF2A4C4FEA881E0EF10C0C2B4627
S31508007DA0A444654604EB881888F8019003F1100886
S31508007DB02A4618685968083303C243451546F7D159
S31508007DC00EF11C053B4625442F4603F110083A469A
S31508007DD018685968083303C243451746F7D10EF1A8
S31508007DE02C07334627443E4603F1100832461868E6
S31508007DF05968083303C243451646F7D14FF6FF7351
S31508007E007444A38784F83E3010226146E06801ABCB
S31508007E1047F0B5FF00B1FEE710222946E06901AB3D
S31508007E2047F0ADFF00B1FEE710223946E06A01AB24
S31508007E3047F0A5FF00B1FEE703B0BDE8F08300BF39
S31508007E404495002038B50C4648F08AFC054675F07E
S31508007E503FFF054B03EB85135A68A24238BF5C60A7
S31508007E60BDE8384075F02FBF4495002008B548F0A6
S31508007E7077FC024B8001185C08BD00BF44950020C2
S31508007E8008B548F06DFC024B03EB8013986808BDF3
S31508007E904495002082B02DE9F04F9BB024AF47F8F7
S31508007EA0043F002305AE86E8070009AC0CAD96E84A
S31508007EB0070084E8070097E8070085E8070094E8C4
S31508007EC007000DF13C080DF148098DF8643088E883
S31508007ED0070095E8070089E80700404648F097FC40
S31508007EE00390484648F093FCDFF8A0B0039BDBF804
S31508007EF000A00422009015A950466AF096F8034699
S31508007F00002840D00022D1B204931AAB03EB8101BA
S31508007F1051F8141CDBF80000039229F07FFB039A42
S31508007F20049B01329342824601D00028EBD096E8A2
S31508007F30070084E8070097E8070085E8070094E843
S31508007F400700DBF8003088E8070095E8070089E8AD
S31508007F5007004046039348F05AFC0490484648F008
S31508007F6056FC049B00900422039815A96AF05DF854
S31508007F70034610B1BAF1000FC4D050461BB0BDE895
S31508007F80F04F02B070474FF02D0AF6E7DCAF00203D
S31508007F902DE9F04F0F46064689B018469046994691
S31508007FA048F03CFC002F3BD0B8F1000F38D0002534
S31508007FB00124DFF870B0484648F030FCDBF80030A2
S31508007FC000F5003A05A80193CDF814A0ADF818609D
S31508007FD0079548F01CFC04AB014603AA019829F052
S31508007FE009FA2D2801D0002311E005A8CDF814A020
S31508007FF0ADF81860079548F00AFCDBF80040014622
S31508008000434620463A4629F0C5FA01230446082D78
S3150800801002D00135002BCED0204609B0BDE8F08F3E
S315080080202124F9E7DCAF002008B548F01FFC01461B
S3150800803020B10D48BDE808404AF071BA0B4A1368EA
S31508008040013313600A4B186890F8343053B9094B5A
S31508008050196829F07DF8014608B10748EAE70122C0
S31508008060064B1A7008BD00BF9DE3070884950020DB
S31508008070DCAF0020BCAF0020BEE30708AEAA002094
S315080080802DE9F04F87B005460E461446984648F047
S31508008090F8FB8146284648F0C1FBB9F1000F5AD1D2
S315080080A0DFF8F0A000F50035DAF80070E4B2B8F1B0
S315080080B0000F5CD0109B002B59D003A8CDF8009078
S315080080C00395ADF81060059448F0A1FB02AB014694
S315080080D001AA384629F08EF98146002834D1029F34
S315080080E0002F3ED001466A46384631F0C1FA81462D
S315080080F050BBDDF800B0BBF1000F35D003A80395DF
S315080081000594ADF8106048F082FBDAF80050014695
S31508008110044602AB284601AA29F06CF9814698B9AB
S315080081205A462146029BDAF8000029F0D9F881461A
S3150800813050B9109B40461A880099BA4228BF3A4659
S3150800814073F07AFD109B1F80009808B175F0EBFF5D
S31508008150B9F12D0F1AD80E4A12F8090007B0BDE872
S31508008160F08F4FF02D09EFE74FF00109ECE703A870
S315080081700395ADF81060059448F049FB02AB01463B
S3150800818001AA384629F036F98146E1E70120E5E7F4
S31508008190C01F0808DCAF0020F8B505460C46164691
S315080081A01F4648F06EFB70B92946204648F03BFB4F
S315080081B008B12D2805D12B463A4631462046FFF709
S315080081C0E7FE2D2802D8024B185CF8BD0120FCE713
S315080081D0C01F0808F8B507460C4615461E4648F05F
S315080081E050FB38B93B46324629462046FFF7D0FEB3
S315080081F02D2802D8024B185CF8BD0120FCE700BF09
S31508008200C01F08087FB506460D46144648F039FBD8
S31508008210A8B9002C17DB304648F000FB00F5003003
S315080082200190E4B201A8ADF80850039448F0EFFABB
S31508008230084B0146186829F0F1F92D2808D8064B8D
S31508008240185C04B070BD3146284648F0ECFAF4E7ED
S315080082500120F6E7DCAF0020C01F080830B589B05A
S31508008260054648F003FB044630B10146124809B0FA
S31508008270BDE830404AF053B9284648F0CFFA00F531
S31508008280003002902846ADF80C40049448F0C6FA2F
S315080082901F22ADF8182009220346079208AA12E9F8
S315080082A003008DE8030002AA03F5003307CAFFF7A7
S315080082B0F1FD09B030BD00BFE4E3070810B50C4670
S315080082C048F050FA044B014623F810402246BDE810
S315080082D0104002484AF020B95CA90020FFE30708CD
S315080082E010B50C4648F03EFA28220C4B33F81030ED
S315080082F01C440B4BA4B202FB003000230288A242A6
S3150800830001D182783AB901330A2B00F10400F5D17C
S315080083104FF0FF3010BD18B2FCE700BF5CA9002083
S3150800832034A900202DE9F04106460D46FFF7D8FF8F
S3150800833080B209282BD9304648F014FA28230021A0
S315080083404343174F02333B4413F8212012B301313C
S315080083500A29F9D14FF0FF34A0462A46214611488A
S315080083601FFA88F84AF0DBF8B8F1090F16D8304634
S3150800837048F0F8F90A2303FB00440B4B33F8103096
S315080083801D44012327F8245007EB8407BB700020FF
S31508008390BDE8F0810C460FFA81F8DEE70320F7E71F
S315080083A034A900201DE407085CA9002070B50E4614
S315080083B00546FFF795FF0446014632460A484AF045
S315080083C0AEF8A3B2092B0DD8284648F0CBF90A22F5
S315080083D002FB00440020054B03EB8402907023F84F
S315080083E0240070BD0A20FCE742E4070834A90020EF
S315080083F010B548F0B7F9044605484AF090F828221F
S315080084000448002102FB0400BDE8104073F0C1BB1C
S3150800841069E4070834A9002010B50C4648F0A2F90B
S315080084200F4B618833F8102023880B44A188194420
S31508008430E3880B4428211A440A4B92B201FB003008
S3150800844000230188914201D1817839B901330A2B79
S3150800845000F10400F5D14FF0FF3010BD18B2FCE76B
S315080084605CA900200CA900202DE9F04106460D461E
S31508008470FFF7D2FF80B2092832D9304648F072F9A0
S315080084802823434300201B4F02333B4413F8202084
S315080084904AB301300A28F9D14FF0FF34A0462A46DC
S315080084A0214615481FFA88F84AF039F8B8F1090F35
S315080084B01DD8304648F056F90A22104B698833F819
S315080084C0103002FB00402A880A44A9881144EA8829
S315080084D00A44134427F82030012307EB8007BB70B2
S315080084E00020BDE8F08104460FFA80F8D7E703209C
S315080084F0F7E700BF0CA9002081E407085CA9002063
S3150800850038B50546FFF788FF044601460A484AF08B
S3150800851006F8A3B2092B0DD8284648F023F90A22F3
S3150800852002FB00440020054B03EB8402907023F8FD
S31508008530240038BD0A20FCE7A0E407080CA900209F
S3150800854010B548F00FF90446054849F0E8FF282217
S315080085500448002102FB0400BDE8104073F019BB73
S31508008560B8E407080CA9002010B5044623F05AFF02
S315080085700022084904F58053C3E9A4120649204697
S31508008580C3E9A612054983F88122C3E9A81283F82C
S31508008590822210BD5D090508C90905082F090508C5
S315080085A010B5054C01462046FFF7DEFF24F010F80B
S315080085B0844200D0FEE710BDB814002038B500F597
S315080085C0945404340546012300220C21204668F001
S315080085D0DAFA2E2827D0042807D123F0F9FFBDE8B8
S315080085E0384000F595500AF0B3BB00B1FEE702210A
S315080085F020460D4A68F013FA014600B1FEE7204608
S315080086000A4A68F00CFA00B1FEE703212046084A38
S3150800861068F005FA00B1FEE72A46281D0549BDE8B7
S31508008620384062F0BCB938BD9F0905082B09050812
S3150800863017090508590905082DE9F74300F5805774
S3150800864097F881320646051DABB397F8823293BB7D
S31508008650284662F096FA70BB304662F0AEFF08B163
S3150800866047F0B3FE01234FF0000887F8823206F67A
S315080086708129284662F085FA60B9284662F016FB19
S31508008680284623F0E7FC08F102028318B3F5006FC9
S31508008690044619D3002406F5945049462346424613
S315080086A00094043068F0BDFA014620B1124887F8F4
S315080086B0824249F02EFF97F88132CBB9284603B09B
S315080086C0BDE8F04323F056BC09EB0803010A09F894
S315080086D00810014658701FFA82F828464A4462F084
S315080086E02DFB444428461FFA84F823F043FCC0E7D0
S315080086F003B0BDE8F08300BFCEE4070800F00CB86D
S3150800870000F00AB800F008B800F006B800F004B89F
S3150800871000F002B800F000B872B61EF0080F09D0D3
S315080087201EF0040F0DD0DFF850E0AEE8FF1F6FF023
S3150800873002000CE0DFF840E0AEE8FF1F6FF00E0025
S3150800874005E0DFF834E0AEE8FF1F6FF00600694683
S31508008750EFF309828EE8070086460848084C8545E7
S3150800876001D3A54501D384F3088800F083F884F380
S31508008770088848F072F90000E0AC002048000020A4
S315080087800814002008B500F015F8084A536A43F49F
S3150800879070235362EFF308834FF0CD31044A043B4C
S315080087A0934200D208BD43F80419F9E700ED00E04A
S315080087B0080000202A4B13B5D3F894204FF4003153
S315080087C04FF050231967D3072DD4012318461946AD
S315080087D000FA01F4144003F1010326D0214B33F8C3
S315080087E0114024F01DFE062C83B21F4A4FEA1040A2
S315080087F021D14FF20F0188421AD1B3F5406F28BF35
S315080088004FF4C0634CF23C3113804FF00052518054
S3150800881040F20172934201BF144B154AD2E9000196
S31508008820C3E9000117E00021D8E7102BCFD1D8E71C
S315080088304FF4C063E6E740F207218C420DD14FF2B0
S315080088400F01884206D1A34202BF4FF000534CF2F3
S315080088503C315980148002B010BD23461480D7E7F6
S3150800886000400050EE1F08085EA9002088950020E9
S3150800887074AD00206E4A2DE9F0416E4B55686E4C7A
S315080088805D65516A99656D49D1F80002D865D1F8D8
S3150800889004021866D1F80812586B5966916A10F0E6
S315080088A0040F9966D16A4FF00000D966116B1967F3
S315080088B0516B5967D26BD8649A67D3E90E1218BF01
S315080088C011465F4A91421A655DD301F12000A04224
S315080088D059D88869C5F308051864CE69062D5E64FB
S315080088E055D1584DA84252D3574DA8424FD2058864
S315080088F04DF6426085424AD11868C3F89400586814
S31508008900C3F8980040F20170A242154604D22E68B8
S315080089100432B6F1CD3FF7D00022C3E91F22C3E9DE
S315080089202122C3E92322641BDFF818C1424DDFF870
S3150800893018E19C648D422DD8D3E91FC7D3E9216578
S31508008940D3E923414FF0000E013AD2B2FF2A3BD1B8
S31508008950BEF1000F05D0C3E91FC7C3E92165C3E906
S315080089602341B3F85430C3F308030C2B3AD8022B2F
S3150800897053D9DA1E092A50D8DFE802F030563F42AA
S315080089804F4F4F4F4F4C0021C3E910112C494FF45C
S315080089902060B9E755F8044D6445CBD37445C9D270
S315080089A0E607C7D50026294F57F8048FA045C1D03A
S315080089B00136062EF8D12AB1013AD2B203EB820665
S315080089C0F467B7E70522F9E7E0464FF0010EBC4623
S315080089D037462E4625460C464146B5E740F6012061
S315080089E0BDE8F0813A2B18D1194B9B6913F0020F99
S315080089F040F2025318BF1846F2E740F60320EFE7A5
S31508008A0040F6042240F20173B0F5206F0CBF104601
S31508008A101846E5E740F60520E2E740F60722013B5F
S31508008A205A2B98BF1046DBE740F60220D8E700BF6E
S31508008A3000ED00E0E0AC00200814002000E100E0B2
S31508008A40080000204063000840E2070858AD0020EF
S31508008A500040005B38B5084DD5E8AF3F13F0010478
S31508008A6008D1284647F034FF20B1044B28461C603D
S31508008A7047F033FF014838BD9095002094950020B3
S31508008A8070B51348D0E8AF4F14F0010418D147F079
S31508008A901FFFA8B10F4D2E4646F8044B3019102279
S31508008AA00021103473F075F8A02CF7D10B220A4B6D
S31508008AB0013A194603F1100304D1054847F00DFFA2
S31508008AC0044870BD286843F8100C2960F0E700BF19
S31508008AD0989500209C950020A09500202DE9F0414E
S31508008AE0884615461E4648F01FF8074650B35EB33B
S31508008AF00379990748BF86F80080C3F340040379D1
S31508008B0048BF01245A070ED5114B294693F9000090
S31508008B105AF03DFE822302B2C2EB0222B2FBF3F206
S31508008B2032559CB901243B791B0708D58222823528
S31508008B30C5EB0525B5FBF2F5631C3555DCB22046B9
S31508008B40BDE8F0810446FAE73446F8E70224F6E77A
S31508008B50AFAA0020014B187048F00AB8AFAA002047
S31508008B6008B5012100203EF0B3FE0028A2BF01226D
S31508008B70014B1A7008BD00BFB0AA0020F0B51F4609
S31508008B801E4B04461B781646B1B0002B33D0FDF7B2
S31508008B901FFE03AD1A4BB2211A4A009028463FF031
S31508008BA0B5F9601E032896BF174B184B53F82030AB
S31508008BB09F21174A0DF11F003FF0A8F9133084B220
S31508008BC03B463246C4F1B20115FA80F03FF0D4F9BB
S31508008BD0002810DB0444A4B2B22C28BFB2240A220F
S31508008BE004F1C0036B4403F8B42C621C2946002028
S31508008BF092B23EF041FE31B0F0BD00BFB0AA0020EF
S31508008C00EFE40708F7E4070810200808EAE407086D
S31508008C101103080870B5049D0C46014600B12DB92C
S31508008C20C621064B064A07483FF060F804932846D3
S31508008C3013462246BDE870400BF07ABD1AE50708D0
S31508008C402BE607088CE5070808B530B940F2091184
S31508008C50074B084A08483FF049F8038823F4FF43BE
S31508008C6043F45063038004230370062008BD00BF45
S31508008C708FE60708A0E607088CE50708131D70B5F8
S31508008C80DBB2144630B940F217110D4B0D4A0E48A7
S31508008C903FF02CF8068803F07F0326F4FF4606808B
S31508008CA003709B238370B823C370EA2303710023E0
S31508008CB0437111B1063072F0BFFFA01DC0B270BD7E
S31508008CC08FE60708D2E607088CE5070808B5034AC1
S31508008CD00349083048F0DFFD002008BD1FE70708F4
S31508008CE0E6EC07080B6810B5044608464BB907F0CA
S31508008CF051F90246084904F1080048F0CCFD002065
S31508008D0010BD064961F01DFC18B140F24E22044917
S31508008D10F1E72320F4E700BFE6EC070825E7070894
S31508008D20FAFD070870B50B68044694B0084683BB7D
S31508008D3054F8080F02A949F043FC2046BDF808205C
S31508008D40194948F0A8FD2046BDF80A20174948F0F9
S31508008D50A2FD2046BDF80C20154948F09CFD0926C1
S31508008D60144D013E05F1080502D1002014B070BD6E
S31508008D7055F8083C02AA1A4402A9CB5A516820465B
S31508008D80019152880C49009255F8042C48F083FD4D
S31508008D90E7E70A4961F0D5FB18B1A06849F012FC6B
S31508008DA0E3E70720E2E700BF29E7070833E70708F4
S31508008DB03CE707082C29080849E7070885F2070849
S31508008DC00B6870B504460D4663B954F8080F49F0A8
S31508008DD080F928B10E49204648F05DFD002070BD97
S31508008DE00C49F8E728460A4961F0ABFB064628B164
S31508008DF00121A068BDE8704049F060B928460549D8
S31508008E0061F09FFB08B13146F3E70720E7E700BFAB
S31508008E1057E707085AE7070837B5044669468068DA
S31508008E2049F0A5FF0546E8B908342046009A0F49D7
S31508008E3048F031FD20469DF804200D4948F02BFDE9
S31508008E4020469DF805200B4948F025FD20469DF84B
S31508008E500620094948F01FFD20469DF807200749C6
S31508008E6048F019FD284603B030BD00BF5FE7070884
S31508008E7071E7070886E707087FE7070897E70708FF
S31508008E800B6837B50446084683B9A06849F05DFA09
S31508008E9004F10805014618B1A068FEF755FE01461B
S31508008EA0284606F0ADFF002003B030BD0DF10701DE
S31508008EB007F00AF80028F7D19DF807201AB91146D5
S31508008EC0A06849F03DFA9DF80710A06849F044FAF1
S31508008ED00028E9D19DF80730002BE4D02246024944
S31508008EE0A06849F02DFADEE7A90D050870B5044615
S31508008EF080680E4659F057F9054607F04BF8854243
S31508008F000CD03046074961F01CFB48B104F1080053
S31508008F102A46054948F0BFFC002070BD0C20FCE736
S31508008F200720FAE705F10708E6EC070810B5044636
S31508008F3054F8080F49F043FF03490246204648F013
S31508008F40AAFC002010BD00BF73EE0708024B034AB7
S31508008F50083048F000BD00BF172F05080D2F05087B
S31508008F6010B500F10804806849F061FF044B054913
S31508008F70002808BF1946204648F08DFC002010BD81
S31508008F80B1E70708ACE7070870B50E6804460D4652
S31508008F9056B908342046114948F07DFC2046104948
S31508008FA048F079FC304670BD28460C4961F0C9FA8C
S31508008FB030B1291D04F1A800BDE8704006F01AB9C1
S31508008FC02846074961F0BDFA30B1291D04F1B400FD
S31508008FD0BDE8704006F03ABC2320E4E7B7E7070887
S31508008FE0F4F6070870B50E6804460D4666B954F8D7
S31508008FF0080F49F0B5FE49F0B8FE18490246204662
S3150800900048F049FC304670BD2846154961F099FA82
S3150800901020B1A068BDE8704049F093BE28461149C2
S3150800902061F08FFA20B1A068BDE8704049F08EBEA5
S3150800903028460D4961F085FA20B1A068BDE8704060
S3150800904049F0C4BF2846094961F07BFA20B1A068F7
S31508009050BDE8704049F0C0BF0720D4E7E6EC070832
S31508009060BEE70708C7E70708CDE70708D3060808D5
S31508009070F7B50E6804460D46002E37D100F10805EF
S3150800908003212846264B274A06F0E4FEA06801AAD3
S315080090900DF1020149F0F7FE34460746BDF80220F5
S315080090A0A3B29A4202D8002003B0F0BD019AA6B234
S315080090B072431D49284648F08EFBBDF80230284603
S315080090C0013B9E42BDBF019A184906FB0222184A77
S315080090D0ACBF184902F1FF3248F07DFB284657F825
S315080090E02620154948F0D7FB0134D7E72846134907
S315080090F061F027FA48B154F8080F49F0C9FE10493B
S315080091000246204648F0C7FBCDE728460D4961F0E0
S3150800911018FA18B1A06849F0C0FEC4E70720C3E7EB
S31508009120F4250808F8250808D4E70708DEE707083D
S31508009130E3E70708E7E70708EBE70708C9F10708C1
S315080091406DE7070885F2070810B50B68044686B070
S3150800915008466BB954F8080F1822694648F098FF74
S315080091606A4620460A4948F096FB002006B010BD1C
S31508009170084961F0E6F948B154F8080F48F085FF48
S3150800918002460B46204648F03CFBEEE70720EDE793
S31508009190E6EC0708F801080837B50C4605461549F0
S315080091A0204661F0CEF998B1606808B3A368FBB9A8
S315080091B00DF1070149F0FFFF044630B99DF8072075
S315080091C00D4905F1080048F066FB204603B030BD9E
S315080091D020460A4961F0B5F940B1606840B1A36814
S315080091E033B903B0BDE8304049F0E7BF2324ECE7C4
S315080091F00724EAE7F5E7070826E80708FFE7070868
S3150800920038B50D687DB900F108042046074948F0CD
S31508009210E2FA2046064948F0DEFA2046054948F0B3
S315080092203AFB284638BD2320FCE700BF240B080874
S3150800923008E80708A702080838B50C68054608466E
S3150800924024B9A86848F01DFF204638BD054961F0D5
S3150800925078F920B1A868BDE8384048F014BF232043
S31508009260F3E700BF0DE8070830B50D68044687B078
S315080092707DB954F8080F49F021FE1522694649F0D0
S3150800928027FE20466A46044948F005FB284607B0EB
S3150800929030BD0720FBE700BFE6EC070810B504461B
S315080092A008460A4961F04DF90346A0682BB1BDE8A6
S315080092B010400022114649F006BE2246044949F0EC
S315080092C002FE002808BF242010BD00BF18E80708C2
S315080092D0B50D050838B50D4604460A49284661F015
S315080092E030F960B16D6855B954F8080F49F00FF9AF
S315080092F005490246204648F0CEFA284638BD0720DA
S31508009300FCE700BF1EE80708FAFD070838B50D6830
S31508009310044655B954F8080F49F049FD0449024670
S31508009320204648F0B8FA284638BD2320FCE700BF97
S315080093306DE707080B6837B505460C469BB9806884
S315080093400DF1060149F08AF8044648B9BDF8062029
S315080093509DF806300C49120A05F1080048F09BFAF8
S31508009360204603B030BD084661F0E4F8022809D16A
S315080093702368A868198849BA89B203B0BDE830409D
S3150800938049F067B80724EBE724E80708F8B50E465E
S3150800939005461249304661F0D4F8074628B101213E
S315080093A0A868BDE8F84049F030BD30460C4961F080
S315080093B0C8F8044608B13946F2E73046094961F06B
S315080093C0C0F848B149F031FD0749024605F10800E1
S315080093D048F061FA2046F8BD2320FCE75A0A080837
S315080093E029E8070805F10708FAFD070838B505460C
S315080093F00C4641B90068904704490246284648F099
S315080094004AFA204638BD0720FCE700BFFAFD0708E0
S315080094102DE9F0430D6804460E4693B095BB806867
S3150800942049F065FDA9468046AFB2B84503D8002085
S3150800943013B0BDE8F0833946A06806AAADF80690D1
S3150800944049F0E9FD78B99DF84130C3F3C0021B071E
S3150800945009D4ADF806203946A06802AB0DF106021C
S3150800946049F0DEFD08B10135DEE704F108063046AD
S31508009470BDF830200B4948F0AEF9304602A948F04D
S31508009480C9F9E8E73046084961F05BF840B1074A90
S31508009490716804F1080013B0BDE8F043FFF7A6BFF2
S315080094A02320C5E72EE80708C9F10708032F050892
S315080094B038B505460C4641B9006890470449024646
S315080094C0284648F0E8F9204638BD0720FCE700BFE3
S315080094D06DE70708024A09680830FFF7E9BF00BFC9
S315080094E06F20050830B50B6805460C4689B083B968
S315080094F0019300F13804A86802AA01A948F0D3FB31
S3150800950010B1002009B030BD204602A905F054F874
S31508009510F1E72046104961F014F850B102A9201D60
S3150800952048F0D1FA0028EDD1A86802A948F0B1FBA5
S31508009530E8E72046094961F004F850B1606802A9D5
S3150800954060F0D9FF0028DDD1A86802A948F0A6FB7B
S31508009550D8E72320D6E700BF830A080835E80708B6
S3150800956073B50C6805460E463CB120460DF1070159
S3150800957060F098FF60B102B070BD55F8080F49F069
S31508009580B3FD08490246284648F085F92046F2E721
S3150800959073682BB99DF90710A86849F0AAFDEAE790
S315080095A00720E8E70CE907087FB50C6805460E466C
S315080095B064B955F8080F694649F055FD2846102242
S315080095C0694648F015F9204604B070BD4B685BB98A
S315080095D010226946204660F093FF0028F4D16946B8
S315080095E0A86849F04AFDEFE730460A4960F0A9FF46
S315080095F070B1A868766849F042FB0446A86849F045
S315080096007BFA6B4602462146304648F07BFCE4E787
S315080096100720D9E73CE8070830B5044600F10805F5
S3150800962002212846114B124A8DB006F013FCA06899
S3150800963049F0BCFD044614B920460DB030BD20469D
S315080096403022694648F0C9FD6A462846094948F065
S31508009650C2F804F112003022694648F0BEFD6A4697
S315080096602846054948F017F9246BE4E76C260808EC
S31508009670702608083FE8070848E807087FB500236A
S315080096800C6805460E468DF804308CB955F8080F57
S3150800969049F062FA03A98DF8080002A848F053FABF
S315080096A018490246284648F0F6F8204604B070BD28
S315080096B03046154960F045FF28B19DF80410A868A2
S315080096C049F05AFAF2E73268013A12F8013F002BDC
S315080096D0F3D06E2B11D0722B03D0642B08D0072041
S315080096E0E4E79DF8043043F001038DF80430ECE715
S315080096F09DF8043043F00203F7E79DF8043043F081
S315080097000403F2E7E6EC0708A01A080810B50446B1
S31508009710086886B008B30DF1170160F07DFED0B970
S315080097209DF817301F2B15D8012199400C4B029430
S315080097300193002300934FF6FF72A06849F07CFB63
S3150800974048B904F108000721064B074A06F082FBD0
S31508009750242000E0072006B010BD0146E6E700BF5A
S31508009760FF0D0508082708081027080873B50D68AF
S315080097700446002D34D100F1080603213046254B56
S31508009780254A06F067FBA068E9B249F0BCFC00B3BD
S31508009790A90289B20DF10303A0680DF10602ADF81E
S315080097A0041049F0B7FC1D492A46304648F013F81C
S315080097B04FF6FE73BDF8062030469A420BBF184B8B
S315080097C09DF803301A4617490CBF1749920A48F004
S315080097D062F801353F2DD6D10025284602B070BD66
S315080097E0284601A960F029FE05460028F5D154F857
S315080097F0080FBDF804100DF103030DF1060249F038
S3150800980089FC20469DF80330BDF80620074948F034
S3150800981042F8E2E75C2608086026080852E80708C6
S31508009820A01A08085BE8070867E8070873E8070846
S315080098307FB50C460023054622492046ADF80E3072
S3150800984060F07FFE064610B1606800BB04342068ED
S3150800985038B30DF10D0160F0DFFD00BB9DF80D304A
S315080098601F2B1BD801249C4005F10800DEB10221FC
S31508009870154B164A06F0EEFA00952146144BBDF82C
S315080098800E20A86848F08DFD48B9242007E00DF1A0
S315080098900E0160F0D2FD10B90834D8E7072004B0ED
S315080098A070BD0446E0E705210A4B0B4A06F0D2FADA
S315080098B000952146094BBDF80E20A86848F066FDBC
S315080098C0E2E700BF82E807082026080824260808D9
S315080098D0B90D0508042608080C260808FF0D050812
S315080098E013B50446086868B954F8080F48F059FBD8
S315080098F04FF47A720D49B0FBF2F2204647F0CBFFDF
S3150800990000200EE04B6873B901A960F046FE40B925
S315080099104FF47A71019BA068594348F047FB002829
S31508009920EED002B010BD0720FBE700BF6DE70708C1
S315080099302DE9F0410B68ADF5027D07460E4601ADEF
S31508009940A3B96C46009300F138062A462146B86842
S3150800995048F05AFF28B1002420460DF5027DBDE8DF
S31508009960F0812946304604F04BFEEEE7706802A9FE
S3150800997060F013FE04460028EED1FC236946B06861
S315080099800DF10D02ADF8003060F0C8FD0446002860
S31508009990E2D1BDF800300BB90724DDE73046194996
S315080099A02B7260F0CEFDF0B1F06870B1F82369460D
S315080099B043AAADF8003060F0B1FD04460028CBD1CB
S315080099C0BDF80040002CE7D0E4B295F806312946E8
S315080099D043F00103B86885F8074185F8063148F071
S315080099E0E8FE0446B8E73046074960F0AAFD0028B5
S315080099F0B2D02B7A6968B8680DF10D0248F0F7FE07
S31508009A00EFE700BF830A080835E8070837B50546B3
S31508009A1008680DF1070170B9A868FEF7ADF80446A5
S31508009A2030B99DF907200A4905F1080047F033FFC8
S31508009A30204603B030BD60F035FD04460028F7D156
S31508009A409DF90710A868FEF7A1F80446F0E700BFDD
S31508009A5092E807080B6837B504460D4673B980685F
S31508009A600DF1070158F0A5FB18BB9DF9072013490E
S31508009A7004F1080047F00FFF00201AE028461049B5
S31508009A8060F05FFDB8B168680DF1070138B9A068E4
S31508009A9058F08FFB68B99DF907200A49E8E760F096
S31508009AA001FD30B99DF90710A06858F084FB00281D
S31508009AB0E2D003B030BD0720FBE700BF89E80708FE
S31508009AC099E807080CE9070837B5054608680DF14F
S31508009AD0070170B9A86846F05CFE044630B99DF9DE
S31508009AE007200A4905F1080047F0D5FE204603B0CD
S31508009AF030BD60F0D7FC04460028F7D19DF9071061
S31508009B00A86846F0DCFC0446F0E700BF92E80708C0
S31508009B100B68F7B504460D46002B35D154F8080FE7
S31508009B2049F003FA054603783B49032B96BF3B4A9F
S31508009B303B4A52F82320204647F0ADFE687800F0ED
S31508009B40010006F04DF837490246204647F0A3FEC5
S31508009B506878C0F3400006F043F8334902462046C9
S31508009B6047F099FE6878C0F3800006F039F82F4967
S31508009B700246204647F08FFE204695F902202C49DA
S31508009B8047F089FE002044E00026244F284657F86F
S31508009B90041B60F0D6FCC0B368680DF103018DF8AC
S31508009BA0046060F0FEFCA0BB9DF805309DF803201C
S31508009BB0A86862F300030DF103018DF8053060F023
S31508009BC0F0FC30BB9DF805309DF80320E86862F389
S31508009BD041030DF103018DF8053060F0E2FCC0B9D0
S31508009BE09DF805309DF80320286962F382030DF17C
S31508009BF006018DF8053060F055FC50B96B693BB924
S31508009C00A06801A949F095F9BCE70136042EBDD133
S31508009C10072003B0F0BD00BFA1E80708E82608083A
S31508009C20F0300808B7E80708CDE80708E3E80708AA
S31508009C30F9E8070870B50D4604463C49284688B039
S31508009C4060F07FFC064600B104352B6813BB54F858
S31508009C50080F48F043FA05460DB9002030E02946BA
S31508009C60204606F023F886B1687C06F075F9A97CCB
S31508009C702B7CC1F340010191A97C024601F0010148
S31508009C80009120462A4947F0A6FD204605F0D0FF58
S31508009C906D69E1E72846274960F053FC90B168688A
S31508009CA002A960F01EFC58B9069BA0686FF3110361
S31508009CB043F4403343F4507302A9069348F017FA65
S31508009CC008B070BD28461C4960F03BFC50B1686876
S31508009CD002A960F006FC0028F2D1A06802A948F0A3
S31508009CE00AFAEDE72846154960F02BFC40B154F80E
S31508009CF0080F48F0B9FF0146204647F08BFDACE750
S31508009D0028460F4960F01DFC20B154F8080F48F0AA
S31508009D1085FFF0E728460B4960F013FC20B154F89C
S31508009D20080F48F07FFFE6E72320C9E7FFF5070895
S31508009D300FE90708830A0808FFF0070838E9070843
S31508009D4042E9070847E9070830B50B6804460D4697
S31508009D5085B06BB954F8080F48F0D1F905460DB926
S31508009D60002015E02946204647F054FD2D69F6E700
S31508009D7028461D4960F0E5FB60B16946686860F0F1
S31508009D80B0FB28B96946A06848F0BEF90028E7D0B4
S31508009D9005B030BD2846154960F0D3FB50B1694679
S31508009DA0686860F09EFB0028F2D16946A06848F012
S31508009DB0AFF9EDE728460E4960F0C3FB40B154F809
S31508009DC0080F48F054FF0146204647F023FDC7E731
S31508009DD02846084960F0B5FB20B154F8080F48F04A
S31508009DE04AFFF0E72320D3E7830A0808FFF00708AD
S31508009DF04DE9070853E9070830B50B6804460D46D0
S31508009E0089B07BB9019300F13805A06802AA01A9B7
S31508009E1047F03AFF08B1002012E0284602A904F0EC
S31508009E20A7FBF2E72846204960F08BFB50B102A950
S31508009E30281D47F0E6FD18B9A06802A947F01AFFE1
S31508009E4009B030BD2846194960F07BFB50B16868F7
S31508009E5002A960F050FB0028F2D1A06802A947F0D9
S31508009E600EFFEDE72846124960F06BFBD0B1686833
S31508009E7040B954F8080F48F0D9FE0146204647F085
S31508009E80DBFCC8E702A960F036FB0028D8D19DF8AC
S31508009E901830402B04D1A06802A948F0CBFECFE7C2
S31508009EA00720CDE72320CBE7830A080835E807080B
S31508009EB059E90708024B186800B9FEE7704700BF62
S31508009EC0409600202DE9F041074686B0806848F0A4
S31508009ED094F94FF005080446244EB8F1010806F136
S31508009EE0080607F1080520D12846226E204947F0C2
S31508009EF0D2FC2846626E1F4947F0CDFC2846A26E62
S31508009F001D4947F0C8FC2846E26E1C4947F0C3FCC9
S31508009F102846226F1A4947F0BEFC2846626F19493F
S31508009F2047F0B9FC06B0BDE8F081284656F8042C7F
S31508009F30154947F050FC56F8083C6A462344D3E9CD
S31508009F40000147F020FC11490246284647F043FC29
S31508009F5056F8083C6A462344D3E9020147F013FC45
S31508009F600B490246284647F096FCB6E7C428080877
S31508009F707DE9070888E907089AE90708ABE90708A9
S31508009F80B6E90708C8E9070863E9070867E907089B
S31508009F9073E907080B68F7B504460D4693B9083404
S31508009FA02046764947F077FC2046754947F073FC0A
S31508009FB02046744947F06FFC2046734947F06BFC0E
S31508009FC0002010E028466D4960F0BBFAA0B16B6826
S31508009FD01BB92046FFF776FFF2E76C49281D60F0AB
S31508009FE0B0FA10B9072003B0F0BDAB68002BF9D161
S31508009FF0A06848F006F9E3E72846624960F0A1FA46
S3150800A000002841D06B6893BB54F8080F48F0B3F9A1
S3150800A0105F4902680546204647F03DFC11275D4E1C
S3150800A020013F06F1080616D120466A6C5A4947F0E0
S3150800A03032FC1127594E013F06F10806C0D056F8E2
S3150800A040083C0421EB582046009356F8043C544A31
S3150800A05047F032FCEFE756F8083C0421EB58204657
S3150800A060009356F8043C4E4A47F026FCD8E7474981
S3150800A070281D60F066FA0028B4D0AB68002BB1D171
S3150800A080A06848F07CF99BE728463F4960F059FAF2
S3150800A090002844D06B689BBB54F8080F48F004FFAF
S3150800A0A00B2706463F4D013F05F108050FD1062748
S3150800A0B03D4D013F05F1080513D120463B4947F0C0
S3150800A0C08AFBD6E91023204647F09BFB78E755F82C
S3150800A0D0083C2046F35A55F8042C354947F0DBFB73
S3150800A0E0E1E7204655F8042C324947F074FB55F849
S3150800A0F0083C20463344D3E9002347F082FBD8E7DF
S3150800A1002249281D60F01DFA00283FF46BAFAB68A2
S3150800A110002B7FF467AFA06848F0CBFE50E72846CF
S3150800A120174960F00EFA00283FF45CAF6B68ABB9CC
S3150800A13054F8080F48F09CFE052607461E4D013EBA
S3150800A14005F108053FF43CAF55F8083C2046FB5896
S3150800A15055F8042C124947F09EFBF0E70B49281DD9
S3150800A16060F0EFF900283FF43DAFAB68002B7FF4B1
S3150800A17039AFA06848F080FE22E700BFDD06080870
S3150800A1808CF7070898F70708A5F7070885F2070860
S3150800A190D9E9070844280808EEE90708C427080883
S3150800A1A0E6E90708742708084C27080812EA07088A
S3150800A1B0FBE9070802EA07082C27080838B50C4601
S3150800A1C000F10805284605F071FD228A28461D4932
S3150800A1D047F001FBA37C2846032B96BF1A4A1B4A65
S3150800A1E052F823201A4947F0F6FAE27C284619491C
S3150800A1F002F0010247F0EFFAA37CE3B9E37C5B07C0
S3150800A20014D528461449626947F0E5FA284604F148
S3150800A210180105F04BFDA37C032B07D1E37C2846E8
S3150800A220628D0E49C3F3400347F0D5FA2846BDE8C8
S3150800A230384005F0FDBC2846228D094947F0CBFA7F
S3150800A240E9E700BF72EE0708F8260808F0300808A4
S3150800A250E5EC070827EA070834EA070854EA070876
S3150800A26048EA070810B50B6896B000938B880E4924
S3150800A270ADF804300D4B00F10804002A18BF0B4650
S3150800A280029300232046ADF8563005F0D1FC684607
S3150800A29048F048F908B116B010BD2046044903AA8B
S3150800A2A047F0F9FAF3E700BF6FEA070872EA07080A
S3150800A2B0E6EC070870B515460E46137800F1080453
S3150800A2C020460B4A03F0010347F0F6FA2B7831468D
S3150800A2D02046084AC3F3400347F0EEFA2B78314686
S3150800A2E02046BDE87040044AC3F3800347F0E4BA49
S3150800A2F075EA070886EA070895EA070870B50E465C
S3150800A300154600F10804204692F900301A4A47F02B
S3150800A310D3FA314620466B78184A47F0CDFA3146CB
S3150800A3202046AB78164A47F0C7FA31462046EB78FE
S3150800A330144A47F0C1FA314620462B79124A47F0AB
S3150800A340BBFA314620466B79104A47F0B5FA3146D2
S3150800A3502046AB790E4A47F0AFFA314620462B899C
S3150800A3600C4A47F0A9FA31462046AB7A0A4ABDE8B4
S3150800A370704047F0A1BA00BFA5EA0708B8EA07087F
S3150800A380C9EA0708DAEA0708EBEA0708FAEA070853
S3150800A39009EB07081BEB07082DEB070870B51546F0
S3150800A3A00E4600F10804204612780E4947F073FA63
S3150800A3B06B78314620460C4A03F0030347F07CFAD3
S3150800A3C06B7831462046094AC3F3810347F074FA8D
S3150800A3D06B7831462046BDE87040054A1B0947F0B0
S3150800A3E06BBA00BF42EB070852EB070865EB070894
S3150800A3F077EB07082DE9F8430C4600F108081378AF
S3150800A400074615464046114A47F056FA2146404641
S3150800A4100F4A47F051FA002604F1040906345FFA98
S3150800A42089F9E4B201366A78731E9BB29A4201D85A
S3150800A430BDE8F88349464046064A47F019FA2146D8
S3150800A440384605EB4602FFF7A9FFEBE7FAEA0708E5
S3150800A45085EB0708540208082DE9F7438046894624
S3150800A460164600273378FCB2A34202D803B0BDE8EB
S3150800A470F08306EB840408F1080528466378494604
S3150800A480124A47F0F5F9A078C30705D510492846BA
S3150800A49047F001FA0137E5E7C0F3400005F0A0FBF5
S3150800A4A0A3780246C3F30111009128460949C3F36C
S3150800A4B0810347F090F9E2783F2A01D10649E6E799
S3150800A4C028462379054947F0E6F9E3E790EB0708BC
S3150800A4D0A0EB0708B4EB0708E6EB070800EC07084B
S3150800A4E070B50E46154600F10804204613680E4A54
S3150800A4F047F0E2F9314620462B790C4A47F0DCF959
S3150800A500314620466B790A4A47F0D6F93146204645
S3150800A510AB79084A47F0D0F931462046EB79064A26
S3150800A520BDE8704047F0C8B91CEC070871E7070892
S3150800A53037EC070831EC070847EC07082DE9F04126
S3150800A54088461546002700F108062B78FCB2A34278
S3150800A55001D8BDE8F08141463046054A05EB0414AA
S3150800A56047F086F93046611C47F054F90137ECE7A5
S3150800A570540208082DE9F3410D4616460B4C00F126
S3150800A580080704F150080834444502D102B0BDE872
S3150800A590F08154F8083C2946F3583846009354F895
S3150800A5A0043C034A47F088F9EDE700BFEC240808A5
S3150800A5B0E6E907082DE9F74304460F461646164D01
S3150800A5C000F1080905F150080835454509D107275E
S3150800A5D0124D0834013F05F108050ED103B0BDE858
S3150800A5E0F08355F8083C3946F35A4846009355F81F
S3150800A5F0043C0B4A47F060F9E6E7204655F8042C78
S3150800A600084947F0E8F855F8083C20463344D3E9AA
S3150800A610002347F0F6F8DDE7A424080874240808A0
S3150800A620FBE90708390E0808F8B514460D4606462C
S3150800A630128800F1080738461149C2F3C81247F0D4
S3150800A6402AF92378294638460E4A03F01F0347F0AD
S3150800A65033F914F8023B29463846C3F341130A4A2C
S3150800A66047F02AF929463846084A47F025F9291DA8
S3150800A67022463046BDE8F840C9B2FFF71BBE00BF08
S3150800A6805EEC07086EEC07087AEC07088BEC0708FF
S3150800A690024A0349083047F09EB800BF70240808EC
S3150800A6A0E6EC0708437F70B504460D4663B161B30F
S3150800A6B0084647F0CCFC2A460346144904F108002C
S3150800A6C0BDE8704047F0E7B8037F03B9FEE72429E1
S3150800A6D01BD000F1080671B930460D4947F0DBF882
S3150800A6E0002304F12000237708F0C2FB2046BDE8CA
S3150800A6F07040FFF7CDBF084647F0A9FC2A46034637
S3150800A7000449304647F0C7F8EAE770BD91EC0708F8
S3150800A710A0EC070893EC070810B50446044908306E
S3150800A72047F0B9F82046BDE810400021FFF7BABF48
S3150800A730A5EC070810B419B95DF8044BFFF7B2BFCA
S3150800A74091F901300A785DF8044B0249083047F060
S3150800A750A2B800BFB8EC070870B504460D46114606
S3150800A7601A4647F00DF800262346204AC4E9025443
S3150800A770A68343F8202FC4E90A3422462946C4E9A9
S3150800A7800C5404F1380003F0E3FE2246294604F18E
S3150800A790440046F0A2FF22462946C4E92254C4E9E9
S3150800A7A02454C4E92654C4E9285404F1A80004F042
S3150800A7B037FA22462946C4E92D5404F1BC0046F06E
S3150800A7C090FD2246294604F1C80046F0A0FE22461E
S3150800A7D0294604F1D40046F0F6FD20462661666156
S3150800A7E0A661FFF755FF204670BD00BFC90D0508D5
S3150800A7F010B5054C13460A4601462046FFF7ACFF3E
S3150800A800024B1C6010BD00BF602700204096002048
S3150800A8102DE9F0410E4604462F49304690B05FF0C8
S3150800A82090FE03467068C3B150B954F8080F47F054
S3150800A830B1FF2A490246204647F02DF8002037E0A6
S3150800A84007A95FF0AAFE002832D1B368002B3ED1D3
S3150800A8500799A06847F099FFF0E703A95FF041FE62
S3150800A86030BB0546371D0DF11C0857F8040FB0B963
S3150800A87030461B49EDB25FF064FEE0B1194B019416
S3150800A8800093A0682B4607AA03A947F050FF78B99A
S3150800A890204641F2883146F09AFA242008E0232D12
S3150800A8A015D008EB05015FF0B7FD01350028DCD0AF
S3150800A8B010B0BDE8F08130460B495FF042FE40B16A
S3150800A8C02B46A06807AA03A947F036FFB6E7072074
S3150800A8D0EEE72320ECE700BFC6EC070866F007089A
S3150800A8E0DBEC07089F0E050885F20708F0B50B682C
S3150800A8F085B00393234B054600930C230E465C2232
S3150800A90021490DEB03004BF0B4FA044678B1D0E9BF
S3150800A9100132511005EB6200D20748BF6A5806F1AA
S3150800A920040148BFD35805B0BDE8F0401847304683
S3150800A93016495FF006FED0B1134F05F1080657F821
S3150800A940242030461249033446F0A5FFB4F58A7F21
S3150800A950F5D100242A7DE3B29A420FD92A693046F6
S3150800A96052F833200A4946F096FF0134F2E7314699
S3150800A970284605B0BDE8F04046F0DBB9002005B032
S3150800A980F0BD00BFA10C050820200808DFEC070869
S3150800A990E6EC070830B50C460023A3B005464FF48D
S3150800A9A0C071204601934CF0BEF9B0F5C07F10D2B5
S3150800A9B02046202201A921F0E1F804466B7F5BB10D
S3150800A9C04CB9019B3BB1284601A9FFF78FFF044606
S3150800A9D007E00624F2E7FEE72B7F3BB901232B7736
S3150800A9E064B121462846FFF75DFE05E0074901A840
S3150800A9F05FF0A7FD0028F1D123B030BD019B002BE5
S3150800AA00E1D128462C77FFF743FEF5E76C290808BD
S3150800AA10012370B5044631250E4E8EB04377013DAD
S3150800AA2003D1284665770EB070BD56F8041B31224F
S3150800AA3001A871F0C3F8002304F10800064901AA29
S3150800AA408DF8353046F027FF204601A9FFF7A2FF0B
S3150800AA50E5E700BF34250808E4EC070838B50446DE
S3150800AA600D4619B9BDE83840FFF71CBE91F83930D4
S3150800AA70083413F0200F12D001F1080220461649B7
S3150800AA8046F0A9FE2046154946F0A5FE204605F1E2
S3150800AA90190146F0B1F92046114946F09CFE6A8E26
S3150800AAA02046104946F097FE2946204646F0A4F966
S3150800AAB0204695F836200C4946F08DFE204695F935
S3150800AAC037200A4946F087FE204695F83820084977
S3150800AAD0BDE8384046F0DFBEE9EC070858E8070845
S3150800AAE061170808F2EC0708FCEC070804ED0708EC
S3150800AAF00BED0708F0B50C46002393B005468C49C4
S3150800AB002046ADF806305FF01CFD0646B0B10B21B5
S3150800AB10884B894A05F1080005F09CF92C4608AAD5
S3150800AB2054F8080F0DF1060148F015F9002854D01D
S3150800AB30204605F07DF8002013B0F0BD20467F4979
S3150800AB405FF0FFFC0028E9D120467D495FF0F9FC5B
S3150800AB500646002840F0998020467A495FF0F1FCC5
S3150800AB600746002800F0E1807449201D5FF0E9FCE3
S3150800AB7038B90421744B754A05F1080005F06AF9DD
S3150800AB803E46A86808AA0DF1060148F0E4F8002830
S3150800AB90D1D1BDF8302005F10804002E00F0B680AA
S3150800ABA020466B4946F017FE204608A946F024F9C8
S3150800ABB00A9802A9152248F08BF9204602AA654987
S3150800ABC046F009FE0B9802A9152248F081F920469D
S3150800ABD0614902AA46F05FFED3E7002E4ED09DF8E3
S3150800ABE04630204613F0080F0CBF522243225B4919
S3150800ABF046F0F1FD2046BDF83020594946F0EBFDF8
S3150800AC0020460A9A574946F0E6FD20469DF93D201A
S3150800AC10554946F0E0FD20469DF93E20534946F049
S3150800AC20DAFD20469DF83C20514946F0D4FD9DF8B2
S3150800AC30462020464F4902F0010246F0CCFD9DF819
S3150800AC40462020464B49C2F3400246F0C4FD9DF813
S3150800AC5046202046C2F38002464946F0BCFD2046FF
S3150800AC60454946F0B8FD204608A946F0C5F82046ED
S3150800AC70BDF84420414946F00EFE4FE72046BDF890
S3150800AC8030203F4946F0A7FD48E705F108040721AB
S3150800AC9020463C4B3C4A05F0DDF8A86808AA0DF1A9
S3150800ACA0060148F058F800287FF445AFBDF8302073
S3150800ACB02046274946F08FFD204608A946F09CF80D
S3150800ACC002A9BDF8400004F097FF30490246204625
S3150800ACD046F081FD02A9BDF8420004F08DFF2C491B
S3150800ACE00246204646F077FD20469DF93D20294933
S3150800ACF046F071FD20469DF93E201B4946F06BFD46
S3150800AD0020460A9A244946F0C6FDC6E720461C494D
S3150800AD1046F061FD204608A946F06EF8DDE90A23EB
S3150800AD2020461E4946F0B7FD2BE7072004E700BF7B
S3150800AD3025F60708B0260808BC26080813ED0708F4
S3150800AD4018ED070843F60708782608087C26080839
S3150800AD5061ED070892ED07089AED070824ED070844
S3150800AD602CED070836ED07083EED070845ED070800
S3150800AD704CED070853ED070858E8070858ED07088B
S3150800AD802EED07088C260808942608086DED070896
S3150800AD9078ED070882ED070889ED0708A4ED07088E
S3150800ADA030B50B68044687B00846002B3BD1A0682F
S3150800ADB001A948F009F8054690BB08342046204901
S3150800ADC046F009FD204601A946F01EF82046BDF8C2
S3150800ADD00C201C4946F05FFD20469DF811201A49B3
S3150800ADE046F059FD20469DF81220184946F053FDB5
S3150800ADF020469DF81320164946F04DFD20469DF83D
S3150800AE001520144946F047FD20469DF8162012499C
S3150800AE1046F041FD20469DF81720104946F03BFDB7
S3150800AE20284607B030BD0E495FF08BFB28B1A068F5
S3150800AE3007B0BDE8304047F0E3BF0725F0E700BF9D
S3150800AE40BBED0708C6ED0708CFED0708E3ED0708D1
S3150800AE50F8ED07088BE7070801EE070818EE07085C
S3150800AE602CEE070837B50D460446174928465FF005
S3150800AE7068FB30B36B6863B9A06847F041FF0146C9
S3150800AE8010B9002003B030BD04F1080045F0BCFF3E
S3150800AE90F7E70E49281D5FF054FB30B10021A06882
S3150800AEA003B0BDE8304047F01EBF0822694668680F
S3150800AEB05FF026FB0028E5D16946A06847F013FF36
S3150800AEC0E0E72320DEE700BF33EE070837EE070882
S3150800AED02DE9F0410C460546824920468EB05FF0C2
S3150800AEE030FB0646C8B10E217F4B804A05F10800A3
S3150800AEF004F0B0FFA86847F0FAFF4FF000080746CD
S3150800AF001FFA88F18F4276D805F1080004F090FE02
S3150800AF10002630460EB0BDE8F081204674495FF041
S3150800AF2010FB0028E6D120680DF102015FF085FAD2
S3150800AF3006460028EDD1BDF80210A86802AA48F016
S3150800AF4065F806460028E4D108352846BDF82220CB
S3150800AF50684946F0A0FCBDF820202846664946F018
S3150800AF609AFC2846654946F036FC284602A945F06B
S3150800AF704BFF9DF831209DF8003001A962F30003CC
S3150800AF80C2F3400262F3410362F3820368468DF816
S3150800AF90003046F0D8FD5A490246284646F07BFC62
S3150800AFA09DF8312028465749C2F3001246F073FC33
S3150800AFB028469DF82420544946F06DFC2846049AF4
S3150800AFC0524946F068FC2846059A514946F063FC02
S3150800AFD028469DF825204F4946F05DFC28469DF9F0
S3150800AFE026204D4946F057FC2846BDF82E204B49E9
S3150800AFF046F051FC8DE7A86802AA48F00CF800282C
S3150800B00067D19DF831301B0763D4BDF8222005F1BE
S3150800B0100804002E60D02046414946F0DCFB204655
S3150800B020BDF820203F4946F0D6FB2046049A3E4903
S3150800B03046F0D1FB2046059A3B4946F0CCFB204614
S3150800B0409DF82520394946F0C6FB20469DF8242060
S3150800B050374946F0C0FB9DF831202046354902F0B5
S3150800B060010246F0B8FB9DF8312020463149C2F36B
S3150800B070400246F0B0FB9DF8312020462D49C2F328
S3150800B080800246F0A8FB20469DF830202A4946F063
S3150800B090A2FB9DF8312020462849C2F3001246F04B
S3150800B0A09AFB2046BDF82C20204946F094FBBDF8B3
S3150800B0B02E2020461D4946F08EFB2046204946F0A4
S3150800B0C08AFB204602A945F097FE20461D4946F010
S3150800B0D0E2FB08F1010813E720461B4946F07BFB13
S3150800B0E0F7E700BF25F60708E4280808F428080843
S3150800B0F013ED070860EE07086DEE0708BBED0708B5
S3150800B1003702080878EE07088EEE0708D1EF070819
S3150800B110F8ED0708CFED07089BEE0708A4EE070829
S3150800B1203DEE07082CED070844EE07084CED070826
S3150800B1304DEE070853ED070854EE070859EE0708C1
S3150800B14058E80708C3EC0708E2EB07082DE9F043BF
S3150800B1500D4604466749284687B05FF0F2F9074668
S3150800B16000285FD00921644B644A04F1080004F002
S3150800B17071FEA06847F06CFF002680465FFA86F9E4
S3150800B1804946A06801AA47F065FF00283ED104F1A8
S3150800B1900805002F00F0A88028469DF80E2058497B
S3150800B1A046F019FB2846BDF80C20564946F013FB15
S3150800B1B028469DF80F20544946F00DFB28469DF871
S3150800B1C01020524946F007FB28469DF811205049A1
S3150800B1D046F001FB28469DF812204E4946F0FBFA38
S3150800B1E09DF8132028464C4946F0F5FA28464B495F
S3150800B1F046F0F1FA284601A945F0FEFD9DF814200F
S3150800B20028464749C2F3400246F045FB0136F3B2E9
S3150800B2104345B3D904F1080004F00AFD002007B03D
S3150800B220BDE8F08328463F495FF08BF90028A0D196
S3150800B23028680DF102015FF000F90028EFD1BDF88A
S3150800B2400210A06801AA47F005FF0028E7D19DF87B
S3150800B2501420083402F001022046334946F01BFB4D
S3150800B2609DF81430DA07D9D520469DF80E202F49C7
S3150800B27046F011FB2046BDF80C202D4946F00BFB85
S3150800B2809DF80F2020462B49920246F004FB9DF8B4
S3150800B290142020462849C2F3400246F0FCFA9DF8DD
S3150800B2A014309B07BAD52046244946F094FA20461E
S3150800B2B001A945F0A9FD20469DF81020204946F031
S3150800B2C0EAFA20469DF811201E4946F0E4FA20467F
S3150800B2D09DF812201C4946F0DEFA20469DF81320F8
S3150800B2E01A4946F0D8FA99E74A462846184946F0D0
S3150800B2F072FA8BE725F607082C2608083826080868
S3150800B300FDEC07082CED0708BDEE0708C4EE070894
S3150800B3104CED0708CBEE07083DEE070858E8070886
S3150800B320BDEC070813ED0708D2EE07089EE70708E5
S3150800B3306DEE0708DCEE0708EBEE0708BBED07081D
S3150800B3407CEB0708CFED0708E3ED0708F4EE0708DE
S3150800B350E2EB07082DE9F0431E460023C9B005466F
S3150800B36090460F46ADF8063019BB00F10804204692
S3150800B370B34946F030FA06F11001204604F096FC6F
S3150800B380B049204646F027FA404647F0F1F8064607
S3150800B390404647F0EFF8361AB6B26EB9204604F0C2
S3150800B3A047FC06AE324640460DF1060147F0BDF9A8
S3150800B3B0E8B149B0BDE8F083102E4046B14628BF33
S3150800B3C04FF0100947F0D6F8C1194B4602AA89B2C0
S3150800B3D0404647F0E1F84A46204602A904F038FC00
S3150800B3E0A6EB090607EB0903B6B29FB2D5E7337891
S3150800B3F02B2BD7D801A252F823F000BFADB4000812
S3150800B400BFB40008CBB40008DFB40008E5B40008F0
S3150800B410F9B4000821B5000835B500084BB5000891
S3150800B4205FB50008A5B30008A5B30008A5B30008D2
S3150800B430A5B3000887B500088DB5000893B50008C0
S3150800B440C7B50008A5B30008E5B50008A5B3000808
S3150800B450A5B30008A5B30008EBB50008A5B3000816
S3150800B460EFB50008F5B50008FBB5000807B60008F3
S3150800B470A5B30008A5B30008A5B30008A5B300083E
S3150800B480A5B3000873B5000801B600080DB6000894
S3150800B4900DB5000813B600081FB6000823B6000845
S3150800B4A035B6000839B600083DB600086649204694
S3150800B4B046F091F9204608A945F0A6FC71E73289BD
S3150800B4C06249204646F0E7F96BE72046604946F0B0
S3150800B4D0E2F90421284608AAFEF7ECFE61E7B268FD
S3150800B4E05C49EEE720465C4946F0D5F90421284632
S3150800B4F008AAFEF703FF54E72046584946F0CBF959
S3150800B5000421284608AAFEF775FF4AE7204654494B
