S02900006275696C642F64656275672F7263702D756172742D3830323135342D626C656863692E73333733
S214004000C80A0020654D000081D40100FB42000074
S21400401029FC000089D4010091D40100FB42000075
S214004020FB420000FB420000FB420000C1B8030058
S21400403095D40100DCE6030065B80300E3DC03006A
S214004040FB42000029750100FB42000025430000EA
S214004050FB420000FB420000FB420000FB42000067
S214004060FB420000FB4200009B2E0100FB420000CA
S214004070CD6F0000FB420000FB420000FB42000048
S214004080FB420000FB420000FB420000FB42000037
S214004090FB42000019F60000FB420000FB42000055
S2140040A0FB420000F9F50000D9F50000FB420000D5
S2140040B0FB420000FB420000FB42000069250300B3
S2140040C001B20300FDB10300B11C030017B20300E8
S2140040D005B203002925030009B203005D080300AA
S2140040E0A9250300FB420000FB420000FB42000043
S2140040F0FB420000FB420000FB420000FB420000C7
S214004100FB420000FB420000FB420000FB420000B6
S214004110FB420000FB420000FB420000FB420000A6
S214004120FB420000FB420000FB420000FB42000096
S208004130FB42000049
S214004140F0B5114A114C124E00F00105E3695F0705
S21400415013D40DB9334213D103EA00078F4207D1B7
S2140041600B4A1A40002A0CBF00206FF00100F0BD79
S214004170013AEBD16FF00200F9E74FF0FF30F6E7B7
S2140041806FF00100F3E700BF809698000000035030
S2140041900200010000000000000000000000000017
S2140041A00246D0F8940068B9937B73B9D2F89000B1
S2140041B050B9D2F88C3043B9537B127B9B1A5842C5
S2140041C058417047002070471846704740BA80B282
S2140041D04140C1F303135940080380B248404901E7
S2140041E001F4FF5148407047024610B544180020BD
S2140041F0A24200D110BD12F8011BFFF7E7FFF7E758
S21400420070B5044606460D46002016F8011BFFF75B
S214004210DDFFAB1B14FA83F39BB2002BF5D1131A08
S2140042205842584170BD21B1012300200B704B70DD
S214004230704722207047EFF31183302282F31188F3
S214004240064A107820B1064A1088003818BF0120A8
S21400425083F31188BFF36F8F704700BFE0640020C0
S214004260C80A00204FF4E13070474FF4E130704741
S214004270F8B50546164600248F1F2B5D2819142B0B
S21400428008D10521B0F80520FFF7BAFF10B106B136
S2140042903480F8BD0134A4B2BC42EEDB0020F8E75F
S2140042A08B7C01F12C0201338B74036813B9CB624B
S2140042B0026070471846F8E70146034B98789970F5
S2140042C05B6803B118477047C80A0020074A0BB15D
S2140042D0012313720121064B59709378042B03D1E6
S2140042E000230520D361E7E7704700BFC80A002017
S2140042F0E064002001230B747047FEE718461BF0AD
S214004300C7BA024BD3F8B00439F0D4BBC80A0020B1
S21400431008B51BF0ADFA0222014B83F8B42408BDA1
S214004320C80A002007B51F4890F8B53403B9FEE761
S2140043300023694600F59760CDE9003318F0C6FD06
S214004340E8B9194AD2F84031D2F840211F2B4FF075
S21400435001030FD9203A9340019A1A430192082389
S2140043606A46124912480DF003FA124B124A1A60B6
S2140043700CF0C4F89340009A1A430092EFE72D28F9
S214004380F3D1094AD2F84031D2F840211F2B4FF022
S214004390010385BF203A93409340019398BF009352
S2140043A0DDE700BFC80A0020008000440071080056
S2140043B0800F0020000000200B020FF008B50EF062
S2140043C062FE20B110F81A3C2C38013B837408BDFD
S2140043D038B50C46EFF31185302383F3118808486F
S2140043E0FFF7ECFF206028B985F31188BFF36F8FC5
S2140043F01B2038BD85F31188BFF36F8F0020F8E7C8
S214004400E80F002038B500F580530446D3F8C801FD
S2140044100D4618F097FC034620B1002043F8044BE5
S2140044202B6038BD1A20FBE710B500F58050D0F899
S214004430D0010C4618F086FC206038B100230360DB
S2140044401846226813722268536010BD1A20FCE7D3
S21400445010B550F8044C011F04F58053D3F8C8017A
S21400446018F067FC204610BDF8B50446002850D06A
S214004470837C002B4FD10168856911B1284618F05E
S2140044805AFCA16805F5805519B1D5F8D40118F085
S21400449050FCE37C022B0BD0032B0BD0012B0BD153
S2140044A0606828B1FFF7D4FFD5F8A00118F062FCC9
S2140044B0012602E06168E9B90026EFF31187302390
S2140044C083F311882146D5F8BC0118F032FCE37C52
S2140044D0042B14D1D5F89C0139F0ECFA87F3118837
S2140044E0BFF36F8F26B1D5F8A001436A03B1984792
S2140044F00020F8BDD5F8C40118F01BFCDCE7052B3E
S21400450001D0032BEAD1B5F8B831013BA5F8B83194
S214004510E4E72220EDE70420EBE770B516461C46DC
S2140045200D46C9B100F58050D0F8CC0118F00AFC51
S214004530A0B1002303606B6804814360022383728A
S21400454034683CB9022330602846EB74FFF78CFFD2
S214004550204670BD2646F3E72220FAE71A20F8E741
S2140045602DE9F84FEFF31188302383F311886A4C56
S214004570D4F824352C2BA3F12C0606D188F3118809
S214004580BFF36F8F1B20BDE8F88F53F82C9CB9F152
S214004590000F00F0BE80B589DFF89CA15F4F002DAC
S2140045A000F0AA800D22002104F5A5602FF0D1FCB2
S2140045B0C4F82C954FF01309B5F5006FC4F828A57C
S2140045C0C4F83075C4F834955FD80D22002104F580
S2140045D0A760D6F804A0013D2FF0BBFC504AADB250
S2140045E042EA051202254F4BC4F83CA51340C4F816
S2140045F03835C4F84075C4F84495D6F808A0BAF122
S214004600000F14D0A94604EB091909F5A56310227A
S214004610002118462FF09DFC434A0135C9F828258D
S2140046201322C9F82CA5C9F83075EDB2C26004EBA8
S21400463005191022002109F5A5602FF08AFC3B4BD6
S2140046400E36C9F82835C9F82C65C9F83075002328
S21400465004EB031292F82A1501336FF3041182F863
S2140046602A15DAB2AA42F3D90025314A314BD4F8DA
S21400467088051D7002F150012B4618F05FFC88F388
S2140046801188BFF36F8F28467DE7B5F5805F2DD87C
S214004690D6F804A0DFF88CB00D22002104F5A76040
S2140046A02FF057FCC4F83CA5C4F838B5C4F84075DC
S2140046B0C4F8449573680D22002104F5A96003F53B
S2140046C0006A2FF046FC6FF400631D44144BADB235
S2140046D043EA051303EA0B030325C4F84835C4F878
S2140046E04CA5C4F85075C4F8549586E788F311882D
S2140046F0BFF36F8F212046E71022294604F5A560F8
S2140047002FF027FCC4F828A5C4F82C95C4F83075FB
S2140047109DE7012037E700BFC80A00203C8005500F
S21400472000001030F07F1030700010301000103095
S214004730F00F0020E06400206000103010B5EFF3AA
S2140047401184302383F311880A4803882BB984F335
S2140047501188BFF36F8F032010BD013B038000F26A
S2140047602450FFF79DFDFFF7FBFE84F31188BFF38F
S2140047706F8FF1E7C80A00202DE9F74F394CA2EBFE
S214004780010B1FFA8BFB0E461546A4F88CB578B9BC
S214004790D4F8900501A9FFF735FE50B1D4F894057A
S2140047A039F076F9012384F8983503B0BDE8F08F28
S2140047B00190019FB5F5006FDFF8C090DFF8C0806C
S2140047C007EB060A1ED81022002127482FF0C1FB4F
S2140047D00BF1FF33C3F30A031B0143F0447303EAF0
S2140047E00903C4F89C35C4F8A085C4F8A4A51F4BDB
S2140047F0D4F8BC251E49D4F8940503B0BDE8F04FA4
S21400480018F09CBBC6F5FF6607360D220021164839
S214004810B6B22FF09EFB3601164B46F0407633407C
S214004820C4F89C351323102200211348C4F8A83579
S214004830C4F8A085C4F8A4A52FF08BFB6FF4006322
S214004840EB18C3F30A031B0143F0447303EA09039E
S21400485007F50067C4F8AC35C4F8B085C4F8B4757D
S214004860C5E700BFC80A002064100020554A0000B3
S21400487088100020F07F000374100020F07F1003E3
S214004880248005502DE9F341EFF31186302383F39E
S2140048901188214CD4F8940539F0FAF894F8983534
S2140048A033B186F31188BFF36F8F02B0BDE8F08195
S2140048B001A9D4F89005FFF7A5FD014618B101231C
S2140048C084F89835EDE7B4F88C5504F29C57013D12
S2140048D010223846ADB2DDF80480C5F30A052FF085
S2140048E038FBD4F89C250D4B2D01134045F044753C
S2140048F01D430B4B3A46C4F8A035D4F89405094B33
S21400490004F5B861C4F89C55C4F8A485C4F8BC7511
S21400491018F014FBC5E700BFC80A00200F80EFFCA4
S21400492024800550554A000008B5FFF7ABFF00206D
S21400493008BD10B5EFF31184302383F31188124BB2
S214004940B3F8D025092A04D984F31188BFF36F8FF2
S21400495010BD817C013201318174D3F8D415A3F8DF
S214004960D02593F8D82540F82C1FC3F8D405002A84
S214004970EAD0002283F8D82593F89835002BE3D1A7
S214004980FFF780FFE0E700BFC80A0020002373B5EA
S2140049900E460A251D4CC4F89015C4F8D435C4F844
S2140049A02035C4F82435C4F8DC3584F8F035C4F86E
S2140049B0E435C4F8EC35C4F8E815304601A913F020
S2140049C0A1FE00BB0198FFF7B4FF013DF5D10A2315
S2140049D023804FF480520E4B1A604FF440624FF023
S2140049E0FF310C4B5A610C4A91640121A2F58052AA
S2140049F0D164516005225D615A610723A4F88C35A5
S214004A00284602B070BD1925FAE700BFC80A002084
S214004A1000E100E00080055000A0055013B5EFF35C
S214004A201184302383F31188094BB3F8D025092A63
S214004A3008D8D3F8900501A913F064FE10B90198C0
S214004A40FFF777FF84F31188BFF36F8F02B010BDB6
S214004A50C80A002000232DE9F04F85B00393ADF877
S214004A600A30EFF31189302282F31188AB4CD4F868
S214004A70BC1594F8F4258D6832B194F8F52584F8C1
S214004A80F435AD1A84F8F53594F8F6359BB32B68F3
S214004A90A34EC4F8FE35AB880D21A6F80B30AB79D3
S214004AA00DF10A02701C7373FFF7E2FB074678B934
S214004AB02B682846C4F8F735AB88B380AB79B3715A
S214004AC0FFF7C6FC072239463846FFF755FE33E0A7
S214004AD0BDF80A3001339BB2F218ADF80A30F3582D
S214004AE02B609388AB809379AB71002384F8F635FE
S214004AF0012384F8F435DFF830A29AF80260002E1D
S214004B0000F0FE80EFF3118B302383F31188B4F8A6
S214004B10D075CFB90123D4F8940584F8D83538F089
S214004B20B7FF8BF31188BFF36F8F0023C4F80836E6
S214004B3015B12846FFF78CFC89F31188BFF36F8FF9
S214004B40002005B0BDE8F08F7648FFF737FC8046BA
S214004B500028E6D0013FA4F8D0758BF31188BFF388
S214004B606F8F94F8F425C4F80806BAB907212846CA
S214004B70FFF77EFB074688B92A68694BC4F8F72515
S214004B80AA8828469A80AA799A71FFF761FC40465F
S214004B90FFF7CFFE012384F8F63593E76B882846A7
S214004BA0A8F80C302A68D8F80030D4F890B51A6007
S214004BB0AA889A80AA799A71FFF74AFCB8F80C700E
S214004BC0002F56D101238AF80230072794F8F415EF
S214004BD0A4F88C75002900F09080D4F8903503A9CD
S214004BE018460193FFF70EFC834600287DD1BDF8DA
S214004BF00A80DFF82CA1C8F10705EDB208F107011D
S214004C00BD42039B84F8F555514462D3ED1B3A46EA
S214004C101846EDB2D4F8086684F8F5552FF0B8FBC0
S214004C207060002D4FD0019803A9FFF7EBFB00281A
S214004C303CD1039B07EB080107312A46514418462E
S214004C402FF0A6FB07222946A4F88C25FFF794FD33
S214004C500122354B9A70D4F808163448FFF720FB2B
S214004C60D4F8903503F58053D3F8940138F022FF3A
S214004C7062E7B4F88C35B3F5857F13D90623414631
S214004C8088F81C3029480BF5805BFFF709FBDBF83A
S214004C90940138F00FFF00260123C4F808668AF84E
S214004CA0023092E700268AF802608FE7D4F894056F
S214004CB038F0EEFE84F8F5B50723A4F88C3501230A
S214004CC084F8983538E7072229462846A4F88C2524
S214004CD0BCE72A4618462FF05BFB3A462946FFF704
S214004CE04BFD002E3FF428AFB5E7D4F8940538F016
S214004CF0CFFE002384F8F535DEE73A460846EEE7B1
S214004D000722D4F8083631465D603046A4F88C2574
S214004D10FFF732FD01238AF802309CE7C80A00201C
S214004D20BF1000209C100020E0640020E80F002048
S214004D3010B5EFF31184302383F31188084B93F8F2
S214004D4098253AB1D3F8D42522B1002283F89825C5
S214004D50FFF798FD84F31188BFF36F8F10BD00BF77
S214004D60C80A002008B5274B83F30A886FF00101B4
S214004D70254B264A9A60D3F8882042F47002C3F87E
S214004D808820234A116641F2FF7151660221C3F85A
S214004D90D010BFF34F8FBFF36F8F08204FF4403310
S214004DA01C49C1F88001D3600860A2F50052136167
S214004DB019481A4BC01A801013F066FC184B194994
S214004DC08B4212D30020184B18498B4218D30AF096
S214004DD09FFB186850F82240586840F8224001327D
S214004DE098688242F5D30C33EAE70022F8E71C689D
S214004DF044F8220001325C68A242F8D30833E4E7A4
S214004E000022F8E70800002000ED00E00040000067
S214004E1000A0004400E100E0A04100004041000086
S214004E20F8260400042704000427040004270400CE
S214004E3008B520F079F808B120F060F8BDE8084021
S214004E4031F06FBD08B519F01BFABDE8084019F03F
S214004E505DBA08B50BF052FBC30742BF0122014BF7
S214004E601A607047E063002038B50D4CD4F8203641
S214004E7093B90C4D6B68013307D10DF01BFB4FF057
S214004E8050234FF4003268601A676B68402B02BFED
S214004E90054B1B68C4F82036D4F8200638BD00BF82
S214004EA0C80A0020E0640020E06300204FF00042C3
S214004EB0014B1A60704700BFE06300200C4BD3F82C
S214004EC0242630EA020211D0EFF31181302282F359
S214004ED01188D3F824260243C3F8242681F31188C8
S214004EE0BFF36F8FD3F8280638F0E4BD704700BFD5
S214004EF0C80A002000239A6AB2F5804F03D21168D0
S214004F00074A914203D00023037083607047012252
S214004F1002709A6A926842609B6A9B69F5E700BFD6
S214004F2007B0CD5E1FB501238DF80430002301A81D
S214004F30CDE90233FFF7DEFF039B9C0245D5254CE7
S214004F4063680BB10CF050FF0122234B5A60A36A32
S214004F509806FCD402230125A36063621F4B5D60A4
S214004F600CF042FF1B4BE5609A6AD106FCD4022285
S214004F701A639A6AD206FCD40323174A5361A2F531
S214004F80805293614FF48022154B1A604AF6E8501F
S214004F90144B154CDA6ED96E22F0030218661348CD
S214004FA042F0020241F00301C0F82044DA66D966F6
S214004FB0DA66D966DA66D966DA66D966DA66BFF37D
S214004FC04F8FBFF36F8F30BFFEE7094B094A1A6059
S214004FD00BF094FA00400650006006500050065051
S214004FE000E100E0004000500000FFFF00E003503A
S214004FF00000002002020FF01FB500239A6AB2F5E7
S214005000804F1FD2126BB2F5804F1BD2012201A82F
S214005010CDE902338DF80420FFF76CFF039BDB031A
S21400502010D5029B1A0E0DD0012A03D1C3F30743F5
S2140050300A2B07D900239B6A1B6B1B6C05B05DF817
S21400504004EB184740F2011005B05DF804FB38B5D4
S2140050500446D0F8F8000D4617F0BAFF40B9E36FE3
S2140050602BB1207A2A46D4F880109847012038BD04
S2140050700020FCE710B4EFF31181302383F311888E
S2140050800346D0F80821546843F8044F536081F370
S2140050901188BFF36F8FD0F808315DF8044B03F525
S2140050A08053D3F8940138F005BD08B50146FFF7E4
S2140050B077F850B1D1F8880040B9D1F8843023B9D8
S2140050C0B1F86800B0FA80F0400908BD0020FCE79F
S2140050D0EFF31182302383F311888368013B8360EA
S2140050E082F31188BFF36F8F704710B508B902209E
S2140050F010BDEFF31184302282F31188826822B942
S21400510084F31188BFF36F8FF1E70132826084F376
S2140051101188BFF36F8F036813B100200B60E7E7B9
S214005120FFF7D6FFE3E738B50446EFF311853023E3
S21400513083F31188037C63B18068214640300DF00C
S214005140AAFFA26892F84430013B82F8443000235C
S214005150237485F31188BFF36F8F38BD2DE9F843AC
S21400516000F580550646D5F8BC018846174617F068
S214005170E9FD044610B91A20BDE8F8833422002160
S2140051802EF0E7FEEFF31189302383F311887B1EA0
S214005190042B22D8DFE803F0172103170300B5F825
S2140051A0AC21B5F8B831013A934209DB2146D5F86F
S2140051B0BC0117F0BEFD89F31188BFF36F8FDAE7E5
S2140051C00133A5F8B83189F31188BFF36F8F00203B
S2140051D0E774A661C8F80040CEE72120CCE710B5FA
S2140051E0A8B1FFF735F9044600F58D5014300DF0E0
S2140051F04AFF04F58054014618B1D4F8CC0117F0E4
S21400520098FDD4F8A00117F0B5FD002010BD2220AF
S214005210FCE710B5054C0A4601B2D4F82C061AF085
S21400522055FAD4F82C06BDE81040D8E7C80A002086
S21400523038B504460D4681B1486804F5805428B157
S214005240FFF706F9D4F8A00117F094FD2946D4F824
S214005250CC01BDE8384017F06CBD38BD08B50DF080
S21400526012FF20B110F81E3C3038013B837408BD95
S2140052708B7C01F1300201338B74036813B90B6326
S214005280026070471846F8E738B581624469EFF364
S2140052901185302383F31188D4F80831014603F1D1
S2140052A01000FFF7E5FF85F31188BFF36F8FD4F882
S2140052B00821074902F1180017F05AFE4FF6FF7250
S2140052C0B4F8683093421CBF0133A4F8683038BD88
S2140052D07B61000010B50446A37C0846013B04F140
S2140052E03001A3740DF0D7FE2046BDE810403321F0
S2140052F0CAE70B7C70B57F2B164604464FEA93121E
S2140053004FF030030AD9EFF3118583F31188032A8F
S21400531023D1837B0BBB012383730BE0EFF3118553
S21400532083F31188437B1BB99030FFF7A1FF0FE092
S214005330013B4373D4F808010830FFF799FF3EB1EC
S214005340D4F8083103F58053D3F8940138F0B2FB53
S21400535085F31188BFF36F8F70BD04F19400E4E706
S2140053602DE9F7438946174601A9032206461D463E
S2140053709DF82880FFF7F2FE50BB06F58053D3F861
S214005380C401019C17F0DEFC606028B9204603B01B
S214005390BDE8F043FFF768B8012165F06F05A1810D
S2140053A0C4F814906774257480F800806068FEF76F
S2140053B01BFFE081EFF31185302383F3118821462C
S2140053C006F10800FFF754FF85F31188BFF36F8FCF
S2140053D003B0BDE8F08310B50446182200212EF075
S2140053E0B8FD204610BD0368D90444BF43F480636B
S2140053F0036003689A0444BF43F400630360704785
S21400540010F1840F12DA10F1950F25DB9530102875
S21400541022D8DFE800F01D2121211B2121211913AC
S214005420110F151F1723090008207047003818BFF2
S214005430012070471D2070472E2070472D20704792
S21400544024207047212070471A2070472F2070476D
S2140054502C20704725207047012070470F2070478A
S2140054602DE9F04F604E0446B3780D4692468FB055
S214005470002B00F0B480022B08D1007A012894BFDC
S21400548000200120C0000FB0BDE8F08F012B00F017
S214005490A880033B012B03D8037A012B00F0A180E0
S2140054A094F804010028EED02A68137903F0070167
S2140054B023F0070313712B68F0680693237A07918D
S2140054C08DF82C30D4F8FC30CDF82D0043F0004396
S2140054D00D93464BD6F830069A889B79ADF8312066
S2140054E08DF8333000234FF4007209930AA9404B1D
S2140054F0D5F80490BAF8007012F0A2FB834688B97B
S214005500DDF82880D8F80430D8E908121B0A18D02D
S2140055103848834235D06FF0860B002F59D10A9851
S21400552011F0E4FF5846FFF76BFF10B9099BAAF885
S21400553000302A680799137923F00703194311717D
S214005540A1E709ABCDE90473069B40460093CDE97D
S2140055500279CDF804900BAB15F046FE10F1860FDD
S21400556083461CD10DF12203B8F8001020480DF137
S214005570230215F0B3F9031E14BF9B466FF0850B8C
S214005580CBE709ABCDE90473069B40460093CDE913
S2140055900279CDF804900BAB15F026FE8346BBF1DE
S2140055A0000FBAD10A9811F0A1FF16F0D6FBD4F876
S2140055B0FC200132C4F8FC20F2690132B2F1005F2F
S2140055C0F261AFD1B278052AACD10320FEF774FEA3
S2140055D0A8E73A46002148462EF0BBFC9FE703208A
S2140055E051E700204FE700BFC80A0020D40A002079
S2140055F00002480502008000EFF305830F2B84BFEE
S214005600034A9B5C4FF0E023D3F80C3D704700BF85
S214005610F0E300E0002307B50193054B5B6938F023
S214005620FBFA019B002BFCD003B05DF804FB00BF27
S214005630E0640020EFF3148010F0010F14BF002088
S21400564001207047EFF3148040F0010080F31488C7
S214005650704710B5044B0446D3F8E40638F06EFBEA
S2140056602060002010BD00BFC80A002010B5044B03
S2140056700446D3F8E80638F061FB2060002010BD31
S214005680C80A0020002313B5174801A980F8B434CF
S21400569000F5DE60FFF729FD20BB019C36F0C4FD57
S2140056A0022803D1D4F8F00038F07EF8617A11F0C1
S2140056B010010CD036F0B8FD022803D1D4F8F00063
S2140056C036F086FD094802B0BDE8104000E594F8C3
S2140056D05030002BEED0023B012BEBD9204617F0C2
S2140056E07DFCE7E702B010BDC80A0020B811002014
S2140056F02DE9F3410E4615468046002843D001A901
S214005700FFF7F3FC0746F8B9019C36F08DFD02283A
S21400571003D1D4F8F00038F047F8711E0A2907D8EC
S214005720DFE801F0161C20222426292D181A1E0058
S214005730E56536F079FD022803D1D4F8F00036F09E
S21400574047FD4046FFF7C4FC384602B0BDE8F0818E
S2140057502566EEE7E566ECE72567EAE7A565E8E790
S2140057606566E6E76567E4E7A567E2E7E567E0E71D
S214005770C4F88050DDE72B68C4F89830D9E72B686A
S214005780C4F89C30D5E72227DEE708B500230122BF
S21400579019460B4817F027FB08B1002008BD022168
S2140057A0084A0748FFF7A4FF0028F6D10321064A57
S2140057B00348FFF79DFFB0FA80F04009EEE700BF10
S2140057C0C4110020CD420000155B000070B50546F0
S2140057D0EFF31183302282F3118806684EB1727A95
S2140057E0D20610D483F31188BFF36F8F0F242046A0
S2140057F070BD8268012A2BD8866083F31188BFF3B8
S2140058006F8F3446F3E78268012A21D8002282602F
S21400581083F31188BFF36F8F36F006FD022803D19D
S214005820D6F8F00037F0C0FF0121304617F0D6FB5F
S214005830044610B1052808BF002436F0F5FC0228FF
S21400584003D1D6F8F00036F0C3FC00232B60CEE779
S21400585083F31188BFF36F8F0424C8E710B5074C95
S21400586004F2FC60FFF7B2FFFFF78FFF20B10122C2
S214005870034B5A700023237210BD00BFC80A0020D5
S214005880E0640020022838B52ED1042952D136F023
S214005890CBFC022804D1284BD3F8980137F084FFBC
S2140058A0264B0021186817F091FA044636F0BCFC27
S2140058B0022803D1D4F8F00037F076FF012384F8ED
S2140058C0043136F0B1FC022803D1D4F8F00036F0EB
S2140058D07FFC36F0A9FC02282CD1174BD3F8980190
S2140058E0BDE8384036F074BC032823D1042921D102
S2140058F036F09AFC022804D10F4BD3F8980137F003
S21400590053FF00250D4B1C68002CE2D036F08CFCB3
S214005910022803D1D4F8F00037F046FFC4E93F551B
S21400592036F082FC022803D1D4F8F00036F050FCA2
S2140059302468E9E738BD00BF4075002040650020B8
S2140059402DE9F04385B080461746994636F06CFC44
S21400595002280E4605D101F58053D3F8980137F09A
S21400596023FF3946306817F031FA054600287CD107
S2140059704FF48871012018F03FFA044670B91A24D3
S21400598036F052FC022805D106F58056D6F8980166
S21400599036F01EFC204605B0BDE8F08340F2011349
S2140059A08381022380F8099080F850300772458181
S2140059B0C5730560642037F0B5FA012F94BF002345
S2140059C0012384F804314FF0FF33C4E92633012362
S2140059D00193274B6061009304F1A00302935023C8
S2140059E06846C4E93F55C4F80861039338F0B7F930
S2140059F0C4F8F00028B984F8500020460CF004FEE5
S214005A00BDE73368C4E92155C4E92355C4F894506A
S214005A1023603460304600230168A9B9002BF9D111
S214005A20C4F8F430EFF31182302181F3118801219C
S214005A3088F80470C8F80810C8F8004082F3118887
S214005A40BFF36F8F1C469BE70A68002AE6D091F8E2
S214005A5008C0157AAC4529BF1368084611600B606C
S214005A6022BF026001231046D6E7122488E700BF53
S214005A70A0E3030038B5044636F0D6FB022804D16E
S214005A80154BD3F8980137F08FFE144B2179186820
S214005A9017F09CF90446E0B136F0C6FB022803D1A5
S214005AA0D4F8F00037F080FE94F8505036F0BCFB87
S214005AB0022803D1D4F8F00036F08AFB36F0B4FBA7
S214005AC0022804D1044BD3F8980136F081FB28460F
S214005AD038BD0546F2E700BF40750020406500204F
S214005AE038B5046814B9BDE83840C3E736F09CFB07
S214005AF0022803D1D4F8F00037F056FE94F8505040
S214005B0036F092FB022803D1D4F8F00036F060FBA2
S214005B10284638BD10B5054C04F2FC60FFF7E0FFE0
S214005B2005281CBF0123237210BD00BFC80A002031
S214005B302DE9F0471E46062313704968144630299F
S214005B4086B072D00ED8042905D9202967D0002344
S214005B5063600D2335E00139032930D8DFE801F012
S214005B603358394340F2022399427DD00ED850294B
S214005B705ED0B1F5007F60D04029E8D1516050F882
S214005B80380CC3699847A06008234CE040F2013304
S214005B9099426ED0B1F5885F6FD0A1F58053FF2B88
S214005BA000F28E8000238DF81010C9B241F48051A7
S214005BB0516003A80393FFF75DFF207207E0002300
S214005BC05360A360E0E701235360062313720523A6
S214005BD029E0042303220821C4E901230023C4E9A1
S214005BE0031310231FE01346042243F8042F504AE1
S214005BF0116859605168128999609A810E236380F2
S214005C000123437463880433336006B0BDE8F0872D
S214005C100223536010F8333CDB000133D1E75160B8
S214005C2050F8302C22816380ECE75160C36BC8E7E4
S214005C30516050F8380C036AA4E7516003A8FFF7D8
S214005C4059F9049BE360002323619DF80C30012B77
S214005C5002D103232372C4E723B923724FF0FF3324
S214005C60E360BEE70423F5E7324B5160D3F808370C
S214005C70A7E7304B51609B78A3E700252F4651607D
S214005C8002F1070902F1870A6B1C6846CDE9007726
S214005C90CDE903778DF804508DF8103002970597FC
S214005CA0FFF71EFF804603A8FFF71AFF48EA001812
S214005CB009F8018F0235D145EDB2E5D18423B2E76C
S214005CC0A1F5E063FF2B3FF642AFCDB245F4E063AB
S214005CD0536036F0A9FA022804D1174BD3F898017E
S214005CE037F062FD154B2946186817F06FF8054621
S214005CF0E0B136F099FA022803D1D5F8F00037F073
S214005D0053FD95F8047136F08FFA022803D1D5F8C2
S214005D10F00036F05DFA36F087FA022804D1064B1A
S214005D20D3F8980136F054FA277250E70746F2E7A0
S214005D30B2E30300C80A002040750020406500203A
S214005D4007B5304C04F22C654FF0FF31D4F8B004A0
S214005D5036F098FB94F8B434022B08D0002BF3D11D
S214005D60294815F06BFC012384F8B434ECE70023D3
S214005D70294625480DF1060215F00FFF10B1002345
S214005D80ADF80630BDF806000028DDD094F80C27E4
S214005D90D4F82C36012A07D0022A27D0002108463C
S214005DA0FFF737FA012314E01A78012A04D0022AF2
S214005DB017D0002AF2D1C7E7021FDB7892B29A42C8
S214005DC00AD29B1A9BB20021A4F80E37FFF721FADD
S214005DD0022384F80C37B7E70023A4F80E37012116
S214005DE0DEE7421FB3F8033092B2E8E7B4F80E37A6
S214005DF08342F4D91B1A0021A4F80E37FFF709FADC
S214005E00A2E700BFC80A0020B8110020302508B558
S214005E100B4C4FF0FF31D4F8280636F033FBEFF387
S214005E20118385F311880022D4F82406C4F82426AA
S214005E3083F31188BFF36F8F21F0EAFEE9E700BF16
S214005E40C80A00202DE9F347044691461E4636F060
S214005E50EBF90228884652D1D4F8085116F0010F03
S214005E6005F58053D4F89C10D3F89C0118BF002188
S214005E7036F008FB0330012840F2858004222846CD
S214005E800DEB0201FFF76AF90746C8B936F0CCF900
S214005E90022803D1D4F8F00037F086FC16F00E0F77
S214005EA0657A2ED0AB070FD436F0BEF9022803D1A0
S214005EB0D4F8F00036F08CF90198FEF7D5FA2127D1
S214005EC0384602B0BDE8F08716F002021ED116F082
S214005ED004031DD116F008051DD12B4694F850205A
S214005EE0DDF804A0052A18D036F09EF9022803D162
S214005EF0D4F8F00036F06CF95046FEF7B5FA0227F3
S214005F00DEE715F00105CFD10123E7E70025E4E73A
S214005F1004251346E2E70E25E0E7CAF80480AAF84F
S214005F200C90CAF81440227A8AF811200A9ACAF805
S214005F3020201BB3A37AE27A1B01DBB21343C6F31D
S214005F40001643EAC6038AF81030A37A013303F03A
S214005F500703A37249464046FEF746F90122AAF80F
S214005F600E0051462046FFF7C4F936F05DF90228C8
S214005F70A6D1D4F8F00036F02BF9A1E765F03F057E
S214005F808AF81050E6E71A279AE72DE9FF410F46F0
S214005F9003A9064615469846FFF7A7F80446C0B973
S214005FA03FB345B30398D0F8083190F8042103F5C1
S214005FB08053B3F8B04140F6F773002C08BF1C4678
S214005FC00AB1083CA4B2A54207D93046FFF780F8CC
S214005FD02B24204604B0BDE8F0810A9B2A46009395
S214005FE039464346FFF72EFF04463046FFF770F863
S214005FF0EFE72224EDE72124EBE7002307B58AB27A
S214006000009301460248FFF7C0FF03B05DF804FBAB
S214006010B811002007B50022074B01465A700288C7
S214006020064B0432009392B201230548FFF7ADFFFA
S21400603003B05DF804FB00BFE0640020CD42000022
S214006040C4110020F0B5A0F58E56183E022300229B
S214006050314685B0054616F0C6FE2E28044667D0A3
S21400606048B90B212846334AFFF742FB044628B1BD
S2140060702846FFF7ABFB204605B0F0BD02212846B8
S2140060802C4AFFF735FB04460028F1D103212846A9
S214006090294AFFF72DFB04460028E9D12A460421A9
S2140060A02846FFF725FB04460028E1D103A9304621
S2140060B0FEF7BAF9039E0623374647F80C5BB38112
S2140060C034610CF0F7F94FF050234FF4003210F023
S2140060D0400F1A6714BF7323772310F0800F18BF82
S2140060E0732310F4806F18BF732310F0010F18BFCE
S2140060F0782310F0020F18BF782310F0080F18BF8F
S214006100742310F4004F18BF742310F0040F18BF48
S214006110722310F4804F18BF7223736108230C2279
S214006120F3813946032328460096FFF72EFFA2E7A1
S2140061301224A0E7896A0000F5420000EFB5064683
S214006140A0F58E500D46183803A91746FEF76CF9D1
S21400615088B90623039909228B8105230D7245F41D
S2140061608055CB810E600D610F750123009130467E
S2140061700C31FFF70AFF04B0E0BD2DE9F0470646F4
S21400618030274FF0020900F1100833697BB1EFF3B6
S214006190118A87F311884046FFF760F84469054680
S2140061A094F850302BB98AF31188BFF36F8FBDE88F
S2140061B0F087B4F86830002BF5D0013BA4F86830BF
S2140061C08AF31188BFF36F8F2B7C40697F2B4FEAD1
S2140061D0931235D9032A09D1D0F864A0BAF1000F7A
S2140061E004D0AB6A2A6A6968007AD04736F01CF891
S2140061F0022803D1D4F8F00037F0D6FA94F85030DD
S214006200062B20D0082B1ED0032B0BD12046FEF7E2
S2140062104CFF38B1637A84F85090DB0602D52046EE
S214006220FEF728FF36F000F8022803D1D4F8F00075
S21400623035F0CEFF002328466B60FEF715F9A4E77D
S214006240D0F858A0CAE72046FDF7AAFF0028E9D0F4
S214006250D4F80801092200F58E50217A1830FFF78D
S2140062606DFF30B10923D4F8F80084F8503016F0EA
S214006270AFFE94F85030062B04BF072384F8503046
S214006280D0E7084B03F5E362D2E8AF2FD20707D476
S21400629093F8182722B9C3F81C27012283F8182779
S2140062A001487047C80A0020E4110020102200218F
S2140062B02DF04FBE70B5144D05F5E463D3E8AF4F2F
S2140062C014F0010416D195F820379BB9C5F8244779
S2140062D005F5E56630191034FFF7E8FFA02CF9D174
S2140062E00B220A4B013A194603F1100304D101238D
S2140062F085F82037064870BDD5F8240743F8100CFB
S214006300C5F82417EEE700BFC80A0020F0110020E9
S214006310EC110020037A012B04D0022B06D053B9CF
S2140063200B7270470B7203880B8070470B72036802
S2140063300B6043684B607047C83003F0E7BDC83059
S21400634003F057BD014B93F8C8077047C80A0020F2
S214006350034BC0E93712C3F8CC17C3F8D0277047F1
S214006360C80A002025289ABF024B53F8200002488E
S214006370704700BFB8E50300BCE3030003F058BE57
S21400638001289DBF034BC0EB001003EB001000205C
S214006390704700BFA0120020034BC01A1E23C01077
S2140063A0B0FBF3F0C0B27047A012002010B5044650
S2140063B021B10B68EB2B04D8EC230B60002420469D
S2140063C010BD0028FAD016F0B3FF012384F8E4309D
S2140063D0F5E7D0F8E80070470120704790F8E43001
S2140063E02BB10023543080F8903015F0A5BB7047D1
S2140063F008B50AF083F808B5FEF794FD243003F0DC
S214006400E9BC7FB5002424300C70ADF80C40ADF824
S2140064100E20029103F0DEFC194A034682428C41AC
S2140064200BD215A3D3E900232CF042FD14461549E0
S214006430024602A803F05CFB2346134C4EF660218E
S214006440B3FBF4F204FB1234B4FBF1F34FF47A76A8
S21400645001FB1344B4FBF6F50C49009502A803F0C3
S21400646047FB06FB15420A4902A803F041FB04B0AD
S21400647070BD00BFAFF30080005C26050000000082
S214006480FF5B2605CDE3030080EE3600D3E3030072
S214006490E2E3030010B504461C3006F0E7F90023DB
S2140064A0C4E91333A3640B2384F844304FF6FF7318
S2140064B0A4F8463004F15400BDE8104006F0AAB92E
S2140064C00048704750E603000048704750E6030057
S2140064D038B504460D46543039B194F85A300BB9E5
S2140064E005F00CFCA564002038BD15F025FBF9E787
S2140064F0806C003818BF0120704708B5826C3AB12E
S214006500436DA0F85E10D86905F078FD002008BD40
S2140065100D20FCE7836C3BB1B0F860308B4218BFAF
S214006520A0F86010002070470D207047014B93F8CC
S214006530B8097047C80A002008B5836C23B108461E
S21400654005F0B6FE002008BD0D20FCE7836C0BB1FD
S21400655015F0E6BA0D207047403007F00FB9006F0F
S2140065607047F8B5836C04460E46ABB190F85A30C7
S21400657000F15407052B0FD00025384604F07FF9AC
S214006580384684F85B5084F85C5084F8B55007F0C1
S21400659050FA2846E664F8BD0D20FCE7C06906F010
S2140065A0D5BEB0F8580040F03400704738B51D46E8
S2140065B0836C04462BB1543006F072FF00B9256593
S2140065C038BD0D20FCE7836C23B1034B002083F815
S2140065D0B91970470D207047C80A002038B5836C7B
S2140065E00D4683B3C469204605F0F6FE80B20F2838
S2140065F025D91E21164BE21AD210B2FBF1F2D2B206
S21400660003EB821303F5F271002311F82300C0B1E7
S2140066100133102BF9D14FF0FF3399B20F2914D85C
S2140066200C4903EB021301EB830301EB4201B1F8C3
S2140066303A2A15440122A3F8BA5983F8BC29002047
S21400664038BD1BB2E9E70D20FAE70320F8E700BFE4
S214006650A0120020C80A002013B5836C0446002B45
S21400666042D0684604F074F8E4696946204605F0AE
S214006670D9FE80B20F2830D91E211C4AA31ADB107F
S214006680B3FBF1F3DBB202EB831202F51A710022C0
S21400669011F8220020B30132102AF9D14FF0FF3250
S2140066A091B20F291ED8124902EB031201EB4300E8
S2140066B001EB8202BDF80030BDF80210B0F83A0ACD
S2140066C00B44BDF804100B44BDF806100B440344FD
S2140066D0A2F83E3A012382F8403A002002B010BDEC
S2140066E012B2DDE70320F9E70D20F7E7A01200203D
S2140066F0C80A002010B5836CCBB1C469204605F0EB
S2140067006BFE83B20F2B14D80B4B03F5FB62A41A57
S2140067101E22E410B4FBF2F4E4B200EB041003EB28
S2140067208003002083F8BC09A3F8BA0910BD0D2029
S214006730FCE70A20FAE700BFC80A002013B5836CFE
S214006740044603B3684604F003F8E4696946204645
S21400675005F068FE83B20F2B13D80C4B03F5FB62D3
S214006760A41A1E22E410B4FBF2F4E4B200EB041008
S21400677003EB8003002083F8400AA3F83E0A02B029
S21400678010BD0A20FBE70D20F9E700BFC80A00206D
S21400679010B5836C8BB10A4CC369A4F5F1729B1AD1
S2140067A01E22DB10B3FBF2F3DBB24022002104EB27
S2140067B083102DF0CEFB002010BD0D20FCE700BF9F
S2140067C08214002010B5836C8BB10A4CC369A4F206
S2140067D066229B1A1E22DB10B3FBF2F3DBB24022CA
S2140067E0002104EB83102DF0B4FB002010BD0D201B
S2140067F0FCE700BF06150020403005F05ABF08B57C
S214006800826C5AB1B0F85830C0F8B0109B0603D569
S214006810436DD86905F0C6FD002008BD0D20FCE7D5
S21400682010B5836C3BB3D0F8B0309942B0F858300E
S21400683088BFC0F8B0109B061BD5436D0F4ADB69B6
S21400684002F5FB601B1A1E20DB10B3FBF0F3EFF320
S2140068501180302484F31188DBB202EB8313D3F863
S214006860C42A914288BFC3F8C41A80F31188BFF3C4
S2140068706F8F002010BD0D20FCE700BFC80A002067
S2140068802DE9F0410446EFF31186302383F3118897
S214006890D0F808319D681DBB04F1300036F02EFCA0
S2140068A0D4F808315D69002D36D1A04658F88C7FA3
S2140068B0002F4DD12774274657F8905F002D5FD1E3
S2140068C0274657F8945F002D61D1D4F80831DF6869
S2140068D0002F63D186F31188BFF36F8FBDE8F08178
S2140068E015F8203CA5F130007F2B4FEA931743693B
S2140068F098BF0027A3422D68CDD1D4F808110831DF
S214006900FEF7E8FC1FB9637B01336373C3E7032F0D
S21400691004BF0023A373BEE715F8203CA5F13000A2
S2140069207F2B4FEA9317436998BF0027A3422D6831
S214006930B9D1D4F808111431FEF7CCFC1FB9637B2B
S21400694001336373AFE7032F04BF0023A373AAE7E3
S2140069503D4655F830794046AB7C05F13001013BA9
S214006960AB740CF098FBAB7C33B9637B33210133FB
S21400697028466373FEF788FCE37B013BE37397E7E7
S2140069802846394650F83059FEF7A4FC96E72846C4
S214006990394650F83059FEF79DFC94E7384650F8D3
S2140069A030794369A34293D1D4F808110C31FEF72D
S2140069B091FC84F805518BE710B5436F044613B17C
S2140069C0816F007A9847D4F8F40008B137F072F86F
S2140069D0D4F8F80016F0FCFA2046BDE810404FE761
S2140069E02DE9F84306464FF0300800F114097369A4
S2140069F00BB9BDE8F883EFF3118488F31188484695
S214006A00FEF72CFC054684F31188BFF36F8F4469AC
S214006A1035F00AFC022803D1D4F8F00036F0C4FEA4
S214006A2095F824306BB100212846FEF72DFC35F092
S214006A30FBFB0228DBD16B69D3F8F00035F0C8FB0E
S214006A40D5E7AB7C0133AB742B46D4F88C2043F8E7
S214006A50302FC4F88C30237C092B06D90A23204615
S214006A6084F85030FFF7A8FFE1E7676941F2883005
S214006A707F00676136F056FA874294BF67616061AF
S214006A80204616F014FBD2E72DE9F84317681546A2
S214006A90A7F58E599846A9F11804002900F0EE8053
S214006AA05668774B9E4271D1764B97F84120D3F8C3
S214006AB00837002A5AD0002B4BD1012387F84030E4
S214006AC035F0B2FB022803D157F8400C36F06CFEC6
S214006AD002274FF00A0859F8186C8EB935F0A4FB57
S214006AE0022800F0C6802C68A4F58E54183C04F5E5
S214006AF080542946D4F8D001BDE8F84316F019B9F9
S214006B0035F092FB022803D1D6F8F00036F04CFEA2
S214006B1096F85030042B15D00BD8012B12D035F038
S214006B2083FB022803D1D6F8F00035F051FB366817
S214006B30D3E7053B032BF2D8304686F85080FFF7A4
S214006B403BFFECE70621304686F85070FEF77FFAEA
S214006B50E5E74FF000524FF20F015180012B4FF046
S214006B6000530FD04CF23C325A8009E04FF00052EE
S214006B704FF20F015180002BF0D140F20123138019
S214006B8009F0BCFC40F202221A80F9E73E4926F0E2
S214006B90FF038B4230D135F047FB0228F6B203D113
S214006BA057F8400C36F000FE314659F8180C16F02F
S214006BB00DF90646002891D035F036FB022803D1A1
S214006BC0D6F8F00036F0F0FD35F02EFB022805D1A1
S214006BD004F58054D4F8980135F0FAFA3046414668
S214006BE011F0B2FD35F020FB02287FF47CAFD6F81A
S214006BF0F00035F0EDFA76E724498B427FF477AF64
S214006C0035F012FB0228F6B203D157F8400C36F0E6
S214006C10CBFD314659F8180C16F0D8F80646002871
S214006C203FF45CAF35F000FB022803D1D6F8F00045
S214006C3036F0BAFD35F0F8FA022805D104F580548E
S214006C40D4F8980135F0C4FA96F85030073B012B7B
S214006C509CBF092386F8503035F0E6FA022803D1A7
S214006C60D6F8F00035F0B4FAD6F8F80016F0B0F919
S214006C7039E704F58054D4F89801BAE7BDE8F883FC
S214006C80EFBEADDEC80A002000BAFECA00BAEFBEEC
S214006C9070B50D46EFF31186302383F311884C69E7
S214006CA004F18C00FEF7DAFA04F1300036F026FA2A
S214006CB0D4F8080129461430FEF7DAFAD4F8082189
S214006CC0044902F12C0016F053F986F31188BFF33D
S214006CD06F8F70BDE16900002DE9F04F85B0EFF3CE
S214006CE01189302585F311884A48FDF767FB8346EE
S214006CF0DFF828A1BBF1000F06D189F31188BFF396
S214006D006F8F05B0BDE8F08FDBF8002011797F2982
S214006D104FEA91121CD8EFF3118685F31188DBF841
S214006D2014401CBB86F31188BFF36F8F89F311885C
S214006D30BFF36F8FEFF3118985F31188BAF800302F
S214006D4034480133AAF80030FDF738FB8346D1E714
S214006D50EFF3118685F31188DBF81440002C3DD143
S214006D60022ADFD15846FDF77FFBDBE79BF824803D
S214006D70B8F1000F06D000218BF824105846FEF715
S214006D8083FA1AE094F8500016F01AF808B358463A
S214006D90FDF76AFB042810D1616904F13007384614
S214006DA0C4F84C80039136F0A9F95B463846CDE925
S214006DB00088194A039936F039FED4F808319A68E3
S214006DC0002AAFD003F58053D3F8940136F072FE54
S214006DD0A8E7627B332101326273CFE7032A03D030
S214006DE05846FDF741FBE8E7A27B002A9AD000212F
S214006DF05846A173FEF748FAD4F89430002BDCD03E
S214006E0004F19400FEF72AFA012201462046FEF716
S214006E1070FAD2E7A4100020916C0000C80A002087
S214006E202DE9F84F202340244FF010084FF00209B8
S214006E30584D594F2B614FF480024FF4700157485C
S214006E400AF0DCFF2C614FF000724FF0706153487F
S214006E500AF0D4FF4FF400324FF470214F48C7F8C1
S214006E6010800AF0CBFF2246F0214D48C7F87090FC
S214006E700AF0C4FF012340F6AA624A4CDFF844A198
S214006E800025CAF80430626141F205024649DFF87F
S214006E9038B1A5600320E565E2602561E561E5643B
S214006EA0CBF84810A56525656565CBF80430CAF8AB
S214006EB00430E2600EF0FEFD4FF4E112430103F5EC
S214006EC06123B3FBF2F3394A203B02EAC303602294
S214006ED0CBF80820CAF80850E3610423A565C7F874
S214006EE0AC95CAF85C304FF44063656163614FF45B
S214006EF0A0232F4E2F4CC6F8AC85C6F8C4354FF4E9
S214006F00C023C6F8BC35D6F8AC3543EA0903C6F844
S214006F10AC35294BC6F8B8354FF48023C6F8B435DF
S214006F200BF018FB04F2945011F0BCFB04F5B160B2
S214006F3011F0B8FBB0B194F8403B9BB1D4F894354F
S214006F40072B0FD8EFF31182302181F3118804EB61
S214006F50031393F8501B09B183F8505B82F3118832
S214006F60BFF36F8F0020154BC4F8C405C4F87C052A
S214006F70C3E9010043E91100114B4FF48022C4F825
S214006F8078350123C4F8C02584F8C93584F88135DE
S214006F90BDE8F88F00D0035000E0035004C0035053
S214006FA064C0035000800550FFFF0100F8FF7F001B
S214006FB000C00350C80A0020020001008C10002008
S214006FC0020004000090055000A0055038B51B4B89
S214006FD01B4A9B6C03F0010393646BB3194C94F843
S214006FE0403B53B1D4F88805072806D804EB0013B5
S214006FF093F8503B0BB10BF00DFA0122124B1A70AE
S214007000EFF31185302383F311881048FDF7D6F986
S21400701001460F48FDF744F985F31188BFF36F8FDB
S21400702000220C490C4815F0A3FFD4F824351BB1F8
S214007030BDE83840FDF794BA38BD00BF0080055063
S21400704000A00550C80A0020E0640020EC0F0020D5
S214007050A4100020D96C0000A810002038B50D46FA
S21400706037F01AF835F070FF04462D6837F014F83C
S21400707035F06AFF031BAB42F8D938BD2DE9F74F50
S2140070809846062313704D681446A5F58052FF2ACD
S21400709007460E46DDF8309000F21B810523EDB260
S2140070A0638045F4805363600B7A9A1E012A53D896
S2140070B0A0F58E5935F0B8F80228A9F1180603D1C4
S2140070C057F8400C36F070FB294659F8180C15F0A6
S2140070D07DFE02230546237258B935F0A5F802282E
S2140070E040F0AC8006F58056D6F8980135F070F87A
S2140070F0A4E035F099F8022803D1D5F8F00036F070
S21400710053FB35F091F8022805D106F58056D6F8DF
S214007110980135F05DF895F85060304615F050FE51
S21400712030B10A2385F850302846FFF745FC0CE0BE
S214007130042E0AD109230621284685F85030FDF78B
S21400714086FF10B96B7ADB06EED435F06DF80228B0
S21400715074D1D5F8F000C9E7052B4ED1A0F58E56B0
S21400716035F062F80228A6F1180A03D157F8400C49
S21400717036F01AFB56F8180C294615F027FE02239F
S2140071800646237240B935F04FF8022856D10AF564
S214007190805ADAF89801A9E735F046F8022803D1B4
S2140071A0D6F8F00036F000FB35F03EF8022805D1A0
S2140071B00AF5805ADAF8980135F00AF896F8503051
S2140071C0012B01D0042B11D1042386F8503005235F
S2140071D0237235F029F8022803D1D6F8F00034F0EF
S2140071E0F7FFAF4B2B43C9F8003027E035F01CF80B
S2140071F0022823D1D6F8F00078E7092B62D1A0F553
S2140072008E5A35F011F80228AAF1180603D157F85D
S214007210400C36F0C9FA29465AF8180C15F0D6FD77
S214007220074690B935F000F8022805D106F58056D5
S214007230D6F8980134F0CCFF092323726388043310
S214007240C8F8003003B0BDE8F08F34F0EDFF022838
S21400725003D1D7F8F00036F0A7FA34F0E5FF02289D
S21400726005D106F58056D6F8980134F0B1FF97F8A8
S2140072705030053B032B23D8DFE803F007020E0748
S214007280082387F85030237213E00821384687F821
S2140072905010FCF785FF58B10923237234F0C4FF61
S2140072A0022803D1D7F8F00034F092FF7D4B99E71F
S2140072B0217234F0B9FF0228C0D1D7F8F00015E7E4
S2140072C00923E0E704236380002363600323A360AD
S2140072D0B4E7A5F5E062FF2A5FD84B880C2B03D0F5
S2140072E000236360032397E0D1F80890D1F80CA040
S2140072F034F09AFF022804D16B4BD3F8980136F08D
S21400730053FADFF8B0B1EDB22946DBF8000015F00D
S2140073105DFD074678B934F087FF022805D10BF5E6
S2140073208053D3F8980134F053FF0023636008239A
S21400733063800423CBE734F077FF022803D1D7F825
S214007340F00036F031FA97F85030012B0ABFC7E943
S2140073503FA94FF002094FF0000934F065FF0228FC
S21400736003D1D7F8F00034F033FF34F05DFF022885
S21400737004D14D4BD3F8980134F02AFFB9F1000F31
S214007380D3D1234645F4E06543F8045FB2685A60FB
S214007390F2689A600C23638050E740F2032295421D
S2140073A071D0B5F5017F21D2602D69D007D8042DA4
S2140073B02FD9212D37D0002363600D232CE0B5F59F
S2140073C0007F26D040F202239D42F4D1042363803E
S2140073D08B681BB3012B83D10123344AA360C2F808
S2140073E0083740F2022363600823D4E7B5F5C06F80
S2140073F021D00BD840F201339D420AD0B5F5A06FDC
S214007400D9D10B7A80F83830656037E0B5F5885FFB
S214007410D1D1002363601523A360E5E7234A6560A6
S214007420C2F80837F8E765600A89638022810B890D
S21400743020F8283C02E7CB6843611C4B8E68D3F8E3
S214007440C42B964217D8002500F11409294640F2AD
S214007450E730D3F8C8CB4FF47A720023E6FB0C0172
S2140074602BF026FD4B460146CDE90055104A07F1A4
S214007470180035F02FFD4FF4C063636004238AE7DD
S2140074808B68C360C0E708220B7A6280003B18BF97
S214007490012300226560A26080F84130CEE600BF7E
S2140074A000BAFECA00BAEFBE40750020C80A002027
S2140074B05D700000406500202DE9804800F580538F
S2140074C08346D3F8A001CBB0C3689847002843D1C1
S2140074D00BF58E53183318460493FEF7B3FD0028B9
S2140074E03AD110F05BFD0446B0BB4FF4844010F078
S2140074F0DAFB003818BF0120B14DB24B85F8CC0B33
S21400750002206B60EC61FCF7D7FEFEF73EF90BF548
S21400751080564FF0FF31D6F8940134F0B3FF96F85A
S2140075201832BBB334F080FE022803D1D6F8980197
S21400753036F03AF9DBF8004094B934F075FE0228CC
S21400754003D1D6F8980134F043FE0023049886F859
S2140075501832FEF777FD1DE0002034F02DFDFEE723
S21400756034F062FE022803D1D4F8F00036F01CF99D
S21400757094F85030022B00F08B8034F055FE022831
S21400758000F0818034F050FE022803D1D6F898012E
S21400759034F01EFED6F8A00116A903699847069097
S2140075A090B9169C96F8A4312768002B7AD105214D
S2140075B03846B7F80520FCF723FE10B13B78142BAD
S2140075C070D02046FCF750FF0BF5805797F8E8314F
S2140075D02BB10498FEF7FAF8002387F8E83197F8FD
S2140075E0103293B10323049826AA36A914F0D5FACC
S2140075F058B9BDF8983036982BB10278D7F81432BF
S2140076001344C7F81432FDF7EAFD2B7A002B00F07E
S2140076100684FEF723F92B7A002B00F00084D7F8B7
S214007620A001836998478146002840F0AE85DBF8C4
S2140076300430002B40F02D879BF8448000264446FB
S2140076400BF14007EFF31189302383F31188384696
S2140076500BF019FD89F31188BFF36F8F002840F0F7
S2140076608D87EFF31182302383F311889BF8443023
S214007670984540F28E8700238BF8443082F31188B9
S214007680BFF36F8F43E7D4F8F00034F0A1FD79E73D
S21400769034F0CAFD022803D1D4F8F00034F098FD87
S2140076A0246849E77B78B7F802A005933B799F09E1
S2140076B07F2B0393A38998BF0027002B47D1BAF1ED
S2140076C0000318BF01230893D6F8A8310A339A4559
S2140076D028BFA38134F0A8FD022803D1D6F898016C
S2140076E036F062F80599DBF8000015F06FFB0446EB
S2140076F078B334F099FD022803D1D4F8F00036F0C0
S21400770053F834F091FD022803D1D6F8980134F0EE
S2140077105FFD94F85030042B04D11FB9394620463B
S21400772011F012F894F85060304615F049FB18B185
S214007730082E38D1022F20D005230093002321469F
S214007740059AD4F80801FDF70BFE169835E00023DD
S214007750B9E734F069FD022803D1D6F8980134F071
S21400776037FD022F07D005230093002358461946FD
S214007770059AFDF7F5FD169824E7169B5C611B7FBE
S214007780B3B9039B03F00703EFF31182079230228D
S21400779082F31188D4F88C20B2B9079B83F3118842
S2140077A0BFF36F8F04E0169B17F0FD0F5C61E6D009
S2140077B0089B1698002B00F0DA80FCF755FEA6E131
S2140077C0C80A00208558000052F8302CE17B127958
S2140077D0C2F30212501C114400F0070001F007012A
S2140077E0884279D88342D8D38B42D6D80026934293
S2140077F098BF08339B1ADBB22674099335F0EAFB70
S214007800D4E90632C01A994B61EB02011A7E002AAF
S21400781067D0C4E90801400840EAC1704908C4E9D5
S2140078200A011E760520D4E90A8635F07BFB8045E2
S21400783076F100063EBF0023A062E362D4E90A3672
S2140078404FEA8308B60046EA937641F28830D4E9D8
S214007850082318EB020846EB030635F063FB4FF0EF
S2140078600009404579EB060307D3052035F05AFB9F
S214007870404579EB060938BF4046606104F13000A8
S21400788035F03CFC4FF0010804F18C069DF81830EA
S214007890099A934257D3079B83F31188BFF36F8FE0
S2140078A004F19006D4F89030002B81D0637B002B37
S2140078B03FF47EAFEFF31188302383F31188304610
S2140078C0FDF7CCFC014688F31188BFF36F8F0022CA
S2140078D02046FDF70EFDE5E78B4287D9834285D229
S2140078E05BE7D4E90838834278EB0102D4E90A2E34
S2140078F04FEA920242EA8E72B4BFC61A1E1A4FEAC6
S2140079009E0E12EB020C4EEB0E09B6081CEB020C98
S2140079104EEB09091CEB060649F10002C4E90A62AF
S2140079200726DB0843EA4873A3FB06234FEAD8087A
S21400793006FB0833C00840EA4170121843EBD10337
S214007940C4E908236EE73046FDF788FC817C59B908
S214007950FDF79AFC637B01336373E37B013BE373C0
S214007960069B0133069391E780F82480F2E7BAF18C
S214007970000F0CD04368002B3FF41FAF027F42B9C4
S214007980BAF1020F2DD80622E37A0092D7E6027FDC
S2140079907AB1E37A0092D4F808012146059AFDF7F9
S2140079A0DFFC002316980377FCF75EFDBAF1000FA4
S2140079B0E6D14FF00009169E002F40F01781ADF873
S2140079C0789026973697627AD4F80801D207E37A39
S2140079D020D50621227A00912146FDF7C1FC3046CB
S2140079E0EBE6169BAAF1020A58681FFA8AF910FA03
S2140079F08AFA9AF8012010F80930494643EA02222A
S214007A00FCF7FEFB0028D6D1002F7FF49EAE0122A5
S214007A10E37ABAE7039AC2F3021199420CD05A1ECF
S214007A208A4205D00BB9072902D00221227AD2E772
S214007A30204615F0A3F9D2E7039B1B070FD4314667
S214007A4020461EAAFDF70CFD002800F083800421C6
S214007A50E37A227A0091D4F808012146BDE7227A1B
S214007A6032B1062300930B46B6E700BFE064002061
S214007A70314620461EAAFDF7F3FC0028E7D1BDF8E4
S214007A807820032A63D9D6F804A0BAF80230043363
S214007A909A425CD1D4F8082126A9104602F58E59E0
S214007AA00392FCF7C1FC09F11809804698B926999B
S214007AB00F4647F80C9B9AF801304B739AF8003043
S214007AC0022B2ED0032B33D0039A002B39D10B7305
S214007AD0CB8104233693706848B1D4F80891FCF73C
S214007AE0B7FC09F58059D9F8A00115F043F9002331
S214007AF030467360FCF7B8FCE37A2046013303F0A7
S214007B000703E37215F03AF9B8F1000F58D034F0D5
S214007B108BFB02287FF458ADD4F8F00034F058FB05
S214007B2052E53A465146484636ABFEF701F8D2E7EC
S214007B30043100913A465146484636ABFFF79EFA66
S214007B40C9E702F58053D3F8D00115F0F2F84FF0EC
S214007B502108C0E73146BDF87830D4F8080104F1B2
S214007B608402FCF7DAFCB8B10321E37A227A0091AA
S214007B70D4F808012146FDF7F3FB3046FCF774FC09
S214007B80AB78052BC3D1D4F8FC30013BC4F8FC30ED
S214007B90EB69013BEB61BAE7D4F8F40008B135F0C5
S214007BA089FFE36D43B9E37A2046013303F0070308
S214007BB0E37215F0E3F8AAE7216E207A9847F2E719
S214007BC0DDF89880112339462046BDF8D820CDF838
S214007BD00080FEF737F9002899D0A66D002E96D0C3
S214007BE0332342463946207AB04790E7022F38D1F1
S214007BF0039BC3F30113012B7FF4F1AE73681B786C
S214007C00013B042B15D801A252F823F0217C00007A
S214007C10DF790000DF790000597C00004F7C00000F
S214007C20D4F88C30002B3FF4DAAE204615F03FFA3D
S214007C30D5E63046FCF718FC0C2604F1300035F08B
S214007C405DFA204684F85060FEF7B6FE5FE73046E1
S214007C50FCF70AFC0A26F0E73046FCF705FC0B2684
S214007C60EBE700231E932693637A9A077FF5B7AE59
S214007C70039A12F0370220D15F073FF5B0AEB38902
S214007C80BBB14B463146D4F8080104F18802FCF734
S214007C9044FC00287FF4A3AEE36E13B1216F207A74
S214007CA09847D4F8F40000283FF431AF35F002FFCF
S214007CB02DE73046FCF7D8FBEEE7042A40F09D801F
S214007CC0237A002B7FF48BAEB9F1030FD4F808218A
S214007CD0D6F804807FF683AEB8F8023004339945B0
S214007CE07FF47DAE02F58E5A104626A90AF1180AD0
S214007CF00392FCF799FB00287FF471AE269FB946E5
S214007D0049F80CAB98F801307B7398F80030022BDA
S214007D103AD0032B4DD0012B039A66D13B73042334
S214007D20FB8108231E93D5F808373BB1012B27D1DA
S214007D3036A8FDF7DFF89DF8D8300BB300233B617B
S214007D409A4B7B60DDF878800523494620460097ED
S214007D501FFA88F2FEF776F882463046FCF784FB78
S214007D60B8F1000F3FF4D3AEBAF1000F3FF4CFAE38
S214007D70666E002E3FF4CBAE33233A46494632E7D2
S214007D8001233B610023DCE7D8F80430202B09D020
S214007D905A1E032A06D923F01002402A02D0B3F551
S214007DA0007F19D14A46414650461EABFDF7C0FE3D
S214007DB0C8E7D8F80430A3F20222012A03D9212BFF
S214007DC001D0602B08D13B1D00934A4641465046E1
S214007DD01EABFFF753F9B5E70D230020C7E90403F0
S214007DE00823FB810C231E93ACE702F5805339462B
S214007DF0D3F8D00114F09DFFF1E5312A7FF4EFAD02
S214007E003046FCF731FB227A002A7FF480AE62818E
S214007E100923114620460092FEF714F877E6644ED2
S214007E207378002B3FF4FBAB012362480DF12E0262
S214007E300CA913F0B2FE002840F094810C9C6388D5
S214007E405A1E042A2BD80622DFF87C81218802FBE2
S214007E500382B2F8DC20914221D1023B032B05D8E5
S214007E60DFE813F02400350059006B01042285F882
S214007E70CD2B002285F8CE2B012285F8CF2B6FF074
S214007E807F02237985F8D02B95F8CC2B62B9012B8D
S214007E9018BF2420C5F8D10B4748FEF7BBF80C984E
S214007EA0FDF79DF9FFF7BBBB1220F3E7042385F827
S214007EB0CD3B002385F8CE3B022385F8CF3B6FF001
S214007EC07F0385F8D03B2423C5F8D13BE4E73B4A43
S214007ED0231D04F1240153F8040B8B4242F8040BD3
S214007EE0F9D111F093FA36498146F269A1F16000A2
S214007EF02CF04EFA06226388C5F8D19B02FB03825B
S214007F006FEA43436FEA5343B2F8DE20A5F8CF3B4F
S214007F10A5F8CD2BC0E795F8CC3B002B00F0FF80F2
S214007F2000211C221FA81E912CF013F8AB78261DEA
S214007F30052B02D10320FCF7BFF9334626AE03F12A
S214007F40200C324618685968083303C26345164643
S214007F50F7D11C4E402130460FF052FA98B93346FE
S214007F602EAE03F1200C324618685968083303C257
S214007F7063451646F7D116AE3246402136AB26A8E4
S214007F8011F0FCF910B34FF00109C5F8D19B062299
S214007F90638802FB03886FEA43436FEA5343B8F8EB
S214007FA0DE20A5F8CF3BA5F8CD2B75E7EFBEADDEFE
S214007FB0E0640020C411002095160020DD16002085
S214007FC0FD1600209D160020B8E50300AE4B96E88F
S214007FD0030043F8040B23F8021B1A461898090CF2
S214007FE002F8011BC3F80100BDF864109DF8663066
S214007FF09180937136AE04F1240304F1440C3246AA
S21400800018685968083303C263451646F7D19F4B74
S2140080103EAE03F1200C324618685968083303C296
S21400802063451646F7D1002301224FF4844010A979
S2140080300FF006FEA0BB109E7368D6E9081A5FEA2A
S214008040132916D1338803F4E042B2F5805F14D0CA
S214008050B2F5005F11D044F2010223F44050904282
S2140080600BD003F44F43B3F5824F06D0B3F5844FDD
S21400807003D030460FF03AFA12E0BAF1100FF8D8F3
S214008080524646A82CF084F946AB0021CAF11002ED
S21400809003EB0A002BF05DFF30460FF027FA20B105
S2140080A0502136A80EF0D6FC6DE7502110AB1EAA64
S2140080B036A811F063F90646502136A80EF0CAFC21
S2140080C016B120211EA8EDE7AB78032B03D1D5F817
S2140080D030060FF05CFE10A8FDF77DF96C4B0DA87E
S2140080E013934FF440730D93FDF77DF90D9B69498B
S2140080F0129300232022CDE9101315931EA9664B78
S21400810010A810F08FFF064620211EA80EF0A2FC35
S214008110002E7FF438AF0420FCF7CEF835E71122A6
S21400812040215E4885F8D12B85F8D23B85F8D33BB5
S21400813085F8D43B0EF08EFC29E74FF0AA334FF0BB
S214008140AA32CDE90E23042385F8CD3B002385F81B
S214008150CE3B052385F8CF3B6FF07F0385F8D03BF9
S2140081600823B1E61B280CD195F8553C002B3FF4AC
S21400817056AA4B48FDF74EFF002385F8553CFFF7FF
S2140081804EBAFDF76BFBFFF74ABADBF80C309BB92B
S214008190DBF80830002B3FF44AAAEFF311863023B1
S2140081A083F311880BF10800FDF758F8044686F3B0
S2140081B01188BFF36F8F14E0AB7803F0FB03012B3D
S2140081C0E6D1EFF31186302383F311880BF10C0010
S2140081D0FDF744F8044686F31188BFF36F8F002836
S2140081E0D6D0237C4FEA931A7F2BA36898BF4FF014
S2140081F0000ACBB9D7F8C00114F0A4FD2060A8B9D6
S214008200EFF31182302383F31188A37C0133A37428
S214008210DBF8083044F8303FCBF8084082F311888A
S214008220BFF36F8FFFF703BA4FF00009A6890EB1B0
S2140082300236B6B2BAF1000F17D133F0F5FF0228B6
S21400824004D16369D3F8F00035F0AEFA6169237C97
S214008250CA7A23F007031343237433F0E5FF02289A
S21400826003D1D1F8F00033F0B3FF217C63697F2996
S2140082700393A289A36847D8002A45D093B14FF04C
S21400828000080836B6B243E0D40A0020BD16002027
S2140082900002480500240001F81000209D1600206A
S2140082A01E17002033F0C0FF022804D1039BD3F82A
S2140082B0F00035F079FA039B93F8048133F0B4FFAD
S2140082C0022804D1039BD3F8F00033F081FF216825
S2140082D0B8F1000F18D0AB7803F0FB03012BD0D019
S2140082E0584614F028FD00232360EFF31182302354
S2140082F083F31188A37C0133A374DBF80C3044F8B5
S214008300303FCBF80C4089E7A368002BB7D19846DE
S21400831014212368627C207C9E70360A19701871BE
S2140083205A701846DE7005210393FBF75DFF039B2A
S2140083305871000A9871B8F1000F6BD0D7F8D401C5
S21400834014F000FD0646A06030B95846216814F0C7
S214008350F2FC2660FFF76BB92268137903F0070674
S21400836023F0070313716769A389387AD4F808C025
S214008370D4E900128DF8D800D7F800013890874865
S214008380D0F800E0CDF8D9E0B0F804E08079CDF878
S21400839000C08DF8DF0036A8ADF8DDE013F0EEFC87
S2140083A0804680B9D7F800310133C7F80031EB6951
S2140083B00133B3F1005FEB6105D1AB78052B02D139
S2140083C00320FBF779FF4046FDF71AF82268137979
S2140083D023F007031E431671A26850B132B10BF5A5
S2140083E080531146D3F8D40114F0A3FC0026A660EF
S2140083F0ABE717466668B4F80C80B044B0452CD19D
S214008400083217F8011BFBF7E1FEBA42F9D14FF02C
S2140084100009E081EFF31186302383F311880BF512
S2140084208053D3F8A001214643699847D0B1A37C76
S2140084300133A3742346DBF8082043F8302FCBF82B
S2140084400830B9F1000F05D05846216814F073FCC7
S2140084500023236086F31188E2E616F8011BFBF77B
S214008460B5FECBE760690028F4D0BAF1000FF1D171
S21400847021468C30FCF7FCFE6269D37B0133D37354
S2140084806469237C002BE5D134F0A4FDC4E9060121
S214008490E0E7EFF31186302383F311880BF104072E
S2140084A038460AF0F0FD044686F31188BFF36F8F56
S2140084B033F0BAFE0228A4F1040603D1D6F8F00081
S2140084C035F072F996F85030022B07D1D6F8F480C2
S2140084D03046FCF7EAFDB8F1000F15D0EFF311882F
S2140084E0302383F3118838460AF0CDFD044688F31E
S2140084F01188BFF36F8F33F097FE02283AD1D6F873
S214008500F00033F065FE35E00028E7D006F13000D5
S214008510D6F8084134F0F2FD86F8508033F084FE39
S214008520022805D104F58053D3F8980135F03CF9BC
S214008530204631460AF0AFFD33F076FE022805D11C
S21400854004F58054D4F8980133F042FED6F8F000D3
S21400855035F0D9FE30460AF057F8EFF3118630238F
S21400856083F3118838460AF08EFD044686F3118898
S214008570BFF36F8F002C9BD1FFF75EB8436806747D
S214008580013CC068984714F0FF047FF45BA8FFF72F
S21400859068B8A3EB0803DBB2FFF76EB8DB0A00206F
S2140085A030B585B004461CF0BFFC002840F00D81B5
S2140085B0032018F027FA20461CF086FC002840F01E
S2140085C005811CF0B1FC002840F0FF806FF080228F
S2140085D07F4BC4E9052301232377EFF3118530236E
S2140085E083F311880D2009F09DFD07280ABF794BFB
S2140085F04FF6FF731B8C85F31188BFF36F8F2046F1
S214008600A3801CF0BFFC002840F0E080E068002853
S21400861000F093801FF078FC57236F4CA4F8D03CF2
S21400862094F8F83C63B901250F2084F8F85C13F041
S21400863027F913F076F929464FF0FF3031F0CBFCDE
S21400864040F24B23A4F8A03CAF2384F8A53C42F2AA
S214008650FF73A4F8A63C1423D4F8040D84F8A83CB1
S21400866040F4806013F00CF9D4F8040D20F4007088
S21400867013F006F994F8A33C94F8A82C23F01903F9
S21400868084F8A33C94F8A43C642A23F0030384F8FB
S214008690A43C13D8002594F8A73C50495B004FF043
S2140086A0FF3084F8092D84F80A3D84F8085D31F01F
S2140086B0A2FC2A4629464A4814F0FAFB0F234FF438
S2140086C0007084F8D23C0AF021FD00234022CDE958
S2140086D00023D4F8C40C31F02BFE2CF04BF916F026
S2140086E0E5FC2EF044F92CF0EDFD1AF055FC1BF0DD
S2140086F0A3FA2FF00CFA2DF00CFD00220321042023
S2140087002EF026F9002303A88DF80C301CF034FE5A
S214008710032104201EF070FB0A2016F0A9FED4F8F0
S214008720B02462B1D4F8E416F1B92E4A2E4835F0DA
S2140087300FFCC4F8E40650B116E02C486AE7114670
S214008740012035F06BFBC4F8B0040028EAD1002500
S214008750D4F8B00435F0C8FDD4F8E406C4F8B05434
S21400876035F028F9C4F8E45694F8305D0DBB0123C3
S2140087700E221F4984F8303D84F80C371D482B46DE
S214008780FDF7DEF802211C4A1A48FCF7B1FF29461D
S2140087901A4A1848FCF7ACFF0521194A1548FCF799
S2140087A0A7FF0321174A1348FCF7A2FF114812F04F
S2140087B045FF17F03FF917F09FFC18F029F918F05D
S2140087C019F917F0DFFF18F027FE002005B030BDBE
S2140087D005040300E0640020C80A0020D417002027
S2140087E0EC170020B8E60300415D0000026500209B
S2140087F040650020B8110020FD4200000343000041
S214008800114300008556000000B589B068462EF07A
S21400881095F84FF4005368460093FFF7C1FE09B081
S2140088205DF804FB0000000003468288C0881144FF
S21400883081429DBF18689980801800207047A0F17B
S2140088404103052B04D83738C0B2087000207047A3
S214008850A0F16103052B01D85738F5E73038C0B2D0
S2140088600928F2D90720704770B5466804460D46B9
S21400887026B9BDE870404B68006818478B68984773
S214008880B2680146831A002BB8BF121A2B682068FC
S214008890A8BF0022BDE87040184738B50C46114600
S2140088A0E2680346944206D04568AC420BD142606B
S2140088B0FFF7DAFFE46038BD94420DD01146D26867
S2140088C0002AF9D1F6E72A460021F9E7CB68002B03
S2140088D0F0D0DB68CB60EDE70029F7D1002DE9D0BA
S2140088E0EA685A60E6E770B5466804460D467EB10B
S2140088F08B689847B368C01A002809DB20462A46CA
S2140089003146FFF7CAFF30467368BDE87040184727
S21400891029462046BDE87040A6E701490830E2E750
S21400892014EB030001491030DDE700BF20EB030025
S2140089300122024B00201A70704700BF90120020E0
S2140089400020014B1870704790120020704700F40A
S2140089504053B3F5005F04D100F44C43B3F54C4FDD
S21400896007D0B0F5804F04D380F04000C0F38010ED
S21400897070470020704700F01800102805D0A0F1BE
S214008980180358425841C00070470420704701231E
S21400899000F00700834013F0220F09D113F0880F70
S2140089A008D113F0440F14BF01200020C000704708
S2140089B0042070471020704708B54307024608D0C9
S2140089C0FFF7D9FF12F0180F0CBF05300630C0B203
S2140089D008BDFF20FCE72DE9F3470E46044608B322
S2140089E00378302B18D1437803F0DF03582B13D1CC
S2140089F00127023400224FF0993915464FF00A0835
S214008A00DFF870A020784FB10DF10701FFF717FFD0
S214008A10A8B102B0BDE8F0870027EBE73038C0B257
S214008A20092801D90720F4E791457AEB05038DF86C
S214008A300700F7D3A2FB082308FB053306E0B5F1D1
S214008A40805FEFD22B0143EA127312019DF80710E4
S214008A500020891853F1000328BF01200A461D464E
S214008A600028DFD114F8010F0028CBD1C6E9001387
S214008A70CFE700BF9999991913B50C466946FFF7D9
S214008A80AAFF48B94FF0FF32009B9A42019A70EB5A
S214008A90020234BF0720236002B010BD10B5C388A1
S214008AA002895C1C944297BF02680620D35C0B7058
S214008AB09FBFC3880133C380002010BD13B50C468A
S214008AC00DF10701FFF7EAFF28B99DF8073023B13B
S214008AD0012B04D1237002B010BD0346FAE706202E
S214008AE0F9E713B50C460DF10701FFF7D7FF10B9EC
S214008AF09DF80730237002B010BD10B5C3880289F8
S214008B009C1C94420BD80268D4186478D35C43EA61
S214008B1004230B80C3880233C380002010BD0620C8
S214008B20FCE770B5C4880389221D9A4211D80568EF
S214008B302A19937856782C5D1B04D27843EA0623CC
S214008B40234343EA02630B60C3880433C3800020D8
S214008B5070BD0620FCE770B5C288038902F10804E0
S214008B609C421CD80568AC18A3786678AA5C1B04DF
S214008B7043EA06231343E278657943EA02632279DF
S214008B8042EA0522A579E47942EA054242EA04620D
S214008B90C1E90032C3880833C380002070BD0620B8
S214008BA0FCE7F0B50024C288036807899E182346B0
S214008BB0BF1A9F42C3EBC30E12D0052B10D016F877
S214008BC003C001330CF07F0505FA0EF51CF0800F8C
S214008BD044EA0504EDD11A44C28000200C6000E08F
S214008BE00620F0BD30B5C4880389A5189D42D7BFBE
S214008BF0036806201B190B60DFBFC388D218C2802B
S214008C00002030BDF7B50E460DF1060105461446A8
S214008C10FFF773FF40B9BDF8067031463A4628465E
S214008C20FFF7E0FF00B9278003B0F0BD1C282ED860
S214008C30DFE800F00F3011132D1517192D2D2D2DEF
S214008C401B1D1F212D2D2D272D2D2D25232D2D29A7
S214008C502B00002070470E2070470B2070470C201A
S214008C607047092070470320704702207047042091
S214008C707047112070471220704713207047142049
S214008C80704716207047172070471820704700F569
S214008C908040704701207047F7B50446002501273D
S214008CA000F19006B4F89620B4F898309A4204D1B1
S214008CB00020C4F8B05003B0F0BD30460DF10701F7
S214008CC0FFF7ECFE0028F6D19DF807301F2B03D8DF
S214008CD007FA03F31D43E5E70720ECE700F1B401CC
S214008CE090300AE70C207047002307B590300DF14E
S214008CF007018DF80730FFF7F4FE18B99DF8072036
S214008D00024B1A7003B05DF804FB00BF60770020CA
S214008D1007B590300DF10701FFF7E3FE002808BF06
S214008D200C2003B05DF804FB07B590300DF106018A
S214008D30FFF7E3FE002808BF0C2003B05DF804FB35
S214008D40FEE7FEE707B590300DF10701FFF7B6FE28
S214008D5028B99DF807300BB9024A5370012003B0BA
S214008D605DF804FB60770020F0B504460C26002072
S214008D70013A82420DD870430A1809588B4215BF33
S214008D800023D2E90101C4E90033C4E9000120460A
S214008D90F0BD15186D0806FB05F7CF599F422CBF8E
S214008DA02A46681CE5E7074B1A68002352F8041F9A
S214008DB0884201D1D8B270470133042BF6D1002087
S214008DC0704700BF501C002013B504460DF1060185
S214008DD09030FFF792FE50B923689A6C4AB1BDF8FE
S214008DE00620B3F86010914201D0A3F8602002B0CC
S214008DF010BD0D20FBE713B504460DF107019030BA
S214008E00FFF74CFE50B99DF8073003F0030304EB60
S214008E1083046368002B14BF23200C2002B010BD0F
S214008E20014B1868704700BF8C1600204FF0FF30CB
S214008E30704710B5044600B9FEE7037F1BB14369CF
S214008E4098470023237710BD094A091A891030B5C0
S214008E5051430346002224258A4205FB023005D0F2
S214008E600BB1046A04B130BD0132F5E70020FAE721
S214008E70398EE338014B5B69184700BF501C002051
S214008E8037B5002300220446CDE90023FFF7F2FFA2
S214008E906946054604F19000FFF75DFE60B9DDE91E
S214008EA00032AB4272F1000108D35B1B62F1000294
S214008EB0C4F89839C4F89C2903B030BD0720FBE7F6
S214008EC010B5EFF31184302383F311881E22084B6C
S214008ED0C31ADB10B3FBF2F32420064ADBB200FB16
S214008EE00320FFF7A6FF84F31188BFF36F8F10BD32
S214008EF0A0120020541C0020014BDB6D184700BF59
S214008F00501C002010B5EFF31184302383F3118832
S214008F101E22084BC31ADB10B3FBF2F32420064ACA
S214008F20DBB200FB0320FFF784FF84F31188BFF356
S214008F306F8F10BDA01200209C1C002070B50D463F
S214008F400668EFF31182302181F311880021046A4C
S214008F50016282F31188BFF36F8F002C00DC70BDB6
S214008F603046013CA847F8E7FEE70139013811F81A
S214008F70012F10F8013F3AB9002B14BF0120022040
S214008F80831E5842584170479A42F0D00020F7E7B7
S214008F902DE9F341044601A99030FFF702FE60BBBD
S214008FA0034606460125DDF804E0154991F80880D9
S214008FB0B8F1000F19D00A68964516D1A3F1200221
S214008FC0C3F1200625FA06F605FA02F2324305FA40
S214008FD003FCD4E9367627EA0C0726EA0206C4E93B
S214008FE03676BEF1000F08D1464601331F2B01F13D
S214008FF00C01DBD1002E08BF072002B0BDE8F081CF
S2140090002CEB03002DE9F341044601A99030FFF74D
S214009010C8FD98BB034605464FF0010CDDF804E09A
S214009020184991F80880B8F1000F1FD00A689645D5
S2140090301CD1D4E93676A3F12002C3F120052CFA20
S21400904005F50CFA02F22A430CFA03F52F431643F1
S214009050C4E93676D4E9347627EA050726EA020616
S214009060C4E93476BEF1000F08D1454601331F2B04
S21400907001F10C01D5D1002D08BF072002B0BDE8D4
S214009080F08100BF2CEB03000EB4034617B505A90C
S21400909051F8040B5C6901910CB19A69A04703B0C2
S2140090A0BDE8104003B0704770B501290546144668
S2140090B0C2B006D112681649FFF7E6FF002042B09C
S2140090C070BD022921D113491068FFF74EFFE0B1A9
S2140090D0606801A9FFF7D0FC0028F0D1019902AC26
S2140090E0FF2928BFFF2122460A26884204D10023F2
S2140090F0074913542846DFE7B0FBF6F306FB1303D5
S214009100303304F8013B0130EFE70720D7E700BF14
S21400911020E9030030E70300054B93F8A020D3F8BE
S2140091209C0042F0010283F8A02034F0C3BC00BFCC
S214009130501C002070B5044600B9FEE7038B428B36
S2140091409A420CD90022013303830277D0E90253F6
S21400915098472B4601462046BDE870401847036AEC
S21400916001330362FFF765FEBDE87040D4E72DE9E2
S214009170F8430D461446064600B9FEE7FFF759FECB
S2140091803369984700272D1947EB07032C1A63F11C
S2140091900005012C75F1000308DA336A3046013306
S2140091A03362FFF746FEBDE8F843B5E7D6E902832B
S2140091B09847A04277EB05031CD2F36898473B46D6
S2140091C002462946204629F073FEF36891469847E2
S2140091D03B4602462946204629F06AFE4C4683B2A4
S2140091E000227383214630463283C04701233377FB
S2140091F0BDE8F8833B46F3E70D4B70B5C31A04464B
S2140092001E20DB10B3FBF0F32420DBB24343094DF2
S214009210EE58E81806B9EC50EFF31184302383F3C8
S2140092201188FFF7A4FF84F31188BFF36F8F70BD1A
S214009230A0120020541C00200D4B70B5C31A044623
S2140092401E20DB10B3FBF0F32420DBB24343094DB2
S214009250EE58E81806B9EC50EFF31184302383F388
S2140092601188FFF784FF84F31188BFF36F8F70BDFA
S214009270A01200209C1C00204EE708B513468288EA
S214009280232A05D90A46006801210FF088FA00B1A2
S214009290FEE708BD012937B502D0072003B030BD70
S2140092A010680028F9D0037869462D2B0ED10130BE
S2140092B0FFF791FB03460028F0D14FF00042009CD8
S2140092C0A242019A9341E8D364420DE02B2B08BFDB
S2140092D00130FFF780FB0028E0D1009C019BB4F131
S2140092E0004F73F10003D8D204F18003FF2BD4D8CB
S2140092F0064D04EB84014900D5F8B00009B221F010
S21400930057FC00B1FEE785F8B440C7E7501C0020C4
S214009310012B08B50DD0022B15D0D3B98A4237BF22
S2140093204368511A5B1A01683CBF521AD11888B2BA
S21400933008BD8A4289BF4368891A9B1A026884BF9F
S214009340891AC918F3E7C721034B044A044814F0E6
S21400935011F90021EBE700BF33E7030039E703000C
S21400936093E703000368006E93F8441012F021BBE5
S214009370034B006E1978490001F0FE0112F019BB8C
S214009380801400203221006E12F013BBAF21006E55
S21400939012F00FBBF8B505460E460024012707FA63
S2140093A004F3334204D10134202CF8D10020F8BD58
S2140093B0286EE1B212F0FDFA0028F4D0F7E7D0F8F4
S2140093C0B010E7E70049E5E700F8FF070049E1E7E6
S2140093D000F8FF070368996C41B190F871390344AF
S2140093E093F97619013118BF01214900006E12F079
S2140093F0E0BA0346002110B400F1100253F8044FFF
S2140094000CB10131C9B29342F8D1006E5DF8044B3D
S21400941012F0CFBA0021006E12F0CBBA0421006E13
S21400942012F0C7BA90F8E010006E12F0C2BA9C2193
S214009430006E12F0BEBA0221006E12F0BABA2320F5
S21400944070477F290B46F7B51ED9B1F5804F1DD35F
S214009450B1F5001F1CD3B1F1805F2CBF052204229A
S2140094606E4600243146571EBC42DDB212D104F1CE
S21400947008030DEB030405F07F0504F8085C00689C
S21400948012F07CFA03B0F0BD0122E9E70222E7E71A
S2140094900322E5E765F07F0506F8015BDB0901348A
S2140094A0E2E72DE9F0470568044695F81C900E465D
S2140094B0B9F1020F25D0AB6AD0F82C80984523D19D
S2140094C04B464146EA6A2846FFF722FFD4F828A012
S2140094D007464B46524641462846FFF719FF874245
S2140094E012D9C5F82CA094F825300021204684F81F
S2140094F02430FFF7A6FF28B931462046BDE8F047DE
S2140095009FE70D20BDE8F0870720FBE702216030CB
S214009510C7E7024B006E197812F04BBA607700204E
S214009520024608B50C20FFF781FBBDE8084001465F
S21400953002F16000B5E7D0F8AC10603081E710B5F6
S21400954000F1600404212046FFF77BFF20B9204687
S214009550BDE81040032174E710BD0321603070E7BA
S214009560002160306DE710B500F16004052120464B
S214009570FFF767FF40BB0C212046FFF762FF18BBD2
S21400958018212046FFF75DFFF0B922212046FFF79D
S21400959058FFC8B940F201212046FFF752FF98B99C
S2140095A040212046FFF74DFF70B941212046FFF7C6
S2140095B048FF48B942212046FFF743FF20B920461E
S2140095C0BDE8104043213CE710BD0B21603038E772
S2140095D00421603035E750F8603BB3F8581041F08E
S2140095E034012EE713B50446684610F001FD082244
S2140095F06946206E12F0C2F902B010BD016808225A
S214009600006E623112F0BAB90368006E996C0039C8
S21400961018BF012112F0B0B990F87139034493F8DD
S2140096206A19006E12F0A8B90021006E12F0A4B9F3
S21400963090F87139034493F87A19006E12F09CB9C9
S21400964010B5064B0446D3F8B00021F0D1FAC1B2EB
S214009650206EBDE8104012F0ACB900BF501C0020D0
S21400966010B533F0B7FC124B8342124B8B411DD31F
S214009670114B1A68D2B14FF47A74A0FB040304FBB2
S2140096800131531E13420DD1B2FA82F2C2F11F0409
S214009690531CD243E04001FA03F3184321FA02F2C6
S2140096A0104310BD002329F003FCFAE7FEE700BFD5
S2140096B0EFA7C64B378941009016002007B50A462B
S2140096C000B9FEE7037F03B1FEE7074B0190009366
S2140096D0416801234FF0FF3030F082FC00B1FEE716
S2140096E003B05DF804FB00BF53E003004FF0FF300B
S2140096F031F08EB800B9FEE741684FF0FF3030F029
S2140097007ABC10B5124B1B78EBB1F1B11468114955
S21400971020462AF074FE014670B90F4BD3F8B0000D
S21400972031F01FF910B90024204610BD012421464F
S2140097300A480EF0ADFEF7E7204609492AF05FFE1C
S21400974018B90121E9E70D24F1E70724EFE700BF88
S214009750901200202AE80300501C002039E803007D
S21400976031E8030010B50F4B1B7893B1B9B11468FC
S2140097700D4920462AF043FE20B912F0E7F80024EF
S214009780204610BD204609492AF039FE38B9012086
S214009790F3E70D24214606480EF07AFEF0E707248C
S2140097A0F8E700BF901200202AE8030031E8030023
S2140097B039E8030037B5094D04460DF10601D5F822
S2140097C0B00030F011FE38B9034622469DF8061068
S2140097D0D5F8B00020F06EFB03B030BD501C002062
S2140097E01FB50023CDE901330393FF230C4C8DF8FE
S2140097F00430D4F8B00030F02DFC70B90DF1020141
S214009800D4F8B00030F0F0FD9DF80210D4F8B000A7
S21400981001AA30F066FC00B1FEE704B010BD00BF40
S214009820501C002010B5A9B114680B492046FFF75C
S2140098309CFB38B10020FFF7BDFF08B1012010BD2A
S2140098400020FCE720460549FFF78FFB10B1FFF725
S214009850C7FFF2E70720F2E74EE8030054E80300EC
S21400986010B5A1B114680B492046FFF77EFB30B156
S2140098700120FFF79FFF003818BF012010BD2046CB
S2140098800549FFF772FB10B1FFF7AAFFF3E70720C1
S214009890F4E700BF4EE8030054E8030008B5054BA4
S2140098A0D3F8B00020F0EEFA00F00300C31E5842D2
S2140098B0584108BD501C002038B51E230E4C0D46DE
