S02200006275696C642F64656275672F736C656570792D64656D6F2D6674642E7333378E
S315080060000814002035C304081D85000821850008EA
S31508006010F1F20408258500082D85000839C304080F
S3150800602039C3040839C3040839C3040839C3040842
S3150800603031850008E0B1050839C3040839C30408E6
S315080060405932020839C3040839C3040839C3040895
S3150800605039C3040839C3040839C3040839C3040812
S3150800606039C3040839C3040839C30408F502030808
S31508006070C53D050839C3040839C3040839C30408EB
S3150800608039C3040839C3040839C3040839C30408E2
S3150800609039C304082D9E020839C3040839C3040805
S315080060A039C30408553802083538020839C30408C4
S315080060B039C304086D730308697C03080151050890
S315080060C0FD500508B573030817510508055105085D
S315080060D0397C0308095105084D860308A97C03087D
S315080060E039C3040839C3040839C3040839C3040882
S315080060F039C3040839C3040839C3040839C3040872
S3150800610039C3040839C3040839C3040839C3040861
S3150800611039C3040839C3040839C3040839C3040851
S3150800612039C3040839C3040839C3040839C3040841
S3150800613039C3040839C3040839C3040839C3040831
S3150800614039C3040839C3040839C304084566050871
S31508006150E55F030839C30408115E0308455E0308B2
S3150800616039C3040839C3040839C3040839C3040801
S31508006180F0B5114A114C124E00F00105E3695F079C
S3150800619013D40DB9334213D103EA00078F4207D14E
S315080061A00B4A1A40002A14BF6FF001000020F0BD08
S315080061B0013AEBD16FF00200F9E74FF0FF30F6E74E
S315080061C06FF00100F3E700BF8096980000000350C7
S315080061D0020001000B4B70B5D96911F480310DD15D
S315080061E001244FF48072084E084DF46020462C6452
S315080061F01A61FFF7C5FF3464EC6070BD6FF00100EB
S31508006200FBE700BF000003500010035000200350B6
S315080062104FF4803238B50E4B0E4C9A66E56941F656
S31508006220713315400122E3630B4B0021DA60022328
S31508006230606121202361FFF7A3FF10B92120FFF732
S315080062409FFF0122054BDA600DB10023E36338BDD9
S315080062500090005000000350001003500020035027
S3150800626070B5134C6061E3695B071ED40E4656F899
S31508006270043B8D18A361AE420BD1042300212120D3
S315080062802361FFF77DFF58B9BDE870402120FFF76D
S3150800629077BF08210846FFF773FF10B1042323616F
S315080062A070BD56F8043BA361E5E74FF0FF30F7E70A
S315080062B0000003502DE9F84316464FF48032184B78
S315080062C089469A6603F51C33DA69074602F480386C
S315080062D041F67132DA63012203F58053114DDA6013
S315080062E066B930460122104BDA60B8F1000F03D0C8
S315080062F00022A3F50053DA63BDE8F88307F50054D6
S315080063002C40E41BB44228BF344649462246384648
S31508006310FFF7A6FF0028E5D12744A144361BDFE78F
S315080063200090005000E0FFFF00200350000000002E
S31508006330000000000000000000000000000000004F
S31508006340013800D0FCE7704773B532F0BFFD04464C
S3150800635000286ED13A4B01AE1A889B78ADF8042016
S31508006360B37000F0F7FC01F043FA01F0A1F9054615
S31508006370344B036001F012FC284601F02FFB00B9EC
S31508006380FEE72DA3D3E900234FF0FF314FF0FF308E
S3150800639000F0E8FC01F090F9214601F0E9F932F045
S315080063A098FD304601F0DCFA044600B1FEE7264BBC
S315080063B0264A98801860264B98801A60254B264AEC
S315080063C098621A60254A98806FF06300DA6002F0D6
S315080063D029FE0B2001F0BEF901F01CFA01F062F962
S315080063E000B9FEE724F096FE204632F031FF082178
S315080063F0084632F032FF00B1FEE732F027FF01F01F
S31508006400A7F832F072FE1021154848F0BAFF00B915
S31508006410FEE71449124848F0C6FF00B9FEE7102106
S315080064208C20114A24F04EFB00B1FEE70F4834F0E9
S315080064307EF902B070BD00BF0AE020FF220200000C
S31508006440369D05088390030888140020D46C002024
S315080064505814002028140020546C0020181400201A
S315080064602C5500203D6005081C550020EC660508E3
S315080064702DE9F74F98460023DFF8B0B00746834565
S315080064808B41894615463ED226A3D3E900232AF036
S315080064906FF81F4914460246284636F0ECFD1D499A
S315080064A04EF66023B4FBF1F201FB1246B6FBF3FA93
S315080064B0002003FB1A664FF47A73BB4570EB09009C
S315080064C0B6FBF3F304D38C4202D218F0020F05D1BF
S315080064D028461149019336F0CEFD019B52462846BF
S315080064E00E4936F0C8FD18F0010F0ED04FF47A7336
S315080064F0B6FBF3F2284603FB1262094903B0BDE86E
S31508006500F04F36F0B8BD0446C9E703B0BDE8F08FD2
S31508006510CF90050880EE3600D5900508DB90050873
S31508006520E5900508005C260500000000FF5B2605CF
S315080065300348044B834202D0034B03B11847704704
S31508006540347900203479002000000000064B074902
S31508006550C91A891048BF0131491003D0044B0BB141
S3150800656001481847704700BF347900203479002065
S315080065700000000010B5064C237843B9FFF7D8FF92
S31508006580044B13B10448AFF300800123237010BDF8
S31508006590B66B0020000000001C01060808B5054B74
S315080065A01BB105490548AFF30080BDE80840FFF771
S315080065B0CDBF00BF00000000705400201C01060873
S315080065C0A3F5803A704700BF174B002B08BF134B43
S315080065D09D46FFF7F5FF00218B460F461348144AE0
S315080065E0121A4DF0BBFC0E4B002B00D098470D4BF2
S315080065F0002B00D098470020002104000D000D480C
S31508006600002802D00C48AFF300802AF0F3FA2000E5
S3150800661029004DF0E0FB2AF089F900BF00000800C8
S3150800662000000000000000000814002008140020E4
S31508006630407500200000000000000000094B091A00
S31508006640891030B559430246002324258B4205FBA1
S31508006650032004D0046A04B130BD0133F6E70020F4
S31508006660FAE700BF398EE33807B50A4600B9FEE7F0
S31508006670037F03B1FEE7074B0190009341680123AE
S315080066804FF0FF304DF0DAFE00B1FEE703B05DF8DB
S3150800669004FB00BF3160050830B5044685B00846DE
S315080066A004B9FEE7237F03B1FEE703A965684FF047
S315080066B071FB48B90123064ACDE90003039923462D
S315080066C028464FF079FF00B1FEE705B030BD00BFA0
S315080066D03760050838B5174D174C20220021284683
S315080066E04DF03CFC1822002120464DF037FC0021D5
S315080066F000200022114BC3E90001114B11491A77FA
S31508006700996011491A62D9601049C3E900251961CF
S315080067100F499A6159610F4B0F499A6199600F4960
S315080067201A77D9600E49C3E9002419610D491A621E
S31508006730596138BDF0540020D854002008140020B0
S31508006740B454002099660008AF86030889860308B2
S31508006750B38603089054002069660008A1860308DA
S31508006760A7860308F7860308154910B5A1F1240082
S31508006770FFF764FFA0B11249A1F12400FFF75EFFFD
S315080067800446A8B90F49A1F12400FFF757FF0446AC
S3150800679068B120460C4931F091FF20460949F4E7D3
S315080067A00849A1F12400FFF749FF0028E3D110BDED
S315080067B02046064931F082FF20460149DEE700BF40
S315080067C0D8540020B454002029F20008E1F100084A
S315080067D0014B1B69184700BFB45400202DE9F84344
S315080067E00C461546804632F027FD24234343104ABB
S315080067F0D1589F1809B942F80380002314EB0509FC
S31508006800404643EB030632F017FD0A4B03EBC00282
S3150800681043F8309056604FF07DFC06462A463846C7
S31508006820214631F08DFF3046BDE8F8434FF06DBC88
S31508006830B45400200814002038B505464FF06AFC09
S315080068400446284632F0F8FC2422054B02FB0030A9
S3150800685031F046FF2046BDE838404FF056BC00BF31
S31508006860B4540020014B1B69184700BF9054002000
S3150800687070B54FF042FC05464FF0FF304DF0A8FFCB
S31508006880044608490B6808608342074B284682BFBE
S315080068901A6801321A601E684FF02AFC20463146F3
S315080068A070BD00BF8C54002088540020F8B50D46F2
S315080068B01646044632F0C0FC24234343084AD158FE
S315080068C09F1801B9D4504FF025FC04463246384685
S315080068D0294631F035FF2046BDE8F8404FF015BC93
S315080068E09054002038B505464FF014FC0446284657
S315080068F032F0A2FC2422054B02FB003031F0F0FEF8
S315080069002046BDE838404FF000BC00BF9054002038
S3150800691030B589B047F0F4F8012820D1114C124D52
S315080069200021182202A84DF019FB204602A945F0BD
S315080069301FFC88B9039B1B0A012B0DD0BDF8083034
S31508006940B3F5885F08D040F20113204601AA02A9D0
S31508006950019403931CF0CEFC0134AC42E0D109B09B
S3150800696030BD00BF01000200080002002DE9F04713
S315080069700E46DCB00746DDE965599246002120221D
S3150800698004A81C469DF890814DF0E8FA032E6AD1BA
S315080069900CA84BF03AF9022026F0F8FC01460CA8A0
S315080069A026F000FD0346002859D1334A2946CDE989
S315080069B0000202905FFA89F20CA827F08BF80546C8
S315080069C000284ED1A0220CA934A84DF012FB34A8F9
S315080069D04BF030F9023802288CBF28463598202318
S315080069E004AA34A9349526F081F9051E18BF012595
S315080069F00CA84BF00FF9002D39D14FF0200904AD42
S31508006A001E4B33F81610BAF1040F96BF1C4B002222
S31508006A1053F82A2004F00103A60748BF43F48073FD
S31508006A20660748BF43F40073260748BF43F48053FC
S31508006A30E60648BF43F40053A60608F1FF3448BFEC
S31508006A4043F48043604260410090CDE901593846DD
S31508006A5045F036FB5CB0BDE8F04731F0D4BE012501
S31508006A60C6E70625C4E7042ECAD90021CBE728467F
S31508006A705CB0BDE8F08700BF973B0508BC66050813
S31508006A80A866050808B5134660B1006850B14AB152
S31508006A9041B10A460068044945F072FBBDE8084062
S31508006AA031F0B1BE072008BD0044400408B540B126
S31508006AB0006830B1044945F09EFBBDE8084031F056
S31508006AC0A2BE072008BD00BF090000021FB50123AA
S31508006AD04FF480720390CDE9003247F212114FF459
S31508006AE04053044A03A845F016FB31F08CFE05B066
S31508006AF05DF804FBFF0600067FB513460A4681B11A
S31508006B007BB10121039105A902914021CDE900310C
S31508006B102023064945F094FB07B05DF804EB31F0F5
S31508006B2072BE072007B05DF804FB00BF0906000621
S31508006B302DE9F04F00244FF4804B41F2010AADF5E0
S31508006B400B7DDFF82491CDE90223BDF854824FF47A
S31508006B50E072CDE9000121461AA80494059406942A
S31508006B604DF0FCF949461AA828F064FC41461AA8D3
S31508006B704CF0C9F82346949A40F205211AA828F041
S31508006B808FFC14AC08A831F02AFE2046CDF850B088
S31508006B9031F02DFEDDE90212149B05AE0A9308A812
S31508006BA03346CDF82C90ADF820A027F0C7FC059AFF
S31508006BB040F202211AA84CF069F90EA831F00FFE2E
S31508006BC02046CDF850B031F012FEDDE90012149BD4
S31508006BD004AD109341F203230EA8ADF838302B46C6
S31508006BE0CDF8449027F0AAFC4FF48171049A1AA8AC
S31508006BF04CF04CF9204631F0F2FD4FF6FF724FEAA1
S31508006C00C803B8F5005FA8BF1346ADF85230012394
S31508006C100DF11C094846079331F0E9FD079B06AFBD
S31508006C201693104B3A461AA920461793ADF850A06A
S31508006C3028F0F4FB4B464246969906984BF017FC0B
S31508006C4031F0E1FD044606984BF0A6FB05984BF09B
S31508006C50A3FB04984BF0A0FB20460DF50B7DBDE881
S31508006C60F08F00BF0010C00400028008064B10B564
S31508006C701A783AB100241C7032F0C7FB32F0A7FB31
S31508006C80204610BD0D20FCE7B86B0020012337B560
S31508006C9000250F4C019523702378A3B1802229463D
S31508006CA00C484DF05BF90C4880220A49006801AB94
S31508006CB047F067FD257020B9BDF80410054802F0B5
S31508006CC0B5F832F084FB03B0BDE83040FFF7CEBF1D
S31508006CD0B76B0020B96B00205078002070B50D46C0
S31508006CE0044698B191B10A4E33780BB1FFF7BEFF4F
S31508006CF0084B21462A46186847F032FD012408B990
S31508006D003470044632F063FB204670BD0124FBE76D
S31508006D10B86B00205078002008B51FF005FE034B1D
S31508006D201860BDE8084046F0CFB900BF10550020EE
S31508006D3001484EF01FBA00BF40000100002101487B
S31508006D404EF004BA0A000100002101484EF0FEB9CF
S31508006D506000010000200021014BC3E900017047D3
S31508006D60101400202DE9F04F144C9B46D4E9006519
S31508006D7085EA030786EA020808EA00080F4058EA87
S31508006D8007038246894685B014D0039200F084FC36
S31508006D9080B1039A4B46CDE9002B52464DF0EBFBEA
S31508006DA0014610B1064833F0BFFC86EA08067D4066
S31508006DB0C4E9006505B0BDE8F08F00BF10140020D7
S31508006DC0C666050870B50C46064632F037FA05461B
S31508006DD002462146064833F0AAFC2146304601F011
S31508006DE047FA2946204600F083FD00B1FEE770BD4C
S31508006DF0F866050870B586B00E4632F01FFA0546E5
S31508006E00114B06F1080403EBC00314F8012DB44234
S31508006E1003F8012BF9D1059523780C480493637878
S31508006E200393A3780293E378019323790093E17996
S31508006E306379A27933F07BFC2946204600F060FD91
S31508006E4000B1FEE706B070BD4A6C00200A67050867
S31508006E5038B50C4632F0F2F9054602462146054891
S31508006E6033F065FC2946204600F052FD00B1FEE7E6
S31508006E7038BD00BF2C67050808B532F0F2F910B91D
S31508006E80024833F054FC002008BD00BF42670508DD
S31508006E9008B532F0E6F920B1034833F048FC002083
S31508006EA008BD0D20FCE700BF5D67050838B5044638
S31508006EB00D4631F0FCFF10B10D24204638BD2046A2
S31508006EC000F062FB0028F7D1204600F075FE014667
S31508006ED0284600F0B3FC04460028EED1284600F008
S31508006EE0EFFB044630B931F0E5FF034B9D71034BC8
S31508006EF09D71E2E70124E0E7881400205814002079
S31508006F00F0B589B00D4617461E4600F055FE0446F4
S31508006F10FFF70EFF20BB2146284600F08FFC0446EB
S31508006F20C0B9012031F0C6FFFF238DF804300123D4
S31508006F30284601AA04A90794CDE9024405948DF8C8
S31508006F401C300497069600F03FFD30B9054B9D713D
S31508006F50054B9D71204609B0F0BD204631F0AAFFC9
S31508006F600124F7E7881400205814002000487047C9
S31508006F70281400207F2337B58DF80730084B0446C0
S31508006F809D7931F094FF30B91022294620460DF13B
S31508006F90070300F009FB9DF9070003B030BD00BFE9
S31508006FA088140020F0B589B031F081FF00B9FEE7FA
S31508006FB0354C236803B9FEE7012200279B88114652
S31508006FC00DF10B008DF80B3000F086FC9DF80B10C8
S31508006FD0236802390022186889B200F07DFC2B4B21
S31508006FE0059706932368079793F82C2005AE8DF826
S31508006FF014201B681D78C5F3401531F05FFF38B1C2
S3150800700000F014FC384631F055FF384631F059FF88
S3150800701022685369FBB931F06DFF2368A8B11C4F8C
S315080070201B7EBB7000F0FCFBF870206833463A46BE
S315080070302946807900F032FC18B34FF480510020BD
S315080070404FF013F832F0C3F91BE032462946987917
S3150800705000F01AFCF0E70021049111690D480B4471
S315080070609621A3F59B738180039390792946094B52
S31508007070009603AA00F020FC0028DED1012031F09A
S3150800708044FF09B0F0BD00BF1855002020A1070035
S31508007090CC770020C07700202DE9F84F05460E462C
S315080070A000F08AFD0746284632F0C6F800B1FEE72A
S315080070B0404CA64200D0FEE732683F4B9A4200D0C9
S315080070C0FEE7237F9A070DD4642384F82C303946CB
S315080070D0A07900F0B3FB0746002868D131F0E7FE37
S315080070E068B1FEE794F82C30022B01D85023ECE760
S315080070F0023BDBB24F2B84F82C30F7D9E7E731F0A7
S315080071000DFF207F2D4EC0F38000A562346031F05C
S31508007110F4FE217F2846C1F3C00100F019F928467C
S3150800712000F046F978B13468636963B94FF0FF3007
S315080071304DF04EFB40F6B8323368206101212846EF
S315080071405A6100F005F93368D3F82880D3E9049A20
S31508007150404600F02DF9A0B1D6F800B09BF81C30D7
S31508007160DB070ED4404600F023F909EB0A01044672
S31508007170A031404600F022F9A1B20246584632F044
S315080071800AFA3068816A00F053FD4EF0C3FF0446E0
S31508007190012031F0A4FEFFF705FF20464EF0B5FFAB
S315080071A031F0DCFE18B1284602493DF064F938464C
S315080071B0BDE8F88F28140020546C002018550020CC
S315080071C02DE9F04106464C4F4C4848F041F930B39A
S315080071D04FF4F8504DF0CEFFE0B131F0A4FE484F21
S315080071E0054600286DD03B6800201B68454D1B7876
S315080071F0002413F0200F08BF002531F098FE002365
S3150800720039682A46C1E90433886A23463DF03CF9C1
S3150800721032F0DDF83046BDE8F04100F02BBA3870A0
S31508007220364848F0FAF8044600B9FEE7364D037BBF
S31508007230EA7DC3F3800363F34102EA75037B03F037
S31508007240FB030373EA7DDB0963F30002EA75037B3C
S3150800725003F07F0303734378AB71034613F80C2BD3
S31508007260AA802B6090F90330284A6B7513708378CF
S31508007270274AAB7513704368D0F80880AB62FFF7EE
S31508007280F7FA804528BF01F1FF31C5E9028106B941
S31508007290FEE7304600F0C4FD2875304600F0CAFD0A
S315080072A02861194832F062F820B930463A7816490A
S315080072B03DF0D8F82146174847F0F1FE32F087F836
S315080072C082E731F039FE044648B1284631F038FEE7
S315080072D00F242146104833F02DFA00258FE731F0A8
S315080072E034FE20B1204631F034FE0E24F1E731F0A9
S315080072F039FE0B24EDE700BFD36C00202C55002087
S31508007300185500205814002088140020526C0020BC
S31508007310536C00201C5500209A670508122208B5F0
S31508007320002104484CF01AFE4FF6FE73014A22F873
S31508007330023C08BD7A550020044B19802AB1116811
S31508007340C3F802105168C3F8061070477855002034
S31508007350014B9972704700BF785500201FB5084643
S3150800736001A932F0EDF8E8B99DF80C30012B04D0EC
S31508007370022B0ED005B05DF804FB4FF6FD720A4BE2
S315080073801B889342F6D8BDF80400C31A58425841E0
S31508007390F0E70822054901A84CF0B7FDB0FA80F0DD
S315080073A04009E7E70020E5E7785500207A550020F0
S315080073B0014BD868704700BF7855002038B5A02320
S315080073C00D4DEC685C4311B9FFF74CFA01462B6981
S315080073D0B3FBF4F204FB1233B1FBF4F204FB121113
S315080073E02344581AB0FBF4F304FB1300A023B0FBA4
S315080073F0F3F080B238BD00BF7855002038B5084C88
S315080074001546E3684BB1FFF7A9FF30B101232846BB
S31508007410A372BDE8384001F025BE0020A07238BD31
S31508007420785500202DE9F041DFF83C800D4698F8A4
S315080074300A101F4606469DF8183099B1E03202EB4D
S31508007440431431F007FFA4EB471421183046B8F867
S315080074500C80FFF7B3FF414602462846BDE8F041D7
S3150800746032F099B8BDE8F0817855002010B50C4681
S3150800747011461A464FF6FE739C4200D9FEE74FF6B0
S31508007480FD73994206D82AB1034BDC60FFF754FF17
S31508007490002010BD0120FCE778550020014B19613A
S315080074A0704700BF7855002008B500F035F930B1AF
S315080074B0044BB3FBF0F083B20BB1184608BD0120AC
S315080074C0FCE700BF40420F0013B50446064800F02B
S315080074D039F9FFF7E9FF0122C100044B009402487D
S315080074E000F020F902B010BD90550020D79103088E
S315080074F0036810B5012B044602D1024800F022F9B0
S31508007500204610BD9055002070B50446E8B10368C2
S31508007510022B1AD143790D4D05EB830583797BB18F
S3150800752031F014FE06462479284664B231F000FE8E
S31508007530214630463CF0B6FFBDE8704031F047BF03
S315080075402846BDE8704031F0F3BD70BD8C5500206B
S3150800755008B51822002104484CF000FDBDE8084093
S31508007560024831F0E5BD00BF905500208C5500203B
S3150800757008B531F061FE00B1FEE70248BDE80840F3
S3150800758031F0D6BD8C55002008B531F055FE00B156
S31508007590FEE7044B186818B10068431E5842584164
S315080075A008BD00BF8C5500202DE9F34706460D4659
S315080075B090461F4631F040FE00B1FEE727B3DFF8DC
S315080075C05890D9F800A0BAF1000F22D1182047F038
S315080075D03FFD04462A4643463146CDF800A031F021
S315080075E087FD204631F0B5FD054670B9C9F800405B
S315080075F02368012BFCD0237920463B70FFF784FFD4
S31508007600284602B0BDE8F08722253046FFF7B0FFCE
S31508007610F6E70425F9E700BF8C5500202DE9F3416C
S3150800762005460C46174631F007FE00B1FEE7DFF8BF
S315080076304080D8F80030ABB9182047F009FD01237F
S3150800764006462246294600933B4631F051FD304610
S3150800765031F07FFD044630B9C8F80060204602B014
S31508007660BDE8F08104242846FFF782FFF6E700BF4D
S315080076708C55002008B531F0DFFD00B1FEE7054B5B
S31508007680186830B10368022B03D1BDE80840FFF73C
S315080076903BBF08BD8C550020014B1868704700BFDA
S315080076A058560020014B1868704700BF54560020F2
S315080076B000487047B055002000487047A85500207C
S315080076C01FB5FF238DF804300023CDE90233084B9C
S315080076D0014601AA18684CF0CFFE044628B90548A9
S315080076E033F025F8204604B010BD0120FBE700BFA3
S315080076F058560020B7670508024B0A46014618681F
S315080077004CF089BF58560020024B414218684CF08D
S31508007710B7BE00BF58560020014B18684CF045BF4D
S315080077205856002013B5049CCDE9003413460A4682
S315080077300146034800684CF081FE02B010BD00BF48
S3150800774058560020024B014618684CF087BE00BF09
S3150800775058560020024605480179914204D84179D5
S31508007760914238BF0020704700207047A855002076
S31508007770F8B504461C4E23680F463068FBB19721BE
S315080077804DF0B0F8024600B1FEE7216830682AF0ED
S3150800779001F800B1FEE7216830684CF0EFFE217968
S315080077A0814200D0FEE730682AF0A6F900B1FEE76C
S315080077B00122306811464DF0C9F828B1FEE72AF0D3
S315080077C087FC054608B1FEE7012503223068114605
S315080077D04DF0ACF87F2F03D03946284631F06AFDC4
S315080077E0024B1C60F8BD00BF5856002054560020B6
S315080077F00022034B1A6041F60B229A80704700BF9D
S31508007800A8550020024B014618684DF0CCB800BFB9
S3150800781058560020014B1860704700BF5456002088
S31508007820014B93F90000704712790020024B0122A0
S31508007830002118684CF0FDBD5856002038B50D4695
S31508007840FFF788FF044678B1084B1B68834204D1CA
S31508007850284631F026FD002038BDFFF7E7FF294608
S315080078602046FFF785FFF6E70720F5E75456002080
S31508007870014B186829F0E0BE58560020014B1868DD
S315080078804CF0D5BD5856002013460A460146024814
S3150800789000684CF0EBBD00BF5856002007B50093B2
S315080078A013460A460146034800684CF0E1FD03B05A
S315080078B05DF804FB5856002013B5049CCDE9003446
S315080078C013460A460146034800684CF0D3FD02B049
S315080078D010BD00BF5856002008B513460A46014693
S315080078E0024800684CF03AFF08BD00BF5856002011
S315080078F0024B0A46014618684CF0F8BF5856002055
S31508007900024B0A46014618684CF0FCBF5856002040
S31508007910024B0A46014618684CF0EEBF585600203E
S31508007920024B014618684CF0F3BF00BF58560020BA
S31508007930024B0A46014618684CF012BF58560020FA
S31508007940024B0A46014618684CF013BF58560020E9
S31508007950024B0A46014618684CF007BF58560020E5
S31508007960024B0146186829F049BE00BF5856002048
S31508007970024B014618682AF0D7B800BF58560020AF
S31508007980014B18684CF07ABE58560020014B18680F
S315080079902AF0E6B858560020024B0146186847F008
S315080079A076BD00BF58560020024B014618684CF0B9
S315080079B0FEBD00BF58560020024B014618684CF021
S315080079C0D1BE00BF5856002013460A460146024853
S315080079D000684CF053BD00BF585600204FF0FF33E7
S315080079E007B50193244B01461B6ADB0700D4FEE763
S315080079F0224B00221B880382214B1B688361214B83
S31508007A001B884382204B1B68C3618023838200F155
S31508007A102403036201A829F0B3FD00B1FEE71B4960
S31508007A2001982AF02FF900B1FEE7022101984CF0DF
S31508007A30BAFD00B1FEE7164901982AF01BFB00B112
S31508007A40FEE7012101984CF083FF00B1FEE7012112
S31508007A5001984CF08BFF00B1FEE700F0D9F8012140
S31508007A60019829F0F3FD01980A4B186000B9FEE762
S31508007A7003B05DF804FB00BF0080E00F5EC1050897
S31508007A8064C105085CC1050860C105080700110046
S31508007A903C9D050858560020024B014618684CF0D4
S31508007AA066BE00BF5856002030B50C46154A85B04C
S31508007AB01068516802AB002C03C304F1FF350DD1E1
S31508007AC01EF052FF2B46CDE9000102AA073412F830
S31508007AD0011D03F8011FA342F9D110E02A460A4BFB
S31508007AE00A4913F801098B4202F8010FF9D1082255
S31508007AF020460DEB02014CF008FA0028E0D005B04C
S31508007B0030BD00BFD46705080900E00F0100E00F8B
S31508007B1010B531F0E2F9044638B9054832F007FEE7
S31508007B20204631F0C7F94EF08BFA002010BD00BF91
S31508007B3042670508014B1878704700BF546D00204E
S31508007B4008B5044B08461970FFF7EAFE00B1FEE7D0
S31508007B5008BD00BF546D0020014B1970704700BF67
S31508007B60536D002021B1034B00201B780B70704722
S31508007B700720704712790020014B002019707047C2
S31508007B8012790020014B1878704700BF546D002009
S31508007B90014B1878704700BF536D0020102208B5B6
S31508007BA07F2103484CF0DAF97F22024B1A7008BD90
S31508007BB0566D0020556D002007B50DF10600FFF73C
S31508007BC0F3FEBDF80610084A084B0A4493F900303C
S31508007BD012F90B0C984203DB7F2B14BF18460020C2
S31508007BE003B05DF804FB00BF566D0020556D0020FC
S31508007BF038B50D46044631F01FFB044B1D5420468C
S31508007C00FFF7DAFF31F04DFB002038BD556D002037
S31508007C10402208B5002105484CF0A0F94FF6FF733D
S31508007C20024A938782F83E3008BD00BF5C560020A2
S31508007C302DE9F0410546084631F0FEFA0646284683
S31508007C4031F0ABFC002850D0284631F0ADFC0028B6
S31508007C504BD02B7FDA06C3F3001446D4284631F0FE
S31508007C6067FCA0B1284631F0B0FC0746002840D092
S31508007C70214B03EB86135B785A1E90420DD0834244
S31508007C8009D00133984232D00820BDE8F0811A4B5A
S31508007C9003EB86135F78012300E0234603EB860394
S31508007CA0154C1B010C332344AB602B7FDB0716D422
S31508007CB0284631F03DFC4FEA861828B104EB080344
S31508007CC05A6804F808709A6039462846444431F0E0
S31508007CD089FC616828464B1C636031F085FC0749BE
S31508007CE0284601EBC60131F072F80020CDE70223E1
S31508007CF0D4E70120C9E700BF5C5600204A6C002083
S31508007D0038B50C4631F098FA05464EF003FA044B9E
S31508007D1003EB85135C60BDE838404EF0F6B900BF4A
S31508007D205C5600202DE9F7430446DDE90A769146BC
S31508007D301D4631F081FA80460DB107B106B9FEE756
S31508007D4020460021FFF7DCFF2A4C4FEA881E0EF179
S31508007D500C0C2B46A444654604EB881888F8019059
S31508007D6003F110082A4618685968083303C24345C0
S31508007D701546F7D10EF11C053B4625442F4603F15F
S31508007D8010083A4618685968083303C24345174627
S31508007D90F7D10EF12C07334627443E4603F1100867
S31508007DA0324618685968083303C243451646F7D160
S31508007DB04FF6FF737444A38784F83E301022614659
S31508007DC0E06801AB30F05FFD00B1FEE710222946FE
S31508007DD0E06901AB30F057FD00B1FEE710223946E5
S31508007DE0E06A01AB30F04FFD00B1FEE703B0BDE835
S31508007DF0F08300BF5C56002038B50C4631F01CFAFB
S31508007E0005464EF087F9054B03EB85135A68A242DF
S31508007E1038BF5C60BDE838404EF077B95C56002044
S31508007E2008B531F009FA024B8001185C08BD00BF9D
S31508007E305C56002008B531F0FFF9024B03EB8013BE
S31508007E40986808BD5C56002082B02DE9F04F9BB0BB
S31508007E5024AF47F8043F002305AE86E8070009ACBF
S31508007E600CAD96E8070084E8070097E8070085E860
S31508007E70070094E807000DF13C080DF148098DF854
S31508007E80643088E8070095E8070089E80700404657
S31508007E9031F029FA0390484631F025FADFF8A0B008
S31508007EA0039BDBF800A00422009015A9504644F075
S31508007EB064FE0346002840D00022D1B204931AABD0
S31508007EC003EB810151F8141CDBF8000003921CF047
S31508007ED0E3FE039A049B01329342824601D00028AE
S31508007EE0EBD096E8070084E8070097E8070085E8DE
S31508007EF0070094E80700DBF8003088E8070095E8F3
S31508007F00070089E807004046039331F0ECF904902E
S31508007F10484631F0E8F9049B00900422039815A915
S31508007F2044F02BFE034610B1BAF1000FC4D05046F8
S31508007F301BB0BDE8F04F02B070474FF02D0AF6E7C8
S31508007F400C7800202DE9F04F0F46064689B01846F2
S31508007F509046994631F0CEF9002F3BD0B8F1000F84
S31508007F6038D000250124DFF870B0484631F0C2F950
S31508007F70DBF8003000F5003A05A80193CDF814A007
S31508007F80ADF81860079531F0AEF904AB014603AABF
S31508007F9001981CF06DFD2D2801D0002311E005A8DD
S31508007FA0CDF814A0ADF81860079531F09CF9DBF808
S31508007FB000400146434620463A461CF029FE012366
S31508007FC00446082D02D00135002BCED0204609B034
S31508007FD0BDE8F08F2124F9E70C78002008B531F0C8
S31508007FE0B1F9014620B10D48BDE8084032F0A2BB00
S31508007FF00B4A1368013313600A4B186890F834303B
S3150800800053B9094B19681CF0E1FB014608B107484A
S31508008010EAE70122064B1A7008BD00BFDD670508AE
S315080080209C5600200C780020EC770020FE67050897
S31508008030666D00202DE9F04F87B005460E461446BA
S31508008040984631F08AF98146284631F053F9B9F154
S31508008050000F5AD1DFF8F0A000F50035DAF8007005
S31508008060E4B2B8F1000F5CD0109B002B59D003A8DE
S31508008070CDF800900395ADF81060059431F033F90A
S3150800808002AB014601AA38461CF0F2FC81460028DC
S3150800809034D1029F002F3ED001466A46384622F068
S315080080A0F3FC814650BBDDF800B0BBF1000F35D0BC
S315080080B003A803950594ADF8106031F014F9DAF8C1
S315080080C000500146044602AB284601AA1CF0D0FC23
S315080080D0814698B95A462146029BDAF800001CF0F8
S315080080E03DFC814650B9109B40461A880099BA4211
S315080080F028BF3A464BF07DFF109B1F80009808B1B9
S315080081004EF058FAB9F12D0F1AD80E4A12F809008E
S3150800811007B0BDE8F08F4FF02D09EFE74FF00109E2
S31508008120ECE703A80395ADF81060059431F0DBF889
S3150800813002AB014601AA38461CF09AFC8146E1E7E3
S315080081400120E5E7689D05080C780020F8B5054686
S315080081500C4616461F4631F000F970B929462046E6
S3150800816031F0CDF808B12D2805D12B463A463146CF
S315080081702046FFF7E7FE2D2802D8024B185CF8BD0B
S315080081800120FCE7689D0508F8B507460C46154624
S315080081901E4631F0E2F838B93B46324629462046B3
S315080081A0FFF7D0FE2D2802D8024B185CF8BD012037
S315080081B0FCE700BF689D05087FB506460D461446D0
S315080081C031F0CBF8A8B9002C17DB304631F092F81D
S315080081D000F500300190E4B201A8ADF80850039408
S315080081E031F081F8084B014618681CF055FD2D281A
S315080081F008D8064B185C04B070BD3146284631F0E5
S315080082007EF8F4E70120F6E70C780020689D05085B
S3150800821030B589B0054631F095F8044630B10146C7
S31508008220124809B0BDE8304032F084BA284631F029
S3150800823061F800F5003002902846ADF80C40049429
S3150800824031F058F81F22ADF8182009220346079284
S3150800825008AA12E903008DE8030002AA03F5003311
S3150800826007CAFFF7F1FD09B030BD00BF246805084D
S3150800827010B50C4630F0E2FF044B014623F81040D7
S315080082802246BDE81040024832F051BA906B0020F1
S315080082903F68050810B50C4630F0D0FF28220C4B75
S315080082A033F810301C440B4BA4B202FB00300023F9
S315080082B00288A24201D182783AB901330A2B00F129
S315080082C00400F5D14FF0FF3010BD18B2FCE700BF2F
S315080082D0906B0020686B00202DE9F04106460D469C
S315080082E0FFF7D8FF80B209282BD9304630F0A6FF11
S315080082F0282300214343174F02333B4413F8212018
S3150800830012B301310A29F9D14FF0FF34A0462A46A3
S31508008310214611481FFA88F832F00CFAB8F1090F0D
S3150800832016D8304630F08AFF0A2303FB00440B4B6D
S3150800833033F810301D44012327F8245007EB84072F
S31508008340BB700020BDE8F0810C460FFA81F8DEE725
S315080083500320F7E7686B00205D680508906B00202E
S3150800836070B50E460546FFF795FF044601463246A8
S315080083700A4832F0DFF9A3B2092B0DD8284630F0A7
S315080083805DFF0A2202FB00440020054B03EB840232
S31508008390907023F8240070BD0A20FCE7826805085F
S315080083A0686B002010B530F049FF0446054832F0E6
S315080083B0C1F928220448002102FB0400BDE8104048
S315080083C04BF0CCBDA9680508686B002010B50C46B3
S315080083D030F034FF0F4B618833F8102023880B44A4
S315080083E0A1881944E3880B4428211A440A4B92B2FF
S315080083F001FB003000230188914201D1817839B907
S3150800840001330A2B00F10400F5D14FF0FF3010BDFF
S3150800841018B2FCE7906B0020406B00202DE9F04174
S3150800842006460D46FFF7D2FF80B2092832D93046F4
S3150800843030F004FF2823434300201B4F02333B44FC
S3150800844013F820204AB301300A28F9D14FF0FF3437
S31508008450A0462A46214615481FFA88F832F06AF9D6
S31508008460B8F1090F1DD8304630F0E8FE0A22104B45
S31508008470698833F8103002FB00402A880A44A98824
S315080084801144EA880A44134427F82030012307EBED
S315080084908007BB700020BDE8F08104460FFA80F81B
S315080084A0D7E70320F7E700BF406B0020C16805083F
S315080084B0906B002038B50546FFF788FF044601464D
S315080084C00A4832F037F9A3B2092B0DD8284630F0FE
S315080084D0B5FE0A2202FB00440020054B03EB84028A
S315080084E0907023F8240038BD0A20FCE7E0680508E8
S315080084F0406B002010B530F0A1FE0446054832F066
S3150800850019F928220448002102FB0400BDE810409E
S315080085104BF024BDF8680508406B002000F00CB845
S3150800852000F00AB800F008B800F006B800F004B881
S3150800853000F002B800F000B872B61EF0080F09D0B5
S315080085401EF0040F0DD0DFF850E0AEE8FF1F6FF005
S3150800855002000CE0DFF840E0AEE8FF1F6FF00E0007
S3150800856005E0DFF834E0AEE8FF1F6FF00600694665
S31508008570EFF309828EE8070086460848084C8545C9
S3150800858001D3A54501D384F3088800F079FA84F36A
S31508008590088830F02AFF00004075002048000020B7
S315080085A00814002008B500F0C3F9084A536A43F4D2
S315080085B070235362EFF308834FF0CD31044A043B2E
S315080085C0934200D208BD43F80419F9E700ED00E02C
S315080085D0080000202DE9F0470025C2B002AE4FF48E
S315080085E08072002130464BF0B9FC2F46DFF868A0B0
S315080085F0DFF86880DFF868909AF8003033B915B16B
S31508008600304605F0EFFF42B0BDE8F087104B07F0A3
S315080086100302032A18BF4B46019358F8043B4FF44C
S31508008620807100930B4A5346701928F059FA1AF8C4
S31508008630013B002BFBD17A1C12F00304D7B203D0FE
S315080086402844C4B22546D7E7304605F0CBFFF9E7FC
S3150800865078940508116905083C9F050840750020AF
S315080086600E69050840F60522F8B55D4B1B8893424E
S315080086700ED8B3F5206F0CD840F20252934216D0AA
S3150800868040F2017293421CD040F20152934209D043
S31508008690F8BDA3F60223534C032B1AD8DFE803F0E0
S315080086A03056839B5048BDE8F84005F09BBF4F48BD
S315080086B005F098FF4B4B196C4D48BDE8F84005F09E
S315080086C091BF484B4B48D3E92512BDE8F84005F061
S315080086D089BF494805F086FF94F86C309E0702D595
S315080086E0464805F07FFF94F86F305D0602D544488A
S315080086F005F078FF94F96F30002BC9DA4148D2E7C4
S31508008700414805F06FFF94F86830980703D0216C4C
S31508008710374805F067FF94F96830002B03DA616F74
S315080087203A4805F05FFF00250126394FA26E06FA82
S3150800873005F3134206D057F825100B7813B13548C0
S3150800874005F050FF0135082DF0D1A1E7324805F0B4
S3150800875049FF216C264805F045FF94F8693059070A
S3150800876002D52E4805F03EFF94F96930002B03DA4E
S31508008770616F264805F036FF0825254EA36EEB40A7
S31508008780DA0706D556F825100B7813B1214805F0F7
S3150800879029FF0135102DF1D194F86830002B7FF4AC
S315080087A077AF1F487FE71F4805F01CFF216C10486C
S315080087B005F018FF1025164EA36EEB40DB0706D50D
S315080087C056F825100B7813B1124805F00BFF013542
S315080087D01A2DF1D15CE7144805F004FF216C6BE70C
S315080087E0926B002040750020206905085D69050820
S315080087F08D690508A7690508C2690508DA690508C3
S31508008800146A0508476A0508836A0508A86A0508F8
S3150800881008A00508C56A0508CD6A0508E46A0508BA
S315080088202A6B05085A6B0508736B05082DE9F74F7F
S31508008830334DD5E90D32580748BF0026D5E9121B36
S315080088404EBFB046D5F850808B46D5F83CA05DBFE4
S315080088502C4E9246DFF8D090DFF8D09013F0080F30
S31508008860294B2A4918BF1946B6EB08071FBF6423C8
S315080088707C0803FB0B44B4FBF7F40CBF3C46A4B2DC
S3150800888043464A462248CDE9006ABFB205F0AAFE29
S315080088904B4622461F4800971FFA8BF105F0A2FEA9
S315080088A0B24501D8C24503D249461B4805F09AFE8F
S315080088B0D5E9173213436A6E13431AD0174805F0E1
S315080088C091FE002501270E4E0024F26D07FA04F3E7
S315080088D0134203D01248291905F084FE0134202CCE
S315080088E0F3D12035602D06F10406EDD103B0BDE8BD
S315080088F0F08F0C4803B0BDE8F04F05F073BE00BF1B
S3150800890040750020081400208B920508A16B050805
S31508008910A96B0508DA6B0508136C0508316C0508A0
S315080089207F850508606C05089C6B0508946B05082F
S315080089302A4B13B5D3F894204FF400314FF0502347
S315080089401967D3072DD401231846194600FA01F4EE
S31508008950144003F1010326D0214B33F811401AF0D5
S3150800896013FB062C83B21F4A4FEA104021D14FF25F
S315080089700F0188421AD1B3F5406F28BF4FF4C06380
S315080089804CF23C3113804FF00052518040F2017294
S31508008990934201BF144B154AD2E90001C3E900010D
S315080089A017E00021D8E7102BCFD1D8E74FF4C063E2
S315080089B0E6E740F207218C420DD14FF20F018842BB
S315080089C006D1A34202BF4FF000534CF23C31598006
S315080089D0148002B010BD23461480D7E7004000502B
S315080089E01C9F0508926B0020A0560020D475002015
S315080089F0044B05481B881A0AB3F5406F38BF00EBCD
S31508008A0082007047926B0020EC9E0508044B18887C
S31508008A10044B020A53F82230C0B203EB80007047B9
S31508008A20926B0020BC9E050810B5FFF7E1FF114CBC
S31508008A30024621881048090A05F0D4FDFFF7E6FF2B
S31508008A40218802460D4805F0CDFD01232288120A29
S31508008A50934040F2A17213420AD00020FFF7E6FEC7
S31508008A600020FFF7FFFDBDE810400020FFF7B2BD6C
S31508008A7010BD00BF926B0020756C05088B6C05084D
S31508008A806E4A2DE9F0416E4B55686E4C5D65516A2C
S31508008A9099656D49D1F80002D865D1F804021866BF
S31508008AA0D1F80812586B5966916A10F0040F996646
S31508008AB0D16A4FF00000D966116B1967516B596777
S31508008AC0D26BD8649A67D3E90E1218BF11465F4A6B
S31508008AD091421A655DD301F12000A04259D88869F0
S31508008AE0C5F308051864CE69062D5E6455D1584D40
S31508008AF0A84252D3574DA8424FD205884DF6426038
S31508008B0085424AD11868C3F894005868C3F8980093
S31508008B1040F20170A242154604D22E680432B6F11C
S31508008B20CD3FF7D00022C3E91F22C3E92122C3E9BA
S31508008B302322641BDFF818C1424DDFF818E19C6454
S31508008B408D422DD8D3E91FC7D3E92165D3E923413F
S31508008B504FF0000E013AD2B2FF2A3BD1BEF1000F08
S31508008B6005D0C3E91FC7C3E92165C3E92341B3F8A3
S31508008B705430C3F308030C2B3AD8022B53D9DA1E08
S31508008B80092A50D8DFE802F030563F424F4F4F4F80
S31508008B904F4C0021C3E910112C494FF42060B9E766
S31508008BA055F8044D6445CBD37445C9D2E607C7D5F5
S31508008BB00026294F57F8048FA045C1D00136062E46
S31508008BC0F8D12AB1013AD2B203EB8206F467B7E7C5
S31508008BD00522F9E7E0464FF0010EBC4637462E4619
S31508008BE025460C464146B5E740F60120BDE8F0812A
S31508008BF03A2B18D1194B9B6913F0020F40F2025316
S31508008C0018BF1846F2E740F60320EFE740F60422BD
S31508008C1040F20173B0F5206F0CBF10461846E5E721
S31508008C2040F60520E2E740F60722013B5A2B98BF9B
S31508008C301046DBE740F60220D8E700BF00ED00E06B
S31508008C40407500200814002000E100E0080000201C
S31508008C504063000880660508B87500200040005B80
S31508008C60094A138873B9094B1988094B1B88C3F538
S31508008C7080608142C8BF81B2118019B10548184485
S31508008C80FEF72CB8704700BF946B0020966B002047
S31508008C90986B0020686D00200749084A0B881088E1
S31508008CA00344C3F309030B8005490B881B1A0B8081
S31508008CB000231380FFF7D4BF986B0020946B002025
S31508008CC0966B00202DE9F743364F0E46B7F800900D
S31508008CD01346B9F1000F1BD10A4633484FF4806199
S31508008CE027F034FFB0F5806F044607D331462F4886
S31508008CF031F01AFD204603B0BDE8F0832C4B3880CE
S31508008D00A3F800902B4BA3F80090FFF7A9FFF1E713
S31508008D10DFF89C802448B8F800500192A944C9F3AA
S31508008D2009094D458CBFA5EB0905C9F58065ADB2A6
S31508008D300A464844294627F009FF041E04DA314644
S31508008D401A4831F0F1FCE0E7A54203DD3B882344ED
S31508008D503B80DAE7B4F5806F09DB31461648F0E761
S31508008D60FFF77EFFFDF782FF28B9FFF795FF3B88DF
S31508008D70002BF5D105E031F014FB01460F4831F020
S31508008D80D3FC32464FF48061019B074827F0DEFE8C
S31508008D90041E00DCFEE70023064A3C80A8F80030E3
S31508008DA01380B2E7966B0020686D00202C700508CA
S31508008DB0986B0020946B0020667005084D700508B6
S31508008DC02DE9F04107460E46154C164D23883846C0
S31508008DD0C3F580639BB2B34228BF3346B5F800E0BB
S31508008DE007EB030C104F0AE0228810F8018B0EEBF4
S31508008DF00201C1F30901013207F8018022806045AA
S31508008E00F2D1F31A9EB20746FFF72AFF2EB1FDF7F5
S31508008E102DFF10B9FFF740FFD8E7BDE8F08100BF86
S31508008E20966B0020986B0020686D0020F8B5054603
S31508008E30284C4618AE4200D8F8BD2B780D2B26D004
S31508008E4011D8082B11D00A2B1DD02388B3F5FF7F24
S31508008E502FD801212846FFF7B3FF238829785A1C03
S31508008E6022801D4A0DE07F2BEFD123880BB3032107
S31508008E701A48FFF7A5FF00212388174A013B9BB232
S31508008E802380D15415E0164B1B780D2B11D00221E7
S31508008E901448FFF795FF0022944623880E49CA54C2
S31508008EA05F185BB902B123800B4830F05DFC0023E4
S31508008EB0238015F8012B0A4B1A70BBE717F8010D2A
S31508008EC00A2801D00D28EDD1013B9BB2012201F8F9
S31508008ED003C0E6E79A6B00206871002072A00508B7
S31508008EE0676D002070A00508002310B50446084ADF
S31508008EF01380084A1380084A1380084A13802FF003
S31508008F00CDFF22462046BDE81040054930F02ABC70
S31508008F109A6B0020986B0020966B0020946B0020BB
S31508008F20C58C000838B5084DD5E8AF3F13F00104E5
S31508008F3008D1284630F038FA20B1044B28461C6080
S31508008F4030F037FA014838BDA8560020AC56002044
S31508008F5070B51348D0E8AF4F14F0010418D130F0BB
S31508008F6023FAA8B10F4D2E4646F8044B30191022A5
S31508008F70002110344AF0F2FFA02CF7D10B220A4B3D
S31508008F80013A194603F1100304D1054830F011FAE5
S31508008F90044870BD286843F8100C2960F0E700BF44
S31508008FA0B0560020B4560020B85600202DE9F041EE
S31508008FB0884615461E4630F081FA074650B35EB31A
S31508008FC00379990748BF86F80080C3F340040379FC
S31508008FD048BF01245A070ED5114B294693F90000BC
S31508008FE03CF045FD822302B2C2EB0222B2FBF3F249
S31508008FF032559CB901243B791B0708D58222823554
S31508009000C5EB0525B5FBF2F5631C3555DCB22046E4
S31508009010BDE8F0810446FAE73446F8E70224F6E7A5
S3150800902068730020014B187030F06CBA6873002022
S3150800903070B5049D0C46014600B12DB9C621064BF4
S31508009040064A074827F054FC049328461346224646
S31508009050BDE8704007F034BC8070050891710508BA
S31508009060F270050808B530B940F20911074B084AED
S31508009070084827F03DFC038823F4FF4343F4506374
S31508009080038004230370062008BD00BFF571050898
S3150800909006720508F2700508131D70B5DBB2144692
S315080090A030B940F217110D4B0D4A0E4827F020FC37
S315080090B0068803F07F0326F4FF46068003709B2389
S315080090C08370B823C370EA2303710023437111B177
S315080090D006304AF08EFFA01DC0B270BDF5710508B6
S315080090E038720508F270050808B5034A03490830BE
S315080090F030F0AFFF002008BD857205089C7705088B
S315080091000B6810B5044608464BB905F061FA0246E5
S31508009110084904F1080030F09CFF002010BD0649FC
S3150800912042F0CFFD18B140F24E220449F1E7232060
S31508009130F4E700BF9C7705088B720508808505084B
S3150800914070B50B68044694B0084683BB54F8080FFC
S3150800915002A931F0FEFA2046BDF80820194930F078
S3150800916078FF2046BDF80A20174930F072FF2046DE
S31508009170BDF80C20154930F06CFF0926144D013E48
S3150800918005F1080502D1002014B070BD55F8083C59
S3150800919002AA1A4402A9CB5A51682046019152885C
S315080091A00C49009255F8042C30F053FFE7E70A49BA
S315080091B042F087FD18B1A06831F0CDFAE3E7072041
S315080091C0E2E700BF8F72050899720508A2720508C2
S315080091D0B8A80508AF720508427D05080B68F7B5FB
S315080091E004460D4673B908342046654930F031FF08
S315080091F02046644930F02DFF2046634930F029FFA8
S31508009200002040E028465F4942F05BFD002843D035
S315080092106B6893BB54F8080F31F0E2F95B490268B2
S315080092200546204630F015FF1127594E013F06F135
S31508009230080616D120466A6C564930F00AFF1127EF
S31508009240554E013F06F10806DAD056F8083C0421C7
S31508009250EB582046009356F8043C504A30F00AFF73
S31508009260EFE756F8083C0421EB582046009356F8D9
S31508009270043C4A4A30F0FEFED8E74949281D42F028
S3150800928020FD10B9072003B0F0BDAB68002BF9D15B
S31508009290A06831F0A9F9B3E728463B4942F011FD29
S315080092A0002842D06B689BBB54F8080F31F031FD9B
S315080092B00B2607463B4D013E05F108050FD106264C
S315080092C0394D013E05F1080513D12046374930F0DE
S315080092D069FED7E91023204630F07AFE90E755F864
S315080092E0083C2046FB5A55F8042C314930F0B1FEAB
S315080092F0E1E7204655F8042C2E4930F053FE55F880
S31508009300083C20463B44D3E9002330F061FED8E709
S315080093102349281D42F0D5FC0028B3D0AB68002BA2
S31508009320B0D1A06831F0FAFC6AE72846144942F041
S31508009330C8FC0028A6D06B68ABB954F8080F31F002
S31508009340DDFC052607461C4D013E05F108053FF4E0
S3150800935057AF55F8083C2046FB5855F8042C0F49DA
S3150800936030F077FEF0E70E49281D42F0AAFC0028E7
S3150800937088D0AB68002B85D1A06831F0C3FC3FE7E5
S31508009380698105087581050882810508BD72050889
S31508009390F0A70508D272050870A70508CA7205085D
S315080093A0427D050820A70508F8A60508F6720508EF
S315080093B0DF720508E6720508D8A605080B6870B5B9
S315080093C004460D4663B954F8080F31F01EF828B163
S315080093D00E49204630F03DFE002070BD0C49F8E7E6
S315080093E028460A4942F06DFC064628B10121A068C4
S315080093F0BDE8704030F0FDBF2846054942F061FCE3
S3150800940008B13146F3E70720E7E700BF0B73050805
S315080094100E73050837B504466946806831F019FCAD
S315080094200546E8B908342046009A0F4930F011FE7F
S3150800943020469DF804200D4930F00BFE20469DF885
S3150800944005200B4930F005FE20469DF806200949FF
S3150800945030F0FFFD20469DF80720074930F0F9FD5A
S31508009460284603B030BD00BF1373050825730508E9
S315080094703A730508337305084B7305080B6837B547
S315080094800446084683B9A06831F095F804F1080542
S31508009490014618B1A068FEF74DFB0146284604F0C0
S315080094A0EFFF002003B030BD0DF1070105F04CF8C1
S315080094B00028F7D19DF807201AB91146A06831F09F
S315080094C073F89DF80710A06831F07CF80028E9D1F8
S315080094D09DF80730002BE4D022460249A06831F0F7
S315080094E063F8DEE72B97030870B5044680680E46D6
S315080094F03AF0E6FF054605F06BF885420CD0304693
S31508009500074942F0DEFB48B104F108002A4605493E
S3150800951030F09FFD002070BD0C20FCE70720FAE71D
S31508009520BB7B05089C77050810B5044654F8080F58
S3150800953031F0AAFB03490246204630F08AFD002096
S3150800954010BD00BF29790508024B034A083030F0E0
S31508009550BBBD00BF81AD030877AD030810B500F1A8
S315080095600804806831F0B1FB044B0549002808BFA0
S315080095701946204630F06DFD002010BD65730508BC
S315080095806073050870B50E6804460D4666B954F84A
S31508009590080F31F057FB31F05AFB184902462046AE
S315080095A030F057FD304670BD2846154942F089FB14
S315080095B020B1A068BDE8704031F035BB2846114996
S315080095C042F07FFB20B1A068BDE8704031F030BBA7
S315080095D028460D4942F075FB20B1A068BDE87040E9
S315080095E031F029BC2846094942F06BFB20B1A06836
S315080095F0BDE8704031F025BC0720D4E79C77050804
S315080096006B730508747305087A7305088173050872
S3150800961010B50B68044686B008466BB954F8080FAF
S315080096201822694630F0D4FE6A4620460A4930F0C8
S3150800963010FD002006B010BD084942F042FB48B1B3
S3150800964054F8080F30F0C1FE02460B46204630F0AB
S31508009650BFFCEEE70720EDE79C7705084C87050871
S3150800966038B50D687DB900F108042046074930F081
S3150800967099FC2046064930F095FC2046054930F00D
S31508009680E8FC284638BD2320FCE700BFB488050857
S3150800969088730508FB87050870B50C680D460646ED
S315080096A0094924B9083030F0D4FC204670BD284654
S315080096B042F007FB30B1291D06F19400BDE8704061
S315080096C004F0F2BB2320F1E78D73050838B50C6862
S315080096D00546084624B9A86830F073FE204638BD0A
S315080096E0054942F0EEFA20B1A868BDE8384030F0E6
S315080096F06ABE2320F3E700BF9473050830B50D68EA
S31508009700044687B07DB954F8080F31F00CFB1522D2
S31508009710694631F012FB20466A46044930F099FC46
S31508009720284607B030BD0720FBE700BF9C77050831
S3150800973010B5044608460A4942F0C3FA0346A0682B
S315080097402BB1BDE810400022114631F0F1BA22468D
S31508009750044931F0EDFA002808BF242010BD00BFE7
S315080097609F7305083797030838B50D4604460A4916
S31508009770284642F0A6FA60B16D6855B954F8080F44
S3150800978030F0D0FF05490246204630F062FC2846F4
S3150800979038BD0720FCE700BFA573050880850508C6
S315080097A038B50D68044655B954F8080F31F064FA0F
S315080097B004490246204630F04CFC284638BD232092
S315080097C0FCE700BF217305080B6837B505460C464C
S315080097D09BB980680DF1060130F05FFF044648B971
S315080097E0BDF806209DF806300C49120A05F1080056
S315080097F030F02FFC204603B030BD084642F05AFA36
S31508009800022809D12368A868198849BA89B203B019
S31508009810BDE8304030F03DBF0724EBE7AB730508E1
S31508009820F8B50E4605461249304642F04AFA07464A
S3150800983028B10121A868BDE8F84031F034BA3046AD
S315080098400C4942F03EFA044608B13946F2E730467A
S31508009850094942F036FA48B131F035FA0749024665
S3150800986005F1080030F0F5FB2046F8BD2320FCE79B
S31508009870BC8D0508B0730508BB7B050880850508FF
S3150800988038B505460C4641B9006890470449024672
S31508009890284630F0DEFB204638BD0720FCE700BF2F
S315080098A0808505082DE9F0430D6804460E4693B0F9
S315080098B095BB806831F050FAA9468046AFB2B845E4
S315080098C003D8002013B0BDE8F0833946A06806AA7D
S315080098D0ADF8069031F0D4FA78B99DF84130C3F363
S315080098E0C0021B0709D4ADF806203946A06802ABAA
S315080098F00DF1060231F0C9FA08B10135DEE704F1C7
S3150800990008063046BDF830200B4930F04BFB304690
S3150800991002A930F066FBE8E73046084942F0D1F97B
S3150800992040B1074A716804F1080013B0BDE8F04376
S31508009930FFF7A6BF2320C5E7B5730508867C05088B
S315080099406DAD030838B505460C4641B90068904721
S3150800995004490246284630F07CFB204638BD0720DD
S31508009960FCE700BF21730508024A09680830FFF7BB
S31508009970E9BF00BFAFA3030873B50C6805460E46DA
S315080099803CB120460DF1070142F051F960B102B031
S3150800999070BD55F8080F31F0DCFA0849024628462A
S315080099A030F057FB2046F2E773682BB99DF907108C
S315080099B0A86831F0D3FAEAE70720E8E78C740508C7
S315080099C07FB50C6805460E4664B955F8080F694612
S315080099D031F07EFA28461022694630F0F0FA204621
S315080099E004B070BD4B685BB910226946204642F048
S315080099F047F90028F4D16946A86831F073FAEFE709
S31508009A0030460A4942F05DF970B1A868766831F0C7
S31508009A10A9F80446A86831F014F86B4602462146B0
S31508009A20304630F019FCE4E70720D9E7BC7305088F
S31508009A3030B5044600F1080502212846114B124AA2
S31508009A408DB004F047FDA06831F0E0FA044614B979
S31508009A5020460DB030BD20463022694630F021FD43
S31508009A606A462846094930F09DFA04F11200302268
S31508009A70694630F016FD6A462846054930F0E9FA87
S31508009A80246BE4E718A605081CA60508BF73050895
S31508009A90C87305087FB500230C6805460E468DF881
S31508009AA004308CB955F8080F30F0E7FF03A98DF894
S31508009AB0080002A830F05EFB18490246284630F036
S31508009AC0C8FA204604B070BD3046154942F0F9F888
S31508009AD028B19DF80410A86830F0DFFFF2E7326875
S31508009AE0013A12F8013F002BF3D06E2B11D0722BDE
S31508009AF003D0642B08D00720E4E79DF8043043F030
S31508009B0001038DF80430ECE79DF8043043F00203B6
S31508009B10F7E79DF8043043F00403F2E79C7705085D
S31508009B20839A050810B50446086886B008B30DF18F
S31508009B30170142F036F8D0B99DF817301F2B15D803
S31508009B40012199400C4B02940193002300934FF690
S31508009B50FF72A06831F0BEF848B904F10800072181
S31508009B60064B074A04F0B6FC242000E0072006B09E
S31508009B7010BD0146E6E700BFA5970308B4A6050889
S31508009B80BCA6050873B50D680446002D34D100F14E
S31508009B90080603213046254B254A04F09BFCA0689D
S31508009BA0E9B231F0E0F900B3A90289B20DF1030375
S31508009BB0A0680DF10602ADF8041031F0DBF91D4975
S31508009BC02A46304630F0EEF94FF6FE73BDF8062009
S31508009BD030469A420BBF184B9DF803301A46174970
S31508009BE00CBF1749920A30F034FA01353F2DD6D109
S31508009BF00025284602B070BD284601A941F0E2FFBB
S31508009C0005460028F5D154F8080FBDF804100DF1E3
S31508009C1003030DF1060231F0ADF920469DF8033035
S31508009C20BDF80620074930F014FAE2E708A6050849
S31508009C300CA60508D2730508839A0508DB73050880
S31508009C40E7730508F37305087FB50C460023054638
S31508009C5022492046ADF80E3042F033F8064610B1D8
S31508009C60606800BB0434206838B30DF10D0141F07B
S31508009C7098FF00BB9DF80D301F2B1BD801249C4074
S31508009C8005F10800DEB10221154B164A04F022FC44
S31508009C9000952146144BBDF80E20A86830F0AFFC9D
S31508009CA048B9242007E00DF10E0141F08BFF10B9E9
S31508009CB00834D8E7072004B070BD0446E0E705215C
S31508009CC00A4B0B4A04F006FC00952146094BBDF8E1
S31508009CD00E20A86830F08FFCE2E700BF0274050882
S31508009CE0CCA50508D0A505083B970308B0A5050827
S31508009CF0B8A50508A597030813B50446086868B902
S31508009D0054F8080F30F0F7FA4FF47A720D49B0FBA1
S31508009D10F2F2204630F09DF900200EE04B6873B948
S31508009D2001A941F0FAFF40B94FF47A71019BA06886
S31508009D30594330F0E5FA0028EED002B010BD0720EE
S31508009D40FBE700BF2173050837B5054608680DF11E
S31508009D50070170B9A868FDF705FF044630B99DF9F3
S31508009D6007200A4905F1080030F073F9204603B0C8
S31508009D7030BD41F05CFF04460028F7D19DF9071075
S31508009D80A868FDF7F9FE0446F0E700BF1274050857
S31508009D900B6837B504460D4673B980680DF107019F
S31508009DA03AF094FB18BB9DF90720134904F1080003
S31508009DB030F04FF900201AE02846104941F081FF9B
S31508009DC0B8B168680DF1070138B9A0683AF07EFBAA
S31508009DD068B99DF907200A49E8E741F028FF30B934
S31508009DE09DF90710A0683AF073FB0028E2D003B08B
S31508009DF030BD0720FBE700BF09740508197405087C
S31508009E008C74050837B5054608680DF1070170B961
S31508009E10A8682FF02AFA044630B99DF907200A499E
S31508009E2005F1080030F015F9204603B030BD41F0C1
S31508009E30FEFE04460028F7D19DF90710A8682FF002
S31508009E40ACF80446F0E700BF127405080B68F7B5CE
S31508009E5004460D46002B35D154F8080F30F09AFF0A
S31508009E60054603783B49032B96BF3B4A3B4A52F8C3
S31508009E702320204630F0EDF8687800F0010004F061
S31508009E80FBF937490246204630F0E3F86878C0F314
S31508009E90400004F0F1F933490246204630F0D9F87B
S31508009EA06878C0F3800004F0E7F92F490246204697
S31508009EB030F0CFF8204695F902202C4930F0C9F841
S31508009EC0002044E00026244F284657F8041B41F09A
S31508009ED0F8FEC0B368680DF103018DF8046041F01F
S31508009EE020FFA0BB9DF805309DF80320A86862F303
S31508009EF000030DF103018DF8053041F012FF30BB68
S31508009F009DF805309DF80320E86862F341030DF1DA
S31508009F1003018DF8053041F004FFC0B99DF80530FE
S31508009F209DF80320286962F382030DF106018DF876
S31508009F30053041F07CFE50B96B693BB9A06801A9B0
S31508009F4030F02CFFBCE70136042EBDD1072003B044
S31508009F50F0BD00BF2174050894A6050888AD05085C
S31508009F60377405084D74050863740508797405087F
S31508009F7070B50D4604463C49284688B041F0A1FE16
S31508009F80064600B104352B6813BB54F8080F30F0A9
S31508009F9041FA05460DB9002030E02946204604F06E
S31508009FA0C5F986B1687C04F0F5FAA97C2B7CC1F367
S31508009FB040010191A97C024601F001010091204669
S31508009FC02A492FF0EFFF204604F07EF96D69E1E794
S31508009FD02846274941F075FE90B1686802A941F004
S31508009FE045FE58B9069BA0686FF3110343F4403346
S31508009FF043F4507302A9069330F016FA08B070BD00
S3150800A00028461C4941F05DFE50B1686802A941F036
S3150800A0102DFE0028F2D1A06802A930F00AFAEDE771
S3150800A0202846154941F04DFE40B154F8080F30F066
S3150800A0308EFD014620462FF0D4FFACE728460F498F
S3150800A04041F03FFE20B154F8080F30F078FDF0E7F4
S3150800A05028460B4941F035FE20B154F8080F30F078
S3150800A06072FDE6E72320C9E7A38005088F74050873
S3150800A070B8740508B57B0508BC740508C6740508D8
S3150800A080CB74050830B50B6804460D4685B06BB928
S3150800A09054F8080F30F0D2F905460DB9002015E03E
S3150800A0A0294620462FF09DFF2D69F6E728461D49CB
S3150800A0B041F007FE60B16946686841F0D7FD28B9E6
S3150800A0C06946A06830F0BFF90028E7D005B030BD72
S3150800A0D02846154941F0F5FD50B16946686841F0D2
S3150800A0E0C5FD0028F2D16946A06830F0B1F9EDE760
S3150800A0F028460E4941F0E5FD40B154F8080F30F006
S3150800A10029FD014620462FF06CFFC7E72846084977
S3150800A11041F0D7FD20B154F8080F30F01FFDF0E7E5
S3150800A1202320D3E7B8740508B57B0508D17405085C
S3150800A130D7740508024B186800B9FEE7704700BFD8
S3150800A1405857002038B50C4600F10805284604F093
S3150800A150EDF8228A28461D492FF024FFA37C2846BD
S3150800A160032B96BF1A4A1B4A52F823201A492FF086
S3150800A17019FFE27C2846194902F001022FF012FF66
S3150800A180A37CE3B9E37C5B0714D5284614496269C6
S3150800A1902FF008FF284604F1180104F0C7F8A37C3D
S3150800A1A0032B07D1E37C2846628D0E49C3F340038F
S3150800A1B02FF0F8FE2846BDE8384004F085B8284652
S3150800A1C0228D09492FF0EEFEE9E700BF2879050838
S3150800A1D0A4A6050888AD05089B770508DD7405085B
S3150800A1E0EA7405080A750508FE74050810B50B68B3
S3150800A1F096B000938B880E49ADF804300D4B00F1EC
S3150800A2000804002A18BF0B46029300232046ADF81F
S3150800A210563004F059F8684630F08FFA08B116B08F
S3150800A22010BD2046044903AA2FF013FFF3E700BF29
S3150800A23025750508287505089C77050870B515461F
S3150800A2400E46137800F1080420460B4A03F0010372
S3150800A2502FF010FF2B7831462046084AC3F34003F7
S3150800A2602FF008FF2B7831462046BDE87040044A97
S3150800A270C3F380032FF0FEBE2B7505083C75050851
S3150800A2804B75050870B50E46154600F108042046BC
S3150800A29092F900301A4A2FF0EDFE314620466B78C7
S3150800A2A0184A2FF0E7FE31462046AB78164A2FF0BB
S3150800A2B0E1FE31462046EB78144A2FF0DBFE3146A4
S3150800A2C020462B79124A2FF0D5FE314620466B7967
S3150800A2D0104A2FF0CFFE31462046AB790E4A2FF0B2
S3150800A2E0C9FE314620462B890C4A2FF0C3FE31465B
S3150800A2F02046AB7A0A4ABDE870402FF0BBBE00BFC5
S3150800A3005B7505086E7505087F750508907505085F
S3150800A310A1750508B0750508BF750508D175050846
S3150800A320E375050870B515460E4600F10804204683
S3150800A33012780E492FF08DFE6B78314620460C4A6E
S3150800A34003F003032FF096FE6B7831462046094A40
S3150800A350C3F381032FF08EFE6B7831462046BDE8A5
S3150800A3607040054A1B092FF085BE00BFF875050821
S3150800A370087605081B7605082D7605082DE9F843A5
S3150800A3800C4600F108081378074615464046114A58
S3150800A3902FF070FE214640460F4A2FF06BFE00262E
S3150800A3A004F1040906345FFA89F9E4B201366A78D9
S3150800A3B0731E9BB29A4201D8BDE8F88349464046C7
S3150800A3C0064A2FF033FE2146384605EB4602FFF7CC
S3150800A3D0A9FFEBE7B07505083B760508A8870508C9
S3150800A3E02DE9F74380468946164600273378FCB29E
S3150800A3F0A34202D803B0BDE8F08306EB840408F153
S3150800A4000805284663784946124A2FF00FFEA078B9
S3150800A410C30705D5104928462FF01BFE0137E5E787
S3150800A420C0F3400003F028FFA3780246C3F30111E6
S3150800A430009128460949C3F381032FF0B3FDE2785A
S3150800A4403F2A01D10649E6E72846237905492FF030
S3150800A45000FEE3E746760508567605086A76050897
S3150800A4609C760508B676050870B50E46154600F1C1
S3150800A4700804204613680E4A2FF0FCFD3146204694
S3150800A4802B790C4A2FF0F6FD314620466B790A4A9D
S3150800A4902FF0F0FD31462046AB79084A2FF0EAFD49
S3150800A4A031462046EB79064ABDE870402FF0E2BDFA
S3150800A4B0D276050825730508ED760508E7760508BA
S3150800A4C0FD7605082DE9F04188461546002700F176
S3150800A4D008062B78FCB2A34201D8BDE8F0814146B4
S3150800A4E03046054A05EB04142FF0A0FD3046611CE2
S3150800A4F02FF077FD0137ECE7A88705082DE9F3412A
S3150800A5000D4616460B4C00F1080704F150080834AE
S3150800A510444502D102B0BDE8F08154F8083C29460A
S3150800A520F3583846009354F8043C034A2FF0A2FD2A
S3150800A530EDE700BFE4A40508CA7205082DE9F7434C
S3150800A54004460F461646164D00F1080905F150084F
S3150800A5500835454509D10727124D0834013F05F14D
S3150800A56008050ED103B0BDE8F08355F8083C394616
S3150800A570F35A4846009355F8043C0B4A2FF07AFDE7
S3150800A580E6E7204655F8042C08492FF00BFD55F848
S3150800A590083C20463344D3E900232FF019FDDDE7B4
S3150800A5A09CA405086CA40508DF720508A190050897
S3150800A5B0F8B514460D460646128800F108073846CF
S3150800A5C01149C2F3C8122FF044FD237829463846AC
S3150800A5D00E4A03F01F032FF04DFD14F8023B2946DF
S3150800A5E03846C3F341130A4A2FF044FD2946384634
S3150800A5F0084A2FF03FFD291D22463046BDE8F8409F
S3150800A600C9B2FFF71BBE00BF1477050824770508F3
S3150800A6103077050841770508024A034908302FF0C4
S3150800A620C1BC00BF68A405089C770508437F70B5C0
S3150800A63004460D4663B161B308462FF0B2FE2A46BA
S3150800A6400346144904F10800BDE870402FF001BD27
S3150800A650037F03B9FEE724291BD000F1080671B968
S3150800A66030460D492FF0F5FC002304F1200023772E
S3150800A67004F0A2FD2046BDE87040FFF7CDBF0846AE
S3150800A6802FF08FFE2A460346044930462FF0E1FC98
S3150800A690EAE770BD4777050856770508497705083C
S3150800A6A010B50446044908302FF0D3FC2046BDE80F
S3150800A6B010400021FFF7BABF5B77050810B419B937
S3150800A6C05DF8044BFFF7B2BF91F901300A785DF8DF
S3150800A6D0044B024908302FF0BCBC00BF6E77050852
S3150800A6E070B504460D4611461A462FF030FC002672
S3150800A6F023461A4AC4E90254A68343F8202FC4E91C
S3150800A7000A3422462946C4E90C5404F138002FF0CD
S3150800A71079FA2246294604F140002FF0C5FB224665
S3150800A7202946C4E92154C4E9235404F1940003F0EA
S3150800A730D1F82246294604F1A0002FF0F1F9224665
S3150800A740294604F1AC002FF0DBFA20462661666143
S3150800A750A661FFF761FF204670BD00BF4B9703084F
S3150800A76010B5054C13460A4601462046FFF7B8FFC2
S3150800A770024B1C6010BD00BFB814002058570020BB
S3150800A7802DE9F0410E4604462F49304690B041F077
S3150800A79098FA03467068C3B150B954F8080F30F0F8
S3150800A7A066F82A49024620462FF053FC002037E077
S3150800A7B007A941F0B2FA002832D1B368002B3ED17E
S3150800A7C00799A06830F04EF8F0E703A941F04EFA71
S3150800A7D030BB0546371D0DF11C0857F8040FB0B9F4
S3150800A7E030461B49EDB241F06CFAE0B1194B0194C1
S3150800A7F00093A0682B4607AA03A930F005F878B994
S3150800A800204641F288312EF0A3FF242008E0232DAC
S3150800A81015D008EB050141F0C4F901350028DCD054
S3150800A82010B0BDE8F08130460B4941F04AFA40B114
S3150800A8302B46A06807AA03A92FF0EBFFB6E7072067
S3150800A840EEE72320ECE700BF7C7705081C7B0508AC
S3150800A8509177050845980308427D0508F0B50B6809
S3150800A86085B00393224B054600930C230E465422CB
S3150800A87020490DEB030031F009FD044678B1D0E913
S3150800A8800132511005EB6200D20748BF6A5806F13B
S3150800A890040148BFD35805B0BDE8F0401847304614
S3150800A8A0154941F00EFAC8B1124F05F1080657F8D6
S3150800A8B024203046114903342FF0CBFBFC2CF6D16B
S3150800A8C000242A7DE3B29A420FD92A69304652F803
S3150800A8D033200A492FF0BDFB0134F2E731462846FA
S3150800A8E005B0BDE8F0402EF0E5BE002005B0F0BD8D
S3150800A8F02396030878A00508957705089C77050828
S3150800A90030B50C460023A3B005464FF4C071204667
S3150800A910019332F001FBB0F5C07F10D22046202209
S3150800A92001A918F0CDF804466B7F5BB14CB9019BC1
S3150800A9303BB1284601A9FFF791FF044607E0062424
S3150800A940F2E7FEE72B7F3BB901232B7764B121465B
S3150800A9502846FFF76BFE05E0074901A841F0B1F963
S3150800A9600028F1D123B030BD019B002BE1D1284648
S3150800A9702C77FFF751FEF5E7F8A80508012370B50F
S3150800A980044622250E4E8EB04377013D03D1284654
S3150800A99065770EB070BD56F8041B312201A849F040
S3150800A9A0F2FA002304F10800064901AA8DF83530A9
S3150800A9B02FF04FFB204601A9FFF7A2FFE5E700BFEE
S3150800A9C02CA505089A77050838B51D46094B14467F
S3150800A9D01B686BB1FFF7AEFB2A46214608302FF0FD
S3150800A9E0DEFAFFF7A7FB083003F06EFCFFF7A2FBC1
S3150800A9F038BD00BF5857002038B504460D4619B96A
S3150800AA00BDE83840FFF712BE91F83930083413F024
S3150800AA10200F12D001F10802204616492FF0C2FA7B
S3150800AA20204615492FF0BEFA204605F119012EF0E9
S3150800AA30B6FE204611492FF0B5FA6A8E204610490F
S3150800AA402FF0B0FA294620462EF0A9FE204695F8A2
S3150800AA5036200C492FF0A6FA204695F937200A49E0
S3150800AA602FF0A0FA204695F838200849BDE8384066
S3150800AA702FF0EFBA9F770508D8730508449705089D
S3150800AA80A8770508B2770508BA770508C1770508D3
S3150800AA90F0B50C46002393B005468C492046ADF820
S3150800AAA0063041F00EF90646B0B10B21884B894AAB
S3150800AAB005F1080003F00EFD2C4608AA54F8080F05
S3150800AAC00DF1060130F0B9F8002854D0204603F0FD
S3150800AAD0FBFB002013B0F0BD20467F4941F0F1F89A
S3150800AAE00028E9D120467D4941F0EBF806460028C2
S3150800AAF040F0998020467A4941F0E3F80746002855
S3150800AB0000F0E1807449201D41F0DBF838B90421D2
S3150800AB10744B754A05F1080003F0DCFC3E46A8684C
S3150800AB2008AA0DF1060130F088F80028D1D1BDF841
S3150800AB30302005F10804002E00F0B68020466B4947
S3150800AB402FF030FA204608A92EF029FE0A9802A905
S3150800AB50152230F0F2F8204602AA65492FF022FAAB
S3150800AB600B9802A9152230F0E8F82046614902AA96
S3150800AB702FF06FFAD3E7002E4ED09DF846302046C8
S3150800AB8013F0080F0CBF522243225B492FF00AFA32
S3150800AB902046BDF8302059492FF004FA20460A9A73
S3150800ABA057492FF0FFF920469DF93D2055492FF0CA
S3150800ABB0F9F920469DF93E2053492FF0F3F920462E
S3150800ABC09DF83C2051492FF0EDF99DF84620204686
S3150800ABD04F4902F001022FF0E5F99DF8462020467C
S3150800ABE04B49C2F340022FF0DDF99DF84620204676
S3150800ABF0C2F3800246492FF0D5F9204645492FF081
S3150800AC00D1F9204608A92EF0CAFD2046BDF84420F1
S3150800AC1041492FF01EFA4FE72046BDF830203F493C
S3150800AC202FF0C0F948E705F10804072120463C4BF8
S3150800AC303C4A03F04FFCA86808AA0DF106012FF05C
S3150800AC40FCFF00287FF445AFBDF830202046274991
S3150800AC502FF0A8F9204608A92EF0A1FD02A9BDF8F3
S3150800AC60400003F015FB3049024620462FF09AF9BA
S3150800AC7002A9BDF8420003F00BFB2C490246204608
S3150800AC802FF090F920469DF93D2029492FF08AF9A1
S3150800AC9020469DF93E201B492FF084F920460A9A42
S3150800ACA024492FF0D6F9C6E720461C492FF07AF931
S3150800ACB0204608A92EF073FDDDE90A2320461E4921
S3150800ACC02FF0C7F92BE7072004E700BFC98005085E
S3150800ACD05CA6050868A60508C9770508CE7705089D
S3150800ACE0E780050824A6050828A605081778050894
S3150800ACF04878050850780508DA770508E2770508E0
S3150800AD00EC770508F4770508FB7705080278050847
S3150800AD1009780508D87305080E780508E477050844
S3150800AD2038A6050840A60508237805082E780508DC
S3150800AD30387805083F7805085A78050830B50B684D
S3150800AD40044687B00846002B3BD1A06801A92FF01E
S3150800AD50A0FF054690BB0834204620492FF022F96B
S3150800AD60204601A92EF023FD2046BDF80C201C49DB
S3150800AD702FF06FF920469DF811201A492FF069F92E
S3150800AD8020469DF8122018492FF063F920469DF8B1
S3150800AD90132016492FF05DF920469DF81520144911
S3150800ADA02FF057F920469DF8162012492FF051F931
S3150800ADB020469DF8172010492FF04BF9284607B072
S3150800ADC030BD0E4940F07DFF28B1A06807B0BDE848
S3150800ADD030402FF063BF0725F0E700BF71780508FC
S3150800ADE07C7805088578050899780508AE780508F9
S3150800ADF03F730508B7780508CE780508E278050890
S3150800AE0037B50D4604461749284640F05AFF30B371
S3150800AE106B6863B9A0682FF0E5FE014610B90020FB
S3150800AE2003B030BD04F108002EF0C1FCF7E70E4967
S3150800AE30281D40F046FF30B10021A06803B0BDE8E8
S3150800AE4030402FF0C1BE08226946686840F018FFF6
S3150800AE500028E5D16946A0682FF0B6FEE0E7232072
S3150800AE60DEE700BFE9780508ED7805082DE9F04129
S3150800AE700C460546824920468EB040F022FF06461B
S3150800AE80C8B10E217F4B804A05F1080003F022FB6A
S3150800AE90A8682FF061FF4FF0000807461FFA88F1EF
S3150800AEA08F4276D805F1080003F00EFA00263046E0
S3150800AEB00EB0BDE8F0812046744940F002FF002834
S3150800AEC0E6D120680DF1020140F07CFE0646002816
S3150800AED0EDD1BDF80210A86802AA2FF0CCFF0646ED
S3150800AEE00028E4D108352846BDF8222068492FF005
S3150800AEF0B0F8BDF82020284666492FF0AAF828465B
S3150800AF0065492FF04FF8284602A92EF050FC9DF807
S3150800AF1031209DF8003001A962F30003C2F3400214
S3150800AF2062F3410362F3820368468DF800302FF01E
S3150800AF3021F95A49024628462FF08BF89DF8312008
S3150800AF4028465749C2F300122FF083F828469DF881
S3150800AF50242054492FF07DF82846049A52492FF0A8
S3150800AF6078F82846059A51492FF073F828469DF82F
S3150800AF7025204F492FF06DF828469DF926204D4982
S3150800AF802FF067F82846BDF82E204B492FF061F8B8
S3150800AF908DE7A86802AA2FF073FF002867D19DF8ED
S3150800AFA031301B0763D4BDF8222005F10804002EB2
S3150800AFB060D0204641492EF0F5FF2046BDF82020F6
S3150800AFC03F492EF0EFFF2046049A3E492EF0EAFF4D
S3150800AFD02046059A3B492EF0E5FF20469DF8252098
S3150800AFE039492EF0DFFF20469DF8242037492EF0F8
S3150800AFF0D9FF9DF831202046354902F001022EF08E
S3150800B000D1FF9DF8312020463149C2F340022EF087
S3150800B010C9FF9DF8312020462D49C2F380022EF043
S3150800B020C1FF20469DF830202A492EF0BBFF9DF827
S3150800B030312020462849C2F300122EF0B3FF2046DD
S3150800B040BDF82C2020492EF0ADFFBDF82E20204655
S3150800B0501D492EF0A7FF204620492EF0A3FF2046C3
S3150800B06002A92EF09CFB20461D492EF0F2FF08F19E
S3150800B070010813E720461B492EF094FFF7E700BFA7
S3150800B080C980050870A8050880A80508C9770508B5
S3150800B0901679050823790508717805088B87050848
S3150800B0A02E79050844790508877A0508AE780508D3
S3150800B0B085780508517905085A790508F378050849
S3150800B0C0E2770508FA78050802780508037905087D
S3150800B0D0097805080A7905080F790508D873050857
S3150800B0E079770508987605082DE9F0430D46044654
S3150800B0F06749284687B040F0E4FD074600285FD038
S3150800B1000921644B644A04F1080003F0E3F9A068D6
S3150800B1102FF0D3FE002680465FFA86F94946A068D6
S3150800B12001AA2FF0CCFE00283ED104F10805002F15
S3150800B13000F0A88028469DF80E2058492EF032FFC8
S3150800B1402846BDF80C2056492EF02CFF28469DF8B7
S3150800B1500F2054492EF026FF28469DF81020524904
S3150800B1602EF020FF28469DF8112050492EF01AFF90
S3150800B17028469DF812204E492EF014FF9DF81320FC
S3150800B18028464C492EF00EFF28464B492EF00AFF5A
S3150800B190284601A92EF003FB9DF8142028464749A6
S3150800B1A0C2F340022EF055FF0136F3B24345B3D938
S3150800B1B004F1080003F088F8002007B0BDE8F08322
S3150800B1C028463F4940F07DFD0028A0D128680DF1AA
S3150800B1D0020140F0F7FC0028EFD1BDF80210A06884
S3150800B1E001AA2FF06CFE0028E7D19DF81420083438
S3150800B1F002F00102204633492EF02BFF9DF8143049
S3150800B200DA07D9D520469DF80E202F492EF021FFC2
S3150800B2102046BDF80C202D492EF01BFF9DF80F2067
S3150800B22020462B4992022EF014FF9DF81420204642
S3150800B2302849C2F340022EF00CFF9DF814309B07F4
S3150800B240BAD5204624492EF0ADFE204601A92EF097
S3150800B250AEFA20469DF8102020492EF0FAFE204628
S3150800B2609DF811201E492EF0F4FE20469DF8122066
S3150800B2701C492EF0EEFE20469DF813201A492EF0A2
S3150800B280E8FE99E74A46284618492EF08BFE8BE7D2
S3150800B290C9800508D8A50508E4A50508B3770508F3
S3150800B2A0E2770508737905087A79050802780508AA
S3150800B2B081790508F3780508D873050873770508B2
S3150800B2C0C97705088879050852730508237905089A
S3150800B2D092790508A1790508717805083276050876
S3150800B2E08578050899780508AA79050898760508DD
S3150800B2F02DE9F0431E460023C9B0054690460F4681
S3150800B300ADF8063019BB00F108042046B3492EF003
S3150800B31049FE06F11001204603F008F8B049204618
S3150800B3202EF040FE40462FF00CFA064640462FF017
S3150800B3300AFA361AB6B26EB9204602F0C5FF06AE4C
S3150800B340324640460DF106012FF05CFAE8B149B0E5
S3150800B350BDE8F083102E4046B14628BF4FF01009CD
S3150800B3602FF0F1F9C1194B4602AA89B240462FF0CF
S3150800B370EEF94A46204602A902F0B6FFA6EB0906F0
S3150800B38007EB0903B6B29FB2D5E733782B2BD7D88C
S3150800B39001A252F823F000BF49B400085BB40008C4
S3150800B3A067B400087BB4000881B4000895B40008A7
S3150800B3B0BDB40008D1B40008E7B40008FBB400081F
S3150800B3C041B3000841B3000841B3000841B300087F
S3150800B3D023B5000829B500082FB5000863B500088D
S3150800B3E041B3000881B5000841B3000841B300081D
S3150800B3F041B3000887B5000841B300088BB50008BB
S3150800B40091B5000897B50008A3B5000841B3000830
S3150800B41041B3000841B3000841B3000841B300082E
S3150800B4200FB500089DB50008A9B50008A9B400081D
S3150800B430AFB50008BBB50008BFB50008D1B5000810
S3150800B440D5B50008D9B50008664920462EF0AAFDEC
S3150800B450204608A92EF0ABF971E7328962492046E1
S3150800B4602EF0F7FD6BE7204660492EF0F2FD042129
S3150800B470284608AAFEF7E2FE61E7B2685C49EEE7ED
S3150800B48020465C492EF0E5FD0421284608AAFEF769
S3150800B490F9FE54E7204658492EF0DBFD04212846DC
S3150800B4A008AAFEF76BFF4AE7204654492EF0D1FD5D
S3150800B4B00421284608AAFEF793FF40E7204650498C
S3150800B4C02EF0C7FD0421284608AAFEF7CDFF36E769
S3150800B4D020464C492EF066FD2046327A0DF12101B0
S3150800B4E02EF06DFD2BE7484920462EF0B2FD0421CB
S3150800B4F0284608AAFEF7E6FF21E7204643492EF02C
S3150800B500A8FD0421284608AAFEF7F8FF17E72046F3
