S01D00006275696C642F64656275672F6F742D6E63702D6674642E733337A6
S315080060000814002027BF06085DCF020861CF0208E2
S31508006010B5F2060865CF02086DCF02082BBF060841
S315080060202BBF06082BBF06082BBF06082BBF060882
S3150800603071CF0208F8EA07082BBF06082BBF060827
S3150800604029D602082BBF06082BBF06082BBF060851
S315080060502BBF06082BBF06082BBF06082BBF060852
S315080060602BBF0608BD3404080D5C07082BBF0608BD
S315080060702BBF06082BBF06082BBF06082BBF060832
S315080060802BBF06082BBF06082BBF06082BBF060822
S315080060902BBF0608D95103082BBF06082BBF0608D5
S315080060A02BBF060875DA020855DA02082BBF060860
S315080060B02BBF0608CDA20408C9AB0408596F070808
S315080060C0556F070815A304086F6F07085D6F070863
S315080060D099AB0408616F0708ADB5040809AC040854
S315080060E02BBF06082BBF06082BBF06082BBF0608C2
S315080060F02BBF06082BBF06082BBF06082BBF0608B2
S315080061002BBF06082BBF06082BBF06082BBF0608A1
S315080061102BBF06082BBF06082BBF06082BBF060891
S315080061202BBF06082BBF06082BBF06082BBF060881
S315080061302BBF06082BBF06082BBF06082BBF060871
S315080061402BBF06082BBF06082BBF0608A98407081D
S31508006150458F04082BBF0608718D0408A58D040811
S315080061602BBF06082BBF06082BBF06082BBF060841
S31508006180F0B5114A114C124E00F00105E3695F079C
S3150800619013D40DB9334213D103EA00078F4207D14E
S315080061A00B4A1A40002A14BF6FF001000020F0BD08
S315080061B0013AEBD16FF00200F9E74FF0FF30F6E74E
S315080061C06FF00100F3E700BF8096980000000350C7
S315080061D0020001000B4B70B5D96911F480310DD15D
S315080061E001244FF48072084E084DF46020462C6452
S315080061F01A61FFF7C5FF3464EC6070BD6FF00100EB
S31508006200FBE700BF000003500010035000200350B6
S315080062104FF4803238B50E4B0E4C9A66E56941F656
S31508006220713315400122E3630B4B0021DA60022328
S31508006230606121202361FFF7A3FF10B92120FFF732
S315080062409FFF0122054BDA600DB10023E36338BDD9
S315080062500090005000000350001003500020035027
S3150800626070B5134C6061E3695B071ED40E4656F899
S31508006270043B8D18A361AE420BD1042300212120D3
S315080062802361FFF77DFF58B9BDE870402120FFF76D
S3150800629077BF08210846FFF773FF10B1042323616F
S315080062A070BD56F8043BA361E5E74FF0FF30F7E70A
S315080062B0000003502DE9F84316464FF48032184B78
S315080062C089469A6603F51C33DA69074602F480386C
S315080062D041F67132DA63012203F58053114DDA6013
S315080062E066B930460122104BDA60B8F1000F03D0C8
S315080062F00022A3F50053DA63BDE8F88307F50054D6
S315080063002C40E41BB44228BF344649462246384648
S31508006310FFF7A6FF0028E5D12744A144361BDFE78F
S315080063200090005000E0FFFF00200350000000002E
S31508006330000000000000000000000000000000004F
S315080063402DE9F74F98460023DFF8B0B00746834596
S315080063508B41894615463ED226A3D3E900233DF054
S31508006360B3F81F491446024628464BF07AFB1D49E6
S315080063704EF66023B4FBF1F201FB1246B6FBF3FAC4
S31508006380002003FB1A664FF47A73BB4570EB0900CD
S31508006390B6FBF3F304D38C4202D218F0020F05D1F0
S315080063A02846114901934BF05CFB019B524628464F
S315080063B00E494BF056FB18F0010F0ED04FF47A73C6
S315080063C0B6FBF3F2284603FB1262094903B0BDE89F
S315080063D0F04F4BF046BB0446C9E703B0BDE8F08F63
S315080063E085AE070880EE36008BAE070891AE070823
S315080063F04BAC0708005C260500000000FF5B26057D
S3150800640073B565F013F9044600286ED13A4B01AE10
S315080064101A889B78ADF80420B37025F09FF925F00B
S31508006420EBFE25F049FE0546344B036026F0BAF824
S31508006430284625F0D7FF00B9FEE72DA3D3E90023A8
S315080064404FF0FF314FF0FF3025F090F925F038FE78
S31508006450214625F091FE65F0ECF8304625F084FFDC
S31508006460044600B1FEE7264B264A98801860264B5C
S3150800647098801A60254B264A98621A60254A9880A1
S315080064806FF06300DA6000F061F90B2025F066FE14
S3150800649025F0C4FE25F00AFE00B9FEE72FF098FFA6
S315080064A0204665F087FA0821084665F088FA00B1A3
S315080064B0FEE765F07DFA25F04FFD65F0C8F9102175
S315080064C0154868F040FF00B9FEE71449124868F01D
S315080064D04CFF00B9FEE710218C20114A2FF072FC00
S315080064E000B1FEE70F4846F0D8FD02B070BD00BF08
S315080064F00AE020FF220200006AEA0708E7B7060852
S31508006500A895002049B100207895002048950020DC
S31508006510C9B0002038950020F8990020957E070814
S31508006520E8990020C8B207080348044B834202D002
S31508006530034B03B11847704770BB002070BB00209F
S3150800654000000000064B0749C91A891048BF0131E7
S31508006550491003D0044B0BB101481847704700BFD8
S3150800656070BB002070BB00200000000010B5064C70
S31508006570237843B9FFF7D8FF044B13B10448AFF3A8
S3150800658000800123237010BD8AAF002000000000A0
S31508006590683C080808B5054B1BB105490548AFF323
S315080065A00080BDE80840FFF7CDBF00BF000000002F
S315080065B080980020683C0808A3F5803A704700BF19
S315080065C0174B002B08BF134B9D46FFF7F5FF00211D
S315080065D08B460F461348144A121A6FF0E3FB0E4B0C
S315080065E0002B00D098470D4B002B00D09847002071
S315080065F0002104000D000D48002802D00C48AFF316
S3150800660000803DF0A3FA200029006FF008FB3DF05A
S3150800661039F900BF00000800000000000000000073
S31508006620081400200814002040B2002000000000D2
S315080066300000000010B5044664F0C8FF2046BDE817
S315080066401040014924F04CBCE9B5040838B5084D9A
S31508006650D5E8AF3F13F0010408D1284665F056FA8D
S3150800666020B1044B28461C6065F055FA014838BD30
S31508006670989800209C98002070B51348D0E8AF4F32
S3150800668014F0010418D165F041FAA8B10F4D2E4651
S3150800669046F8044B30191022002110346FF082FBA3
S315080066A0A02CF7D10B220A4B013A194603F1100325
S315080066B004D1054865F02FFA044870BD286843F8E8
S315080066C0100C2960F0E700BFA0980020A4980020CD
S315080066D0A89800202DE9F041884615461E4644F044
S315080066E0E4FF074650B35EB30379990748BF86F8B7
S315080066F00080C3F34004037948BF01245A070ED526
S31508006700114B294693F9000057F002FE822302B284
S31508006710C2EB0222B2FBF3F232559CB901243B7953
S315080067201B0708D582228235C5EB0525B5FBF2F590
S31508006730631C3555DCB22046BDE8F0810446FAE70D
S315080067403446F8E70224F6E78BAF0020014B1870B1
S3150800675044F0CFBF8BAF002008B5012100203CF0E4
S31508006760E5FD0028A2BF0122014B1A7008BD00BF33
S315080067708CAF0020F0B51F461E4B04461B78164604
S31508006780B1B0002B33D024F0C7FC03AD1A4BB221AD
S315080067901A4A009028463DF04FF9601E032896BF16
S315080067A0174B184B53F820309F21174A0DF11F003D
S315080067B03DF042F9133084B23B463246C4F1B20189
S315080067C015FA80F03DF06EF9002810DB0444A4B2F7
S315080067D0B22C28BFB2240A2204F1C0036B4403F882
S315080067E0B42C621C2946002092B23CF073FD31B0ED
S315080067F0F0BD00BF8CAF00200D850708158507087A
S315080068005CC10708088507082FA3070870B5049D0B
S315080068100C46014600B12DB9C621064B064A074863
S315080068203DF012F80493284613462246BDE8704008
S315080068300BF07ABD3885070849860708AA85070830
S3150800684008B530B940F20911074B084A08483CF028
S31508006850FBFF038823F4FF4343F4506303800423B8
S315080068600370062008BD00BFAD860708BE86070868
S31508006870AA850708131D70B5DBB2144630B940F275
S3150800688017110D4B0D4A0E483CF0DEFF068803F043
S315080068907F0326F4FF46068003709B238370B82384
S315080068A0C370EA2303710023437111B106306FF0F8
S315080068B0CCFAA01DC0B270BDAD860708F0860708E1
S315080068C0AA85070808B5034A0349083045F0A4FD18
S315080068D0002008BD3D870708048D07080B6810B51A
S315080068E0044608464BB907F051F90246084904F12F
S315080068F0080045F091FD002010BD06495EF0E2FB58
S3150800690018B140F24E220449F1E72320F4E700BF0C
S31508006910048D070843870708189E070870B50B6893
S31508006920044694B0084683BB54F8080F02A946F0FB
S3150800693008FC2046BDF80820194945F06DFD20469B
S31508006940BDF80A20174945F067FD2046BDF80C201A
S31508006950154945F061FD0926144D013E05F1080566
S3150800696002D1002014B070BD55F8083C02AA1A449A
S3150800697002A9CB5A51682046019152880C490092C7
S3150800698055F8042C45F048FDE7E70A495EF09AFBFE
S3150800699018B1A06846F0D7FBE3E70720E2E700BF97
S315080069A047870708518707085A87070878CA0708D4
S315080069B067870708A39207080B6870B504460D4653
S315080069C063B954F8080F46F045F928B10E49204630
S315080069D045F022FD002070BD0C49F8E728460A4913
S315080069E05EF070FB064628B10121A068BDE870403C
S315080069F046F025B9284605495EF064FB08B13146DC
S31508006A00F3E70720E7E700BF7587070878870708D1
S31508006A1037B504466946806846F06AFF0546E8B910
S31508006A2008342046009A0F4945F0F6FC20469DF8A2
S31508006A3004200D4945F0F0FC20469DF805200B4939
S31508006A4045F0EAFC20469DF80620094945F0E4FC95
S31508006A5020469DF80720074945F0DEFC284603B086
S31508006A6030BD00BF7D8707088F870708A4870708FA
S31508006A709D870708B58707080B6837B50446084693
S31508006A8083B9A06846F022FA04F10805014618B150
S31508006A90A06825F053FD0146284606F0ADFF002004
S31508006AA003B030BD0DF1070107F00AF80028F7D149
S31508006AB09DF807201AB91146A06846F002FA9DF813
S31508006AC00710A06846F009FA0028E9D19DF80730B2
S31508006AD0002BE4D022460249A06846F0F2F9DEE728
S31508006AE02BB9040870B5044680680E4656F01CF9A2
S31508006AF0054607F04BF885420CD0304607495EF04C
S31508006B00E1FA48B104F108002A46054945F084FC33
S31508006B10002070BD0C20FCE70720FAE72391070840
S31508006B20048D070810B5044654F8080F46F008FF08
S31508006B3003490246204645F06FFC002010BD00BF01
S31508006B40918E0708024B034A083045F0C5BC00BFC2
S31508006B5099DA04088FDA040810B500F10804806889
S31508006B6046F026FF044B0549002808BF194620466B
S31508006B7045F052FC002010BDCF870708CA870708D2
S31508006B8070B50E6804460D4656B9083420461149B4
S31508006B9045F042FC2046104945F03EFC304670BDA3
S31508006BA028460C495EF08EFA30B1291D04F1A8007A
S31508006BB0BDE8704006F01AB9284607495EF082FA21
S31508006BC030B1291D04F1B400BDE8704006F03ABCA6
S31508006BD02320E4E7D58707081297070870B50E68DB
S31508006BE004460D4666B954F8080F46F07AFE46F094
S31508006BF07DFE18490246204645F00EFC304670BD1B
S31508006C00284615495EF05EFA20B1A068BDE87040D6
S31508006C1046F058BE284611495EF054FA20B1A068DD
S31508006C20BDE8704046F053BE28460D495EF04AFA64
S31508006C3020B1A068BDE8704046F089BF28460949DA
S31508006C405EF040FA20B1A068BDE8704046F085BF06
S31508006C500720D4E7048D0708DC870708E5870708B7
S31508006C60EB870708F1A60708F7B50E6804460D4630
S31508006C70002E37D100F1080503212846264B274A5E
S31508006C8006F0E4FEA06801AA0DF1020146F0BCFE7A
S31508006C9034460746BDF80220A3B29A4202D800201D
S31508006CA003B0F0BD019AA6B272431D49284645F0C5
S31508006CB053FBBDF802302846013B9E42BDBF019AF0
S31508006CC0184906FB0222184AACBF184902F1FF32DE
S31508006CD045F042FB284657F82620154945F09CFB07
S31508006CE00134D7E7284613495EF0ECF948B154F861
S31508006CF0080F46F08EFE10490246204645F08CFBEA
S31508006D00CDE728460D495EF0DDF918B1A06846F0D2
S31508006D1085FEC4E70720C3E740C7070844C7070836
S31508006D20F2870708FC870708018807080588070807
S31508006D3009880708E79107088B870708A3920708B9
S31508006D4010B50B68044686B008466BB954F8080FA8
S31508006D501822694645F05DFF6A4620460A4945F00D
S31508006D605BFB002006B010BD08495EF0ABF948B1E0
S31508006D7054F8080F45F04AFF02460B46204645F0F0
S31508006D8001FBEEE70720EDE7048D070816A20708C2
S31508006D9037B50C460546154920465EF093F998B175
S31508006DA0606808B3A368FBB90DF1070146F0C4FF94
S31508006DB0044630B99DF807200D4905F1080045F04D
S31508006DC02BFB204603B030BD20460A495EF07AF90F
S31508006DD040B1606840B1A36833B903B0BDE830403C
S31508006DE046F0ACBF2324ECE70724EAE71388070834
S31508006DF0448807081D88070838B50D687DB900F16D
S31508006E0008042046074945F0A7FA2046064945F0F2
S31508006E10A3FA2046054945F0FFFA284638BD23203F
S31508006E20FCE700BF9DB2070826880708C5A2070821
S31508006E3038B50C680546084624B9A86845F0E2FE48
S31508006E40204638BD05495EF03DF920B1A868BDE881
S31508006E50384045F0D9BE2320F3E700BF2B88070842
S31508006E6030B50D68044687B07DB954F8080F46F06A
S31508006E70E6FD1522694646F0ECFD20466A460449B9
S31508006E8045F0CAFA284607B030BD0720FBE700BF21
S31508006E90048D070810B5044608460A495EF012F93B
S31508006EA00346A0682BB1BDE810400022114646F003
S31508006EB0CBBD2246044946F0C7FD002808BF24205A
S31508006EC010BD00BF3688070837B9040838B50D461F
S31508006ED004460A4928465EF0F5F860B16D6855B96A
S31508006EE054F8080F46F0D4F805490246204645F0FE
S31508006EF093FA284638BD0720FCE700BF3C880708F8
S31508006F00189E070838B50D68044655B954F8080F91
S31508006F1046F00EFD04490246204645F07DFA28460D
S31508006F2038BD2320FCE700BF8B8707080B6837B5F9
S31508006F3005460C469BB980680DF1060146F04FF8E8
S31508006F40044648B9BDF806209DF806300C49120AD1
S31508006F5005F1080045F060FA204603B030BD084642
S31508006F605EF0A9F8022809D12368A868198849BAE1
S31508006F7089B203B0BDE8304046F02CB80724EBE7E9
S31508006F8042880708F8B50E460546124930465EF0AF
S31508006F9099F8074628B10121A868BDE8F84046F0E7
S31508006FA0F5BC30460C495EF08DF8044608B1394602
S31508006FB0F2E7304609495EF085F848B146F0F6FC36
S31508006FC00749024605F1080045F026FA2046F8BDAD
S31508006FD02320FCE778AA07084788070823910708AB
S31508006FE0189E070838B505460C4641B9006890470B
S31508006FF004490246284645F00FFA204638BD0720C0
S31508007000FCE700BF189E07082DE9F0430D68044603
S315080070100E4693B095BB806846F02AFDA946804681
S31508007020AFB2B84503D8002013B0BDE8F08339469F
S31508007030A06806AAADF8069046F0AEFD78B99DF8A8
S315080070404130C3F3C0021B0709D4ADF80620394600
S31508007050A06802AB0DF1060246F0A3FD08B10135A2
S31508007060DEE704F108063046BDF830200B4945F046
S3150800707073F9304602A945F08EF9E8E73046084923
S315080070805EF020F840B1074A716804F1080013B0B1
S31508007090BDE8F043FFF7A6BF2320C5E74C880708DD
S315080070A0E791070885DA040838B505460C4641B95C
S315080070B00068904704490246284645F0ADF920463F
S315080070C038BD0720FCE700BF8B870708024A096816
S315080070D00830FFF7E9BF00BFF1CB040830B50B68ED
S315080070E005460C4689B083B9019300F13804A868AF
S315080070F002AA01A945F098FB10B1002009B030BDDD
S31508007100204602A905F054F8F1E7204610495DF03B
S31508007110D9FF50B102A9201D45F096FA0028EDD1F5
S31508007120A86802A945F076FBE8E7204609495DF01C
S31508007130C9FF50B1606802A95DF09EFF0028DDD145
S31508007140A86802A945F06BFBD8E72320D6E700BF5D
S31508007150A1AA07085388070873B50C6805460E46A2
S315080071603CB120460DF107015DF05DFF60B102B04C
S3150800717070BD55F8080F46F078FD084902462846BE
S3150800718045F04AF92046F2E773682BB99DF90710CE
S31508007190A86846F06FFDEAE70720E8E72A890708A6
S315080071A07FB50C6805460E4664B955F8080F69465A
S315080071B046F01AFD28461022694645F0DAF82046B8
S315080071C004B070BD4B685BB91022694620465DF075
S315080071D058FF0028F4D16946A86846F00FFDEFE786
S315080071E030460A495DF06EFF70B1A868766846F0C9
S315080071F007FB0446A86846F040FA6B460246214655
S31508007200304645F040FCE4E70720D9E75A880708E6
S3150800721030B5044600F1080502212846114B124AEA
S315080072208DB006F013FCA06846F081FD044614B93B
S3150800723020460DB030BD20463022694645F08EFD09
S315080072406A462846094945F087F804F112003022B3
S31508007250694645F083FD6A462846054945F0DCF847
S31508007260246BE4E7B8C70708BCC707085D880708A2
S31508007270668807087FB500230C6805460E468DF814
S3150800728004308CB955F8080F46F027FA03A98DF88B
S31508007290080002A845F018FA18490246284645F09B
S315080072A0BBF8204604B070BD304615495DF00AFFAC
S315080072B028B19DF80410A86846F01FFAF2E732686C
S315080072C0013A12F8013F002BF3D06E2B11D0722B26
S315080072D003D0642B08D00720E4E79DF8043043F078
S315080072E001038DF80430ECE79DF8043043F00203FF
S315080072F0F7E79DF8043043F00403F2E7048D070826
S31508007300ACBC070810B50446086886B008B30DF18A
S3150800731017015DF042FED0B99DF817301F2B15D81E
S31508007320012199400C4B02940193002300934FF6D8
S31508007330FF72A06846F041FB48B904F1080007212E
S31508007340064B074A06F082FB242000E0072006B019
S3150800735010BD0146E6E700BF81B9040854C807080E
S315080073605CC8070873B50D680446002D34D100F1D2
S31508007370080603213046254B254A06F067FBA06818
S31508007380E9B246F081FC00B3A90289B20DF1030304
S31508007390A0680DF10602ADF8041046F07CFC1D4904
S315080073A02A46304644F0D8FF4FF6FE73BDF806204D
S315080073B030469A420BBF184B9DF803301A461749B8
S315080073C00CBF1749920A45F027F801353F2DD6D14B
S315080073D00025284602B070BD284601A95DF0EEFDDD
S315080073E005460028F5D154F8080FBDF804100DF12C
S315080073F003030DF1060246F04EFC20469DF80330C5
S31508007400BDF80620074945F007F8E2E7A8C70708C8
S31508007410ACC7070870880708ACBC0708798807084E
S3150800742085880708918807087FB50C460023054616
S3150800743022492046ADF80E305DF044FE064610B1EE
S31508007440606800BB0434206838B30DF10D015DF0A7
S31508007450A4FD00BB9DF80D301F2B1BD801249C40B2
S3150800746005F10800DEB10221154B164A06F0EEFAC0
S3150800747000952146144BBDF80E20A86845F052FD2C
S3150800748048B9242007E00DF10E015DF097FD10B90B
S315080074900834D8E7072004B070BD0446E0E70521A4
S315080074A00A4B0B4A06F0D2FA00952146094BBDF85D
S315080074B00E20A86845F02BFDE2E700BFA088070864
S315080074C06CC7070870C707083BB9040850C7070800
S315080074D058C7070881B9040813B50446086868B987
S315080074E054F8080F45F01EFB4FF47A720D49B0FBAD
S315080074F0F2F2204644F090FF00200EE04B6873B984
S3150800750001A95DF00BFE40B94FF47A71019BA068A2
S31508007510594345F00CFB0028EED002B010BD0720F9
S31508007520FBE700BF8B8707082DE9F0410B68ADF52F
S31508007530027D07460E4601ADA3B96C46009300F1DD
S3150800754038062A462146B86845F01FFF28B10024A8
S3150800755020460DF5027DBDE8F0812946304604F047
S315080075604BFEEEE7706802A95DF0D8FD04460028D8
S31508007570EED1FC236946B0680DF10D02ADF8003076
S315080075805DF08DFD04460028E2D1BDF800300BB948
S315080075900724DDE7304619492B725DF093FDF0B1FB
S315080075A0F06870B1F823694643AAADF800305DF07B
S315080075B076FD04460028CBD1BDF80040002CE7D064
S315080075C0E4B295F80631294643F00103B86885F810
S315080075D0074185F8063145F0ADFE0446B8E7304662
S315080075E007495DF06FFD0028B2D02B7A6968B86844
S315080075F00DF10D0245F0BCFEEFE700BFA1AA070892
S315080076005388070837B5054608680DF1070170B9AC
S31508007610A86824F0ABFF044630B99DF907200A494B
S3150800762005F1080044F0F8FE204603B030BD5DF0D1
S31508007630FAFC04460028F7D19DF90710A86824F03B
S315080076409FFF0446F0E700BFB08807080B6837B508
S3150800765004460D4673B980680DF1070155F06AFBBB
S3150800766018BB9DF90720134904F1080044F0D4FE1D
S3150800767000201AE0284610495DF024FDB8B1686874
S315080076800DF1070138B9A06855F054FB68B99DF9A2
S3150800769007200A49E8E75DF0C6FC30B99DF90710EE
S315080076A0A06855F049FB0028E2D003B030BD07209A
S315080076B0FBE700BFA7880708B78807082A890708CD
S315080076C037B5054608680DF1070170B9A86864F072
S315080076D07EF9044630B99DF907200A4905F10800E4
S315080076E044F09AFE204603B030BD5DF09CFC04468B
S315080076F00028F7D19DF90710A86863F0FEFF044635
S31508007700F0E700BFB08807080B68F7B504460D46D2
S31508007710002B35D154F8080F46F0C8F9054603780A
S315080077203B49032B96BF3B4A3B4A52F82320204647
S3150800773044F072FE687800F0010006F04DF837490B
S315080077400246204644F068FE6878C0F3400006F01A
S3150800775043F833490246204644F05EFE6878C0F393
S31508007760800006F039F82F490246204644F054FEB8
S31508007770204695F902202C4944F04EFE002044E0AC
S315080077800026244F284657F8041B5DF09BFCC0B31F
S3150800779068680DF103018DF804605DF0C3FCA0BBB9
S315080077A09DF805309DF80320A86862F300030DF1E3
S315080077B003018DF805305DF0B5FC30BB9DF805304A
S315080077C09DF80320E86862F341030DF103018DF883
S315080077D005305DF0A7FCC0B99DF805309DF803207B
S315080077E0286962F382030DF106018DF805305DF014
S315080077F01AFC50B96B693BB9A06801A946F05AF959
S31508007800BCE70136042EBDD1072003B0F0BD00BF8A
S31508007810BF88070834C807083CD20708D588070870
S31508007820EB880708018907081789070870B50D4608
S3150800783004463C49284688B05DF044FC064600B13B
S3150800784004352B6813BB54F8080F45F008FA0546AB
S315080078500DB9002030E02946204606F023F886B107
S31508007860687C06F075F9A97C2B7CC1F3400101916F
S31508007870A97C024601F00101009120462A4944F0FC
S315080078806BFD204605F0D0FF6D69E1E728462749DC
S315080078905DF018FC90B1686802A95DF0E3FB58B981
S315080078A0069BA0686FF3110343F4403343F4507307
S315080078B002A9069345F0DCF908B070BD28461C49B4
S315080078C05DF000FC50B1686802A95DF0CBFB0028AA
S315080078D0F2D1A06802A945F0CFF9EDE72846154987
S315080078E05DF0F0FB40B154F8080F45F07EFF014605
S315080078F0204644F050FDACE728460F495DF0E2FB10
S3150800790020B154F8080F45F04AFFF0E728460B491E
S315080079105DF0D8FB20B154F8080F45F044FFE6E7C0
S315080079202320C9E71D9607082D890708A1AA070875
S315080079301D91070856890708608907086589070899
S3150800794030B50B6804460D4685B06BB954F8080F78
S3150800795045F096F905460DB9002015E0294620465A
S3150800796044F019FD2D69F6E728461D495DF0AAFB86
S3150800797060B1694668685DF075FB28B96946A06814
S3150800798045F083F90028E7D005B030BD28461549EB
S315080079905DF098FB50B1694668685DF063FB0028A6
S315080079A0F2D16946A06845F074F9EDE728460E4914
S315080079B05DF088FB40B154F8080F45F019FF014601
S315080079C0204644F0E8FCC7E7284608495DF07AFBFC
S315080079D020B154F8080F45F00FFFF0E72320D3E74E
S315080079E0A1AA07081D9107086B8907087189070866
S315080079F030B50B6804460D4689B07BB9019300F192
S31508007A003805A06802AA01A944F0FFFE08B10020C3
S31508007A1012E0284602A904F0A7FBF2E72846204907
S31508007A205DF050FB50B102A9281D44F0ABFD18B912
S31508007A30A06802A944F0DFFE09B030BD28461949FE
S31508007A405DF040FB50B1686802A95DF015FB00289F
S31508007A50F2D1A06802A944F0D3FEEDE72846124900
S31508007A605DF030FBD0B1686840B954F8080F45F0AE
S31508007A709EFE0146204644F0A0FCC8E702A95DF038
S31508007A80FBFA0028D8D19DF81830402B04D1A068FD
S31508007A9002A945F090FECFE70720CDE72320CBE7E4
S31508007AA0A1AA07085388070877890708024B1868A8
S31508007AB000B9FEE7704700BF489900202DE9F0415C
S31508007AC0074686B0806845F059F94FF00508044620
S31508007AD0244EB8F1010806F1080607F1080520D179
S31508007AE02846226E204944F097FC2846626E1F49B4
S31508007AF044F092FC2846A26E1D4944F08DFC2846A7
S31508007B00E26E1C4944F088FC2846226F1A4944F064
S31508007B1083FC2846626F194944F07EFC06B0BDE82E
S31508007B20F081284656F8042C154944F015FC56F8F9
S31508007B30083C6A462344D3E9000144F0E5FB1149B1
S31508007B400246284644F008FC56F8083C6A46234490
S31508007B50D3E9020144F0D8FB0B490246284644F013
S31508007B605BFCB6E710CA07089B890708A6890708B9
S31508007B70B8890708C9890708D4890708E68907085C
S31508007B808189070885890708918907080B68F7B569
S31508007B9004460D4693B908342046764944F03CFC21
S31508007BA02046754944F038FC2046744944F034FCB4
S31508007BB02046734944F030FC002010E028466D4901
S31508007BC05DF080FAA0B16B681BB92046FFF776FF17
S31508007BD0F2E76C49281D5DF075FA10B9072003B065
S31508007BE0F0BDAB68002BF9D1A06845F0CBF8E3E708
S31508007BF0284662495DF066FA002841D06B6893BB57
S31508007C0054F8080F45F078F95F490268054620469A
S31508007C1044F002FC11275D4E013F06F1080616D115
S31508007C2020466A6C5A4944F0F7FB1127594E013F22
S31508007C3006F10806C0D056F8083C0421EB58204641
S31508007C40009356F8043C544A44F0F7FBEFE756F81D
S31508007C50083C0421EB582046009356F8043C4E4A4B
S31508007C6044F0EBFBD8E74749281D5DF02BFA0028BE
S31508007C70B4D0AB68002BB1D1A06845F041F99BE7B9
S31508007C8028463F495DF01EFA002844D06B689BBB26
S31508007C9054F8080F45F0C9FE0B2706463F4D013F2D
S31508007CA005F108050FD106273D4D013F05F10805E9
S31508007CB013D120463B4944F04FFBD6E91023204612
S31508007CC044F060FB78E755F8083C2046F35A55F827
S31508007CD0042C354944F0A0FBE1E7204655F8042C6E
S31508007CE0324944F039FB55F8083C20463344D3E979
S31508007CF0002344F047FBD8E72249281D5DF0E2F946
S31508007D0000283FF46BAFAB68002B7FF467AFA06821
S31508007D1045F090FE50E7284617495DF0D3F900284C
S31508007D203FF45CAF6B68ABB954F8080F45F061FED9
S31508007D30052607461E4D013E05F108053FF43CAFF2
S31508007D4055F8083C2046FB5855F8042C124944F0CF
S31508007D5063FBF0E70B49281D5DF0B4F900283FF4F2
S31508007D603DAFAB68002B7FF439AFA06845F045FE00
S31508007D7022E700BFFBA60708AA970708B6970708D1
S31508007D80C3970708A3920708F789070890C9070841
S31508007D900C8A070810C90708048A0708C0C8070814
S31508007DA098C80708308A0708198A0708208A070822
S31508007DB078C8070838B50C4600F10805284605F0C6
S31508007DC071FD228A28461D4944F0C6FAA37C284636
S31508007DD0032B96BF1A4A1B4A52F823201A4944F025
S31508007DE0BBFAE27C2846194902F0010244F0B4FACB
S31508007DF0A37CE3B9E37C5B0714D52846144962697A
S31508007E0044F0AAFA284604F1180105F04BFDA37CB4
S31508007E10032B07D1E37C2846628D0E49C3F3400342
S31508007E2044F09AFA2846BDE8384005F0FDBC2846D5
S31508007E30228D094944F090FAE9E700BF908E0708B9
S31508007E4044C807083CD20708038D0708458A07086F
S31508007E50528A0708728A0708668A070810B50B68E7
S31508007E6096B000938B880E49ADF804300D4B00F19F
S31508007E700804002A18BF0B46029300232046ADF8D3
S31508007E80563005F0D1FC684645F00DF908B116B034
S31508007E9010BD2046044903AA44F0BEFAF3E700BF22
S31508007EA08D8A0708908A0708048D070870B5154655
S31508007EB00E46137800F1080420460B4A03F0010326
S31508007EC044F0BBFA2B7831462046084AC3F34003F0
S31508007ED044F0B3FA2B7831462046BDE87040044A90
S31508007EE0C3F3800344F0A9BA938A0708A48A07084B
S31508007EF0B38A070870B50E46154600F108042046F1
S31508007F0092F900301A4A44F098FA314620466B78BE
S31508007F10184A44F092FA31462046AB78164A44F09D
S31508007F208CFA31462046EB78144A44F086FA3146F4
S31508007F3020462B79124A44F080FA314620466B795E
S31508007F40104A44F07AFA31462046AB790E4A44F094
S31508007F5074FA314620462B890C4A44F06EFA3146AB
S31508007F602046AB7A0A4ABDE8704044F066BA00BFBC
S31508007F70C38A0708D68A0708E78A0708F88A070817
S31508007F80098B0708188B0708278B0708398B0708FA
S31508007F904B8B070870B515460E4600F108042046B7
S31508007FA012780E4944F038FA6B78314620460C4A66
S31508007FB003F0030344F041FA6B7831462046094A38
S31508007FC0C3F3810344F039FA6B7831462046BDE89D
S31508007FD07040054A1B0944F030BA00BF608B070899
S31508007FE0708B0708838B0708958B07082DE9F843DC
S31508007FF00C4600F108081378074615464046114A0C
S3150800800044F01BFA214640460F4A44F016FA002669
S3150800801004F1040906345FFA89F9E4B201366A788C
S31508008020731E9BB29A4201D8BDE8F883494640467A
S31508008030064A44F0DEF92146384605EB4602FFF7C4
S31508008040A9FFEBE7188B0708A38B070872A2070896
S315080080502DE9F74380468946164600273378FCB251
S31508008060A34202D803B0BDE8F08306EB840408F106
S315080080700805284663784946124A44F0BAF9A078B2
S31508008080C30705D51049284644F0C6F90137E5E780
S31508008090C0F3400005F0A0FBA3780246C3F3011124
S315080080A0009128460949C3F3810344F055F9E2785B
S315080080B03F2A01D10649E6E728462379054944F0CF
S315080080C0ABF9E3E7AE8B0708BE8B0708D28B070828
S315080080D0048C07081E8C070870B50E46154600F175
S315080080E00804204613680E4A44F0A7F9314620468C
S315080080F02B790C4A44F0A1F9314620466B790A4A95
S3150800810044F09BF931462046AB79084A44F095F984
S3150800811031462046EB79064ABDE8704044F08DB9F1
S315080081203A8C07088F870708558C07084F8C07086D
S31508008130658C07082DE9F04188461546002700F1A9
S3150800814008062B78FCB2A34201D8BDE8F081414667
S315080081503046054A05EB041444F04BF93046611CD9
S3150800816044F019F90137ECE772A207082DE9F34143
S315080081700D4616460B4C00F1080704F15008083462
S31508008180444502D102B0BDE8F08154F8083C2946BE
S31508008190F3583846009354F8043C034A44F04DF922
S315080081A0EDE700BF38C60708048A07082DE9F74334
S315080081B004460F461646164D00F1080905F1500803
S315080081C00835454509D10727124D0834013F05F101
S315080081D008050ED103B0BDE8F08355F8083C3946CA
S315080081E0F35A4846009355F8043C0B4A44F025F9DF
S315080081F0E6E7204655F8042C084944F0ADF855F84A
S31508008200083C20463344D3E9002344F0BBF8DDE7B5
S31508008210F0C50708C0C50708198A070857AE070832
S31508008220F8B514460D460646128800F10807384682
S315080082301149C2F3C81244F0EFF8237829463846A4
S315080082400E4A03F01F0344F0F8F814F8023B2946D7
S315080082503846C3F341130A4A44F0EFF8294638462C
S31508008260084A44F0EAF8291D22463046BDE8F84097
S31508008270C9B2FFF71BBE00BF7C8C07088C8C0708A9
S31508008280988C0708A98C0708024A0349083044F065
S3150800829063B800BFBCC50708048D0708437F70B5DF
S315080082A004460D4663B161B3084644F091FC2A467C
S315080082B00346144904F10800BDE8704044F0ACB820
S315080082C0037F03B9FEE724291BD000F1080671B91C
S315080082D030460D4944F0A0F8002304F12000237726
S315080082E008F0C2FB2046BDE87040FFF7CDBF084640
S315080082F044F06EFC2A4603460449304644F08CF89E
S31508008300EAE770BDAF8C0708BE8C0708B18C070872
S3150800831010B504460449083044F07EF82046BDE806
S3150800832010400021FFF7BABFC38C070810B419B96B
S315080083305DF8044BFFF7B2BF91F901300A785DF892
S31508008340044B0249083044F067B800BFD68C0708CA
S3150800835070B504460D4611461A4643F0D2FF00266C
S315080083602346204AC4E90254A68343F8202FC4E9C9
S315080083700A3422462946C4E90C5404F1380003F0AD
S31508008380E3FE2246294604F1440043F067FF2246ED
S315080083902946C4E92254C4E92454C4E92654C4E944
S315080083A0285404F1A80004F037FA22462946C4E9FD
S315080083B02D5404F1BC0043F055FD2246294604F12C
S315080083C0C80043F065FE2246294604F1D40043F06E
S315080083D0BBFD204626616661A661FFF755FF20466C
S315080083E070BD00BF4BB9040810B5054C13460A46C4
S315080083F001462046FFF7ACFF024B1C6010BD00BFCC
S3150800840008140020489900202DE9F0410E4604463C
S315080084102F49304690B05CF055FE03467068C3B1EC
S3150800842050B954F8080F44F076FF2A490246204608
S3150800843043F0F2FF002037E007A95CF06FFE002842
S3150800844032D1B368002B3ED10799A06844F05EFF8D
S31508008450F0E703A95CF006FE30BB0546371D0DF1B3
S315080084601C0857F8040FB0B930461B49EDB25CF04A
S3150800847029FEE0B1194B01940093A0682B4607AA80
S3150800848003A944F015FF78B9204641F2883143F034
S315080084905FFA242008E0232D15D008EB05015CF0CF
S315080084A07CFD01350028DCD010B0BDE8F0813046EF
S315080084B00B495CF007FE40B12B46A06807AA03A942
S315080084C044F0FBFEB6E70720EEE72320ECE700BF03
S315080084D0E48C070884900708F98C070821BA040871
S315080084E0A3920708F0B50B6885B00393234B05469E
S315080084F000930C230E465C2221490DEB030048F03D
S3150800850079FA044678B1D0E90132511005EB6200D8
S31508008510D20748BF6A5806F1040148BFD35805B0C8
S31508008520BDE8F0401847304616495CF0CBFDD0B19F
S31508008530134F05F1080657F824203046124903342C
S3150800854043F06AFFB4F58A7FF5D100242A7DE3B2A9
S315080085509A420FD92A69304652F833200A4943F01D
S315080085605BFF0134F2E73146284605B0BDE8F04026
S3150800857043F0A0B9002005B0F0BD00BF23B8040839
S315080085806CC10708FD8C0708048D070830B50C4632
S315080085900023A3B005464FF4C0712046019349F065
S315080085A083F9B0F5C07F10D22046202201A921F018
S315080085B0E1F804466B7F5BB14CB9019B3BB1284699
S315080085C001A9FFF78FFF044607E00624F2E7FEE756
S315080085D02B7F3BB901232B7764B121462846FFF749
S315080085E05DFE05E0074901A85CF06CFD0028F1D1A5
S315080085F023B030BD019B002BE1D128462C77FFF72D
S3150800860043FEF5E7B8CA0708012370B504463125C5
S315080086100E4E8EB04377013D03D1284665770EB0DE
S3150800862070BD56F8041B312201A86DF0D0FB00235B
S3150800863004F10800064901AA8DF8353043F0ECFE2E
S31508008640204601A9FFF7A2FFE5E700BF80C6070895
S31508008650028D070838B504460D4619B9BDE83840F5
S31508008660FFF71CBE91F83930083413F0200F12D0EA
S3150800867001F108022046164943F06EFE20461549C8
S3150800868043F06AFE204605F1190143F076F92046C3
S31508008690114943F061FE6A8E2046104943F05CFE9C
S315080086A02946204643F069F9204695F836200C49B4
S315080086B043F052FE204695F937200A4943F04CFE0E
S315080086C0204695F838200849BDE8384043F0A4BE4E
S315080086D0078D0708768807086DB90708108D0708FB
S315080086E01A8D0708228D0708298D0708F0B50C464C
S315080086F0002393B005468C492046ADF806305CF059
S31508008700E1FC0646B0B10B21884B894A05F1080001
S3150800871005F09CF92C4608AA54F8080F0DF1060135
S3150800872045F0DAF8002854D0204605F07DF80020F8
S3150800873013B0F0BD20467F495CF0C4FC0028E9D19F
S3150800874020467D495CF0BEFC0646002840F099802C
S3150800875020467A495CF0B6FC0746002800F0E1801E
S315080087607449201D5CF0AEFC38B90421744B754A77
S3150800877005F1080005F06AF93E46A86808AA0DF151
S31508008780060145F0A9F80028D1D1BDF8302005F139
S315080087900804002E00F0B68020466B4943F0DCFD45
S315080087A0204608A943F0E9F80A9802A9152245F0D7
S315080087B050F9204602AA654943F0CEFD0B9802A956
S315080087C0152245F046F92046614902AA43F024FEDF
S315080087D0D3E7002E4ED09DF84630204613F0080FFA
S315080087E00CBF522243225B4943F0B6FD2046BDF832
S315080087F03020594943F0B0FD20460A9A574943F0BC
S31508008800ABFD20469DF93D20554943F0A5FD204680
S315080088109DF93E20534943F09FFD20469DF83C2094
S31508008820514943F099FD9DF8462020464F4902F0EC
S31508008830010243F091FD9DF8462020464B49C2F3BC
S31508008840400243F089FD9DF846202046C2F3800287
S31508008850464943F081FD2046454943F07DFD2046C3
S3150800886008A943F08AF82046BDF84420414943F058
S31508008870D3FD4FE72046BDF830203F4943F06CFD55
S3150800888048E705F10804072120463C4B3C4A05F019
S31508008890DDF8A86808AA0DF1060145F01DF80028BC
S315080088A07FF445AFBDF830202046274943F054FDF4
S315080088B0204608A943F061F802A9BDF8400004F073
S315080088C097FF30490246204643F046FD02A9BDF807
S315080088D0420004F08DFF2C490246204643F03CFD39
S315080088E020469DF93D20294943F036FD20469DF94D
S315080088F03E201B4943F030FD20460A9A244943F09E
S315080089008BFDC6E720461C4943F026FD204608A9EC
S3150800891043F033F8DDE90A2320461E4943F07CFD7F
S315080089202BE7072004E700BF43960708FCC707089C
S3150800893008C80708318D0708368D070861960708A5
S31508008940C4C70708C8C707087F8D0708B08D07087A
S31508008950B88D0708428D07084A8D0708548D070801
S315080089605C8D0708638D07086A8D0708718D0708EF
S3150800897076880708768D07084C8D0708D8C7070834
S31508008980E0C707088B8D0708968D0708A08D07088E
S31508008990A78D0708C28D070830B50B68044687B04F
S315080089A00846002B3BD1A06801A944F0CEFF054636
S315080089B090BB08342046204943F0CEFC204601A946
S315080089C042F0E3FF2046BDF80C201C4943F024FD85
S315080089D020469DF811201A4943F01EFD20469DF8B1
S315080089E01220184943F018FD20469DF81320164911
S315080089F043F012FD20469DF81520144943F00CFD5E
S31508008A0020469DF81620124943F006FD20469DF89B
S31508008A101720104943F000FD284607B030BD0E491F
S31508008A205CF050FB28B1A06807B0BDE8304044F0C0
S31508008A30A8BF0725F0E700BFD98D0708E48D07080A
S31508008A40ED8D0708018E0708168E0708A9870708FF
S31508008A501F8E0708368E07084A8E070837B50D4653
S31508008A600446174928465CF02DFB30B36B6863B99A
S31508008A70A06844F006FF014610B9002003B030BDD7
S31508008A8004F1080042F081FFF7E70E49281D5CF063
S31508008A9019FB30B10021A06803B0BDE8304044F0AE
S31508008AA0E3BE0822694668685CF0EBFA0028E5D15F
S31508008AB06946A06844F0D8FEE0E72320DEE700BF59
S31508008AC0518E0708558E07082DE9F0410C460546D4
S31508008AD0824920468EB05CF0F5FA0646C8B10E21EA
S31508008AE07F4B804A05F1080004F0B0FFA86844F0FF
S31508008AF0BFFF4FF0000807461FFA88F18F4276D865
S31508008B0005F1080004F090FE002630460EB0BDE8D8
S31508008B10F081204674495CF0D5FA0028E6D1206831
S31508008B200DF102015CF04AFA06460028EDD1BDF8BF
S31508008B300210A86802AA45F02AF806460028E4D1D9
S31508008B4008352846BDF82220684943F065FCBDF87B
S31508008B5020202846664943F05FFC2846654943F0CD
S31508008B60FBFB284602A942F010FF9DF831209DF82C
S31508008B70003001A962F30003C2F3400262F3410325
S31508008B8062F3820368468DF8003043F09DFD5A492A
S31508008B900246284643F040FC9DF8312028465749AE
S31508008BA0C2F3001243F038FC28469DF824205449A5
S31508008BB043F032FC2846049A524943F02DFC2846D5
S31508008BC0059A514943F028FC28469DF825204F4927
S31508008BD043F022FC28469DF926204D4943F01CFC0B
S31508008BE02846BDF82E204B4943F016FC8DE7A868A9
S31508008BF002AA44F0D1FF002867D19DF831301B073F
S31508008C0063D4BDF8222005F10804002E60D0204662
S31508008C10414943F0A1FB2046BDF820203F4943F0D7
S31508008C209BFB2046049A3E4943F096FB2046059A4C
S31508008C303B4943F091FB20469DF82520394943F0EE
S31508008C408BFB20469DF82420374943F085FB9DF889
S31508008C5031202046354902F0010243F07DFB9DF89C
S31508008C60312020463149C2F3400243F075FB9DF896
S31508008C70312020462D49C2F3800243F06DFB204681
S31508008C809DF830202A4943F067FB9DF8312020469D
S31508008C902849C2F3001243F05FFB2046BDF82C209A
S31508008CA0204943F059FBBDF82E2020461D4943F0C4
S31508008CB053FB2046204943F04FFB204602A942F0C9
S31508008CC05CFE20461D4943F0A7FB08F1010813E79F
S31508008CD020461B4943F040FBF7E700BF43960708C9
S31508008CE030CA070840CA0708318D07087E8E07086C
S31508008CF08B8E0708D98D070855A20708968E070890
S31508008D00AC8E0708EF8F0708168E0708ED8D070843
S31508008D10B98E0708C28E07085B8E07084A8D0708B2
S31508008D20628E07086A8D07086B8E0708718D07081B
S31508008D30728E0708778E070876880708E18C070879
S31508008D40008C07082DE9F0430D4604466749284676
S31508008D5087B05CF0B7F9074600285FD00921644B55
S31508008D60644A04F1080004F071FEA06844F031FF7B
S31508008D70002680465FFA86F94946A06801AA44F0AB
S31508008D802AFF00283ED104F10805002F00F0A8802C
S31508008D9028469DF80E20584943F0DEFA2846BDF8C5
S31508008DA00C20564943F0D8FA28469DF80F20544916
S31508008DB043F0D2FA28469DF81020524943F0CCFADF
S31508008DC028469DF81120504943F0C6FA28469DF8D2
S31508008DD012204E4943F0C0FA9DF8132028464C4904
S31508008DE043F0BAFA28464B4943F0B6FA284601A991
S31508008DF042F0C3FD9DF8142028464749C2F34002B5
S31508008E0043F00AFB0136F3B24345B3D904F108002F
S31508008E1004F00AFD002007B0BDE8F08328463F4964
S31508008E205CF050F90028A0D128680DF102015CF029
S31508008E30C5F80028EFD1BDF80210A06801AA44F0D1
S31508008E40CAFE0028E7D19DF81420083402F0010272
S31508008E502046334943F0E0FA9DF81430DA07D9D5AD
S31508008E6020469DF80E202F4943F0D6FA2046BDF835
S31508008E700C202D4943F0D0FA9DF80F2020462B49A7
S31508008E80920243F0C9FA9DF8142020462849C2F3F5
S31508008E90400243F0C1FA9DF814309B07BAD5204624
S31508008EA0244943F059FA204601A942F06EFD2046AE
S31508008EB09DF81020204943F0AFFA20469DF811206E
S31508008EC01E4943F0A9FA20469DF812201C4943F092
S31508008ED0A3FA20469DF813201A4943F09DFA99E70C
S31508008EE04A462846184943F037FA8BE74396070857
S31508008EF078C7070884C707081B8D07084A8D07081F
S31508008F00DB8E0708E28E07086A8D0708E98E0708D0
S31508008F105B8E070876880708DB8C0708318D0708FB
S31508008F20F08E0708BC8707088B8E0708FA8E070895
S31508008F30098F0708D98D07089A8B0708ED8D07084A
S31508008F40018E0708128F0708008C07082DE9F043E1
S31508008F501E460023C9B0054690460F46ADF80630B2
S31508008F6019BB00F108042046B34943F0F5F906F1A8
S31508008F701001204604F096FCB049204643F0ECF96F
S31508008F80404644F0B6F80646404644F0B4F8361A69
S31508008F90B6B26EB9204604F047FC06AE32464046E5
S31508008FA00DF1060144F082F9E8B149B0BDE8F08355
S31508008FB0102E4046B14628BF4FF0100944F09BF8E2
S31508008FC0C1194B4602AA89B2404644F0A6F84A4659
S31508008FD0204602A904F038FCA6EB090607EB0903AC
S31508008FE0B6B29FB2D5E733782B2BD7D801A252F861
S31508008FF023F000BFA5900008B7900008C3900008AA
S31508009000D7900008DD900008F19000081991000833
S315080090102D91000843910008579100089D8F00087C
S315080090209D8F00089D8F00089D8F00087F9100087E
S31508009030859100088B910008BF9100089D8F000854
S31508009040DD9100089D8F00089D8F00089D8F000800
S31508009050E39100089D8F0008E7910008ED9100084C
S31508009060F3910008FF9100089D8F00089D8F000866
S315080090709D8F00089D8F00089D8F00086B91000842
S31508009080F991000805920008059100080B9200085E
S31508009090179200081B9200082D92000831920008CA
S315080090A0359200086649204643F056F9204608A935
S315080090B042F06BFC71E732896249204643F0ACF90D
S315080090C06BE72046604943F0A7F90421284608AA19
S315080090D0FEF7ECFE61E7B2685C49EEE720465C49BC
S315080090E043F09AF90421284608AAFEF703FF54E735
S315080090F02046584943F090F90421284608AAFEF765
S3150800910075FF4AE72046544943F086F90421284664
S3150800911008AAFEF79DFF40E72046504943F07CF930
S315080091200421284608AAFEF7D7FF36E720464C4909
S3150800913043F012F92046327A0DF1210143F019F96C
S315080091402BE74849204643F067F90421284608AA30
S31508009150FEF7F0FF21E72046434943F05DF9042175
S31508009160284608AAFFF702F817E720463F4943F0C2
S3150800917053F90421284608AAFFF718F80DE7327AAA
S315080091803B499AE732893B4997E720463A4943F0F3
S3150800919043F900270DF12209327ABBB29A427FF6CB
S315080091A0FCAE04212046354A43F023F94A460621F7
S315080091B02846FFF735F8013709F10409ECE7204698
S315080091C02F4943F0C9F820460DF12101327A04F0FF
S315080091D03BFB20462B4943F01FF9DEE6B2682A49D5
S315080091E06BE72A495FE72A4908AA66E7294908AAD0
S315080091F063E7294908AA60E7284908AA5DE72849D4
S3150800920008AA5AE7B268274957E7307A04F0ACFC4F
S315080092102549024651E7254994E72549204643F062
S315080092209BF8204608A943F0C8F8B6E62149F5E7B1
S315080092302149F3E72149F1E71A8F070893C0070880
S31508009240318F07083F8F0708A98C0708EF8F070893
S315080092504E8F07085F8F07085C8F0708668F070819
S31508009260738F0708A3900708828F0708908F07084F
S315080092709E8F0708B28F0708C78F070872A20708CC
S31508009280D48F0708E38F0708E58F0708FC8F0708C0
S315080092900490070814900708259007083B900708CC
S315080092A04E900708679007088A900708979007085E
S315080092B0B5900708CB900708E5900708FF900708C0
S315080092C070B50C6805461CB14A6852B1072070BDD6
S315080092D00068904705490246284643F09DF820460F
S315080092E0F5E72146BDE8704000681847048D070871
S315080092F008B5034A034B0830FFF7E2FF08BD00BF75
S3150800930049D8040851D8040808B5034A034B08305D
S31508009310FFF7D6FF08BD00BF01D8040809D804081E
S3150800932038B50C460546134920465BF0CBFE38B1E6
S31508009330114B124A211D05F10800FFF7C1FF38BD80
S3150800934020460F495BF0BEFE10B10E4B0E4AF1E700
S3150800935020460E495BF0B6FE10B10D4B0D4AE9E703
S3150800936020460D495BF0AEFE10B10C4B0C4AE1E706
S315080093700720E4E7A0BB0708E5D20408C5D204081D
S315080093801B910708EFD20408CDD2040821910708DB
S31508009390F9D20408D5D204082B91070803D3040888
S315080093A0DDD20408F7B50C6805460E461F464CB1D3
S315080093B020460DF106015BF001FE044650B1204639
S315080093C003B0F0BD0068904707490246284643F0B7
S315080093D023F8F4E7736823B9BDF806102868B84778
S315080093E0EDE70724EBE700BF189E070838B50D46DA
S315080093F00446194928465BF065FE38B1174B184AEA
S31508009400291D04F10800FFF7CDFF38BD2846154988
S315080094105BF058FE10B1144B144AF1E7284614497C
S315080094205BF050FE08B90720EFE76B6853B954F8AC
S31508009430080F43F0D6FA0F490246204642F0ECFFE1
S315080094400020E2E70C49281D5BF03CFE0028EAD024
S31508009450A06843F0CBFAF3E732910708D9C90408A4
S31508009460CFC9040886AA0708C5C90408BBC90408E1
S315080094703F910708189E0708A392070808B5034AEC
S31508009480034B083042F0D6FA08BD00BF65D604087B
S315080094906FD6040808B5034A034B083042F0CAFAE7
S315080094A008BD00BFEDDA0408F7DA040838B50C463B
S315080094B005460E4920465BF005FE38B10C4B0D4AB1
S315080094C0211D05F1080042F0B5FA38BD20460A49C3
S315080094D05BF0F8FD38B1094B094A211D05F1080072
S315080094E0FFF760FFF1E70720EFE700BF43910708A2
S315080094F0A5D804089BD804084B910708BBD80408CC
S31508009500B1D8040870B50C460546134920465BF0E9
S31508009510D9FD05F1080648B1A86811F0A7FB02466F
S315080095200E49304642F078FF002070BD20460C49AF
S315080095305BF0C8FD18B1A86853F0F2FBEFE73046B8
S31508009540084A2168FDF74EFD0028EDD02146304631
S31508009550054A42F088FAE8E7559107088490070813
S315080095605F91070893CD04089DCD040808B5024A03
S31508009570083042F078FA08BDA3DA040808B5024AAA
S31508009580083042F070FA08BD3DDB040838B500F132
S3150800959008040D462046054A0968FDF723FD20B153
S315080095A029462046024A42F05EFA38BD29DB0408FD
S315080095B033DB040838B50D4604462B4928465BF0CC
S315080095C081FD50B154F8080F62F011FA02462046A0
S315080095D0264942F021FF002038BD284624495BF081
S315080095E071FD20B154F8080F62F006FAEEE72B6811
S315080095F0C3B9A06843F0A6FC04F1080502461D4954
S31508009600284642F009FFA06843F0B0FC1A49024612
S31508009610284642F001FFA06843F0C9FC17490246F4
S315080096202846D6E7284616495BF04CFD30B1154A60
S31508009630291D04F1080042F016FACDE7284612491A
S315080096405BF040FD30B1114A291D04F1080042F0D3
S315080096501EFAC1E728460E495BF034FD08B10D4AEB
S31508009660F2E70720B8E700BF88970708189E07089B
S315080096709597070869910708759107088391070860
S3150800968036A107084FCF0408B493070879CF040812
S3150800969057930708B9CF040838B50C6800F10805D0
S315080096A04CB9806844F0A5FA05490246284642F0B6
S315080096B0B3FE204638BD2846024A42F0E8F9F9E7E3
S315080096C0478C070831DC040838B50C6800F1080532
S315080096D04CB9806844F027F805490246284642F006
S315080096E09BFE204638BD2846024A42F0D0F9F9E7E3
S315080096F0478C070865D7040838B500F108040D46F5
S315080097002046054A0968FDF7CFFC20B129462046C0
S31508009710024A42F0BCF938BD73CE04087DCE04086F
S3150800972008B5034A034B083042F0C3F908BD00BF29
S31508009730BFDA0408C9DA040808B5034A034B083037
S3150800974042F0B7F908BD00BF01DB04080BDB0408CB
S3150800975008B5034A034B083042F0ABF908BD00BF11
S3150800976067DB040871DB040808B5034A034B0830B5
S3150800977042F09FF908BD00BF7BDB040885DB0408BF
S3150800978008B5034A034B083042F093F908BD00BFF9
S3150800979015DB04081FDB040870B50D460446184996
S315080097A028465BF08FFC50B154F8080F43F070FB65
S315080097B014490246204642F02FFE002070BD284676
S315080097C011495BF07FFCB0B12E1D30460F495BF0A6
S315080097D079FC40B10E4B0F4A05F1080104F1080067
S315080097E042F067F9EAE730460B495BF06BFC20B1BB
S315080097F00A4B0B4AF0E72320E0E70720DEE700BF25
S3150800980091910708478F07089E910708A8910708AE
S31508009810A5CE04089BCE0408A6910708B9CE04086D
S31508009820AFCE040838B50C6800F108054CB9806855
S3150800983043F000FB05490246284642F0EDFD204666
S3150800984038BD2846024A42F04FF9F9E7478F07081C
S315080098503FCE0408F7B50D460446204928465BF076
S3150800986031FC38B11E4A291D04F1080042F03CF9C2
S3150800987003B0F0BD28461B495BF024FC064668B1D8
S315080098800435284618495BF01DFC20B1A06843F052
S315080098904AFA0020ECE72946144AE5E7284614491F
S315080098A05BF010FCC0B154F8080F0DF1070143F046
S315080098B040FA074650B9204603F0B6FFE9E72046C6
S315080098C037F813200B4942F047FD01369DF807206B
S315080098D0F3B29A42F3D8EEE72320C9E7A1AA07080C
S315080098E00BCD040853880708AF91070819CD04085B
S315080098F0F98C0708008C070870B50C6816460546EB
S315080099001A4614B142F0F0F870BD0068B047034932
S315080099100246284642F080FD2046F5E7189E0708CD
S3150800992008B5034A034B0830FFF7E6FF08BD00BF3A
S3150800993071DA04087BDA040808B5034A034B0830D1
S31508009940FFF7DAFF08BD00BFD3DA0408DDDA04083A
S3150800995038B50C6805464CB9006842F0FCFE044967
S315080099600246284642F058FD204638BD0720FCE747
S31508009970189E07080B6810B50446B3B9006842F08C
S31508009980CBFE28B920460A4942F046FD002010BD04
S31508009990206842F0C6FE074B074A0849002808BF58
S315080099A01A46204642F038FDF0E70720EFE700BFE9
S315080099B0469907081E9C0708179C0708048D070880
S315080099C070B50B680446A0B04BBB006802A942F00C
S315080099D0C7FE0CA902A842F0C8FE10B1002020B0AC
S315080099E070BD302214A90DEB020043F0B7F99DF8BB
S315080099F0420003F0F1FE05469DF8430003F0ECFE35
S31508009A0006AA0646DDE9120142F07EFC2B46CDE9A0
S31508009A1000600449204614AA42F0FEFCD9E7072054
S31508009A20DDE700BF279C0708F0B50B6805460C461E
S31508009A3085B03BB9006842F0A8FE42F0CEFE024669
S31508009A404F4947E04F4A42F00EFD10B9002005B0D5
S31508009A50F0BD20464C495BF035FB10B3002301935B
S31508009A60ADF802306368D3B1A06848B9E06868B950
S31508009A70BDF80230019A6168286842F08FFEE6E771
S31508009A8001A95BF04BFB0028F0D0E0E70DF10201DD
S31508009A905BF094FA0028DAD12369002BE8D0072076
S31508009AA0D5E7204639495BF00DFB30B16368002BDA
S31508009AB0F5D1286842F076FEC8E7204634495BF0BF
S31508009AC001FB58B16368002BE9D1286842F06EFEA5
S31508009AD002463049284642F09FFCB7E720462E4901
S31508009AE05BF0F0FA98B101A9201D03F0E9FF002800
S31508009AF0ADD1A368002BD2D19DF80420286822B1E5
S31508009B002A46264942F062FEA0E71146FAE72046B1
S31508009B1023495BF0D7FA064648B16368002BBED1E5
S31508009B2001A842F05FFE002891D101AA88E72046E5
S31508009B301C495BF0C7FA0028B1D06368CDE9016615
S31508009B4001AFADF80C60002BA9D0261D30465BF09E
S31508009B50B2FA0928A3D8304664685BF0ACFA214605
S31508009B60024638466CF071F9384642F03DFE002848
S31508009B707FF46DAF28460C4942F04EFC66E700BFFD
S31508009B80048D070895C7040878AA070847880708B0
S31508009B90A2940708189E0708539C0708D1BB040817
S31508009BA05C9C0708699C0708769C0708F8B5064672
S31508009BB00F461125074C013D04F1080400D1F8BDF4
S31508009BC054F8083C3046FB5854F8042C024942F035
S31508009BD023FCF0E734CB0708048A070810B50446C7
S31508009BE0006842F0D2FD42F0F8FD034902462046DD
S31508009BF0BDE8104042F010BC809C0708F0B50B6821
S31508009C0005460C4685B07BB900261A4F57F826201C
S31508009C1028461949033642F0FFFB1B2EF6D1236866
S31508009C202BBB232005B0F0BD204614495BF04AFA49
S31508009C300028E9D1236809220393114B0D490093A3
S31508009C400C230DEB030046F0D5FE0028E9D0D0E939
S31508009C500132511005EB6200D20748BF6A5804F179
S31508009C60040148BFD35805B0BDE8F04018470020A6
S31508009C70D8E700BFC8CA0708048D0708FD8C07087F
S31508009C8051BB040838B505460C460A7A074942F01E
S31508009C90C3FB28466288064942F0BEFB284662682E
S31508009CA00449BDE8384042F0B7BB00BF0E9E07081E
S31508009CB01B9E07082D9E07081FB50B680446E3B9C7
S31508009CC00F4942F049FB206801A942F01BFD78B90B
S31508009CD0204603F0A9FD20460A49BDF8042042F0B3
S31508009CE09BFB204601A9FFF7CDFF002004B010BD5D
S31508009CF02046054942F090FBF7E72320F6E700BF28
S31508009D00409E07084D9E07085E9E07080B6837B5F4
S31508009D1004460D4663B9006843F02CFA254A264BDB
S31508009D202649002808BF1A46204642F075FB14E06B
S31508009D30284623495BF0C6F990B10DF10701281DA5
S31508009D4003F0BEFE50B99DF807301E49002B224687
S31508009D5008BF0021206843F012FA002003B030BD86
S31508009D60284619495BF0AEF9D8B1206843F0F2F9F4
S31508009D7003F032FD15490246204642F04DFB2068A5
S31508009D8043F0F0F903F028FD11490246204642F057
S31508009D9043FB206843F0EEF903F01EFD0D49024629
S31508009DA0C2E7294620460C4A42F05DFB0028D4D07B
S31508009DB00720D3E7A1B60708649E0708699E070827
S31508009DC0539C07082FBC0408D2960708749E0708F8
S31508009DD0809E07088C9E07084BD1040830B50B688F
S31508009DE004460D468FB0C3B9006803A942F0ADFD1D
S31508009DF0206801AA03A942F0C1FD08B1002012E0BB
S31508009E00029808A9152243F024FE2046BDF804202E
S31508009E10104908AB42F000FBEAE728460E495BF01A
S31508009E2051F910B907200FB030BD6B68002BF9D176
S31508009E3003A9206842F0AAFD054608A90398152239
S31508009E4043F007FE2A462046044908AB42F0E4FAE6
S31508009E50D4E700BF999E0708AE9E0708B49E070878
S31508009E600B6837B504460D4663B9006842F027FD0E
S31508009E7003F062FE0E490246204642F0CDFA002063
S31508009E8003B030BD28460B495BF01CF918B12068B1
S31508009E9042F01FFDF3E728460DF1070103F02AFEFD
S31508009EA00028EDD19DF90710206842F00DFDE6E780
S31508009EB0048D0708558E07080B6837B504460D4606
S31508009EC063B9006842F00FFD03F036FE0E490246FC
S31508009ED0204642F0A1FA002003B030BD28460B49BF
S31508009EE05BF0F0F818B1206842F007FDF3E7284662
S31508009EF00DF1070103F0FEFD0028EDD19DF90710CD
S31508009F00206842F0F5FCE6E7048D0708558E070839
S31508009F100B6873B50546ABB900680DF1030201A9D4
S31508009F2042F09CFC044650B99DF80300019E03F0DC
S31508009F3053FC324603460449284642F06DFA204649
S31508009F4002B070BD0724FAE7C29E070838B50C6848
S31508009F5005465CB9006842F099FC03F005FE044921
S31508009F600246284642F058FA204638BD0720FCE744
S31508009F70048D070810B50B68044694B0CBB969463A
S31508009F80006842F0E2FC6946206805AA42F0F1FC46
S31508009F9010B1002014B010BD282205A80DEB02014F
S31508009FA042F0DAFE2046099B03490AAA42F034FA2F
S31508009FB0E9E70720EEE700BFDE9E070810B50C6844
S31508009FC03CB9054B186800B9FEE7FDF777FD204652
S31508009FD010BD0720FCE700BF4899002070B50D4664
S31508009FE0ADF54A7D06460F4928465BF06BF80DF13C
S31508009FF0060440B1002323802288306882B102A972
S3150800A00042F06CFC09E04FF448732146286802AA1E
S3150800A01023805BF044F80028EED00DF54A7D70BD2C
S3150800A0201146EDE7558E070830B50B6805460C4610
S3150800A03087B033BB00680DF1030201A942F030FC7A
S3150800A04001280AD002281AD010B1002007B030BD66
S3150800A0502749284642F0E0F9F7E72846254942F01D
S3150800A0607BF901A9284603F02FFC9DF9030003F0AC
S3150800A07063FD21490246284642F0CEF9E5E71F4925
S3150800A080E7E70021112201A86BF08CFE0023204689
S3150800A09017498DF803305BF015F818B1616801B3FC
S3150800A0A00720D3E7204616495BF00CF890B16068A4
S3150800A0B001A95AF0E1FF0028C8D10DF1030104F106
S3150800A0C0080003F017FD0028C0D1E368002BE7D18C
S3150800A0D0012106E020460B495AF0F4FF0028DFD09C
S3150800A0E002219DF90330286801AA42F0D4FBADE7A6
S3150800A0F0F49E0708F99E0708029F07080C9F0708A1
S3150800A100159F0708AC9C0708034A044B002908BF9B
S3150800A1101A46034942F080B96B9E07081C9F070838
S3150800A120249F070838B5002313700B680C4615469C
S3150800A1301BB90323137000200AE0204609495AF088
S3150800A140C1FF30B9204608495AF0BCFF38B9072084
S3150800A15038BD01232B706368002BECD0F7E7022388
S3150800A160F8E700BF7B8907083E9F070830B587B028
S3150800A1700DF102020446FFF7D5FF002837D19DF8F6
S3150800A1800250EA0711D5206801A942F0BBFB60BB63
S3150800A190184B194A20461949012D18BF1A4642F08C
S3150800A1A0DBF8204601A942F0FFF8AB071CD520686A
S3150800A1B00DF1030201A942F0AFFBB0B9104B0E4AEC
S3150800A1C02046022D18BF1A460C4942F0C5F801A9C7
S3150800A1D0204603F079FB9DF9030003F0ADFC09491D
S3150800A1E00246204642F018F9002007B030BD072085
S3150800A1F0FBE700BF469F0708A1B60708048D0708B6
S3150800A2004E9F0708589F070830B587B00DF103021F
S3150800A2100446FFF787FF60BB9DF80350EA0711D590
S3150800A220206801A942F087FB08BB134B134A204656
S3150800A2301349012D18BF1A4642F08EF8204601A987
S3150800A24042F0B2F8AB0711D5206801A942F078FBB5
S3150800A25068B90C4B094A20460949022D18BF1A4607
S3150800A26042F07AF8204601A942F09EF8002007B08D
S3150800A27030BD0720FBE700BF469F0708A1B60708C1
S3150800A280048D07084E9F070803289ABF024B53F808
S3150800A29020000248704700BF98CC07083CD2070840
S3150800A2A030B5184A91B004460D4642F0DCF870B154
S3150800A2B0284615495AF006FF60B1206842F078FB37
S3150800A2C0FFF7E2FF11490246204642F0A5F80020B2
S3150800A2D011B030BD28460E495AF0F4FE80B16946E1
S3150800A2E0206842F014FB0028F2D1204607A903F0A3
S3150800A2F0EBFA20460F9B0D9A064942F08DF8E6E7E1
S3150800A3002320E5E7A7C90408D2960708048D07089D
S3150800A310DE960708609F0708F0B50C460546164600
S3150800A32089B003F0BFFA227E2846C2F38003009361
S3150800A3301749C2F3400302F0010242F00DF8012E5C
S3150800A34020D102AE15223146606943F082FB207E99
S3150800A3502769C0F3001003F03FFA3A4603460D4951
S3150800A3602846009641F0F8FF237E1A0703D52846AB
S3150800A370094941F0F1FF237E9B0603D52846074984
S3150800A38041F0EAFF284609B0BDE8F04003F04CBAB0
S3150800A3907C9F07088E9F0708B39F0708BE9F07087C
S3150800A3A010B50B680446A4B0002B38D1006803A981
S3150800A3B042F0CBFA206814AA03A942F0CBFA10B1EE
S3150800A3C0002024B010BD2D2208A91BA842F0C8FC05
S3150800A3D09DF87D0003F000FA219A03460192209A1F
S3150800A3E0204600920F4908AA41F0B6FF9DF87D3035
S3150800A3F073B1239A0C49204641F0AEFF20460B491B
S3150800A40041F0AAFF0022204614A9FFF785FFD1E7ED
S3150800A4109DF9880003F090FB05490246EBE7072003
S3150800A420CFE700BFC99F070800A0070842A0070892
S3150800A43010A0070830B50B6804469FB003BB006838
S3150800A44002A942F082FA206811AA02A942F08CFAFF
S3150800A450054610B100201FB030BD07A918A828224C
S3150800A46042F07AFC1C9B2046009307AA1D9B0549CF
S3150800A47041F072FF2A46204611A9FFF74DFFE2E791
S3150800A4800720E8E71FA00708F0B50B6805460C4645
S3150800A49085B07BB900261A4F57F826202846194951
S3150800A4A0033641F0B9FF392EF6D123682BBB23209A
S3150800A4B005B0F0BD204614495AF004FE0028E9D13B
S3150800A4C0236813220393114B0D4900930C230DEBBC
S3150800A4D0030046F08FFA0028E9D0D0E9013251107E
S3150800A4E005EB6200D20748BF6A5804F1040148BF69
S3150800A4F0D35805B0BDE8F04018470020D8E700BF9C
S3150800A500B4CB0708048D0708FD8C0708F3BB0408BD
S3150800A510B1F85A20014941F07FBF00BF189E0708CD
S3150800A520B1F85C20014941F077BF00BF189E0708C3
S3150800A53001F13002014941F06FBF00BF048D0708E1
S3150800A540B1F85820014941F067BF00BF478F070897
S3150800A5504A6F014941F060BF478C07084A6D0149B7
S3150800A56041F05ABF8B87070808B5FF220021024829
S3150800A5706BF018FC002008BD8DAF002010B50C68E4
S3150800A58034B9044991F8FE2041F0F3FE204610BD87
S3150800A5900720FCE78DAF002038B50D4604460C4968
S3150800A5A028465AF08FFD28B120680A49BDE8384088
S3150800A5B042F039BA284608495AF084FD28B120687D
S3150800A5C00449BDE8384042F045BA072038BD00BF07
S3150800A5D0209C07088DAF00209BA007082DE9F041B5
S3150800A5E00D4607461B49286814465AF06BFD2B682A
S3150800A5F01A1D2A6020B3D3F80480B8F1000F27D0BB
S3150800A60094F87B3093B104F1300694F87C3093B11A
S3150800A61004F141023146404604F15E0342F033FA42
S3150800A62010B92B6804332B60BDE8F081386843F015
S3150800A630E7F80646E9E7386843F01FF80246E9E70F
S3150800A64004F15E011022BDE8F04118685AF019BD00
S3150800A6500720E9E75A88070830B50C460546A3B02F
S3150800A66020461C495AF02EFD30B11B49286823B0F4
S3150800A670BDE8304042F0CAB9204618495AF022FDD2
S3150800A68030B11549286823B0BDE8304042F0D5B945
S3150800A690204613495AF016FD60B16946286803F04A
S3150800A6A06FFA044618B968460B4942F010FA204674
S3150800A6B023B030BD20460B495AF004FD38B1284670
S3150800A6C0054A211D23B0BDE8304041F06BBB072485
S3150800A6D0EDE700BF209C07088DAF00209BA0070868
S3150800A6E0A3A00708A7A0070830B5C1B00C466A465C
S3150800A6F00431054641F056FB40B920460A495AF04E
S3150800A700E1FC28B16946286842F08DF941B030BDB0
S3150800A710204606495AF0D6FC20B16946286842F018
S3150800A72099F9F3E70720F1E7209C07089BA007089B
S3150800A73070B51368A4B006460D460192D3B91E48F3
S3150800A74002A942F0A9F9044688B96B6890336B44AC
S3150800A75013F8103C5BB1D5E902325110D50706EB68
S3150800A760620048BF725802A948BFD3589847204686
S3150800A77024B070BD8822002102A86BF013FBD5E92E
S3150800A7800432511006EB6200D20748BF725801A97D
S3150800A79048BFD35802AA984704460028E7D10122A1
S3150800A7A06B68054990336B4403F8102C02A842F0F5
S3150800A7B09FF90446DBE700BF8DAF002038B50C468D
S3150800A7C00A882249054641F0C7FDA378D80703D56C
S3150800A7D028461F4941F0C0FDA378990703D52846A6
S3150800A7E01C4941F0B9FDA3785A0703D528461A49EA
S3150800A7F041F0B2FDA3781B0703D52846174941F057
S3150800A800ABFDA378D80603D52846154941F0A4FD23
S3150800A810A378990603D52846124941F09DFDA378E9
S3150800A8205A0603D52846104941F096FDE378DB071A
S3150800A83003D528460D4941F08FFDE2782846BDE844
S3150800A84038400B49C2F3420241F0E6BD008C0708C6
S3150800A850CB910708169807089FAF07084588070889
S3150800A8602E980708CBA80708BAB40708B2980708AD
S3150800A870179E0708002373B5019313680E461868D8
S3150800A88001A914465AF09AFB054660BB21684A6836
S3150800A8900B1D2360DAB1013A12F8013FD3B9886873
S3150800A8A001F10803236090B10DF103015AF075FB1D
S3150800A8B000286DD123689DF803200433072A2360F6
S3150800A8C010D89DF8073062F343038DF807300198D6
S3150800A8D0306008E0722B05D8622B07D8432B41D08D
S3150800A8E0522B4ED00725284602B070BD633B0F2B6E
S3150800A8F0F8D801A050F823F05BA90008E5A80008DD
S3150800A9006FA90008E5A80008E5A80008E5A800085A
S3150800A910E5A80008E5A80008E5A80008E5A80008D5
S3150800A920E5A8000847A9000839A9000879A9000878
S3150800A930E5A8000851A900089DF8063043F0010370
S3150800A9408DF80630A8E79DF8063043F00203F7E7CE
S3150800A9509DF8063043F00403F2E79DF8063043F00D
S3150800A9600803EDE79DF8063043F01003E8E79DF885
S3150800A970063043F02003E3E79DF8063043F0400332
S3150800A980DEE79DF8073043F001038DF8073083E7CB
S3150800A9900546A8E707B5044B0F220093182346F08F
S3150800A9A029F803B05DF804FBBDBC04082DE9F043A3
S3150800A9B0A5B00446084602A9914642F06DF8074636
S3150800A9C0002830D0384625B0BDE8F0836B681849B2
S3150800A9D001A80193FFF7DEFF4368064690336B44F0
S3150800A9E013F8103C6BB120462A68124941F0B4FCB2
S3150800A9F0B9F1000F0AD02B7A43B120460E4941F02F
S3150800AA000BFD0C35B8F10108E0D1DBE7D6E90232D7
S3150800AA10511004EB6200D20748BF625802A948BF2A
S3150800AA20D3589847EDE74FF00E08044DEAE700BF04
S3150800AA30B0CD070857AE0708ACA0070814CD07081D
S3150800AA40F0B5C1B005460F460068694641F0DEFF1D
S3150800AA506E46044698B93B6833B9024631462846DD
S3150800AA60FFF7A4FF04460AE038460B495AF02AFBCA
S3150800AA7040B1694628469DF8FE2041F07AFC2046FA
S3150800AA8041B0F0BD384605495AF01CFB08B1012211
S3150800AA90E4E70724F3E700BF3A9607081296070883
S3150800AAA0F0B5C1B005460F460068694641F0C5FFD6
S3150800AAB06E46044698B93B6833B90246314628467D
S3150800AAC0FFF774FF04460AE038460B495AF0FAFACB
S3150800AAD040B1694628469DF8FE2041F04AFC2046CA
S3150800AAE041B0F0BD384605495AF0ECFA08B10122E2
S3150800AAF0E4E70724F3E700BF3A9607081296070823
S3150800AB002DE9F0430F46E7B088220021054626AE18
S3150800AB1004A86BF047F9FF22002130466BF042F992
S3150800AB2002AC3B1D23600DF10C082368D3F8009096
S3150800AB30B9F1000F16D1384629495AF0C3FA044626
S3150800AB4000283FD1384627495AF0BCFA002845D094
S3150800AB50CDE90044324696F8FE30286804A941F04B
S3150800AB608DFF38E040462049C8F80090FFF712FFED
S3150800AB7023688146A8B104332360D0E90432511012
S3150800AB8005EB6200D20748BF6A58214648BFD3582A
S3150800AB9004AA9847F8B90122D9F8043022A9CA5458
S3150800ABA0C3E7184611495AF08DFAB8B121683246FA
S3150800ABB004312846216041F0F5F860B9236804336A
S3150800ABC02360B2E7CDE90099324696F8FE30286848
S3150800ABD004A941F049FF67B0BDE8F0830720FAE70A
S3150800ABE0209C07089BA00708B0CD07083A960708D7
S3150800ABF02DE9F043CDB088460D22002107460CAD5D
S3150800AC0004A86BF0CFF8FF22002128466BF0CAF89B
S3150800AC10002608F10404D4F80090B9F1000F12D107
S3150800AC2040462A495AF04EFA00283BD0386895F82B
S3150800AC30FE300EB10DF120092A46CDF8009004A980
S3150800AC4041F00DFF24E003A82149C0F80090FFF762
S3150800AC50A1FE38B10122A146436804A9CA5409F1E4
S3150800AC600404D8E720461B495AF02CFA48B104F1E7
S3150800AC7004092A464946384641F094F80028EED099
S3150800AC8006E0204614495AF01DFA064618B9072068
S3150800AC904DB0BDE8F083606808A904F104095AF0CC
S3150800ACA0E1F9EBE740460D495AF00CFA0028EED0D8
S3150800ACB0386895F8FE300EB10DF120092A46CDF810
S3150800ACC0009004A941F0D5FEE2E700BF209C0708E2
S3150800ACD0B0CD07083A96070840BB07089BA00708A7
S3150800ACE07FB50A6805460C462AB9234904B0BDE86B
S3150800ACF07040FFF75BBE204620495AF0E3F968B179
S3150800AD0000241F4E56F8242028461E49033441F0D5
S3150800AD1083FB1B2CF6D1002004B070BD23681A49AA
S3150800AD2003A80393FFF736FE014630B12846221DD5
S3150800AD3004B0BDE87040FFF7FBBC23680922039303
S3150800AD40124B0F4900930C230DEB030045F052FEFE
S3150800AD5078B1D0E90132511005EB6200D20748BF3D
S3150800AD606A5804F1040148BFD35804B0BDE87040DE
S3150800AD7018472320D0E700BF8DAF0020FD8C0708B9
S3150800AD80A8CC0708048D0708B0CD0708B5BC040889
S3150800AD90024B186800B9FEE7FDF780BA489900200B
S3150800ADA0F8B50D460C49284616465AF08BF904465E
S3150800ADB050B90A4F284657F8041B5AF083F928B1A8
S3150800ADC0E4B200203470F8BD0024FAE70134062CFA
S3150800ADD0F0D10720F7E700BF56C1070878CF070864
S3150800ADE073B515460C4606462022002128686AF0E7
S3150800ADF0D9FF23681BB92B60002002B070BD21461D
S3150800AE002A6830680DF1070341F098FB0028F4D151
S3150800AE109DF807303BB13046294941F09DFA304646
S3150800AE20296841F0B8FA60680028E5D02968103129
S3150800AE305AF0C4F80028E0D1A0680028DCD02968B8
S3150800AE4014315AF06BF90028D7D1E0680028D3D01E
S3150800AE50296818315AF0A1F80028CED120690028AF
S3150800AE60CAD00DF106015AF05DF90028C5D19DF842
S3150800AE7006302A68C3F1020353766369002BBBD0F8
S3150800AE8030461B3204F11401FFF78AFF08B1072088
S3150800AE90B3E7A369002BAFD01834204609495AF006
S3150800AEA011F918B102222B681A77A5E72046064938
S3150800AEB05AF008F90028EAD001222B68F4E700BF07
S3150800AEC0C5A10708EBA107089694070830B58DB009
S3150800AED004AB03930B6805460C468BB103AA0431F1
S3150800AEE0FFF77EFF50B9039B064A009321682B465D
S3150800AEF0286841F031FE002808BF24200DB030BD77
S3150800AF000720FBE7EFBD040830B58DB004AB03930B
S3150800AF100B6805460C468BB103AA0431FFF760FFA0
S3150800AF2050B9039B064A009321682B46286841F0CE
S3150800AF3018FE002808BF24200DB030BD0720FBE707
S3150800AF40EFBD040830B58DB004AB03930B68054616
S3150800AF500C468BB103AA0431FFF742FF50B9039B95
S3150800AF60064A009321682B46286841F009FE002806
S3150800AF7008BF24200DB030BD0720FBE7FBBD040841
S3150800AF8070B58CB004AB03934B6805460C46164661
S3150800AF908BB103AA0831FFF723FF50B9039BCDE90C
S3150800AFA00053064B2868D4E90012B047002808BFAA
S3150800AFB024200CB070BD0720FBE700BF07BE0408BD
S3150800AFC0014AFFF7DDBF00BF97CB0408014AFFF728
S3150800AFD0D7BF00BFA1CB040830B50C468FB00546D5
S3150800AFE006AB20680DF11201059359F0E7FFB8B9D1
S3150800AFF0A368BBB1284605AA04F10C01FFF7F0FEC9
S3150800B00070B9059BBDF81210CDE90153064B0093A4
S3150800B0102868D4E9012341F0D2FD002808BF24207E
S3150800B0200FB030BD0720FBE713BE040830B50B6828
S3150800B03004468BB0002B39D1006841F081FD0546E6
S3150800B0402049204641F088F92946204641F0BEF9B4
S3150800B05020466A691C4941F0DFF92A7E1B492046C9
S3150800B06041F0DAF9687E431E5842584102F0B4FBB3
S3150800B07017490246204641F0CFF9EB7E2046052BBC
S3150800B08096BF144A144A52F82320144941F0C4F9C9
S3150800B090AA7E134B13492046012A08BF19460A46B9
S3150800B0A0114941F0B9F900200BB030BD02AB01AA35
S3150800B0B00193FFF795FE0028F6D10199206841F023
S3150800B0C043FDF0E7F8A1070801A2070819A2070837
S3150800B0D02BA2070878CF07083CD2070840A2070822
S3150800B0E0F2A10708EFA1070850A207082DE9F041C9
S3150800B0F01646C6B004460D46FF22304606A941F05C
S3150800B10035FD28BB2046134906AA41F025F96DB935
S3150800B1102F460DF10408B9B24346304602AA41F05B
S3150800B12027FD013748B1204602F07EFB2946204616
S3150800B130FFF72EFE46B0BDE8F081204602A902F0D0
S3150800B140B1FB2046D8F80020034941F005F9E2E7AB
S3150800B1500546EBE75EA2070875A207087FB5054610
S3150800B16014460E461368029313890193D3880093F5
S3150800B17093881D4A41F061F9E368314628461B4A1F
S3150800B18041F05BF91A4A3146284641F032F9284619
S3150800B19004F1120102F086FB2846626A154941F05D
S3150800B1A03BF931462846144A41F023F994F82E30E3
S3150800B1B063B92846A28DA16A41F011F92846226B87
S3150800B1C00C4904B0BDE8704041F026B928460B4941
S3150800B1D041F0C2F82846A16AA28D02F035FB28463E
S3150800B1E0074941F0B9F8E9E77FA20708A8A20708C6
S3150800B1F0B0A207089FA20708BDA207089DB20708C4
S3150800B200C2A207082DE9F0411646ADF55E7D0DF19F
S3150800B210780804460D46FF224146304641F0B5FC03
S3150800B220A8BB424620461B4941F0F6F83DB92F46D1
S3150800B230402330460EAAB9B241F0A9FC38B12946D6
S3150800B2402046FFF7A5FD0DF55E7DBDE8F081204699
S3150800B25011490EAA41F0E0F8FF23ADF814305EABB1
S3150800B2600B934FF40073304601AA0EA9CDF810804F
S3150800B270ADF8303041F08DFC20B90421204601AAF2
S3150800B280FFF76CFF204602F0CFFA0137D0E70546F4
S3150800B290D5E700BFC7A20708048D07082DE9F041C6
S3150800B2A016464FF0FF084022ADF5607D20AF0446F4
S3150800B2B00D463B463046CDF800800DEB020141F0C5
S3150800B2C074FC20BB3B462046124910AA41F0A4F85C
S3150800B2D0ADB960AB0D934FF40073304603A90697DA
S3150800B2E0ADF81C80ADF8383041F067FC38B9204617
S3150800B2F0294603AAFFF732FF204602F095FA2946A7
S3150800B3002046FFF745FD0DF5607DBDE8F081054651
S3150800B310F5E700BFE2A20708034684B0074A022BF6
S3150800B3200DF1100C07CA0CE907009DBF624602EB37
S3150800B330830353F80C0C024804B0704790CF0708F3
S3150800B3403CD207082DE9F0471746EAB00DF1A808E0
S3150800B35005460E46FF224146384641F035FC002890
S3150800B3605CD142462846314941F056F8002E56D15E
S3150800B370B146122200210DF116006AF013FDFF23D3
S3150800B380ADF814300AAB0893802304AC224638463D
S3150800B3901FFA89F1CDF81080ADF8243041F016FC7B
S3150800B3A017283CD0002839D121491FFA89F22846A6
S3150800B3B041F032F89DF82600FFF7AEFFDDF81CA035
S3150800B3C0BDF818300421CDE901A01A4A2846009391
S3150800B3D0BDF8163041F031F8049B04212846164A78
S3150800B3E041F02BF804212846144A41F002F8BDF82A
S3150800B3F024202846089902F027FABDF82420BDF82B
S3150800B40018309A4203D028460D4940F0A5FF284631
S3150800B4100C4941F001F809F10109AAE70646314647
S3150800B4202846FFF7B5FC6AB0BDE8F08718A30708F9
S3150800B430A4AE070833A3070867A307086FA307087E
S3150800B4407CA30708C5A20708F0B50B6805460C4695
S3150800B45085B07BB900261A4F57F826202846194981
S3150800B460033640F0D9FF182EF6D123682BBB2320CC
S3150800B47005B0F0BD2046144959F024FE0028E9D14C
S3150800B480236808220393114B0D4900930C230DEBF7
S3150800B490030045F0AFFA0028E9D0D0E9013251108F
S3150800B4A005EB6200D20748BF6A5804F1040148BF99
S3150800B4B0D35805B0BDE8F04018470020D8E700BFCC
S3150800B4C018CF0708048D0708FD8C0708E7BD040890
S3150800B4D008B5024940F0A0FF232008BDEBA30708E2
S3150800B4E008B5024940F098FF232008BD43A4070881
S3150800B4F0F0B50B6805460C4685B07BB900261A4F91
S3150800B50057F8262028461949033640F085FF0F2E9E
