S01D00006275696C642F64656275672F6F742D6E63702D6674642E733337A6
S315080060000818002071EC03085D5006086150060860
S31508006010EDCA0008655006086D50060861AF03080A
S3150800602061AF030861AF030861AF030861AF0308F6
S31508006030715006081445070861AF030861AF0308E5
S31508006040ED10040861AF030861AF030861AF0308E8
S3150800605061AF030861AF030861AF030861AF0308C6
S3150800606061AF0308CFD90408CDD9040861AF030886
S3150800607061AF030861AF030861AF030861AF0308A6
S3150800608061AF030861AF030861AF030861AF030896
S3150800609061AF030801B0030861AF030861AF0308E5
S315080060A061AF0308DDAF0308B9AF030861AF0308A2
S315080060B061AF0308E5BA0608B9C3060839E5060854
S315080060C035E506082DBB06084FE506083DE5060832
S315080060D089C3060841E50608F9C3060861C4060827
S315080060E061AF030861AF030861AF030861AF030836
S315080060F061AF030861AF030861AF030861AF030826
S3150800610061AF030861AF030861AF030861AF030815
S3150800611061AF030861AF030861AF030861AF030805
S3150800612061AF030861AF030861AF030861AF0308F5
S3150800613061AF030861AF030861AF030861AF0308E5
S3150800614061AF030861AF030861AF0308DDEA06081B
S3150800615029A7060861AF030823E5060829E5060806
S3150800616061AF030861AF030861AF030861AF0308B5
S31508006180F0B5114A114C124E00F00105E3695F079C
S3150800619013D40DB9334213D103EA00078F4207D14E
S315080061A00B4A1A40002A0CBF00206FF00100F0BD10
S315080061B0013AEBD16FF00200F9E74FF0FF30F6E74E
S315080061C06FF00100F3E700BF8096980000000350C7
S315080061D002000100000000000000000000000000AE
S315080061E0013800D0FCE7704703468288C08811440E
S315080061F081429DBF1868998080180020704770B545
S3150800620005680C4625B9BDE870404B68084818472C
S315080062108B6898476A680146831A002BB8BF121A1A
S315080062202368A8BF0022BDE870400148184700BF90
S31508006230F01B002038B50C461146A2680346944266
S3150800624006D00568AC420BD10260FFF7D8FFA46000
S3150800625038BD94420DD011469268002AF9D1F6E766
S315080062602A460021F9E78B68002BF0D09B688B60E3
S31508006270EDE70029F7D1002DE9D0AA681A60E6E70C
S315080062802DE9F041936805460C461646984732466E
S31508006290074621462846FFF7CDFF28680022034611
S315080062A06BB16168D3F804E0A1EB070CAEEB070805
S315080062B098EA0C0F13D4A1EB0E01002907DA4AB9A4
S315080062C0A0602C6031462846BDE8F04197E71A469B
S315080062D09B68E5E79368A3609460BDE8F081BCF12C
S315080062E0000FEBE770B5066804460D467EB18B686D
S315080062F098477368C01A002809DB20462A463146A3
S31508006300FFF798FF30463368BDE8704018472946BE
S315080063102046BDE8704072E700F5E04393F8083F71
S3150800632013B102490830DDE7704700BFF02B0708B4
S3150800633000F5E04393F8083F13B102490C30D1E762
S31508006340704700BFFC2B0708012300F007008340B5
S3150800635013F0220F09D113F0880F08D113F0440F58
S3150800636014BF01200020C000704704207047102089
S315080063707047024690F8403030B5C4189442154626
S3150800638006D1402B08D05A1C80F84020C15403E09F
S315080063902D7801328D42F1D130BD4200400800F01F
S315080063A0553002F0AA3202439300920802F03332C3
S315080063B003F0CC33134318011B0903F00F3300F025
S315080063C0F030184300BA704738B5044608464D7889
S315080063D094F8FE20A91C031B51FA83F3D21A014430
S315080063E067F08DF894F8FE30023B5B1B84F8FE30AC
S315080063F038BD70B504460E46E5881346828800689F
S31508006400AA4234BFA91A0021104432465FF0A0FA06
S31508006410002800DAFEE7A388E288184480B2904292
S3150800642028BF2368A08022BF9B18002203F8012CEE
S31508006430204670BD70B506460D460024AC4201D311
S31508006440012070BD305D0134030605D45FF070FA93
S315080064500028F3D00020F4E710F04003FAD08106B4
S3150800646012D5C20612D50307F4D4032307E0AC42BB
S31508006470F0D0325D013402F0C002802AEAD1013B35
S31508006480DBB2FF2BF3D1D9E70123F8E70223F6E7BE
S3150800649008B5084691B211F0F7FD002008BD5AF07C
S315080064A041BA8378082B09D190F86E00C30903D046
S315080064B000F07F0058F0ACBD58F07CBD704756F030
S315080064C0EFBD08B51B4B93F8B921012A03D0062A5C
S315080064D005D02AB3FEE7BDE8084056F0C3BD002044
S315080064E083F8B90103F5805393F8DC17CA070CD56E
S315080064F0C1F3C302013202F00F0262F3C601042A95
S3150800650083F8DC1705D85AF00DFABDE8084056F0AE
S31508006510C7BD93F8DC2760F3C60283F8DC27F4E7E7
S3150800652093F8B821520703D5B3F8BA31DB05ECD492
S3150800653008BD00BFF03B002010B503780446002BC9
S3150800654014BF0520032000F5003011F0A7FD2378BD
S31508006550BDE81040002B14BF0620042000F50030CB
S3150800656011F09CBD08B504304CF042FE00B1603015
S3150800657008BD10B5D0F8A43004460BB1002010BDF4
S3150800658004304CF035FE0028F8D0C4F8A40060307A
S31508006590F5E710B590F8B53000F1B5041BB92146FA
S315080065A0024851F015FE204610BD00BF082C07080A
S315080065B013B590F861300246032B0C4609D1002327
S315080065C00093096878321AF0E5FD00B9206002B038
S315080065D010BD0D20FBE7C06890F86130032B03D18E
S315080065E0052160301CF08DBA704701481AF02CBAA4
S315080065F0BC9000204FF0CABE03781BB1012B07D010
S3150800660000207047436802895B89981A80B27047F0
S31508006610008970472DE9F84F0746884691469A46FD
S315080066204FF0000B0A9D0BEB0904661006FB0A8661
S3150800663038463146A8470028C4F34F0407D0D2BFCE
S31508006640A14601341FFA84FBCB45ECD3002630461D
S31508006650BDE8F88F0023F0B5441E184601392AB95B
S315080066601BB1024492B2904211D1F0BD14F8017FD9
S3150800667011F8016F082A154628BF0825B74287EA88
S315080066800603EDD12844521B80B292B2E7E71906F9
S31508006690EBD45B000130DBB280B2E4E770B58388E7
S315080066A00446C0889E188642154608D820681844AD
S315080066B066F0A0FF0020A3881D44A58070BD0320B6
S315080066C0FCE707B549BAADF8061002220DF1060136
S315080066D0FFF7E4FF03B05DF804FB0122DEE738B5F7
S315080066E00446A3880846934215460AD3216866F0ED
S315080066F081FF0020A38822685B1B2A442260A380AE
S3150800670038BD0620FCE70122E9E710B502220C464F
S31508006710FFF7E5FF10B923885BBA238010BD38B5AB
S31508006720838804468B420D4605D0006807F0D0FAE8
S315080067301DB92560A580002038BD0121284607F02F
S31508006740CCFB08B12060F5E70320F5E710B5044651
S31508006750006807F0BDFA0023236010BD2DE9F0415B
S3150800676004460D4621B9FFF7F1FF0020BDE8F08188
S31508006770D0F80080084666F0D1FF0646471CB8F1F7
S31508006780000F04D0404666F0C9FFB04209D039462A
S31508006790012007F0A2FB064648B1206807F098FAE0
S315080067A026603A462946206866F024FFDDE703207E
S315080067B0DCE74368036003B1DB69436070472DE992
S315080067C0F041C389044601EB03081FFA88F84345DC
S315080067D00D4602D90320BDE8F08106464C27B84588
S315080067E033680CD800223260114A02F58051A3B9E9
S315080067F0A3896581AB4200D9A5810020EBE71BB1CF
S315080068007C373668BFB2EAE76079C0F381005BF08F
S31508006810F9FD30600028F3D1DCE7D66D18681E60F4
S31508006820D365B1F86036013BA1F860360346DEE76A
S31508006830F01B002070B500F1350525F001052B7811
S31508006840064623F00F0302F00F00034328461446BA
S3150800685000F8043B66F0CEFE2B8A3046E11889B272
S315080068602982BDE87040AAE7838942891944914282
S3150800687000DDFEE789B29142818100D9FEE77047C3
S3150800688010B4446A34B10022234642625DF8044BD0
S31508006890826A18475DF8044B704710B50446022112
S315080068A0FFF7EEFF236A9C420FD1084A02F5805192
S315080068B02346D06D24681860D365B1F86036013B6D
S315080068C0A1F86036002CF3D110BDFEE7F01B0020BE
S315080068D043898B4200D2FEE75B1A43818389C289CA
S315080068E08B4294BF00235B1A0A4488BF9BB2C281BD
S315080068F08381704743898B4294BFDB1A5B1A99B22E
S315080069005DE770B54489A1422FD215880D44AEB211
S31508006910B14201D8A54201DB641A1480C489986083
S31508006920214489B24B2910D834300844C1F14C01AE
S3150800693089B2998018601088814228BF01469980DB
S3150800694011889B88CB1A138070BD4C39986889B218
S315080069500068986000B9FEE77B2904D8043008442B
S31508006960C1F17C01E4E77C39F0E70021E7E770B57F
S31508006970154686B0ADF806300DF1060203ABFFF7F3
S31508006980C0FF2C46BDF810601EB9601B80B206B069
S3150800699070BD03993246204666F02CFE03A90DF118
S315080069A00600344458F0D4F8ECE738B54589CC18D5
S315080069B0AC4203DCFFF7DBFF002038BD0620FCE70E
S315080069C010B44C889C4203D309885DF8044BECE765
S315080069D006205DF8044B70472DE9F04786B0174648
S315080069E01C46ADF806300DF1060203ABDDF838801B
S315080069F0FFF787FFBDF810507DB1039EB8F1000F71
S31508006A0011D0B94606EB050AB24513D019F8011B91
S31508006A1016F8010BC0470028F6D1B4FA84F04009ED
S31508006A2006B0BDE8F0872A463946304667F0A8FD25
S31508006A300028F2D12F4403A9651B0DF10600ACB25C
S31508006A4058F086F8D6E770B586B0ADF806300B4430
S31508006A5014469AB2914200D9FEE74289934200DD74
S31508006A60FEE703AB0DF10602FFF74BFFBDF810502A
S31508006A700DB906B070BD21462A46039866F03FFD5B
S31508006A8003A90DF106002C4458F062F8EEE72DE94B
S31508006A90F041B0F80A800F4602EB080399B2414567
S31508006AA0054616460CD3FFF78AFE044628B9334630
S31508006AB03A4641462846FFF7C6FF2046BDE8F0811C
S31508006AC00324FAE70122E2E7F8B505460E4617461B
S31508006AD0162100200A4A5BF0F5FC044670B13A46D6
S31508006AE03146FFF7D4FF28B92146284605F1780232
S31508006AF01AF05CFD2046BDE8F840CEE6F8BD00BFBA
S31508006B00B42B070803781BB1012B03D0002070476C
S31508006B104068BCE70430C1E570B58CB0054602A8EC
S31508006B200C4619F06BFB4FF2BF03ADF82A306B78B1
S31508006B309B0726D42B78002B14BF1C200D2053F05E
S31508006B4015F90646F8B1214694F8FE20FFF79FFF8F
S31508006B50044690B902A831F0A9FE31460B4B0C4801
S31508006B60009502AA1AF016FB044630B96B7843F072
S31508006B7002036B7020460CB070BD3046FFF78DFEE1
S31508006B80F8E71824F6E70324F4E700BFC1B50008C0
S31508006B908C3400202DE9F04114469A180E4691B21D
S31508006BA086B08C420546ADF8063029D871899142DF
S31508006BB028DBB0F80A80434499B2414524D3FFF74D
S31508006BC0FEFD074648B92146304603AB0DF10602DD
S31508006BD0FFF797FEBDF810401CB9384606B0BDE869
S31508006BE0F081234641462846039AFFF72CFF444482
S31508006BF003A90DF106001FFA84F857F0A9FFE9E783
S31508006C000727EAE70627E8E70327E6E7F8B504468D
S31508006C100E46154600F13407E3899D420BD85B1BE7
S31508006C206289E381A3892A442B4492B29BB29A4291
S31508006C30628117D2FEE76079C0F381005BF0E2FB60
S31508006C40D0B123680360E38920604B2B06D8343023
S31508006C50C3F14C02F918184466F0CCFCE3897C337E
S31508006C60E381D9E7A3812EB12B463246002120467F
S31508006C70FFF7E9FE0020F8BD0320FCE7F0B506465D
S31508006C80B2420C461046194689B001D1A34215D323
S31508006C906B460EAAFFF735FEBDF804500DB909B0CC
S31508006CA0F0BD214630462B46009AFFF7CCFE2C4411
S31508006CB069460EA8A4B257F04BFFEDE7BDF8385069
S31508006CC02C441D44A4B2ADB2BDF83820002AE6D043
S31508006CD0202A174628BF2027ED1BD21BADB2E41B7E
S31508006CE03B462946ADF8382030466A46A4B2FFF737
S31508006CF03EFE3B466A4621463046FFF7A4FEE3E7DA
S31508006D0073B5054646890279437980798E42C2F37E
S31508006D10400228BF0E46C3F381038DF80420E98993
S31508006D2001AA00F007008DF805305BF0CBFB04469E
S31508006D30002834D0334600222946FFF72BFF58BBDC
S31508006D40AB896289B34228BF33469A4200D2FEE72E
S31508006D50A381AB79A279C3F3C30363F3C602A27115
S31508006D602B792279DB0963F3C71222716B79627971
S31508006D70C3F3011363F305126271AB69A3612B8A2E
S31508006D8023826B8A63822B7A2372AB8DA385EB8D64
S31508006D90E385204602B070BD2046FFF77EFD00243D
S31508006DA0F7E738B504460D460B882C3020F81A3C10
S31508006DB08B7800F8243C91F9031022F0C9FC297954
S31508006DC004F12E0022F087FD6A79237962F34103E4
S31508006DD023716B796279C3F3400363F3000262712E
S31508006DE02B7CD2B29B0143F0020302F03D0213430F
S31508006DF0637138BD0368994204BFCB690360436871
S31508006E00994204BF0B6A43600B6A0BB1CA69DA611F
S31508006E10CB690BB10A6A1A6200220B79C1E907210C
S31508006E2062F382030B71704710B5FFF7E3FFBDE805
S31508006E301040084631E510B50446216801B910BD71
S31508006E402046FFF7F1FFF8E70023C1E9003302689F
S31508006E5002B970470B8801330B800123106840B9CB
S31508006E60488803444B8050894B6803444B60D26979
S31508006E70EEE701330068DBB2F1E70B7910B55B0783
S31508006E8000D4FEE74B79C3F3810403F00C030344F3
S31508006E905A68914209D10A6A5A6032B15279C2F3E4
S31508006EA08102A2421CBF00225A600368994204BFAD
S31508006EB0CB690360CB690BB10A6A1A620B6A0BB11C
S31508006EC0CA69DA6100220B79C1E9072162F38203F4
S31508006ED00B7110BD4A7970B5C2F3810214460B795D
S31508006EE0061D43F004030B7156F824301BB9013410
S31508006EF0E5B2042DF8D10B624BB90368CB6101608A
S31508006F00CB6903B1196200EB8200416070BDDC6990
S31508006F10CC61D961F4E78B894989038099422CBFF2
S31508006F20C3EB0102C3EB0302DB4392B29BB293426B
S31508006F3028BF13464380704743880288994228BF72
S31508006F40194612FA81F25B1A028043807047084A92
S31508006F50138803B9FEE748F24E305368A3FB0030A6
S31508006F6010EB530044BF20F00040013050607047DA
S31508006F7080BC0020814210B5044600D8FEE7FFF722
S31508006F80E6FF091BB0FBF1F303FB1100204410BD1B
S31508006F9010B50446FFF7DBFF091BC0B290FBF1F3FF
S31508006FA001FB13002044C0B210BD38B50D4681421E
S31508006FB088BF85B26900044601310020FFF7DAFF71
S31508006FC02044401B38BD00B1EFE77047112313B5C5
S31508006FD00F2200210446ADF8063066F0ECF80223CD
S31508006FE0E373002322462374618A0DF10603052004
S31508006FF053F006F8003818BF0120207502B010BDFE
S31508007000012A034630B5104601F1FF3118D111F8AF
S31508007010012F1C4613F8010BCAB1A0F14104192C23
S3150800702098BF2030A2F1410498BFC0B2192C9CBF6A
S315080070302032D2B28242EAD000200DE0AA420BD119
S3150800704011F8012F1C4613F8015B002AF6D12378A4
S31508007050002B14BF0120022030BD10B540B100231B
S31508007060441E98B2814203D90133E25C002AF8D162
S3150800707010BD08B50022FFF7C3FF831E58425841CA
S3150800708008BDA0F14103052B04D83738C0B20870F3
S3150800709000207047A0F16103052B01D85738F5E7A2
S315080070A03038C0B20928F2D9072070470EB417B590
S315080070B0044605AA52F8041B0192FFF79AF92046DE
S315080070C003B0BDE8104003B070472DE9F043984679
S315080070D04FF41603ABB0039300230646184C8DF8FD
S315080070E0103063180D4617460DF1100993F83C2029
S315080070F0144902A8CDF80890FFF7D8FF0E213046AC
S31508007100FFF7ABFF4234044433460A4600940E495F
S315080071100E4C02A8FFF7CAFF4246394602A8FFF7F7
S3150800712068F921460A4A02A8FFF7C0FF4B462246DD
S315080071301021284658F02CF82BB0BDE8F08300BF84
S31508007140F02B0708C42B0708CA2B0708BFFA06083E
S31508007150E35107080EB403B503AB53F8042B01211A
S315080071600193FFF7B2FF02B05DF804EB03B0704776
S3150800717010B5044666F0D2FA01462046BDE810402E
S31508007180FFF758B9436853B9054B5A6812B958609E
S3150800719040607047526842605A685060586070474D
S315080071A0F01B002010B5036F04461B785B0709D552
S315080071B000F5187017F068FD04F51A70FFF7E2FF7E
S315080071C0002010BD0D20FCE738B58468D4F860525D
S315080071D0B5B1294604F51870FFF70CFED4F86032ED
S315080071E01BB104F51A70FFF7CDFF294604F16000BC
S315080071F01BF0B7FC20B12846BDE83840FFF74DBB69
S3150800720038BD03685A1A11EA220138BF194643687D
S315080072105A1A13EA220338BF0B4643607047416087
S31508007220024A01460248FFF72BB800BFF02B0708B1
S31508007230F81B0020002A00DAFEE71144EFE738B50C
S315080072400D46044617F01DFF2A4601462046BDE8AE
S315080072503840EFE7064B07485A69196A914208BF52
S315080072609A6901F1804104BF01329A61D7E700BFEC
S31508007270F01B00200C1C00208368984203D043684A
S31508007280CB1A002B00DACAE77047D1E9003103F1BF
S315080072900043013B8B4200D0EEE770470146024AA5
S315080072A00248FEF7C7BF00BFF02B0708F81B0020EF
S315080072B0D1E9003103F10043013B8B4200D0AEE730
S315080072C0ECE770B504461D4ED4F878526DBB04F54C
S315080072D01F70FFF7E3FF1A4804F5237120F0FDFF3E
S315080072E008B9C4F88C5204F5267052F07DFC204685
S315080072F019F03DFF04F51870FFF79DFDD4F86C6290
S3150800730096B1104A04F51A70536819465B68984294
S31508007310FBD100234E60C4F86C325368984203D1FF
S31508007320814218BF0D46556070BD6B6829463046C8
S31508007330C4F8783259F0CCFAC6E700BF319F000886
S315080073408C320020F01B002038B50C46A1F16005F0
S315080073502846FFF7B6FF20461BF04BFB2846BDE83C
S31508007360384006F0B5BC70B50C46A1F16006054676
S315080073703046FFF7A6FF20461BF03BFB304606F0DB
S31508007380A7FC0023C5F8A43070BD08B5064B93F8D2
S31508007390B138042B06D10548FFF780FFBDE8084041
S315080073A051F0CEBA08BD00BFF04B0020389400203B
S315080073B04160024A01460248FEF762BFFC2B0708F5
S315080073C0FC1B002010B5274C94F8EE31033B042B28
S315080073D047D8DFE803F0030718140300BDE8104098
S315080073E051F020BFD4F80432987957F011FED4F83A
S315080073F004020E22BDE81040002156F049BBBDE844
S31508007400104051F041BFB4F8EC319B0700D5FEE7B8
S3150800741051F040FD7F2807D094F9FF317F2B01D02A
S31508007420984201DD84F8FF0117F02BFED4F80032EC
S31508007430C01A002806DAD4F850120B488031BDE885
S315080074401040B5E794F8EE3194F9FF01022B1CBF02
S31508007450022384F8EE3151F05BFDBDE8104056F08A
S315080074604FBC10BDF03B00203C3E00200146024ABE
S315080074700248FEF7DFBE00BFFC2B0708FC1B0020F6
S315080074804378FF2B04D1408840BA80B20430704755
S31508007490981C704708B50246FFF7F2FF104408BD6E
S315080074A038B505460C46FFF7EBFF294682B220465B
S315080074B0BDE83840FFF7EBBAF7B50E46174604465F
S315080074C002236A4639463046FFF77AFA054680B9F6
S315080074D09DF8003023709DF80130FF2B0CD0022157
S315080074E0607002333A68C4F80220A288934214D91D
S315080074F00625284603B0F0BD0423394630460DEB71
S315080075000302FFF75DFAD8B901236370BDF80630A8
S3150800751004215BBA9BB20433E4E79BB2934228BFCB
S3150800752013466288A380134472899BB29A42DFD3BA
S31508007530D4F80230A01DC4F80630FFF7FDFCD8E7E2
S315080075400546D6E773B5044601A80D461646FFF765
S31508007550E2FC2946204601AAFFF7AEFF38B9237890
S31508007560B34205D0A18801A8FFF7E6FCF1E717208A
S3150800757002B070BD2DE9FF41054616460A4601468A
S3150800758001A81F46FFF7DEFF044670B9BDF80820BC
S31508007590BDF80680B2423B4628BF324641462846D9
S315080075A05CF06CFD0A9BA3F80080204604B0BDE899
S315080075B0F0811FB514460A46014601A8FFF7C2FF27
S315080075C010B9DDF80A30236004B010BDF0B51746CF
S315080075D0428985B0ADF800101E468A422CBFC1EB21
S315080075E00203C1EB0103C9439BB289B2994228BF82
S315080075F019460546ADF802106A46014601A8FFF786
S315080076005BFF044660B9BDF80C203346974228BF95
S31508007610174628463A46BDF80A105CF02FFDF45581
S31508007620204605B0F0BDF0B51746428985B0ADF8DD
S3150800763000101E468A422CBFC1EB0203C1EB0103B0
S31508007640C9439BB289B2994228BF19460546ADF887
S3150800765002106A46014601A8FFF72EFF044660B9E4
S31508007660BDF80C2096420BD8B2423B4628BF32469C
S315080076702846BDF80A105CF001FD204605B0F0BDAD
S315080076800624FAE710B502231446FFF7CCFF10B913
S3150800769023885BBA238010BD38B504231546FFF747
S315080076A0C2FF044618B9286817F0F6FD2860204678
S315080076B038BD30B585B0044615460A46014601A8C8
S315080076C0FFF740FF40B901232A462046BDF80610B9
S315080076D005B0BDE83040A6E705B030BD30B585B089
S315080076E0044615460A46014601A8FFF72BFF38B996
S315080076F02A462046BDF8061005B0BDE83040C1E769
S3150800770005B030BD30B585B0044615460A46014673
S3150800771001A8FFF717FF38B92A462046BDF8061014
S3150800772005B0BDE83040B7E705B030BD73B51546BE
S3150800773001AA04461E46FFF73CFF28B933462A46E7
S31508007740204601A9FFF73CF902B070BD38B50446DA
S31508007750154601448C4202D30024204638BDA31C9A
S315080077609942F9D36378FF2B02D1231D9942F3D3AB
S315080077702046FFF78FFE8842EED82378AB42ECD03E
S315080077800446E7E70422FFF782B90222FFF77FB92A
S31508007790FF2B73B5054616461C4612D18DF80530E3
S315080077A04FF47F438DF8041001A9ADF80630FFF7B2
S315080077B0E9FF20B9224631462846FFF768F902B0A4
S315080077C070BD8DF8001069468DF80130FFF7DDFFB2
S315080077D00028F4D1002CF2D0ECE770B505460E4629
S315080077E01C46114618460BB1FFF737FC22463146B0
S315080077F0C3B22846BDE87040CAE707B501238DF82D
S3150800780007200DF10702FFF7C3FF03B05DF804FB7D
S3150800781007B552BAADF8062002230DF10602FFF7A6
S31508007820B7FF03B05DF804FB37B5044610460D46AE
S3150800783017F032FD04230190294620460DEB03027A
S31508007840FFF7A6FF03B030BDF0B58FB004A80D460C
S31508007850164618F0D3FC4FF2BF0309212B480DF149
S315080078600602ADF8323028F0A6F960B91D205CF0A2
S315080078708AFC044638B11221728CFFF7C9FF20B181
S315080078802046FFF70AF80FB0F0BD0823132120465B
S3150800789006F11802FFF77CFF0028F1D11C4E1421CF
S315080078A02046B6F8B428FFF7B3FF0028E8D12946E2
S315080078B003A8FFF730FB4FF61173BDF80E70ADF84D
S315080078C0083020467BBA02A9ADF80A30FFF75AFFFE
S315080078D00028D5D13B4629462046BDF80C205CF049
S315080078E0CBFB0028CCD1BDF8065004A830F0D8FF51
S315080078F02A4606F6E82108A81CF025FA2146054876
S3150800790004AA19F075FD0028BDD0B9E7048C00203B
S31508007910F04B00208C34002010B590F82430044633
S3150800792043B1012B01D1436983612046A169BDE8B2
S31508007930104084E44169B1EB510F4FEA510001D977
S31508007940FFF718FB0023A061E38384F82530ECE7F2
S3150800795090F8242042B98268904205D0C2684169ED
S31508007960914201D04261D7E7704710B590F82430AC
S3150800797004467BB1012B08D10169C0680131FFF7C4
S31508007980F9FA60612046FFF7C7FF2046236ABDE87B
S315080079901040184790F825306BB1012BF5D1426994
S315080079A022B10369991A8A4298BF53006361204637
S315080079B0BDE81040B0E7012380F82530D0E905136B
S315080079C0C91AFFF73CFCE28BA38B9A42DDD310BDA4
S315080079D010B5044617F055FBD4E90031E268C01A21
S315080079E09A4202D10028A8BF013110BD2DE9F34102
S315080079F01E461D4B044683424FF000038B41154635
S31508007A000AD217A3D3E9002365F0E4F91749144607
S31508007A1002462846FFF74AFB154B4EF66021B4FB93
S31508007A20F3F203FB1244B4FBF1F34FF47A7801FB4B
S31508007A301344B4FBF8F728460E490097FFF736FBC0
S31508007A4046B1284608FB17420B4902B0BDE8F0418B
S31508007A50FFF72CBB02B0BDE8F08100BFAFF3008092
S31508007A60005C260500000000FF5B2605D32B0708EF
S31508007A7080EE3600D92B0708E82B070813B50068EF
S31508007A8050B14AB141B100230068019301AB59F0E6
S31508007A9070F910F09BF800B1FEE702B010BD2DE9B1
S31508007AA0F843436C15461344026C044693420E464B
S31508007AB01AD84FF000084F1900F11009B74214D12F
S31508007AC0636C1D44236C65649D420BD1B4F8503039
S31508007AD02BB104F1100211462046FFF7CFFF002311
S31508007AE0A4F85030BDE8F883FEE7B4F85030102B00
S31508007AF006D14A4649462046FFF7C0FFA4F85080FB
S31508007B00B4F850305A1CA4F85020234416F8010B38
S31508007B101A7C50401874D1E72DE9F04F1D4685B000
S31508007B209DF8383091460293C36C826C2B4493427D
S31508007B300446884629D86FF0200B0F46CA466B18AC
S31508007B40019300F12003ABEB000B0393019B9F42CB
S31508007B501CD1E36C1D44A36CE5649D426CD3B4F858
S31508007B6050302BB104F1100211462046FFF786FF6C
S31508007B70002194F8542002F121002044C2F10F029A
S31508007B8005B0BDE8F04F65F016BBFEE7B4F8522025
S31508007B90102A16D104F13000024694F854600BEB13
S31508007BA000018E4206DA10F8011D0131C9B20170D2
S31508007BB00029F4D020460399FFF760FF0022A4F8B5
S31508007BC05220029B43BB3E78B9F1000F0AD0B4F8A5
S31508007BD05220511CA4F85210224492F830207240C8
S31508007BE08AF80020B4F85020102A08D104F11002AF
S31508007BF011462046FFF742FF0022A4F85020B4F8A9
S31508007C0050200137511CA4F850102244117C0AF167
S31508007C10010A4E40167499E7B4F852209AF80060A3
S31508007C20511CA4F85210224492F830205640B8F15C
S31508007C30000FD7D03E70D5E705B0BDE8F08F38B550
S31508007C40D0E912329A4204460D4600D0FEE700F10A
S31508007C50300200F12001FFF711FF002304F10F02A3
S31508007C6094F855108B4200DB38BD12F8011F92F8C4
S31508007C7020004140E9540133F2E708B5006828B10D
S31508007C803BF0B9FE0FF0A2FF18B1FEE76FF08600D1
S31508007C90F8E708BD002307B50068019338B120222C
S31508007CA001AB3BF0F7FE0FF091FF18B1FEE76FF05E
S31508007CB08600F8E703B05DF804FB10F5645F00F092
S31508007CC0B8805EDC10F59D4F00F0B5802CDC10F511
S31508007CD0D14F1CD01DDC10F5D24F00F0AE804EDC23
S31508007CE010F5FE4F13D010F5E24F48D10720704724
S31508007CF0012300F14002934041F21902134240F079
S31508007D00988013F4A06FF1D110F13E0F37D10320FC
S31508007D10704710F5D04F00F0908030DB10F59F4F7C
S31508007D20E4D010F59E4FF1E710F5725FDED013DC54
S31508007D3010F57C5FDAD002DC10F57E5FE6E710F519
S31508007D40765FD3D005DC10F57A5FCFD010F5785F73
S31508007D50CBE710F5745FC8E710F5685FC6D00BDC93
S31508007D6010F56C5FC2D004DC20F0800313F5705F59
S31508007D70BBE710F56A5FB8E710F5665F59D0C00F24
S31508007D80704710F5165FB1D01CDC10F5405F56D071
S31508007D90F5DB10F5205FA9D007DC10F5245FA5D028
S31508007DA020F4807313F5265FB0E710F51C5F40D00A
S31508007DB002DC10F51E5F98E710F51A5F96D010F5ED
S31508007DC0185F92E710F1330F22DA10F1400F8FDABD
S31508007DD010F5065F8AD012DC10F50E5F86D020F00B
S31508007DE0800305DC13F5145F80D010F5105F7CE77F
S31508007DF013F50C5F3FF47AAF10F5085F75E710F5D9
S31508007E00025F16D010F58C5F81D010F5045F6CE721
S31508007E1000F11E021A2AB2D80123934013F0A06F6C
S31508007E207FF464AF074A13427FF471AF13F0050F6E
S31508007E30A5D0082070471B207047052070470120F1
S31508007E40704700BF0040400008B5006828B10449E3
S31508007E503BF026FA0FF0BAFE00B1FEE708BD00BFF8
S31508007E600900000208B5006828B121B13BF046FABE
S31508007E700FF0ACFE00B1FEE708BD10B586B00446AB
S31508007E80ADF80630084603AB11460DF10602FEF7BB
S31508007E9038FDBDF810200AB906B010BD2046039972
S31508007EA0FFF7E0FF03A90DF1060056F051FEF0E7D3
S31508007EB0002307B50068019330B1202201AB3BF0DF
S31508007EC0FDFB0FF083FE00B1FEE703B05DF804FB8F
S31508007ED070B50C46054646220021A01C65F06BF9D4
S31508007EE02C2305F580522380B2F8603605F55B56DB
S31508007EF0C3F12C036380B2F8623604F10801A3804B
S31508007F0006F12000FEF7A0FF04F1100106F1340087
S31508007F10FEF79AFF05F5B35004F118011430FEF781
S31508007F2093FF05F5B95004F120011430FEF78CFFD4
S31508007F3005F5645004F128013430FEF785FF05F590
S31508007F40C45004F130011C3019F08FF805F5EA40E9
S31508007F5004F138017830BDE8704019F086B810B5DC
S31508007F600446206818B9BDE810405BF0DCBF436AD8
S31508007F7023605BF0D8FFF4E71F299DBF0068C8405F
S31508007F8000F001000020704710B50B780446FF2B5F
S31508007F9004BF0A230B700B780A460133D9B21A2993
S31508007FA0117001D9172010BD2046FFF7E5FF10B95B
S31508007FB00131C9B2F3E70020F5E7FF2337B50546D7
S31508007FC000248DF8073028460DF10701FFF7DCFF7E
S31508007FD0234601340028F6D0D8B203B030BDFF23BB
S31508007FE037B58DF80730036805467BB1FFF7E5FF1F
S31508007FF0014600B9FEE70020FEF7CAFF0DF10701AA
S3150800800004462846FFF7C0FF00B91CB99DF80700CB
S3150800801003B030BD28460DF10701013CFFF7B4FF58
S31508008020E4B2F1E790F83630024613F00F0004D0B8
S31508008030108F022894BF00200120704738B5012907
S315080080400446456832D151F08FFD237E9A0702D542
S31508008050642828BF64205B0715D5A022204BB0F5FD
S315080080607A7FB3F8DA3128BF4FF47A70534303F5B1
S31508008070FA73B3F57A7F06D34FF47A72B3FBF2F349
S31508008080984228BF1846637E0F2B02D9BC2828BF02
S31508008090BC20A36833F07C4204D0C3F3190398428A
S315080080A028BF1846002808BF0A20606016F0E9FFB6
S315080080B06369014604F10C0098420DD06268AA4231
S315080080C00DD0531A24680A3BE3424CBF0A222146C4
S315080080D0BDE83840FFF7AEB862682160F8E738BDFA
S315080080E0F03B002008B531B1092914D96FF07C435B
S315080080F0994228BF19468368C3F319028A4208D0F1
S3150800810061F319038360037EDB0702D50121FFF7BC
S3150800811095FF002008BD0720FCE738B5064B054645
S315080081201981064B002218680C4665F0DFFD00B180
S31508008130FEE7A5F89A4038BD80BC002084190020C7
S3150800814038B5044608460D4656F062FF20B9A379AD
S31508008150022B1CBF0223A37194F8983003B9FEE7DB
S31508008160022B18BF022384F8995018BF84F8983058
S3150800817038BD10B5038904468B4205D1BDE81040C9
S315080081804FF4004052F07CB801814FF4004052F0A1
S3150800819038F8218904F13000BDE81040BDE710B574
S315080081A0027804465107437819D4120701D50BB350
S315080081B010BD002BFCD1B0F8A0300BB390F83630C8
S315080081C0082B1CBF082380F83630838E190602D484
S315080081D03430FEF766F994F8C8302BBBFEE7002B5F
S315080081E0E6D14388D80505D504F5A350E1691030D2
S315080081F0FFF715F8E17A04F13000BDE810409FE773
S3150800820090F84630DA070AD4838EDB0507D594F84A
S315080082103630012BDFD0012384F83630DBE756F001
S31508008220C9FE0028D7D1F2E7012BC1D0012384F873
S31508008230C830BDE7012342888B4013434380437807
S3150800824023B900F5A3500830FEF79CBF704770B5F8
S315080082500578ED071DD54578012D1CD0468816F002
S31508008260020F18D1022D16D0C6F38005760712D450
S315080082708362049B4282C362FF230374C368002996
S3150800828008BF19460B4043610221FFF7D3FF284672
S3150800829070BD0D20FCE70520FAE770B50578ED07F7
S315080082A022D54578012D21D0468816F0020F1DD11A
S315080082B0022D1BD0C6F38005760717D48362049B6C
S315080082C0002AC3624FF0FF030374C36808BF4FF464
S315080082D09672002908BF19460B4042824361012164
S315080082E0FFF7A8FF284670BD0D20FCE70520FAE732
S315080082F000230380704738B50D46046820465CF0B5
S3150800830037F935B140F0100080B22070000A60706D
S3150800831038BD20F01000F7E700F44052B2F5005FD0
S31508008320034620D148F2400220F44E5020F03F0088
S3150800833090421ED00CD8B0F5446F1AD005D8C8B1F3
S31508008340B0F5046018BF01207047B0F50040F9E7A2
S3150800835003F44C43B3F5404F0BD04CF64043C01AD8
S3150800836018BF0120704710F4406F14BF0120002089
S3150800837070470020704738B505680C4628465CF0FB
S31508008380F7F8FFF7C9FF40B128465CF0F3F8FF2875
S3150800839003D02B5A0020238038BD0620FCE710B5F1
S315080083A0046820465CF0E4F8C30500D5FEE7A0782B
S315080083B010BD38B505680C4628465CF0D9F8C305E3
S315080083C000D5FEE7AC7038BD00F44053B3F5005F46
S315080083D004D100F44C43B3F54C4F07D0B0F5804FA9
S315080083E004D380F04000C0F3801070470020704727
S315080083F010B5C3798288B3FA83F35B095B0001334E
S31508008400934212DA00685CF0B3F880F4807204468E
S31508008410C2F30021FFF780FF48B98A1CC4F3812301
S31508008420022B06D0032B17D02BB1FF2212E00A1D10
S31508008430F4E70232D2B22046FFF7C6FF08B102328D
S31508008440D2B2C4F38134022C08D0032C09D0002CF4
S3150800845018BFFF22104610BD0832EBE70232D2B22F
S31508008460F8E70832FBE7F8B507680E4638465CF0C9
S315080084707FF80546FFF7A8FFD0B138465CF07AF8D2
S3150800848004462846FFF748FF08B10234E4B2C5F3AC
S315080084908125022D07D0032D08D0FF2C08D00020F7
S315080084A03B5B3380F8BD0234E4B2F6E70834FBE7F9
S315080084B00620F7E710B583880446022B07D900681B
S315080084C05CF071F818B12046BDE8104090E7FF202F
S315080084D010BD38B505460C46FFF7ECFFFF2817BF59
S315080084E02B6806201B5C00201CBF03F007032370C3
S315080084F038BD38B505460C46FFF7DCFFFF2817BF21
S315080085002B6806201B5C00201CBF03F01803237091
S3150800851038BD38B505460C46FFF7CCFFFF281FBF08
S31508008520431C2A68DBB2D3581ABF002023600620F2
S3150800853038BD38B505460C46FFF7BCFFFF2800D105
S31508008540FEE72A68431CD9B2545452FA83F3220A26
S315080085505A70220C240E9A70DC702B7F43F00103AC
S315080085602B7738BD00F01800102805D0A0F11803A5
S3150800857058425841C00070470420704708B5430761
S31508008580024608D0FFF7EEFF12F0180F0CBF0530B1
S315080085900630C0B208BDFF20FCE72DE9F04F057B89
S315080085A00788B0F8029087B0031D012D04460E46D1
S315080085B047EA090B019330D0022D0CBF0322002293
S315080085C094F816A04BEA823BBAF1010F04F10E08A3
S315080085D025D0BAF1020F2FD0BAF1000F21D1A37F0F
S315080085E094F82120003B18BF0123B9F5805F4BEAB8
S315080085F0C30305D0B9F5005F21D0B9F1000F29D121
S3150800860045B1BAF1000F05D0208B618B884208BFAF
S3150800861043F04003D70721D5FEE70222D0E74BF403
S31508008620006B5146E0895BF06CFC0028D7D1022F1D
S3150800863018BF4BF0200BD2E74BF4406BF1E7BAF1C9
S31508008640000F40F0A080617F002D40F09480002943
S3150800865040F0A680D50748BF43F48073C2F34002B2
S31508008660F07943EA42255BF03BFC0023D6F80090FC
S31508008670ADF81600294604A8CDF81090ADF81430C8
S315080086805BF004FDE80503D4012104A8FDF7ACFD61
S315080086902846FFF741FE18B1618B04A85BF0F6FC8B
S315080086A004A841465BF0FDFC2846FFF78DFE18B18D
S315080086B0218B04A85BF0EAFC211D04A85BF0F1FC01
S315080086C0BDF81430B380A77FA7B1E37F0DF10F0182
S315080086D01F4304A88DF80F70FDF7FFFF3846FFF714
S315080086E04DFF411E89B204A8FDF77EFD3846FDF709
S315080086F02BFE074694F8213099070ED5022104A8C7
S31508008700FDF772FD0D2304214370017004A8FDF7DF
S315080087106BFD337F43F008033377AA0523880ED50C
S31508008720032B03D094F821305B0714D4022104A844
S31508008730FDF75AFD6FF07F0303703F2343702388CC
S31508008740032B08D194F820300DF10F0104A88DF8F9
S315080087500F30FDF7C2FFF37904A8B3FA83F35B0978
S3150800876007EB430189B2FDF73FFDBDF81430B3802E
S3150800877007B0BDE8F08F00297FF46CAF217F002990
S315080087807FF468AF0CE00DB9617FF8E7022D02D1DE
S31508008790BAF1020FF8D0208B618B88427FF45AAF6A
S315080087A043F0400356E770B50546FFF721FEFF285C
S315080087B0044611D02E6830465BF0F5FE60B1A988F4
S315080087C08C420BDA305DFFF7D9FEFF2808D0044447
S315080087D0E4B2A142B8BFFF24204670BDFF24FBE7E0
S315080087E00446F9E770B506460D46FFF763FEFF280F
S315080087F0044609D03268105CFFF7B4FE22440244EE
S31508008800002053792B7070BD0620FCE770B506462C
S315080088100D46FFF74FFEFF28044600D1FEE73268F3
S31508008820105CFFF79FFE22440244557170BD38B5AF
S31508008830C4790546B4FA84F4FFF73CFE6409FF28B8
S315080088404FEA440405D02B68185CFDF77DFD044407
S31508008850E4B2204638BD70B50646FFF7A4FFFF28E8
S3150800886004462CD0356828465BF082FE83051BD566
S315080088703046FFF7DCFFB188A21C93B210FA82F2E9
S315080088808A4205EB04061CDC2A5D02F07F021344CB
S315080088909CB210FA83F3994213DB3288C2F3C712EB
S315080088A07F2A01D09942E7DC2B7803F00703032BD4
S315080088B005D128465BF06DFE08B90134A4B2E0B2D2
S315080088C070BDFF24FBE738B50546FFF7C4FFFF2850
S315080088D0044614D02868037803F00703032B04D151
S315080088E05BF057FE08B10134E4B22846FFF79FFF54
S315080088F0AB8804449C42CCBF0620002038BD062025
S31508008900FCE710B50446FFF7A6FFFF2816BF236845
S315080089100020C01810BD10B50446FFF7F2FF236803
S31508008920C01AC0B210BD70B50646C0795BF0D8FA59
S3150800893004463046FFF7EFFF05463046FFF777FF58
S315080089400544601B80B270BD70B505468688FFF782
S31508008950E2FF04462846FFF76AFF0444301B80B24C
S3150800896070BD70B506460C46FFF7D5FF054630467E
S31508008970FFF75DFF05442C44B48070BD10B504466E
S3150800898000685BF0F5FD830503D52046BDE8104079
S3150800899009E7FF2010BD08B556F0C0FB003818BF20
S315080089A0012008BD08B556F0B9FB00B1023008BD74
S315080089B0F8B504460D460068E668E1792B1D221DC8
S315080089C005F1280753F804CBBB4242F804CBF9D18A
S315080089D0E660E171AA88296864F00CFEE379EA7911
S315080089E0934209D0B3FA83F35B09002A08BF013B17
S315080089F0AA8802EB4303A380F8BD00232DE9F041C2
S31508008A009EB003930AAB08930823044600680D46F4
S31508008A10ADF824305BF0C7FD00285CD020460DF188
S31508008A200B01FFF756FD002855D1204603A9FFF78D
S31508008A3070FD064600284ED104AF3B462868696893
S31508008A409DF80B8003C30398194618F04CFDA368DC
S31508008A508DF81C80196808A85BF0FFFA2046FFF716
S31508008A60E6FEE379B3FA83F35B09A0EB43052046F8
S31508008A70FFF751FF80462046FFF766FFEDB22B460B
S31508008A800246414608A8009750F0CCFC2046FFF75E
S31508008A9042FF25680246294608A8FFF700F820463F
S31508008AA0FFF72FFF05462046FFF74EFF2A460346E7
S31508008AB0294608A80096FFF72FF82046FFF7B7FEC5
S31508008AC0A38825681B1AE91808A8FFF7B8F8237FB2
S31508008AD043F0100323771EB0BDE8F08100232DE98B
S31508008AE0F041A2B003930EAB0C930823044600682A
S31508008AF00D461646ADF834305BF055FD30B12046CC
S31508008B000DF10B01FFF7E5FC18B1082022B0BDE80E
S31508008B10F081204603A9FFF7FCFC0028F5D104AF35
S31508008B203B46286869689DF80B8003C30398194675
S31508008B3018F0D9FC31680CA88DF81C805BF08DFA0A
S31508008B402046FFF774FEE379B3FA83F35B09A0EBDB
S31508008B5043052046FFF7DFFE06462046FFF7F4FEEC
S31508008B60EDB22B46024631460CA8009750F05AFC47
S31508008B702046FFF7D0FE2668024631460CA8FEF7C7
S31508008B808EFF2046FFF7BDFE06462046FFF7DCFEB1
S31508008B9001220346314600920CA83246FEF7BCFF76
S31508008BA008A90CA8FFF74BF82046FFF740FEA38854
S31508008BB02668181A31182A4608A865F0E1FC003814
S31508008BC018BF0120C000A1E70B6803604B6843602B
S31508008BD0037883F0020303707047082208B565F02E
S31508008BE0CFFCB0FA80F0400908BD10B5044600680D
S31508008BF00FF054FA4FF00043236010BDF0B500277C
S31508008C0087B0044600680E46154605970FF046FAE3
S31508008C104FF000430122236010231146CDE901637A
S31508008C200097AB1D05A80FF035F900B1FEE7059BC7
S31508008C30236007B0F0BD08210FF026BA01F108033A
S31508008C4013F8012D8B4200F8012BF9D17047F8B5BE
S31508008C5007680E4638465BF08DFC044638465BF0DE
S31508008C6087FC0546FFF758FB04EB4003DBB2FF2BF6
S31508008C7013D0C5F38120022805D0032807D0002386
S31508008C8000203372F8BDFB5A33800123F8E7F91840
S31508008C903046FFF7D3FF0223F2E70620F2E7F8B5DE
S31508008CA007680E4638465BF063FC054638465BF0B7
S31508008CB061FC04462846FFF72FFB08B10234E4B2EC
S31508008CC0C5F38123022B12D0032B13D02846FFF7B6
S31508008CD07BFB08B10234E4B2FF2C06D0C5F381351C
S31508008CE0022D09D0032D0DD04DB1062009E002341E
S31508008CF0E4B2EBE70834FBE701253B5B3380002051
S31508008D003572F8BD30463919FFF798FF0225F6E7A0
S31508008D1008B5044BC1800022186864F0EDFF00B165
S31508008D20FEE708BD841900200023036043607047EE
S31508008D302DE9F0410446B0F86C6010F0D2FFE36FFD
S31508008D40364AC11A94F8800000233230A1FB00018C
S31508008D5064F040F8A02794F881307E4303EB830340
S31508008D6000EB430000F1C80800F578752046760840
S31508008D70B54230F8843B28BF3546B04528BFB046D3
S31508008D8013F08002A16F1FD0B4F86C607E433144A3
S31508008D90491BFEF70DFBA36F616F3344A367204B96
S31508008DA072181A61A378626713F0FD0F33D094F82E
S31508008DB06E00A5F5167508EB0502491B00F07F0045
S31508008DC0BDE8F0415BF078BB94F86E30DE090BD055
S31508008DD062F3C71384F86E30491BFEF7E9FA20469A
S31508008DE0BDE8F041FDF75DBB4144B4F86C50FEF7B1
S31508008DF0DFFA94F86E307D4343F0800384F86E30D2
S31508008E000BF0F0F9A26F636F2A44A267044A2B4459
S31508008E1063671361E3E7BDE8F08100BF40420F00D6
S31508008E206C1B0020F8B50446B4F86CC090F86E00C8
S31508008E308C45069DB4F8706000F07F070CD094F856
S31508008E406E0062F3060084F86E004FF6FF729142D8
S31508008E50A4F870300CD1FEE7974206D062F30600FC
S31508008E609E4284F86E00F0D1F8BD9E42E7D1FBE73A
S31508008E704FF6FD72934209D815480246C16022F89A
S31508008E80023B2B68C0F802306B68536094F86E306A
S31508008E90A4F86C106FF3C71384F86E3004F18400DD
S31508008EA0FEF7E4FAB4F86C304BB110F01AFF6067BD
S31508008EB00BF098F9A0672046BDE8F84038E7238804
S31508008EC01B06D1D42046BDE8F840FDF7EABA00BF34
S31508008ED06C1B002013B590F82030DB0717D590F8E7
S31508008EE0212002B9827A0B4C343004F6E40300934D
S31508008EF030F8121CB4F80C39FFF794FF50F0F8FD5F
S31508008F0004F50B6002B0BDE8104021F0CFB802B0FE
S31508008F1010BD00BFF04B002010B504460C30FFF71B
S31508008F202BF808B3A27A8A4205D14FF4804051F053
S31508008F30A7F9002010BD4FF48040A17251F061F9E5
S31508008F4004F5A8500830FFF7D3F923789B06F0D428
S31508008F50A37AE37294F8213013B92046FFF7BAFFD3
S31508008F602046FFF71CF9E4E70720E3E71FB590F86A
S31508008F7020300446990703F001020ED5418C61B1F1
S31508008F80F2B943F0010380F82030FFF7A3FF20462B
S31508008F9004B0BDE81040FFF702B98AB1002294F880
S31508008FA0203011466FF3000384F8203002AB00939B
S31508008FB004F134004FF6FE73CDE90222FFF732FFC3
S31508008FC004B010BD0048B3E6DC3D0020F0B590F8CB
S31508008FD0B43006460D4685B000F1A40400F1B40786
S31508008FE0ABB910222146112051F0DCF860B12146B8
S31508008FF0FDF7ADFF01F8010BB942F9D110236A4616
S315080090002146112051F0DAF8012386F8B4302B46B0
S31508009010224603CABA4218605960144603F1080387
S31508009020F6D105B0F0BD73B514460D460646114691
S315080090306846FDF770FF2146BDF80230BDF80020EE
S3150800904028685BF019F8044650B92B6801A928600E
S3150800905030460193FDF7ACFA044601985AF06EFFC4
S31508009060204602B070BD38B5044600680D468842F1
S3150800907002D05AF063FF256038BD00232DE9F0437E
S31508009080804687B00E4600F52671104615460193B0
S3150800909015F095FD0746002845D07389002B42D068
S315080090A020205BF070F8014601A8FFF7DCFF019C61
S315080090B0002C38D0314604A8FDF72DFF4FF6307343
S315080090C0BDF81290ADF8083009F104035BBAADF8A3
S315080090D00A306B8C20465BBAADF80C302B8C02A993
S315080090E05BBAADF80E30FEF74DFBE0B9204603A992
S315080090F0FEF748FBB8B94B4631462046BDF8102066
S315080091005AF0BAFF78B9102331212046EA18FEF73B
S315080091103FFB40B9019005A940460594FDF748FA7A
S3150800912005985AF00BFF01985AF008FF384607B021
S31508009130BDE8F0832DE9F3411D460023884617460E
S31508009140009306465BF014F801466846FFF78BFF66
S31508009150009CD4B1B8F1060F14BFA02280220121C9
S31508009160204618F0D0F9082D00D9FEE72A463946D8
S315080091702046FDF75FFB40B9CDE9000401A930465A
S31508009180FDF716FA01985AF0D9FE009802B0BDE824
S31508009190F0415AF0D3BE2DE9F04798464FF2BF0A80
S315080091A000248EB0074604A80E46154617F026F882
S315080091B0A8F11703012BADF832A0039400D9FEE7F6
S315080091C02B4632460221384618F0BDF906F1350914
S315080091D00546002849D11421012004F07EFE0446E4
S315080091E0002841D080F808800760304617F0C4FE92
S315080091F029F0010102460431607204F10A0064F0A4
S31508009200F9F9404650F0B2FD014603A8FFF72BFFD7
S31508009210DDF80C80B8F1000F26D0314602A8FDF71C
S315080092207AFE31464046BDF80A30BDF808205AF0A5
S3150800923023FF0546C8B904A82FF038FB4146154B4D
S315080092401548009404AAADF830A017F0A3FF054608
S3150800925058B9D7F878326360C7F878425AF06EFE84
S3150800926028460EB0BDE8F0870325304617F084FE81
S3150800927029F001020346294638460432FFF75AFF09
S3150800928003985AF05BFE002CEAD0204604F020FD35
S31508009290E6E700BF319F00088C34002038B5044645
S315080092A000680D46884202D05AF0B4FF256038BDE2
S315080092B02DE9F04FA64C042189B04FF47A70E56C7D
S315080092C0FDF773FE291804F14800FDF7A8FF636C43
S315080092D0DD072DD5062204F5405595F8C03702FB63
S315080092E0034303F55D53203305F5EC62934240F0E2
S315080092F0058100264FF0060843F2607995F8C07795
S31508009300BE42C0F0018115F0BCFED5F8F41606463B
S3150800931004A85AF0E0FEDFF854820499002940F0C8
S315080093200181D5F8F4361BB917B9384651F0DAF881
S31508009330636C990708D5874D95F8B3389A0700F1F5
S315080093401781012051F0CEF8636C5E0726D54FF0E1
S315080093500008814FD7F8F03E0493049A002A40F09B
S3150800936016830125D7F8F43E0493049A002A40F0A0
S31508009370198301254FF07809D7F8FC3E0493049E1B
S31508009380002E40F01C83D7F8F85E002D40F033839A
S31508009390B8F1000F02D1022051F0A4F8636C1D0643
S315080093A01ED56E4D95F89F31D3B1013BDBB285F8DA
S315080093B09F31ABB9072051F095F8A5F5804393F88E
S315080093C0B138022B0CD14FF0C9F948B195F89E3146
S315080093D0052143F00203624885F89E3125F084F89A
S315080093E0636C18070AD5002604A804968DF814603D
S315080093F01FF0FEFA049D002D40F02883636C990641
S3150800940026D5564D95F8E1387BB115F03AFED5F8D4
S31508009410E43803F5C333A0331B1A002BBEBF95F8F7
S31508009420023943F0010385F8023995F80B1995F8C6
S315080094300A29B5F80839002940F04483002A40F083
S315080094406B83002B40F07483D5F808095AF0F9FBB2
S31508009450636C5A0620D5414EB6F8C03843B1013B75
S315080094609BB2A6F8C0381BB906F6BC0027F01AFA54
S31508009470D6F8BC586DB1013DC6F8BC584DB90220A6
S315080094804AF0C8F83748294627F000FB28464AF02C
S3150800949081FC344825F076FA636CDB0540F15D8380
S315080094A00020034605463049A1F2A466CA787AB177
S315080094B0013AD2B2CA7032B1086806EB8302C2F822
S315080094C0A406012001330135232D01F10401EDD154
S315080094D0002104EB830404F5B5540734222B04DC7D
S315080094E014F8042B002A40F03483002840F0358312
S315080094F0082009B0BDE8F04F50F0F4BF11790632E4
S31508009500013902F8021CF1E608FB065393F86437A2
S315080095102BB918FB0690204455F0C2FCEEE601363E
S31508009520F6B2EBE68B69F31AB3F5FA6F0BD38B79C0
S31508009530580708BFD5F84037404604BF0133C5F879
S315080095404037FDF771FC04A8FDF733F9E5E600BFDF
S31508009550F01B0020F04B0020F07B0020F08B002051
S31508009560A0540020AC94002094320020E45200203D
S3150800957095F8683B13B1013B85F8683B95F86A3B5B
S315080095803BB1013BDBB285F86A3B13B99D4824F031
S315080095908DFE9D4E96F8507E37B1013FFFB286F894
S315080095A0507EB7FA87F77F0995F8B138042B00F291
S315080095B08680DFE803F0038404658200FEE796F8F8
S315080095C0FC8D002F4DD095F8643B434511D96FF0BB
S315080095D0630095F9151920F090F909281DD8542328
S315080095E003FB0848894E08F5864808F17C08B0450B
S315080095F003D1874824F02AFE13E096F8363003F0A4
S315080096000F03072B07D16FF0630096F93D1020F082
S3150800961074F9092801D85436E9E70221794824F073
S3150800962063FFD5F87C6B7B4B9E427FF48DAEA6F527
S31508009630317024F0FBFF784B7848C5F8843B4FF629
S31508009640FF73A5F8903B01237549C5F8800B85F88B
S31508009650983BFDF78FFCC5F8880B3046FEF75CF99A
S3150800966072E6B8F1000F2AD06E482BF0D3FE95F8B3
S31508009670633B834223D801216B4827F0EFFA09E0C0
S3150800968096F8FC3DCBB167482BF0C4FE95F8633BD2
S315080096909842F0D29FB196F8FC2D95F8653B9A4210
S315080096A003D90321604827F0D9FA564824F00EFE5C
S315080096B028B9544824F096F801E0002FF5D1002384
S315080096C00493052304A88DF814304FF001081FF001
S315080096D08FF9DDF81090B9F1000F33D1542396F8BD
S315080096E0FC7DDFF8289103FB074707F586477C379B
S315080096F0A9F1040AA9F6482B4F4575D100234B4911
S3150800970011F8012F013350B20028C8BF02F1FF3209
S31508009710DBB2C8BF0A703F2BF2D195F8B138042BDB
S315080097200DD140482BF076FE092808D996F84C3E0C
S31508009730013386F84C3E15F0A4FCC6F8480E49F0ED
S31508009740ADFD01E699F8363003F00F03072B39D83B
S3150800975008FA03F313F0C60F06D113F0110F2DD133
S3150800976013F0280706D0FEE74FF47A72D9F8783056
S3150800977002FB03F709F160001FF02CF898B115F009
S3150800978080FC4FF47A72D9F86C30C01AD9F8643074
S315080097905343984207D399F860306FF3C71389F893
S315080097A0603055F075F915F06CFCD9F81430C01A0C
S315080097B0B84209D34946134825F02EFD04A81FF0E0
S315080097C0F5F886E70027D5E795F8B1085AF01EF9A7
S315080097D00028F3D099F8363003F00F03012BEDD1AA
S315080097E0484659F0BDFFE9E7B9F83410B5F8B4288A
S315080097F091421DD115F045FCC9F8140009F1540928
S315080098007AE700BFA0540020F05B00206C5F0020C0
S31508009810A056002064570020F09C090090B208006A
S31508009820F19C0900685F0020D8550020F7690020E0
S3150800983015F027FCD9F81420AB4BA0EB0208B9F8B1
S315080098405220012A82BF02F57F42FE32A9F8522031
S3150800985099F83620984502F00F023AD999F852102D
S31508009860072A6FF3000189F8521038D195F8B12804
S31508009870022A07D101219D482BF0DEFD95F8692BB8
S3150800988082424FD309F10C0104A81AF01CFA1A21D6
S31508009890974804AA20F0FAFB40B999F8512012F02B
S315080098A00C0F04BF42F0030289F8512099F85120A1
S315080098B0930714D0D11C61F3010289F851204FF4A3
S315080098C07A7050F01BFB49460246894820F01BFC7B
S315080098D005E0072A03D195F8B128022A34D199F868
S315080098E0362002F00F02052A2ED109F10C0104A830
S315080098F01AF0E9F91A21584604AA20F0C7FB18BB42
S3150800990099F8512012F00C0F19D099F85110C1F39B
S315080099108102033202F0030262F3830189F85110CF
S31508009920BAB90CE0734A9045D9D909F10C0104A8D3
S315080099301AF0C9F91A216E4804AA20F003FC494610
S315080099406D4825F069FC59E799F8512012F00C0F7B
S31508009950DBD195F8B128042A7FF450AF504699F820
S3150800996050102BF0FFFC00287FF448AF484654F00F
S31508009970CBFE0F287FF642AF604A90457FF63EAF92
S31508009980B9F834105948890A2BF0FEFC36E7D37C1F
S3150800999004A83F2B82BFC033D3744FF001081EF0D2
S315080099A0C2FEDAE4938A33B1013B9BB2938203B9D0
S315080099B015764FF0010804A81EF0B5FED5E4B38A63
S315080099C053B1013B9BB2B38223B9737E43B9757613
S315080099D0A6F814904FF0010804A81EF0A4FECEE4E1
S315080099E0F28A53080F2B38BF0F239A42F2D0F3821C
S315080099F07823B382EEE7AB8A03B9FEE7013B9BB255
S31508009A00AB82FBB9EB8A4FF00108AB825B009BB2D5
S31508009A10782B28BF782331463948EB82A5F8188079
S31508009A205AF053F9294637481EF067FE02212846A0
S31508009A3058F092F8002E3FF4A6AC30461EF084FD8E
S31508009A400546A2E42E464FF00108F6E795F83630AB
S31508009A507F2B33D8B5F8C02082B3B5F8C2300133AE
S31508009A609BB29A42A5F8C23028D8B5F85630029665
S31508009A70C3F30D03FBB90121234A022058F022FD46
S31508009A80014602A8FFF70AFC029FA7B11F4B204A0E
S31508009A90EB1ADB10534338460DF10601ADF80630D4
S31508009AA0FDF773FE38B9CDE9020703A858F03EFE64
S31508009AB003985AF0AFFB02985AF0ACFB04A81EF0C4
S31508009AC075FF97E40139C9B285F80B1900297FF4A7
S31508009AD0B5AC42BB23B1013B9BB2A5F8083973B3B9
S31508009AE00C48FDF74FFBAFE49F860100685F002036
S31508009AF024550020EF490200A05400208F5F010082
S31508009B00E88A0020EC8A0020B42B07089857002022
S31508009B10295C8FC2B8940020013AD2B285F80A2986
S31508009B20002AD7D08DE4013AD2B285F80A29D1E7BE
S31508009B30013B9BB2A5F80839002B7FF485AC95F854
S31508009B40E13813B1012385F8E1380548FEF7D0FB63
S31508009B50C6E704F8041C0133C0E409B0BDE8F08F79
S31508009B60FE9400202822002163F025BB2DE9F04150
S31508009B70037805468CB0002B41D0244BDB6893F85C
S31508009B80801A01293BD1DFF88C80B8F8D47207F522
S31508009B908076B6B2304604F0A0F9044600B9FEE76E
S31508009BA031460DF106024AF07BFD00B1FEE75FB1D2
S31508009BB0BDF80660B8F8D422A019D8F8D0123E44E9
S31508009BC063F018FDADF8066002A8FFF7CBFF28463C
S31508009BD0FCF7DFFC0E4B039004936B7893B12B8C48
S31508009BE00022ADF82230BDF8063002A811460794C7
S31508009BF0ADF820304EF08AFF204604F069F80CB024
S31508009C00BDE8F0814FF44043EAE700BF80BC00207E
S31508009C10412C0708F08B002010B5074C94F8D83271
S31508009C204BB104F53670FFF7A1FF04F53070BDE8B7
S31508009C30104016F009BF10BDF08B002010B50C4B74
S31508009C400446DB688AB093F8803A012B0ED190F867
S31508009C50B5305BB16846FFF785FF2046FCF799FCEF
S31508009C60044B0190684602934EF0E9FF0AB010BD16
S31508009C7080BC0020412C070830B505780446A94267
S31508009C808BB029D000F8B41BFDF77CFA2378023D87
S31508009C90023B022B8CBF00230123022D8CBF00251B
S31508009CA00125AB4218D0104BDB6893F8803A012B9C
S31508009CB012D16846FFF756FF0C48FCF76AFC0C4BB6
S31508009CC001900293238CADF81A302378023B022BBD
S31508009CD004D968464EF0B3FF0BB030BD0022684683
S31508009CE011464EF013FFF7E780BC0020C88E00200F
S31508009CF04F2C07082DE9F84F9A4603780446012B9E
S31508009D0089461746394E63D121214846FDF7A5F9FC
S31508009D10831F9BB21A2B804661D82379344A13F0E5
S31508009D20040FC3F38001334B0AD0C4E92324C4E9E2
S31508009D3025341825D6F8EC330133C6F8EC3340E061
S31508009D400A2020812C4804F1100BC4E92104C4E937
S31508009D5023245846C4E925341EF098FB054698BBCB
S31508009D60237943F00403237123896381D4F89C3053
S31508009D70002BDED1E3685BBB5146584623F0B4F8A6
S31508009D80054608BB4246494604F1480063F032FCE2
S31508009D901A4B04F1A800002F08BF1F46184B394676
S31508009DA09F4228BF194684F806806571FDF747FA71
S31508009DB002212046FFF760FFD6F8D0330133C6F8F4
S31508009DC0D0332846BDE8F88F072D08D00D2DB1D120
S31508009DD0D6F8E4330D250133C6F8E433F1E7D6F8AF
S31508009DE0E83307250133C6F8E833EAE7F08B0020A5
S31508009DF073650008677300087D9E0008C0D40100DB
S31508009E00C027090038B503780446012B0D4615D935
S31508009E100121FFF731FF04F1A800FDF73FFA201DE5
S31508009E201CF019F80722074B013A07D01978A942FE
S31508009E3005D15A6804498B5801338B5038BD08330D
S31508009E40F2E700BF602C0708C08F002038B504462B
S31508009E500D46037841B16BB90121FFF70DFFBDE847
S31508009E6038400548FDF78EB923B1FFF7CBFF2946E1
S31508009E702046F2E738BD00BFB88E00200421C1E7AE
S31508009E8005210148BEE700BF0090002070B50E46C8
S31508009E900546234CD0B94CF2503106F51F70FDF734
S31508009EA0CEF9D4F8B4349E420AD1032104F582606F
S31508009EB0FFF7E2FED4F8F0330133C4F8F03370BD8F
S31508009EC0D4F8FC330133C4F8FC33F8E7154801F538
S31508009ED023711EF002FA08B9C6F88C0206F5267038
S31508009EE04FF082FED4F8B4349E4211D194F810345F
S31508009EF0033B012BE3D8013DEDB2042D97BF0A4B76
S31508009F0006215B1993F8A0100848BDE8704079E768
S31508009F10042D02BFD4F800340133C4F80034CEE768
S31508009F20F08B00208C320020F02B070800900020D0
S31508009F302DE9F04306680F46D6F878121C4600232A
S31508009F4005460A4685B00293002A65D1002C40F0E2
S31508009F5091805AF00DF9014602A8FFF784F8DDF85A
S31508009F600880B8F1000F00F09E802A7A07F13509BB
S31508009F7029F00109182A99F8013043D1442B41D117
S31508009F80102138460DF10702FDF793FB0446002819
S31508009F9070D19DF80730012B34D10B21384603AA1E
S31508009FA0FDF79CFB0446002864D1BDF80C2006F595
S31508009FB0267402F00702A2F57472404992B220464E
S31508009FC019F0C1FE20464FF041FE3D4A06F52371C1
S31508009FD0D2F89C06034653BBC6F88C02C2F89C16F8
S31508009FE00123384C86F87432D4F8B4349E4222D110
S31508009FF0042104F58260FFF73FFED4F8F8330133F5
S3150800A000C4F8F83399F801200121404617F07BFA85
S3150800A0106A7A082A15D9FEE7954246D01346526849
S3150800A02092E75A68002A91D052685A608EE7994298
S3150800A030D6D01B68CFE7D4F804340133C4F8043407
S3150800A040E0E7404605F10A01FCF7F4FB044688B947
S3150800A0507A89BB899A4216D800233A46304603A91C
S3150800A060CDF80C800293FEF7DEFF0446039859F0FC
S3150800A07065FF7CB1304621466B7A05F10A02FFF787
S3150800A08059F8029807E0404617F096FC044600285F
S3150800A090E2D0EFE7204659F051FF284605B0BDE863
S3150800A0A0F04303F015BE0324E4E7002BB9D10029D9
S3150800A0B03FF44CAF4B68C6F8783247E7D8560020CD
S3150800A0C0F02B0020F08B00200A4690F8FE10FDF7D2
S3150800A0D03DBB002910B514BF33210E211446FFF7E6
S3150800A0E0F3FF38B1D0F802302360D0F806300020EC
S3150800A0F0636010BD1720FCE7F8B5044618300D4616
S3150800A100FDF7CCF84FF0FF3323746374A374E3743C
S3150800A11023756375A375E37523726372A372E3727D
S3150800A12023736373A373E37395F8FE30DBB1264696
S3150800A1306378284643F00103637016F8087B3246B5
S3150800A1403946FFF7C6FF28B996E8030004F110035D
S3150800A15083E8030017B9284650F0AAF82078BDE826
S3150800A160F84059F09DBEF8BD2DE9F04107468846EE
S3150800A1700326194D86B0013E02D106B0BDE8F0812E
S3150800A1803B78E3B96B7803F50033404629780593A5
S3150800A190FFF79AFF0446E0B14278D2B1FF2A0CBF16
S3150800A1A00423022303440292019300220123114649
S3150800A1B0009305A80DF06EFE014610B1FEE7AB78D8
S3150800A1C0E1E76278FF2A0CBF04200220204462F0EF
S3150800A1D0F2FF0335CFE700BF952C070870B50D468B
S3150800A1E0C2B00446FCF7A8F995F8FE604EBB237882
S3150800A1F04FF0FF31002B14BF022001204FF0B9FEAB
S3150800A200637866F3000322466370284612F8081B33
S3150800A210FFF75FFF48B14FF0FF3323726372A372F3
S3150800A220E37223736373A373E37314F02AFF23782B
S3150800A2306060012B1ED1284642B0BDE870404EF042
S3150800A240C5BB01A859F034FE3246294601A863F079
S3150800A250D1F9D5F80031204601A941938DF802615C
S3150800A260FFF782FF207801A94FF074FE637843F068
S3150800A2700103C8E742B070BD70B50C460546C2B0CA
S3150800A28001A859F015FE94F8FE602146324601A849
S3150800A29063F0B0F9D4F80031284601A941938DF846
S3150800A2A00261FFF761FF287801A94FF053FE42B01B
S3150800A2B070BD10B591F8FE200446FF2A09D080F833
S3150800A2C0FE2063F097F914F0DCFEC4F800010020C4
S3150800A2D010BD0720FCE72DE9F8430F46984690F88D
S3150800A2E0FE4005461646FFF7EFFEC4F1FE0401469A
S3150800A2F0A4B208F1020918B94C450AD2032021E094
S3150800A300437802331C44A4B24C45F7D32846FCF7DD
S3150800A3105BF895F8FE30B8F1FF0F994405EB03009A
S3150800A32085F8FE90EF5414BF0223042342463146B3
S3150800A33080F80180184463F05DF914F0A2FEC5F8B0
S3150800A34000010020BDE8F88313B50446084614F05A
S3150800A350A3FF04230190342120460DEB0302FFF7E7
S3150800A360BAFF02B010BD10B50446FFF7ADFE0146B0
S3150800A37020B12046BDE81040FCF726B810BD1021D4
S3150800A3800DF082BED0F8020000BA70472DE9F74FEB
S3150800A3900C460021FE2284F8FE10037805468B42FF
S3150800A3A0ADF8042018BF0220224608BF012001ABE1
S3150800A3B04FF026FE0746002842D1BDF80430FE2B92
S3150800A3C03DD88146314E84F8FE3006F1060B2B78CF
S3150800A3D0002B39D196F801A020463178FFF774FE94
S3150800A3E0804698B142788AB1FF2A0CBF042102211F
S3150800A3F001AB01440AF500300DF00CFE38BB98F8A5
S3150800A4000120019B9A4218BF4FF0010903365E45A9
S3150800A410DDD1B9F1000F03D021462846FFF72CFFFE
S3150800A4202B78BBB933212046FFF79DFF3421204600
S3150800A430FFF799FF14F025FEC4F8000100E017277E
S3150800A440384603B0BDE8F08F96F802A0C4E74FF08F
S3150800A4500109DBE734212046FFF736FE06460028C9
S3150800A460EED0FFF78FFF0A4B6D68984228BF184653
S3150800A470804614F006FE431B98458ABF2D1A002015
S3150800A48005EB0800B11C17F02EF8D3E7952C070842
S3150800A4900014730F30B50446C3B001A859F008FD7F
S3150800A4A001A92046FFF772FF054601A92046FFF7D6
S3150800A4B023FE284643B030BDF0B5D5B00C46054658
S3150800A4C013A8164659F0F4FC00230D21204601AACC
S3150800A4D08DF84830FDF76DF860B9BDF80630ABB9B0
S3150800A4E09DF8483033B12B78012B03D1342102A8CB
S3150800A4F0FBF73FFF284613A9FFF748FF204649F018
S3150800A50091FB0546002845D1002525E001230DF1DC
S3150800A510030201A92046FCF753FA9DF8031002A886
S3150800A520FBF727FF012101A8FCF706FDD5E79DF8F3
S3150800A5304820A2B926BB2378052B21D197F8AA3142
S3150800A540DB071DD42046FCF7A5FF04469DF84A31D3
S3150800A55013AA13449C42EAD3284655B0F0BD02AB71
S3150800A56021781A449A421846ECD00078013388427A
S3150800A570F8D12EB9052903D1084B93F8AA31DFE79C
S3150800A58029462046FCF78CFF0028DBD02846FCF736
S3150800A59084F9B9E7014F13ACD8E700BFF03B0020B8
S3150800A5A02DE9F04106468EB0084614461F462BF0A4
S3150800A5B075FC102805460FD80A2840F2FB80A0F142
S3150800A5C00B03052B00F2F680DFE813F08A00F4008F
S3150800A5D0F4001A008A0012001F284FF0000022D04B
S3150800A5E0212D00F099801A2D5CD00EB0BDE8F081BF
S3150800A5F018233A4621463046FEF7CDFD0120F4E7FA
S3150800A60096F87432002BF9D017233A46214630467D
S3150800A610FEF7C1FD0028F1D14CF2503106F51F7046
S3150800A620FCF70DFEEAE74FF2BF06029004A815F004
S3150800A630E5FD2046ADF8326017F094F970B31421A1
S3150800A640204601AAFDF74AF840BB284659F09BFD6B
S3150800A650014602A8FEF707FD029DFDB1214603A8A3
S3150800A660FCF759FC21462846BDF80E30BDF80C20EB
S3150800A67059F002FD90B9BDF8044004A82EF010F96F
S3150800A68022464D4908A819F05EFB29464B4804AAFC
S3150800A690ADF8306016F0ACFE00B90290029859F099
S3150800A6A04DFCABE70122214603904548FFF704FF1E
S3150800A6B0014603A8FEF7D7FC424AD2F80C34013308
S3150800A6C0C2F80C34039B4BB104930023304604A90B
S3150800A6D00393FBF76DFF049859F030FC0398DEE707
S3150800A6E000230F2803930FD0012221463648FFF78F
S3150800A6F0E3FE014603A8FEF7B6FC324AD2F8083450
S3150800A7000133C2F80834DDE7204649F0AFFA0146BE
S3150800A71003A8FEF7A8FCD5E7019004A815F06EFD7E
S3150800A7203021204602AAFCF744FF00283ED1042324
S3150800A730204603AA02A9FCF743F9B8BB042102A8DC
S3150800A740FCF7FAFBBDF80C7087B3BDF80E506DB375
S3150800A7501E49082057F03BFF014601A8FEF79EFD5B
S3150800A760DDF80480B8F1000F20D021464046BDF838
S3150800A7700A30BDF8082059F07FFCB8B906F52671ED
S3150800A78004A87FBAADF830706DBA16F0E5FB102351
S3150800A7903121204608AAADF83250FCF7C7FF28B980
S3150800A7A0404604A94EF0C4F900B90190019859F041
S3150800A7B031FD23E7002018E7D85600208C34002006
S3150800A7C0A83C0020F08B00207C3C0020B42B070816
S3150800A7D02DE9F0430546D3B002A815F00FFDAC6C81
S3150800A7E0ACB16B6C05F13C069E4210D161893C23E5
S3150800A7F03C3989B202AA2046FCF7D7F814F041FC86
S3150800A8000C99401A002805DA3046FCF708FD53B0C3
S3150800A810BDE8F083214605F14800FCF705FB012257
S3150800A8200DA92548FEF7EAF90023244F11A8C7F811
S3150800A830A43159F03DFB15204FF098FA044600283C
S3150800A84034D00322837911A962F3C603837107F111
S3150800A8508C00FFF79BFD30BB4FF00908DFF86890C6
S3150800A860B8F1010814D106212046D7F82421FCF7AF
S3150800A870DBFFC0B92946124856F02AF82146104B84
S3150800A8801048009502AA16F085FC0028BFD00AE0F9
S3150800A89019F8011B11A8FFF717FC20B12146FCF790
S3150800A8A0FFFD0028DCD02046FBF7F7FF00213046E5
S3150800A8B0FCF7C5FCABE700BF843D0020F03B002059
S3150800A8C0CDA800088C3400209B2C070880E7014897
S3150800A8D07EE700BFE093002070B50C460546C2B07F
S3150800A8E001A859F0E5FAFF220021204662F063FC30
S3150800A8F0284601A9FFF74AFD054640B99DF80261B9
S3150800A9002046324601A962F075FE84F8FE602846A4
S3150800A91042B070BD70B504464FF0FF352646437801
S3150800A92005746FF30003437045748574C574057523
S3150800A93045758575C575057245728572C572057347
S3150800A94045738573C573FBF7F7FD16F8183B29465B
S3150800A950002B14BF022001204FF00BFB3046FCF7FA
S3150800A9609DFC2378012B02D10348FCF797FC20783D
S3150800A970BDE8704059F094BAD43C00202DE9F04166
S3150800A98080460E4618F8105B044629461746304698
S3150800A9904246FFF79EFB0543EDB28DB1404604F1F2
S3150800A9A0080118F09FF9002811DD31462046FFF707
S3150800A9B015FC49F0A1FC207859F072FA002004E051
S3150800A9C030464FF075FC0028E8D0BDE8F081002F2E
S3150800A9D0EBD10028EFD041F2883104F11800FCF7DA
S3150800A9E02EFCE8E738B515460022FFF765FD044654
S3150800A9F050B101462A46054816F0FAFC20B1204611
S3150800AA00BDE83840FBF749BF38BD00BF8C3400208D
S3150800AA102DE9F0419CB0804601A80C461F46154614
S3150800AA20229E15F0EBFB4FF2BF03ADF8263000234C
S3150800AA308DF86C3023781BB10E210BA8FBF799FC17
S3150800AA4063781BB133210BA8FBF793FCA3781BB1E2
S3150800AA5005210BA8FBF78DFCE3781BB103210BA896
S3150800AA60FBF787FC23791BB102210BA8FBF781FCB6
S3150800AA7063791BB107210BA8FBF77BFCA3791BB1F4
S3150800AA8034210BA8FBF775FCE3791BB101210BA850
S3150800AA90FBF76FFC237A1BB100210BA8FBF769FCB7
S3150800AAA0237B1BB14A210BA8FBF763FC637A1BB116
S3150800AAB004210BA8FBF75DFCA37A1BB10C210BA89C
S3150800AAC0FBF757FCE37A1BB135210BA8FBF751FCC2
S3150800AAD02F44BD421BD198F80030002B14BF1A2012
S3150800AAE00B204FF043F9054638B39DF86C30A3B9EF
S3150800AAF001A82DF0DBFEDEB92946114801AA16F099
S3150800AB0077FC044680B920461CB0BDE8F08115F8EC
S3150800AB10011B0BA8FBF72DFCDBE70D210BAAFCF7A5
S3150800AB2037FE04460028E3D02846FBF7B6FEEAE7D8
S3150800AB30314601A814F0ACFEDEE70324E3E700BFC4
S3150800AB408C34002030B50446C3B001A859F0B0F9DA
S3150800AB50204601A9FFF71AFC044668B9074D15F8FF
S3150800AB60011B01A8FFF7B0FA20B10134E4B2052CA5
S3150800AB70F5D1012043B030BD0020FBE7A32C070820
S3150800AB8010B50C460E21FFF79FFA38B1D0F80230FF
S3150800AB902360D0F806300020636010BD1720FCE75C
S3150800ABA070B500F1080604460D46C4B031461030AB
S3150800ABB018F098F8002821DA237883B903A859F001
S3150800ABC077F903A90E48FFF7E1FB01A903A8FFF7E8
S3150800ABD0D7FF20B9314601A818F084F870B1294684
S3150800ABE02046FBF799FF032808D141F2883104F182
S3150800ABF0180044B0BDE87040FCF721BB44B070BDF6
S3150800AC00A83C002043789B0706D4044B93F8B13838
S3150800AC10023B012B00D8C3E7704700BFF04B00206A
S3150800AC2038B504460D46FFF7D9FA104B93F8B138F4
S3150800AC30032B07D8012B13D86BB12078BDE8384011
S3150800AC4059F02EB9042BF8D129462046FFF754FAB5
S3150800AC5049F052FBF1E729462046FFF74DFAECE7A3
S3150800AC6029462046FFF7CEFFE7E700BFF04B002056
S3150800AC7010B50446C2B001A859F01AF9204601A930
S3150800AC80FFF784FB18B9204601A9FFF7BBFF42B0BE
S3150800AC9010BD0148ECE700BF7C3C00200048E7E710
S3150800ACA0A83C002010B50C460521FFF70DFA50B157
S3150800ACB02146831C123053F8042B834241F8042B97
S3150800ACC0F9D1002010BD1720FCE7082208B563F06B
S3150800ACD057FCB0FA80F0400908BD38B504460D4661
S3150800ACE0FFF7F3FF28B1BDE838404FF400304FF0C6
S3150800ACF0C7BA2B684FF4003023606B686360BDE801
S3150800AD0038404FF07EBA07B590F85230DB0704D5C5
S3150800AD10B0F8500003B05DF804FB122106480DF1A7
S3150800AD20060224F048FF18B14FF47A73ADF80630DE
S3150800AD30BDF80600EEE700BF048C0020F8B5154EF6
S3150800AD40044696F8B3389B0723D549F083F8A78AB3
S3150800AD50A0B12046FFF7D7FF0546D7B9043402212C
S3150800AD6020461DF093FB2946204622F0BDF82946C9
S3150800AD70A6F6E660BDE8F84013F0DCBE4FB13946EA
S3150800AD80A6F6E66013F0F4FE201DBDE8F8401DF0B7
S3150800AD9073BBF8BDF04B0020F0B50546007840B30C
S3150800ADA00A88C600F6B2B2FBF6F3012706FB1322A1
S3150800ADB0431EDCB2C2F3C403E31A55FA83F35B7885
S3150800ADC002F0070207FA02F213EA020011D04B88D2
S3150800ADD0B3FBF6F206FB1233C3F3C402A41A55FA00
S3150800ADE084F003F007039F4043783B4214BF0120D9
S3150800ADF00020F0BD41F2210337B50C460546014651
S3150800AE0001A8019349F0DCFB48F205032080294696
S3150800AE1001A8019349F0D4FB608003B030BD30B57A
S3150800AE200546C3B008A80C4659F096F808A8FDF7D9
S3150800AE300BF80822294608A8FDF714F8694608A859
S3150800AE40FDF736F86B4603CB20602378616043F044
S3150800AE500203237008A859F075F843B030BD2DE9F0
S3150800AE60F04704469946254B8CB0186890469A8850
S3150800AE709B79029020460F460DF1080AADF80C2082
S3150800AE808DF80E30FCF774F9A8B34FF4807120469C
S3150800AE90FCF7E3F8064611213846FCF7DEF8B31F3F
S3150800AEA09BB2F92BC5B226D8102D24D81022002122
S3150800AEB00DF11E0062F07FF99AE80300D8F8003019
S3150800AEC02A46CDF81630D8F804300490ADF8141098
S3150800AED00DF11E003946CDF81A3062F08BFB31466B
S3150800AEE02046CDF8009005F10E0304AA56F03FF867
S3150800AEF00CB0BDE8F0870720FAE700BF79450708D8
S3150800AF0013B5044668461EF06DF8638862785BBA26
S3150800AF10022AADF8003000D1FEE7023AD2B2022A80
S3150800AF2028BF02226846211D1EF0DEFA0020009B7B
S3150800AF309AB262F30F001B0C63F31F4002B010BDF8
S3150800AF4000232DE9F3410B60438904460E46002B86
S3150800AF5033D01D4F608988B301282ED060682189B7
S3150800AF6078B302236A46FBF702FD6D466B78628961
S3150800AF7003F10208424520D32A78C2B9042B1CD112
S3150800AF80606828B106236A4604F10801FBF718FD34
S3150800AF90D5F8020014F080F9FBF7FFF92B78002B9F
S3150800AFA00CBF3B46002318403368034333604146D1
S3150800AFB004F10800FBF7C0FFCCE7062002B0BDE8A5
S3150800AFC0F08125680D44D1E700F8FF071FB5002377
S3150800AFD00293ADF80C30831C0193437801A8ADF8B1
S3150800AFE00E30FFF7ADFF05B05DF804FBF7B590F836
S3150800AFF0FE300546FF2B00EB03065CD1062003B0A6
S3150800B000F0BD6178FF29F9D0A71CBE42F6D32046C9
S3150800B010FCF740FA8642F1D323780E2B0BD80E2B79
S3150800B02010D8DFE803F0213E442E42420F440F0FAA
S3150800B0300F0F340F4400352B2CD013D8332B36D0B2
S3150800B040342B36D0611B2846227889B2FCF77EFB62
S3150800B0500028D3D12046FCF71DFA0446B442D0D3C3
S3150800B0600020CCE74A2BEDD10229C7D9A378002BBB
S3150800B070C4D1B4F803305BBA0B3B9BB20F2BE1D9B2
S3150800B080BCE73846FBF7D6F90028DBD1B6E7022934
S3150800B090D8D8B3E7204601A9FFF798FF0028D1D0F2
S3150800B0A0ACE702239942CDD2A8E71023FAE7082392
S3150800B0B0F8E70423F6E70446D0E730B50C46C3B0F4
S3150800B0C0054601A858F0F4FE214601A8FFF7F1F855
S3150800B0D018B10724204643B030BD01A8FFF786FF04
S3150800B0E004460028F5D1284601A9FFF799FDF1E79E
S3150800B0F030B585B00C466A4635210546FCF759FA3F
S3150800B10038B9009BCDE90105214601A80393FFF74D
S3150800B11017FF05B030BD002310B5044683710948F2
S3150800B120084058B1237004236370FBF736F914F00E
S3150800B130B3F80623C4F80200A37110BD002AF1D1A2
S3150800B140FBE700BF00F8FF0773B591F878300546AE
S3150800B1500C465BB1684617F08FFD08236A460E2138
S3150800B1602846FFF7B8F8002840F0B48094F87930FC
S3150800B1706BB1684604F1100117F07EFD08236A4694
S3150800B18033212846FFF7A7F8002840F0A38094F853
S3150800B1907E30002B40F0978094F880307BB10021F8
S3150800B1A0B4F85A306A465BBAADF80130284603232C
S3150800B1B08DF80010FFF78FF8002840F08B8094F880
S3150800B1C084307BB10022B4F85C308DF800205BBA7D
S3150800B1D0ADF801306A4603234A212846FFF77BF873
S3150800B1E0002877D194F883306BB100226846616FE6
S3150800B1F0FFF791FF6A46352128469DF80630FFF786
S3150800B2006AF8002866D194F87C30002B64D194F84B
S3150800B2107D3043B108230721284604F14902FFF788
S3150800B2205AF8002856D194F87A3043B110230521EC
S3150800B230284604F12002FFF74EF800284AD194F870
S3150800B2407B3063B104F1300611213046FBF705FF68
S3150800B2503246C3B203212846FFF73DF8D0BB94F81F
S3150800B2607F305BB1B4F858306A465BBAADF8003047
S3150800B270012102232846FFF72EF858BB94F881309F
S3150800B2803BB110230421284604F15E02FFF723F898
S3150800B29000BB94F88230A3B1204640F20C43ADF8C7
S3150800B2A0003030F86E3F01A95BBAADF802304DF0B8
S3150800B2B0A4FA04230C2128460DF10202FFF70BF825
S3150800B2C040B9002006E02846616DFFF73DF80028E2
S3150800B2D03FF462AF02B070BD08230221284604F18C
S3150800B2E04102FEF7F8FF002891D0F3E7F0B5C3B0A6
S3150800B2F00F46054601A81C46164658F0D9FD0023F8
S3150800B300394601A88DF80231FFF71EFF9DF80201A4
S3150800B3102318FE2B15D801AB22463146184462F095
S3150800B32069F99DF8023128461C4401A98DF80241A5
S3150800B330FBF7F2FB18B9489B6B62499BAB6243B0BB
S3150800B340F0BD0320FBE773B56E46054603C986E8DC
S3150800B35003009DF80410FBF780FEC4B2102C10D829
S3150800B360294630468DF8044017F03AFB08B12B5DA4
S3150800B3704BB13046294617F02DFB0020285502B060
S3150800B38070BD0720FBE71820F9E7F7B50C46064617
S3150800B39088220021204661F00EFF354696F8FE30D9
S3150800B3A033449D4201D303B0F0BD2B780E2B0BD846
S3150800B3B00E2B11D8DFE803F0338A5079A568105CA4
S3150800B3C010101010B4102000352B31D009D8332BAB
S3150800B3D000F08480342B37D02846FCF75BF8054606
S3150800B3E0DCE74A2BF8D10122B5F8033084F884202B
S3150800B3F05BBAA4F85C30EFE70123A81C84F8783020
S3150800B40017F066FCC4E900012B895BBAC3F34E0347
S3150800B41023812B895BBA03F00103A372DCE70122BF
S3150800B420B5F8033084F880205BBAA4F85A30D3E71D
S3150800B43069462846FFF7CAFD0028CDD1012384F8BE
S3150800B4408330009B6367C7E72846FEF79BFF012307
S3150800B450606584F87E30BFE7012384F87C30D5F830
S3150800B4600230C4F84130D5F80630C4F84530B3E7A1
S3150800B470012384F87D30D5F80230C4F84930D5F870
S3150800B4800630C4F84D30A7E7012304F1200784F8F5
S3150800B4907A3005F1120CAB1C3A461868596808331D
S3150800B4A003C263451746F7D196E7012384F87B3034
S3150800B4B06B78AA1C102B28BF1023694604F13000AC
S3150800B4C000928DF80430FFF73EFF85E701226B886E
S3150800B4D084F87F205BBAA4F858307DE70123A81CBE
S3150800B4E084F8793017F0F4FBC4E904012B895BBAB8
S3150800B4F0C3F34E0323832B895BBA03F00103A376B8
S3150800B5006AE7012304F15E0284F8813005F112012D
